{
  "_format": "hh-sol-artifact-1",
  "contractName": "TinyBoxesBase",
  "sourceName": "contracts/TinyBoxesBase.sol",
  "abi": [
    {
      "inputs": [
        {
          "internalType": "address",
          "name": "entropySourceAddress",
          "type": "address"
        }
      ],
      "stateMutability": "nonpayable",
      "type": "constructor"
    },
    {
      "anonymous": false,
      "inputs": [
        {
          "indexed": true,
          "internalType": "address",
          "name": "owner",
          "type": "address"
        },
        {
          "indexed": true,
          "internalType": "address",
          "name": "approved",
          "type": "address"
        },
        {
          "indexed": true,
          "internalType": "uint256",
          "name": "tokenId",
          "type": "uint256"
        }
      ],
      "name": "Approval",
      "type": "event"
    },
    {
      "anonymous": false,
      "inputs": [
        {
          "indexed": true,
          "internalType": "address",
          "name": "owner",
          "type": "address"
        },
        {
          "indexed": true,
          "internalType": "address",
          "name": "operator",
          "type": "address"
        },
        {
          "indexed": false,
          "internalType": "bool",
          "name": "approved",
          "type": "bool"
        }
      ],
      "name": "ApprovalForAll",
      "type": "event"
    },
    {
      "anonymous": false,
      "inputs": [
        {
          "indexed": true,
          "internalType": "bytes32",
          "name": "role",
          "type": "bytes32"
        },
        {
          "indexed": true,
          "internalType": "bytes32",
          "name": "previousAdminRole",
          "type": "bytes32"
        },
        {
          "indexed": true,
          "internalType": "bytes32",
          "name": "newAdminRole",
          "type": "bytes32"
        }
      ],
      "name": "RoleAdminChanged",
      "type": "event"
    },
    {
      "anonymous": false,
      "inputs": [
        {
          "indexed": true,
          "internalType": "bytes32",
          "name": "role",
          "type": "bytes32"
        },
        {
          "indexed": true,
          "internalType": "address",
          "name": "account",
          "type": "address"
        },
        {
          "indexed": true,
          "internalType": "address",
          "name": "sender",
          "type": "address"
        }
      ],
      "name": "RoleGranted",
      "type": "event"
    },
    {
      "anonymous": false,
      "inputs": [
        {
          "indexed": true,
          "internalType": "bytes32",
          "name": "role",
          "type": "bytes32"
        },
        {
          "indexed": true,
          "internalType": "address",
          "name": "account",
          "type": "address"
        },
        {
          "indexed": true,
          "internalType": "address",
          "name": "sender",
          "type": "address"
        }
      ],
      "name": "RoleRevoked",
      "type": "event"
    },
    {
      "anonymous": false,
      "inputs": [
        {
          "indexed": true,
          "internalType": "address",
          "name": "from",
          "type": "address"
        },
        {
          "indexed": true,
          "internalType": "address",
          "name": "to",
          "type": "address"
        },
        {
          "indexed": true,
          "internalType": "uint256",
          "name": "tokenId",
          "type": "uint256"
        }
      ],
      "name": "Transfer",
      "type": "event"
    },
    {
      "inputs": [],
      "name": "ADMIN_ROLE",
      "outputs": [
        {
          "internalType": "bytes32",
          "name": "",
          "type": "bytes32"
        }
      ],
      "stateMutability": "view",
      "type": "function"
    },
    {
      "inputs": [],
      "name": "ANIMATION_COUNT",
      "outputs": [
        {
          "internalType": "uint8",
          "name": "",
          "type": "uint8"
        }
      ],
      "stateMutability": "view",
      "type": "function"
    },
    {
      "inputs": [],
      "name": "DEFAULT_ADMIN_ROLE",
      "outputs": [
        {
          "internalType": "bytes32",
          "name": "",
          "type": "bytes32"
        }
      ],
      "stateMutability": "view",
      "type": "function"
    },
    {
      "inputs": [],
      "name": "SCHEME_COUNT",
      "outputs": [
        {
          "internalType": "uint8",
          "name": "",
          "type": "uint8"
        }
      ],
      "stateMutability": "view",
      "type": "function"
    },
    {
      "inputs": [],
      "name": "TOKEN_LIMIT",
      "outputs": [
        {
          "internalType": "uint16",
          "name": "",
          "type": "uint16"
        }
      ],
      "stateMutability": "view",
      "type": "function"
    },
    {
      "inputs": [
        {
          "internalType": "address",
          "name": "to",
          "type": "address"
        },
        {
          "internalType": "uint256",
          "name": "tokenId",
          "type": "uint256"
        }
      ],
      "name": "approve",
      "outputs": [],
      "stateMutability": "nonpayable",
      "type": "function"
    },
    {
      "inputs": [],
      "name": "avgBlockTime",
      "outputs": [
        {
          "internalType": "uint8",
          "name": "",
          "type": "uint8"
        }
      ],
      "stateMutability": "view",
      "type": "function"
    },
    {
      "inputs": [
        {
          "internalType": "address",
          "name": "owner",
          "type": "address"
        }
      ],
      "name": "balanceOf",
      "outputs": [
        {
          "internalType": "uint256",
          "name": "",
          "type": "uint256"
        }
      ],
      "stateMutability": "view",
      "type": "function"
    },
    {
      "inputs": [],
      "name": "baseURI",
      "outputs": [
        {
          "internalType": "string",
          "name": "",
          "type": "string"
        }
      ],
      "stateMutability": "view",
      "type": "function"
    },
    {
      "inputs": [],
      "name": "blockStart",
      "outputs": [
        {
          "internalType": "uint256",
          "name": "",
          "type": "uint256"
        }
      ],
      "stateMutability": "view",
      "type": "function"
    },
    {
      "inputs": [
        {
          "internalType": "uint256",
          "name": "id",
          "type": "uint256"
        },
        {
          "internalType": "uint8[3]",
          "name": "settings",
          "type": "uint8[3]"
        }
      ],
      "name": "changeSettings",
      "outputs": [],
      "stateMutability": "nonpayable",
      "type": "function"
    },
    {
      "inputs": [],
      "name": "contractURI",
      "outputs": [
        {
          "internalType": "string",
          "name": "",
          "type": "string"
        }
      ],
      "stateMutability": "view",
      "type": "function"
    },
    {
      "inputs": [],
      "name": "currentPhase",
      "outputs": [
        {
          "internalType": "uint8",
          "name": "",
          "type": "uint8"
        }
      ],
      "stateMutability": "view",
      "type": "function"
    },
    {
      "inputs": [
        {
          "internalType": "uint256",
          "name": "tokenId",
          "type": "uint256"
        }
      ],
      "name": "getApproved",
      "outputs": [
        {
          "internalType": "address",
          "name": "",
          "type": "address"
        }
      ],
      "stateMutability": "view",
      "type": "function"
    },
    {
      "inputs": [
        {
          "internalType": "bytes32",
          "name": "role",
          "type": "bytes32"
        }
      ],
      "name": "getRoleAdmin",
      "outputs": [
        {
          "internalType": "bytes32",
          "name": "",
          "type": "bytes32"
        }
      ],
      "stateMutability": "view",
      "type": "function"
    },
    {
      "inputs": [
        {
          "internalType": "bytes32",
          "name": "role",
          "type": "bytes32"
        },
        {
          "internalType": "uint256",
          "name": "index",
          "type": "uint256"
        }
      ],
      "name": "getRoleMember",
      "outputs": [
        {
          "internalType": "address",
          "name": "",
          "type": "address"
        }
      ],
      "stateMutability": "view",
      "type": "function"
    },
    {
      "inputs": [
        {
          "internalType": "bytes32",
          "name": "role",
          "type": "bytes32"
        }
      ],
      "name": "getRoleMemberCount",
      "outputs": [
        {
          "internalType": "uint256",
          "name": "",
          "type": "uint256"
        }
      ],
      "stateMutability": "view",
      "type": "function"
    },
    {
      "inputs": [
        {
          "internalType": "bytes32",
          "name": "role",
          "type": "bytes32"
        },
        {
          "internalType": "address",
          "name": "account",
          "type": "address"
        }
      ],
      "name": "grantRole",
      "outputs": [],
      "stateMutability": "nonpayable",
      "type": "function"
    },
    {
      "inputs": [
        {
          "internalType": "bytes32",
          "name": "role",
          "type": "bytes32"
        },
        {
          "internalType": "address",
          "name": "account",
          "type": "address"
        }
      ],
      "name": "hasRole",
      "outputs": [
        {
          "internalType": "bool",
          "name": "",
          "type": "bool"
        }
      ],
      "stateMutability": "view",
      "type": "function"
    },
    {
      "inputs": [
        {
          "internalType": "address",
          "name": "owner",
          "type": "address"
        },
        {
          "internalType": "address",
          "name": "operator",
          "type": "address"
        }
      ],
      "name": "isApprovedForAll",
      "outputs": [
        {
          "internalType": "bool",
          "name": "",
          "type": "bool"
        }
      ],
      "stateMutability": "view",
      "type": "function"
    },
    {
      "inputs": [],
      "name": "name",
      "outputs": [
        {
          "internalType": "string",
          "name": "",
          "type": "string"
        }
      ],
      "stateMutability": "view",
      "type": "function"
    },
    {
      "inputs": [
        {
          "internalType": "uint256",
          "name": "tokenId",
          "type": "uint256"
        }
      ],
      "name": "ownerOf",
      "outputs": [
        {
          "internalType": "address",
          "name": "",
          "type": "address"
        }
      ],
      "stateMutability": "view",
      "type": "function"
    },
    {
      "inputs": [],
      "name": "paused",
      "outputs": [
        {
          "internalType": "bool",
          "name": "",
          "type": "bool"
        }
      ],
      "stateMutability": "view",
      "type": "function"
    },
    {
      "inputs": [],
      "name": "phaseCountdown",
      "outputs": [
        {
          "internalType": "uint256",
          "name": "",
          "type": "uint256"
        }
      ],
      "stateMutability": "view",
      "type": "function"
    },
    {
      "inputs": [],
      "name": "phaseCountdownTime",
      "outputs": [
        {
          "internalType": "uint32",
          "name": "",
          "type": "uint32"
        }
      ],
      "stateMutability": "view",
      "type": "function"
    },
    {
      "inputs": [],
      "name": "phaseLen",
      "outputs": [
        {
          "internalType": "uint16",
          "name": "",
          "type": "uint16"
        }
      ],
      "stateMutability": "view",
      "type": "function"
    },
    {
      "inputs": [
        {
          "internalType": "uint256",
          "name": "id",
          "type": "uint256"
        }
      ],
      "name": "readSettings",
      "outputs": [
        {
          "internalType": "uint8",
          "name": "bkg",
          "type": "uint8"
        },
        {
          "internalType": "uint8",
          "name": "duration",
          "type": "uint8"
        },
        {
          "internalType": "uint8",
          "name": "options",
          "type": "uint8"
        }
      ],
      "stateMutability": "view",
      "type": "function"
    },
    {
      "inputs": [
        {
          "internalType": "bytes32",
          "name": "role",
          "type": "bytes32"
        },
        {
          "internalType": "address",
          "name": "account",
          "type": "address"
        }
      ],
      "name": "renounceRole",
      "outputs": [],
      "stateMutability": "nonpayable",
      "type": "function"
    },
    {
      "inputs": [
        {
          "internalType": "bytes32",
          "name": "role",
          "type": "bytes32"
        },
        {
          "internalType": "address",
          "name": "account",
          "type": "address"
        }
      ],
      "name": "revokeRole",
      "outputs": [],
      "stateMutability": "nonpayable",
      "type": "function"
    },
    {
      "inputs": [
        {
          "internalType": "address",
          "name": "from",
          "type": "address"
        },
        {
          "internalType": "address",
          "name": "to",
          "type": "address"
        },
        {
          "internalType": "uint256",
          "name": "tokenId",
          "type": "uint256"
        }
      ],
      "name": "safeTransferFrom",
      "outputs": [],
      "stateMutability": "nonpayable",
      "type": "function"
    },
    {
      "inputs": [
        {
          "internalType": "address",
          "name": "from",
          "type": "address"
        },
        {
          "internalType": "address",
          "name": "to",
          "type": "address"
        },
        {
          "internalType": "uint256",
          "name": "tokenId",
          "type": "uint256"
        },
        {
          "internalType": "bytes",
          "name": "_data",
          "type": "bytes"
        }
      ],
      "name": "safeTransferFrom",
      "outputs": [],
      "stateMutability": "nonpayable",
      "type": "function"
    },
    {
      "inputs": [
        {
          "internalType": "address",
          "name": "operator",
          "type": "address"
        },
        {
          "internalType": "bool",
          "name": "approved",
          "type": "bool"
        }
      ],
      "name": "setApprovalForAll",
      "outputs": [],
      "stateMutability": "nonpayable",
      "type": "function"
    },
    {
      "inputs": [
        {
          "internalType": "string",
          "name": "_uri",
          "type": "string"
        }
      ],
      "name": "setBaseURI",
      "outputs": [],
      "stateMutability": "nonpayable",
      "type": "function"
    },
    {
      "inputs": [
        {
          "internalType": "string",
          "name": "_uri",
          "type": "string"
        }
      ],
      "name": "setContractURI",
      "outputs": [],
      "stateMutability": "nonpayable",
      "type": "function"
    },
    {
      "inputs": [
        {
          "internalType": "bool",
          "name": "state",
          "type": "bool"
        }
      ],
      "name": "setPause",
      "outputs": [],
      "stateMutability": "nonpayable",
      "type": "function"
    },
    {
      "inputs": [
        {
          "internalType": "address",
          "name": "rand",
          "type": "address"
        }
      ],
      "name": "setRandom",
      "outputs": [],
      "stateMutability": "nonpayable",
      "type": "function"
    },
    {
      "inputs": [
        {
          "internalType": "uint256",
          "name": "_id",
          "type": "uint256"
        },
        {
          "internalType": "string",
          "name": "_uri",
          "type": "string"
        }
      ],
      "name": "setTokenURI",
      "outputs": [],
      "stateMutability": "nonpayable",
      "type": "function"
    },
    {
      "inputs": [
        {
          "internalType": "uint256",
          "name": "startBlock",
          "type": "uint256"
        }
      ],
      "name": "startCountdown",
      "outputs": [],
      "stateMutability": "nonpayable",
      "type": "function"
    },
    {
      "inputs": [
        {
          "internalType": "bytes4",
          "name": "interfaceId",
          "type": "bytes4"
        }
      ],
      "name": "supportsInterface",
      "outputs": [
        {
          "internalType": "bool",
          "name": "",
          "type": "bool"
        }
      ],
      "stateMutability": "view",
      "type": "function"
    },
    {
      "inputs": [],
      "name": "symbol",
      "outputs": [
        {
          "internalType": "string",
          "name": "",
          "type": "string"
        }
      ],
      "stateMutability": "view",
      "type": "function"
    },
    {
      "inputs": [],
      "name": "testRandom",
      "outputs": [
        {
          "internalType": "bytes32",
          "name": "",
          "type": "bytes32"
        }
      ],
      "stateMutability": "view",
      "type": "function"
    },
    {
      "inputs": [
        {
          "internalType": "uint256",
          "name": "index",
          "type": "uint256"
        }
      ],
      "name": "tokenByIndex",
      "outputs": [
        {
          "internalType": "uint256",
          "name": "",
          "type": "uint256"
        }
      ],
      "stateMutability": "view",
      "type": "function"
    },
    {
      "inputs": [
        {
          "internalType": "uint256",
          "name": "_id",
          "type": "uint256"
        }
      ],
      "name": "tokenData",
      "outputs": [
        {
          "internalType": "uint128",
          "name": "randomness",
          "type": "uint128"
        },
        {
          "internalType": "uint256",
          "name": "animation",
          "type": "uint256"
        },
        {
          "internalType": "uint8",
          "name": "shapes",
          "type": "uint8"
        },
        {
          "internalType": "uint8",
          "name": "hatching",
          "type": "uint8"
        },
        {
          "internalType": "uint8[4]",
          "name": "size",
          "type": "uint8[4]"
        },
        {
          "internalType": "uint8[2]",
          "name": "spacing",
          "type": "uint8[2]"
        },
        {
          "internalType": "uint8",
          "name": "mirroring",
          "type": "uint8"
        },
        {
          "internalType": "uint16[3]",
          "name": "color",
          "type": "uint16[3]"
        },
        {
          "internalType": "uint8",
          "name": "contrast",
          "type": "uint8"
        },
        {
          "internalType": "uint8",
          "name": "shades",
          "type": "uint8"
        },
        {
          "internalType": "uint8",
          "name": "scheme",
          "type": "uint8"
        }
      ],
      "stateMutability": "view",
      "type": "function"
    },
    {
      "inputs": [
        {
          "internalType": "address",
          "name": "owner",
          "type": "address"
        },
        {
          "internalType": "uint256",
          "name": "index",
          "type": "uint256"
        }
      ],
      "name": "tokenOfOwnerByIndex",
      "outputs": [
        {
          "internalType": "uint256",
          "name": "",
          "type": "uint256"
        }
      ],
      "stateMutability": "view",
      "type": "function"
    },
    {
      "inputs": [
        {
          "internalType": "uint256",
          "name": "tokenId",
          "type": "uint256"
        }
      ],
      "name": "tokenURI",
      "outputs": [
        {
          "internalType": "string",
          "name": "",
          "type": "string"
        }
      ],
      "stateMutability": "view",
      "type": "function"
    },
    {
      "inputs": [],
      "name": "totalSupply",
      "outputs": [
        {
          "internalType": "uint256",
          "name": "",
          "type": "uint256"
        }
      ],
      "stateMutability": "view",
      "type": "function"
    },
    {
      "inputs": [
        {
          "internalType": "address",
          "name": "from",
          "type": "address"
        },
        {
          "internalType": "address",
          "name": "to",
          "type": "address"
        },
        {
          "internalType": "uint256",
          "name": "tokenId",
          "type": "uint256"
        }
      ],
      "name": "transferFrom",
      "outputs": [],
      "stateMutability": "nonpayable",
      "type": "function"
    },
    {
      "inputs": [
        {
          "internalType": "uint256",
          "name": "id",
          "type": "uint256"
        }
      ],
      "name": "trueID",
      "outputs": [
        {
          "internalType": "int8",
          "name": "",
          "type": "int8"
        }
      ],
      "stateMutability": "pure",
      "type": "function"
    },
    {
      "inputs": [
        {
          "internalType": "uint8",
          "name": "shapes",
          "type": "uint8"
        },
        {
          "internalType": "uint8",
          "name": "hatching",
          "type": "uint8"
        },
        {
          "internalType": "uint16[3]",
          "name": "color",
          "type": "uint16[3]"
        },
        {
          "internalType": "uint8[4]",
          "name": "size",
          "type": "uint8[4]"
        },
        {
          "internalType": "uint8[2]",
          "name": "position",
          "type": "uint8[2]"
        },
        {
          "internalType": "bool",
          "name": "exclusive",
          "type": "bool"
        }
      ],
      "name": "validateParams",
      "outputs": [],
      "stateMutability": "pure",
      "type": "function"
    }
  ],
  "bytecode": "0x6080604052600d8054600160a01b60ff60a01b19909116179055620000336078600f620001c0602090811b6200170f17901c565b600f556040518060600160405280602b815260200162003ff5602b913980516200006691601091602090910190620003db565b503480156200007457600080fd5b50604051620040203803806200402083398101604081905262000097916200047d565b604080518082018252600981526854696e79426f78657360b81b602080830191909152825180840190935260068352655b235d5b235d60d01b9083015290620000f06301ffc9a760e01b6001600160e01b036200021316565b815162000105906006906020850190620003db565b5080516200011b906007906020840190620003db565b50620001376380ac58cd60e01b6001600160e01b036200021316565b62000152635b5e139f60e01b6001600160e01b036200021316565b6200016d63780e9d6360e01b6001600160e01b036200021316565b50506200019a6040516200018190620004ad565b604051908190039020336001600160e01b036200026e16565b600d80546001600160a01b0319166001600160a01b039290921691909117905562000550565b60006200020a83836040518060400160405280601a81526020017f536166654d6174683a206469766973696f6e206279207a65726f0000000000008152506200028760201b60201c565b90505b92915050565b6001600160e01b03198082161415620002495760405162461bcd60e51b8152600401620002409062000519565b60405180910390fd5b6001600160e01b0319166000908152602081905260409020805460ff19166001179055565b6200028382826001600160e01b03620002c216565b5050565b60008183620002ab5760405162461bcd60e51b8152600401620002409190620004c3565b506000838581620002b857fe5b0495945050505050565b6000828152600a60209081526040909120620002e99183906200175162000346821b17901c565b156200028357620003026001600160e01b036200036616565b6001600160a01b0316816001600160a01b0316837f2f8788117e7eff1d82e926ec794901d17c78024a50270940304540a733656f0d60405160405180910390a45050565b60006200020a836001600160a01b0384166001600160e01b036200036b16565b335b90565b60006200038283836001600160e01b03620003c316565b620003ba575081546001818101845560008481526020808220909301849055845484825282860190935260409020919091556200020d565b5060006200020d565b60009081526001919091016020526040902054151590565b828054600181600116156101000203166002900490600052602060002090601f016020900481019282601f106200041e57805160ff19168380011785556200044e565b828001600101855582156200044e579182015b828111156200044e57825182559160200191906001019062000431565b506200045c92915062000460565b5090565b6200036891905b808211156200045c576000815560010162000467565b6000602082840312156200048f578081fd5b81516001600160a01b0381168114620004a6578182fd5b9392505050565b6941444d494e5f524f4c4560b01b8152600a0190565b6000602080835283518082850152825b81811015620004f157858101830151858201604001528201620004d3565b81811115620005035783604083870101525b50601f01601f1916929092016040019392505050565b6020808252601c908201527f4552433136353a20696e76616c696420696e7465726661636520696400000000604082015260600190565b613a9580620005606000396000f3fe608060405234801561001057600080fd5b50600436106102bb5760003560e01c806375b238fc11610182578063b88d4fde116100e9578063dbde5222116100a2578063f19e14861161007c578063f19e1486146105fe578063fbddd14b14610606578063fc4ea9391461060e578063fd05dd6a14610616576102bb565b8063dbde5222146105d0578063e8a3d485146105e3578063e985e9c5146105eb576102bb565b8063b88d4fde1461055e578063bedb86fb14610571578063c87b56dd14610584578063ca15c87314610597578063ca9c0bad146105aa578063d547741f146105bd576102bb565b8063947e93d91161013b578063947e93d9146104e757806395d89b4114610509578063a217fddf14610511578063a22cb46514610519578063b3174fa11461052c578063b4b5b48f14610534576102bb565b806375b238fc1461048b5780637b2feaaa1461049357806387bd15ef1461049b5780639010d07c146104ae57806391d14854146104c1578063938e3d7b146104d4576102bb565b80632f745c591161022657806355f804b3116101df57806355f804b31461043a5780635c975abb1461044d5780636352211e146104555780636c0360eb1461046857806370a082311461047057806371a0a01614610483576102bb565b80632f745c59146103c657806336568abe146103d95780633c564cab146103ec57806342842e0e146103ff5780634f6ccce7146104125780635241019714610425576102bb565b80630e1b9b0e116102785780630e1b9b0e1461035d578063162094c41461036557806318160ddd1461037857806323b872dd1461038d578063248a9ca3146103a05780632f2ff15d146103b3576102bb565b806301ffc9a7146102c0578063031bd4c4146102e9578063055ad42e146102fe57806306fdde0314610313578063081812fc14610328578063095ea7b314610348575b600080fd5b6102d36102ce366004612c59565b610636565b6040516102e09190612fd3565b60405180910390f35b6102f1610659565b6040516102e0919061391e565b61030661065e565b6040516102e0919061393e565b61031b610681565b6040516102e09190612fec565b61033b610336366004612bd9565b610717565b6040516102e09190612f82565b61035b610356366004612b8f565b610763565b005b6103066107fb565b61035b610373366004612d02565b610800565b61038061085c565b6040516102e09190612eb8565b61035b61039b366004612a6e565b610868565b6103806103ae366004612bd9565b6108a0565b61035b6103c1366004612c09565b6108b5565b6103806103d4366004612b8f565b6108fd565b61035b6103e7366004612c09565b61092e565b61035b6103fa366004612cd1565b610970565b61035b61040d366004612a6e565b610af0565b610380610420366004612bd9565b610b0b565b61042d610b27565b6040516102e0919061392d565b61035b610448366004612c91565b610b2c565b6102d3610b7a565b61033b610463366004612bd9565b610b8a565b61031b610bb8565b61038061047e366004612a1f565b610c19565b610306610c62565b610380610c67565b610380610c7e565b61035b6104a9366004612bd9565b610c84565b61033b6104bc366004612c38565b610cc4565b6102d36104cf366004612c09565b610ce2565b61035b6104e2366004612c91565b610d00565b6104fa6104f5366004612bd9565b610d1b565b6040516102e09392919061394c565b61031b610e47565b610380610ea8565b61035b610527366004612b64565b610ead565b6102f1610f7b565b610547610542366004612bd9565b610f80565b6040516102e09b9a99989796959493929190613861565b61035b61056c366004612aae565b6111e1565b61035b61057f366004612bb9565b611220565b61031b610592366004612bd9565b61124d565b6103806105a5366004612bd9565b611397565b61035b6105b8366004612a1f565b6113ae565b61035b6105cb366004612c09565b6113df565b61035b6105de366004612d67565b611419565b61031b6115b1565b6102d36105f9366004612a3a565b61163f565b61030661166d565b610380611672565b610380611709565b610629610624366004612bd9565b61067e565b6040516102e09190612fde565b6001600160e01b0319811660009081526020819052604090205460ff165b919050565b606e81565b600061067b600a61066f600b611766565b9063ffffffff61170f16565b90505b90565b60068054604080516020601f600260001961010060018816150201909516949094049384018190048102820181019092528281526060939092909183018282801561070d5780601f106106e25761010080835404028352916020019161070d565b820191906000526020600020905b8154815290600101906020018083116106f057829003601f168201915b5050505050905090565b60006107228261176a565b6107475760405162461bcd60e51b815260040161073e90613433565b60405180910390fd5b506000908152600460205260409020546001600160a01b031690565b600061076e82610b8a565b9050806001600160a01b0316836001600160a01b031614156107a25760405162461bcd60e51b815260040161073e906135e6565b806001600160a01b03166107b461177d565b6001600160a01b031614806107d057506107d0816105f961177d565b6107ec5760405162461bcd60e51b815260040161073e9061331e565b6107f68383611781565b505050565b601881565b61081c60405161080f90612f6c565b60405180910390206117ef565b6107f68383838080601f01602080910402602001604051908101604052809392919081815260200183838082843760009201919091525061181892505050565b600061067b600261185c565b61087961087361177d565b82611867565b6108955760405162461bcd60e51b815260040161073e90613627565b6107f68383836118ec565b6000908152600a602052604090206002015490565b6000828152600a60205260409020600201546108d3906104cf61177d565b6108ef5760405162461bcd60e51b815260040161073e90613041565b6108f98282611a0c565b5050565b6001600160a01b0382166000908152600160205260408120610925908363ffffffff611a7b16565b90505b92915050565b61093661177d565b6001600160a01b0316816001600160a01b0316146109665760405162461bcd60e51b815260040161073e906137ba565b6108f98282611a87565b61097982610b8a565b6001600160a01b0316336001600160a01b031614806109b1575061099c82610717565b6001600160a01b0316336001600160a01b0316145b6109cd5760405162461bcd60e51b815260040161073e906133c5565b60656109dc6020830183612d4c565b60ff1611156109fd5760405162461bcd60e51b815260040161073e9061325d565b6000610a0f6040830160208401612d4c565b60ff1611610a2f5760405162461bcd60e51b815260040161073e90613590565b610a3c6020820182612d4c565b6000838152601160205260409020805460ff92909216600160e81b0260ff60e81b19909216919091179055806001602002016020810190610a7d9190612d4c565b6000838152601160205260409020805460ff92909216600160f01b0260ff60f01b19909216919091179055806002602002016020810190610abe9190612d4c565b600092835260116020526040909220805460ff93909316600160f81b026001600160f81b039093169290921790915550565b6107f6838383604051806020016040528060008152506111e1565b600080610b1f60028463ffffffff611af616565b509392505050565b607881565b610b3b60405161080f90612f6c565b6108f982828080601f016020809104026020016040519081016040528093929190818152602001838380828437600092019190915250611b1492505050565b600d54600160a01b900460ff1681565b600061092882604051806060016040528060298152602001613a37602991396002919063ffffffff611b2716565b60098054604080516020601f600260001961010060018816150201909516949094049384018190048102820181019092528281526060939092909183018282801561070d5780601f106106e25761010080835404028352916020019161070d565b60006001600160a01b038216610c415760405162461bcd60e51b815260040161073e9061337b565b6001600160a01b03821660009081526001602052604090206109289061185c565b600b81565b604051610c7390612f6c565b604051809103902081565b600e5481565b610c9360405161080f90612f6c565b438111610cb25760405162461bcd60e51b815260040161073e906136d7565b600e55600d805460ff60a01b19169055565b6000828152600a60205260408120610925908363ffffffff611a7b16565b6000828152600a60205260408120610925908363ffffffff611b3e16565b610d0f60405161080f90612f6c565b6107f6601083836126a8565b6000806000610d28612726565b5050506000918252506011602090815260409182902082516102008101845290546001600160801b038116825261ffff600160801b8204169282019290925260ff600160901b8304811693820193909352600160981b820483166060820152600160a01b820483166080820152600160a81b8204831660a0820152600160b01b8204831660c0820152600160b81b8204831660e0820152600160c01b82048316610100820152600160c81b82048316610120820152600160d01b82048316610140820152600160d81b82048316610160820152600160e01b82048316610180820152600160e81b820483166101a08201819052600160f01b830484166101c08301819052600160f81b9093049093166101e09091018190529192909190565b60078054604080516020601f600260001961010060018816150201909516949094049384018190048102820181019092528281526060939092909183018282801561070d5780601f106106e25761010080835404028352916020019161070d565b600081565b610eb561177d565b6001600160a01b0316826001600160a01b03161415610ee65760405162461bcd60e51b815260040161073e906131e5565b8060056000610ef361177d565b6001600160a01b03908116825260208083019390935260409182016000908120918716808252919093529120805460ff191692151592909217909155610f3761177d565b6001600160a01b03167f17307eab39ab6107e8899845ad3d59bd9653f200f220920489ca2b5937696c3183604051610f6f9190612fd3565b60405180910390a35050565b600a81565b600080600080610f8e6127aa565b610f966127c8565b6000610fa06127e6565b6000806000610fad612726565b5060008c81526011602090815260409182902082516102008101845290546001600160801b038116825261ffff600160801b8204169282019290925260ff600160901b8304811693820193909352600160981b820483166060820152600160a01b820483166080820152600160a81b8204831660a0820152600160b01b8204831660c0820152600160b81b8204831660e0820152600160c01b82048316610100820152600160c81b82048316610120820152600160d01b82048316610140820152600160d81b82048316610160820152600160e01b82048316610180820152600160e81b820483166101a0820152600160f01b820483166101c0820152600160f81b9091049091166101e08201526110c36127aa565b6110cd828f611b53565b9050806000602002015160ff169b5080600160200201519250806002602002015193508060036020020151945081600001519c50816101800151965081608001519a508160a0015199506040518060600160405280836020015161ffff1661ffff168152602001836040015160ff1661ffff168152602001836060015160ff1661ffff16815250955060405180608001604052808360c0015160ff1660ff1681526020018360e0015160ff1660ff16815260200183610100015160ff1660ff16815260200183610120015160ff1660ff168152509850604051806040016040528083610140015160ff1660ff16815260200183610160015160ff1660ff168152509750505091939597999b90929496989a50565b6111f26111ec61177d565b83611867565b61120e5760405162461bcd60e51b815260040161073e90613627565b61121a84848484611d60565b50505050565b61122f60405161080f90612f6c565b600d8054911515600160a01b0260ff60a01b19909216919091179055565b60606112588261176a565b6112745760405162461bcd60e51b815260040161073e90613541565b60008281526008602090815260409182902080548351601f60026000196101006001861615020190931692909204918201849004840281018401909452808452606093928301828280156113095780601f106112de57610100808354040283529160200191611309565b820191906000526020600020905b8154815290600101906020018083116112ec57829003601f168201915b505060095493945050505060026000196101006001841615020190911604611332579050610654565b8051156113645760098160405160200161134d929190612eeb565b604051602081830303815290604052915050610654565b600961136f84611d93565b604051602001611380929190612eeb565b604051602081830303815290604052915050919050565b6000818152600a602052604081206109289061185c565b6113bd60405161080f90612f6c565b600d80546001600160a01b0319166001600160a01b0392909216919091179055565b6000828152600a60205260409020600201546113fd906104cf61177d565b6109665760405162461bcd60e51b815260040161073e906132ce565b60008660ff1611801561142f5750601f8660ff16105b61144b5760405162461bcd60e51b815260040161073e906134cb565b8560ff168560ff1611156114715760405162461bcd60e51b815260040161073e90613177565b610168846002602002015161ffff16111561149e5760405162461bcd60e51b815260040161073e90613090565b6064846001602002015161ffff1611156114ca5760405162461bcd60e51b815260040161073e906135ba565b806114fb576014846001602002015161ffff1610156114fb5760405162461bcd60e51b815260040161073e906135ba565b6064846002602002015161ffff1611156115275760405162461bcd60e51b815260040161073e90613809565b6020830151835160ff918216911611156115535760405162461bcd60e51b815260040161073e90613834565b6060830151604084015160ff918216911611156115825760405162461bcd60e51b815260040161073e90613705565b8151606460ff90911611156115a95760405162461bcd60e51b815260040161073e906136af565b505050505050565b6010805460408051602060026001851615610100026000190190941693909304601f810184900484028201840190925281815292918301828280156116375780601f1061160c57610100808354040283529160200191611637565b820191906000526020600020905b81548152906001019060200180831161161a57829003601f168201915b505050505081565b6001600160a01b03918216600090815260056020908152604080832093909416825291909152205460ff1690565b600f81565b600061168360405161080f90612f6c565b600d60009054906101000a90046001600160a01b03166001600160a01b031663990c8f796040518163ffffffff1660e01b815260040160206040518083038186803b1580156116d157600080fd5b505afa1580156116e5573d6000803e3d6000fd5b505050506040513d601f19601f8201168201806040525081019061067b9190612bf1565b600f5481565b600061092583836040518060400160405280601a81526020017f536166654d6174683a206469766973696f6e206279207a65726f000000000000815250611e6e565b6000610925836001600160a01b038416611ea5565b5490565b600061092860028363ffffffff611eef16565b3390565b600081815260046020526040902080546001600160a01b0319166001600160a01b03841690811790915581906117b682610b8a565b6001600160a01b03167f8c5be1e5ebec7d5bd14f71427d1e84f3dd0314c0f7b2291e5b200ac8c7c3b92560405160405180910390a45050565b6117f98133610ce2565b6118155760405162461bcd60e51b815260040161073e90613733565b50565b6118218261176a565b61183d5760405162461bcd60e51b815260040161073e9061347f565b600082815260086020908152604090912082516107f692840190612804565b600061092882611766565b60006118728261176a565b61188e5760405162461bcd60e51b815260040161073e90613282565b600061189983610b8a565b9050806001600160a01b0316846001600160a01b031614806118d45750836001600160a01b03166118c984610717565b6001600160a01b0316145b806118e457506118e4818561163f565b949350505050565b826001600160a01b03166118ff82610b8a565b6001600160a01b0316146119255760405162461bcd60e51b815260040161073e906134f8565b6001600160a01b03821661194b5760405162461bcd60e51b815260040161073e906131a1565b6119568383836107f6565b611961600082611781565b6001600160a01b0383166000908152600160205260409020611989908263ffffffff611efb16565b506001600160a01b03821660009081526001602052604090206119b2908263ffffffff611f0716565b506119c56002828463ffffffff611f1316565b5080826001600160a01b0316846001600160a01b03167fddf252ad1be2c89b69c2b068fc378daa952ba7f163c4a11628f55a4df523b3ef60405160405180910390a4505050565b6000828152600a60205260409020611a2a908263ffffffff61175116565b156108f957611a3761177d565b6001600160a01b0316816001600160a01b0316837f2f8788117e7eff1d82e926ec794901d17c78024a50270940304540a733656f0d60405160405180910390a45050565b60006109258383611f29565b6000828152600a60205260409020611aa5908263ffffffff611f6e16565b156108f957611ab261177d565b6001600160a01b0316816001600160a01b0316837ff6391f5c32d9c69d2a47ea670b442974b53935d1edc7fd64eb21e047a839171b60405160405180910390a45050565b6000808080611b058686611f83565b909450925050505b9250929050565b80516108f9906009906020840190612804565b6000611b34848484611fdf565b90505b9392505050565b6000610925836001600160a01b03841661203e565b611b5b6127aa565b606e821015611d09576060611b7c84600001516001600160801b0316612056565b9050611b86612872565b506040805160e0810182526001808252600260208301819052600593830184905260096060840152608083019390935260a082019290925260c0810191909152611bce612890565b506040805161030081018252600180825260208201819052918101829052606081018290526080810182905260a0810182905260c0810182905260e08101829052610100810182905261012081018290526101408101829052610160810182905261018081018290526101a081018290526101c081018290526101e08101829052610200810182905261022081018290526102408101829052610260810182905261028081018290526102a081018290526102c081018290526102e0810191909152611ca28382601863ffffffff61210d16565b60ff168452611cb285600a61170f565b60ff166020850152611cda6001611ccb8585601961217d565b60ff169063ffffffff6121ce16565b60ff90811660408601526060870151611cf8918591600091166121f3565b60ff16606085015250610928915050565b825160ff6001607b1b6001600160801b03928316041682528351600160771b90821604600f1660208301528351600160741b90821604600716604083015292516001606d1b931692909204607f1660608301525090565b611d6b8484846118ec565b611d7784848484612236565b61121a5760405162461bcd60e51b815260040161073e906130b7565b606081611db857506040805180820190915260018152600360fc1b6020820152610654565b8160005b8115611dd057600101600a82049150611dbc565b60608167ffffffffffffffff81118015611de957600080fd5b506040519080825280601f01601f191660200182016040528015611e14576020820181803683370190505b50859350905060001982015b8315611e6557600a840660300160f81b82828060019003935081518110611e4357fe5b60200101906001600160f81b031916908160001a905350600a84049350611e20565b50949350505050565b60008183611e8f5760405162461bcd60e51b815260040161073e9190612fec565b506000838581611e9b57fe5b0495945050505050565b6000611eb1838361203e565b611ee757508154600181810184556000848152602080822090930184905584548482528286019093526040902091909155610928565b506000610928565b6000610925838361203e565b6000610925838361231b565b60006109258383611ea5565b6000611b3484846001600160a01b0385166123e1565b81546000908210611f4c5760405162461bcd60e51b815260040161073e90612fff565b826000018281548110611f5b57fe5b9060005260206000200154905092915050565b6000610925836001600160a01b03841661231b565b815460009081908310611fa85760405162461bcd60e51b815260040161073e906133f1565b6000846000018481548110611fb957fe5b906000526020600020906002020190508060000154816001015492509250509250929050565b6000828152600184016020526040812054828161200f5760405162461bcd60e51b815260040161073e9190612fec565b5084600001600182038154811061202257fe5b9060005260206000209060020201600101549150509392505050565b60009081526001919091016020526040902054151590565b60408051600380825260808201909252606091600291839160208201838036833701905050905060008085604051602001612092929190612ec1565b60408051601f198184030181529190528051602090910120905060005b83811015612103578040826040516020016120cb929190612ec1565b604051602081830303815290604052805190602001208382600101815181106120f057fe5b60209081029190910101526001016120af565b5090949350505050565b60008061211f8560018560ff166121f3565b90506000805b60188160ff16101561217357612158868260ff166018811061214357fe5b6020020151839060ff1663ffffffff61247816565b915081831361216b579250611b37915050565b600101612125565b5050509392505050565b60008061218f8560018560ff166121f3565b90506000805b60078160ff161015612173576121b3868260ff166007811061214357fe5b91508183136121c6579250611b37915050565b600101612195565b6000828201838110156109255760405162461bcd60e51b815260040161073e90613109565b6000818313156122155760405162461bcd60e51b815260040161073e90613785565b82838303600101612225866124be565b8161222c57fe5b0601949350505050565b600061224a846001600160a01b03166125a1565b612256575060016118e4565b60606122e4630a85bd0160e11b61226b61177d565b8887876040516024016122819493929190612f96565b604051602081830303815290604052906001600160e01b0319166020820180516001600160e01b038381831617835250505050604051806060016040528060328152602001613a05603291396001600160a01b038816919063ffffffff6125da16565b90506000818060200190518101906122fc9190612c75565b6001600160e01b031916630a85bd0160e11b1492505050949350505050565b600081815260018301602052604081205480156123d7578354600019808301919081019060009087908390811061234e57fe5b906000526020600020015490508087600001848154811061236b57fe5b60009182526020808320909101929092558281526001898101909252604090209084019055865487908061239b57fe5b60019003818190600052602060002001600090559055866001016000878152602001908152602001600020600090556001945050505050610928565b6000915050610928565b600082815260018401602052604081205480612446575050604080518082018252838152602080820184815286546001818101895560008981528481209551600290930290950191825591519082015586548684528188019092529290912055611b37565b8285600001600183038154811061245957fe5b9060005260206000209060020201600101819055506000915050611b37565b600082820181831280159061248d5750838112155b806124a257506000831280156124a257508381125b6109255760405162461bcd60e51b815260040161073e9061321c565b600060018251116124e15760405162461bcd60e51b815260040161073e90613140565b60006001835103836000815181106124f557fe5b602002602001015160001c8161250757fe5b066001019050600083828151811061251b57fe5b60200260200101516040516020016125339190612eb8565b6040516020818303038152906040528051906020012090508360008151811061255857fe5b602002602001015160001c60010160001b8460008151811061257657fe5b6020026020010181815250508084838151811061258f57fe5b60209081029190910101529392505050565b6000813f7fc5d2460186f7233c927e7db2dcc703c0e500b653ca82273b7bfad8045d85a4708181148015906118e4575050151592915050565b6060611b34848460008560606125ef856125a1565b61260b5760405162461bcd60e51b815260040161073e90613678565b60006060866001600160a01b031685876040516126289190612ecf565b60006040518083038185875af1925050503d8060008114612665576040519150601f19603f3d011682016040523d82523d6000602084013e61266a565b606091505b5091509150811561267e5791506118e49050565b80511561268e5780518082602001fd5b8360405162461bcd60e51b815260040161073e9190612fec565b828054600181600116156101000203166002900490600052602060002090601f016020900481019282601f106126e95782800160ff19823516178555612716565b82800160010185558215612716579182015b828111156127165782358255916020019190600101906126fb565b506127229291506128af565b5090565b6040805161020081018252600080825260208201819052918101829052606081018290526080810182905260a0810182905260c0810182905260e08101829052610100810182905261012081018290526101408101829052610160810182905261018081018290526101a081018290526101c081018290526101e081019190915290565b60405180608001604052806004906020820280368337509192915050565b60405180604001604052806002906020820280368337509192915050565b60405180606001604052806003906020820280368337509192915050565b828054600181600116156101000203166002900490600052602060002090601f016020900481019282601f1061284557805160ff1916838001178555612716565b82800160010185558215612716579182015b82811115612716578251825591602001919060010190612857565b6040518060e001604052806007906020820280368337509192915050565b6040518061030001604052806018906020820280368337509192915050565b61067e91905b8082111561272257600081556001016128b5565b80356001600160a01b038116811461092857600080fd5b600082601f8301126128f0578081fd5b6128fa6040613969565b905080828460408501111561290e57600080fd5b6000805b600281101561294057823560ff8116811461292b578283fd5b84526020938401939290920191600101612912565b5050505092915050565b600082601f83011261295a578081fd5b6129646080613969565b905080828460808501111561297857600080fd5b60005b60048110156129a35761298e8683612a0e565b8352602092830192919091019060010161297b565b50505092915050565b8035801515811461092857600080fd5b60008083601f8401126129cd578182fd5b50813567ffffffffffffffff8111156129e4578182fd5b602083019150836020828501011115611b0d57600080fd5b803561ffff8116811461092857600080fd5b803560ff8116811461092857600080fd5b600060208284031215612a30578081fd5b61092583836128c9565b60008060408385031215612a4c578081fd5b612a5684846128c9565b9150612a6584602085016128c9565b90509250929050565b600080600060608486031215612a82578081fd5b8335612a8d816139d9565b92506020840135612a9d816139d9565b929592945050506040919091013590565b60008060008060808587031215612ac3578081fd5b612acd86866128c9565b93506020612add878288016128c9565b935060408601359250606086013567ffffffffffffffff80821115612b00578384fd5b81880189601f820112612b11578485fd5b8035925081831115612b21578485fd5b612b33601f8401601f19168501613969565b91508282528984848301011115612b48578485fd5b8284820185840137509081019091019190915292959194509250565b60008060408385031215612b76578182fd5b612b8084846128c9565b9150612a6584602085016129ac565b60008060408385031215612ba1578182fd5b612bab84846128c9565b946020939093013593505050565b600060208284031215612bca578081fd5b81358015158114610925578182fd5b600060208284031215612bea578081fd5b5035919050565b600060208284031215612c02578081fd5b5051919050565b60008060408385031215612c1b578182fd5b823591506020830135612c2d816139d9565b809150509250929050565b60008060408385031215612c4a578182fd5b50508035926020909101359150565b600060208284031215612c6a578081fd5b8135610925816139ee565b600060208284031215612c86578081fd5b8151610925816139ee565b60008060208385031215612ca3578182fd5b823567ffffffffffffffff811115612cb9578283fd5b612cc5858286016129bc565b90969095509350505050565b60008060808385031215612ce3578182fd5b8235915083608084011115612cf6578081fd5b50926020919091019150565b600080600060408486031215612d16578081fd5b83359250602084013567ffffffffffffffff811115612d33578182fd5b612d3f868287016129bc565b9497909650939450505050565b600060208284031215612d5d578081fd5b6109258383612a0e565b6000806000806000806101808789031215612d80578384fd5b612d8a8888612a0e565b95506020612d9a89828a01612a0e565b955088605f890112612daa578485fd5b6003612dbd612db882613990565b613969565b8060408b0160a08c018d811115612dd257898afd5b895b85811015612df857612de68f846129fc565b85529386019391860191600101612dd4565b50829950612e068e8261294a565b9850505050505050612e1c8861012089016128e0565b9150612e2c8861016089016129ac565b90509295509295509295565b8060005b600381101561121a57815161ffff16845260209384019390910190600101612e3c565b8060005b600281101561121a57815160ff16845260209384019390910190600101612e63565b60008151808452612e9d8160208601602086016139ad565b601f01601f19169290920160200192915050565b60ff169052565b90815260200190565b918252602082015260400190565b60008251612ee18184602087016139ad565b9190910192915050565b6000808454600180821660008114612f0a5760018114612f2157612f50565b60ff198316865260028304607f1686019350612f50565b600283048886526020808720875b83811015612f485781548a820152908501908201612f2f565b505050860193505b5050508351612f638183602088016139ad565b01949350505050565b6941444d494e5f524f4c4560b01b8152600a0190565b6001600160a01b0391909116815260200190565b6001600160a01b0385811682528416602082015260408101839052608060608201819052600090612fc990830184612e85565b9695505050505050565b901515815260200190565b60009190910b815260200190565b6000602082526109256020830184612e85565b60208082526022908201527f456e756d657261626c655365743a20696e646578206f7574206f6620626f756e604082015261647360f01b606082015260800190565b6020808252602f908201527f416363657373436f6e74726f6c3a2073656e646572206d75737420626520616e60408201526e0818591b5a5b881d1bc819dc985b9d608a1b606082015260800190565b6020808252600d908201526c34b73b30b634b21031b7b637b960991b604082015260600190565b60208082526032908201527f4552433732313a207472616e7366657220746f206e6f6e20455243373231526560408201527131b2b4bb32b91034b6b83632b6b2b73a32b960711b606082015260800190565b6020808252601b908201527f536166654d6174683a206164646974696f6e206f766572666c6f770000000000604082015260600190565b60208082526019908201527f52616e646f6d2e6e6578743a20696e76616c696420706f6f6c00000000000000604082015260600190565b60208082526010908201526f696e76616c6964206861746368696e6760801b604082015260600190565b60208082526024908201527f4552433732313a207472616e7366657220746f20746865207a65726f206164646040820152637265737360e01b606082015260800190565b60208082526019908201527f4552433732313a20617070726f766520746f2063616c6c657200000000000000604082015260600190565b60208082526021908201527f5369676e6564536166654d6174683a206164646974696f6e206f766572666c6f6040820152607760f81b606082015260800190565b6020808252600b908201526a496e76616c696420426b6760a81b604082015260600190565b6020808252602c908201527f4552433732313a206f70657261746f7220717565727920666f72206e6f6e657860408201526b34b9ba32b73a103a37b5b2b760a11b606082015260800190565b60208082526030908201527f416363657373436f6e74726f6c3a2073656e646572206d75737420626520616e60408201526f2061646d696e20746f207265766f6b6560801b606082015260800190565b60208082526038908201527f4552433732313a20617070726f76652063616c6c6572206973206e6f74206f7760408201527f6e6572206e6f7220617070726f76656420666f7220616c6c0000000000000000606082015260800190565b6020808252602a908201527f4552433732313a2062616c616e636520717565727920666f7220746865207a65604082015269726f206164647265737360b01b606082015260800190565b602080825260129082015271496e7375662e205065726d697373696f6e7360701b604082015260600190565b60208082526022908201527f456e756d657261626c654d61703a20696e646578206f7574206f6620626f756e604082015261647360f01b606082015260800190565b6020808252602c908201527f4552433732313a20617070726f76656420717565727920666f72206e6f6e657860408201526b34b9ba32b73a103a37b5b2b760a11b606082015260800190565b6020808252602c908201527f4552433732314d657461646174613a2055524920736574206f66206e6f6e657860408201526b34b9ba32b73a103a37b5b2b760a11b606082015260800190565b6020808252601390820152721a5b9d985b1a59081cda185c194818dbdd5b9d606a1b604082015260600190565b60208082526029908201527f4552433732313a207472616e73666572206f6620746f6b656e2074686174206960408201526839903737ba1037bbb760b91b606082015260800190565b6020808252602f908201527f4552433732314d657461646174613a2055524920717565727920666f72206e6f60408201526e3732bc34b9ba32b73a103a37b5b2b760891b606082015260800190565b60208082526010908201526f24b73b30b634b210223ab930ba34b7b760811b604082015260600190565b60208082526012908201527134b73b30b634b21039b0ba3ab930ba34b7b760711b604082015260600190565b60208082526021908201527f4552433732313a20617070726f76616c20746f2063757272656e74206f776e656040820152603960f91b606082015260800190565b60208082526031908201527f4552433732313a207472616e736665722063616c6c6572206973206e6f74206f6040820152701ddb995c881b9bdc88185c1c1c9bdd9959607a1b606082015260800190565b6020808252601d908201527f416464726573733a2063616c6c20746f206e6f6e2d636f6e7472616374000000604082015260600190565b6020808252600e908201526d1a5b9d985b1a59081cdc1c99585960921b604082015260600190565b6020808252601490820152734d7573742062652066757475726520626c6f636b60601b604082015260600190565b602080825260149082015273696e76616c6964206865696768742072616e676560601b604082015260600190565b60208082526032908201527f43616c6c657220646f736e27742068617665207065726d697373696f6e20746f604082015271103ab9b2903a3434b990333ab731ba34b7b760711b606082015260800190565b6020808252818101527f52616e646f6d2e756e69666f726d3a20696e76616c696420696e74657276616c604082015260600190565b6020808252602f908201527f416363657373436f6e74726f6c3a2063616e206f6e6c792072656e6f756e636560408201526e103937b632b9903337b91039b2b63360891b606082015260800190565b602080825260119082015270696e76616c6964206c696768746e65737360781b604082015260600190565b602080825260139082015272696e76616c69642077696474682072616e676560681b604082015260600190565b6001600160801b038c16815260208082018c905260ff8b811660408401528a8116606084015261022083019190608084018b60005b60048110156138b5578151841683529184019190840190600101613896565b50505050506138c8610100830189612e5f565b6138d6610140830188612eb1565b6138e4610160830187612e38565b6138f26101c0830186612eb1565b6139006101e0830185612eb1565b61390e610200830184612eb1565b9c9b505050505050505050505050565b61ffff91909116815260200190565b63ffffffff91909116815260200190565b60ff91909116815260200190565b60ff93841681529183166020830152909116604082015260600190565b60405181810167ffffffffffffffff8111828210171561398857600080fd5b604052919050565b600067ffffffffffffffff8211156139a6578081fd5b5060200290565b60005b838110156139c85781810151838201526020016139b0565b8381111561121a5750506000910152565b6001600160a01b038116811461181557600080fd5b6001600160e01b03198116811461181557600080fdfe4552433732313a207472616e7366657220746f206e6f6e20455243373231526563656976657220696d706c656d656e7465724552433732313a206f776e657220717565727920666f72206e6f6e6578697374656e7420746f6b656ea2646970667358221220f68fd14d682b6fce9616ca50862138881507fee81200378c135da83863c9f68764736f6c6343000608003368747470733a2f2f72696e6b6562792e74696e79626f782e73686f702f54696e79426f7865732e6a736f6e",
  "linkReferences": {},
  "deployedLinkReferences": {}
}