{
  "_format": "hh-sol-artifact-1",
  "contractName": "TinyBoxesBase",
  "sourceName": "contracts/TinyBoxesBase.sol",
  "abi": [
    {
      "inputs": [
        {
          "internalType": "address",
          "name": "entropySourceAddress",
          "type": "address"
        }
      ],
      "stateMutability": "nonpayable",
      "type": "constructor"
    },
    {
      "anonymous": false,
      "inputs": [
        {
          "indexed": true,
          "internalType": "address",
          "name": "owner",
          "type": "address"
        },
        {
          "indexed": true,
          "internalType": "address",
          "name": "approved",
          "type": "address"
        },
        {
          "indexed": true,
          "internalType": "uint256",
          "name": "tokenId",
          "type": "uint256"
        }
      ],
      "name": "Approval",
      "type": "event"
    },
    {
      "anonymous": false,
      "inputs": [
        {
          "indexed": true,
          "internalType": "address",
          "name": "owner",
          "type": "address"
        },
        {
          "indexed": true,
          "internalType": "address",
          "name": "operator",
          "type": "address"
        },
        {
          "indexed": false,
          "internalType": "bool",
          "name": "approved",
          "type": "bool"
        }
      ],
      "name": "ApprovalForAll",
      "type": "event"
    },
    {
      "anonymous": false,
      "inputs": [
        {
          "indexed": true,
          "internalType": "bytes32",
          "name": "role",
          "type": "bytes32"
        },
        {
          "indexed": true,
          "internalType": "bytes32",
          "name": "previousAdminRole",
          "type": "bytes32"
        },
        {
          "indexed": true,
          "internalType": "bytes32",
          "name": "newAdminRole",
          "type": "bytes32"
        }
      ],
      "name": "RoleAdminChanged",
      "type": "event"
    },
    {
      "anonymous": false,
      "inputs": [
        {
          "indexed": true,
          "internalType": "bytes32",
          "name": "role",
          "type": "bytes32"
        },
        {
          "indexed": true,
          "internalType": "address",
          "name": "account",
          "type": "address"
        },
        {
          "indexed": true,
          "internalType": "address",
          "name": "sender",
          "type": "address"
        }
      ],
      "name": "RoleGranted",
      "type": "event"
    },
    {
      "anonymous": false,
      "inputs": [
        {
          "indexed": true,
          "internalType": "bytes32",
          "name": "role",
          "type": "bytes32"
        },
        {
          "indexed": true,
          "internalType": "address",
          "name": "account",
          "type": "address"
        },
        {
          "indexed": true,
          "internalType": "address",
          "name": "sender",
          "type": "address"
        }
      ],
      "name": "RoleRevoked",
      "type": "event"
    },
    {
      "anonymous": false,
      "inputs": [
        {
          "indexed": true,
          "internalType": "address",
          "name": "from",
          "type": "address"
        },
        {
          "indexed": true,
          "internalType": "address",
          "name": "to",
          "type": "address"
        },
        {
          "indexed": true,
          "internalType": "uint256",
          "name": "tokenId",
          "type": "uint256"
        }
      ],
      "name": "Transfer",
      "type": "event"
    },
    {
      "inputs": [],
      "name": "ADMIN_ROLE",
      "outputs": [
        {
          "internalType": "bytes32",
          "name": "",
          "type": "bytes32"
        }
      ],
      "stateMutability": "view",
      "type": "function"
    },
    {
      "inputs": [],
      "name": "ANIMATION_COUNT",
      "outputs": [
        {
          "internalType": "uint8",
          "name": "",
          "type": "uint8"
        }
      ],
      "stateMutability": "view",
      "type": "function"
    },
    {
      "inputs": [],
      "name": "DEFAULT_ADMIN_ROLE",
      "outputs": [
        {
          "internalType": "bytes32",
          "name": "",
          "type": "bytes32"
        }
      ],
      "stateMutability": "view",
      "type": "function"
    },
    {
      "inputs": [],
      "name": "SCHEME_COUNT",
      "outputs": [
        {
          "internalType": "uint8",
          "name": "",
          "type": "uint8"
        }
      ],
      "stateMutability": "view",
      "type": "function"
    },
    {
      "inputs": [],
      "name": "TOKEN_LIMIT",
      "outputs": [
        {
          "internalType": "uint16",
          "name": "",
          "type": "uint16"
        }
      ],
      "stateMutability": "view",
      "type": "function"
    },
    {
      "inputs": [
        {
          "internalType": "address",
          "name": "to",
          "type": "address"
        },
        {
          "internalType": "uint256",
          "name": "tokenId",
          "type": "uint256"
        }
      ],
      "name": "approve",
      "outputs": [],
      "stateMutability": "nonpayable",
      "type": "function"
    },
    {
      "inputs": [
        {
          "internalType": "address",
          "name": "owner",
          "type": "address"
        }
      ],
      "name": "balanceOf",
      "outputs": [
        {
          "internalType": "uint256",
          "name": "",
          "type": "uint256"
        }
      ],
      "stateMutability": "view",
      "type": "function"
    },
    {
      "inputs": [],
      "name": "baseURI",
      "outputs": [
        {
          "internalType": "string",
          "name": "",
          "type": "string"
        }
      ],
      "stateMutability": "view",
      "type": "function"
    },
    {
      "inputs": [],
      "name": "blockStart",
      "outputs": [
        {
          "internalType": "uint256",
          "name": "",
          "type": "uint256"
        }
      ],
      "stateMutability": "view",
      "type": "function"
    },
    {
      "inputs": [
        {
          "components": [
            {
              "internalType": "uint128",
              "name": "randomness",
              "type": "uint128"
            },
            {
              "internalType": "uint16",
              "name": "hue",
              "type": "uint16"
            },
            {
              "internalType": "uint8",
              "name": "saturation",
              "type": "uint8"
            },
            {
              "internalType": "uint8",
              "name": "lightness",
              "type": "uint8"
            },
            {
              "internalType": "uint8",
              "name": "shapes",
              "type": "uint8"
            },
            {
              "internalType": "uint8",
              "name": "hatching",
              "type": "uint8"
            },
            {
              "internalType": "uint8",
              "name": "widthMin",
              "type": "uint8"
            },
            {
              "internalType": "uint8",
              "name": "widthMax",
              "type": "uint8"
            },
            {
              "internalType": "uint8",
              "name": "heightMin",
              "type": "uint8"
            },
            {
              "internalType": "uint8",
              "name": "heightMax",
              "type": "uint8"
            },
            {
              "internalType": "uint8",
              "name": "spread",
              "type": "uint8"
            },
            {
              "internalType": "uint8",
              "name": "grid",
              "type": "uint8"
            },
            {
              "internalType": "uint8",
              "name": "mirroring",
              "type": "uint8"
            },
            {
              "internalType": "uint8",
              "name": "bkg",
              "type": "uint8"
            },
            {
              "internalType": "uint8",
              "name": "duration",
              "type": "uint8"
            },
            {
              "internalType": "uint8",
              "name": "options",
              "type": "uint8"
            }
          ],
          "internalType": "struct TinyBox",
          "name": "box",
          "type": "tuple"
        },
        {
          "internalType": "uint256",
          "name": "id",
          "type": "uint256"
        }
      ],
      "name": "calcedParts",
      "outputs": [
        {
          "internalType": "uint8[4]",
          "name": "parts",
          "type": "uint8[4]"
        }
      ],
      "stateMutability": "view",
      "type": "function"
    },
    {
      "inputs": [
        {
          "internalType": "uint256",
          "name": "id",
          "type": "uint256"
        },
        {
          "internalType": "uint8[3]",
          "name": "settings",
          "type": "uint8[3]"
        }
      ],
      "name": "changeSettings",
      "outputs": [],
      "stateMutability": "nonpayable",
      "type": "function"
    },
    {
      "inputs": [
        {
          "internalType": "uint256",
          "name": "tokenId",
          "type": "uint256"
        }
      ],
      "name": "getApproved",
      "outputs": [
        {
          "internalType": "address",
          "name": "",
          "type": "address"
        }
      ],
      "stateMutability": "view",
      "type": "function"
    },
    {
      "inputs": [
        {
          "internalType": "bytes32",
          "name": "role",
          "type": "bytes32"
        }
      ],
      "name": "getRoleAdmin",
      "outputs": [
        {
          "internalType": "bytes32",
          "name": "",
          "type": "bytes32"
        }
      ],
      "stateMutability": "view",
      "type": "function"
    },
    {
      "inputs": [
        {
          "internalType": "bytes32",
          "name": "role",
          "type": "bytes32"
        },
        {
          "internalType": "uint256",
          "name": "index",
          "type": "uint256"
        }
      ],
      "name": "getRoleMember",
      "outputs": [
        {
          "internalType": "address",
          "name": "",
          "type": "address"
        }
      ],
      "stateMutability": "view",
      "type": "function"
    },
    {
      "inputs": [
        {
          "internalType": "bytes32",
          "name": "role",
          "type": "bytes32"
        }
      ],
      "name": "getRoleMemberCount",
      "outputs": [
        {
          "internalType": "uint256",
          "name": "",
          "type": "uint256"
        }
      ],
      "stateMutability": "view",
      "type": "function"
    },
    {
      "inputs": [
        {
          "internalType": "bytes32",
          "name": "role",
          "type": "bytes32"
        },
        {
          "internalType": "address",
          "name": "account",
          "type": "address"
        }
      ],
      "name": "grantRole",
      "outputs": [],
      "stateMutability": "nonpayable",
      "type": "function"
    },
    {
      "inputs": [
        {
          "internalType": "bytes32",
          "name": "role",
          "type": "bytes32"
        },
        {
          "internalType": "address",
          "name": "account",
          "type": "address"
        }
      ],
      "name": "hasRole",
      "outputs": [
        {
          "internalType": "bool",
          "name": "",
          "type": "bool"
        }
      ],
      "stateMutability": "view",
      "type": "function"
    },
    {
      "inputs": [
        {
          "internalType": "address",
          "name": "owner",
          "type": "address"
        },
        {
          "internalType": "address",
          "name": "operator",
          "type": "address"
        }
      ],
      "name": "isApprovedForAll",
      "outputs": [
        {
          "internalType": "bool",
          "name": "",
          "type": "bool"
        }
      ],
      "stateMutability": "view",
      "type": "function"
    },
    {
      "inputs": [],
      "name": "name",
      "outputs": [
        {
          "internalType": "string",
          "name": "",
          "type": "string"
        }
      ],
      "stateMutability": "view",
      "type": "function"
    },
    {
      "inputs": [
        {
          "internalType": "uint256",
          "name": "tokenId",
          "type": "uint256"
        }
      ],
      "name": "ownerOf",
      "outputs": [
        {
          "internalType": "address",
          "name": "",
          "type": "address"
        }
      ],
      "stateMutability": "view",
      "type": "function"
    },
    {
      "inputs": [],
      "name": "paused",
      "outputs": [
        {
          "internalType": "bool",
          "name": "",
          "type": "bool"
        }
      ],
      "stateMutability": "view",
      "type": "function"
    },
    {
      "inputs": [],
      "name": "phaseCountdown",
      "outputs": [
        {
          "internalType": "uint256",
          "name": "",
          "type": "uint256"
        }
      ],
      "stateMutability": "view",
      "type": "function"
    },
    {
      "inputs": [],
      "name": "phaseCountdownTime",
      "outputs": [
        {
          "internalType": "uint256",
          "name": "",
          "type": "uint256"
        }
      ],
      "stateMutability": "view",
      "type": "function"
    },
    {
      "inputs": [],
      "name": "phaseLen",
      "outputs": [
        {
          "internalType": "uint256",
          "name": "",
          "type": "uint256"
        }
      ],
      "stateMutability": "view",
      "type": "function"
    },
    {
      "inputs": [
        {
          "internalType": "uint256",
          "name": "id",
          "type": "uint256"
        }
      ],
      "name": "readSettings",
      "outputs": [
        {
          "internalType": "uint8",
          "name": "bkg",
          "type": "uint8"
        },
        {
          "internalType": "uint8",
          "name": "duration",
          "type": "uint8"
        },
        {
          "internalType": "uint8",
          "name": "options",
          "type": "uint8"
        }
      ],
      "stateMutability": "view",
      "type": "function"
    },
    {
      "inputs": [
        {
          "internalType": "bytes32",
          "name": "role",
          "type": "bytes32"
        },
        {
          "internalType": "address",
          "name": "account",
          "type": "address"
        }
      ],
      "name": "renounceRole",
      "outputs": [],
      "stateMutability": "nonpayable",
      "type": "function"
    },
    {
      "inputs": [
        {
          "internalType": "bytes32",
          "name": "role",
          "type": "bytes32"
        },
        {
          "internalType": "address",
          "name": "account",
          "type": "address"
        }
      ],
      "name": "revokeRole",
      "outputs": [],
      "stateMutability": "nonpayable",
      "type": "function"
    },
    {
      "inputs": [
        {
          "internalType": "address",
          "name": "from",
          "type": "address"
        },
        {
          "internalType": "address",
          "name": "to",
          "type": "address"
        },
        {
          "internalType": "uint256",
          "name": "tokenId",
          "type": "uint256"
        }
      ],
      "name": "safeTransferFrom",
      "outputs": [],
      "stateMutability": "nonpayable",
      "type": "function"
    },
    {
      "inputs": [
        {
          "internalType": "address",
          "name": "from",
          "type": "address"
        },
        {
          "internalType": "address",
          "name": "to",
          "type": "address"
        },
        {
          "internalType": "uint256",
          "name": "tokenId",
          "type": "uint256"
        },
        {
          "internalType": "bytes",
          "name": "_data",
          "type": "bytes"
        }
      ],
      "name": "safeTransferFrom",
      "outputs": [],
      "stateMutability": "nonpayable",
      "type": "function"
    },
    {
      "inputs": [
        {
          "internalType": "address",
          "name": "operator",
          "type": "address"
        },
        {
          "internalType": "bool",
          "name": "approved",
          "type": "bool"
        }
      ],
      "name": "setApprovalForAll",
      "outputs": [],
      "stateMutability": "nonpayable",
      "type": "function"
    },
    {
      "inputs": [
        {
          "internalType": "address",
          "name": "rand",
          "type": "address"
        }
      ],
      "name": "setRandom",
      "outputs": [],
      "stateMutability": "nonpayable",
      "type": "function"
    },
    {
      "inputs": [
        {
          "internalType": "bytes4",
          "name": "interfaceId",
          "type": "bytes4"
        }
      ],
      "name": "supportsInterface",
      "outputs": [
        {
          "internalType": "bool",
          "name": "",
          "type": "bool"
        }
      ],
      "stateMutability": "view",
      "type": "function"
    },
    {
      "inputs": [],
      "name": "symbol",
      "outputs": [
        {
          "internalType": "string",
          "name": "",
          "type": "string"
        }
      ],
      "stateMutability": "view",
      "type": "function"
    },
    {
      "inputs": [],
      "name": "testRandom",
      "outputs": [
        {
          "internalType": "bytes32",
          "name": "",
          "type": "bytes32"
        }
      ],
      "stateMutability": "view",
      "type": "function"
    },
    {
      "inputs": [
        {
          "internalType": "uint256",
          "name": "index",
          "type": "uint256"
        }
      ],
      "name": "tokenByIndex",
      "outputs": [
        {
          "internalType": "uint256",
          "name": "",
          "type": "uint256"
        }
      ],
      "stateMutability": "view",
      "type": "function"
    },
    {
      "inputs": [
        {
          "internalType": "uint256",
          "name": "_id",
          "type": "uint256"
        }
      ],
      "name": "tokenData",
      "outputs": [
        {
          "internalType": "uint256",
          "name": "animation",
          "type": "uint256"
        },
        {
          "internalType": "uint8",
          "name": "shapes",
          "type": "uint8"
        },
        {
          "internalType": "uint8",
          "name": "hatching",
          "type": "uint8"
        },
        {
          "internalType": "uint8[4]",
          "name": "size",
          "type": "uint8[4]"
        },
        {
          "internalType": "uint8[2]",
          "name": "spacing",
          "type": "uint8[2]"
        },
        {
          "internalType": "uint8",
          "name": "mirroring",
          "type": "uint8"
        },
        {
          "internalType": "uint16[3]",
          "name": "color",
          "type": "uint16[3]"
        },
        {
          "internalType": "uint8",
          "name": "contrast",
          "type": "uint8"
        },
        {
          "internalType": "uint8",
          "name": "shades",
          "type": "uint8"
        },
        {
          "internalType": "uint8",
          "name": "scheme",
          "type": "uint8"
        }
      ],
      "stateMutability": "view",
      "type": "function"
    },
    {
      "inputs": [
        {
          "internalType": "address",
          "name": "owner",
          "type": "address"
        },
        {
          "internalType": "uint256",
          "name": "index",
          "type": "uint256"
        }
      ],
      "name": "tokenOfOwnerByIndex",
      "outputs": [
        {
          "internalType": "uint256",
          "name": "",
          "type": "uint256"
        }
      ],
      "stateMutability": "view",
      "type": "function"
    },
    {
      "inputs": [
        {
          "internalType": "uint256",
          "name": "id",
          "type": "uint256"
        }
      ],
      "name": "tokenRandomness",
      "outputs": [
        {
          "internalType": "uint128",
          "name": "",
          "type": "uint128"
        }
      ],
      "stateMutability": "view",
      "type": "function"
    },
    {
      "inputs": [
        {
          "internalType": "uint256",
          "name": "tokenId",
          "type": "uint256"
        }
      ],
      "name": "tokenURI",
      "outputs": [
        {
          "internalType": "string",
          "name": "",
          "type": "string"
        }
      ],
      "stateMutability": "view",
      "type": "function"
    },
    {
      "inputs": [],
      "name": "totalSupply",
      "outputs": [
        {
          "internalType": "uint256",
          "name": "",
          "type": "uint256"
        }
      ],
      "stateMutability": "view",
      "type": "function"
    },
    {
      "inputs": [
        {
          "internalType": "address",
          "name": "from",
          "type": "address"
        },
        {
          "internalType": "address",
          "name": "to",
          "type": "address"
        },
        {
          "internalType": "uint256",
          "name": "tokenId",
          "type": "uint256"
        }
      ],
      "name": "transferFrom",
      "outputs": [],
      "stateMutability": "nonpayable",
      "type": "function"
    }
  ],
  "bytecode": "0x6080604052600e805460ff19166001179055600b606e0461ffff1660105560786011556200003f600f6011546200019b60201b620015e21790919060201c565b6012553480156200004f57600080fd5b506040516200381f3803806200381f833981016040819052620000729162000458565b604080518082018252600981526854696e79426f78657360b81b602080830191909152825180840190935260068352655b235d5b235d60d01b9083015290620000cb6301ffc9a760e01b6001600160e01b03620001ee16565b8151620000e0906006906020850190620003b6565b508051620000f6906007906020840190620003b6565b50620001126380ac58cd60e01b6001600160e01b03620001ee16565b6200012d635b5e139f60e01b6001600160e01b03620001ee16565b6200014863780e9d6360e01b6001600160e01b03620001ee16565b5050620001756040516200015c9062000488565b604051908190039020336001600160e01b036200024916565b600b80546001600160a01b0319166001600160a01b03929092169190911790556200052b565b6000620001e583836040518060400160405280601a81526020017f536166654d6174683a206469766973696f6e206279207a65726f0000000000008152506200026260201b60201c565b90505b92915050565b6001600160e01b03198082161415620002245760405162461bcd60e51b81526004016200021b90620004f4565b60405180910390fd5b6001600160e01b0319166000908152602081905260409020805460ff19166001179055565b6200025e82826001600160e01b036200029d16565b5050565b60008183620002865760405162461bcd60e51b81526004016200021b91906200049e565b5060008385816200029357fe5b0495945050505050565b6000828152600a60209081526040909120620002c49183906200162462000321821b17901c565b156200025e57620002dd6001600160e01b036200034116565b6001600160a01b0316816001600160a01b0316837f2f8788117e7eff1d82e926ec794901d17c78024a50270940304540a733656f0d60405160405180910390a45050565b6000620001e5836001600160a01b0384166001600160e01b036200034616565b335b90565b60006200035d83836001600160e01b036200039e16565b6200039557508154600181810184556000848152602080822090930184905584548482528286019093526040902091909155620001e8565b506000620001e8565b60009081526001919091016020526040902054151590565b828054600181600116156101000203166002900490600052602060002090601f016020900481019282601f10620003f957805160ff191683800117855562000429565b8280016001018555821562000429579182015b82811115620004295782518255916020019190600101906200040c565b50620004379291506200043b565b5090565b6200034391905b8082111562000437576000815560010162000442565b6000602082840312156200046a578081fd5b81516001600160a01b038116811462000481578182fd5b9392505050565b6941444d494e5f524f4c4560b01b8152600a0190565b6000602080835283518082850152825b81811015620004cc57858101830151858201604001528201620004ae565b81811115620004de5783604083870101525b50601f01601f1916929092016040019392505050565b6020808252601c908201527f4552433136353a20696e76616c696420696e7465726661636520696400000000604082015260600190565b6132e4806200053b6000396000f3fe608060405234801561001057600080fd5b50600436106102535760003560e01c806370a0823111610146578063b3174fa1116100c3578063ca9c0bad11610087578063ca9c0bad146104ed578063d547741f14610500578063e985e9c514610513578063fa33eb2614610526578063fbddd14b14610546578063fc4ea9391461054e57610253565b8063b3174fa114610483578063b4b5b48f1461048b578063b88d4fde146104b4578063c87b56dd146104c7578063ca15c873146104da57610253565b806391d148541161010a57806391d148541461042b578063947e93d91461043e57806395d89b4114610460578063a217fddf14610468578063a22cb4651461047057610253565b806370a08231146103ed57806371a0a0161461040057806375b238fc146104085780637b2feaaa146104105780639010d07c1461041857610253565b80632f745c59116101d45780634f6ccce7116101985780634f6ccce7146103af57806352410197146103c25780635c975abb146103ca5780636352211e146103d25780636c0360eb146103e557610253565b80632f745c591461034357806336568abe146103565780633c564cab14610369578063408f3a2b1461037c57806342842e0e1461039c57610253565b80630e1b9b0e1161021b5780630e1b9b0e146102e057806318160ddd146102f557806323b872dd1461030a578063248a9ca31461031d5780632f2ff15d1461033057610253565b806301ffc9a714610258578063031bd4c41461028157806306fdde0314610296578063081812fc146102ab578063095ea7b3146102cb575b600080fd5b61026b6102663660046126a0565b610556565b6040516102789190612a28565b60405180910390f35b610289610579565b60405161027891906130ea565b61029e61057e565b6040516102789190612a33565b6102be6102b936600461262b565b610614565b60405161027891906129c9565b6102de6102d9366004612601565b610660565b005b6102e86106f8565b60405161027891906131aa565b6102fd6106fd565b60405161027891906128ff565b6102de6103183660046124d0565b61070e565b6102fd61032b36600461262b565b610746565b6102de61033e36600461265b565b61075b565b6102fd610351366004612601565b6107a3565b6102de61036436600461265b565b6107d4565b6102de610377366004612833565b610816565b61038f61038a36600461262b565b610996565b60405161027891906130d6565b6102de6103aa3660046124d0565b610ab6565b6102fd6103bd36600461262b565b610ad1565b6102fd610aed565b61026b610af3565b6102be6103e036600461262b565b610afc565b61029e610b2a565b6102fd6103fb366004612481565b610b8b565b6102e8610bd4565b6102fd610bd9565b6102fd610bf0565b6102be61042636600461267f565b610bf6565b61026b61043936600461265b565b610c14565b61045161044c36600461262b565b610c32565b604051610278939291906131b8565b61029e610d5e565b6102fd610dbf565b6102de61047e3660046125c6565b610dc4565b6102fd610e92565b61049e61049936600461262b565b610e98565b6040516102789a999897969594939291906130f9565b6102de6104c2366004612510565b6110ef565b61029e6104d536600461262b565b61112e565b6102fd6104e836600461262b565b611278565b6102de6104fb366004612481565b61128f565b6102de61050e36600461265b565b6112cd565b61026b61052136600461249c565b611307565b6105396105343660046126d8565b611335565b6040516102789190612a1a565b6102fd611545565b6102fd6115dc565b6001600160e01b0319811660009081526020819052604090205460ff165b919050565b606e81565b60068054604080516020601f600260001961010060018816150201909516949094049384018190048102820181019092528281526060939092909183018282801561060a5780601f106105df5761010080835404028352916020019161060a565b820191906000526020600020905b8154815290600101906020018083116105ed57829003601f168201915b5050505050905090565b600061061f82611639565b6106445760405162461bcd60e51b815260040161063b90612e29565b60405180910390fd5b506000908152600460205260409020546001600160a01b031690565b600061066b82610afc565b9050806001600160a01b0316836001600160a01b0316141561069f5760405162461bcd60e51b815260040161063b90612f37565b806001600160a01b03166106b161164c565b6001600160a01b031614806106cd57506106cd8161052161164c565b6106e95760405162461bcd60e51b815260040161063b90612d14565b6106f38383611650565b505050565b601881565b600061070960026116be565b905090565b61071f61071961164c565b826116c9565b61073b5760405162461bcd60e51b815260040161063b90612f78565b6106f383838361174e565b6000908152600a602052604090206002015490565b6000828152600a60205260409020600201546107799061043961164c565b6107955760405162461bcd60e51b815260040161063b90612a88565b61079f828261186e565b5050565b6001600160a01b03821660009081526001602052604081206107cb908363ffffffff6118dd16565b90505b92915050565b6107dc61164c565b6001600160a01b0316816001600160a01b03161461080c5760405162461bcd60e51b815260040161063b90613087565b61079f82826118e9565b61081f82610afc565b6001600160a01b0316336001600160a01b03161480610857575061084282610614565b6001600160a01b0316336001600160a01b0316145b6108735760405162461bcd60e51b815260040161063b90612dbb565b60656108826020830183612864565b60ff1611156108a35760405162461bcd60e51b815260040161063b90612c53565b60006108b56040830160208401612864565b60ff16116108d55760405162461bcd60e51b815260040161063b90612f0d565b6108e26020820182612864565b6000838152601360205260409020805460ff92909216600160e81b0260ff60e81b199092169190911790558060016020020160208101906109239190612864565b6000838152601360205260409020805460ff92909216600160f01b0260ff60f01b199092169190911790558060026020020160208101906109649190612864565b600092835260136020526040909220805460ff93909316600160f81b026001600160f81b039093169290921790915550565b60006109a0612315565b505060009081526013602090815260409182902082516102008101845290546001600160801b03811680835261ffff600160801b8304169383019390935260ff600160901b8204811694830194909452600160981b810484166060830152600160a01b810484166080830152600160a81b8104841660a0830152600160b01b8104841660c0830152600160b81b8104841660e0830152600160c01b81048416610100830152600160c81b81048416610120830152600160d01b81048416610140830152600160d81b81048416610160830152600160e01b81048416610180830152600160e81b810484166101a0830152600160f01b810484166101c0830152600160f81b90049092166101e09092019190915290565b6106f3838383604051806020016040528060008152506110ef565b600080610ae560028463ffffffff61195816565b509392505050565b60115481565b600e5460ff1681565b60006107ce82604051806060016040528060298152602001613286602991396002919063ffffffff61197416565b60098054604080516020601f600260001961010060018816150201909516949094049384018190048102820181019092528281526060939092909183018282801561060a5780601f106105df5761010080835404028352916020019161060a565b60006001600160a01b038216610bb35760405162461bcd60e51b815260040161063b90612d71565b6001600160a01b03821660009081526001602052604090206107ce906116be565b600b81565b604051610be5906129b3565b604051809103902081565b600f5481565b6000828152600a602052604081206107cb908363ffffffff6118dd16565b6000828152600a602052604081206107cb908363ffffffff61198b16565b6000806000610c3f612315565b5050506000918252506013602090815260409182902082516102008101845290546001600160801b038116825261ffff600160801b8204169282019290925260ff600160901b8304811693820193909352600160981b820483166060820152600160a01b820483166080820152600160a81b8204831660a0820152600160b01b8204831660c0820152600160b81b8204831660e0820152600160c01b82048316610100820152600160c81b82048316610120820152600160d01b82048316610140820152600160d81b82048316610160820152600160e01b82048316610180820152600160e81b820483166101a08201819052600160f01b830484166101c08301819052600160f81b9093049093166101e09091018190529192909190565b60078054604080516020601f600260001961010060018816150201909516949094049384018190048102820181019092528281526060939092909183018282801561060a5780601f106105df5761010080835404028352916020019161060a565b600081565b610dcc61164c565b6001600160a01b0316826001600160a01b03161415610dfd5760405162461bcd60e51b815260040161063b90612bdb565b8060056000610e0a61164c565b6001600160a01b03908116825260208083019390935260409182016000908120918716808252919093529120805460ff191692151592909217909155610e4e61164c565b6001600160a01b03167f17307eab39ab6107e8899845ad3d59bd9653f200f220920489ca2b5937696c3183604051610e869190612a28565b60405180910390a35050565b60105481565b6000806000610ea5612399565b610ead6123b7565b6000610eb76123d5565b6000806000610ec4612315565b5060008b81526013602090815260409182902082516102008101845290546001600160801b038116825261ffff600160801b8204169282019290925260ff600160901b8304811693820193909352600160981b820483166060820152600160a01b820483166080820152600160a81b8204831660a0820152600160b01b8204831660c0820152600160b81b8204831660e0820152600160c01b82048316610100820152600160c81b82048316610120820152600160d01b82048316610140820152600160d81b82048316610160820152600160e01b82048316610180820152600160e81b820483166101a0820152600160f01b820483166101c0820152600160f81b9091049091166101e0820152610fda612399565b610fe4828e611335565b9050806000602002015160ff169b50806001602002015192508060026020020151935080600360200201519450816101800151965081608001519a508160a0015199506040518060600160405280836020015161ffff1661ffff168152602001836040015160ff1661ffff168152602001836060015160ff1661ffff16815250955060405180608001604052808360c0015160ff1660ff1681526020018360e0015160ff1660ff16815260200183610100015160ff1660ff16815260200183610120015160ff1660ff168152509850604051806040016040528083610140015160ff1660ff16815260200183610160015160ff1660ff16815250975050509193959799509193959799565b6111006110fa61164c565b836116c9565b61111c5760405162461bcd60e51b815260040161063b90612f78565b611128848484846119a0565b50505050565b606061113982611639565b6111555760405162461bcd60e51b815260040161063b90612ebe565b60008281526008602090815260409182902080548351601f60026000196101006001861615020190931692909204918201849004840281018401909452808452606093928301828280156111ea5780601f106111bf576101008083540402835291602001916111ea565b820191906000526020600020905b8154815290600101906020018083116111cd57829003601f168201915b505060095493945050505060026000196101006001841615020190911604611213579050610574565b8051156112455760098160405160200161122e929190612932565b604051602081830303815290604052915050610574565b6009611250846119d3565b604051602001611261929190612932565b604051602081830303815290604052915050919050565b6000818152600a602052604081206107ce906116be565b6112ab60405161129e906129b3565b6040518091039020611aae565b600b80546001600160a01b0319166001600160a01b0392909216919091179055565b6000828152600a60205260409020600201546112eb9061043961164c565b61080c5760405162461bcd60e51b815260040161063b90612cc4565b6001600160a01b03918216600090815260056020908152604080832093909416825291909152205460ff1690565b61133d612399565b606e8210156114ee57606061135e84600001516001600160801b0316611ad7565b90506113686123f3565b506040805160e0810182526001808252600260208301819052600593830184905260096060840152608083019390935260a082019290925260c08101919091526113b0612411565b506040805161030081018252600180825260208201819052918101829052606081018290526080810182905260a0810182905260c0810182905260e08101829052610100810182905261012081018290526101408101829052610160810182905261018081018290526101a081018290526101c081018290526101e08101829052610200810182905261022081018290526102408101829052610260810182905261028081018290526102a081018290526102c081018290526102e08101919091526114848382601863ffffffff611b8e16565b60ff1684526010546114979086906115e2565b60ff1660208501526114bf60016114b085856019611bfe565b60ff169063ffffffff611c4f16565b60ff908116604086015260608701516114dd91859160009116611c74565b60ff166060850152506107ce915050565b825160ff6001607b1b6001600160801b03928316041682528351600160771b90821604600f1660208301528351600160741b90821604600716604083015292516001606d1b931692909204607f1660608301525090565b600061155660405161129e906129b3565b600b60009054906101000a90046001600160a01b03166001600160a01b031663990c8f796040518163ffffffff1660e01b815260040160206040518083038186803b1580156115a457600080fd5b505afa1580156115b8573d6000803e3d6000fd5b505050506040513d601f19601f820116820180604052508101906107099190612643565b60125481565b60006107cb83836040518060400160405280601a81526020017f536166654d6174683a206469766973696f6e206279207a65726f000000000000815250611cb7565b60006107cb836001600160a01b038416611cee565b60006107ce60028363ffffffff611d3816565b3390565b600081815260046020526040902080546001600160a01b0319166001600160a01b038416908117909155819061168582610afc565b6001600160a01b03167f8c5be1e5ebec7d5bd14f71427d1e84f3dd0314c0f7b2291e5b200ac8c7c3b92560405160405180910390a45050565b60006107ce82611d44565b60006116d482611639565b6116f05760405162461bcd60e51b815260040161063b90612c78565b60006116fb83610afc565b9050806001600160a01b0316846001600160a01b031614806117365750836001600160a01b031661172b84610614565b6001600160a01b0316145b8061174657506117468185611307565b949350505050565b826001600160a01b031661176182610afc565b6001600160a01b0316146117875760405162461bcd60e51b815260040161063b90612e75565b6001600160a01b0382166117ad5760405162461bcd60e51b815260040161063b90612b97565b6117b88383836106f3565b6117c3600082611650565b6001600160a01b03831660009081526001602052604090206117eb908263ffffffff611d4816565b506001600160a01b0382166000908152600160205260409020611814908263ffffffff611d5416565b506118276002828463ffffffff611d6016565b5080826001600160a01b0316846001600160a01b03167fddf252ad1be2c89b69c2b068fc378daa952ba7f163c4a11628f55a4df523b3ef60405160405180910390a4505050565b6000828152600a6020526040902061188c908263ffffffff61162416565b1561079f5761189961164c565b6001600160a01b0316816001600160a01b0316837f2f8788117e7eff1d82e926ec794901d17c78024a50270940304540a733656f0d60405160405180910390a45050565b60006107cb8383611d76565b6000828152600a60205260409020611907908263ffffffff611dbb16565b1561079f5761191461164c565b6001600160a01b0316816001600160a01b0316837ff6391f5c32d9c69d2a47ea670b442974b53935d1edc7fd64eb21e047a839171b60405160405180910390a45050565b60008080806119678686611dd0565b9097909650945050505050565b6000611981848484611e2c565b90505b9392505050565b60006107cb836001600160a01b038416611e8b565b6119ab84848461174e565b6119b784848484611ea3565b6111285760405162461bcd60e51b815260040161063b90612ad7565b6060816119f857506040805180820190915260018152600360fc1b6020820152610574565b8160005b8115611a1057600101600a820491506119fc565b60608167ffffffffffffffff81118015611a2957600080fd5b506040519080825280601f01601f191660200182016040528015611a54576020820181803683370190505b50859350905060001982015b8315611aa557600a840660300160f81b82828060019003935081518110611a8357fe5b60200101906001600160f81b031916908160001a905350600a84049350611a60565b50949350505050565b611ab88133610c14565b611ad45760405162461bcd60e51b815260040161063b90613000565b50565b60408051600380825260808201909252606091600291839160208201838036833701905050905060008085604051602001611b13929190612908565b60408051601f198184030181529190528051602090910120905060005b83811015611b8457804082604051602001611b4c929190612908565b60405160208183030381529060405280519060200120838260010181518110611b7157fe5b6020908102919091010152600101611b30565b5090949350505050565b600080611ba08560018560ff16611c74565b90506000805b60188160ff161015611bf457611bd9868260ff1660188110611bc457fe5b6020020151839060ff1663ffffffff611f8816565b9150818313611bec579250611984915050565b600101611ba6565b5050509392505050565b600080611c108560018560ff16611c74565b90506000805b60078160ff161015611bf457611c34868260ff1660078110611bc457fe5b9150818313611c47579250611984915050565b600101611c16565b6000828201838110156107cb5760405162461bcd60e51b815260040161063b90612b29565b600081831315611c965760405162461bcd60e51b815260040161063b90613052565b82838303600101611ca686611fce565b81611cad57fe5b0601949350505050565b60008183611cd85760405162461bcd60e51b815260040161063b9190612a33565b506000838581611ce457fe5b0495945050505050565b6000611cfa8383611e8b565b611d30575081546001818101845560008481526020808220909301849055845484825282860190935260409020919091556107ce565b5060006107ce565b60006107cb8383611e8b565b5490565b60006107cb83836120b1565b60006107cb8383611cee565b600061198184846001600160a01b038516612177565b81546000908210611d995760405162461bcd60e51b815260040161063b90612a46565b826000018281548110611da857fe5b9060005260206000200154905092915050565b60006107cb836001600160a01b0384166120b1565b815460009081908310611df55760405162461bcd60e51b815260040161063b90612de7565b6000846000018481548110611e0657fe5b906000526020600020906002020190508060000154816001015492509250509250929050565b60008281526001840160205260408120548281611e5c5760405162461bcd60e51b815260040161063b9190612a33565b50846000016001820381548110611e6f57fe5b9060005260206000209060020201600101549150509392505050565b60009081526001919091016020526040902054151590565b6000611eb7846001600160a01b031661220e565b611ec357506001611746565b6060611f51630a85bd0160e11b611ed861164c565b888787604051602401611eee94939291906129dd565b604051602081830303815290604052906001600160e01b0319166020820180516001600160e01b038381831617835250505050604051806060016040528060328152602001613254603291396001600160a01b038816919063ffffffff61224716565b9050600081806020019051810190611f6991906126bc565b6001600160e01b031916630a85bd0160e11b1492505050949350505050565b6000828201818312801590611f9d5750838112155b80611fb25750600083128015611fb257508381125b6107cb5760405162461bcd60e51b815260040161063b90612c12565b60006001825111611ff15760405162461bcd60e51b815260040161063b90612b60565b600060018351038360008151811061200557fe5b602002602001015160001c8161201757fe5b066001019050600083828151811061202b57fe5b602002602001015160405160200161204391906128ff565b6040516020818303038152906040528051906020012090508360008151811061206857fe5b602002602001015160001c60010160001b8460008151811061208657fe5b6020026020010181815250508084838151811061209f57fe5b60209081029190910101529392505050565b6000818152600183016020526040812054801561216d57835460001980830191908101906000908790839081106120e457fe5b906000526020600020015490508087600001848154811061210157fe5b60009182526020808320909101929092558281526001898101909252604090209084019055865487908061213157fe5b600190038181906000526020600020016000905590558660010160008781526020019081526020016000206000905560019450505050506107ce565b60009150506107ce565b6000828152600184016020526040812054806121dc575050604080518082018252838152602080820184815286546001818101895560008981528481209551600290930290950191825591519082015586548684528188019092529290912055611984565b828560000160018303815481106121ef57fe5b9060005260206000209060020201600101819055506000915050611984565b6000813f7fc5d2460186f7233c927e7db2dcc703c0e500b653ca82273b7bfad8045d85a470818114801590611746575050151592915050565b60606119818484600085606061225c8561220e565b6122785760405162461bcd60e51b815260040161063b90612fc9565b60006060866001600160a01b031685876040516122959190612916565b60006040518083038185875af1925050503d80600081146122d2576040519150601f19603f3d011682016040523d82523d6000602084013e6122d7565b606091505b509150915081156122eb5791506117469050565b8051156122fb5780518082602001fd5b8360405162461bcd60e51b815260040161063b9190612a33565b6040805161020081018252600080825260208201819052918101829052606081018290526080810182905260a0810182905260c0810182905260e08101829052610100810182905261012081018290526101408101829052610160810182905261018081018290526101a081018290526101c081018290526101e081019190915290565b60405180608001604052806004906020820280368337509192915050565b60405180604001604052806002906020820280368337509192915050565b60405180606001604052806003906020820280368337509192915050565b6040518060e001604052806007906020820280368337509192915050565b6040518061030001604052806018906020820280368337509192915050565b80356001600160a01b03811681146107ce57600080fd5b80356001600160801b03811681146107ce57600080fd5b803561ffff811681146107ce57600080fd5b803560ff811681146107ce57600080fd5b600060208284031215612492578081fd5b6107cb8383612430565b600080604083850312156124ae578081fd5b6124b88484612430565b91506124c78460208501612430565b90509250929050565b6000806000606084860312156124e4578081fd5b83356124ef81613228565b925060208401356124ff81613228565b929592945050506040919091013590565b60008060008060808587031215612525578081fd5b61252f8686612430565b9350602061253f87828801612430565b935060408601359250606086013567ffffffffffffffff80821115612562578384fd5b81880189601f820112612573578485fd5b8035925081831115612583578485fd5b612595601f8401601f191685016131d5565b915082825289848483010111156125aa578485fd5b8284820185840137509081019091019190915292959194509250565b600080604083850312156125d8578182fd5b6125e28484612430565b9150602083013580151581146125f6578182fd5b809150509250929050565b60008060408385031215612613578182fd5b61261d8484612430565b946020939093013593505050565b60006020828403121561263c578081fd5b5035919050565b600060208284031215612654578081fd5b5051919050565b6000806040838503121561266d578182fd5b8235915060208301356125f681613228565b60008060408385031215612691578182fd5b50508035926020909101359150565b6000602082840312156126b1578081fd5b81356107cb8161323d565b6000602082840312156126cd578081fd5b81516107cb8161323d565b6000808284036102208112156126ec578283fd5b610200808212156126fb578384fd5b612704816131d5565b91506127108686612447565b825261271f866020870161245e565b60208301526127318660408701612470565b60408301526127438660608701612470565b60608301526127558660808701612470565b60808301526127678660a08701612470565b60a08301526127798660c08701612470565b60c083015261278b8660e08701612470565b60e083015261010061279f87828801612470565b908301526101206127b287878301612470565b908301526101406127c587878301612470565b908301526101606127d887878301612470565b908301526101806127eb87878301612470565b908301526101a06127fe87878301612470565b908301526101c061281187878301612470565b908301526101e061282487878301612470565b90830152909593013593505050565b60008060808385031215612845578182fd5b8235915083608084011115612858578081fd5b50926020919091019150565b600060208284031215612875578081fd5b6107cb8383612470565b8060005b600381101561112857815161ffff16845260209384019390910190600101612883565b8060005b600481101561112857815160ff168452602093840193909101906001016128aa565b600081518084526128e48160208601602086016131fc565b601f01601f19169290920160200192915050565b60ff169052565b90815260200190565b918252602082015260400190565b600082516129288184602087016131fc565b9190910192915050565b6000808454600180821660008114612951576001811461296857612997565b60ff198316865260028304607f1686019350612997565b600283048886526020808720875b8381101561298f5781548a820152908501908201612976565b505050860193505b50505083516129aa8183602088016131fc565b01949350505050565b6941444d494e5f524f4c4560b01b8152600a0190565b6001600160a01b0391909116815260200190565b6001600160a01b0385811682528416602082015260408101839052608060608201819052600090612a10908301846128cc565b9695505050505050565b608081016107ce82846128a6565b901515815260200190565b6000602082526107cb60208301846128cc565b60208082526022908201527f456e756d657261626c655365743a20696e646578206f7574206f6620626f756e604082015261647360f01b606082015260800190565b6020808252602f908201527f416363657373436f6e74726f6c3a2073656e646572206d75737420626520616e60408201526e0818591b5a5b881d1bc819dc985b9d608a1b606082015260800190565b60208082526032908201527f4552433732313a207472616e7366657220746f206e6f6e20455243373231526560408201527131b2b4bb32b91034b6b83632b6b2b73a32b960711b606082015260800190565b6020808252601b908201527f536166654d6174683a206164646974696f6e206f766572666c6f770000000000604082015260600190565b60208082526019908201527f52616e646f6d2e6e6578743a20696e76616c696420706f6f6c00000000000000604082015260600190565b60208082526024908201527f4552433732313a207472616e7366657220746f20746865207a65726f206164646040820152637265737360e01b606082015260800190565b60208082526019908201527f4552433732313a20617070726f766520746f2063616c6c657200000000000000604082015260600190565b60208082526021908201527f5369676e6564536166654d6174683a206164646974696f6e206f766572666c6f6040820152607760f81b606082015260800190565b6020808252600b908201526a496e76616c696420426b6760a81b604082015260600190565b6020808252602c908201527f4552433732313a206f70657261746f7220717565727920666f72206e6f6e657860408201526b34b9ba32b73a103a37b5b2b760a11b606082015260800190565b60208082526030908201527f416363657373436f6e74726f6c3a2073656e646572206d75737420626520616e60408201526f2061646d696e20746f207265766f6b6560801b606082015260800190565b60208082526038908201527f4552433732313a20617070726f76652063616c6c6572206973206e6f74206f7760408201527f6e6572206e6f7220617070726f76656420666f7220616c6c0000000000000000606082015260800190565b6020808252602a908201527f4552433732313a2062616c616e636520717565727920666f7220746865207a65604082015269726f206164647265737360b01b606082015260800190565b602080825260129082015271496e7375662e205065726d697373696f6e7360701b604082015260600190565b60208082526022908201527f456e756d657261626c654d61703a20696e646578206f7574206f6620626f756e604082015261647360f01b606082015260800190565b6020808252602c908201527f4552433732313a20617070726f76656420717565727920666f72206e6f6e657860408201526b34b9ba32b73a103a37b5b2b760a11b606082015260800190565b60208082526029908201527f4552433732313a207472616e73666572206f6620746f6b656e2074686174206960408201526839903737ba1037bbb760b91b606082015260800190565b6020808252602f908201527f4552433732314d657461646174613a2055524920717565727920666f72206e6f60408201526e3732bc34b9ba32b73a103a37b5b2b760891b606082015260800190565b60208082526010908201526f24b73b30b634b210223ab930ba34b7b760811b604082015260600190565b60208082526021908201527f4552433732313a20617070726f76616c20746f2063757272656e74206f776e656040820152603960f91b606082015260800190565b60208082526031908201527f4552433732313a207472616e736665722063616c6c6572206973206e6f74206f6040820152701ddb995c881b9bdc88185c1c1c9bdd9959607a1b606082015260800190565b6020808252601d908201527f416464726573733a2063616c6c20746f206e6f6e2d636f6e7472616374000000604082015260600190565b60208082526032908201527f43616c6c657220646f736e27742068617665207065726d697373696f6e20746f604082015271103ab9b2903a3434b990333ab731ba34b7b760711b606082015260800190565b6020808252818101527f52616e646f6d2e756e69666f726d3a20696e76616c696420696e74657276616c604082015260600190565b6020808252602f908201527f416363657373436f6e74726f6c3a2063616e206f6e6c792072656e6f756e636560408201526e103937b632b9903337b91039b2b63360891b606082015260800190565b6001600160801b0391909116815260200190565b61ffff91909116815260200190565b6000610200820190508b8252602060ff8c168184015260ff8b166040840152613125606084018b6128a6565b60e083018960005b6002811015613151576131418383516128f8565b918301919083019060010161312d565b505050506131636101208301886128f8565b61317161014083018761287f565b61317f6101a08301866128f8565b61318d6101c08301856128f8565b61319b6101e08301846128f8565b9b9a5050505050505050505050565b60ff91909116815260200190565b60ff93841681529183166020830152909116604082015260600190565b60405181810167ffffffffffffffff811182821017156131f457600080fd5b604052919050565b60005b838110156132175781810151838201526020016131ff565b838111156111285750506000910152565b6001600160a01b0381168114611ad457600080fd5b6001600160e01b031981168114611ad457600080fdfe4552433732313a207472616e7366657220746f206e6f6e20455243373231526563656976657220696d706c656d656e7465724552433732313a206f776e657220717565727920666f72206e6f6e6578697374656e7420746f6b656ea2646970667358221220acc70b245469e29c60102e4f7103088daed764ba852f85b42c1457d60209596d64736f6c63430006080033",
  "linkReferences": {},
  "deployedLinkReferences": {}
}