{
  "_format": "hh-sol-artifact-1",
  "contractName": "TinyBoxesBase",
  "sourceName": "contracts/TinyBoxesBase.sol",
  "abi": [
    {
      "inputs": [],
      "stateMutability": "nonpayable",
      "type": "constructor"
    },
    {
      "anonymous": false,
      "inputs": [
        {
          "indexed": true,
          "internalType": "address",
          "name": "owner",
          "type": "address"
        },
        {
          "indexed": true,
          "internalType": "address",
          "name": "approved",
          "type": "address"
        },
        {
          "indexed": true,
          "internalType": "uint256",
          "name": "tokenId",
          "type": "uint256"
        }
      ],
      "name": "Approval",
      "type": "event"
    },
    {
      "anonymous": false,
      "inputs": [
        {
          "indexed": true,
          "internalType": "address",
          "name": "owner",
          "type": "address"
        },
        {
          "indexed": true,
          "internalType": "address",
          "name": "operator",
          "type": "address"
        },
        {
          "indexed": false,
          "internalType": "bool",
          "name": "approved",
          "type": "bool"
        }
      ],
      "name": "ApprovalForAll",
      "type": "event"
    },
    {
      "anonymous": false,
      "inputs": [
        {
          "indexed": true,
          "internalType": "bytes32",
          "name": "role",
          "type": "bytes32"
        },
        {
          "indexed": true,
          "internalType": "bytes32",
          "name": "previousAdminRole",
          "type": "bytes32"
        },
        {
          "indexed": true,
          "internalType": "bytes32",
          "name": "newAdminRole",
          "type": "bytes32"
        }
      ],
      "name": "RoleAdminChanged",
      "type": "event"
    },
    {
      "anonymous": false,
      "inputs": [
        {
          "indexed": true,
          "internalType": "bytes32",
          "name": "role",
          "type": "bytes32"
        },
        {
          "indexed": true,
          "internalType": "address",
          "name": "account",
          "type": "address"
        },
        {
          "indexed": true,
          "internalType": "address",
          "name": "sender",
          "type": "address"
        }
      ],
      "name": "RoleGranted",
      "type": "event"
    },
    {
      "anonymous": false,
      "inputs": [
        {
          "indexed": true,
          "internalType": "bytes32",
          "name": "role",
          "type": "bytes32"
        },
        {
          "indexed": true,
          "internalType": "address",
          "name": "account",
          "type": "address"
        },
        {
          "indexed": true,
          "internalType": "address",
          "name": "sender",
          "type": "address"
        }
      ],
      "name": "RoleRevoked",
      "type": "event"
    },
    {
      "anonymous": false,
      "inputs": [
        {
          "indexed": true,
          "internalType": "address",
          "name": "from",
          "type": "address"
        },
        {
          "indexed": true,
          "internalType": "address",
          "name": "to",
          "type": "address"
        },
        {
          "indexed": true,
          "internalType": "uint256",
          "name": "tokenId",
          "type": "uint256"
        }
      ],
      "name": "Transfer",
      "type": "event"
    },
    {
      "inputs": [],
      "name": "ADMIN_ROLE",
      "outputs": [
        {
          "internalType": "bytes32",
          "name": "",
          "type": "bytes32"
        }
      ],
      "stateMutability": "view",
      "type": "function"
    },
    {
      "inputs": [],
      "name": "ANIMATION_COUNT",
      "outputs": [
        {
          "internalType": "uint8",
          "name": "",
          "type": "uint8"
        }
      ],
      "stateMutability": "view",
      "type": "function"
    },
    {
      "inputs": [],
      "name": "ANIMATOR_ROLE",
      "outputs": [
        {
          "internalType": "bytes32",
          "name": "",
          "type": "bytes32"
        }
      ],
      "stateMutability": "view",
      "type": "function"
    },
    {
      "inputs": [],
      "name": "ARTIST_ROLE",
      "outputs": [
        {
          "internalType": "bytes32",
          "name": "",
          "type": "bytes32"
        }
      ],
      "stateMutability": "view",
      "type": "function"
    },
    {
      "inputs": [],
      "name": "DEFAULT_ADMIN_ROLE",
      "outputs": [
        {
          "internalType": "bytes32",
          "name": "",
          "type": "bytes32"
        }
      ],
      "stateMutability": "view",
      "type": "function"
    },
    {
      "inputs": [],
      "name": "SCHEME_COUNT",
      "outputs": [
        {
          "internalType": "uint8",
          "name": "",
          "type": "uint8"
        }
      ],
      "stateMutability": "view",
      "type": "function"
    },
    {
      "inputs": [],
      "name": "TOKEN_LIMIT",
      "outputs": [
        {
          "internalType": "uint16",
          "name": "",
          "type": "uint16"
        }
      ],
      "stateMutability": "view",
      "type": "function"
    },
    {
      "inputs": [
        {
          "internalType": "address",
          "name": "to",
          "type": "address"
        },
        {
          "internalType": "uint256",
          "name": "tokenId",
          "type": "uint256"
        }
      ],
      "name": "approve",
      "outputs": [],
      "stateMutability": "nonpayable",
      "type": "function"
    },
    {
      "inputs": [
        {
          "internalType": "address",
          "name": "owner",
          "type": "address"
        }
      ],
      "name": "balanceOf",
      "outputs": [
        {
          "internalType": "uint256",
          "name": "",
          "type": "uint256"
        }
      ],
      "stateMutability": "view",
      "type": "function"
    },
    {
      "inputs": [],
      "name": "baseURI",
      "outputs": [
        {
          "internalType": "string",
          "name": "",
          "type": "string"
        }
      ],
      "stateMutability": "view",
      "type": "function"
    },
    {
      "inputs": [],
      "name": "blockStart",
      "outputs": [
        {
          "internalType": "uint256",
          "name": "",
          "type": "uint256"
        }
      ],
      "stateMutability": "view",
      "type": "function"
    },
    {
      "inputs": [
        {
          "internalType": "uint256",
          "name": "id",
          "type": "uint256"
        },
        {
          "internalType": "uint8[3]",
          "name": "settings",
          "type": "uint8[3]"
        }
      ],
      "name": "changeSettings",
      "outputs": [],
      "stateMutability": "nonpayable",
      "type": "function"
    },
    {
      "inputs": [
        {
          "internalType": "uint256",
          "name": "tokenId",
          "type": "uint256"
        }
      ],
      "name": "getApproved",
      "outputs": [
        {
          "internalType": "address",
          "name": "",
          "type": "address"
        }
      ],
      "stateMutability": "view",
      "type": "function"
    },
    {
      "inputs": [
        {
          "internalType": "bytes32",
          "name": "role",
          "type": "bytes32"
        }
      ],
      "name": "getRoleAdmin",
      "outputs": [
        {
          "internalType": "bytes32",
          "name": "",
          "type": "bytes32"
        }
      ],
      "stateMutability": "view",
      "type": "function"
    },
    {
      "inputs": [
        {
          "internalType": "bytes32",
          "name": "role",
          "type": "bytes32"
        },
        {
          "internalType": "uint256",
          "name": "index",
          "type": "uint256"
        }
      ],
      "name": "getRoleMember",
      "outputs": [
        {
          "internalType": "address",
          "name": "",
          "type": "address"
        }
      ],
      "stateMutability": "view",
      "type": "function"
    },
    {
      "inputs": [
        {
          "internalType": "bytes32",
          "name": "role",
          "type": "bytes32"
        }
      ],
      "name": "getRoleMemberCount",
      "outputs": [
        {
          "internalType": "uint256",
          "name": "",
          "type": "uint256"
        }
      ],
      "stateMutability": "view",
      "type": "function"
    },
    {
      "inputs": [
        {
          "internalType": "bytes32",
          "name": "role",
          "type": "bytes32"
        },
        {
          "internalType": "address",
          "name": "account",
          "type": "address"
        }
      ],
      "name": "grantRole",
      "outputs": [],
      "stateMutability": "nonpayable",
      "type": "function"
    },
    {
      "inputs": [
        {
          "internalType": "bytes32",
          "name": "role",
          "type": "bytes32"
        },
        {
          "internalType": "address",
          "name": "account",
          "type": "address"
        }
      ],
      "name": "hasRole",
      "outputs": [
        {
          "internalType": "bool",
          "name": "",
          "type": "bool"
        }
      ],
      "stateMutability": "view",
      "type": "function"
    },
    {
      "inputs": [
        {
          "internalType": "address",
          "name": "owner",
          "type": "address"
        },
        {
          "internalType": "address",
          "name": "operator",
          "type": "address"
        }
      ],
      "name": "isApprovedForAll",
      "outputs": [
        {
          "internalType": "bool",
          "name": "",
          "type": "bool"
        }
      ],
      "stateMutability": "view",
      "type": "function"
    },
    {
      "inputs": [],
      "name": "name",
      "outputs": [
        {
          "internalType": "string",
          "name": "",
          "type": "string"
        }
      ],
      "stateMutability": "view",
      "type": "function"
    },
    {
      "inputs": [
        {
          "internalType": "uint256",
          "name": "tokenId",
          "type": "uint256"
        }
      ],
      "name": "ownerOf",
      "outputs": [
        {
          "internalType": "address",
          "name": "",
          "type": "address"
        }
      ],
      "stateMutability": "view",
      "type": "function"
    },
    {
      "inputs": [],
      "name": "paused",
      "outputs": [
        {
          "internalType": "bool",
          "name": "",
          "type": "bool"
        }
      ],
      "stateMutability": "view",
      "type": "function"
    },
    {
      "inputs": [],
      "name": "phaseCountdown",
      "outputs": [
        {
          "internalType": "uint256",
          "name": "",
          "type": "uint256"
        }
      ],
      "stateMutability": "view",
      "type": "function"
    },
    {
      "inputs": [],
      "name": "phaseCountdownTime",
      "outputs": [
        {
          "internalType": "uint256",
          "name": "",
          "type": "uint256"
        }
      ],
      "stateMutability": "view",
      "type": "function"
    },
    {
      "inputs": [],
      "name": "phaseLen",
      "outputs": [
        {
          "internalType": "uint256",
          "name": "",
          "type": "uint256"
        }
      ],
      "stateMutability": "view",
      "type": "function"
    },
    {
      "inputs": [
        {
          "internalType": "uint256",
          "name": "id",
          "type": "uint256"
        }
      ],
      "name": "readSettings",
      "outputs": [
        {
          "internalType": "uint8",
          "name": "bkg",
          "type": "uint8"
        },
        {
          "internalType": "uint8",
          "name": "duration",
          "type": "uint8"
        },
        {
          "internalType": "uint8",
          "name": "options",
          "type": "uint8"
        }
      ],
      "stateMutability": "view",
      "type": "function"
    },
    {
      "inputs": [
        {
          "internalType": "bytes32",
          "name": "role",
          "type": "bytes32"
        },
        {
          "internalType": "address",
          "name": "account",
          "type": "address"
        }
      ],
      "name": "renounceRole",
      "outputs": [],
      "stateMutability": "nonpayable",
      "type": "function"
    },
    {
      "inputs": [
        {
          "internalType": "bytes32",
          "name": "role",
          "type": "bytes32"
        },
        {
          "internalType": "address",
          "name": "account",
          "type": "address"
        }
      ],
      "name": "revokeRole",
      "outputs": [],
      "stateMutability": "nonpayable",
      "type": "function"
    },
    {
      "inputs": [
        {
          "internalType": "address",
          "name": "from",
          "type": "address"
        },
        {
          "internalType": "address",
          "name": "to",
          "type": "address"
        },
        {
          "internalType": "uint256",
          "name": "tokenId",
          "type": "uint256"
        }
      ],
      "name": "safeTransferFrom",
      "outputs": [],
      "stateMutability": "nonpayable",
      "type": "function"
    },
    {
      "inputs": [
        {
          "internalType": "address",
          "name": "from",
          "type": "address"
        },
        {
          "internalType": "address",
          "name": "to",
          "type": "address"
        },
        {
          "internalType": "uint256",
          "name": "tokenId",
          "type": "uint256"
        },
        {
          "internalType": "bytes",
          "name": "_data",
          "type": "bytes"
        }
      ],
      "name": "safeTransferFrom",
      "outputs": [],
      "stateMutability": "nonpayable",
      "type": "function"
    },
    {
      "inputs": [
        {
          "internalType": "address",
          "name": "operator",
          "type": "address"
        },
        {
          "internalType": "bool",
          "name": "approved",
          "type": "bool"
        }
      ],
      "name": "setApprovalForAll",
      "outputs": [],
      "stateMutability": "nonpayable",
      "type": "function"
    },
    {
      "inputs": [
        {
          "internalType": "bytes4",
          "name": "interfaceId",
          "type": "bytes4"
        }
      ],
      "name": "supportsInterface",
      "outputs": [
        {
          "internalType": "bool",
          "name": "",
          "type": "bool"
        }
      ],
      "stateMutability": "view",
      "type": "function"
    },
    {
      "inputs": [],
      "name": "symbol",
      "outputs": [
        {
          "internalType": "string",
          "name": "",
          "type": "string"
        }
      ],
      "stateMutability": "view",
      "type": "function"
    },
    {
      "inputs": [
        {
          "internalType": "uint256",
          "name": "index",
          "type": "uint256"
        }
      ],
      "name": "tokenByIndex",
      "outputs": [
        {
          "internalType": "uint256",
          "name": "",
          "type": "uint256"
        }
      ],
      "stateMutability": "view",
      "type": "function"
    },
    {
      "inputs": [
        {
          "internalType": "uint256",
          "name": "_id",
          "type": "uint256"
        }
      ],
      "name": "tokenData",
      "outputs": [
        {
          "internalType": "uint256",
          "name": "animation",
          "type": "uint256"
        },
        {
          "internalType": "uint8",
          "name": "shapes",
          "type": "uint8"
        },
        {
          "internalType": "uint8",
          "name": "hatching",
          "type": "uint8"
        },
        {
          "internalType": "uint8[4]",
          "name": "size",
          "type": "uint8[4]"
        },
        {
          "internalType": "uint8[2]",
          "name": "spacing",
          "type": "uint8[2]"
        },
        {
          "internalType": "uint8",
          "name": "mirroring",
          "type": "uint8"
        },
        {
          "internalType": "uint16[3]",
          "name": "color",
          "type": "uint16[3]"
        },
        {
          "internalType": "uint8",
          "name": "contrast",
          "type": "uint8"
        },
        {
          "internalType": "uint8",
          "name": "shades",
          "type": "uint8"
        },
        {
          "internalType": "uint8",
          "name": "scheme",
          "type": "uint8"
        }
      ],
      "stateMutability": "view",
      "type": "function"
    },
    {
      "inputs": [
        {
          "internalType": "address",
          "name": "owner",
          "type": "address"
        },
        {
          "internalType": "uint256",
          "name": "index",
          "type": "uint256"
        }
      ],
      "name": "tokenOfOwnerByIndex",
      "outputs": [
        {
          "internalType": "uint256",
          "name": "",
          "type": "uint256"
        }
      ],
      "stateMutability": "view",
      "type": "function"
    },
    {
      "inputs": [
        {
          "internalType": "uint256",
          "name": "id",
          "type": "uint256"
        }
      ],
      "name": "tokenRandomness",
      "outputs": [
        {
          "internalType": "uint128",
          "name": "",
          "type": "uint128"
        }
      ],
      "stateMutability": "view",
      "type": "function"
    },
    {
      "inputs": [
        {
          "internalType": "uint256",
          "name": "tokenId",
          "type": "uint256"
        }
      ],
      "name": "tokenURI",
      "outputs": [
        {
          "internalType": "string",
          "name": "",
          "type": "string"
        }
      ],
      "stateMutability": "view",
      "type": "function"
    },
    {
      "inputs": [],
      "name": "totalSupply",
      "outputs": [
        {
          "internalType": "uint256",
          "name": "",
          "type": "uint256"
        }
      ],
      "stateMutability": "view",
      "type": "function"
    },
    {
      "inputs": [
        {
          "internalType": "address",
          "name": "from",
          "type": "address"
        },
        {
          "internalType": "address",
          "name": "to",
          "type": "address"
        },
        {
          "internalType": "uint256",
          "name": "tokenId",
          "type": "uint256"
        }
      ],
      "name": "transferFrom",
      "outputs": [],
      "stateMutability": "nonpayable",
      "type": "function"
    }
  ],
  "bytecode": "0x6080604052600c805460ff19166001179055600b606e0461ffff16600e556078600f556200003e600f80546200017c60201b620013e01790919060201c565b6010553480156200004e57600080fd5b50604080518082018252600981526854696e79426f78657360b81b602080830191909152825180840190935260068352655b235d5b235d60d01b9083015290620000a86301ffc9a760e01b6001600160e01b03620001cf16565b8151620000bd90600690602085019062000397565b508051620000d390600790602084019062000397565b50620000ef6380ac58cd60e01b6001600160e01b03620001cf16565b6200010a635b5e139f60e01b6001600160e01b03620001cf16565b6200012563780e9d6360e01b6001600160e01b03620001cf16565b505062000152604051620001399062000469565b604051908190039020336001600160e01b036200022a16565b62000164604051620001399062000452565b62000176604051620001399062000439565b6200050c565b6000620001c683836040518060400160405280601a81526020017f536166654d6174683a206469766973696f6e206279207a65726f0000000000008152506200024360201b60201c565b90505b92915050565b6001600160e01b03198082161415620002055760405162461bcd60e51b8152600401620001fc90620004d5565b60405180910390fd5b6001600160e01b0319166000908152602081905260409020805460ff19166001179055565b6200023f82826001600160e01b036200027e16565b5050565b60008183620002675760405162461bcd60e51b8152600401620001fc91906200047f565b5060008385816200027457fe5b0495945050505050565b6000828152600a60209081526040909120620002a59183906200142262000302821b17901c565b156200023f57620002be6001600160e01b036200032216565b6001600160a01b0316816001600160a01b0316837f2f8788117e7eff1d82e926ec794901d17c78024a50270940304540a733656f0d60405160405180910390a45050565b6000620001c6836001600160a01b0384166001600160e01b036200032716565b335b90565b60006200033e83836001600160e01b036200037f16565b6200037657508154600181810184556000848152602080822090930184905584548482528286019093526040902091909155620001c9565b506000620001c9565b60009081526001919091016020526040902054151590565b828054600181600116156101000203166002900490600052602060002090601f016020900481019282601f10620003da57805160ff19168380011785556200040a565b828001600101855582156200040a579182015b828111156200040a578251825591602001919060010190620003ed565b50620004189291506200041c565b5090565b6200032491905b8082111562000418576000815560010162000423565b6c414e494d41544f525f524f4c4560981b8152600d0190565b6a4152544953545f524f4c4560a81b8152600b0190565b6941444d494e5f524f4c4560b01b8152600a0190565b6000602080835283518082850152825b81811015620004ad578581018301518582016040015282016200048f565b81811115620004bf5783604083870101525b50601f01601f1916929092016040019392505050565b6020808252601c908201527f4552433136353a20696e76616c696420696e7465726661636520696400000000604082015260600190565b6132eb806200051c6000396000f3fe608060405234801561001057600080fd5b50600436106102c85760003560e01c806370a082311161017b578063a966a0df116100d8578063ca15c8731161008c578063d547741f11610071578063d547741f14610572578063e985e9c514610585578063fc4ea93914610598576102c8565b8063ca15c87314610557578063ce427c1c1461056a576102c8565b8063b4b5b48f116100bd578063b4b5b48f14610508578063b88d4fde14610531578063c87b56dd14610544576102c8565b8063a966a0df146104f8578063b3174fa114610500576102c8565b806391d148541161012f57806395d89b411161011457806395d89b41146104d5578063a217fddf146104dd578063a22cb465146104e5576102c8565b806391d14854146104a0578063947e93d9146104b3576102c8565b806375b238fc1161016057806375b238fc1461047d5780637b2feaaa146104855780639010d07c1461048d576102c8565b806370a082311461046257806371a0a01614610475576102c8565b80632f745c59116102295780634f6ccce7116101dd5780635c975abb116101c25780635c975abb1461043f5780636352211e146104475780636c0360eb1461045a576102c8565b80634f6ccce7146104245780635241019714610437576102c8565b80633c564cab1161020e5780633c564cab146103de578063408f3a2b146103f157806342842e0e14610411576102c8565b80632f745c59146103b857806336568abe146103cb576102c8565b80630e1b9b0e1161028057806323b872dd1161026557806323b872dd1461037f578063248a9ca3146103925780632f2ff15d146103a5576102c8565b80630e1b9b0e1461035557806318160ddd1461036a576102c8565b806306fdde03116102b157806306fdde031461030b578063081812fc14610320578063095ea7b314610340576102c8565b806301ffc9a7146102cd578063031bd4c4146102f6575b600080fd5b6102e06102db36600461270f565b6105a0565b6040516102ed9190612998565b60405180910390f35b6102fe6105db565b6040516102ed9190613101565b6103136105e0565b6040516102ed91906129a3565b61033361032e3660046126b2565b610676565b6040516102ed9190612948565b61035361034e366004612688565b6106c2565b005b61035d61075a565b6040516102ed91906131bd565b61037261075f565b6040516102ed9190612819565b61035361038d366004612547565b610770565b6103726103a03660046126b2565b6107a8565b6103536103b33660046126ca565b6107bd565b6103726103c6366004612688565b610805565b6103536103d93660046126ca565b610836565b6103536103ec366004612747565b610878565b6104046103ff3660046126b2565b610a46565b6040516102ed91906130e4565b61035361041f366004612547565b610b6f565b6103726104323660046126b2565b610b8a565b610372610ba6565b6102e0610bac565b6103336104553660046126b2565b610bb5565b610313610be3565b6103726104703660046124f8565b610c44565b61035d610c8d565b610372610c92565b610372610ca9565b61033361049b3660046126ee565b610caf565b6102e06104ae3660046126ca565b610ccd565b6104c66104c13660046126b2565b610ceb565b6040516102ed939291906131cb565b610313610e20565b610372610e81565b6103536104f336600461264d565b610e86565b610372610f54565b610372610f60565b61051b6105163660046126b2565b610f66565b6040516102ed9a99989796959493929190613110565b61035361053f366004612587565b6111c6565b6103136105523660046126b2565b611205565b6103726105653660046126b2565b61134f565b610372611366565b6103536105803660046126ca565b611372565b6102e0610593366004612513565b6113ac565b6103726113da565b7fffffffff00000000000000000000000000000000000000000000000000000000811660009081526020819052604090205460ff165b919050565b606e81565b60068054604080516020601f600260001961010060018816150201909516949094049384018190048102820181019092528281526060939092909183018282801561066c5780601f106106415761010080835404028352916020019161066c565b820191906000526020600020905b81548152906001019060200180831161064f57829003601f168201915b5050505050905090565b600061068182611437565b6106a65760405162461bcd60e51b815260040161069d90612e24565b60405180910390fd5b506000908152600460205260409020546001600160a01b031690565b60006106cd82610bb5565b9050806001600160a01b0316836001600160a01b031614156107015760405162461bcd60e51b815260040161069d90612f61565b806001600160a01b031661071361144a565b6001600160a01b0316148061072f575061072f8161059361144a565b61074b5760405162461bcd60e51b815260040161069d90612cf1565b610755838361144e565b505050565b601881565b600061076b60026114d4565b905090565b61078161077b61144a565b826114df565b61079d5760405162461bcd60e51b815260040161069d90612fbe565b610755838383611564565b6000908152600a602052604090206002015490565b6000828152600a60205260409020600201546107db906104ae61144a565b6107f75760405162461bcd60e51b815260040161069d906129f8565b6108018282611684565b5050565b6001600160a01b038216600090815260016020526040812061082d908363ffffffff6116f316565b90505b92915050565b61083e61144a565b6001600160a01b0316816001600160a01b03161461086e5760405162461bcd60e51b815260040161069d90613087565b61080182826116ff565b61088182610bb5565b6001600160a01b0316336001600160a01b031614806108b957506108a482610676565b6001600160a01b0316336001600160a01b0316145b6108d55760405162461bcd60e51b815260040161069d90612dab565b60656108e46020830183612778565b60ff1611156109055760405162461bcd60e51b815260040161069d90612c11565b60006109176040830160208401612778565b60ff16116109375760405162461bcd60e51b815260040161069d90612f2a565b6109446020820182612778565b6000838152601160205260409020805460ff92909216600160e81b027fffff00ffffffffffffffffffffffffffffffffffffffffffffffffffffffffff9092169190911790558060016020020160208101906109a09190612778565b6000838152601160205260409020805460ff92909216600160f01b027fff00ffffffffffffffffffffffffffffffffffffffffffffffffffffffffffff9092169190911790558060026020020160208101906109fc9190612778565b600092835260116020526040909220805460ff93909316600160f81b027effffffffffffffffffffffffffffffffffffffffffffffffffffffffffffff9093169290921790915550565b6000610a506123c6565b505060009081526011602090815260409182902082516102008101845290546fffffffffffffffffffffffffffffffff811680835261ffff600160801b8304169383019390935260ff600160901b8204811694830194909452600160981b810484166060830152600160a01b810484166080830152600160a81b8104841660a0830152600160b01b8104841660c0830152600160b81b8104841660e0830152600160c01b81048416610100830152600160c81b81048416610120830152600160d01b81048416610140830152600160d81b81048416610160830152600160e01b81048416610180830152600160e81b810484166101a0830152600160f01b810484166101c0830152600160f81b90049092166101e09092019190915290565b610755838383604051806020016040528060008152506111c6565b600080610b9e60028463ffffffff61176e16565b509392505050565b600f5481565b600c5460ff1681565b60006108308260405180606001604052806029815260200161328d602991396002919063ffffffff61178a16565b60098054604080516020601f600260001961010060018816150201909516949094049384018190048102820181019092528281526060939092909183018282801561066c5780601f106106415761010080835404028352916020019161066c565b60006001600160a01b038216610c6c5760405162461bcd60e51b815260040161069d90612d4e565b6001600160a01b0382166000908152600160205260409020610830906114d4565b600b81565b604051610c9e9061291f565b604051809103902081565b600d5481565b6000828152600a6020526040812061082d908363ffffffff6116f316565b6000828152600a6020526040812061082d908363ffffffff6117a116565b6000806000610cf86123c6565b5050506000918252506011602090815260409182902082516102008101845290546fffffffffffffffffffffffffffffffff8116825261ffff600160801b8204169282019290925260ff600160901b8304811693820193909352600160981b820483166060820152600160a01b820483166080820152600160a81b8204831660a0820152600160b01b8204831660c0820152600160b81b8204831660e0820152600160c01b82048316610100820152600160c81b82048316610120820152600160d01b82048316610140820152600160d81b82048316610160820152600160e01b82048316610180820152600160e81b820483166101a08201819052600160f01b830484166101c08301819052600160f81b9093049093166101e09091018190529192909190565b60078054604080516020601f600260001961010060018816150201909516949094049384018190048102820181019092528281526060939092909183018282801561066c5780601f106106415761010080835404028352916020019161066c565b600081565b610e8e61144a565b6001600160a01b0316826001600160a01b03161415610ebf5760405162461bcd60e51b815260040161069d90612b7d565b8060056000610ecc61144a565b6001600160a01b03908116825260208083019390935260409182016000908120918716808252919093529120805460ff191692151592909217909155610f1061144a565b6001600160a01b03167f17307eab39ab6107e8899845ad3d59bd9653f200f220920489ca2b5937696c3183604051610f489190612998565b60405180910390a35050565b604051610c9e906128f6565b600e5481565b6000806000610f7361244a565b610f7b612468565b6000610f85612486565b6000806000610f926123c6565b5060008b81526011602090815260409182902082516102008101845290546fffffffffffffffffffffffffffffffff8116825261ffff600160801b8204169282019290925260ff600160901b8304811693820193909352600160981b820483166060820152600160a01b820483166080820152600160a81b8204831660a0820152600160b01b8204831660c0820152600160b81b8204831660e0820152600160c01b82048316610100820152600160c81b82048316610120820152600160d01b82048316610140820152600160d81b82048316610160820152600160e01b82048316610180820152600160e81b820483166101a0820152600160f01b820483166101c0820152600160f81b9091049091166101e08201526110b161244a565b6110bb828e6117b6565b9050806000602002015160ff169b50806001602002015192508060026020020151935080600360200201519450816101800151965081608001519a508160a0015199506040518060600160405280836020015161ffff1661ffff168152602001836040015160ff1661ffff168152602001836060015160ff1661ffff16815250955060405180608001604052808360c0015160ff1660ff1681526020018360e0015160ff1660ff16815260200183610100015160ff1660ff16815260200183610120015160ff1660ff168152509850604051806040016040528083610140015160ff1660ff16815260200183610160015160ff1660ff16815250975050509193959799509193959799565b6111d76111d161144a565b836114df565b6111f35760405162461bcd60e51b815260040161069d90612fbe565b6111ff84848484611a04565b50505050565b606061121082611437565b61122c5760405162461bcd60e51b815260040161069d90612ecd565b60008281526008602090815260409182902080548351601f60026000196101006001861615020190931692909204918201849004840281018401909452808452606093928301828280156112c15780601f10611296576101008083540402835291602001916112c1565b820191906000526020600020905b8154815290600101906020018083116112a457829003601f168201915b5050600954939450505050600260001961010060018416150201909116046112ea5790506105d6565b80511561131c5760098160405160200161130592919061284c565b6040516020818303038152906040529150506105d6565b600961132784611a37565b60405160200161133892919061284c565b604051602081830303815290604052915050919050565b6000818152600a60205260408120610830906114d4565b604051610c9e906128cd565b6000828152600a6020526040902060020154611390906104ae61144a565b61086e5760405162461bcd60e51b815260040161069d90612c94565b6001600160a01b03918216600090815260056020908152604080832093909416825291909152205460ff1690565b60105481565b600061082d83836040518060400160405280601a81526020017f536166654d6174683a206469766973696f6e206279207a65726f000000000000815250611b46565b600061082d836001600160a01b038416611b7d565b600061083060028363ffffffff611bc716565b3390565b600081815260046020526040902080547fffffffffffffffffffffffff0000000000000000000000000000000000000000166001600160a01b038416908117909155819061149b82610bb5565b6001600160a01b03167f8c5be1e5ebec7d5bd14f71427d1e84f3dd0314c0f7b2291e5b200ac8c7c3b92560405160405180910390a45050565b600061083082611bd3565b60006114ea82611437565b6115065760405162461bcd60e51b815260040161069d90612c48565b600061151183610bb5565b9050806001600160a01b0316846001600160a01b0316148061154c5750836001600160a01b031661154184610676565b6001600160a01b0316145b8061155c575061155c81856113ac565b949350505050565b826001600160a01b031661157782610bb5565b6001600160a01b03161461159d5760405162461bcd60e51b815260040161069d90612e70565b6001600160a01b0382166115c35760405162461bcd60e51b815260040161069d90612b20565b6115ce838383610755565b6115d960008261144e565b6001600160a01b0383166000908152600160205260409020611601908263ffffffff611bd716565b506001600160a01b038216600090815260016020526040902061162a908263ffffffff611be316565b5061163d6002828463ffffffff611bef16565b5080826001600160a01b0316846001600160a01b03167fddf252ad1be2c89b69c2b068fc378daa952ba7f163c4a11628f55a4df523b3ef60405160405180910390a4505050565b6000828152600a602052604090206116a2908263ffffffff61142216565b15610801576116af61144a565b6001600160a01b0316816001600160a01b0316837f2f8788117e7eff1d82e926ec794901d17c78024a50270940304540a733656f0d60405160405180910390a45050565b600061082d8383611c05565b6000828152600a6020526040902061171d908263ffffffff611c4a16565b156108015761172a61144a565b6001600160a01b0316816001600160a01b0316837ff6391f5c32d9c69d2a47ea670b442974b53935d1edc7fd64eb21e047a839171b60405160405180910390a45050565b600080808061177d8686611c5f565b9097909650945050505050565b6000611797848484611cbb565b90505b9392505050565b600061082d836001600160a01b038416611d1a565b6117be61244a565b606e8210156119785760606117e884600001516fffffffffffffffffffffffffffffffff16611d32565b90506117f26124a4565b506040805160e0810182526001808252600260208301819052600593830184905260096060840152608083019390935260a082019290925260c081019190915261183a6124c2565b506040805161030081018252600180825260208201819052918101829052606081018290526080810182905260a0810182905260c0810182905260e08101829052610100810182905261012081018290526101408101829052610160810182905261018081018290526101a081018290526101c081018290526101e08101829052610200810182905261022081018290526102408101829052610260810182905261028081018290526102a081018290526102c081018290526102e081019190915261190e8382601863ffffffff611de916565b60ff168452600e546119219086906113e0565b60ff166020850152611949600161193a85856019611e59565b60ff169063ffffffff611eaa16565b60ff9081166040860152606087015161196791859160009116611ecf565b60ff16606085015250610830915050565b825160ff6f080000000000000000000000000000006fffffffffffffffffffffffffffffffff9283160416825283516e80000000000000000000000000000090821604600f16602083015283516e10000000000000000000000000000090821604600716604083015292516d2000000000000000000000000000931692909204607f1660608301525090565b611a0f848484611564565b611a1b84848484611f12565b6111ff5760405162461bcd60e51b815260040161069d90612a55565b606081611a78575060408051808201909152600181527f300000000000000000000000000000000000000000000000000000000000000060208201526105d6565b8160005b8115611a9057600101600a82049150611a7c565b60608167ffffffffffffffff81118015611aa957600080fd5b506040519080825280601f01601f191660200182016040528015611ad4576020820181803683370190505b50859350905060001982015b8315611b3d57600a840660300160f81b82828060019003935081518110611b0357fe5b60200101907effffffffffffffffffffffffffffffffffffffffffffffffffffffffffffff1916908160001a905350600a84049350611ae0565b50949350505050565b60008183611b675760405162461bcd60e51b815260040161069d91906129a3565b506000838581611b7357fe5b0495945050505050565b6000611b898383611d1a565b611bbf57508154600181810184556000848152602080822090930184905584548482528286019093526040902091909155610830565b506000610830565b600061082d8383611d1a565b5490565b600061082d8383612039565b600061082d8383611b7d565b600061179784846001600160a01b0385166120ff565b81546000908210611c285760405162461bcd60e51b815260040161069d906129b6565b826000018281548110611c3757fe5b9060005260206000200154905092915050565b600061082d836001600160a01b038416612039565b815460009081908310611c845760405162461bcd60e51b815260040161069d90612de2565b6000846000018481548110611c9557fe5b906000526020600020906002020190508060000154816001015492509250509250929050565b60008281526001840160205260408120548281611ceb5760405162461bcd60e51b815260040161069d91906129a3565b50846000016001820381548110611cfe57fe5b9060005260206000209060020201600101549150509392505050565b60009081526001919091016020526040902054151590565b60408051600380825260808201909252606091600291839160208201838036833701905050905060008085604051602001611d6e929190612822565b60408051601f198184030181529190528051602090910120905060005b83811015611ddf57804082604051602001611da7929190612822565b60405160208183030381529060405280519060200120838260010181518110611dcc57fe5b6020908102919091010152600101611d8b565b5090949350505050565b600080611dfb8560018560ff16611ecf565b90506000805b60188160ff161015611e4f57611e34868260ff1660188110611e1f57fe5b6020020151839060ff1663ffffffff61219616565b9150818313611e4757925061179a915050565b600101611e01565b5050509392505050565b600080611e6b8560018560ff16611ecf565b90506000805b60078160ff161015611e4f57611e8f868260ff1660078110611e1f57fe5b9150818313611ea257925061179a915050565b600101611e71565b60008282018381101561082d5760405162461bcd60e51b815260040161069d90612ab2565b600081831315611ef15760405162461bcd60e51b815260040161069d90613052565b82838303600101611f01866121dc565b81611f0857fe5b0601949350505050565b6000611f26846001600160a01b03166122bf565b611f325750600161155c565b6060611fea630a85bd0160e11b611f4761144a565b888787604051602401611f5d949392919061295c565b604051602081830303815290604052907bffffffffffffffffffffffffffffffffffffffffffffffffffffffff19166020820180517bffffffffffffffffffffffffffffffffffffffffffffffffffffffff838183161783525050505060405180606001604052806032815260200161325b603291396001600160a01b038816919063ffffffff6122f816565b9050600081806020019051810190612002919061272b565b7fffffffff0000000000000000000000000000000000000000000000000000000016630a85bd0160e11b1492505050949350505050565b600081815260018301602052604081205480156120f5578354600019808301919081019060009087908390811061206c57fe5b906000526020600020015490508087600001848154811061208957fe5b6000918252602080832090910192909255828152600189810190925260409020908401905586548790806120b957fe5b60019003818190600052602060002001600090559055866001016000878152602001908152602001600020600090556001945050505050610830565b6000915050610830565b60008281526001840160205260408120548061216457505060408051808201825283815260208082018481528654600181810189556000898152848120955160029093029095019182559151908201558654868452818801909252929091205561179a565b8285600001600183038154811061217757fe5b906000526020600020906002020160010181905550600091505061179a565b60008282018183128015906121ab5750838112155b806121c057506000831280156121c057508381125b61082d5760405162461bcd60e51b815260040161069d90612bb4565b600060018251116121ff5760405162461bcd60e51b815260040161069d90612ae9565b600060018351038360008151811061221357fe5b602002602001015160001c8161222557fe5b066001019050600083828151811061223957fe5b60200260200101516040516020016122519190612819565b6040516020818303038152906040528051906020012090508360008151811061227657fe5b602002602001015160001c60010160001b8460008151811061229457fe5b602002602001018181525050808483815181106122ad57fe5b60209081029190910101529392505050565b6000813f7fc5d2460186f7233c927e7db2dcc703c0e500b653ca82273b7bfad8045d85a47081811480159061155c575050151592915050565b60606117978484600085606061230d856122bf565b6123295760405162461bcd60e51b815260040161069d9061301b565b60006060866001600160a01b031685876040516123469190612830565b60006040518083038185875af1925050503d8060008114612383576040519150601f19603f3d011682016040523d82523d6000602084013e612388565b606091505b5091509150811561239c57915061155c9050565b8051156123ac5780518082602001fd5b8360405162461bcd60e51b815260040161069d91906129a3565b6040805161020081018252600080825260208201819052918101829052606081018290526080810182905260a0810182905260c0810182905260e08101829052610100810182905261012081018290526101408101829052610160810182905261018081018290526101a081018290526101c081018290526101e081019190915290565b60405180608001604052806004906020820280368337509192915050565b60405180604001604052806002906020820280368337509192915050565b60405180606001604052806003906020820280368337509192915050565b6040518060e001604052806007906020820280368337509192915050565b6040518061030001604052806018906020820280368337509192915050565b80356001600160a01b038116811461083057600080fd5b600060208284031215612509578081fd5b61082d83836124e1565b60008060408385031215612525578081fd5b61252f84846124e1565b915061253e84602085016124e1565b90509250929050565b60008060006060848603121561255b578081fd5b833561256681613214565b9250602084013561257681613214565b929592945050506040919091013590565b6000806000806080858703121561259c578081fd5b6125a686866124e1565b935060206125b6878288016124e1565b935060408601359250606086013567ffffffffffffffff808211156125d9578384fd5b81880189601f8201126125ea578485fd5b80359250818311156125fa578485fd5b604051601f8401601f1916810185018381118282101715612619578687fd5b60405283815281840185018b101561262f578586fd5b83858301868301379283019093019390935294979396509194505050565b6000806040838503121561265f578182fd5b61266984846124e1565b91506020830135801515811461267d578182fd5b809150509250929050565b6000806040838503121561269a578182fd5b6126a484846124e1565b946020939093013593505050565b6000602082840312156126c3578081fd5b5035919050565b600080604083850312156126dc578182fd5b82359150602083013561267d81613214565b60008060408385031215612700578182fd5b50508035926020909101359150565b600060208284031215612720578081fd5b813561082d8161322c565b60006020828403121561273c578081fd5b815161082d8161322c565b60008060808385031215612759578182fd5b823591508360808401111561276c578081fd5b50926020919091019150565b600060208284031215612789578081fd5b813560ff8116811461082d578182fd5b8060005b60038110156111ff57815161ffff1684526020938401939091019060010161279d565b8060005b60028110156111ff57815160ff168452602093840193909101906001016127c4565b600081518084526127fe8160208601602086016131e8565b601f01601f19169290920160200192915050565b60ff169052565b90815260200190565b918252602082015260400190565b600082516128428184602087016131e8565b9190910192915050565b600080845460018082166000811461286b5760018114612882576128b1565b60ff198316865260028304607f16860193506128b1565b600283048886526020808720875b838110156128a95781548a820152908501908201612890565b505050860193505b50505083516128c48183602088016131e8565b01949350505050565b7f414e494d41544f525f524f4c45000000000000000000000000000000000000008152600d0190565b7f4152544953545f524f4c450000000000000000000000000000000000000000008152600b0190565b7f41444d494e5f524f4c45000000000000000000000000000000000000000000008152600a0190565b6001600160a01b0391909116815260200190565b60006001600160a01b0380871683528086166020840152508360408301526080606083015261298e60808301846127e6565b9695505050505050565b901515815260200190565b60006020825261082d60208301846127e6565b60208082526022908201527f456e756d657261626c655365743a20696e646578206f7574206f6620626f756e604082015261647360f01b606082015260800190565b6020808252602f908201527f416363657373436f6e74726f6c3a2073656e646572206d75737420626520616e60408201527f2061646d696e20746f206772616e740000000000000000000000000000000000606082015260800190565b60208082526032908201527f4552433732313a207472616e7366657220746f206e6f6e20455243373231526560408201527f63656976657220696d706c656d656e7465720000000000000000000000000000606082015260800190565b6020808252601b908201527f536166654d6174683a206164646974696f6e206f766572666c6f770000000000604082015260600190565b60208082526019908201527f52616e646f6d2e6e6578743a20696e76616c696420706f6f6c00000000000000604082015260600190565b60208082526024908201527f4552433732313a207472616e7366657220746f20746865207a65726f2061646460408201527f7265737300000000000000000000000000000000000000000000000000000000606082015260800190565b60208082526019908201527f4552433732313a20617070726f766520746f2063616c6c657200000000000000604082015260600190565b60208082526021908201527f5369676e6564536166654d6174683a206164646974696f6e206f766572666c6f60408201527f7700000000000000000000000000000000000000000000000000000000000000606082015260800190565b6020808252600b908201527f496e76616c696420426b67000000000000000000000000000000000000000000604082015260600190565b6020808252602c908201527f4552433732313a206f70657261746f7220717565727920666f72206e6f6e657860408201526b34b9ba32b73a103a37b5b2b760a11b606082015260800190565b60208082526030908201527f416363657373436f6e74726f6c3a2073656e646572206d75737420626520616e60408201527f2061646d696e20746f207265766f6b6500000000000000000000000000000000606082015260800190565b60208082526038908201527f4552433732313a20617070726f76652063616c6c6572206973206e6f74206f7760408201527f6e6572206e6f7220617070726f76656420666f7220616c6c0000000000000000606082015260800190565b6020808252602a908201527f4552433732313a2062616c616e636520717565727920666f7220746865207a6560408201527f726f206164647265737300000000000000000000000000000000000000000000606082015260800190565b60208082526012908201527f496e7375662e205065726d697373696f6e730000000000000000000000000000604082015260600190565b60208082526022908201527f456e756d657261626c654d61703a20696e646578206f7574206f6620626f756e604082015261647360f01b606082015260800190565b6020808252602c908201527f4552433732313a20617070726f76656420717565727920666f72206e6f6e657860408201526b34b9ba32b73a103a37b5b2b760a11b606082015260800190565b60208082526029908201527f4552433732313a207472616e73666572206f6620746f6b656e2074686174206960408201527f73206e6f74206f776e0000000000000000000000000000000000000000000000606082015260800190565b6020808252602f908201527f4552433732314d657461646174613a2055524920717565727920666f72206e6f60408201527f6e6578697374656e7420746f6b656e0000000000000000000000000000000000606082015260800190565b60208082526010908201527f496e76616c6964204475726174696f6e00000000000000000000000000000000604082015260600190565b60208082526021908201527f4552433732313a20617070726f76616c20746f2063757272656e74206f776e6560408201527f7200000000000000000000000000000000000000000000000000000000000000606082015260800190565b60208082526031908201527f4552433732313a207472616e736665722063616c6c6572206973206e6f74206f60408201527f776e6572206e6f7220617070726f766564000000000000000000000000000000606082015260800190565b6020808252601d908201527f416464726573733a2063616c6c20746f206e6f6e2d636f6e7472616374000000604082015260600190565b6020808252818101527f52616e646f6d2e756e69666f726d3a20696e76616c696420696e74657276616c604082015260600190565b6020808252602f908201527f416363657373436f6e74726f6c3a2063616e206f6e6c792072656e6f756e636560408201527f20726f6c657320666f722073656c660000000000000000000000000000000000606082015260800190565b6fffffffffffffffffffffffffffffffff91909116815260200190565b61ffff91909116815260200190565b8a815260ff8a81166020808401919091528a82166040840152610200830191606084018b60005b6004811015613156578151841683529184019190840190600101613137565b505050505061316860e08301896127c0565b613176610120830188612812565b613184610140830187612799565b6131926101a0830186612812565b6131a06101c0830185612812565b6131ae6101e0830184612812565b9b9a5050505050505050505050565b60ff91909116815260200190565b60ff93841681529183166020830152909116604082015260600190565b60005b838110156132035781810151838201526020016131eb565b838111156111ff5750506000910152565b6001600160a01b038116811461322957600080fd5b50565b7fffffffff000000000000000000000000000000000000000000000000000000008116811461322957600080fdfe4552433732313a207472616e7366657220746f206e6f6e20455243373231526563656976657220696d706c656d656e7465724552433732313a206f776e657220717565727920666f72206e6f6e6578697374656e7420746f6b656ea2646970667358221220b996bae9c20078e50042de1a7b24ce48c50827158e34ef0a5d7fb0e32522c11964736f6c63430006080033",
  "linkReferences": {},
  "deployedLinkReferences": {}
}