{
  "_format": "hh-sol-artifact-1",
  "contractName": "TinyBoxesBase",
  "sourceName": "contracts/TinyBoxesBase.sol",
  "abi": [
    {
      "inputs": [],
      "stateMutability": "nonpayable",
      "type": "constructor"
    },
    {
      "anonymous": false,
      "inputs": [
        {
          "indexed": true,
          "internalType": "address",
          "name": "owner",
          "type": "address"
        },
        {
          "indexed": true,
          "internalType": "address",
          "name": "approved",
          "type": "address"
        },
        {
          "indexed": true,
          "internalType": "uint256",
          "name": "tokenId",
          "type": "uint256"
        }
      ],
      "name": "Approval",
      "type": "event"
    },
    {
      "anonymous": false,
      "inputs": [
        {
          "indexed": true,
          "internalType": "address",
          "name": "owner",
          "type": "address"
        },
        {
          "indexed": true,
          "internalType": "address",
          "name": "operator",
          "type": "address"
        },
        {
          "indexed": false,
          "internalType": "bool",
          "name": "approved",
          "type": "bool"
        }
      ],
      "name": "ApprovalForAll",
      "type": "event"
    },
    {
      "anonymous": false,
      "inputs": [
        {
          "indexed": true,
          "internalType": "bytes32",
          "name": "role",
          "type": "bytes32"
        },
        {
          "indexed": true,
          "internalType": "bytes32",
          "name": "previousAdminRole",
          "type": "bytes32"
        },
        {
          "indexed": true,
          "internalType": "bytes32",
          "name": "newAdminRole",
          "type": "bytes32"
        }
      ],
      "name": "RoleAdminChanged",
      "type": "event"
    },
    {
      "anonymous": false,
      "inputs": [
        {
          "indexed": true,
          "internalType": "bytes32",
          "name": "role",
          "type": "bytes32"
        },
        {
          "indexed": true,
          "internalType": "address",
          "name": "account",
          "type": "address"
        },
        {
          "indexed": true,
          "internalType": "address",
          "name": "sender",
          "type": "address"
        }
      ],
      "name": "RoleGranted",
      "type": "event"
    },
    {
      "anonymous": false,
      "inputs": [
        {
          "indexed": true,
          "internalType": "bytes32",
          "name": "role",
          "type": "bytes32"
        },
        {
          "indexed": true,
          "internalType": "address",
          "name": "account",
          "type": "address"
        },
        {
          "indexed": true,
          "internalType": "address",
          "name": "sender",
          "type": "address"
        }
      ],
      "name": "RoleRevoked",
      "type": "event"
    },
    {
      "anonymous": false,
      "inputs": [
        {
          "indexed": true,
          "internalType": "address",
          "name": "from",
          "type": "address"
        },
        {
          "indexed": true,
          "internalType": "address",
          "name": "to",
          "type": "address"
        },
        {
          "indexed": true,
          "internalType": "uint256",
          "name": "tokenId",
          "type": "uint256"
        }
      ],
      "name": "Transfer",
      "type": "event"
    },
    {
      "inputs": [],
      "name": "ADMIN_ROLE",
      "outputs": [
        {
          "internalType": "bytes32",
          "name": "",
          "type": "bytes32"
        }
      ],
      "stateMutability": "view",
      "type": "function"
    },
    {
      "inputs": [],
      "name": "ANIMATION_COUNT",
      "outputs": [
        {
          "internalType": "uint8",
          "name": "",
          "type": "uint8"
        }
      ],
      "stateMutability": "view",
      "type": "function"
    },
    {
      "inputs": [],
      "name": "ANIMATOR_ROLE",
      "outputs": [
        {
          "internalType": "bytes32",
          "name": "",
          "type": "bytes32"
        }
      ],
      "stateMutability": "view",
      "type": "function"
    },
    {
      "inputs": [],
      "name": "ARTIST_ROLE",
      "outputs": [
        {
          "internalType": "bytes32",
          "name": "",
          "type": "bytes32"
        }
      ],
      "stateMutability": "view",
      "type": "function"
    },
    {
      "inputs": [],
      "name": "DEFAULT_ADMIN_ROLE",
      "outputs": [
        {
          "internalType": "bytes32",
          "name": "",
          "type": "bytes32"
        }
      ],
      "stateMutability": "view",
      "type": "function"
    },
    {
      "inputs": [],
      "name": "SCHEME_COUNT",
      "outputs": [
        {
          "internalType": "uint8",
          "name": "",
          "type": "uint8"
        }
      ],
      "stateMutability": "view",
      "type": "function"
    },
    {
      "inputs": [],
      "name": "TOKEN_LIMIT",
      "outputs": [
        {
          "internalType": "uint16",
          "name": "",
          "type": "uint16"
        }
      ],
      "stateMutability": "view",
      "type": "function"
    },
    {
      "inputs": [
        {
          "internalType": "address",
          "name": "to",
          "type": "address"
        },
        {
          "internalType": "uint256",
          "name": "tokenId",
          "type": "uint256"
        }
      ],
      "name": "approve",
      "outputs": [],
      "stateMutability": "nonpayable",
      "type": "function"
    },
    {
      "inputs": [
        {
          "internalType": "address",
          "name": "owner",
          "type": "address"
        }
      ],
      "name": "balanceOf",
      "outputs": [
        {
          "internalType": "uint256",
          "name": "",
          "type": "uint256"
        }
      ],
      "stateMutability": "view",
      "type": "function"
    },
    {
      "inputs": [],
      "name": "baseURI",
      "outputs": [
        {
          "internalType": "string",
          "name": "",
          "type": "string"
        }
      ],
      "stateMutability": "view",
      "type": "function"
    },
    {
      "inputs": [],
      "name": "blockStart",
      "outputs": [
        {
          "internalType": "uint256",
          "name": "",
          "type": "uint256"
        }
      ],
      "stateMutability": "view",
      "type": "function"
    },
    {
      "inputs": [
        {
          "internalType": "uint256",
          "name": "id",
          "type": "uint256"
        },
        {
          "internalType": "uint8[3]",
          "name": "settings",
          "type": "uint8[3]"
        }
      ],
      "name": "changeSettings",
      "outputs": [],
      "stateMutability": "nonpayable",
      "type": "function"
    },
    {
      "inputs": [
        {
          "internalType": "uint256",
          "name": "tokenId",
          "type": "uint256"
        }
      ],
      "name": "getApproved",
      "outputs": [
        {
          "internalType": "address",
          "name": "",
          "type": "address"
        }
      ],
      "stateMutability": "view",
      "type": "function"
    },
    {
      "inputs": [
        {
          "internalType": "bytes32",
          "name": "role",
          "type": "bytes32"
        }
      ],
      "name": "getRoleAdmin",
      "outputs": [
        {
          "internalType": "bytes32",
          "name": "",
          "type": "bytes32"
        }
      ],
      "stateMutability": "view",
      "type": "function"
    },
    {
      "inputs": [
        {
          "internalType": "bytes32",
          "name": "role",
          "type": "bytes32"
        },
        {
          "internalType": "uint256",
          "name": "index",
          "type": "uint256"
        }
      ],
      "name": "getRoleMember",
      "outputs": [
        {
          "internalType": "address",
          "name": "",
          "type": "address"
        }
      ],
      "stateMutability": "view",
      "type": "function"
    },
    {
      "inputs": [
        {
          "internalType": "bytes32",
          "name": "role",
          "type": "bytes32"
        }
      ],
      "name": "getRoleMemberCount",
      "outputs": [
        {
          "internalType": "uint256",
          "name": "",
          "type": "uint256"
        }
      ],
      "stateMutability": "view",
      "type": "function"
    },
    {
      "inputs": [
        {
          "internalType": "bytes32",
          "name": "role",
          "type": "bytes32"
        },
        {
          "internalType": "address",
          "name": "account",
          "type": "address"
        }
      ],
      "name": "grantRole",
      "outputs": [],
      "stateMutability": "nonpayable",
      "type": "function"
    },
    {
      "inputs": [
        {
          "internalType": "bytes32",
          "name": "role",
          "type": "bytes32"
        },
        {
          "internalType": "address",
          "name": "account",
          "type": "address"
        }
      ],
      "name": "hasRole",
      "outputs": [
        {
          "internalType": "bool",
          "name": "",
          "type": "bool"
        }
      ],
      "stateMutability": "view",
      "type": "function"
    },
    {
      "inputs": [
        {
          "internalType": "address",
          "name": "owner",
          "type": "address"
        },
        {
          "internalType": "address",
          "name": "operator",
          "type": "address"
        }
      ],
      "name": "isApprovedForAll",
      "outputs": [
        {
          "internalType": "bool",
          "name": "",
          "type": "bool"
        }
      ],
      "stateMutability": "view",
      "type": "function"
    },
    {
      "inputs": [],
      "name": "name",
      "outputs": [
        {
          "internalType": "string",
          "name": "",
          "type": "string"
        }
      ],
      "stateMutability": "view",
      "type": "function"
    },
    {
      "inputs": [
        {
          "internalType": "uint256",
          "name": "tokenId",
          "type": "uint256"
        }
      ],
      "name": "ownerOf",
      "outputs": [
        {
          "internalType": "address",
          "name": "",
          "type": "address"
        }
      ],
      "stateMutability": "view",
      "type": "function"
    },
    {
      "inputs": [],
      "name": "paused",
      "outputs": [
        {
          "internalType": "bool",
          "name": "",
          "type": "bool"
        }
      ],
      "stateMutability": "view",
      "type": "function"
    },
    {
      "inputs": [],
      "name": "phaseCountdown",
      "outputs": [
        {
          "internalType": "uint256",
          "name": "",
          "type": "uint256"
        }
      ],
      "stateMutability": "view",
      "type": "function"
    },
    {
      "inputs": [],
      "name": "phaseCountdownTime",
      "outputs": [
        {
          "internalType": "uint256",
          "name": "",
          "type": "uint256"
        }
      ],
      "stateMutability": "view",
      "type": "function"
    },
    {
      "inputs": [],
      "name": "phaseLen",
      "outputs": [
        {
          "internalType": "uint256",
          "name": "",
          "type": "uint256"
        }
      ],
      "stateMutability": "view",
      "type": "function"
    },
    {
      "inputs": [
        {
          "internalType": "uint256",
          "name": "id",
          "type": "uint256"
        }
      ],
      "name": "readSettings",
      "outputs": [
        {
          "internalType": "uint8",
          "name": "bkg",
          "type": "uint8"
        },
        {
          "internalType": "uint8",
          "name": "duration",
          "type": "uint8"
        },
        {
          "internalType": "uint8",
          "name": "options",
          "type": "uint8"
        }
      ],
      "stateMutability": "view",
      "type": "function"
    },
    {
      "inputs": [
        {
          "internalType": "bytes32",
          "name": "role",
          "type": "bytes32"
        },
        {
          "internalType": "address",
          "name": "account",
          "type": "address"
        }
      ],
      "name": "renounceRole",
      "outputs": [],
      "stateMutability": "nonpayable",
      "type": "function"
    },
    {
      "inputs": [
        {
          "internalType": "bytes32",
          "name": "role",
          "type": "bytes32"
        },
        {
          "internalType": "address",
          "name": "account",
          "type": "address"
        }
      ],
      "name": "revokeRole",
      "outputs": [],
      "stateMutability": "nonpayable",
      "type": "function"
    },
    {
      "inputs": [
        {
          "internalType": "address",
          "name": "from",
          "type": "address"
        },
        {
          "internalType": "address",
          "name": "to",
          "type": "address"
        },
        {
          "internalType": "uint256",
          "name": "tokenId",
          "type": "uint256"
        }
      ],
      "name": "safeTransferFrom",
      "outputs": [],
      "stateMutability": "nonpayable",
      "type": "function"
    },
    {
      "inputs": [
        {
          "internalType": "address",
          "name": "from",
          "type": "address"
        },
        {
          "internalType": "address",
          "name": "to",
          "type": "address"
        },
        {
          "internalType": "uint256",
          "name": "tokenId",
          "type": "uint256"
        },
        {
          "internalType": "bytes",
          "name": "_data",
          "type": "bytes"
        }
      ],
      "name": "safeTransferFrom",
      "outputs": [],
      "stateMutability": "nonpayable",
      "type": "function"
    },
    {
      "inputs": [
        {
          "internalType": "address",
          "name": "operator",
          "type": "address"
        },
        {
          "internalType": "bool",
          "name": "approved",
          "type": "bool"
        }
      ],
      "name": "setApprovalForAll",
      "outputs": [],
      "stateMutability": "nonpayable",
      "type": "function"
    },
    {
      "inputs": [
        {
          "internalType": "bytes4",
          "name": "interfaceId",
          "type": "bytes4"
        }
      ],
      "name": "supportsInterface",
      "outputs": [
        {
          "internalType": "bool",
          "name": "",
          "type": "bool"
        }
      ],
      "stateMutability": "view",
      "type": "function"
    },
    {
      "inputs": [],
      "name": "symbol",
      "outputs": [
        {
          "internalType": "string",
          "name": "",
          "type": "string"
        }
      ],
      "stateMutability": "view",
      "type": "function"
    },
    {
      "inputs": [
        {
          "internalType": "uint256",
          "name": "index",
          "type": "uint256"
        }
      ],
      "name": "tokenByIndex",
      "outputs": [
        {
          "internalType": "uint256",
          "name": "",
          "type": "uint256"
        }
      ],
      "stateMutability": "view",
      "type": "function"
    },
    {
      "inputs": [
        {
          "internalType": "uint256",
          "name": "_id",
          "type": "uint256"
        }
      ],
      "name": "tokenData",
      "outputs": [
        {
          "internalType": "uint256",
          "name": "animation",
          "type": "uint256"
        },
        {
          "internalType": "uint8",
          "name": "shapes",
          "type": "uint8"
        },
        {
          "internalType": "uint8",
          "name": "hatching",
          "type": "uint8"
        },
        {
          "internalType": "uint8[4]",
          "name": "size",
          "type": "uint8[4]"
        },
        {
          "internalType": "uint8[2]",
          "name": "spacing",
          "type": "uint8[2]"
        },
        {
          "internalType": "uint8",
          "name": "mirroring",
          "type": "uint8"
        },
        {
          "internalType": "uint16[3]",
          "name": "color",
          "type": "uint16[3]"
        },
        {
          "internalType": "uint8",
          "name": "contrast",
          "type": "uint8"
        },
        {
          "internalType": "uint8",
          "name": "shades",
          "type": "uint8"
        },
        {
          "internalType": "uint8",
          "name": "scheme",
          "type": "uint8"
        }
      ],
      "stateMutability": "view",
      "type": "function"
    },
    {
      "inputs": [
        {
          "internalType": "address",
          "name": "owner",
          "type": "address"
        },
        {
          "internalType": "uint256",
          "name": "index",
          "type": "uint256"
        }
      ],
      "name": "tokenOfOwnerByIndex",
      "outputs": [
        {
          "internalType": "uint256",
          "name": "",
          "type": "uint256"
        }
      ],
      "stateMutability": "view",
      "type": "function"
    },
    {
      "inputs": [
        {
          "internalType": "uint256",
          "name": "id",
          "type": "uint256"
        }
      ],
      "name": "tokenRandomness",
      "outputs": [
        {
          "internalType": "uint128",
          "name": "",
          "type": "uint128"
        }
      ],
      "stateMutability": "view",
      "type": "function"
    },
    {
      "inputs": [
        {
          "internalType": "uint256",
          "name": "tokenId",
          "type": "uint256"
        }
      ],
      "name": "tokenURI",
      "outputs": [
        {
          "internalType": "string",
          "name": "",
          "type": "string"
        }
      ],
      "stateMutability": "view",
      "type": "function"
    },
    {
      "inputs": [],
      "name": "totalSupply",
      "outputs": [
        {
          "internalType": "uint256",
          "name": "",
          "type": "uint256"
        }
      ],
      "stateMutability": "view",
      "type": "function"
    },
    {
      "inputs": [
        {
          "internalType": "address",
          "name": "from",
          "type": "address"
        },
        {
          "internalType": "address",
          "name": "to",
          "type": "address"
        },
        {
          "internalType": "uint256",
          "name": "tokenId",
          "type": "uint256"
        }
      ],
      "name": "transferFrom",
      "outputs": [],
      "stateMutability": "nonpayable",
      "type": "function"
    }
  ],
  "bytecode": "0x6080604052600d805460ff19166001179055600b606e0461ffff16600f5560786010556200003f600f6010546200017d60201b620012df1790919060201c565b6011553480156200004f57600080fd5b50604080518082018252600981526854696e79426f78657360b81b602080830191909152825180840190935260068352655b235d5b235d60d01b9083015290620000a96301ffc9a760e01b6001600160e01b03620001d016565b8151620000be90600690602085019062000398565b508051620000d490600790602084019062000398565b50620000f06380ac58cd60e01b6001600160e01b03620001d016565b6200010b635b5e139f60e01b6001600160e01b03620001d016565b6200012663780e9d6360e01b6001600160e01b03620001d016565b5050620001536040516200013a906200046a565b604051908190039020336001600160e01b036200022b16565b620001656040516200013a9062000453565b620001776040516200013a906200043a565b6200050d565b6000620001c783836040518060400160405280601a81526020017f536166654d6174683a206469766973696f6e206279207a65726f0000000000008152506200024460201b60201c565b90505b92915050565b6001600160e01b03198082161415620002065760405162461bcd60e51b8152600401620001fd90620004d6565b60405180910390fd5b6001600160e01b0319166000908152602081905260409020805460ff19166001179055565b6200024082826001600160e01b036200027f16565b5050565b60008183620002685760405162461bcd60e51b8152600401620001fd919062000480565b5060008385816200027557fe5b0495945050505050565b6000828152600a60209081526040909120620002a69183906200132162000303821b17901c565b156200024057620002bf6001600160e01b036200032316565b6001600160a01b0316816001600160a01b0316837f2f8788117e7eff1d82e926ec794901d17c78024a50270940304540a733656f0d60405160405180910390a45050565b6000620001c7836001600160a01b0384166001600160e01b036200032816565b335b90565b60006200033f83836001600160e01b036200038016565b6200037757508154600181810184556000848152602080822090930184905584548482528286019093526040902091909155620001ca565b506000620001ca565b60009081526001919091016020526040902054151590565b828054600181600116156101000203166002900490600052602060002090601f016020900481019282601f10620003db57805160ff19168380011785556200040b565b828001600101855582156200040b579182015b828111156200040b578251825591602001919060010190620003ee565b50620004199291506200041d565b5090565b6200032591905b8082111562000419576000815560010162000424565b6c414e494d41544f525f524f4c4560981b8152600d0190565b6a4152544953545f524f4c4560a81b8152600b0190565b6941444d494e5f524f4c4560b01b8152600a0190565b6000602080835283518082850152825b81811015620004ae5785810183015185820160400152820162000490565b81811115620004c05783604083870101525b50601f01601f1916929092016040019392505050565b6020808252601c908201527f4552433136353a20696e76616c696420696e7465726661636520696400000000604082015260600190565b612fd9806200051d6000396000f3fe608060405234801561001057600080fd5b50600436106102485760003560e01c806370a082311161013b578063a966a0df116100b8578063ca15c8731161007c578063ca15c873146104d7578063ce427c1c146104ea578063d547741f146104f2578063e985e9c514610505578063fc4ea9391461051857610248565b8063a966a0df14610478578063b3174fa114610480578063b4b5b48f14610488578063b88d4fde146104b1578063c87b56dd146104c457610248565b806391d14854116100ff57806391d1485414610420578063947e93d91461043357806395d89b4114610455578063a217fddf1461045d578063a22cb4651461046557610248565b806370a08231146103e257806371a0a016146103f557806375b238fc146103fd5780637b2feaaa146104055780639010d07c1461040d57610248565b80632f745c59116101c95780634f6ccce71161018d5780634f6ccce7146103a457806352410197146103b75780635c975abb146103bf5780636352211e146103c75780636c0360eb146103da57610248565b80632f745c591461033857806336568abe1461034b5780633c564cab1461035e578063408f3a2b1461037157806342842e0e1461039157610248565b80630e1b9b0e116102105780630e1b9b0e146102d557806318160ddd146102ea57806323b872dd146102ff578063248a9ca3146103125780632f2ff15d1461032557610248565b806301ffc9a71461024d578063031bd4c41461027657806306fdde031461028b578063081812fc146102a0578063095ea7b3146102c0575b600080fd5b61026061025b366004612542565b610520565b60405161026d9190612797565b60405180910390f35b61027e610543565b60405161026d9190612e07565b610293610548565b60405161026d91906127a2565b6102b36102ae3660046124e5565b6105de565b60405161026d9190612746565b6102d36102ce3660046124bb565b61062a565b005b6102dd6106c2565b60405161026d9190612ec3565b6102f26106c7565b60405161026d919061264c565b6102d361030d36600461237a565b6106d8565b6102f26103203660046124e5565b610710565b6102d36103333660046124fd565b610725565b6102f26103463660046124bb565b61076d565b6102d36103593660046124fd565b61079e565b6102d361036c36600461257a565b6107e0565b61038461037f3660046124e5565b610960565b60405161026d9190612df3565b6102d361039f36600461237a565b610a80565b6102f26103b23660046124e5565b610a9b565b6102f2610ab7565b610260610abd565b6102b36103d53660046124e5565b610ac6565b610293610af4565b6102f26103f036600461232b565b610b55565b6102dd610b9e565b6102f2610ba3565b6102f2610bba565b6102b361041b366004612521565b610bc0565b61026061042e3660046124fd565b610bde565b6104466104413660046124e5565b610bfc565b60405161026d93929190612ed1565b610293610d28565b6102f2610d89565b6102d3610473366004612480565b610d8e565b6102f2610e5c565b6102f2610e68565b61049b6104963660046124e5565b610e6e565b60405161026d9a99989796959493929190612e16565b6102d36104bf3660046123ba565b6110c5565b6102936104d23660046124e5565b611104565b6102f26104e53660046124e5565b61124e565b6102f2611265565b6102d36105003660046124fd565b611271565b610260610513366004612346565b6112ab565b6102f26112d9565b6001600160e01b0319811660009081526020819052604090205460ff165b919050565b606e81565b60068054604080516020601f60026000196101006001881615020190951694909404938401819004810282018101909252828152606093909290918301828280156105d45780601f106105a9576101008083540402835291602001916105d4565b820191906000526020600020905b8154815290600101906020018083116105b757829003601f168201915b5050505050905090565b60006105e982611336565b61060e5760405162461bcd60e51b815260040161060590612b98565b60405180910390fd5b506000908152600460205260409020546001600160a01b031690565b600061063582610ac6565b9050806001600160a01b0316836001600160a01b031614156106695760405162461bcd60e51b815260040161060590612ca6565b806001600160a01b031661067b611349565b6001600160a01b03161480610697575061069781610513611349565b6106b35760405162461bcd60e51b815260040161060590612a83565b6106bd838361134d565b505050565b601881565b60006106d360026113bb565b905090565b6106e96106e3611349565b826113c6565b6107055760405162461bcd60e51b815260040161060590612ce7565b6106bd83838361144b565b6000908152600a602052604090206002015490565b6000828152600a60205260409020600201546107439061042e611349565b61075f5760405162461bcd60e51b8152600401610605906127f7565b610769828261156b565b5050565b6001600160a01b0382166000908152600160205260408120610795908363ffffffff6115da16565b90505b92915050565b6107a6611349565b6001600160a01b0316816001600160a01b0316146107d65760405162461bcd60e51b815260040161060590612da4565b61076982826115e6565b6107e982610ac6565b6001600160a01b0316336001600160a01b03161480610821575061080c826105de565b6001600160a01b0316336001600160a01b0316145b61083d5760405162461bcd60e51b815260040161060590612b2a565b606561084c60208301836125ab565b60ff16111561086d5760405162461bcd60e51b8152600401610605906129c2565b600061087f60408301602084016125ab565b60ff161161089f5760405162461bcd60e51b815260040161060590612c7c565b6108ac60208201826125ab565b6000838152601260205260409020805460ff92909216600160e81b0260ff60e81b199092169190911790558060016020020160208101906108ed91906125ab565b6000838152601260205260409020805460ff92909216600160f01b0260ff60f01b1990921691909117905580600260200201602081019061092e91906125ab565b600092835260126020526040909220805460ff93909316600160f81b026001600160f81b039093169290921790915550565b600061096a6121f9565b505060009081526012602090815260409182902082516102008101845290546001600160801b03811680835261ffff600160801b8304169383019390935260ff600160901b8204811694830194909452600160981b810484166060830152600160a01b810484166080830152600160a81b8104841660a0830152600160b01b8104841660c0830152600160b81b8104841660e0830152600160c01b81048416610100830152600160c81b81048416610120830152600160d01b81048416610140830152600160d81b81048416610160830152600160e01b81048416610180830152600160e81b810484166101a0830152600160f01b810484166101c0830152600160f81b90049092166101e09092019190915290565b6106bd838383604051806020016040528060008152506110c5565b600080610aaf60028463ffffffff61165516565b509392505050565b60105481565b600d5460ff1681565b600061079882604051806060016040528060298152602001612f7b602991396002919063ffffffff61167116565b60098054604080516020601f60026000196101006001881615020190951694909404938401819004810282018101909252828152606093909290918301828280156105d45780601f106105a9576101008083540402835291602001916105d4565b60006001600160a01b038216610b7d5760405162461bcd60e51b815260040161060590612ae0565b6001600160a01b0382166000908152600160205260409020610798906113bb565b600b81565b604051610baf90612730565b604051809103902081565b600e5481565b6000828152600a60205260408120610795908363ffffffff6115da16565b6000828152600a60205260408120610795908363ffffffff61168816565b6000806000610c096121f9565b5050506000918252506012602090815260409182902082516102008101845290546001600160801b038116825261ffff600160801b8204169282019290925260ff600160901b8304811693820193909352600160981b820483166060820152600160a01b820483166080820152600160a81b8204831660a0820152600160b01b8204831660c0820152600160b81b8204831660e0820152600160c01b82048316610100820152600160c81b82048316610120820152600160d01b82048316610140820152600160d81b82048316610160820152600160e01b82048316610180820152600160e81b820483166101a08201819052600160f01b830484166101c08301819052600160f81b9093049093166101e09091018190529192909190565b60078054604080516020601f60026000196101006001881615020190951694909404938401819004810282018101909252828152606093909290918301828280156105d45780601f106105a9576101008083540402835291602001916105d4565b600081565b610d96611349565b6001600160a01b0316826001600160a01b03161415610dc75760405162461bcd60e51b81526004016106059061294a565b8060056000610dd4611349565b6001600160a01b03908116825260208083019390935260409182016000908120918716808252919093529120805460ff191692151592909217909155610e18611349565b6001600160a01b03167f17307eab39ab6107e8899845ad3d59bd9653f200f220920489ca2b5937696c3183604051610e509190612797565b60405180910390a35050565b604051610baf90612719565b600f5481565b6000806000610e7b61227d565b610e8361229b565b6000610e8d6122b9565b6000806000610e9a6121f9565b5060008b81526012602090815260409182902082516102008101845290546001600160801b038116825261ffff600160801b8204169282019290925260ff600160901b8304811693820193909352600160981b820483166060820152600160a01b820483166080820152600160a81b8204831660a0820152600160b01b8204831660c0820152600160b81b8204831660e0820152600160c01b82048316610100820152600160c81b82048316610120820152600160d01b82048316610140820152600160d81b82048316610160820152600160e01b82048316610180820152600160e81b820483166101a0820152600160f01b820483166101c0820152600160f81b9091049091166101e0820152610fb061227d565b610fba828e61169d565b9050806000602002015160ff169b50806001602002015192508060026020020151935080600360200201519450816101800151965081608001519a508160a0015199506040518060600160405280836020015161ffff1661ffff168152602001836040015160ff1661ffff168152602001836060015160ff1661ffff16815250955060405180608001604052808360c0015160ff1660ff1681526020018360e0015160ff1660ff16815260200183610100015160ff1660ff16815260200183610120015160ff1660ff168152509850604051806040016040528083610140015160ff1660ff16815260200183610160015160ff1660ff16815250975050509193959799509193959799565b6110d66110d0611349565b836113c6565b6110f25760405162461bcd60e51b815260040161060590612ce7565b6110fe848484846118ad565b50505050565b606061110f82611336565b61112b5760405162461bcd60e51b815260040161060590612c2d565b60008281526008602090815260409182902080548351601f60026000196101006001861615020190931692909204918201849004840281018401909452808452606093928301828280156111c05780601f10611195576101008083540402835291602001916111c0565b820191906000526020600020905b8154815290600101906020018083116111a357829003601f168201915b5050600954939450505050600260001961010060018416150201909116046111e957905061053e565b80511561121b5760098160405160200161120492919061267f565b60405160208183030381529060405291505061053e565b6009611226846118e0565b60405160200161123792919061267f565b604051602081830303815290604052915050919050565b6000818152600a60205260408120610798906113bb565b604051610baf90612700565b6000828152600a602052604090206002015461128f9061042e611349565b6107d65760405162461bcd60e51b815260040161060590612a33565b6001600160a01b03918216600090815260056020908152604080832093909416825291909152205460ff1690565b60115481565b600061079583836040518060400160405280601a81526020017f536166654d6174683a206469766973696f6e206279207a65726f0000000000008152506119bb565b6000610795836001600160a01b0384166119f2565b600061079860028363ffffffff611a3c16565b3390565b600081815260046020526040902080546001600160a01b0319166001600160a01b038416908117909155819061138282610ac6565b6001600160a01b03167f8c5be1e5ebec7d5bd14f71427d1e84f3dd0314c0f7b2291e5b200ac8c7c3b92560405160405180910390a45050565b600061079882611a48565b60006113d182611336565b6113ed5760405162461bcd60e51b8152600401610605906129e7565b60006113f883610ac6565b9050806001600160a01b0316846001600160a01b031614806114335750836001600160a01b0316611428846105de565b6001600160a01b0316145b80611443575061144381856112ab565b949350505050565b826001600160a01b031661145e82610ac6565b6001600160a01b0316146114845760405162461bcd60e51b815260040161060590612be4565b6001600160a01b0382166114aa5760405162461bcd60e51b815260040161060590612906565b6114b58383836106bd565b6114c060008261134d565b6001600160a01b03831660009081526001602052604090206114e8908263ffffffff611a4c16565b506001600160a01b0382166000908152600160205260409020611511908263ffffffff611a5816565b506115246002828463ffffffff611a6416565b5080826001600160a01b0316846001600160a01b03167fddf252ad1be2c89b69c2b068fc378daa952ba7f163c4a11628f55a4df523b3ef60405160405180910390a4505050565b6000828152600a60205260409020611589908263ffffffff61132116565b1561076957611596611349565b6001600160a01b0316816001600160a01b0316837f2f8788117e7eff1d82e926ec794901d17c78024a50270940304540a733656f0d60405160405180910390a45050565b60006107958383611a7a565b6000828152600a60205260409020611604908263ffffffff611abf16565b1561076957611611611349565b6001600160a01b0316816001600160a01b0316837ff6391f5c32d9c69d2a47ea670b442974b53935d1edc7fd64eb21e047a839171b60405160405180910390a45050565b60008080806116648686611ad4565b9097909650945050505050565b600061167e848484611b30565b90505b9392505050565b6000610795836001600160a01b038416611b8f565b6116a561227d565b606e8210156118565760606116c684600001516001600160801b0316611ba7565b90506116d06122d7565b506040805160e0810182526001808252600260208301819052600593830184905260096060840152608083019390935260a082019290925260c08101919091526117186122f5565b506040805161030081018252600180825260208201819052918101829052606081018290526080810182905260a0810182905260c0810182905260e08101829052610100810182905261012081018290526101408101829052610160810182905261018081018290526101a081018290526101c081018290526101e08101829052610200810182905261022081018290526102408101829052610260810182905261028081018290526102a081018290526102c081018290526102e08101919091526117ec8382601863ffffffff611c5e16565b60ff168452600f546117ff9086906112df565b60ff166020850152611827600161181885856019611cce565b60ff169063ffffffff611d1f16565b60ff9081166040860152606087015161184591859160009116611d44565b60ff16606085015250610798915050565b825160ff6001607b1b6001600160801b03928316041682528351600160771b90821604600f1660208301528351600160741b90821604600716604083015292516001606d1b931692909204607f1660608301525090565b6118b884848461144b565b6118c484848484611d87565b6110fe5760405162461bcd60e51b815260040161060590612846565b60608161190557506040805180820190915260018152600360fc1b602082015261053e565b8160005b811561191d57600101600a82049150611909565b60608167ffffffffffffffff8111801561193657600080fd5b506040519080825280601f01601f191660200182016040528015611961576020820181803683370190505b50859350905060001982015b83156119b257600a840660300160f81b8282806001900393508151811061199057fe5b60200101906001600160f81b031916908160001a905350600a8404935061196d565b50949350505050565b600081836119dc5760405162461bcd60e51b815260040161060591906127a2565b5060008385816119e857fe5b0495945050505050565b60006119fe8383611b8f565b611a3457508154600181810184556000848152602080822090930184905584548482528286019093526040902091909155610798565b506000610798565b60006107958383611b8f565b5490565b60006107958383611e6c565b600061079583836119f2565b600061167e84846001600160a01b038516611f32565b81546000908210611a9d5760405162461bcd60e51b8152600401610605906127b5565b826000018281548110611aac57fe5b9060005260206000200154905092915050565b6000610795836001600160a01b038416611e6c565b815460009081908310611af95760405162461bcd60e51b815260040161060590612b56565b6000846000018481548110611b0a57fe5b906000526020600020906002020190508060000154816001015492509250509250929050565b60008281526001840160205260408120548281611b605760405162461bcd60e51b815260040161060591906127a2565b50846000016001820381548110611b7357fe5b9060005260206000209060020201600101549150509392505050565b60009081526001919091016020526040902054151590565b60408051600380825260808201909252606091600291839160208201838036833701905050905060008085604051602001611be3929190612655565b60408051601f198184030181529190528051602090910120905060005b83811015611c5457804082604051602001611c1c929190612655565b60405160208183030381529060405280519060200120838260010181518110611c4157fe5b6020908102919091010152600101611c00565b5090949350505050565b600080611c708560018560ff16611d44565b90506000805b60188160ff161015611cc457611ca9868260ff1660188110611c9457fe5b6020020151839060ff1663ffffffff611fc916565b9150818313611cbc579250611681915050565b600101611c76565b5050509392505050565b600080611ce08560018560ff16611d44565b90506000805b60078160ff161015611cc457611d04868260ff1660078110611c9457fe5b9150818313611d17579250611681915050565b600101611ce6565b6000828201838110156107955760405162461bcd60e51b815260040161060590612898565b600081831315611d665760405162461bcd60e51b815260040161060590612d6f565b82838303600101611d768661200f565b81611d7d57fe5b0601949350505050565b6000611d9b846001600160a01b03166120f2565b611da757506001611443565b6060611e35630a85bd0160e11b611dbc611349565b888787604051602401611dd2949392919061275a565b604051602081830303815290604052906001600160e01b0319166020820180516001600160e01b038381831617835250505050604051806060016040528060328152602001612f49603291396001600160a01b038816919063ffffffff61212b16565b9050600081806020019051810190611e4d919061255e565b6001600160e01b031916630a85bd0160e11b1492505050949350505050565b60008181526001830160205260408120548015611f285783546000198083019190810190600090879083908110611e9f57fe5b9060005260206000200154905080876000018481548110611ebc57fe5b600091825260208083209091019290925582815260018981019092526040902090840190558654879080611eec57fe5b60019003818190600052602060002001600090559055866001016000878152602001908152602001600020600090556001945050505050610798565b6000915050610798565b600082815260018401602052604081205480611f97575050604080518082018252838152602080820184815286546001818101895560008981528481209551600290930290950191825591519082015586548684528188019092529290912055611681565b82856000016001830381548110611faa57fe5b9060005260206000209060020201600101819055506000915050611681565b6000828201818312801590611fde5750838112155b80611ff35750600083128015611ff357508381125b6107955760405162461bcd60e51b815260040161060590612981565b600060018251116120325760405162461bcd60e51b8152600401610605906128cf565b600060018351038360008151811061204657fe5b602002602001015160001c8161205857fe5b066001019050600083828151811061206c57fe5b6020026020010151604051602001612084919061264c565b604051602081830303815290604052805190602001209050836000815181106120a957fe5b602002602001015160001c60010160001b846000815181106120c757fe5b602002602001018181525050808483815181106120e057fe5b60209081029190910101529392505050565b6000813f7fc5d2460186f7233c927e7db2dcc703c0e500b653ca82273b7bfad8045d85a470818114801590611443575050151592915050565b606061167e84846000856060612140856120f2565b61215c5760405162461bcd60e51b815260040161060590612d38565b60006060866001600160a01b031685876040516121799190612663565b60006040518083038185875af1925050503d80600081146121b6576040519150601f19603f3d011682016040523d82523d6000602084013e6121bb565b606091505b509150915081156121cf5791506114439050565b8051156121df5780518082602001fd5b8360405162461bcd60e51b815260040161060591906127a2565b6040805161020081018252600080825260208201819052918101829052606081018290526080810182905260a0810182905260c0810182905260e08101829052610100810182905261012081018290526101408101829052610160810182905261018081018290526101a081018290526101c081018290526101e081019190915290565b60405180608001604052806004906020820280368337509192915050565b60405180604001604052806002906020820280368337509192915050565b60405180606001604052806003906020820280368337509192915050565b6040518060e001604052806007906020820280368337509192915050565b6040518061030001604052806018906020820280368337509192915050565b80356001600160a01b038116811461079857600080fd5b60006020828403121561233c578081fd5b6107958383612314565b60008060408385031215612358578081fd5b6123628484612314565b91506123718460208501612314565b90509250929050565b60008060006060848603121561238e578081fd5b833561239981612f1a565b925060208401356123a981612f1a565b929592945050506040919091013590565b600080600080608085870312156123cf578081fd5b6123d98686612314565b935060206123e987828801612314565b935060408601359250606086013567ffffffffffffffff8082111561240c578384fd5b81880189601f82011261241d578485fd5b803592508183111561242d578485fd5b604051601f8401601f191681018501838111828210171561244c578687fd5b60405283815281840185018b1015612462578586fd5b83858301868301379283019093019390935294979396509194505050565b60008060408385031215612492578182fd5b61249c8484612314565b9150602083013580151581146124b0578182fd5b809150509250929050565b600080604083850312156124cd578182fd5b6124d78484612314565b946020939093013593505050565b6000602082840312156124f6578081fd5b5035919050565b6000806040838503121561250f578182fd5b8235915060208301356124b081612f1a565b60008060408385031215612533578182fd5b50508035926020909101359150565b600060208284031215612553578081fd5b813561079581612f32565b60006020828403121561256f578081fd5b815161079581612f32565b6000806080838503121561258c578182fd5b823591508360808401111561259f578081fd5b50926020919091019150565b6000602082840312156125bc578081fd5b813560ff81168114610795578182fd5b8060005b60038110156110fe57815161ffff168452602093840193909101906001016125d0565b8060005b60028110156110fe57815160ff168452602093840193909101906001016125f7565b60008151808452612631816020860160208601612eee565b601f01601f19169290920160200192915050565b60ff169052565b90815260200190565b918252602082015260400190565b60008251612675818460208701612eee565b9190910192915050565b600080845460018082166000811461269e57600181146126b5576126e4565b60ff198316865260028304607f16860193506126e4565b600283048886526020808720875b838110156126dc5781548a8201529085019082016126c3565b505050860193505b50505083516126f7818360208801612eee565b01949350505050565b6c414e494d41544f525f524f4c4560981b8152600d0190565b6a4152544953545f524f4c4560a81b8152600b0190565b6941444d494e5f524f4c4560b01b8152600a0190565b6001600160a01b0391909116815260200190565b6001600160a01b038581168252841660208201526040810183905260806060820181905260009061278d90830184612619565b9695505050505050565b901515815260200190565b6000602082526107956020830184612619565b60208082526022908201527f456e756d657261626c655365743a20696e646578206f7574206f6620626f756e604082015261647360f01b606082015260800190565b6020808252602f908201527f416363657373436f6e74726f6c3a2073656e646572206d75737420626520616e60408201526e0818591b5a5b881d1bc819dc985b9d608a1b606082015260800190565b60208082526032908201527f4552433732313a207472616e7366657220746f206e6f6e20455243373231526560408201527131b2b4bb32b91034b6b83632b6b2b73a32b960711b606082015260800190565b6020808252601b908201527f536166654d6174683a206164646974696f6e206f766572666c6f770000000000604082015260600190565b60208082526019908201527f52616e646f6d2e6e6578743a20696e76616c696420706f6f6c00000000000000604082015260600190565b60208082526024908201527f4552433732313a207472616e7366657220746f20746865207a65726f206164646040820152637265737360e01b606082015260800190565b60208082526019908201527f4552433732313a20617070726f766520746f2063616c6c657200000000000000604082015260600190565b60208082526021908201527f5369676e6564536166654d6174683a206164646974696f6e206f766572666c6f6040820152607760f81b606082015260800190565b6020808252600b908201526a496e76616c696420426b6760a81b604082015260600190565b6020808252602c908201527f4552433732313a206f70657261746f7220717565727920666f72206e6f6e657860408201526b34b9ba32b73a103a37b5b2b760a11b606082015260800190565b60208082526030908201527f416363657373436f6e74726f6c3a2073656e646572206d75737420626520616e60408201526f2061646d696e20746f207265766f6b6560801b606082015260800190565b60208082526038908201527f4552433732313a20617070726f76652063616c6c6572206973206e6f74206f7760408201527f6e6572206e6f7220617070726f76656420666f7220616c6c0000000000000000606082015260800190565b6020808252602a908201527f4552433732313a2062616c616e636520717565727920666f7220746865207a65604082015269726f206164647265737360b01b606082015260800190565b602080825260129082015271496e7375662e205065726d697373696f6e7360701b604082015260600190565b60208082526022908201527f456e756d657261626c654d61703a20696e646578206f7574206f6620626f756e604082015261647360f01b606082015260800190565b6020808252602c908201527f4552433732313a20617070726f76656420717565727920666f72206e6f6e657860408201526b34b9ba32b73a103a37b5b2b760a11b606082015260800190565b60208082526029908201527f4552433732313a207472616e73666572206f6620746f6b656e2074686174206960408201526839903737ba1037bbb760b91b606082015260800190565b6020808252602f908201527f4552433732314d657461646174613a2055524920717565727920666f72206e6f60408201526e3732bc34b9ba32b73a103a37b5b2b760891b606082015260800190565b60208082526010908201526f24b73b30b634b210223ab930ba34b7b760811b604082015260600190565b60208082526021908201527f4552433732313a20617070726f76616c20746f2063757272656e74206f776e656040820152603960f91b606082015260800190565b60208082526031908201527f4552433732313a207472616e736665722063616c6c6572206973206e6f74206f6040820152701ddb995c881b9bdc88185c1c1c9bdd9959607a1b606082015260800190565b6020808252601d908201527f416464726573733a2063616c6c20746f206e6f6e2d636f6e7472616374000000604082015260600190565b6020808252818101527f52616e646f6d2e756e69666f726d3a20696e76616c696420696e74657276616c604082015260600190565b6020808252602f908201527f416363657373436f6e74726f6c3a2063616e206f6e6c792072656e6f756e636560408201526e103937b632b9903337b91039b2b63360891b606082015260800190565b6001600160801b0391909116815260200190565b61ffff91909116815260200190565b8a815260ff8a81166020808401919091528a82166040840152610200830191606084018b60005b6004811015612e5c578151841683529184019190840190600101612e3d565b5050505050612e6e60e08301896125f3565b612e7c610120830188612645565b612e8a6101408301876125cc565b612e986101a0830186612645565b612ea66101c0830185612645565b612eb46101e0830184612645565b9b9a5050505050505050505050565b60ff91909116815260200190565b60ff93841681529183166020830152909116604082015260600190565b60005b83811015612f09578181015183820152602001612ef1565b838111156110fe5750506000910152565b6001600160a01b0381168114612f2f57600080fd5b50565b6001600160e01b031981168114612f2f57600080fdfe4552433732313a207472616e7366657220746f206e6f6e20455243373231526563656976657220696d706c656d656e7465724552433732313a206f776e657220717565727920666f72206e6f6e6578697374656e7420746f6b656ea26469706673582212205aa48b8c9cddaaf816c7eb605b71f36e3f6c7ac2981654a194cf7bce6781616864736f6c63430006080033",
  "linkReferences": {},
  "deployedLinkReferences": {}
}