{
  "_format": "hh-sol-artifact-1",
  "contractName": "TinyBoxesBase",
  "sourceName": "contracts/TinyBoxesBase.sol",
  "abi": [
    {
      "inputs": [
        {
          "internalType": "address",
          "name": "entropySourceAddress",
          "type": "address"
        }
      ],
      "stateMutability": "nonpayable",
      "type": "constructor"
    },
    {
      "anonymous": false,
      "inputs": [
        {
          "indexed": true,
          "internalType": "address",
          "name": "owner",
          "type": "address"
        },
        {
          "indexed": true,
          "internalType": "address",
          "name": "approved",
          "type": "address"
        },
        {
          "indexed": true,
          "internalType": "uint256",
          "name": "tokenId",
          "type": "uint256"
        }
      ],
      "name": "Approval",
      "type": "event"
    },
    {
      "anonymous": false,
      "inputs": [
        {
          "indexed": true,
          "internalType": "address",
          "name": "owner",
          "type": "address"
        },
        {
          "indexed": true,
          "internalType": "address",
          "name": "operator",
          "type": "address"
        },
        {
          "indexed": false,
          "internalType": "bool",
          "name": "approved",
          "type": "bool"
        }
      ],
      "name": "ApprovalForAll",
      "type": "event"
    },
    {
      "anonymous": false,
      "inputs": [
        {
          "indexed": true,
          "internalType": "bytes32",
          "name": "role",
          "type": "bytes32"
        },
        {
          "indexed": true,
          "internalType": "bytes32",
          "name": "previousAdminRole",
          "type": "bytes32"
        },
        {
          "indexed": true,
          "internalType": "bytes32",
          "name": "newAdminRole",
          "type": "bytes32"
        }
      ],
      "name": "RoleAdminChanged",
      "type": "event"
    },
    {
      "anonymous": false,
      "inputs": [
        {
          "indexed": true,
          "internalType": "bytes32",
          "name": "role",
          "type": "bytes32"
        },
        {
          "indexed": true,
          "internalType": "address",
          "name": "account",
          "type": "address"
        },
        {
          "indexed": true,
          "internalType": "address",
          "name": "sender",
          "type": "address"
        }
      ],
      "name": "RoleGranted",
      "type": "event"
    },
    {
      "anonymous": false,
      "inputs": [
        {
          "indexed": true,
          "internalType": "bytes32",
          "name": "role",
          "type": "bytes32"
        },
        {
          "indexed": true,
          "internalType": "address",
          "name": "account",
          "type": "address"
        },
        {
          "indexed": true,
          "internalType": "address",
          "name": "sender",
          "type": "address"
        }
      ],
      "name": "RoleRevoked",
      "type": "event"
    },
    {
      "anonymous": false,
      "inputs": [
        {
          "indexed": true,
          "internalType": "address",
          "name": "from",
          "type": "address"
        },
        {
          "indexed": true,
          "internalType": "address",
          "name": "to",
          "type": "address"
        },
        {
          "indexed": true,
          "internalType": "uint256",
          "name": "tokenId",
          "type": "uint256"
        }
      ],
      "name": "Transfer",
      "type": "event"
    },
    {
      "inputs": [],
      "name": "ADMIN_ROLE",
      "outputs": [
        {
          "internalType": "bytes32",
          "name": "",
          "type": "bytes32"
        }
      ],
      "stateMutability": "view",
      "type": "function"
    },
    {
      "inputs": [],
      "name": "ANIMATION_COUNT",
      "outputs": [
        {
          "internalType": "uint8",
          "name": "",
          "type": "uint8"
        }
      ],
      "stateMutability": "view",
      "type": "function"
    },
    {
      "inputs": [],
      "name": "DEFAULT_ADMIN_ROLE",
      "outputs": [
        {
          "internalType": "bytes32",
          "name": "",
          "type": "bytes32"
        }
      ],
      "stateMutability": "view",
      "type": "function"
    },
    {
      "inputs": [],
      "name": "SCHEME_COUNT",
      "outputs": [
        {
          "internalType": "uint8",
          "name": "",
          "type": "uint8"
        }
      ],
      "stateMutability": "view",
      "type": "function"
    },
    {
      "inputs": [],
      "name": "TOKEN_LIMIT",
      "outputs": [
        {
          "internalType": "uint16",
          "name": "",
          "type": "uint16"
        }
      ],
      "stateMutability": "view",
      "type": "function"
    },
    {
      "inputs": [],
      "name": "_tokenIds",
      "outputs": [
        {
          "internalType": "uint256",
          "name": "_value",
          "type": "uint256"
        }
      ],
      "stateMutability": "view",
      "type": "function"
    },
    {
      "inputs": [],
      "name": "_tokenPromoIds",
      "outputs": [
        {
          "internalType": "uint256",
          "name": "_value",
          "type": "uint256"
        }
      ],
      "stateMutability": "view",
      "type": "function"
    },
    {
      "inputs": [
        {
          "internalType": "address",
          "name": "to",
          "type": "address"
        },
        {
          "internalType": "uint256",
          "name": "tokenId",
          "type": "uint256"
        }
      ],
      "name": "approve",
      "outputs": [],
      "stateMutability": "nonpayable",
      "type": "function"
    },
    {
      "inputs": [],
      "name": "avgBlockTime",
      "outputs": [
        {
          "internalType": "uint8",
          "name": "",
          "type": "uint8"
        }
      ],
      "stateMutability": "view",
      "type": "function"
    },
    {
      "inputs": [
        {
          "internalType": "address",
          "name": "owner",
          "type": "address"
        }
      ],
      "name": "balanceOf",
      "outputs": [
        {
          "internalType": "uint256",
          "name": "",
          "type": "uint256"
        }
      ],
      "stateMutability": "view",
      "type": "function"
    },
    {
      "inputs": [],
      "name": "baseURI",
      "outputs": [
        {
          "internalType": "string",
          "name": "",
          "type": "string"
        }
      ],
      "stateMutability": "view",
      "type": "function"
    },
    {
      "inputs": [],
      "name": "blockStart",
      "outputs": [
        {
          "internalType": "uint256",
          "name": "",
          "type": "uint256"
        }
      ],
      "stateMutability": "view",
      "type": "function"
    },
    {
      "inputs": [
        {
          "internalType": "uint256",
          "name": "id",
          "type": "uint256"
        },
        {
          "internalType": "uint8[3]",
          "name": "settings",
          "type": "uint8[3]"
        }
      ],
      "name": "changeSettings",
      "outputs": [],
      "stateMutability": "nonpayable",
      "type": "function"
    },
    {
      "inputs": [],
      "name": "contractURI",
      "outputs": [
        {
          "internalType": "string",
          "name": "",
          "type": "string"
        }
      ],
      "stateMutability": "view",
      "type": "function"
    },
    {
      "inputs": [],
      "name": "currentPhase",
      "outputs": [
        {
          "internalType": "uint8",
          "name": "",
          "type": "uint8"
        }
      ],
      "stateMutability": "view",
      "type": "function"
    },
    {
      "inputs": [
        {
          "internalType": "uint256",
          "name": "tokenId",
          "type": "uint256"
        }
      ],
      "name": "getApproved",
      "outputs": [
        {
          "internalType": "address",
          "name": "",
          "type": "address"
        }
      ],
      "stateMutability": "view",
      "type": "function"
    },
    {
      "inputs": [
        {
          "internalType": "bytes32",
          "name": "role",
          "type": "bytes32"
        }
      ],
      "name": "getRoleAdmin",
      "outputs": [
        {
          "internalType": "bytes32",
          "name": "",
          "type": "bytes32"
        }
      ],
      "stateMutability": "view",
      "type": "function"
    },
    {
      "inputs": [
        {
          "internalType": "bytes32",
          "name": "role",
          "type": "bytes32"
        },
        {
          "internalType": "uint256",
          "name": "index",
          "type": "uint256"
        }
      ],
      "name": "getRoleMember",
      "outputs": [
        {
          "internalType": "address",
          "name": "",
          "type": "address"
        }
      ],
      "stateMutability": "view",
      "type": "function"
    },
    {
      "inputs": [
        {
          "internalType": "bytes32",
          "name": "role",
          "type": "bytes32"
        }
      ],
      "name": "getRoleMemberCount",
      "outputs": [
        {
          "internalType": "uint256",
          "name": "",
          "type": "uint256"
        }
      ],
      "stateMutability": "view",
      "type": "function"
    },
    {
      "inputs": [
        {
          "internalType": "bytes32",
          "name": "role",
          "type": "bytes32"
        },
        {
          "internalType": "address",
          "name": "account",
          "type": "address"
        }
      ],
      "name": "grantRole",
      "outputs": [],
      "stateMutability": "nonpayable",
      "type": "function"
    },
    {
      "inputs": [
        {
          "internalType": "bytes32",
          "name": "role",
          "type": "bytes32"
        },
        {
          "internalType": "address",
          "name": "account",
          "type": "address"
        }
      ],
      "name": "hasRole",
      "outputs": [
        {
          "internalType": "bool",
          "name": "",
          "type": "bool"
        }
      ],
      "stateMutability": "view",
      "type": "function"
    },
    {
      "inputs": [
        {
          "internalType": "address",
          "name": "owner",
          "type": "address"
        },
        {
          "internalType": "address",
          "name": "operator",
          "type": "address"
        }
      ],
      "name": "isApprovedForAll",
      "outputs": [
        {
          "internalType": "bool",
          "name": "",
          "type": "bool"
        }
      ],
      "stateMutability": "view",
      "type": "function"
    },
    {
      "inputs": [],
      "name": "name",
      "outputs": [
        {
          "internalType": "string",
          "name": "",
          "type": "string"
        }
      ],
      "stateMutability": "view",
      "type": "function"
    },
    {
      "inputs": [
        {
          "internalType": "uint256",
          "name": "tokenId",
          "type": "uint256"
        }
      ],
      "name": "ownerOf",
      "outputs": [
        {
          "internalType": "address",
          "name": "",
          "type": "address"
        }
      ],
      "stateMutability": "view",
      "type": "function"
    },
    {
      "inputs": [],
      "name": "paused",
      "outputs": [
        {
          "internalType": "bool",
          "name": "",
          "type": "bool"
        }
      ],
      "stateMutability": "view",
      "type": "function"
    },
    {
      "inputs": [],
      "name": "phaseCountdown",
      "outputs": [
        {
          "internalType": "uint256",
          "name": "",
          "type": "uint256"
        }
      ],
      "stateMutability": "view",
      "type": "function"
    },
    {
      "inputs": [],
      "name": "phaseCountdownTime",
      "outputs": [
        {
          "internalType": "uint32",
          "name": "",
          "type": "uint32"
        }
      ],
      "stateMutability": "view",
      "type": "function"
    },
    {
      "inputs": [],
      "name": "phaseLen",
      "outputs": [
        {
          "internalType": "uint16",
          "name": "",
          "type": "uint16"
        }
      ],
      "stateMutability": "view",
      "type": "function"
    },
    {
      "inputs": [
        {
          "internalType": "uint256",
          "name": "id",
          "type": "uint256"
        }
      ],
      "name": "readSettings",
      "outputs": [
        {
          "internalType": "uint8",
          "name": "bkg",
          "type": "uint8"
        },
        {
          "internalType": "uint8",
          "name": "duration",
          "type": "uint8"
        },
        {
          "internalType": "uint8",
          "name": "options",
          "type": "uint8"
        }
      ],
      "stateMutability": "view",
      "type": "function"
    },
    {
      "inputs": [
        {
          "internalType": "bytes32",
          "name": "role",
          "type": "bytes32"
        },
        {
          "internalType": "address",
          "name": "account",
          "type": "address"
        }
      ],
      "name": "renounceRole",
      "outputs": [],
      "stateMutability": "nonpayable",
      "type": "function"
    },
    {
      "inputs": [
        {
          "internalType": "bytes32",
          "name": "role",
          "type": "bytes32"
        },
        {
          "internalType": "address",
          "name": "account",
          "type": "address"
        }
      ],
      "name": "revokeRole",
      "outputs": [],
      "stateMutability": "nonpayable",
      "type": "function"
    },
    {
      "inputs": [
        {
          "internalType": "address",
          "name": "from",
          "type": "address"
        },
        {
          "internalType": "address",
          "name": "to",
          "type": "address"
        },
        {
          "internalType": "uint256",
          "name": "tokenId",
          "type": "uint256"
        }
      ],
      "name": "safeTransferFrom",
      "outputs": [],
      "stateMutability": "nonpayable",
      "type": "function"
    },
    {
      "inputs": [
        {
          "internalType": "address",
          "name": "from",
          "type": "address"
        },
        {
          "internalType": "address",
          "name": "to",
          "type": "address"
        },
        {
          "internalType": "uint256",
          "name": "tokenId",
          "type": "uint256"
        },
        {
          "internalType": "bytes",
          "name": "_data",
          "type": "bytes"
        }
      ],
      "name": "safeTransferFrom",
      "outputs": [],
      "stateMutability": "nonpayable",
      "type": "function"
    },
    {
      "inputs": [
        {
          "internalType": "address",
          "name": "operator",
          "type": "address"
        },
        {
          "internalType": "bool",
          "name": "approved",
          "type": "bool"
        }
      ],
      "name": "setApprovalForAll",
      "outputs": [],
      "stateMutability": "nonpayable",
      "type": "function"
    },
    {
      "inputs": [
        {
          "internalType": "string",
          "name": "_uri",
          "type": "string"
        }
      ],
      "name": "setBaseURI",
      "outputs": [],
      "stateMutability": "nonpayable",
      "type": "function"
    },
    {
      "inputs": [
        {
          "internalType": "string",
          "name": "_uri",
          "type": "string"
        }
      ],
      "name": "setContractURI",
      "outputs": [],
      "stateMutability": "nonpayable",
      "type": "function"
    },
    {
      "inputs": [
        {
          "internalType": "bool",
          "name": "state",
          "type": "bool"
        }
      ],
      "name": "setPause",
      "outputs": [],
      "stateMutability": "nonpayable",
      "type": "function"
    },
    {
      "inputs": [
        {
          "internalType": "address",
          "name": "rand",
          "type": "address"
        }
      ],
      "name": "setRandom",
      "outputs": [],
      "stateMutability": "nonpayable",
      "type": "function"
    },
    {
      "inputs": [
        {
          "internalType": "uint256",
          "name": "_id",
          "type": "uint256"
        },
        {
          "internalType": "string",
          "name": "_uri",
          "type": "string"
        }
      ],
      "name": "setTokenURI",
      "outputs": [],
      "stateMutability": "nonpayable",
      "type": "function"
    },
    {
      "inputs": [
        {
          "internalType": "uint256",
          "name": "startBlock",
          "type": "uint256"
        }
      ],
      "name": "startCountdown",
      "outputs": [],
      "stateMutability": "nonpayable",
      "type": "function"
    },
    {
      "inputs": [
        {
          "internalType": "bytes4",
          "name": "interfaceId",
          "type": "bytes4"
        }
      ],
      "name": "supportsInterface",
      "outputs": [
        {
          "internalType": "bool",
          "name": "",
          "type": "bool"
        }
      ],
      "stateMutability": "view",
      "type": "function"
    },
    {
      "inputs": [],
      "name": "symbol",
      "outputs": [
        {
          "internalType": "string",
          "name": "",
          "type": "string"
        }
      ],
      "stateMutability": "view",
      "type": "function"
    },
    {
      "inputs": [],
      "name": "testRandom",
      "outputs": [
        {
          "internalType": "bytes32",
          "name": "",
          "type": "bytes32"
        }
      ],
      "stateMutability": "view",
      "type": "function"
    },
    {
      "inputs": [
        {
          "internalType": "uint256",
          "name": "index",
          "type": "uint256"
        }
      ],
      "name": "tokenByIndex",
      "outputs": [
        {
          "internalType": "uint256",
          "name": "",
          "type": "uint256"
        }
      ],
      "stateMutability": "view",
      "type": "function"
    },
    {
      "inputs": [
        {
          "internalType": "uint256",
          "name": "_id",
          "type": "uint256"
        }
      ],
      "name": "tokenData",
      "outputs": [
        {
          "internalType": "uint128",
          "name": "randomness",
          "type": "uint128"
        },
        {
          "internalType": "uint256",
          "name": "animation",
          "type": "uint256"
        },
        {
          "internalType": "uint8",
          "name": "shapes",
          "type": "uint8"
        },
        {
          "internalType": "uint8",
          "name": "hatching",
          "type": "uint8"
        },
        {
          "internalType": "uint8[4]",
          "name": "size",
          "type": "uint8[4]"
        },
        {
          "internalType": "uint8[2]",
          "name": "spacing",
          "type": "uint8[2]"
        },
        {
          "internalType": "uint8",
          "name": "mirroring",
          "type": "uint8"
        },
        {
          "internalType": "uint16[3]",
          "name": "color",
          "type": "uint16[3]"
        },
        {
          "internalType": "uint8",
          "name": "contrast",
          "type": "uint8"
        },
        {
          "internalType": "uint8",
          "name": "shades",
          "type": "uint8"
        },
        {
          "internalType": "uint8",
          "name": "scheme",
          "type": "uint8"
        }
      ],
      "stateMutability": "view",
      "type": "function"
    },
    {
      "inputs": [
        {
          "internalType": "address",
          "name": "owner",
          "type": "address"
        },
        {
          "internalType": "uint256",
          "name": "index",
          "type": "uint256"
        }
      ],
      "name": "tokenOfOwnerByIndex",
      "outputs": [
        {
          "internalType": "uint256",
          "name": "",
          "type": "uint256"
        }
      ],
      "stateMutability": "view",
      "type": "function"
    },
    {
      "inputs": [
        {
          "internalType": "uint256",
          "name": "tokenId",
          "type": "uint256"
        }
      ],
      "name": "tokenURI",
      "outputs": [
        {
          "internalType": "string",
          "name": "",
          "type": "string"
        }
      ],
      "stateMutability": "view",
      "type": "function"
    },
    {
      "inputs": [],
      "name": "totalSupply",
      "outputs": [
        {
          "internalType": "uint256",
          "name": "",
          "type": "uint256"
        }
      ],
      "stateMutability": "view",
      "type": "function"
    },
    {
      "inputs": [
        {
          "internalType": "address",
          "name": "from",
          "type": "address"
        },
        {
          "internalType": "address",
          "name": "to",
          "type": "address"
        },
        {
          "internalType": "uint256",
          "name": "tokenId",
          "type": "uint256"
        }
      ],
      "name": "transferFrom",
      "outputs": [],
      "stateMutability": "nonpayable",
      "type": "function"
    },
    {
      "inputs": [
        {
          "internalType": "uint256",
          "name": "id",
          "type": "uint256"
        }
      ],
      "name": "trueID",
      "outputs": [
        {
          "internalType": "int8",
          "name": "",
          "type": "int8"
        }
      ],
      "stateMutability": "pure",
      "type": "function"
    },
    {
      "inputs": [
        {
          "internalType": "uint8",
          "name": "shapes",
          "type": "uint8"
        },
        {
          "internalType": "uint8",
          "name": "hatching",
          "type": "uint8"
        },
        {
          "internalType": "uint16[3]",
          "name": "color",
          "type": "uint16[3]"
        },
        {
          "internalType": "uint8[4]",
          "name": "size",
          "type": "uint8[4]"
        },
        {
          "internalType": "uint8[2]",
          "name": "position",
          "type": "uint8[2]"
        },
        {
          "internalType": "bool",
          "name": "exclusive",
          "type": "bool"
        }
      ],
      "name": "validateParams",
      "outputs": [],
      "stateMutability": "pure",
      "type": "function"
    }
  ],
  "bytecode": "0x6080604052600d8054600160a01b60ff60a01b19909116179055620000336078600f620001c0602090811b6200176117901c565b600f556040518060600160405280602b815260200162004047602b913980516200006691601091602090910190620003db565b503480156200007457600080fd5b50604051620040723803806200407283398101604081905262000097916200047d565b604080518082018252600981526854696e79426f78657360b81b602080830191909152825180840190935260068352655b235d5b235d60d01b9083015290620000f06301ffc9a760e01b6001600160e01b036200021316565b815162000105906006906020850190620003db565b5080516200011b906007906020840190620003db565b50620001376380ac58cd60e01b6001600160e01b036200021316565b62000152635b5e139f60e01b6001600160e01b036200021316565b6200016d63780e9d6360e01b6001600160e01b036200021316565b50506200019a6040516200018190620004ad565b604051908190039020336001600160e01b036200026e16565b600d80546001600160a01b0319166001600160a01b039290921691909117905562000550565b60006200020a83836040518060400160405280601a81526020017f536166654d6174683a206469766973696f6e206279207a65726f0000000000008152506200028760201b60201c565b90505b92915050565b6001600160e01b03198082161415620002495760405162461bcd60e51b8152600401620002409062000519565b60405180910390fd5b6001600160e01b0319166000908152602081905260409020805460ff19166001179055565b6200028382826001600160e01b03620002c216565b5050565b60008183620002ab5760405162461bcd60e51b8152600401620002409190620004c3565b506000838581620002b857fe5b0495945050505050565b6000828152600a60209081526040909120620002e9918390620017a362000346821b17901c565b156200028357620003026001600160e01b036200036616565b6001600160a01b0316816001600160a01b0316837f2f8788117e7eff1d82e926ec794901d17c78024a50270940304540a733656f0d60405160405180910390a45050565b60006200020a836001600160a01b0384166001600160e01b036200036b16565b335b90565b60006200038283836001600160e01b03620003c316565b620003ba575081546001818101845560008481526020808220909301849055845484825282860190935260409020919091556200020d565b5060006200020d565b60009081526001919091016020526040902054151590565b828054600181600116156101000203166002900490600052602060002090601f016020900481019282601f106200041e57805160ff19168380011785556200044e565b828001600101855582156200044e579182015b828111156200044e57825182559160200191906001019062000431565b506200045c92915062000460565b5090565b6200036891905b808211156200045c576000815560010162000467565b6000602082840312156200048f578081fd5b81516001600160a01b0381168114620004a6578182fd5b9392505050565b6941444d494e5f524f4c4560b01b8152600a0190565b6000602080835283518082850152825b81811015620004f157858101830151858201604001528201620004d3565b81811115620005035783604083870101525b50601f01601f1916929092016040019392505050565b6020808252601c908201527f4552433136353a20696e76616c696420696e7465726661636520696400000000604082015260600190565b613ae780620005606000396000f3fe608060405234801561001057600080fd5b50600436106102f15760003560e01c80637b2feaaa1161019d578063b88d4fde116100e9578063dbde5222116100a2578063f19e14861161007c578063f19e148614610644578063fbddd14b1461064c578063fc4ea93914610654578063fd05dd6a1461065c576102f1565b8063dbde522214610616578063e8a3d48514610629578063e985e9c514610631576102f1565b8063b88d4fde146105a4578063bedb86fb146105b7578063c87b56dd146105ca578063ca15c873146105dd578063ca9c0bad146105f0578063d547741f14610603576102f1565b806395d89b4111610156578063a22cb46511610130578063a22cb46514610557578063aa46a4001461056a578063b3174fa114610572578063b4b5b48f1461057a576102f1565b806395d89b411461053f57806397baac1e14610547578063a217fddf1461054f576102f1565b80637b2feaaa146104c957806387bd15ef146104d15780639010d07c146104e457806391d14854146104f7578063938e3d7b1461050a578063947e93d91461051d576102f1565b80632f745c591161025c57806355f804b3116102155780636c0360eb116101ef5780636c0360eb1461049e57806370a08231146104a657806371a0a016146104b957806375b238fc146104c1576102f1565b806355f804b3146104705780635c975abb146104835780636352211e1461048b576102f1565b80632f745c59146103fc57806336568abe1461040f5780633c564cab1461042257806342842e0e146104355780634f6ccce714610448578063524101971461045b576102f1565b80630e1b9b0e116102ae5780630e1b9b0e14610393578063162094c41461039b57806318160ddd146103ae57806323b872dd146103c3578063248a9ca3146103d65780632f2ff15d146103e9576102f1565b806301ffc9a7146102f6578063031bd4c41461031f578063055ad42e1461033457806306fdde0314610349578063081812fc1461035e578063095ea7b31461037e575b600080fd5b610309610304366004612cab565b61067c565b6040516103169190613025565b60405180910390f35b61032761069f565b6040516103169190613970565b61033c6106a4565b6040516103169190613990565b6103516106c7565b604051610316919061303e565b61037161036c366004612c2b565b61075d565b6040516103169190612fd4565b61039161038c366004612be1565b6107a9565b005b61033c610841565b6103916103a9366004612d54565b610846565b6103b66108a2565b6040516103169190612f0a565b6103916103d1366004612ac0565b6108ae565b6103b66103e4366004612c2b565b6108e6565b6103916103f7366004612c5b565b6108fb565b6103b661040a366004612be1565b610943565b61039161041d366004612c5b565b610974565b610391610430366004612d23565b6109b6565b610391610443366004612ac0565b610b36565b6103b6610456366004612c2b565b610b51565b610463610b6d565b604051610316919061397f565b61039161047e366004612ce3565b610b72565b610309610bc0565b610371610499366004612c2b565b610bd0565b610351610bfe565b6103b66104b4366004612a71565b610c5f565b61033c610ca8565b6103b6610cad565b6103b6610cc4565b6103916104df366004612c2b565b610cca565b6103716104f2366004612c8a565b610d0a565b610309610505366004612c5b565b610d28565b610391610518366004612ce3565b610d46565b61053061052b366004612c2b565b610d61565b6040516103169392919061399e565b610351610e8d565b6103b6610eee565b6103b6610ef4565b610391610565366004612bb6565b610ef9565b6103b6610fc7565b610327610fcd565b61058d610588366004612c2b565b610fd2565b6040516103169b9a999897969594939291906138b3565b6103916105b2366004612b00565b611233565b6103916105c5366004612c0b565b611272565b6103516105d8366004612c2b565b61129f565b6103b66105eb366004612c2b565b6113e9565b6103916105fe366004612a71565b611400565b610391610611366004612c5b565b611431565b610391610624366004612db9565b61146b565b610351611603565b61030961063f366004612a8c565b611691565b61033c6116bf565b6103b66116c4565b6103b661175b565b61066f61066a366004612c2b565b6106c4565b6040516103169190613030565b6001600160e01b0319811660009081526020819052604090205460ff165b919050565b606e81565b60006106c1600a6106b5600b6117b8565b9063ffffffff61176116565b90505b90565b60068054604080516020601f60026000196101006001881615020190951694909404938401819004810282018101909252828152606093909290918301828280156107535780601f1061072857610100808354040283529160200191610753565b820191906000526020600020905b81548152906001019060200180831161073657829003601f168201915b5050505050905090565b6000610768826117bc565b61078d5760405162461bcd60e51b815260040161078490613485565b60405180910390fd5b506000908152600460205260409020546001600160a01b031690565b60006107b482610bd0565b9050806001600160a01b0316836001600160a01b031614156107e85760405162461bcd60e51b815260040161078490613638565b806001600160a01b03166107fa6117cf565b6001600160a01b0316148061081657506108168161063f6117cf565b6108325760405162461bcd60e51b815260040161078490613370565b61083c83836117d3565b505050565b601881565b61086260405161085590612fbe565b6040518091039020611841565b61083c8383838080601f01602080910402602001604051908101604052809392919081815260200183838082843760009201919091525061186a92505050565b60006106c160026118ae565b6108bf6108b96117cf565b826118b9565b6108db5760405162461bcd60e51b815260040161078490613679565b61083c83838361193e565b6000908152600a602052604090206002015490565b6000828152600a6020526040902060020154610919906105056117cf565b6109355760405162461bcd60e51b815260040161078490613093565b61093f8282611a5e565b5050565b6001600160a01b038216600090815260016020526040812061096b908363ffffffff611acd16565b90505b92915050565b61097c6117cf565b6001600160a01b0316816001600160a01b0316146109ac5760405162461bcd60e51b81526004016107849061380c565b61093f8282611ad9565b6109bf82610bd0565b6001600160a01b0316336001600160a01b031614806109f757506109e28261075d565b6001600160a01b0316336001600160a01b0316145b610a135760405162461bcd60e51b815260040161078490613417565b6065610a226020830183612d9e565b60ff161115610a435760405162461bcd60e51b8152600401610784906132af565b6000610a556040830160208401612d9e565b60ff1611610a755760405162461bcd60e51b8152600401610784906135e2565b610a826020820182612d9e565b6000838152601160205260409020805460ff92909216600160e81b0260ff60e81b19909216919091179055806001602002016020810190610ac39190612d9e565b6000838152601160205260409020805460ff92909216600160f01b0260ff60f01b19909216919091179055806002602002016020810190610b049190612d9e565b600092835260116020526040909220805460ff93909316600160f81b026001600160f81b039093169290921790915550565b61083c83838360405180602001604052806000815250611233565b600080610b6560028463ffffffff611b4816565b509392505050565b607881565b610b8160405161085590612fbe565b61093f82828080601f016020809104026020016040519081016040528093929190818152602001838380828437600092019190915250611b6692505050565b600d54600160a01b900460ff1681565b600061096e82604051806060016040528060298152602001613a89602991396002919063ffffffff611b7916565b60098054604080516020601f60026000196101006001881615020190951694909404938401819004810282018101909252828152606093909290918301828280156107535780601f1061072857610100808354040283529160200191610753565b60006001600160a01b038216610c875760405162461bcd60e51b8152600401610784906133cd565b6001600160a01b038216600090815260016020526040902061096e906118ae565b600b81565b604051610cb990612fbe565b604051809103902081565b600e5481565b610cd960405161085590612fbe565b438111610cf85760405162461bcd60e51b815260040161078490613729565b600e55600d805460ff60a01b19169055565b6000828152600a6020526040812061096b908363ffffffff611acd16565b6000828152600a6020526040812061096b908363ffffffff611b9016565b610d5560405161085590612fbe565b61083c601083836126fa565b6000806000610d6e612778565b5050506000918252506011602090815260409182902082516102008101845290546001600160801b038116825261ffff600160801b8204169282019290925260ff600160901b8304811693820193909352600160981b820483166060820152600160a01b820483166080820152600160a81b8204831660a0820152600160b01b8204831660c0820152600160b81b8204831660e0820152600160c01b82048316610100820152600160c81b82048316610120820152600160d01b82048316610140820152600160d81b82048316610160820152600160e01b82048316610180820152600160e81b820483166101a08201819052600160f01b830484166101c08301819052600160f81b9093049093166101e09091018190529192909190565b60078054604080516020601f60026000196101006001881615020190951694909404938401819004810282018101909252828152606093909290918301828280156107535780601f1061072857610100808354040283529160200191610753565b600c5481565b600081565b610f016117cf565b6001600160a01b0316826001600160a01b03161415610f325760405162461bcd60e51b815260040161078490613237565b8060056000610f3f6117cf565b6001600160a01b03908116825260208083019390935260409182016000908120918716808252919093529120805460ff191692151592909217909155610f836117cf565b6001600160a01b03167f17307eab39ab6107e8899845ad3d59bd9653f200f220920489ca2b5937696c3183604051610fbb9190613025565b60405180910390a35050565b600b5481565b600a81565b600080600080610fe06127fc565b610fe861281a565b6000610ff2612838565b6000806000610fff612778565b5060008c81526011602090815260409182902082516102008101845290546001600160801b038116825261ffff600160801b8204169282019290925260ff600160901b8304811693820193909352600160981b820483166060820152600160a01b820483166080820152600160a81b8204831660a0820152600160b01b8204831660c0820152600160b81b8204831660e0820152600160c01b82048316610100820152600160c81b82048316610120820152600160d01b82048316610140820152600160d81b82048316610160820152600160e01b82048316610180820152600160e81b820483166101a0820152600160f01b820483166101c0820152600160f81b9091049091166101e08201526111156127fc565b61111f828f611ba5565b9050806000602002015160ff169b5080600160200201519250806002602002015193508060036020020151945081600001519c50816101800151965081608001519a508160a0015199506040518060600160405280836020015161ffff1661ffff168152602001836040015160ff1661ffff168152602001836060015160ff1661ffff16815250955060405180608001604052808360c0015160ff1660ff1681526020018360e0015160ff1660ff16815260200183610100015160ff1660ff16815260200183610120015160ff1660ff168152509850604051806040016040528083610140015160ff1660ff16815260200183610160015160ff1660ff168152509750505091939597999b90929496989a50565b61124461123e6117cf565b836118b9565b6112605760405162461bcd60e51b815260040161078490613679565b61126c84848484611db2565b50505050565b61128160405161085590612fbe565b600d8054911515600160a01b0260ff60a01b19909216919091179055565b60606112aa826117bc565b6112c65760405162461bcd60e51b815260040161078490613593565b60008281526008602090815260409182902080548351601f600260001961010060018616150201909316929092049182018490048402810184019094528084526060939283018282801561135b5780601f106113305761010080835404028352916020019161135b565b820191906000526020600020905b81548152906001019060200180831161133e57829003601f168201915b50506009549394505050506002600019610100600184161502019091160461138457905061069a565b8051156113b65760098160405160200161139f929190612f3d565b60405160208183030381529060405291505061069a565b60096113c184611de5565b6040516020016113d2929190612f3d565b604051602081830303815290604052915050919050565b6000818152600a6020526040812061096e906118ae565b61140f60405161085590612fbe565b600d80546001600160a01b0319166001600160a01b0392909216919091179055565b6000828152600a602052604090206002015461144f906105056117cf565b6109ac5760405162461bcd60e51b815260040161078490613320565b60008660ff161180156114815750601f8660ff16105b61149d5760405162461bcd60e51b81526004016107849061351d565b8560ff168560ff1611156114c35760405162461bcd60e51b8152600401610784906131c9565b610168846002602002015161ffff1611156114f05760405162461bcd60e51b8152600401610784906130e2565b6064846001602002015161ffff16111561151c5760405162461bcd60e51b81526004016107849061360c565b8061154d576014846001602002015161ffff16101561154d5760405162461bcd60e51b81526004016107849061360c565b6064846002602002015161ffff1611156115795760405162461bcd60e51b81526004016107849061385b565b6020830151835160ff918216911611156115a55760405162461bcd60e51b815260040161078490613886565b6060830151604084015160ff918216911611156115d45760405162461bcd60e51b815260040161078490613757565b8151606460ff90911611156115fb5760405162461bcd60e51b815260040161078490613701565b505050505050565b6010805460408051602060026001851615610100026000190190941693909304601f810184900484028201840190925281815292918301828280156116895780601f1061165e57610100808354040283529160200191611689565b820191906000526020600020905b81548152906001019060200180831161166c57829003601f168201915b505050505081565b6001600160a01b03918216600090815260056020908152604080832093909416825291909152205460ff1690565b600f81565b60006116d560405161085590612fbe565b600d60009054906101000a90046001600160a01b03166001600160a01b031663990c8f796040518163ffffffff1660e01b815260040160206040518083038186803b15801561172357600080fd5b505afa158015611737573d6000803e3d6000fd5b505050506040513d601f19601f820116820180604052508101906106c19190612c43565b600f5481565b600061096b83836040518060400160405280601a81526020017f536166654d6174683a206469766973696f6e206279207a65726f000000000000815250611ec0565b600061096b836001600160a01b038416611ef7565b5490565b600061096e60028363ffffffff611f4116565b3390565b600081815260046020526040902080546001600160a01b0319166001600160a01b038416908117909155819061180882610bd0565b6001600160a01b03167f8c5be1e5ebec7d5bd14f71427d1e84f3dd0314c0f7b2291e5b200ac8c7c3b92560405160405180910390a45050565b61184b8133610d28565b6118675760405162461bcd60e51b815260040161078490613785565b50565b611873826117bc565b61188f5760405162461bcd60e51b8152600401610784906134d1565b6000828152600860209081526040909120825161083c92840190612856565b600061096e826117b8565b60006118c4826117bc565b6118e05760405162461bcd60e51b8152600401610784906132d4565b60006118eb83610bd0565b9050806001600160a01b0316846001600160a01b031614806119265750836001600160a01b031661191b8461075d565b6001600160a01b0316145b8061193657506119368185611691565b949350505050565b826001600160a01b031661195182610bd0565b6001600160a01b0316146119775760405162461bcd60e51b81526004016107849061354a565b6001600160a01b03821661199d5760405162461bcd60e51b8152600401610784906131f3565b6119a883838361083c565b6119b36000826117d3565b6001600160a01b03831660009081526001602052604090206119db908263ffffffff611f4d16565b506001600160a01b0382166000908152600160205260409020611a04908263ffffffff611f5916565b50611a176002828463ffffffff611f6516565b5080826001600160a01b0316846001600160a01b03167fddf252ad1be2c89b69c2b068fc378daa952ba7f163c4a11628f55a4df523b3ef60405160405180910390a4505050565b6000828152600a60205260409020611a7c908263ffffffff6117a316565b1561093f57611a896117cf565b6001600160a01b0316816001600160a01b0316837f2f8788117e7eff1d82e926ec794901d17c78024a50270940304540a733656f0d60405160405180910390a45050565b600061096b8383611f7b565b6000828152600a60205260409020611af7908263ffffffff611fc016565b1561093f57611b046117cf565b6001600160a01b0316816001600160a01b0316837ff6391f5c32d9c69d2a47ea670b442974b53935d1edc7fd64eb21e047a839171b60405160405180910390a45050565b6000808080611b578686611fd5565b909450925050505b9250929050565b805161093f906009906020840190612856565b6000611b86848484612031565b90505b9392505050565b600061096b836001600160a01b038416612090565b611bad6127fc565b606e821015611d5b576060611bce84600001516001600160801b03166120a8565b9050611bd86128c4565b506040805160e0810182526001808252600260208301819052600593830184905260096060840152608083019390935260a082019290925260c0810191909152611c206128e2565b506040805161030081018252600180825260208201819052918101829052606081018290526080810182905260a0810182905260c0810182905260e08101829052610100810182905261012081018290526101408101829052610160810182905261018081018290526101a081018290526101c081018290526101e08101829052610200810182905261022081018290526102408101829052610260810182905261028081018290526102a081018290526102c081018290526102e0810191909152611cf48382601863ffffffff61215f16565b60ff168452611d0485600a611761565b60ff166020850152611d2c6001611d1d858560196121cf565b60ff169063ffffffff61222016565b60ff90811660408601526060870151611d4a91859160009116612245565b60ff1660608501525061096e915050565b825160ff6001607b1b6001600160801b03928316041682528351600160771b90821604600f1660208301528351600160741b90821604600716604083015292516001606d1b931692909204607f1660608301525090565b611dbd84848461193e565b611dc984848484612288565b61126c5760405162461bcd60e51b815260040161078490613109565b606081611e0a57506040805180820190915260018152600360fc1b602082015261069a565b8160005b8115611e2257600101600a82049150611e0e565b60608167ffffffffffffffff81118015611e3b57600080fd5b506040519080825280601f01601f191660200182016040528015611e66576020820181803683370190505b50859350905060001982015b8315611eb757600a840660300160f81b82828060019003935081518110611e9557fe5b60200101906001600160f81b031916908160001a905350600a84049350611e72565b50949350505050565b60008183611ee15760405162461bcd60e51b8152600401610784919061303e565b506000838581611eed57fe5b0495945050505050565b6000611f038383612090565b611f395750815460018181018455600084815260208082209093018490558454848252828601909352604090209190915561096e565b50600061096e565b600061096b8383612090565b600061096b838361236d565b600061096b8383611ef7565b6000611b8684846001600160a01b038516612433565b81546000908210611f9e5760405162461bcd60e51b815260040161078490613051565b826000018281548110611fad57fe5b9060005260206000200154905092915050565b600061096b836001600160a01b03841661236d565b815460009081908310611ffa5760405162461bcd60e51b815260040161078490613443565b600084600001848154811061200b57fe5b906000526020600020906002020190508060000154816001015492509250509250929050565b600082815260018401602052604081205482816120615760405162461bcd60e51b8152600401610784919061303e565b5084600001600182038154811061207457fe5b9060005260206000209060020201600101549150509392505050565b60009081526001919091016020526040902054151590565b604080516003808252608082019092526060916002918391602082018380368337019050509050600080856040516020016120e4929190612f13565b60408051601f198184030181529190528051602090910120905060005b838110156121555780408260405160200161211d929190612f13565b6040516020818303038152906040528051906020012083826001018151811061214257fe5b6020908102919091010152600101612101565b5090949350505050565b6000806121718560018560ff16612245565b90506000805b60188160ff1610156121c5576121aa868260ff166018811061219557fe5b6020020151839060ff1663ffffffff6124ca16565b91508183136121bd579250611b89915050565b600101612177565b5050509392505050565b6000806121e18560018560ff16612245565b90506000805b60078160ff1610156121c557612205868260ff166007811061219557fe5b9150818313612218579250611b89915050565b6001016121e7565b60008282018381101561096b5760405162461bcd60e51b81526004016107849061315b565b6000818313156122675760405162461bcd60e51b8152600401610784906137d7565b8283830360010161227786612510565b8161227e57fe5b0601949350505050565b600061229c846001600160a01b03166125f3565b6122a857506001611936565b6060612336630a85bd0160e11b6122bd6117cf565b8887876040516024016122d39493929190612fe8565b604051602081830303815290604052906001600160e01b0319166020820180516001600160e01b038381831617835250505050604051806060016040528060328152602001613a57603291396001600160a01b038816919063ffffffff61262c16565b905060008180602001905181019061234e9190612cc7565b6001600160e01b031916630a85bd0160e11b1492505050949350505050565b6000818152600183016020526040812054801561242957835460001980830191908101906000908790839081106123a057fe5b90600052602060002001549050808760000184815481106123bd57fe5b6000918252602080832090910192909255828152600189810190925260409020908401905586548790806123ed57fe5b6001900381819060005260206000200160009055905586600101600087815260200190815260200160002060009055600194505050505061096e565b600091505061096e565b600082815260018401602052604081205480612498575050604080518082018252838152602080820184815286546001818101895560008981528481209551600290930290950191825591519082015586548684528188019092529290912055611b89565b828560000160018303815481106124ab57fe5b9060005260206000209060020201600101819055506000915050611b89565b60008282018183128015906124df5750838112155b806124f457506000831280156124f457508381125b61096b5760405162461bcd60e51b81526004016107849061326e565b600060018251116125335760405162461bcd60e51b815260040161078490613192565b600060018351038360008151811061254757fe5b602002602001015160001c8161255957fe5b066001019050600083828151811061256d57fe5b60200260200101516040516020016125859190612f0a565b604051602081830303815290604052805190602001209050836000815181106125aa57fe5b602002602001015160001c60010160001b846000815181106125c857fe5b602002602001018181525050808483815181106125e157fe5b60209081029190910101529392505050565b6000813f7fc5d2460186f7233c927e7db2dcc703c0e500b653ca82273b7bfad8045d85a470818114801590611936575050151592915050565b6060611b8684846000856060612641856125f3565b61265d5760405162461bcd60e51b8152600401610784906136ca565b60006060866001600160a01b0316858760405161267a9190612f21565b60006040518083038185875af1925050503d80600081146126b7576040519150601f19603f3d011682016040523d82523d6000602084013e6126bc565b606091505b509150915081156126d05791506119369050565b8051156126e05780518082602001fd5b8360405162461bcd60e51b8152600401610784919061303e565b828054600181600116156101000203166002900490600052602060002090601f016020900481019282601f1061273b5782800160ff19823516178555612768565b82800160010185558215612768579182015b8281111561276857823582559160200191906001019061274d565b50612774929150612901565b5090565b6040805161020081018252600080825260208201819052918101829052606081018290526080810182905260a0810182905260c0810182905260e08101829052610100810182905261012081018290526101408101829052610160810182905261018081018290526101a081018290526101c081018290526101e081019190915290565b60405180608001604052806004906020820280368337509192915050565b60405180604001604052806002906020820280368337509192915050565b60405180606001604052806003906020820280368337509192915050565b828054600181600116156101000203166002900490600052602060002090601f016020900481019282601f1061289757805160ff1916838001178555612768565b82800160010185558215612768579182015b828111156127685782518255916020019190600101906128a9565b6040518060e001604052806007906020820280368337509192915050565b6040518061030001604052806018906020820280368337509192915050565b6106c491905b808211156127745760008155600101612907565b80356001600160a01b038116811461096e57600080fd5b600082601f830112612942578081fd5b61294c60406139bb565b905080828460408501111561296057600080fd5b6000805b600281101561299257823560ff8116811461297d578283fd5b84526020938401939290920191600101612964565b5050505092915050565b600082601f8301126129ac578081fd5b6129b660806139bb565b90508082846080850111156129ca57600080fd5b60005b60048110156129f5576129e08683612a60565b835260209283019291909101906001016129cd565b50505092915050565b8035801515811461096e57600080fd5b60008083601f840112612a1f578182fd5b50813567ffffffffffffffff811115612a36578182fd5b602083019150836020828501011115611b5f57600080fd5b803561ffff8116811461096e57600080fd5b803560ff8116811461096e57600080fd5b600060208284031215612a82578081fd5b61096b838361291b565b60008060408385031215612a9e578081fd5b612aa8848461291b565b9150612ab7846020850161291b565b90509250929050565b600080600060608486031215612ad4578081fd5b8335612adf81613a2b565b92506020840135612aef81613a2b565b929592945050506040919091013590565b60008060008060808587031215612b15578081fd5b612b1f868661291b565b93506020612b2f8782880161291b565b935060408601359250606086013567ffffffffffffffff80821115612b52578384fd5b81880189601f820112612b63578485fd5b8035925081831115612b73578485fd5b612b85601f8401601f191685016139bb565b91508282528984848301011115612b9a578485fd5b8284820185840137509081019091019190915292959194509250565b60008060408385031215612bc8578182fd5b612bd2848461291b565b9150612ab784602085016129fe565b60008060408385031215612bf3578182fd5b612bfd848461291b565b946020939093013593505050565b600060208284031215612c1c578081fd5b8135801515811461096b578182fd5b600060208284031215612c3c578081fd5b5035919050565b600060208284031215612c54578081fd5b5051919050565b60008060408385031215612c6d578182fd5b823591506020830135612c7f81613a2b565b809150509250929050565b60008060408385031215612c9c578182fd5b50508035926020909101359150565b600060208284031215612cbc578081fd5b813561096b81613a40565b600060208284031215612cd8578081fd5b815161096b81613a40565b60008060208385031215612cf5578182fd5b823567ffffffffffffffff811115612d0b578283fd5b612d1785828601612a0e565b90969095509350505050565b60008060808385031215612d35578182fd5b8235915083608084011115612d48578081fd5b50926020919091019150565b600080600060408486031215612d68578081fd5b83359250602084013567ffffffffffffffff811115612d85578182fd5b612d9186828701612a0e565b9497909650939450505050565b600060208284031215612daf578081fd5b61096b8383612a60565b6000806000806000806101808789031215612dd2578384fd5b612ddc8888612a60565b95506020612dec89828a01612a60565b955088605f890112612dfc578485fd5b6003612e0f612e0a826139e2565b6139bb565b8060408b0160a08c018d811115612e2457898afd5b895b85811015612e4a57612e388f84612a4e565b85529386019391860191600101612e26565b50829950612e588e8261299c565b9850505050505050612e6e886101208901612932565b9150612e7e8861016089016129fe565b90509295509295509295565b8060005b600381101561126c57815161ffff16845260209384019390910190600101612e8e565b8060005b600281101561126c57815160ff16845260209384019390910190600101612eb5565b60008151808452612eef8160208601602086016139ff565b601f01601f19169290920160200192915050565b60ff169052565b90815260200190565b918252602082015260400190565b60008251612f338184602087016139ff565b9190910192915050565b6000808454600180821660008114612f5c5760018114612f7357612fa2565b60ff198316865260028304607f1686019350612fa2565b600283048886526020808720875b83811015612f9a5781548a820152908501908201612f81565b505050860193505b5050508351612fb58183602088016139ff565b01949350505050565b6941444d494e5f524f4c4560b01b8152600a0190565b6001600160a01b0391909116815260200190565b6001600160a01b038581168252841660208201526040810183905260806060820181905260009061301b90830184612ed7565b9695505050505050565b901515815260200190565b60009190910b815260200190565b60006020825261096b6020830184612ed7565b60208082526022908201527f456e756d657261626c655365743a20696e646578206f7574206f6620626f756e604082015261647360f01b606082015260800190565b6020808252602f908201527f416363657373436f6e74726f6c3a2073656e646572206d75737420626520616e60408201526e0818591b5a5b881d1bc819dc985b9d608a1b606082015260800190565b6020808252600d908201526c34b73b30b634b21031b7b637b960991b604082015260600190565b60208082526032908201527f4552433732313a207472616e7366657220746f206e6f6e20455243373231526560408201527131b2b4bb32b91034b6b83632b6b2b73a32b960711b606082015260800190565b6020808252601b908201527f536166654d6174683a206164646974696f6e206f766572666c6f770000000000604082015260600190565b60208082526019908201527f52616e646f6d2e6e6578743a20696e76616c696420706f6f6c00000000000000604082015260600190565b60208082526010908201526f696e76616c6964206861746368696e6760801b604082015260600190565b60208082526024908201527f4552433732313a207472616e7366657220746f20746865207a65726f206164646040820152637265737360e01b606082015260800190565b60208082526019908201527f4552433732313a20617070726f766520746f2063616c6c657200000000000000604082015260600190565b60208082526021908201527f5369676e6564536166654d6174683a206164646974696f6e206f766572666c6f6040820152607760f81b606082015260800190565b6020808252600b908201526a496e76616c696420426b6760a81b604082015260600190565b6020808252602c908201527f4552433732313a206f70657261746f7220717565727920666f72206e6f6e657860408201526b34b9ba32b73a103a37b5b2b760a11b606082015260800190565b60208082526030908201527f416363657373436f6e74726f6c3a2073656e646572206d75737420626520616e60408201526f2061646d696e20746f207265766f6b6560801b606082015260800190565b60208082526038908201527f4552433732313a20617070726f76652063616c6c6572206973206e6f74206f7760408201527f6e6572206e6f7220617070726f76656420666f7220616c6c0000000000000000606082015260800190565b6020808252602a908201527f4552433732313a2062616c616e636520717565727920666f7220746865207a65604082015269726f206164647265737360b01b606082015260800190565b602080825260129082015271496e7375662e205065726d697373696f6e7360701b604082015260600190565b60208082526022908201527f456e756d657261626c654d61703a20696e646578206f7574206f6620626f756e604082015261647360f01b606082015260800190565b6020808252602c908201527f4552433732313a20617070726f76656420717565727920666f72206e6f6e657860408201526b34b9ba32b73a103a37b5b2b760a11b606082015260800190565b6020808252602c908201527f4552433732314d657461646174613a2055524920736574206f66206e6f6e657860408201526b34b9ba32b73a103a37b5b2b760a11b606082015260800190565b6020808252601390820152721a5b9d985b1a59081cda185c194818dbdd5b9d606a1b604082015260600190565b60208082526029908201527f4552433732313a207472616e73666572206f6620746f6b656e2074686174206960408201526839903737ba1037bbb760b91b606082015260800190565b6020808252602f908201527f4552433732314d657461646174613a2055524920717565727920666f72206e6f60408201526e3732bc34b9ba32b73a103a37b5b2b760891b606082015260800190565b60208082526010908201526f24b73b30b634b210223ab930ba34b7b760811b604082015260600190565b60208082526012908201527134b73b30b634b21039b0ba3ab930ba34b7b760711b604082015260600190565b60208082526021908201527f4552433732313a20617070726f76616c20746f2063757272656e74206f776e656040820152603960f91b606082015260800190565b60208082526031908201527f4552433732313a207472616e736665722063616c6c6572206973206e6f74206f6040820152701ddb995c881b9bdc88185c1c1c9bdd9959607a1b606082015260800190565b6020808252601d908201527f416464726573733a2063616c6c20746f206e6f6e2d636f6e7472616374000000604082015260600190565b6020808252600e908201526d1a5b9d985b1a59081cdc1c99585960921b604082015260600190565b6020808252601490820152734d7573742062652066757475726520626c6f636b60601b604082015260600190565b602080825260149082015273696e76616c6964206865696768742072616e676560601b604082015260600190565b60208082526032908201527f43616c6c657220646f736e27742068617665207065726d697373696f6e20746f604082015271103ab9b2903a3434b990333ab731ba34b7b760711b606082015260800190565b6020808252818101527f52616e646f6d2e756e69666f726d3a20696e76616c696420696e74657276616c604082015260600190565b6020808252602f908201527f416363657373436f6e74726f6c3a2063616e206f6e6c792072656e6f756e636560408201526e103937b632b9903337b91039b2b63360891b606082015260800190565b602080825260119082015270696e76616c6964206c696768746e65737360781b604082015260600190565b602080825260139082015272696e76616c69642077696474682072616e676560681b604082015260600190565b6001600160801b038c16815260208082018c905260ff8b811660408401528a8116606084015261022083019190608084018b60005b60048110156139075781518416835291840191908401906001016138e8565b505050505061391a610100830189612eb1565b613928610140830188612f03565b613936610160830187612e8a565b6139446101c0830186612f03565b6139526101e0830185612f03565b613960610200830184612f03565b9c9b505050505050505050505050565b61ffff91909116815260200190565b63ffffffff91909116815260200190565b60ff91909116815260200190565b60ff93841681529183166020830152909116604082015260600190565b60405181810167ffffffffffffffff811182821017156139da57600080fd5b604052919050565b600067ffffffffffffffff8211156139f8578081fd5b5060200290565b60005b83811015613a1a578181015183820152602001613a02565b8381111561126c5750506000910152565b6001600160a01b038116811461186757600080fd5b6001600160e01b03198116811461186757600080fdfe4552433732313a207472616e7366657220746f206e6f6e20455243373231526563656976657220696d706c656d656e7465724552433732313a206f776e657220717565727920666f72206e6f6e6578697374656e7420746f6b656ea2646970667358221220ba6028d5dc8f645df855435b2e4060b7f1d3c455ee9c5feb3d5df3b4da49c99064736f6c6343000608003368747470733a2f2f72696e6b6562792e74696e79626f782e73686f702f54696e79426f7865732e6a736f6e",
  "linkReferences": {},
  "deployedLinkReferences": {}
}