{
  "_format": "hh-sol-artifact-1",
  "contractName": "Utils",
  "sourceName": "contracts/libraries/Utils.sol",
  "abi": [
    {
      "inputs": [
        {
          "internalType": "int256",
          "name": "val",
          "type": "int256"
        }
      ],
      "name": "toString",
      "outputs": [
        {
          "internalType": "string",
          "name": "out",
          "type": "string"
        }
      ],
      "stateMutability": "pure",
      "type": "function"
    }
  ],
  "bytecode": "0x6103cd610026600b82828239805160001a60731461001957fe5b30600052607381538281f3fe73000000000000000000000000000000000000000030146080604052600436106100355760003560e01c8063a322c40e1461003a575b600080fd5b6100576004803603602081101561005057600080fd5b50356100cc565b6040805160208082528351818301528351919283929083019185019080838360005b83811015610091578181015183820152602001610079565b50505050905090810190601f1680156100be5780820380516001836020036101000a031916815260200191505b509250505060405180910390f35b6060600082126100e4576100df82610193565b61018d565b6100fe6100f98360001963ffffffff6102a416565b610193565b60405160200180807f2d0000000000000000000000000000000000000000000000000000000000000081525060010182805190602001908083835b602083106101585780518252601f199092019160209182019101610139565b6001836020036101000a0380198251168184511680821785525050505050509050019150506040516020818303038152906040525b92915050565b6060816101d4575060408051808201909152600181527f3000000000000000000000000000000000000000000000000000000000000000602082015261029f565b8160005b81156101ec57600101600a820491506101d8565b60608167ffffffffffffffff8111801561020557600080fd5b506040519080825280601f01601f191660200182016040528015610230576020820181803683370190505b50859350905060001982015b831561029957600a840660300160f81b8282806001900393508151811061025f57fe5b60200101907effffffffffffffffffffffffffffffffffffffffffffffffffffffffffffff1916908160001a905350600a8404935061023c565b50925050505b919050565b6000826102b35750600061018d565b826000191480156102e357507f800000000000000000000000000000000000000000000000000000000000000082145b1561031f5760405162461bcd60e51b81526004018080602001828103825260278152602001806103716027913960400191505060405180910390fd5b8282028284828161032c57fe5b05146103695760405162461bcd60e51b81526004018080602001828103825260278152602001806103716027913960400191505060405180910390fd5b939250505056fe5369676e6564536166654d6174683a206d756c7469706c69636174696f6e206f766572666c6f77a26469706673582212203da02a3a552994ee57b2b799ed9d9c031ebfda241ca9b9c8b42e678cd22d5cc664736f6c63430006080033",
  "linkReferences": {},
  "deployedLinkReferences": {}
}