{
  "_format": "hh-sol-artifact-1",
  "contractName": "Utils",
  "sourceName": "contracts/libraries/Utils.sol",
  "abi": [
    {
      "inputs": [
        {
          "internalType": "int256",
          "name": "val",
          "type": "int256"
        }
      ],
      "name": "toString",
      "outputs": [
        {
          "internalType": "string",
          "name": "out",
          "type": "string"
        }
      ],
      "stateMutability": "pure",
      "type": "function"
    }
  ],
  "bytecode": "0x61049c610026600b82828239805160001a60731461001957fe5b30600052607381538281f3fe73000000000000000000000000000000000000000030146080604052600436106100355760003560e01c8063a322c40e1461003a575b600080fd5b6100666004803603602081101561005057600080fd5b81019080803590602001909291905050506100e1565b6040518080602001828103825283818151815260200191508051906020019080838360005b838110156100a657808201518184015260208101905061008b565b50505050905090810190601f1680156100d35780820380516001836020036101000a031916815260200191505b509250505060405180910390f35b6060600082126100f9576100f4826101ce565b6101c7565b61013461012f7fffffffffffffffffffffffffffffffffffffffffffffffffffffffffffffffff8461031590919063ffffffff16565b6101ce565b60405160200180807f2d0000000000000000000000000000000000000000000000000000000000000081525060010182805190602001908083835b60208310610192578051825260208201915060208101905060208303925061016f565b6001836020036101000a0380198251168184511680821785525050505050509050019150506040516020818303038152906040525b9050919050565b60606000821415610216576040518060400160405280600181526020017f30000000000000000000000000000000000000000000000000000000000000008152509050610310565b600082905060005b60008214610240578080600101915050600a828161023857fe5b04915061021e565b60608167ffffffffffffffff8111801561025957600080fd5b506040519080825280601f01601f19166020018201604052801561028c5781602001600182028036833780820191505090505b50905060006001830390508593505b6000841461030857600a84816102ad57fe5b0660300160f81b828280600190039350815181106102c757fe5b60200101907effffffffffffffffffffffffffffffffffffffffffffffffffffffffffffff1916908160001a905350600a848161030057fe5b04935061029b565b819450505050505b919050565b6000808314156103285760009050610439565b7fffffffffffffffffffffffffffffffffffffffffffffffffffffffffffffffff8314801561037657507f800000000000000000000000000000000000000000000000000000000000000082145b156103cc576040517f08c379a00000000000000000000000000000000000000000000000000000000081526004018080602001828103825260278152602001806104406027913960400191505060405180910390fd5b60008284029050828482816103dd57fe5b0514610434576040517f08c379a00000000000000000000000000000000000000000000000000000000081526004018080602001828103825260278152602001806104406027913960400191505060405180910390fd5b809150505b9291505056fe5369676e6564536166654d6174683a206d756c7469706c69636174696f6e206f766572666c6f77a264697066735822122017a89fc081ea0fc568f8d76df3af28193ff582af189b006132aca1eaaca0e31464736f6c63430006080033",
  "linkReferences": {},
  "deployedLinkReferences": {}
}