{
  "contracts/RandomStub.sol": {
    "RandomStub": {
      "abi": [
        {
          "inputs": [],
          "name": "returnValue",
          "outputs": [
            {
              "internalType": "bytes32",
              "name": "",
              "type": "bytes32"
            }
          ],
          "stateMutability": "view",
          "type": "function"
        }
      ],
      "evm": {
        "bytecode": {
          "linkReferences": {},
          "object": "6080604052348015600f57600080fd5b5060c78061001e6000396000f3fe6080604052348015600f57600080fd5b506004361060285760003560e01c8063990c8f7914602d575b600080fd5b60336045565b60408051918252519081900360200190f35b6040805143602080830182905241606090811b848601524460548501526000199092014060748401523290911b60948301528251608881840301815260a890920190925280519101209056fea264697066735822122028b2025dd088597718cd9b3cc4f3c6c08c356f0e168ad5e7590e45e7947d89eb64736f6c63430006080033",
          "opcodes": "PUSH1 0x80 PUSH1 0x40 MSTORE CALLVALUE DUP1 ISZERO PUSH1 0xF JUMPI PUSH1 0x0 DUP1 REVERT JUMPDEST POP PUSH1 0xC7 DUP1 PUSH2 0x1E PUSH1 0x0 CODECOPY PUSH1 0x0 RETURN INVALID PUSH1 0x80 PUSH1 0x40 MSTORE CALLVALUE DUP1 ISZERO PUSH1 0xF JUMPI PUSH1 0x0 DUP1 REVERT JUMPDEST POP PUSH1 0x4 CALLDATASIZE LT PUSH1 0x28 JUMPI PUSH1 0x0 CALLDATALOAD PUSH1 0xE0 SHR DUP1 PUSH4 0x990C8F79 EQ PUSH1 0x2D JUMPI JUMPDEST PUSH1 0x0 DUP1 REVERT JUMPDEST PUSH1 0x33 PUSH1 0x45 JUMP JUMPDEST PUSH1 0x40 DUP1 MLOAD SWAP2 DUP3 MSTORE MLOAD SWAP1 DUP2 SWAP1 SUB PUSH1 0x20 ADD SWAP1 RETURN JUMPDEST PUSH1 0x40 DUP1 MLOAD NUMBER PUSH1 0x20 DUP1 DUP4 ADD DUP3 SWAP1 MSTORE COINBASE PUSH1 0x60 SWAP1 DUP2 SHL DUP5 DUP7 ADD MSTORE DIFFICULTY PUSH1 0x54 DUP6 ADD MSTORE PUSH1 0x0 NOT SWAP1 SWAP3 ADD BLOCKHASH PUSH1 0x74 DUP5 ADD MSTORE ORIGIN SWAP1 SWAP2 SHL PUSH1 0x94 DUP4 ADD MSTORE DUP3 MLOAD PUSH1 0x88 DUP2 DUP5 SUB ADD DUP2 MSTORE PUSH1 0xA8 SWAP1 SWAP3 ADD SWAP1 SWAP3 MSTORE DUP1 MLOAD SWAP2 ADD KECCAK256 SWAP1 JUMP INVALID LOG2 PUSH5 0x6970667358 0x22 SLT KECCAK256 0x28 0xB2 MUL 0x5D 0xD0 DUP9 MSIZE PUSH24 0x18CD9B3CC4F3C6C08C356F0E168AD5E7590E45E7947D89EB PUSH5 0x736F6C6343 STOP MOD ADDMOD STOP CALLER "
        },
        "methodIdentifiers": {
          "returnValue()": "990c8f79"
        }
      }
    }
  }
}