{
  "_format": "hh-sol-artifact-1",
  "contractName": "TinyBoxesRenderer",
  "sourceName": "contracts/TinyBoxesRenderer.sol",
  "abi": [
    {
      "inputs": [
        {
          "components": [
            {
              "internalType": "uint128",
              "name": "randomness",
              "type": "uint128"
            },
            {
              "internalType": "uint16",
              "name": "hue",
              "type": "uint16"
            },
            {
              "internalType": "uint8",
              "name": "saturation",
              "type": "uint8"
            },
            {
              "internalType": "uint8",
              "name": "lightness",
              "type": "uint8"
            },
            {
              "internalType": "uint8",
              "name": "shapes",
              "type": "uint8"
            },
            {
              "internalType": "uint8",
              "name": "hatching",
              "type": "uint8"
            },
            {
              "internalType": "uint8",
              "name": "widthMin",
              "type": "uint8"
            },
            {
              "internalType": "uint8",
              "name": "widthMax",
              "type": "uint8"
            },
            {
              "internalType": "uint8",
              "name": "heightMin",
              "type": "uint8"
            },
            {
              "internalType": "uint8",
              "name": "heightMax",
              "type": "uint8"
            },
            {
              "internalType": "uint8",
              "name": "spread",
              "type": "uint8"
            },
            {
              "internalType": "uint8",
              "name": "grid",
              "type": "uint8"
            },
            {
              "internalType": "uint8",
              "name": "mirroring",
              "type": "uint8"
            },
            {
              "internalType": "uint8",
              "name": "bkg",
              "type": "uint8"
            },
            {
              "internalType": "uint8",
              "name": "duration",
              "type": "uint8"
            },
            {
              "internalType": "uint8",
              "name": "options",
              "type": "uint8"
            }
          ],
          "internalType": "struct TinyBox",
          "name": "box",
          "type": "tuple"
        },
        {
          "internalType": "uint256",
          "name": "id",
          "type": "uint256"
        },
        {
          "internalType": "address",
          "name": "owner",
          "type": "address"
        },
        {
          "internalType": "uint8[4]",
          "name": "dVals",
          "type": "uint8[4]"
        },
        {
          "internalType": "string",
          "name": "_slot",
          "type": "string"
        }
      ],
      "name": "perpetualRenderer",
      "outputs": [
        {
          "internalType": "string",
          "name": "",
          "type": "string"
        }
      ],
      "stateMutability": "view",
      "type": "function"
    }
  ],
  "bytecode": "0x616ada62000027600b82828239805160001a60731461001a57fe5b30600052607381538281f3fe73000000000000000000000000000000000000000030146080604052600436106100355760003560e01c8063bb02cf9e1461003a575b600080fd5b61004d610048366004614312565b610063565b60405161005a9190616640565b60405180910390f35b6060806100b38560048060200260405190810160405280929190826004602002808284376000920191909152508a91508990506100a5368d90038d018d6143ca565b92919063ffffffff6102ab16565b60408051602081019091526000808252919250905b6100d860a08b0160808c01614522565b60ff168110156101c0576100ea6140e8565b610128826100fd368e90038e018e6143ca565b604080516080818101909252908c9060049083908390808284376000920191909152506104d3915050565b905082600861013f6102008e016101e08f01614522565b60ff168161014957fe5b0660ff16600014156101635761015e82610733565b610194565b6101948261018f8e80360381019061017b91906143ca565b61018860208e018e614522565b8688610756565b612112565b6040516020016101a5929190614707565b60408051601f198184030181529190529250506001016100c8565b5060608585836040516020016101d89392919061464e565b60408051601f19818403018152919052905060606102066102016101a08d016101808e01614522565b612471565b905061029c600260088d6101e00160208101906102239190614522565b60ff168161022d57fe5b0460ff168161023857fe5b0660ff166001146102625761025d6102586101c08e016101a08f01614522565b612900565b610273565b604051806020016040528060008152505b85848460405160200161028893929190614735565b60405160208183030381529060405261292c565b9b9a5050505050505050505050565b6060806102b886866129bc565b905060606102c587612b1c565b905060606102d288612bcf565b905060606102df89612c30565b9050606060028a6101e0015160ff16816102f557fe5b0660ff1660011461033b576040518060400160405280600581526020017f66616c7365000000000000000000000000000000000000000000000000000000815250610372565b6040518060400160405280600481526020017f74727565000000000000000000000000000000000000000000000000000000008152505b6103868a60005b602002015160ff16612c53565b604051602001610397929190615dc5565b60408051601f19818403018152919052905060606103b489612c53565b6103bd89612d2e565b6040516020016103ce929190614d50565b604051602081830303815290604052905060606103ea30612d2e565b6040516020016103fa9190615866565b6040516020818303038152906040529050606061041e8d6101a0015160ff16612c53565b61042f8e6101c0015160ff16612c53565b6104408f6101e0015160ff16612c53565b604051602001610452939291906164ab565b6040516020818303038152906040529050606061046e42612c53565b60405160200161047e9190614f15565b604051602081830303815290604052905082818584888d8d8d8d6040516020016104b099989796959493929190616041565b60405160208183030381529060405299505050505050505050505b949350505050565b6104db6140e8565b60606104fc84600001516fffffffffffffffffffffffffffffffff16612d58565b90506000808560a0015160ff1611801561052c575060a085015161052a90879060ff1663ffffffff612e0f16565b155b905061053661411a565b61053e61411a565b60408051808201825261014089015160ff90811682526101608a01518116602080840191909152835160808101855260c08c01518316815260e08c01518316918101919091526101008b01518216938101939093526101208a01511660608301526105ac9186919086612e58565b909250905060006105c58582600363ffffffff61311316565b905060006105f7816105e960018b6002602002015160ff169063ffffffff61315f16565b88919063ffffffff61311316565b9050610601614138565b6040805160e0810182526020808d015161ffff1660808301908152928d015160ff90811660a084015260608e01511660c083015291815273__$a185ab8a6ec48aeccbe1b994ec885343b2$__9163629fe50c919081018c6003602002015160ff1681526020018c60026004811061067457fe5b602002015160ff1681526020018c60016004811061068e57fe5b602002015160ff1681525085856040518463ffffffff1660e01b81526004016106b9939291906168b6565b60606040518083038186803b1580156106d157600080fd5b505af41580156106e5573d6000803e3d6000fd5b505050506040513d601f19601f8201168201806040525081019061070991906142bd565b60408051606081018252968752602087019590955293850193909352509198975050505050505050565b606061074e8260405180602001604052806000815250612112565b90505b919050565b6060806107826000876101c0015160ff161161077357600a61077a565b866101c001515b60ff16612c53565b60405160200161079291906147f9565b604051602081830303815290604052905060606107d060086002896101e0015160ff16816107bc57fe5b0460ff16816107c757fe5b0660ff166131a5565b905060ff86166108845761087b60405180604001604052806006815260200165726f7461746560d01b815250836040518060400160405280600f81526020017f303b39303b39303b3336303b33363000000000000000000000000000000000008152506040518060400160405280600f81526020017f303b302e323b302e333b302e393b31000000000000000000000000000000000081525061087560046000613281565b86613397565b925050506104cb565b8560ff166001141561092b5761087b60405180604001604052806006815260200165726f7461746560d01b815250836040518060400160405280601181526020017f303b3138303b3138303b3336303b3336300000000000000000000000000000008152506040518060400160405280600f81526020017f303b302e343b302e353b302e393b31000000000000000000000000000000000081525061087560046000613281565b8560ff16600214156109d25761087b60405180604001604052806006815260200165726f7461746560d01b815250836040518060400160405280601181526020017f303b3237303b3237303b3336303b3336300000000000000000000000000000008152506040518060400160405280600f81526020017f303b302e363b302e373b302e393b31000000000000000000000000000000000081525061087560046000613281565b8560ff1660031415610a795761087b60405180604001604052806006815260200165726f7461746560d01b815250836040518060400160405280601981526020017f303b3132303b3132303b3234303b3234303b3336303b333630000000000000008152506040518060400160405280601f81526020017f303b302e3136363b302e3333333b302e353b302e3636363b302e3833333b310081525061087560066000613281565b8560ff1660041415610b035761087b60405180604001604052806006815260200165726f7461746560d01b815250836040518060400160405280601f81526020017f303b39303b39303b3138303b3138303b3237303b3237303b3336303b33363000815250604051806060016040528060288152602001616a7d6028913961087560086000613281565b8560ff1660051415610b705761087b60405180604001604052806006815260200165726f7461746560d01b81525083604051806060016040528060278152602001616a56602791396040518060600160405280602781526020016169a760279139610875600a6000613281565b8560ff1660061415610bdf5761087b60405180604001604052806006815260200165726f7461746560d01b81525083604051806040016040528060058152602001640303b3336360dc1b81525060405180604001604052806003815260200162303b3160e81b815250856133b4565b8560ff1660071415610c805761087b60405180604001604052806006815260200165726f7461746560d01b815250836040518060400160405280600c81526020017f303b39303b3237303b33363000000000000000000000000000000000000000008152506040518060400160405280600b81526020017f303b302e313b302e393b31000000000000000000000000000000000000000000815250856133b4565b8560ff1660081415610d4f5761087b60405180604001604052806006815260200165726f7461746560d01b815250610cf8866001018a6080015160ff1660008c6101c0015160ff1611610cd457600a610cdb565b8b6101c001515b60ff166103e80261ffff1681610ced57fe5b0461ffff1602612c53565b604051602001610d0891906149c1565b60408051601f19818403018152828201825260058352640303b3336360dc1b60208481019190915282518084019093526003835262303b3160e81b908301529190856133b4565b8560ff1660091415610e46576000610d79886080015160ff1661012c6133df90919063ffffffff16565b90506060610da6610da183610d9589600163ffffffff61342116565b9063ffffffff61344616565b612c53565b905060608182604051602001610dbd929190615685565b6040516020818303038152906040529050610e3a60405180604001604052806006815260200165726f7461746560d01b81525086836040518060400160405280600f81526020017f303b302e353b302e363b302e393b310000000000000000000000000000000000815250610e3460046000613281565b89613397565b955050505050506104cb565b8560ff16600a1415610f54576060610e87610da1610e768a6080015160ff1661012c6133df90919063ffffffff16565b610d9588600163ffffffff61342116565b90506000610ed4610ec5610ead8b6080015160ff166103206133df90919063ffffffff16565b60808c0151610d959060ff168a63ffffffff61348016565b6103849063ffffffff61348016565b90506060610ee182612c53565b604051602001610ef19190615f73565b6040516020818303038152906040529050610e3a60405180604001604052806006815260200165726f7461746560d01b815250868586604051602001610f3892919061560d565b60405160208183030381529060405284610e3460036000613281565b8560ff16600b14156112b857610f6861411a565b5060408051808201909152600a8082526020820152610f85614158565b60005b600281101561115e5787516000908260028110610fa157fe5b602002015190506060610fcb858460028110610fb957fe5b6020020151839063ffffffff61315f16565b604051635191620760e11b815273__$b4ae538d42a0e0bb8330684d08e51a40b4$__9163a322c40e916110019190600401614637565b60006040518083038186803b15801561101957600080fd5b505af415801561102d573d6000803e3d6000fd5b505050506040513d6000823e601f3d908101601f19168201604052611055919081019061423a565b9050606061107a86856002811061106857fe5b6020020151849063ffffffff6134c216565b604051635191620760e11b815273__$b4ae538d42a0e0bb8330684d08e51a40b4$__9163a322c40e916110b09190600401614637565b60006040518083038186803b1580156110c857600080fd5b505af41580156110dc573d6000803e3d6000fd5b505050506040513d6000823e601f3d908101601f19168201604052611104919081019061423a565b905083156111125780611114565b815b84156111205782611122565b815b60405160200161113392919061483a565b60405160208183030381529060405285856002811061114e57fe5b6020020152505050600101610f88565b506111f5604051806040016040528060018152602001600f60fb1b8152506111b1610da1600a60008e6101c0015160ff161161119b57600a6111a2565b8d6101c001515b60ff169063ffffffff6133df16565b6040516020016111c191906147f9565b60408051808303601f1901815282825285518383019092526008835267646973637265746560c01b60208401529187613508565b61128d604051806040016040528060018152602001607960f81b815250611246610da1600560008f6101c0015160ff161161123157600a6111a2565b8e6101c0015160ff169063ffffffff6133df16565b60405160200161125691906147f9565b60408051808303601f190181528282526020808801518484019093526008845267646973637265746560c01b908401529188613508565b60405160200161129e929190614707565b6040516020818303038152906040529450505050506104cb565b8560ff16600c14156115965760056112ce614158565b60005b600281101561149457875160009082600281106112ea57fe5b602002015190506060611303828663ffffffff61315f16565b604051635191620760e11b815273__$b4ae538d42a0e0bb8330684d08e51a40b4$__9163a322c40e916113399190600401614637565b60006040518083038186803b15801561135157600080fd5b505af4158015611365573d6000803e3d6000fd5b505050506040513d6000823e601f3d908101601f1916820160405261138d919081019061423a565b905060606113a1838763ffffffff6134c216565b604051635191620760e11b815273__$b4ae538d42a0e0bb8330684d08e51a40b4$__9163a322c40e916113d79190600401614637565b60006040518083038186803b1580156113ef57600080fd5b505af4158015611403573d6000803e3d6000fd5b505050506040513d6000823e601f3d908101601f1916820160405261142b919081019061423a565b90508315611439578061143b565b815b84156114475782611449565b815b85156114555782611457565b835b60405160200161146993929190614877565b60405160208183030381529060405285856002811061148457fe5b60200201525050506001016112d1565b50611516604051806040016040528060018152602001600f60fb1b8152506114e7610da1601460008e6101c0015160ff16116114d157600a6114d8565b8d6101c001515b60ff169063ffffffff61344616565b6040516020016114f791906149c1565b60408051601f198184030181529190528360005b60200201518661357b565b61128d604051806040016040528060018152602001607960f81b815250611567610da1601460008f6101c0015160ff161161155257600a6114d8565b8e6101c0015160ff169063ffffffff61344616565b60405160200161157791906149c1565b60408051601f198184030181529190528460015b60200201518761357b565b8560ff16600d14156117dc5760056115ac614158565b60005b600281101561176357875160009082600281106115c857fe5b6020020151905060606115e1828663ffffffff61315f16565b604051635191620760e11b815273__$b4ae538d42a0e0bb8330684d08e51a40b4$__9163a322c40e916116179190600401614637565b60006040518083038186803b15801561162f57600080fd5b505af4158015611643573d6000803e3d6000fd5b505050506040513d6000823e601f3d908101601f1916820160405261166b919081019061423a565b9050606061167f838763ffffffff6134c216565b604051635191620760e11b815273__$b4ae538d42a0e0bb8330684d08e51a40b4$__9163a322c40e916116b59190600401614637565b60006040518083038186803b1580156116cd57600080fd5b505af41580156116e1573d6000803e3d6000fd5b505050506040513d6000823e601f3d908101601f19168201604052611709919081019061423a565b905083156117175780611719565b815b84156117255782611727565b815b60405160200161173892919061483a565b60405160208183030381529060405285856002811061175357fe5b60200201525050506001016115af565b506117a0604051806040016040528060018152602001600f60fb1b8152506114e7610da1601960008e6101c0015160ff16116114d157600a6114d8565b61128d604051806040016040528060018152602001607960f81b815250611567610da1601960008f6101c0015160ff161161155257600a6114d8565b8560ff16600e141561187b5761087b604051806040016040528060058152602001647363616c6560d81b815250836040518060400160405280601b81526020017f3120313b312e3520312e353b3120313b302e3520302e353b31203100000000008152506040518060400160405280601181526020017f303b302e32353b302e353b302e37353b310000000000000000000000000000008152506135a2565b8560ff16600f14156119f7576007611891614158565b60005b6002811015611974576000886020015182600281106118af57fe5b6020020151905060606118c182612c53565b905060606118e8610da16118db858963ffffffff6133df16565b859063ffffffff61348016565b9050606061190f610da1611902868a63ffffffff6133df16565b869063ffffffff61342116565b905082851561191e5781611920565b825b84871561192d578461192f565b835b866040516020016119449594939291906148d6565b60405160208183030381529060405286866002811061195f57fe5b60200201525050600190920191506118949050565b5060408051808201909152600581527f776964746800000000000000000000000000000000000000000000000000000060208201526119b6908583600061150b565b60408051808201909152600681527f6865696768740000000000000000000000000000000000000000000000000000602082015261128d908684600161158b565b8560ff1660101415611a795761087b6040518060400160405280600281526020017f7278000000000000000000000000000000000000000000000000000000000000815250836040518060400160405280600781526020017f303b3130303b30000000000000000000000000000000000000000000000000008152508461357b565b8560ff1660111415611c365760146060611a9a60008363ffffffff6134c216565b604051635191620760e11b815273__$b4ae538d42a0e0bb8330684d08e51a40b4$__9163a322c40e91611ad09190600401614637565b60006040518083038186803b158015611ae857600080fd5b505af4158015611afc573d6000803e3d6000fd5b505050506040513d6000823e601f3d908101601f19168201604052611b24919081019061423a565b90506060611b3960008463ffffffff61315f16565b604051635191620760e11b815273__$b4ae538d42a0e0bb8330684d08e51a40b4$__9163a322c40e91611b6f9190600401614637565b60006040518083038186803b158015611b8757600080fd5b505af4158015611b9b573d6000803e3d6000fd5b505050506040513d6000823e601f3d908101601f19168201604052611bc3919081019061423a565b9050606081828485604051602001611bde9493929190615432565b60408051601f19818403018152828201909152600982527f7472616e736c617465000000000000000000000000000000000000000000000060208301529150611c29908783886135a2565b96505050505050506104cb565b8560ff1660121415611d86576060604051602001611c5390614a97565b60405160208183030381529060405290506000611c85896080015160010160ff166127106135d290919063ffffffff16565b90506000611cbc611cad611ca089600163ffffffff6134c216565b849063ffffffff61363616565b6127109063ffffffff61315f16565b90506060611cd9611cd483600463ffffffff6136a116565b613765565b90506060611d01611cd46004611cf5868863ffffffff61315f16565b9063ffffffff6136a116565b90506060611d1d611cd46004611cf5878963ffffffff6134c216565b90506060828483604051602001611d3693929190615591565b60408051601f1981840301815282820190915260058252647363616c6560d81b60208301529150611d76908a8984611d7060046000613281565b8d613397565b99505050505050505050506104cb565b8560ff1660131415611eac576000611dcb611db3896080015160ff166101906133df90919063ffffffff16565b60808a0151610d959060ff168863ffffffff61348016565b90506000611df1610ec5610ead8b6080015160ff166101906133df90919063ffffffff16565b90506060611dfe83612c53565b611e0783612c53565b604051602001611e18929190615fc6565b6040516020818303038152906040529050610e3a6040518060400160405280600781526020017f6f70616369747900000000000000000000000000000000000000000000000000815250866040518060400160405280600781526020017f313b303b303b310000000000000000000000000000000000000000000000000081525084611ea660036000613281565b89613b51565b8560ff1660141415611f035761087b604051806040016040528060058152602001640e6d6caeeb60db1b815250836040518060400160405280600a8152602001690303b35303b2d35303b360b41b815250846135a2565b8560ff1660151415611f725761087b6040518060400160405280600581526020017f736b657759000000000000000000000000000000000000000000000000000000815250836040518060400160405280600a8152602001690303b35303b2d35303b360b41b815250846135a2565b8560ff16601614156120625761087b604051806040016040528060058152602001640e6d6caeeb60db1b815250611fd3610da1600260008c6101c0015160ff1611611fbe57600a6111a2565b8b6101c0015160ff169063ffffffff6133df16565b604051602001611fe391906147f9565b60408051601f198184030181528282018252601d83527f303b2d36343b33323b2d31363b383b2d343b323b2d313b2e353b303b300000006020848101919091528251808401909352601e83527f303b2e313b2e323b2e333b2e343b2e353b2e363b2e373b2e383b2e393b310000908301529190610875600a6000613281565b8560ff16601714156121085761087b604051806040016040528060058152602001640e6d6caeeb60db1b815250836040518060400160405280601e81526020017f303b31363b2d31323b383b2d343b323b2d313b2e353b2d2e32353b303b3000008152506040518060400160405280601e81526020017f303b2e313b2e323b2e333b2e343b2e353b2e363b2e373b2e383b2e393b310000815250610875600a6001613281565b5050949350505050565b815151604051635191620760e11b815260609173__$b4ae538d42a0e0bb8330684d08e51a40b4$__9163a322c40e9161214d91600401614637565b60006040518083038186803b15801561216557600080fd5b505af4158015612179573d6000803e3d6000fd5b505050506040513d6000823e601f3d908101601f191682016040526121a1919081019061423a565b835160200151604051635191620760e11b815273__$b4ae538d42a0e0bb8330684d08e51a40b4$__9163a322c40e916121dd9190600401614637565b60006040518083038186803b1580156121f557600080fd5b505af4158015612209573d6000803e3d6000fd5b505050506040513d6000823e601f3d908101601f19168201604052612231919081019061423a565b602085015151604051635191620760e11b815273__$b4ae538d42a0e0bb8330684d08e51a40b4$__9163a322c40e9161226d9190600401614637565b60006040518083038186803b15801561228557600080fd5b505af4158015612299573d6000803e3d6000fd5b505050506040513d6000823e601f3d908101601f191682016040526122c1919081019061423a565b6020868101510151604051635191620760e11b815273__$b4ae538d42a0e0bb8330684d08e51a40b4$__9163a322c40e916122ff9190600401614637565b60006040518083038186803b15801561231757600080fd5b505af415801561232b573d6000803e3d6000fd5b505050506040513d6000823e601f3d908101601f19168201604052612353919081019061423a565b60408088015190517ffa43895e00000000000000000000000000000000000000000000000000000000815273__$a185ab8a6ec48aeccbe1b994ec885343b2$__9163fa43895e916123a791906004016168a8565b60006040518083038186803b1580156123bf57600080fd5b505af41580156123d3573d6000803e3d6000fd5b505050506040513d6000823e601f3d908101601f191682016040526123fb919081019061423a565b86511561242757866040516020016124139190615eb6565b604051602081830303815290604052612444565b6040518060400160405280600381526020016211179f60e91b8152505b60405160200161245996959493929190616351565b60405160208183030381529060405290505b92915050565b606061247b61417f565b506040805160c0810182526003608082019081527f312031000000000000000000000000000000000000000000000000000000000060a083015281528151808301835260048082527f2d3120310000000000000000000000000000000000000000000000000000000060208381019190915280840192909252835180850185529081527f31202d310000000000000000000000000000000000000000000000000000000081830152828401528251808401909352600583527f2d31202d31000000000000000000000000000000000000000000000000000000908301526060810191909152612568614199565b50604080516060808201835261025882526104b0602080840191909152610960838501528351808501909452600684527f73686170657300000000000000000000000000000000000000000000000000009084015290916125d1906125cc90613b89565b613b9c565b6040516020016125e19190615b17565b60408051601f19818403018152919052905060005b600381101561280e57606061260a82612c53565b60405160200161261a91906158d2565b604051602081830303815290604052905060608061264b86856003811061263d57fe5b602002015161ffff16612c53565b60405160200161265b9190615e9a565b60408051601f1981840301815291905290506000612695600461268960ff8d1688830a63ffffffff6133df16565b9063ffffffff612e0f16565b905061269f6141b7565b506040805160808101825260ff83166002811415825260019081106020830181905292820192909252818316909114606082015260005b60048160ff1610156127ca57818160ff16600481106126f157fe5b6020020151156127c25760608a8260ff166004811061270c57fe5b602002015160018084161461273a57604051806040016040528060018152602001600360fc1b81525061273c565b855b60018460ff161161276657604051806040016040528060018152602001600360fc1b815250612768565b865b60405160200161277a93929190615395565b60405160208183030381529060405290508561279e826127998a613b89565b613bb3565b6040516020016127af929190614707565b6040516020818303038152906040529550505b6001016126d6565b506127d786600101612c53565b87856040516020016127eb93929190615917565b6040516020818303038152906040529650505050505080806001019150506125f6565b50600061282560ff8716601063ffffffff6133df16565b15612831576001612854565b61284560ff8716600463ffffffff6133df16565b15612851576002612854565b60045b60ff169050606061286482612c53565b61286d83612c53565b60405160200161287e929190615335565b60408051601f19818403018152828201909152600582527f7175616433000000000000000000000000000000000000000000000000000000602083015291506060906128cf90839061279990613b89565b905083816040516020016128e4929190614707565b6040516020818303038152906040529650505050505050919050565b60608160ff16604051602001612916919061522f565b6040516020818303038152906040529050919050565b6060806040518060600160405280602681526020016169ce60269139905060606040518060a00160405280606281526020016169f460629139905060608560405160200161297a9190615105565b6040516020818303038152906040529050828282876040516020016129a2949392919061477a565b604051602081830303815290604052935050505092915050565b6060806129d0846020015161ffff16612c53565b6040516020016129e09190614ce4565b60405160208183030381529060405290506060612a03856040015160ff16612c53565b604051602001612a139190614ea9565b60405160208183030381529060405290506060612a36866060015160ff16612c53565b604051602001612a4691906156fd565b60408051601f1981840301815291905290506060612a65866001610379565b604051602001612a759190614af4565b60408051601f1981840301815291905290506060612a94876002610379565b604051602001612aa49190615f07565b60408051601f1981840301815291905290506060612ac3886003610379565b604051602001612ad39190614a02565b6040516020818303038152906040529050858585858585604051602001612aff96959493929190616277565b604051602081830303815290604052965050505050505092915050565b606080612b2f8360c0015160ff16612c53565b612b3f8460e0015160ff16612c53565b612b5085610100015160ff16612c53565b612b6186610120015160ff16612c53565b604051602001612b7494939291906159ac565b6040516020818303038152906040529050612b95836080015160ff16612c53565b612ba58460a0015160ff16612c53565b82604051602001612bb893929190614b60565b604051602081830303815290604052915050919050565b6060612bef601083610160015160ff1681612be657fe5b0660ff16612c53565b612c0d601084610160015160ff1681612c0457fe5b0460ff16612c53565b612c1e84610140015160ff16612c53565b60405160200161291693929190614f81565b6060612c4382610180015160ff16612c53565b60405160200161291691906157ae565b606081612c7857506040805180820190915260018152600360fc1b6020820152610751565b8160005b8115612c9057600101600a82049150612c7c565b60608167ffffffffffffffff81118015612ca957600080fd5b506040519080825280601f01601f191660200182016040528015612cd4576020820181803683370190505b50859350905060001982015b8315612d2557600a840660300160f81b82828060019003935081518110612d0357fe5b60200101906001600160f81b031916908160001a905350600a84049350612ce0565b50949350505050565b606061074e82604051602001612d44919061461a565b604051602081830303815290604052613c06565b60408051600380825260808201909252606091600291839160208201838036833701905050905060008085604051602001612d94929190614640565b60408051601f198184030181529190528051602090910120905060005b83811015612e0557804082604051602001612dcd929190614640565b60405160208183030381529060405280519060200120838260010181518110612df257fe5b6020908102919091010152600101612db1565b5090949350505050565b6000612e5183836040518060400160405280601881526020017f536166654d6174683a206d6f64756c6f206279207a65726f0000000000000000815250613dd5565b9392505050565b612e6061411a565b612e6861411a565b612e7061411a565b6040805180820190915280612ea5600160108a82602002015160ff1681612e9357fe5b0660ff166134c290919063ffffffff16565b8152602001612ed4600160108a82602002015160ff1681612ec257fe5b0460ff166134c290919063ffffffff16565b90526040805180820190915290915080612f3a612f02600085815b60200201518c919063ffffffff61311316565b612f2e612f1f60018760005b60200201519063ffffffff6134c216565b6102589063ffffffff6135d216565b9063ffffffff61363616565b8851612fac90612f739060ff16612f2e60c8612f678960005b60200201516102589063ffffffff6135d216565b9063ffffffff6135d216565b600003612f9e8b600060028110612f8657fe5b602002015160ff16612f2e60c8612f678a6000612f53565b8c919063ffffffff61311316565b018152602001612fd1612fc26000856001612eef565b612f2e612f1f60018781612f0e565b885161301990612fee9060ff16612f2e60c8612f67896001612f53565b600003612f9e8b60006002811061300157fe5b602002015160ff16612f2e60c8612f678a6001612f53565b019052925083156130ba5760006130388882600163ffffffff61311316565b905060006130706130516101f48463ffffffff61363616565b6130648b6019602863ffffffff61311316565b9063ffffffff6134c216565b905060405180604001604052808281526020016130ae61309b8461021c61315f90919063ffffffff16565b6130648d600a601963ffffffff61311316565b81525093505050613109565b60408051808201909152855181906130e99060ff168860015b60200201518b919060ff1663ffffffff61311316565b8152602001613104876002602002015160ff168860036130d3565b905291505b5094509492505050565b60008183131561313e5760405162461bcd60e51b815260040161313590616873565b60405180910390fd5b8283830360010161314e86613e09565b8161315557fe5b0601949350505050565b60008183038183128015906131745750838113155b80613189575060008312801561318957508381135b612e515760405162461bcd60e51b8152600401613135906167e1565b60606131af614199565b5060408051606080820183526001825260026020808401919091526019838501529251919290916131e09101615b6f565b60408051601f19818403018152602083019091526000825291506060600386146132195760405180602001604052806000815250613250565b6040518060400160405280601381526020017f656e643d227461726765742e636c69636b2220000000000000000000000000008152505b905082828260405160200161326793929190614735565b604051602081830303815290604052945050505050919050565b606061328b614158565b5060408051608081018252600c8183019081527f302e35203020302e373520310000000000000000000000000000000000000000606083015281528151808301909252600982527f2e342030202e362031000000000000000000000000000000000000000000000060208381019190915281019190915260005b8460ff168160ff16101561338f578260008260ff1611613334576040518060200160405280600081525061334f565b604051806040016040528060018152602001603b60f81b8152505b838660ff166002811061335e57fe5b602002015160405160200161337593929190614735565b60408051601f198184030181529190529250600101613305565b505092915050565b60606133a98787878787876000613eec565b979650505050505050565b60606133d58686868660405180602001604052806000815250876000613eec565b9695505050505050565b6000612e5183836040518060400160405280601a81526020017f536166654d6174683a206469766973696f6e206279207a65726f000000000000815250613ff1565b600082820183811015612e515760405162461bcd60e51b815260040161313590616653565b6000826134555750600061246b565b8282028284828161346257fe5b0414612e515760405162461bcd60e51b815260040161313590616743565b6000612e5183836040518060400160405280601e81526020017f536166654d6174683a207375627472616374696f6e206f766572666c6f770000815250614028565b60008282018183128015906134d75750838112155b806134ec57506000831280156134ec57508381125b612e515760405162461bcd60e51b8152600401613135906166c1565b6060858486855160001461353b57856040516020016135279190614e71565b60405160208183030381529060405261354c565b604051806020016040528060008152505b85604051602001613561959493929190615bc9565b604051602081830303815290604052905095945050505050565b60606135998585856040518060200160405280600081525086613508565b95945050505050565b60606135998585856040518060200160405280600081525060405180602001604052806000815250876000613eec565b6000816135f15760405162461bcd60e51b81526004016131359061683e565b816000191480156136055750600160ff1b83145b156136225760405162461bcd60e51b815260040161313590616702565b600082848161362d57fe5b05949350505050565b6000826136455750600061246b565b826000191480156136595750600160ff1b82145b156136765760405162461bcd60e51b815260040161313590616784565b8282028284828161368357fe5b0514612e515760405162461bcd60e51b815260040161313590616784565b6136a96141d5565b60408051808201918290527fd6c1528b000000000000000000000000000000000000000000000000000000009091528073__$58bf06b23003f263f89da1a87991e621d6$__63d6c1528b61370187876044860161662f565b60206040518083038186803b15801561371957600080fd5b505af415801561372d573d6000803e3d6000fd5b505050506040513d601f19601f820116820180604052508101906137519190614222565b81526020018360ff16815250905092915050565b80516040517f0e99899300000000000000000000000000000000000000000000000000000000815260609160009173__$58bf06b23003f263f89da1a87991e621d6$__91630e998993916137bc9190600401614637565b60206040518083038186803b1580156137d457600080fd5b505af41580156137e8573d6000803e3d6000fd5b505050506040513d601f19601f8201168201806040525081019061380c9190614222565b9050600073__$58bf06b23003f263f89da1a87991e621d6$__63393ca44673__$58bf06b23003f263f89da1a87991e621d6$__63cf94513a73__$58bf06b23003f263f89da1a87991e621d6$__631b5ac4b589600001516040518263ffffffff1660e01b815260040161387f9190614637565b60206040518083038186803b15801561389757600080fd5b505af41580156138ab573d6000803e3d6000fd5b505050506040513d601f19601f820116820180604052508101906138cf9190614222565b6040518263ffffffff1660e01b81526004016138eb9190614637565b60206040518083038186803b15801561390357600080fd5b505af4158015613917573d6000803e3d6000fd5b505050506040513d601f19601f8201168201806040525081019061393b9190614222565b86602001516040518363ffffffff1660e01b815260040161395d92919061662f565b60206040518083038186803b15801561397557600080fd5b505af4158015613989573d6000803e3d6000fd5b505050506040513d601f19601f820116820180604052508101906139ad9190614222565b90506000821315613a6557604051635191620760e11b815273__$b4ae538d42a0e0bb8330684d08e51a40b4$__9063a322c40e906139ef908590600401614637565b60006040518083038186803b158015613a0757600080fd5b505af4158015613a1b573d6000803e3d6000fd5b505050506040513d6000823e601f3d908101601f19168201604052613a43919081019061423a565b604051602001613a5391906146eb565b60405160208183030381529060405292505b6000811315613b4a57826000856020015160ff1611613b0e57604051635191620760e11b815273__$b4ae538d42a0e0bb8330684d08e51a40b4$__9063a322c40e90613ab5908590600401614637565b60006040518083038186803b158015613acd57600080fd5b505af4158015613ae1573d6000803e3d6000fd5b505050506040513d6000823e601f3d908101601f19168201604052613b09919081019061423a565b613b27565b6020850151613b2790839060ff1663ffffffff61405416565b604051602001613b38929190614974565b60405160208183030381529060405292505b5050919050565b6060868587868686604051602001613b6e96959493929190615cad565b60405160208183030381529060405290509695505050505050565b6060816040516020016129169190615ac5565b606061074e60405180602001604052806000815250835b60608251600014613be35782604051602001613bcf9190615525565b604051602081830303815290604052613bf4565b604051806020016040528060008152505b82604051602001612459929190615286565b6060806040518060400160405280601081526020017f303132333435363738394142434445460000000000000000000000000000000081525090506060835160020260020167ffffffffffffffff81118015613c6157600080fd5b506040519080825280601f01601f191660200182016040528015613c8c576020820181803683370190505b509050600360fc1b81600081518110613ca157fe5b60200101906001600160f81b031916908160001a905350600f60fb1b81600181518110613cca57fe5b60200101906001600160f81b031916908160001a90535060005b8451811015613dcd57826004868381518110613cfc57fe5b016020015182517fff0000000000000000000000000000000000000000000000000000000000000090911690911c60f81c908110613d3657fe5b602001015160f81c60f81b828260020260020181518110613d5357fe5b60200101906001600160f81b031916908160001a90535082858281518110613d7757fe5b602091010151815160f89190911c600f16908110613d9157fe5b602001015160f81c60f81b828260020260030181518110613dae57fe5b60200101906001600160f81b031916908160001a905350600101613ce4565b509392505050565b60008183613df65760405162461bcd60e51b81526004016131359190616640565b50828481613e0057fe5b06949350505050565b60006001825111613e2c5760405162461bcd60e51b81526004016131359061668a565b6000600183510383600081518110613e4057fe5b602002602001015160001c81613e5257fe5b0660010190506000838281518110613e6657fe5b6020026020010151604051602001613e7e9190614637565b60405160208183030381529060405280519060200120905083600081518110613ea357fe5b602002602001015160001c60010160001b84600081518110613ec157fe5b60200260200101818152505080848381518110613eda57fe5b60209081029190910101529392505050565b60608787878751600014613f1f5787604051602001613f0b9190614ac0565b604051602081830303815290604052613f30565b604051806020016040528060008152505b875115613f5c5787604051602001613f489190615769565b604051602081830303815290604052613f6d565b604051806020016040528060008152505b86613f875760405180602001604052806000815250613fbe565b6040518060400160405280600f81526020017f222061646469746976653d2273756d00000000000000000000000000000000008152505b88604051602001613fd59796959493929190616143565b6040516020818303038152906040529050979650505050505050565b600081836140125760405162461bcd60e51b81526004016131359190616640565b50600083858161401e57fe5b0495945050505050565b6000818484111561404c5760405162461bcd60e51b81526004016131359190616640565b505050900390565b606061405f836140ab565b905060001982015b80156140a45780600a0a84121561409b57816040516020016140899190614a6e565b60405160208183030381529060405291505b60001901614067565b5092915050565b6060600082126140c3576140be82612c53565b61074e565b6140d8610da18360001963ffffffff61363616565b6040516020016129169190615e9a565b60405180606001604052806140fb61411a565b815260200161410861411a565b8152602001614115614138565b905290565b60405180604001604052806002906020820280368337509192915050565b604080516060810182526000808252602082018190529181019190915290565b60405180604001604052806002905b60608152602001906001900390816141675790505090565b604080516080810190915260608152600360208201614167565b60405180606001604052806003906020820280368337509192915050565b60405180608001604052806004906020820280368337509192915050565b604080518082019091526000808252602082015290565b80356fffffffffffffffffffffffffffffffff8116811461246b57600080fd5b803561246b81616987565b803561246b81616997565b600060208284031215614233578081fd5b5051919050565b60006020828403121561424b578081fd5b815167ffffffffffffffff80821115614262578283fd5b81840185601f820112614273578384fd5b8051925081831115614283578384fd5b614296601f8401601f191660200161690b565b91508282528560208483010111156142ac578384fd5b612d25836020840160208401616932565b6000606082840312156142ce578081fd5b6142d8606061690b565b82516142e381616987565b815260208301516142f381616997565b6020820152604083015161430681616997565b60408201529392505050565b6000806000806000808688036102e081121561432c578283fd5b6102008082121561433b578384fd5b88975087013595505061022086013561435381616962565b93506102c0870188811115614366578283fd5b6102408801935067ffffffffffffffff903581811115614384578384fd5b8089018a601f820112614395578485fd5b80359150828211156143a5578485fd5b8a60208383010111156143b6578485fd5b979a96995094975092956020019492505050565b60006102008083850312156143dd578182fd5b6143e68161690b565b6143f085856141ec565b81526143ff856020860161420c565b60208201526144118560408601614217565b60408201526144238560608601614217565b60608201526144358560808601614217565b60808201526144478560a08601614217565b60a08201526144598560c08601614217565b60c082015261446b8560e08601614217565b60e0820152610100915061448185838601614217565b82820152610120915061449685838601614217565b8282015261014091506144ab85838601614217565b8282015261016091506144c085838601614217565b8282015261018091506144d585838601614217565b828201526101a091506144ea85838601614217565b828201526101c091506144ff85838601614217565b828201526101e0915061451485838601614217565b918101919091529392505050565b600060208284031215614533578081fd5b8135612e5181616997565b60008151808452614556816020860160208601616932565b601f01601f19169290920160200192915050565b6000815161457c818560208601616932565b9290920192915050565b61011160f51b815260020190565b7f3c2f6d657461646174613e0000000000000000000000000000000000000000008152600b0190565b7f222063616c634d6f64653d2273706c696e652220000000000000000000000000815260140190565b61179f60f11b815260020190565b61ffff815116825260ff602082015116602083015260ff60408201511660408301525050565b60609190911b6bffffffffffffffffffffffff1916815260140190565b90815260200190565b918252602082015260400190565b6000838583377f3c646566733e00000000000000000000000000000000000000000000000000008285019081527f3c73796d626f6c2069643d22736861706573223e000000000000000000000000600682015283516146b481601a840160208801616932565b7f3c2f73796d626f6c3e3c2f646566733e00000000000000000000000000000000601a9290910191820152602a0195945050505050565b600082516146fd818460208701616932565b9190910192915050565b60008351614719818460208801616932565b835190830161472c828260208801616932565b01949350505050565b60008451614747818460208901616932565b845190830161475a828260208901616932565b845191810161476d838260208901616932565b9091019695505050505050565b6000855161478c818460208a01616932565b855190830161479f828260208a01616932565b85519181016147b2838260208a01616932565b8551920190506147c6828260208801616932565b7f3c2f7376673e000000000000000000000000000000000000000000000000000091019081526006019695505050505050565b6000825161480b818460208701616932565b7f7300000000000000000000000000000000000000000000000000000000000000920191825250600101919050565b6000835161484c818460208801616932565b808301603b60f81b81528451915061486b826001830160208801616932565b01600101949350505050565b60008451614889818460208901616932565b603b60f81b90830181815285516148a7816001840160208a01616932565b808201836001820152865193506148c5846002830160208a01616932565b909201600201979650505050505050565b600086516148e8818460208b01616932565b603b60f81b9083018181528751614906816001840160208c01616932565b80820183600182015288519250614924836002830160208c01616932565b6002920191820183905250855190614943826003830160208a01616932565b81810183600382015286519350614961846004830160208a01616932565b9092016004019998505050505050505050565b60008351614986818460208801616932565b8083017f2e0000000000000000000000000000000000000000000000000000000000000081528451915061486b826001830160208801616932565b600082516149d3818460208701616932565b7f6d73000000000000000000000000000000000000000000000000000000000000920191825250600201919050565b60007f3c636f6e74726173743e0000000000000000000000000000000000000000000082528251614a3a81600a850160208701616932565b7f3c2f636f6e74726173743e000000000000000000000000000000000000000000600a939091019283015250601501919050565b6000600360fc1b82528251614a8a816001850160208701616932565b9190910160010192915050565b7f3120313b3120313b312e3520312e353b3120313b312031000000000000000000815260170190565b60006b111035b2bcaa34b6b2b99e9160a11b82528251614ae781600c850160208701616932565b91909101600c0192915050565b60007f3c736368656d653e00000000000000000000000000000000000000000000000082528251614b2c816008850160208701616932565b7f3c2f736368656d653e00000000000000000000000000000000000000000000006008939091019283015250601101919050565b60007f3c7368617065733e00000000000000000000000000000000000000000000000082527f3c636f756e743e0000000000000000000000000000000000000000000000000060088301528451614bbe81600f850160208901616932565b8083017f3c2f636f756e743e000000000000000000000000000000000000000000000000600f8201527f3c6861746368696e673e00000000000000000000000000000000000000000000601782015285519150614c22826021830160208901616932565b8181017f3c2f6861746368696e673e00000000000000000000000000000000000000000060218201527f3c73697a653e0000000000000000000000000000000000000000000000000000602c82015285519250614c86836032830160208901616932565b7f3c2f73697a653e0000000000000000000000000000000000000000000000000092016032810192909252507f3c2f7368617065733e0000000000000000000000000000000000000000000000603982015260420195945050505050565b60007f3c6875653e00000000000000000000000000000000000000000000000000000082528251614d1c816005850160208701616932565b7f3c2f6875653e00000000000000000000000000000000000000000000000000006005939091019283015250600b01919050565b60007f3c746f6b656e3e0000000000000000000000000000000000000000000000000082527f3c69643e0000000000000000000000000000000000000000000000000000000060078301528351614dae81600b850160208801616932565b8083017f3c2f69643e000000000000000000000000000000000000000000000000000000600b8201527f3c6f776e65723e00000000000000000000000000000000000000000000000000601082015284519150614e12826017830160208801616932565b8181017f3c2f6f776e65723e00000000000000000000000000000000000000000000000060178201527f3c2f746f6b656e3e000000000000000000000000000000000000000000000000601f8201526027810193505050509392505050565b60007f222063616c634d6f64653d22000000000000000000000000000000000000000082528251614ae781600c850160208701616932565b60007f3c73617475726174696f6e3e000000000000000000000000000000000000000082528251614ee181600c850160208701616932565b7f3c2f73617475726174696f6e3e00000000000000000000000000000000000000600c939091019283015250601901919050565b60007f3c72656e64657265642d61743e0000000000000000000000000000000000000082528251614f4d81600d850160208701616932565b7f3c2f72656e64657265642d61743e000000000000000000000000000000000000600d939091019283015250601b01919050565b60007f3c706c6163656d656e743e00000000000000000000000000000000000000000082527f3c726f77733e0000000000000000000000000000000000000000000000000000600b8301528451614fdf816011850160208901616932565b8083017f3c2f726f77733e0000000000000000000000000000000000000000000000000060118201527f3c636f6c756d6e733e0000000000000000000000000000000000000000000000601882015285519150615043826021830160208901616932565b8181017f3c2f636f6c756d6e733e0000000000000000000000000000000000000000000060218201527f3c7370726561643e000000000000000000000000000000000000000000000000602b820152855192506150a7836033830160208901616932565b7f3c2f7370726561643e000000000000000000000000000000000000000000000092016033810192909252507f3c2f706c6163656d656e743e0000000000000000000000000000000000000000603c82015260480195945050505050565b60007f3c73766720786d6c6e733d22687474703a2f2f7777772e77332e6f72672f323082527f30302f7376672220786d6c6e733a786c696e6b3d22687474703a2f2f7777772e60208301527f77332e6f72672f313939392f786c696e6b222077696474683d2231303025222060408301527f6865696768743d2231303025222076696577426f783d2230203020323430302060608301527f3234303022207374796c653d227374726f6b652d77696474683a303b00000000608083015282516151d581609c850160208701616932565b7f6d617267696e3a206175746f3b6865696768743a202d7765626b69742d66696c609c9390910192830152507f6c2d617661696c61626c65223e0000000000000000000000000000000000000060bc82015260c901919050565b7f6261636b67726f756e642d636f6c6f723a68736c28302c30252c0000000000008152601a8101919091527f25293b0000000000000000000000000000000000000000000000000000000000603a820152603d0190565b60007f3c67000000000000000000000000000000000000000000000000000000000000825283516152be816002850160208801616932565b8083017f3e000000000000000000000000000000000000000000000000000000000000006002820152845191506152fc826003830160208801616932565b8181017f3c2f673e0000000000000000000000000000000000000000000000000000000060038201526007810193505050509392505050565b6000650e6c6c2d8ca560d31b82528351615356816006850160208801616932565b808301600160fd1b600682015284519150615378826007830160208801616932565b818101602960f81b60078201526008810193505050509392505050565b6000650e6c6c2d8ca560d31b825284516153b6816006850160208901616932565b8083017f29207472616e736c6174652800000000000000000000000000000000000000006006820152855191506153f4826012830160208901616932565b818101600160fd1b601282015285519250615416836013830160208901616932565b602960f81b920160138101929092525060140195945050505050565b60007f3020303b000000000000000000000000000000000000000000000000000000008252855161546a816004850160208a01616932565b808301600160fd1b9150816004820152865161548d816005840160208b01616932565b8082017f3b3020303b0000000000000000000000000000000000000000000000000000006005820152875192506154cb83600a830160208b01616932565b82810191505082600a820152855192506154ec83600b830160208901616932565b7f3b302030000000000000000000000000000000000000000000000000000000009201600b81019290925250600f019695505050505050565b60007f207472616e73666f726d3d2200000000000000000000000000000000000000008252825161555d81600c850160208701616932565b7f2200000000000000000000000000000000000000000000000000000000000000600c939091019283015250600d01919050565b600061303b60f01b825284516155ae816002850160208901616932565b808301603b60f81b915081600282015285516155d1816003840160208a01616932565b808201836003820152865193506155ef846004830160208a01616932565b613b3160f01b93016004810193909352505060060195945050505050565b600061303b60f01b8252835161562a816002850160208801616932565b808301603b60f81b60028201528451915061564c826003830160208801616932565b8181017f3b3336300000000000000000000000000000000000000000000000000000000060038201526007810193505050509392505050565b600061303b60f01b825283516156a2816002850160208801616932565b808301603b60f81b6002820152845191506156c4826003830160208801616932565b8181017f3b3336303b3336300000000000000000000000000000000000000000000000006003820152600b810193505050509392505050565b60007f3c6c696768746e6573733e0000000000000000000000000000000000000000008252825161573581600b850160208701616932565b7f3c2f6c696768746e6573733e0000000000000000000000000000000000000000600b939091019283015250601701919050565b60007f222063616c634d6f64653d2273706c696e6522206b657953706c696e65733d22825282516157a1816020850160208701616932565b9190910160200192915050565b60007f3c6d6972726f723e00000000000000000000000000000000000000000000000082527f3c6d6972726f722d6d6f64653e000000000000000000000000000000000000006008830152825161580c816015850160208701616932565b7f3c2f6d6972726f722d6d6f64653e00000000000000000000000000000000000060159390910192830152507f3c2f6d6972726f723e00000000000000000000000000000000000000000000006023820152602c01919050565b60007f3c636f6e74726163743e000000000000000000000000000000000000000000008252825161589e81600a850160208701616932565b7f3c2f636f6e74726163743e000000000000000000000000000000000000000000600a939091019283015250601501919050565b60007f71756164000000000000000000000000000000000000000000000000000000008252825161590a816004850160208701616932565b9190910160040192915050565b60007f3c73796d626f6c2069643d2271756164000000000000000000000000000000008252845161594f816010850160208901616932565b80830161111f60f11b601082015285519150615972826012830160208901616932565b8451918101615988836012830160208901616932565b681e17b9bcb6b137b61f60b91b9201601281019290925250601b0195945050505050565b60007f3c77696474683e00000000000000000000000000000000000000000000000000825285516159e4816007850160208a01616932565b808301602d60f81b91508160078201528651615a07816008840160208b01616932565b8082017f3c2f77696474683e00000000000000000000000000000000000000000000000060088201527f3c6865696768743e000000000000000000000000000000000000000000000000601082015287519250615a6b836018830160208b01616932565b82810191505082601882015285519250615a8c836019830160208901616932565b7f3c2f6865696768743e000000000000000000000000000000000000000000000092016019810192909252506022019695505050505050565b60007f3c75736520786c696e6b3a687265663d2223000000000000000000000000000082528251615afd816012850160208701616932565b6211179f60e91b6012939091019283015250601501919050565b60007f3c73796d626f6c2069643d227175616430223e0000000000000000000000000082528251615b4f816013850160208701616932565b681e17b9bcb6b137b61f60b91b6013939091019283015250601c01919050565b7f726570656174436f756e743d220000000000000000000000000000000000000081527f696e646566696e69746500000000000000000000000000000000000000000000600d82015261011160f51b601782015260190190565b60007f3c616e696d617465206174747269627574654e616d653d22000000000000000082528651615c01816018850160208b01616932565b8083016911103b30b63ab2b99e9160b11b601882015287519150615c2c826022830160208b01616932565b818101661110323ab91e9160c91b602282015287519250615c54836029830160208b01616932565b865192019050615c6b826029830160208901616932565b81810161011160f51b602982015285519250615c8e83602b830160208901616932565b61179f60f11b9201602b81019290925250602d01979650505050505050565b60007f3c616e696d617465206174747269627574654e616d653d22000000000000000082528751615ce5816018850160208c01616932565b8083016911103b30b63ab2b99e9160b11b601882015288519150615d10826022830160208c01616932565b818101661110323ab91e9160c91b602282015288519250615d38836029830160208c01616932565b8281019150506b111035b2bcaa34b6b2b99e9160a11b602982015286519150615d68826035830160208a01616932565b8181017f22206b657953706c696e65733d22000000000000000000000000000000000000603582015286519250615da6836043830160208a01616932565b61029c615dc0615dba6043868501016145bd565b8861456a565b6145e6565b60007f3c616e696d617465643e0000000000000000000000000000000000000000000082528351615dfd81600a850160208801616932565b8083017f3c2f616e696d617465643e000000000000000000000000000000000000000000600a8201527f3c616e696d6174696f6e3e000000000000000000000000000000000000000000601582015284519150615e61826020830160208801616932565b8181017f3c2f616e696d6174696f6e3e00000000000000000000000000000000000000006020820152602c810193505050509392505050565b6000602d60f81b82528251614a8a816001850160208701616932565b600061111f60f11b82528251615ed3816002850160208701616932565b7f3c2f726563743e000000000000000000000000000000000000000000000000006002939091019283015250600901919050565b60007f3c7368616465733e00000000000000000000000000000000000000000000000082528251615f3f816008850160208701616932565b7f3c2f7368616465733e00000000000000000000000000000000000000000000006008939091019283015250601101919050565b600063181d981760e11b82528251615f92816004850160208701616932565b7f3b302e393b3100000000000000000000000000000000000000000000000000006004939091019283015250600a01919050565b600063181d981760e11b82528351615fe5816004850160208801616932565b8083017f3b302e0000000000000000000000000000000000000000000000000000000000600482015284519150616023826007830160208801616932565b818101613b3160f01b60078201526009810193505050509392505050565b60007f3c6d657461646174613e0000000000000000000000000000000000000000000082528a5161607981600a850160208f01616932565b8a5161608e81600a8487010160208f01616932565b8a5191840181016160a683600a830160208f01616932565b8a51920190506160bd82600a830160208d01616932565b88516160d281600a8585010160208d01616932565b885192820181016160ea84600a830160208d01616932565b8851925061610183600a8684010160208c01616932565b875193018201905061611a83600a830160208a01616932565b61613161612c600a858401018861456a565b614594565b9e9d5050505050505050505050505050565b60007f3c616e696d6174655472616e73666f726d206174747269627574654e616d653d825260207f227472616e73666f726d2220617474726962757465547970653d22584d4c2220818401527f747970653d220000000000000000000000000000000000000000000000000000604084015289516161c78160468601848e01616932565b808401661110323ab91e9160c91b60468201528a5191506161ee82604d8301858e01616932565b8181016911103b30b63ab2b99e9160b11b604d8201528a5192506162188360578301868e01616932565b89519201905061622e8260578301858c01616932565b87519181016162438360578301868c01616932565b616266615dc061626061625b6057878601018c61456a565b614586565b8961456a565b9d9c50505050505050505050505050565b60007f3c636f6c6f723e0000000000000000000000000000000000000000000000000082526007885160206162b182848701838e01616932565b89519185016162c583858301848e01616932565b89519281016162d984868301858e01616932565b8951930190506162ee83858301848c01616932565b875192810161630284868301858c01616932565b87519301905061631783858301848a01616932565b7f3c2f636f6c6f723e00000000000000000000000000000000000000000000000092019283019190915250600f0198975050505050505050565b60007f3c7265637420783d22000000000000000000000000000000000000000000000082528751616389816009850160208c01616932565b8083017f2220793d220000000000000000000000000000000000000000000000000000006009820152885191506163c782600e830160208c01616932565b8181017f222077696474683d220000000000000000000000000000000000000000000000600e82015288519250616405836017830160208c01616932565b8281019150507f22206865696768743d2200000000000000000000000000000000000000000000601782015286519150616446826021830160208a01616932565b8181017f22207472616e73666f726d2d6f726967696e3d2233303020333030222073747960218201527f6c653d2266696c6c3a0000000000000000000000000000000000000000000000604182015261029c6164a5604a83018961456a565b8761456a565b60007f3c73657474696e67733e0000000000000000000000000000000000000000000082527f3c626b673e000000000000000000000000000000000000000000000000000000600a830152845161650981600f850160208901616932565b8083017f3c2f626b673e0000000000000000000000000000000000000000000000000000600f8201527f3c6475726174696f6e3e0000000000000000000000000000000000000000000060158201528551915061656d82601f830160208901616932565b8181017f3c2f6475726174696f6e3e000000000000000000000000000000000000000000601f8201527f3c6f7074696f6e733e0000000000000000000000000000000000000000000000602a820152855192506165d1836033830160208901616932565b7f3c2f6f7074696f6e733e0000000000000000000000000000000000000000000092016033810192909252507f3c2f73657474696e67733e000000000000000000000000000000000000000000603d82015260480195945050505050565b91825260ff16602082015260400190565b600060208252612e51602083018461453e565b6020808252601b908201527f536166654d6174683a206164646974696f6e206f766572666c6f770000000000604082015260600190565b60208082526019908201527f52616e646f6d2e6e6578743a20696e76616c696420706f6f6c00000000000000604082015260600190565b60208082526021908201527f5369676e6564536166654d6174683a206164646974696f6e206f766572666c6f6040820152607760f81b606082015260800190565b60208082526021908201527f5369676e6564536166654d6174683a206469766973696f6e206f766572666c6f6040820152607760f81b606082015260800190565b60208082526021908201527f536166654d6174683a206d756c7469706c69636174696f6e206f766572666c6f6040820152607760f81b606082015260800190565b60208082526027908201527f5369676e6564536166654d6174683a206d756c7469706c69636174696f6e206f60408201527f766572666c6f7700000000000000000000000000000000000000000000000000606082015260800190565b60208082526024908201527f5369676e6564536166654d6174683a207375627472616374696f6e206f76657260408201527f666c6f7700000000000000000000000000000000000000000000000000000000606082015260800190565b6020808252818101527f5369676e6564536166654d6174683a206469766973696f6e206279207a65726f604082015260600190565b6020808252818101527f52616e646f6d2e756e69666f726d3a20696e76616c696420696e74657276616c604082015260600190565b6060810161246b82846145f4565b6000610100820190506168ca8286516145f4565b60ff602086015116606083015260ff604086015116608083015260ff60608601511660a083015260ff841660c083015260ff831660e0830152949350505050565b60405181810167ffffffffffffffff8111828210171561692a57600080fd5b604052919050565b60005b8381101561694d578181015183820152602001616935565b8381111561695c576000848401525b50505050565b73ffffffffffffffffffffffffffffffffffffffff8116811461698457600080fd5b50565b61ffff8116811461698457600080fd5b60ff8116811461698457600080fdfe303b302e313b302e323b302e333b302e343b302e353b302e363b302e373b302e383b302e393b313c3f786d6c2076657273696f6e3d22312e302220656e636f64696e673d225554462d38223f3e3c21444f435459504520737667205055424c494320222d2f2f5733432f2f4454442053564720312e312f2f454e222022687474703a2f2f7777772e77332e6f72672f47726170686963732f5356472f312e312f4454442f73766731312e647464223e303b37323b37323b3134343b3134343b3231363b3231363b3237383b3237383b3336303b333630303b302e3132353b302e32353b302e3337353b302e353b302e3632353b302e383b302e3932353b31a264697066735822122070453eb48274be669224b7cb2c54734c66090909cbb097bd78e8fc229e096c4c64736f6c63430006080033",
  "linkReferences": {
    "contracts/libraries/Colors.sol": {
      "Colors": [
        {
          "length": 20,
          "start": 1633
        },
        {
          "length": 20,
          "start": 9127
        }
      ]
    },
    "contracts/libraries/FixidityLib.sol": {
      "FixidityLib": [
        {
          "length": 20,
          "start": 14082
        },
        {
          "length": 20,
          "start": 14268
        },
        {
          "length": 20,
          "start": 14393
        },
        {
          "length": 20,
          "start": 14419
        },
        {
          "length": 20,
          "start": 14445
        }
      ]
    },
    "contracts/libraries/Utils.sol": {
      "Utils": [
        {
          "length": 20,
          "start": 4097
        },
        {
          "length": 20,
          "start": 4272
        },
        {
          "length": 20,
          "start": 4921
        },
        {
          "length": 20,
          "start": 5079
        },
        {
          "length": 20,
          "start": 5655
        },
        {
          "length": 20,
          "start": 5813
        },
        {
          "length": 20,
          "start": 6864
        },
        {
          "length": 20,
          "start": 7023
        },
        {
          "length": 20,
          "start": 8526
        },
        {
          "length": 20,
          "start": 8669
        },
        {
          "length": 20,
          "start": 8813
        },
        {
          "length": 20,
          "start": 8959
        },
        {
          "length": 20,
          "start": 14830
        },
        {
          "length": 20,
          "start": 15028
        }
      ]
    }
  },
  "deployedLinkReferences": {
    "contracts/libraries/Colors.sol": {
      "Colors": [
        {
          "length": 20,
          "start": 1594
        },
        {
          "length": 20,
          "start": 9088
        }
      ]
    },
    "contracts/libraries/FixidityLib.sol": {
      "FixidityLib": [
        {
          "length": 20,
          "start": 14043
        },
        {
          "length": 20,
          "start": 14229
        },
        {
          "length": 20,
          "start": 14354
        },
        {
          "length": 20,
          "start": 14380
        },
        {
          "length": 20,
          "start": 14406
        }
      ]
    },
    "contracts/libraries/Utils.sol": {
      "Utils": [
        {
          "length": 20,
          "start": 4058
        },
        {
          "length": 20,
          "start": 4233
        },
        {
          "length": 20,
          "start": 4882
        },
        {
          "length": 20,
          "start": 5040
        },
        {
          "length": 20,
          "start": 5616
        },
        {
          "length": 20,
          "start": 5774
        },
        {
          "length": 20,
          "start": 6825
        },
        {
          "length": 20,
          "start": 6984
        },
        {
          "length": 20,
          "start": 8487
        },
        {
          "length": 20,
          "start": 8630
        },
        {
          "length": 20,
          "start": 8774
        },
        {
          "length": 20,
          "start": 8920
        },
        {
          "length": 20,
          "start": 14791
        },
        {
          "length": 20,
          "start": 14989
        }
      ]
    }
  }
}