{
  "_format": "hh-sol-artifact-1",
  "contractName": "TinyBoxesRenderer",
  "sourceName": "contracts/TinyBoxesRenderer.sol",
  "abi": [
    {
      "inputs": [
        {
          "components": [
            {
              "internalType": "uint128",
              "name": "randomness",
              "type": "uint128"
            },
            {
              "internalType": "uint16",
              "name": "hue",
              "type": "uint16"
            },
            {
              "internalType": "uint8",
              "name": "saturation",
              "type": "uint8"
            },
            {
              "internalType": "uint8",
              "name": "lightness",
              "type": "uint8"
            },
            {
              "internalType": "uint8",
              "name": "shapes",
              "type": "uint8"
            },
            {
              "internalType": "uint8",
              "name": "hatching",
              "type": "uint8"
            },
            {
              "internalType": "uint8",
              "name": "widthMin",
              "type": "uint8"
            },
            {
              "internalType": "uint8",
              "name": "widthMax",
              "type": "uint8"
            },
            {
              "internalType": "uint8",
              "name": "heightMin",
              "type": "uint8"
            },
            {
              "internalType": "uint8",
              "name": "heightMax",
              "type": "uint8"
            },
            {
              "internalType": "uint8",
              "name": "spread",
              "type": "uint8"
            },
            {
              "internalType": "uint8",
              "name": "grid",
              "type": "uint8"
            },
            {
              "internalType": "uint8",
              "name": "mirroring",
              "type": "uint8"
            },
            {
              "internalType": "uint8",
              "name": "bkg",
              "type": "uint8"
            },
            {
              "internalType": "uint8",
              "name": "duration",
              "type": "uint8"
            },
            {
              "internalType": "uint8",
              "name": "options",
              "type": "uint8"
            }
          ],
          "internalType": "struct TinyBox",
          "name": "box",
          "type": "tuple"
        },
        {
          "internalType": "uint256",
          "name": "id",
          "type": "uint256"
        },
        {
          "internalType": "address",
          "name": "owner",
          "type": "address"
        },
        {
          "internalType": "uint8[4]",
          "name": "dVals",
          "type": "uint8[4]"
        },
        {
          "internalType": "string",
          "name": "_slot",
          "type": "string"
        }
      ],
      "name": "perpetualRenderer",
      "outputs": [
        {
          "internalType": "string",
          "name": "",
          "type": "string"
        }
      ],
      "stateMutability": "view",
      "type": "function"
    }
  ],
  "bytecode": "0x615ffe62000027600b82828239805160001a60731461001a57fe5b30600052607381538281f3fe73000000000000000000000000000000000000000030146080604052600436106100355760003560e01c8063bb02cf9e1461003a575b600080fd5b61004d610048366004614021565b610063565b60405161005a9190615c3d565b60405180910390f35b6060806100b38560048060200260405190810160405280929190826004602002808284376000920191909152508a91508990506100a5368d90038d018d6140e4565b92919063ffffffff6102b416565b60408051602081019091526000808252919250905b6100d860a08b0160808c0161423c565b60ff168110156101c9576100ea613e00565b610128826100fd368e90038e018e6140e4565b604080516080818101909252908c9060049083908390808284376000920191909152506104ab915050565b90508261019d8260088e6101e0016020810190610145919061423c565b60ff168161014f57fe5b0660ff16600014156101705760405180602001604052806000815250610198565b6101988e80360381019061018491906140e4565b61019160208e018e61423c565b8688610702565b611f79565b6040516020016101ae92919061442a565b60408051601f198184030181529190529250506001016100c8565b5060608585836040516020016101e19392919061439e565b60408051601f198184030181529190529050606061020f61020a6101a08d016101808e0161423c565b6122bf565b90506102a5600260088d6101e001602081019061022c919061423c565b60ff168161023657fe5b0460ff168161024157fe5b0660ff1660011461026b576102666102616101c08e016101a08f0161423c565b6126fe565b61027c565b604051806020016040528060008152505b85848460405160200161029193929190614458565b60405160208183030381529060405261272a565b9b9a5050505050505050505050565b6060806102c1868661273f565b905060606102ce8761289f565b905060606102db88612952565b905060606102e8896129b3565b9050606060028a6101e0015160ff16816102fe57fe5b0660ff1660011461032c576040518060400160405280600581526020016466616c736560d81b81525061034a565b604051806040016040528060048152602001637472756560e01b8152505b61035e8a60005b602002015160ff166129d6565b60405160200161036f92919061559a565b60408051601f198184030181529190529050606061038c896129d6565b61039589612ab1565b6040516020016103a6929190614b19565b604051602081830303815290604052905060606103c230612ab1565b6040516020016103d29190615170565b604051602081830303815290604052905060606103f68d6101a0015160ff166129d6565b6104078e6101c0015160ff166129d6565b6104188f6101e0015160ff166129d6565b60405160200161042a93929190615b0e565b60405160208183030381529060405290506060610446426129d6565b6040516020016104569190614c54565b604051602081830303815290604052905082818584888d8d8d8d6040516020016104889998979695949392919061575f565b60405160208183030381529060405299505050505050505050505b949350505050565b6104b3613e00565b60606104cb84600001516001600160801b0316612adb565b90506000808560a0015160ff161180156104fb575060a08501516104f990879060ff1663ffffffff612b9216565b155b9050610505613e32565b61050d613e32565b60408051808201825261014089015160ff90811682526101608a01518116602080840191909152835160808101855260c08c01518316815260e08c01518316918101919091526101008b01518216938101939093526101208a015116606083015261057b9186919086612bdb565b909250905060006105948582600363ffffffff612e9616565b905060006105c6816105b860018b6002602002015160ff169063ffffffff612ee216565b88919063ffffffff612e9616565b90506105d0613e50565b6040805160e0810182526020808d015161ffff1660808301908152928d015160ff90811660a084015260608e01511660c083015291815273__$a185ab8a6ec48aeccbe1b994ec885343b2$__9163629fe50c919081018c6003602002015160ff1681526020018c60026004811061064357fe5b602002015160ff1681526020018c60016004811061065d57fe5b602002015160ff1681525085856040518463ffffffff1660e01b815260040161068893929190615e84565b60606040518083038186803b1580156106a057600080fd5b505af41580156106b4573d6000803e3d6000fd5b505050506040513d601f19601f820116820180604052508101906106d89190613fcc565b60408051606081018252968752602087019590955293850193909352509198975050505050505050565b60608061072e6000876101c0015160ff161161071f57600a610726565b866101c001515b60ff166129d6565b60405160200161073e919061449d565b6040516020818303038152906040529050606061077c60086002896101e0015160ff168161076857fe5b0460ff168161077357fe5b0660ff16612f28565b905060ff86166108145761080b60405180604001604052806006815260200165726f7461746560d01b815250836040518060400160405280600f81526020016e0303b39303b39303b3336303b33363608c1b8152506040518060400160405280600f81526020016e303b302e323b302e333b302e393b3160881b81525061080560046000612ffa565b866130eb565b925050506104a3565b8560ff16600114156108a15761080b60405180604001604052806006815260200165726f7461746560d01b81525083604051806040016040528060118152602001700303b3138303b3138303b3336303b33363607c1b8152506040518060400160405280600f81526020016e303b302e343b302e353b302e393b3160881b81525061080560046000612ffa565b8560ff166002141561092e5761080b60405180604001604052806006815260200165726f7461746560d01b81525083604051806040016040528060118152602001700303b3237303b3237303b3336303b33363607c1b8152506040518060400160405280600f81526020016e303b302e363b302e373b302e393b3160881b81525061080560046000612ffa565b8560ff16600314156109d55761080b60405180604001604052806006815260200165726f7461746560d01b815250836040518060400160405280601981526020017f303b3132303b3132303b3234303b3234303b3336303b333630000000000000008152506040518060400160405280601f81526020017f303b302e3136363b302e3333333b302e353b302e3636363b302e3833333b310081525061080560066000612ffa565b8560ff1660041415610a5f5761080b60405180604001604052806006815260200165726f7461746560d01b815250836040518060400160405280601f81526020017f303b39303b39303b3138303b3138303b3237303b3237303b3336303b33363000815250604051806060016040528060288152602001615fa16028913961080560086000612ffa565b8560ff1660051415610acc5761080b60405180604001604052806006815260200165726f7461746560d01b81525083604051806060016040528060278152602001615f7a60279139604051806060016040528060278152602001615f5360279139610805600a6000612ffa565b8560ff1660061415610b3b5761080b60405180604001604052806006815260200165726f7461746560d01b81525083604051806040016040528060058152602001640303b3336360dc1b81525060405180604001604052806003815260200162303b3160e81b81525085613108565b8560ff1660071415610bb95761080b60405180604001604052806006815260200165726f7461746560d01b815250836040518060400160405280600c81526020016b0303b39303b3237303b3336360a41b8152506040518060400160405280600b81526020016a303b302e313b302e393b3160a81b81525085613108565b8560ff1660081415610c885761080b60405180604001604052806006815260200165726f7461746560d01b815250610c31866001018a6080015160ff1660008c6101c0015160ff1611610c0d57600a610c14565b8b6101c001515b60ff166103e80261ffff1681610c2657fe5b0461ffff16026129d6565b604051602001610c41919061462d565b60408051601f19818403018152828201825260058352640303b3336360dc1b60208481019190915282518084019093526003835262303b3160e81b90830152919085613108565b8560ff1660091415610d71576000610cb2886080015160ff1661012c61313390919063ffffffff16565b90506060610cdf610cda83610cce89600163ffffffff61317516565b9063ffffffff61319a16565b6129d6565b905060608182604051602001610cf6929190614fa5565b6040516020818303038152906040529050610d6560405180604001604052806006815260200165726f7461746560d01b81525086836040518060400160405280600f81526020016e303b302e353b302e363b302e393b3160881b815250610d5f60046000612ffa565b896130eb565b955050505050506104a3565b8560ff16600a1415610e7f576060610db2610cda610da18a6080015160ff1661012c61313390919063ffffffff16565b610cce88600163ffffffff61317516565b90506000610dff610df0610dd88b6080015160ff1661032061313390919063ffffffff16565b60808c0151610cce9060ff168a63ffffffff6131d416565b6103849063ffffffff6131d416565b90506060610e0c826129d6565b604051602001610e1c91906156c2565b6040516020818303038152906040529050610d6560405180604001604052806006815260200165726f7461746560d01b815250868586604051602001610e63929190614f46565b60405160208183030381529060405284610d5f60036000612ffa565b8560ff16600b14156111e357610e93613e32565b5060408051808201909152600a8082526020820152610eb0613e70565b60005b60028110156110895787516000908260028110610ecc57fe5b602002015190506060610ef6858460028110610ee457fe5b6020020151839063ffffffff612ee216565b604051635191620760e11b815273__$b4ae538d42a0e0bb8330684d08e51a40b4$__9163a322c40e91610f2c9190600401614387565b60006040518083038186803b158015610f4457600080fd5b505af4158015610f58573d6000803e3d6000fd5b505050506040513d6000823e601f3d908101601f19168201604052610f809190810190613f49565b90506060610fa5868560028110610f9357fe5b6020020151849063ffffffff61321616565b604051635191620760e11b815273__$b4ae538d42a0e0bb8330684d08e51a40b4$__9163a322c40e91610fdb9190600401614387565b60006040518083038186803b158015610ff357600080fd5b505af4158015611007573d6000803e3d6000fd5b505050506040513d6000823e601f3d908101601f1916820160405261102f9190810190613f49565b9050831561103d578061103f565b815b841561104b578261104d565b815b60405160200161105e9291906144c2565b60405160208183030381529060405285856002811061107957fe5b6020020152505050600101610eb3565b50611120604051806040016040528060018152602001600f60fb1b8152506110dc610cda600a60008e6101c0015160ff16116110c657600a6110cd565b8d6101c001515b60ff169063ffffffff61313316565b6040516020016110ec919061449d565b60408051808303601f1901815282825285518383019092526008835267646973637265746560c01b6020840152918761325c565b6111b8604051806040016040528060018152602001607960f81b815250611171610cda600560008f6101c0015160ff161161115c57600a6110cd565b8e6101c0015160ff169063ffffffff61313316565b604051602001611181919061449d565b60408051808303601f190181528282526020808801518484019093526008845267646973637265746560c01b90840152918861325c565b6040516020016111c992919061442a565b6040516020818303038152906040529450505050506104a3565b8560ff16600c14156114c15760056111f9613e70565b60005b60028110156113bf578751600090826002811061121557fe5b60200201519050606061122e828663ffffffff612ee216565b604051635191620760e11b815273__$b4ae538d42a0e0bb8330684d08e51a40b4$__9163a322c40e916112649190600401614387565b60006040518083038186803b15801561127c57600080fd5b505af4158015611290573d6000803e3d6000fd5b505050506040513d6000823e601f3d908101601f191682016040526112b89190810190613f49565b905060606112cc838763ffffffff61321616565b604051635191620760e11b815273__$b4ae538d42a0e0bb8330684d08e51a40b4$__9163a322c40e916113029190600401614387565b60006040518083038186803b15801561131a57600080fd5b505af415801561132e573d6000803e3d6000fd5b505050506040513d6000823e601f3d908101601f191682016040526113569190810190613f49565b905083156113645780611366565b815b84156113725782611374565b815b85156113805782611382565b835b604051602001611394939291906144ff565b6040516020818303038152906040528585600281106113af57fe5b60200201525050506001016111fc565b50611441604051806040016040528060018152602001600f60fb1b815250611412610cda601460008e6101c0015160ff16116113fc57600a611403565b8d6101c001515b60ff169063ffffffff61319a16565b604051602001611422919061462d565b60408051601f198184030181529190528360005b6020020151866132cf565b6111b8604051806040016040528060018152602001607960f81b815250611492610cda601460008f6101c0015160ff161161147d57600a611403565b8e6101c0015160ff169063ffffffff61319a16565b6040516020016114a2919061462d565b60408051601f198184030181529190528460015b6020020151876132cf565b8560ff16600d14156117075760056114d7613e70565b60005b600281101561168e57875160009082600281106114f357fe5b60200201519050606061150c828663ffffffff612ee216565b604051635191620760e11b815273__$b4ae538d42a0e0bb8330684d08e51a40b4$__9163a322c40e916115429190600401614387565b60006040518083038186803b15801561155a57600080fd5b505af415801561156e573d6000803e3d6000fd5b505050506040513d6000823e601f3d908101601f191682016040526115969190810190613f49565b905060606115aa838763ffffffff61321616565b604051635191620760e11b815273__$b4ae538d42a0e0bb8330684d08e51a40b4$__9163a322c40e916115e09190600401614387565b60006040518083038186803b1580156115f857600080fd5b505af415801561160c573d6000803e3d6000fd5b505050506040513d6000823e601f3d908101601f191682016040526116349190810190613f49565b905083156116425780611644565b815b84156116505782611652565b815b6040516020016116639291906144c2565b60405160208183030381529060405285856002811061167e57fe5b60200201525050506001016114da565b506116cb604051806040016040528060018152602001600f60fb1b815250611412610cda601960008e6101c0015160ff16116113fc57600a611403565b6111b8604051806040016040528060018152602001607960f81b815250611492610cda601960008f6101c0015160ff161161147d57600a611403565b8560ff16600e141561179a5761080b604051806040016040528060058152602001647363616c6560d81b815250836040518060400160405280601b81526020017f3120313b312e3520312e353b3120313b302e3520302e353b312031000000000081525060405180604001604052806011815260200170303b302e32353b302e353b302e37353b3160781b8152506132f6565b8560ff16600f14156118e75760076117b0613e70565b60005b6002811015611893576000886020015182600281106117ce57fe5b6020020151905060606117e0826129d6565b90506060611807610cda6117fa858963ffffffff61313316565b859063ffffffff6131d416565b9050606061182e610cda611821868a63ffffffff61313316565b869063ffffffff61317516565b905082851561183d578161183f565b825b84871561184c578461184e565b835b8660405160200161186395949392919061455e565b60405160208183030381529060405286866002811061187e57fe5b60200201525050600190920191506117b39050565b506040805180820190915260058152640eed2c8e8d60db1b60208201526118bd9085836000611436565b6040805180820190915260068152651a195a59da1d60d21b60208201526111b890868460016114b6565b8560ff16601014156119385761080b604051806040016040528060028152602001610e4f60f31b81525083604051806040016040528060078152602001660303b3130303b360cc1b815250846132cf565b8560ff1660111415611ae1576014606061195960008363ffffffff61321616565b604051635191620760e11b815273__$b4ae538d42a0e0bb8330684d08e51a40b4$__9163a322c40e9161198f9190600401614387565b60006040518083038186803b1580156119a757600080fd5b505af41580156119bb573d6000803e3d6000fd5b505050506040513d6000823e601f3d908101601f191682016040526119e39190810190613f49565b905060606119f860008463ffffffff612ee216565b604051635191620760e11b815273__$b4ae538d42a0e0bb8330684d08e51a40b4$__9163a322c40e91611a2e9190600401614387565b60006040518083038186803b158015611a4657600080fd5b505af4158015611a5a573d6000803e3d6000fd5b505050506040513d6000823e601f3d908101601f19168201604052611a829190810190613f49565b9050606081828485604051602001611a9d9493929190614e21565b60408051601f1981840301815282820190915260098252687472616e736c61746560b81b60208301529150611ad4908783886132f6565b96505050505050506104a3565b8560ff1660121415611c31576060604051602001611afe906147c6565b60405160208183030381529060405290506000611b30896080015160010160ff1661271061332690919063ffffffff16565b90506000611b67611b58611b4b89600163ffffffff61321616565b849063ffffffff61338a16565b6127109063ffffffff612ee216565b90506060611b84611b7f83600463ffffffff6133f516565b6134a0565b90506060611bac611b7f6004611ba0868863ffffffff612ee216565b9063ffffffff6133f516565b90506060611bc8611b7f6004611ba0878963ffffffff61321616565b90506060828483604051602001611be193929190614eca565b60408051601f1981840301815282820190915260058252647363616c6560d81b60208301529150611c21908a8984611c1b60046000612ffa565b8d6130eb565b99505050505050505050506104a3565b8560ff1660131415611d2b576000611c76611c5e896080015160ff1661019061313390919063ffffffff16565b60808a0151610cce9060ff168863ffffffff6131d416565b90506000611c9c610df0610dd88b6080015160ff1661019061313390919063ffffffff16565b90506060611ca9836129d6565b611cb2836129d6565b604051602001611cc39291906156fe565b6040516020818303038152906040529050610d65604051806040016040528060078152602001666f70616369747960c81b8152508660405180604001604052806007815260200166313b303b303b3160c81b81525084611d2560036000612ffa565b89613873565b8560ff1660141415611d825761080b604051806040016040528060058152602001640e6d6caeeb60db1b815250836040518060400160405280600a8152602001690303b35303b2d35303b360b41b815250846132f6565b8560ff1660151415611dd95761080b60405180604001604052806005815260200164736b65775960d81b815250836040518060400160405280600a8152602001690303b35303b2d35303b360b41b815250846132f6565b8560ff1660161415611ec95761080b604051806040016040528060058152602001640e6d6caeeb60db1b815250611e3a610cda600260008c6101c0015160ff1611611e2557600a6110cd565b8b6101c0015160ff169063ffffffff61313316565b604051602001611e4a919061449d565b60408051601f198184030181528282018252601d83527f303b2d36343b33323b2d31363b383b2d343b323b2d313b2e353b303b300000006020848101919091528251808401909352601e83527f303b2e313b2e323b2e333b2e343b2e353b2e363b2e373b2e383b2e393b310000908301529190610805600a6000612ffa565b8560ff1660171415611f6f5761080b604051806040016040528060058152602001640e6d6caeeb60db1b815250836040518060400160405280601e81526020017f303b31363b2d31323b383b2d343b323b2d313b2e353b2d2e32353b303b3000008152506040518060400160405280601e81526020017f303b2e313b2e323b2e333b2e343b2e353b2e363b2e373b2e383b2e393b310000815250610805600a6001612ffa565b5050949350505050565b815151604051635191620760e11b815260609173__$b4ae538d42a0e0bb8330684d08e51a40b4$__9163a322c40e91611fb491600401614387565b60006040518083038186803b158015611fcc57600080fd5b505af4158015611fe0573d6000803e3d6000fd5b505050506040513d6000823e601f3d908101601f191682016040526120089190810190613f49565b835160200151604051635191620760e11b815273__$b4ae538d42a0e0bb8330684d08e51a40b4$__9163a322c40e916120449190600401614387565b60006040518083038186803b15801561205c57600080fd5b505af4158015612070573d6000803e3d6000fd5b505050506040513d6000823e601f3d908101601f191682016040526120989190810190613f49565b602085015151604051635191620760e11b815273__$b4ae538d42a0e0bb8330684d08e51a40b4$__9163a322c40e916120d49190600401614387565b60006040518083038186803b1580156120ec57600080fd5b505af4158015612100573d6000803e3d6000fd5b505050506040513d6000823e601f3d908101601f191682016040526121289190810190613f49565b6020868101510151604051635191620760e11b815273__$b4ae538d42a0e0bb8330684d08e51a40b4$__9163a322c40e916121669190600401614387565b60006040518083038186803b15801561217e57600080fd5b505af4158015612192573d6000803e3d6000fd5b505050506040513d6000823e601f3d908101601f191682016040526121ba9190810190613f49565b6040808801519051637d21c4af60e11b815273__$a185ab8a6ec48aeccbe1b994ec885343b2$__9163fa43895e916121f59190600401615e76565b60006040518083038186803b15801561220d57600080fd5b505af4158015612221573d6000803e3d6000fd5b505050506040513d6000823e601f3d908101601f191682016040526122499190810190613f49565b86511561227557866040516020016122619190615643565b604051602081830303815290604052612292565b6040518060400160405280600381526020016211179f60e91b8152505b6040516020016122a796959493929190615a1a565b60405160208183030381529060405290505b92915050565b60606122c9613e97565b506040805160c0810182526003608082019081526231203160e81b60a08301528152815180830183526004808252632d31203160e01b60208381019190915280840192909252835180850185529081526331202d3160e01b8183015282840152825180840190935260058352642d31202d3160d81b908301526060810191909152612352613eb1565b604051806060016040528061025861ffff1681526020016104b061ffff16815260200161096061ffff16815250905060606123d2604051806020016040528060008152506123cd604051806020016040528060008152506040518060400160405280600681526020016573686170657360d01b8152506138ab565b6138fe565b6040516020016123e29190615331565b60408051601f19818403018152919052905060005b600381101561261757606061240b826129d6565b60405160200161241b91906151b7565b604051602081830303815290604052905060608061244c86856003811061243e57fe5b602002015161ffff166129d6565b60405160200161245c9190615627565b60408051601f1981840301815291905290506000612496600461248a60ff8d1688830a63ffffffff61313316565b9063ffffffff612b9216565b90506124a0613ecf565b506040805160808101825260ff83166002811415825260019081106020830181905292820192909252818316909114606082015260005b60048160ff1610156125d357818160ff16600481106124f257fe5b6020020151156125cb5760608a8260ff166004811061250d57fe5b602002015160018084161461253b57604051806040016040528060018152602001600360fc1b81525061253d565b855b60018460ff161161256757604051806040016040528060018152602001600360fc1b815250612569565b865b60405160200161257b9392919061472d565b60408051601f198184030181526020830190915260008252915086906125a79083906123cd908b6138ab565b6040516020016125b892919061442a565b6040516020818303038152906040529550505b6001016124d7565b506125e0866001016129d6565b87856040516020016125f4939291906151e3565b6040516020818303038152906040529650505050505080806001019150506123f7565b50600061262e60ff8716601063ffffffff61313316565b1561263a57600161265d565b61264e60ff8716600463ffffffff61313316565b1561265a57600261265d565b60045b60ff169050606061266d826129d6565b612676836129d6565b6040516020016126879291906146c3565b60408051601f19818403018152602083810183526000845282518084019093526005835264717561643360d81b9083015292506060916126cc9184916123cd916138ab565b905083816040516020016126e192919061442a565b60405160208183030381529060405296505050505050505b919050565b60608160ff166040516020016127149190614d85565b6040516020818303038152906040529050919050565b606082826040516020016122a7929190614982565b606080612753846020015161ffff166129d6565b6040516020016127639190614945565b60405160208183030381529060405290506060612786856040015160ff166129d6565b6040516020016127969190614c09565b604051602081830303815290604052905060606127b9866060015160ff166129d6565b6040516020016127c99190615008565b60408051601f19818403018152919052905060606127e8866001610351565b6040516020016127f89190614824565b60408051601f1981840301815291905290506060612817876002610351565b604051602001612827919061567f565b60408051601f1981840301815291905290506060612846886003610351565b6040516020016128569190614653565b60405160208183030381529060405290508585858585856040516020016128829695949392919061596b565b604051602081830303815290604052965050505050505092915050565b6060806128b28360c0015160ff166129d6565b6128c28460e0015160ff166129d6565b6128d385610100015160ff166129d6565b6128e486610120015160ff166129d6565b6040516020016128f7949392919061526c565b6040516020818303038152906040529050612918836080015160ff166129d6565b6129288460a0015160ff166129d6565b8260405160200161293b93929190614867565b604051602081830303815290604052915050919050565b6060612972601083610160015160ff168161296957fe5b0660ff166129d6565b612990601084610160015160ff168161298757fe5b0460ff166129d6565b6129a184610140015160ff166129d6565b60405160200161271493929190614ca1565b60606129c682610180015160ff166129d6565b6040516020016127149190615100565b6060816129fb57506040805180820190915260018152600360fc1b60208201526126f9565b8160005b8115612a1357600101600a820491506129ff565b60608167ffffffffffffffff81118015612a2c57600080fd5b506040519080825280601f01601f191660200182016040528015612a57576020820181803683370190505b50859350905060001982015b8315612aa857600a840660300160f81b82828060019003935081518110612a8657fe5b60200101906001600160f81b031916908160001a905350600a84049350612a63565b50949350505050565b60606122b982604051602001612ac7919061436a565b604051602081830303815290604052613951565b60408051600380825260808201909252606091600291839160208201838036833701905050905060008085604051602001612b17929190614390565b60408051601f198184030181529190528051602090910120905060005b83811015612b8857804082604051602001612b50929190614390565b60405160208183030381529060405280519060200120838260010181518110612b7557fe5b6020908102919091010152600101612b34565b5090949350505050565b6000612bd483836040518060400160405280601881526020017f536166654d6174683a206d6f64756c6f206279207a65726f0000000000000000815250613afb565b9392505050565b612be3613e32565b612beb613e32565b612bf3613e32565b6040805180820190915280612c28600160108a82602002015160ff1681612c1657fe5b0660ff1661321690919063ffffffff16565b8152602001612c57600160108a82602002015160ff1681612c4557fe5b0460ff1661321690919063ffffffff16565b90526040805180820190915290915080612cbd612c85600085815b60200201518c919063ffffffff612e9616565b612cb1612ca260018760005b60200201519063ffffffff61321616565b6102589063ffffffff61332616565b9063ffffffff61338a16565b8851612d2f90612cf69060ff16612cb160c8612cea8960005b60200201516102589063ffffffff61332616565b9063ffffffff61332616565b600003612d218b600060028110612d0957fe5b602002015160ff16612cb160c8612cea8a6000612cd6565b8c919063ffffffff612e9616565b018152602001612d54612d456000856001612c72565b612cb1612ca260018781612c91565b8851612d9c90612d719060ff16612cb160c8612cea896001612cd6565b600003612d218b600060028110612d8457fe5b602002015160ff16612cb160c8612cea8a6001612cd6565b01905292508315612e3d576000612dbb8882600163ffffffff612e9616565b90506000612df3612dd46101f48463ffffffff61338a16565b612de78b6019602863ffffffff612e9616565b9063ffffffff61321616565b90506040518060400160405280828152602001612e31612e1e8461021c612ee290919063ffffffff16565b612de78d600a601963ffffffff612e9616565b81525093505050612e8c565b6040805180820190915285518190612e6c9060ff168860015b60200201518b919060ff1663ffffffff612e9616565b8152602001612e87876002602002015160ff16886003612e56565b905291505b5094509492505050565b600081831315612ec15760405162461bcd60e51b8152600401612eb890615e41565b60405180910390fd5b82838303600101612ed186613b2f565b81612ed857fe5b0601949350505050565b6000818303818312801590612ef75750838113155b80612f0c5750600083128015612f0c57508381135b612bd45760405162461bcd60e51b8152600401612eb890615dc8565b6060612f32613eb1565b506040805160608082018352600182526002602080840191909152601983850152925191929091612f639101615380565b60408051601f1981840301815260208301909152600082529150606060038614612f9c5760405180602001604052806000815250612fc9565b60405180604001604052806013815260200172032b7321e913a30b933b2ba1731b634b1b5911606d1b8152505b9050828282604051602001612fe093929190614458565b604051602081830303815290604052945050505050919050565b6060613004613e70565b5060408051608081018252600c8183019081526b302e35203020302e3735203160a01b60608301528152815180830190925260098252682e342030202e36203160b81b60208381019190915281019190915260005b8460ff168160ff1610156130e3578260008260ff161161308857604051806020016040528060008152506130a3565b604051806040016040528060018152602001603b60f81b8152505b838660ff16600281106130b257fe5b60200201516040516020016130c993929190614458565b60408051601f198184030181529190529250600101613059565b505092915050565b60606130fd8787878787876000613c12565b979650505050505050565b60606131298686868660405180602001604052806000815250876000613c12565b9695505050505050565b6000612bd483836040518060400160405280601a81526020017f536166654d6174683a206469766973696f6e206279207a65726f000000000000815250613d09565b600082820183811015612bd45760405162461bcd60e51b8152600401612eb890615c50565b6000826131a9575060006122b9565b828202828482816131b657fe5b0414612bd45760405162461bcd60e51b8152600401612eb890615d40565b6000612bd483836040518060400160405280601e81526020017f536166654d6174683a207375627472616374696f6e206f766572666c6f770000815250613d40565b600082820181831280159061322b5750838112155b80613240575060008312801561324057508381125b612bd45760405162461bcd60e51b8152600401612eb890615cbe565b6060858486855160001461328f578560405160200161327b9190614bb3565b6040516020818303038152906040526132a0565b604051806020016040528060008152505b856040516020016132b59594939291906153b7565b604051602081830303815290604052905095945050505050565b60606132ed858585604051806020016040528060008152508661325c565b95945050505050565b60606132ed8585856040518060200160405280600081525060405180602001604052806000815250876000613c12565b6000816133455760405162461bcd60e51b8152600401612eb890615e0c565b816000191480156133595750600160ff1b83145b156133765760405162461bcd60e51b8152600401612eb890615cff565b600082848161338157fe5b05949350505050565b600082613399575060006122b9565b826000191480156133ad5750600160ff1b82145b156133ca5760405162461bcd60e51b8152600401612eb890615d81565b828202828482816133d757fe5b0514612bd45760405162461bcd60e51b8152600401612eb890615d81565b6133fd613eed565b604080518082019182905263d6c1528b60e01b9091528073__$58bf06b23003f263f89da1a87991e621d6$__63d6c1528b61343c878760448601615c2c565b60206040518083038186803b15801561345457600080fd5b505af4158015613468573d6000803e3d6000fd5b505050506040513d601f19601f8201168201806040525081019061348c9190613f31565b81526020018360ff16815250905092915050565b8051604051630e99899360e01b815260609160009173__$58bf06b23003f263f89da1a87991e621d6$__91630e998993916134de9190600401614387565b60206040518083038186803b1580156134f657600080fd5b505af415801561350a573d6000803e3d6000fd5b505050506040513d601f19601f8201168201806040525081019061352e9190613f31565b9050600073__$58bf06b23003f263f89da1a87991e621d6$__63393ca44673__$58bf06b23003f263f89da1a87991e621d6$__63cf94513a73__$58bf06b23003f263f89da1a87991e621d6$__631b5ac4b589600001516040518263ffffffff1660e01b81526004016135a19190614387565b60206040518083038186803b1580156135b957600080fd5b505af41580156135cd573d6000803e3d6000fd5b505050506040513d601f19601f820116820180604052508101906135f19190613f31565b6040518263ffffffff1660e01b815260040161360d9190614387565b60206040518083038186803b15801561362557600080fd5b505af4158015613639573d6000803e3d6000fd5b505050506040513d601f19601f8201168201806040525081019061365d9190613f31565b86602001516040518363ffffffff1660e01b815260040161367f929190615c2c565b60206040518083038186803b15801561369757600080fd5b505af41580156136ab573d6000803e3d6000fd5b505050506040513d601f19601f820116820180604052508101906136cf9190613f31565b9050600082131561378757604051635191620760e11b815273__$b4ae538d42a0e0bb8330684d08e51a40b4$__9063a322c40e90613711908590600401614387565b60006040518083038186803b15801561372957600080fd5b505af415801561373d573d6000803e3d6000fd5b505050506040513d6000823e601f3d908101601f191682016040526137659190810190613f49565b604051602001613775919061440e565b60405160208183030381529060405292505b600081131561386c57826000856020015160ff161161383057604051635191620760e11b815273__$b4ae538d42a0e0bb8330684d08e51a40b4$__9063a322c40e906137d7908590600401614387565b60006040518083038186803b1580156137ef57600080fd5b505af4158015613803573d6000803e3d6000fd5b505050506040513d6000823e601f3d908101601f1916820160405261382b9190810190613f49565b613849565b602085015161384990839060ff1663ffffffff613d6c16565b60405160200161385a9291906145fc565b60405160208183030381529060405292505b5050919050565b606086858786868660405160200161389096959493929190615496565b60405160208183030381529060405290509695505050505050565b606081516000146138db57816040516020016138c79190615bf2565b6040516020818303038152906040526138ec565b604051806020016040528060008152505b836040516020016122a7929190615051565b6060825160001461392e578260405160200161391a9190614bdb565b60405160208183030381529060405261393f565b604051806020016040528060008152505b826040516020016122a7929190614dc2565b6060806040518060400160405280601081526020016f181899199a1a9b1b9c1ca0a121a222a360811b81525090506060835160020260020167ffffffffffffffff8111801561399f57600080fd5b506040519080825280601f01601f1916602001820160405280156139ca576020820181803683370190505b509050600360fc1b816000815181106139df57fe5b60200101906001600160f81b031916908160001a905350600f60fb1b81600181518110613a0857fe5b60200101906001600160f81b031916908160001a90535060005b8451811015613af357826004868381518110613a3a57fe5b016020015182516001600160f81b031990911690911c60f81c908110613a5c57fe5b602001015160f81c60f81b828260020260020181518110613a7957fe5b60200101906001600160f81b031916908160001a90535082858281518110613a9d57fe5b602091010151815160f89190911c600f16908110613ab757fe5b602001015160f81c60f81b828260020260030181518110613ad457fe5b60200101906001600160f81b031916908160001a905350600101613a22565b509392505050565b60008183613b1c5760405162461bcd60e51b8152600401612eb89190615c3d565b50828481613b2657fe5b06949350505050565b60006001825111613b525760405162461bcd60e51b8152600401612eb890615c87565b6000600183510383600081518110613b6657fe5b602002602001015160001c81613b7857fe5b0660010190506000838281518110613b8c57fe5b6020026020010151604051602001613ba49190614387565b60405160208183030381529060405280519060200120905083600081518110613bc957fe5b602002602001015160001c60010160001b84600081518110613be757fe5b60200260200101818152505080848381518110613c0057fe5b60209081029190910101529392505050565b60608787878751600014613c455787604051602001613c3191906147ef565b604051602081830303815290604052613c56565b604051806020016040528060008152505b875115613c825787604051602001613c6e91906150bb565b604051602081830303815290604052613c93565b604051806020016040528060008152505b86613cad5760405180602001604052806000815250613cd6565b6040518060400160405280600f81526020016e222061646469746976653d2273756d60881b8152505b88604051602001613ced979695949392919061584e565b6040516020818303038152906040529050979650505050505050565b60008183613d2a5760405162461bcd60e51b8152600401612eb89190615c3d565b506000838581613d3657fe5b0495945050505050565b60008184841115613d645760405162461bcd60e51b8152600401612eb89190615c3d565b505050900390565b6060613d7783613dc3565b905060001982015b8015613dbc5780600a0a841215613db35781604051602001613da1919061469a565b60405160208183030381529060405291505b60001901613d7f565b5092915050565b606060008212613ddb57613dd6826129d6565b6122b9565b613df0610cda8360001963ffffffff61338a16565b6040516020016127149190615627565b6040518060600160405280613e13613e32565b8152602001613e20613e32565b8152602001613e2d613e50565b905290565b60405180604001604052806002906020820280368337509192915050565b604080516060810182526000808252602082018190529181019190915290565b60405180604001604052806002905b6060815260200190600190039081613e7f5790505090565b604080516080810190915260608152600360208201613e7f565b60405180606001604052806003906020820280368337509192915050565b60405180608001604052806004906020820280368337509192915050565b604080518082019091526000808252602082015290565b80356001600160801b03811681146122b957600080fd5b80356122b981615f30565b80356122b981615f43565b600060208284031215613f42578081fd5b5051919050565b600060208284031215613f5a578081fd5b815167ffffffffffffffff80821115613f71578283fd5b81840185601f820112613f82578384fd5b8051925081831115613f92578384fd5b613fa5601f8401601f1916602001615ed9565b9150828252856020848301011115613fbb578384fd5b612aa8836020840160208401615f00565b600060608284031215613fdd578081fd5b613fe76060615ed9565b8251613ff281615f30565b8152602083015161400281615f43565b6020820152604083015161401581615f43565b60408201529392505050565b6000806000806000808688036102e081121561403b578283fd5b6102008082121561404a578384fd5b8897508701359550506102208601356001600160a01b038116811461406d578283fd5b93506102c0870188811115614080578283fd5b6102408801935067ffffffffffffffff90358181111561409e578384fd5b8089018a601f8201126140af578485fd5b80359150828211156140bf578485fd5b8a60208383010111156140d0578485fd5b979a96995094975092956020019492505050565b60006102008083850312156140f7578182fd5b61410081615ed9565b61410a8585613f04565b81526141198560208601613f1b565b602082015261412b8560408601613f26565b604082015261413d8560608601613f26565b606082015261414f8560808601613f26565b60808201526141618560a08601613f26565b60a08201526141738560c08601613f26565b60c08201526141858560e08601613f26565b60e0820152610100915061419b85838601613f26565b8282015261012091506141b085838601613f26565b8282015261014091506141c585838601613f26565b8282015261016091506141da85838601613f26565b8282015261018091506141ef85838601613f26565b828201526101a0915061420485838601613f26565b828201526101c0915061421985838601613f26565b828201526101e0915061422e85838601613f26565b918101919091529392505050565b60006020828403121561424d578081fd5b8135612bd481615f43565b60008151808452614270816020860160208601615f00565b601f01601f19169290920160200192915050565b60008151614296818560208601615f00565b9290920192915050565b61011160f51b815260020190565b6a1e17b6b2ba30b230ba309f60a91b8152600b0190565b730111031b0b631a6b7b2329e9139b83634b73291160651b815260140190565b7f6d617267696e3a206175746f3b6865696768743a202d7765626b69742d66696c81526c3616b0bb30b4b630b13632911f60991b6020820152602d0190565b61179f60f11b815260020190565b651e17b9bb339f60d11b815260060190565b61ffff815116825260ff602082015116602083015260ff60408201511660408301525050565b60609190911b6bffffffffffffffffffffffff1916815260140190565b90815260200190565b918252602082015260400190565b600083858337651e3232b3399f60d11b828501908152731e39bcb6b137b61034b21e9139b430b832b9911f60611b600682015283516143e481601a840160208801615f00565b6f1e17b9bcb6b137b61f1e17b232b3399f60811b601a9290910191820152602a0195945050505050565b60008251614420818460208701615f00565b9190910192915050565b6000835161443c818460208801615f00565b835190830161444f828260208801615f00565b01949350505050565b6000845161446a818460208901615f00565b845190830161447d828260208901615f00565b8451918101614490838260208901615f00565b9091019695505050505050565b600082516144af818460208701615f00565b607360f81b920191825250600101919050565b600083516144d4818460208801615f00565b808301603b60f81b8152845191506144f3826001830160208801615f00565b01600101949350505050565b60008451614511818460208901615f00565b603b60f81b908301818152855161452f816001840160208a01615f00565b8082018360018201528651935061454d846002830160208a01615f00565b909201600201979650505050505050565b60008651614570818460208b01615f00565b603b60f81b908301818152875161458e816001840160208c01615f00565b808201836001820152885192506145ac836002830160208c01615f00565b60029201918201839052508551906145cb826003830160208a01615f00565b818101836003820152865193506145e9846004830160208a01615f00565b9092016004019998505050505050505050565b6000835161460e818460208801615f00565b808301601760f91b8152845191506144f3826001830160208801615f00565b6000825161463f818460208701615f00565b616d7360f01b920191825250600201919050565b6000691e31b7b73a3930b9ba1f60b11b8252825161467881600a850160208701615f00565b6a1e17b1b7b73a3930b9ba1f60a91b600a939091019283015250601501919050565b6000600360fc1b825282516146b6816001850160208701615f00565b9190910160010192915050565b700e8e4c2dce6ccdee4da7a44e6c6c2d8ca5607b1b815282516000906146f0816011850160208801615f00565b808301600160fd1b601182015284519150614712826012830160208801615f00565b61149160f11b91016012810191909152601401949350505050565b700e8e4c2dce6ccdee4da7a44e6c6c2d8ca5607b1b8152835160009061475a816011850160208901615f00565b8083016b05240e8e4c2dce6d8c2e8ca560a31b60118201528551915061478782601d830160208901615f00565b818101600160fd1b601d820152855192506147a983601e830160208901615f00565b61149160f11b9201601e8101929092525060200195945050505050565b7f3120313b3120313b312e3520312e353b3120313b312031000000000000000000815260170190565b6b111035b2bcaa34b6b2b99e9160a11b8152815160009061481781600c850160208701615f00565b91909101600c0192915050565b6000671e39b1b432b6b29f60c11b82528251614847816008850160208701615f00565b681e17b9b1b432b6b29f60b91b6008939091019283015250601101919050565b6000671e39b430b832b99f60c11b8252661e31b7bab73a1f60c91b6008830152845161489a81600f850160208901615f00565b808301671e17b1b7bab73a1f60c11b600f820152691e3430ba31b434b7339f60b11b6017820152855191506148d6826021830160208901615f00565b8181016a1e17b430ba31b434b7339f60a91b6021820152651e39b4bd329f60d11b602c82015285519250614911836032830160208901615f00565b661e17b9b4bd329f60c91b9201603281019290925250681e17b9b430b832b99f60b91b603982015260420195945050505050565b6000641e343ab29f60d91b82528251614965816005850160208701615f00565b651e17b43ab29f60d11b6005939091019283015250600b01919050565b7f3c3f786d6c2076657273696f6e3d22312e302220656e636f64696e673d22555481526523169c111f9f60d11b60208201527f3c21444f435459504520737667205055424c494320222d2f2f5733432f2f445460268201527f442053564720312e312f2f454e222022687474703a2f2f7777772e77332e6f7260468201527f672f47726170686963732f5356472f312e312f4454442f73766731312e647464606682015261111f60f11b60868201527f3c73766720786d6c6e733d22687474703a2f2f7777772e77332e6f72672f323060888201527f30302f7376672220786d6c6e733a786c696e6b3d22687474703a2f2f7777772e60a88201527f77332e6f72672f313939392f786c696e6b222077696474683d2231303025222060c88201527f6865696768743d2231303025222076696577426f783d2230203020323430302060e88201527f3234303022207374796c653d227374726f6b652d77696474683a303b0000000061010882015260006104a3614b14614b0e614b09610124860188614284565b6142e5565b85614284565b614332565b6000661e3a37b5b2b71f60c91b8252631e34b21f60e11b60078301528351614b4881600b850160208801615f00565b808301641e17b4b21f60d91b600b820152661e37bbb732b91f60c91b601082015284519150614b7e826017830160208801615f00565b818101671e17b7bbb732b91f60c11b6017820152671e17ba37b5b2b71f60c11b601f8201526027810193505050509392505050565b6b111031b0b631a6b7b2329e9160a11b8152815160009061481781600c850160208701615f00565b6000600160fd1b8083528351614bf8816001860160208801615f00565b600193019283015250600201919050565b60006b1e39b0ba3ab930ba34b7b71f60a11b82528251614c3081600c850160208701615f00565b6c1e17b9b0ba3ab930ba34b7b71f60991b600c939091019283015250601901919050565b60006c1e3932b73232b932b216b0ba1f60991b82528251614c7c81600d850160208701615f00565b6d1e17b932b73232b932b216b0ba1f60911b600d939091019283015250601b01919050565b60006a1e383630b1b2b6b2b73a1f60a91b8252651e3937bbb99f60d11b600b8301528451614cd6816011850160208901615f00565b808301661e17b937bbb99f60c91b6011820152681e31b7b63ab6b7399f60b91b601882015285519150614d10826021830160208901615f00565b818101691e17b1b7b63ab6b7399f60b11b6021820152671e39b83932b0b21f60c11b602b82015285519250614d4c836033830160208901615f00565b681e17b9b83932b0b21f60b91b92016033810192909252506b1e17b83630b1b2b6b2b73a1f60a11b603c82015260480195945050505050565b7f6261636b67726f756e642d636f6c6f723a68736c28302c30252c0000000000008152601a8101919091526225293b60e81b603a820152603d0190565b6000613c6760f01b82528351614ddf816002850160208801615f00565b808301601f60f91b600282015284519150614e01826003830160208801615f00565b818101631e17b39f60e11b60038201526007810193505050509392505050565b6000633020303b60e01b82528551614e40816004850160208a01615f00565b808301600160fd1b91508160048201528651614e63816005840160208b01615f00565b808201643b3020303b60d81b600582015287519250614e8983600a830160208b01615f00565b82810191505082600a82015285519250614eaa83600b830160208901615f00565b6303b3020360e41b9201600b81019290925250600f019695505050505050565b600061303b60f01b82528451614ee7816002850160208901615f00565b808301603b60f81b91508160028201528551614f0a816003840160208a01615f00565b80820183600382015286519350614f28846004830160208a01615f00565b613b3160f01b93016004810193909352505060060195945050505050565b600061303b60f01b82528351614f63816002850160208801615f00565b808301603b60f81b600282015284519150614f85826003830160208801615f00565b8181016303b3336360e41b60038201526007810193505050509392505050565b600061303b60f01b82528351614fc2816002850160208801615f00565b808301603b60f81b600282015284519150614fe4826003830160208801615f00565b8181016703b3336303b3336360c41b6003820152600b810193505050509392505050565b60006a1e3634b3b43a3732b9b99f60a91b8252825161502e81600b850160208701615f00565b6b1e17b634b3b43a3732b9b99f60a11b600b939091019283015250601701919050565b60006401e3ab9b2960dd1b82528351615071816005850160208801615f00565b6c786c696e6b3a687265663d222360981b60059184019182015283519061509f826012830160208801615f00565b6211179f60e91b91016012810191909152601501949350505050565b60007f222063616c634d6f64653d2273706c696e6522206b657953706c696e65733d22825282516150f3816020850160208701615f00565b9190910160200192915050565b6000671e36b4b93937b91f60c11b82526c1e36b4b93937b916b6b7b2329f60991b60088301528251615139816015850160208701615f00565b6d1e17b6b4b93937b916b6b7b2329f60911b6015939091019283015250681e17b6b4b93937b91f60b91b6023820152602c01919050565b6000691e31b7b73a3930b1ba1f60b11b8252825161519581600a850160208701615f00565b6a1e17b1b7b73a3930b1ba1f60a91b600a939091019283015250601501919050565b6000631c5d585960e21b825282516151d6816004850160208701615f00565b9190910160040192915050565b6f0f1cde5b589bdb081a590f489c5d585960821b8152835160009061520f816010850160208901615f00565b61111f60f11b601091840191820152845190615232826012830160208901615f00565b8451918101615248836012830160208901615f00565b681e17b9bcb6b137b61f60b91b9201601281019290925250601b0195945050505050565b6000661e3bb4b23a341f60c91b8252855161528e816007850160208a01615f00565b808301602d60f81b915081600782015286516152b1816008840160208b01615f00565b808201671e17bbb4b23a341f60c11b6008820152671e3432b4b3b43a1f60c11b6010820152875192506152eb836018830160208b01615f00565b8281019150508260188201528551925061530c836019830160208901615f00565b681e17b432b4b3b43a1f60b91b92016019810192909252506022019695505050505050565b721e39bcb6b137b61034b21e9138bab0b218111f60691b81528151600090615360816013850160208701615f00565b681e17b9bcb6b137b61f60b91b6013939091019283015250601c01919050565b6c3932b832b0ba21b7bab73a1e9160991b815269696e646566696e69746560b01b600d82015261011160f51b601782015260190190565b6000771e30b734b6b0ba329030ba3a3934b13aba32a730b6b29e9160411b825286516153ea816018850160208b01615f00565b6911103b30b63ab2b99e9160b11b601891840191820152865190615415826022830160208b01615f00565b661110323ab91e9160c91b60229282019283015286519161543d836029830160208b01615f00565b865192019050615454826029830160208901615f00565b61011160f51b60299282019283015284519161547783602b830160208901615f00565b61179f60f11b9201602b81019290925250602d01979650505050505050565b6000771e30b734b6b0ba329030ba3a3934b13aba32a730b6b29e9160411b825287516154c9816018850160208c01615f00565b6911103b30b63ab2b99e9160b11b6018918401918201528751906154f4826022830160208c01615f00565b661110323ab91e9160c91b60229282019283015287519161551c836029830160208c01615f00565b8281019150506b111035b2bcaa34b6b2b99e9160a11b60298201528651915061554c826035830160208a01615f00565b6d111035b2bca9b83634b732b99e9160911b60359282019283015285519161557b836043830160208a01615f00565b6102a561559561558f6043868501016142c5565b88614284565b614324565b6000691e30b734b6b0ba32b21f60b11b825283516155bf81600a850160208801615f00565b8083016a1e17b0b734b6b0ba32b21f60a91b600a8201526a1e30b734b6b0ba34b7b71f60a91b6015820152845191506155ff826020830160208801615f00565b8181016b1e17b0b734b6b0ba34b7b71f60a11b6020820152602c810193505050509392505050565b6000602d60f81b825282516146b6816001850160208701615f00565b61111f60f11b81528151600090615661816002850160208701615f00565b661e17b932b1ba1f60c91b6002939091019283015250600901919050565b6000671e39b430b232b99f60c11b825282516156a2816008850160208701615f00565b681e17b9b430b232b99f60b91b6008939091019283015250601101919050565b600063181d981760e11b825282516156e1816004850160208701615f00565b653b302e393b3160d01b6004939091019283015250600a01919050565b600063181d981760e11b8252835161571d816004850160208801615f00565b808301621d981760e91b600482015284519150615741826007830160208801615f00565b818101613b3160f01b60078201526009810193505050509392505050565b6000691e36b2ba30b230ba309f60b11b82528a5161578481600a850160208f01615f00565b8a5161579981600a8487010160208f01615f00565b8a5191840181016157b183600a830160208f01615f00565b8a51920190506157c882600a830160208d01615f00565b88516157dd81600a8585010160208d01615f00565b885192820181016157f584600a830160208d01615f00565b8851925061580c83600a8684010160208c01615f00565b875193018201905061582583600a830160208a01615f00565b61583c615837600a8584010188614284565b6142ae565b9e9d5050505050505050505050505050565b60007f3c616e696d6174655472616e73666f726d206174747269627574654e616d653d825260207f227472616e73666f726d2220617474726962757465547970653d22584d4c222081840152653a3cb8329e9160d11b604084015289516158bb8160468601848e01615f00565b661110323ab91e9160c91b6046918501918201528951906158e282604d8301858e01615f00565b6911103b30b63ab2b99e9160b11b604d9282019283015289519161590c8360578301868e01615f00565b8951920190506159228260578301858c01615f00565b87519181016159378360578301868c01615f00565b61595a61559561595461594f6057878601018c614284565b6142a0565b89614284565b9d9c50505050505050505050505050565b6000661e31b7b637b91f60c91b825260078851602061598f82848701838e01615f00565b89519185016159a383858301848e01615f00565b89519281016159b784868301858e01615f00565b8951930190506159cc83858301848c01615f00565b87519281016159e084868301858c01615f00565b8751930190506159f583858301848a01615f00565b671e17b1b7b637b91f60c11b92019283019190915250600f0198975050505050505050565b681e3932b1ba103c1e9160b91b81528651600090615a3f816009850160208c01615f00565b6411103c9e9160d91b600991840191820152875190615a6582600e830160208c01615f00565b6811103bb4b23a341e9160b91b600e92820192830152875191615a8f836017830160208c01615f00565b8281019150506911103432b4b3b43a1e9160b11b601782015286519150615abd826021830160208a01615f00565b8181017f22207472616e73666f726d2d6f726967696e3d2233303020333030222073747960218201526836329e913334b6361d60b91b60418201526102a5615b08604a830189614284565b87614284565b6000691e39b2ba3a34b733b99f60b11b8252641e3135b39f60d91b600a8301528451615b4181600f850160208901615f00565b808301651e17b135b39f60d11b600f820152691e323ab930ba34b7b71f60b11b601582015285519150615b7b82601f830160208901615f00565b8181016a1e17b23ab930ba34b7b71f60a91b601f820152681e37b83a34b7b7399f60b91b602a82015285519250615bb9836033830160208901615f00565b691e17b7b83a34b7b7399f60b11b92016033810192909252506a1e17b9b2ba3a34b733b99f60a91b603d82015260480195945050505050565b641034b21e9160d91b81528151600090615c13816005850160208701615f00565b61011160f51b6005939091019283015250600701919050565b91825260ff16602082015260400190565b600060208252612bd46020830184614258565b6020808252601b908201527f536166654d6174683a206164646974696f6e206f766572666c6f770000000000604082015260600190565b60208082526019908201527f52616e646f6d2e6e6578743a20696e76616c696420706f6f6c00000000000000604082015260600190565b60208082526021908201527f5369676e6564536166654d6174683a206164646974696f6e206f766572666c6f6040820152607760f81b606082015260800190565b60208082526021908201527f5369676e6564536166654d6174683a206469766973696f6e206f766572666c6f6040820152607760f81b606082015260800190565b60208082526021908201527f536166654d6174683a206d756c7469706c69636174696f6e206f766572666c6f6040820152607760f81b606082015260800190565b60208082526027908201527f5369676e6564536166654d6174683a206d756c7469706c69636174696f6e206f604082015266766572666c6f7760c81b606082015260800190565b60208082526024908201527f5369676e6564536166654d6174683a207375627472616374696f6e206f766572604082015263666c6f7760e01b606082015260800190565b6020808252818101527f5369676e6564536166654d6174683a206469766973696f6e206279207a65726f604082015260600190565b6020808252818101527f52616e646f6d2e756e69666f726d3a20696e76616c696420696e74657276616c604082015260600190565b606081016122b98284614344565b600061010082019050615e98828651614344565b60ff602086015116606083015260ff604086015116608083015260ff60608601511660a083015260ff841660c083015260ff831660e0830152949350505050565b60405181810167ffffffffffffffff81118282101715615ef857600080fd5b604052919050565b60005b83811015615f1b578181015183820152602001615f03565b83811115615f2a576000848401525b50505050565b61ffff81168114615f4057600080fd5b50565b60ff81168114615f4057600080fdfe303b302e313b302e323b302e333b302e343b302e353b302e363b302e373b302e383b302e393b31303b37323b37323b3134343b3134343b3231363b3231363b3237383b3237383b3336303b333630303b302e3132353b302e32353b302e3337353b302e353b302e3632353b302e383b302e3932353b31a26469706673582212201288ce7f380e2f61096148f87a1dafc71901f99fdcba952313e8e82d8a8ff31064736f6c63430006080033",
  "linkReferences": {
    "contracts/libraries/Colors.sol": {
      "Colors": [
        {
          "length": 20,
          "start": 1584
        },
        {
          "length": 20,
          "start": 8693
        }
      ]
    },
    "contracts/libraries/FixidityLib.sol": {
      "FixidityLib": [
        {
          "length": 20,
          "start": 13373
        },
        {
          "length": 20,
          "start": 13534
        },
        {
          "length": 20,
          "start": 13659
        },
        {
          "length": 20,
          "start": 13685
        },
        {
          "length": 20,
          "start": 13711
        }
      ]
    },
    "contracts/libraries/Utils.sol": {
      "Utils": [
        {
          "length": 20,
          "start": 3884
        },
        {
          "length": 20,
          "start": 4059
        },
        {
          "length": 20,
          "start": 4708
        },
        {
          "length": 20,
          "start": 4866
        },
        {
          "length": 20,
          "start": 5442
        },
        {
          "length": 20,
          "start": 5600
        },
        {
          "length": 20,
          "start": 6543
        },
        {
          "length": 20,
          "start": 6702
        },
        {
          "length": 20,
          "start": 8117
        },
        {
          "length": 20,
          "start": 8260
        },
        {
          "length": 20,
          "start": 8404
        },
        {
          "length": 20,
          "start": 8550
        },
        {
          "length": 20,
          "start": 14096
        },
        {
          "length": 20,
          "start": 14294
        }
      ]
    }
  },
  "deployedLinkReferences": {
    "contracts/libraries/Colors.sol": {
      "Colors": [
        {
          "length": 20,
          "start": 1545
        },
        {
          "length": 20,
          "start": 8654
        }
      ]
    },
    "contracts/libraries/FixidityLib.sol": {
      "FixidityLib": [
        {
          "length": 20,
          "start": 13334
        },
        {
          "length": 20,
          "start": 13495
        },
        {
          "length": 20,
          "start": 13620
        },
        {
          "length": 20,
          "start": 13646
        },
        {
          "length": 20,
          "start": 13672
        }
      ]
    },
    "contracts/libraries/Utils.sol": {
      "Utils": [
        {
          "length": 20,
          "start": 3845
        },
        {
          "length": 20,
          "start": 4020
        },
        {
          "length": 20,
          "start": 4669
        },
        {
          "length": 20,
          "start": 4827
        },
        {
          "length": 20,
          "start": 5403
        },
        {
          "length": 20,
          "start": 5561
        },
        {
          "length": 20,
          "start": 6504
        },
        {
          "length": 20,
          "start": 6663
        },
        {
          "length": 20,
          "start": 8078
        },
        {
          "length": 20,
          "start": 8221
        },
        {
          "length": 20,
          "start": 8365
        },
        {
          "length": 20,
          "start": 8511
        },
        {
          "length": 20,
          "start": 14057
        },
        {
          "length": 20,
          "start": 14255
        }
      ]
    }
  }
}