{
  "_format": "hh-sol-artifact-1",
  "contractName": "RandomStub",
  "sourceName": "contracts/RandomStub.sol",
  "abi": [
    {
      "inputs": [],
      "name": "returnValue",
      "outputs": [
        {
          "internalType": "bytes32",
          "name": "",
          "type": "bytes32"
        }
      ],
      "stateMutability": "view",
      "type": "function"
    }
  ],
  "bytecode": "0x6080604052348015600f57600080fd5b5060c78061001e6000396000f3fe6080604052348015600f57600080fd5b506004361060285760003560e01c8063990c8f7914602d575b600080fd5b60336045565b60408051918252519081900360200190f35b6040805143602080830182905241606090811b848601524460548501526000199092014060748401523290911b60948301528251608881840301815260a890920190925280519101209056fea264697066735822122028b2025dd088597718cd9b3cc4f3c6c08c356f0e168ad5e7590e45e7947d89eb64736f6c63430006080033",
  "linkReferences": {},
  "deployedLinkReferences": {}
}