{
  "_format": "hh-sol-artifact-1",
  "contractName": "Randomizer",
  "sourceName": "contracts/Randomizer.sol",
  "abi": [
    {
      "inputs": [],
      "stateMutability": "nonpayable",
      "type": "constructor"
    },
    {
      "anonymous": false,
      "inputs": [
        {
          "indexed": true,
          "internalType": "bytes32",
          "name": "role",
          "type": "bytes32"
        },
        {
          "indexed": true,
          "internalType": "bytes32",
          "name": "previousAdminRole",
          "type": "bytes32"
        },
        {
          "indexed": true,
          "internalType": "bytes32",
          "name": "newAdminRole",
          "type": "bytes32"
        }
      ],
      "name": "RoleAdminChanged",
      "type": "event"
    },
    {
      "anonymous": false,
      "inputs": [
        {
          "indexed": true,
          "internalType": "bytes32",
          "name": "role",
          "type": "bytes32"
        },
        {
          "indexed": true,
          "internalType": "address",
          "name": "account",
          "type": "address"
        },
        {
          "indexed": true,
          "internalType": "address",
          "name": "sender",
          "type": "address"
        }
      ],
      "name": "RoleGranted",
      "type": "event"
    },
    {
      "anonymous": false,
      "inputs": [
        {
          "indexed": true,
          "internalType": "bytes32",
          "name": "role",
          "type": "bytes32"
        },
        {
          "indexed": true,
          "internalType": "address",
          "name": "account",
          "type": "address"
        },
        {
          "indexed": true,
          "internalType": "address",
          "name": "sender",
          "type": "address"
        }
      ],
      "name": "RoleRevoked",
      "type": "event"
    },
    {
      "inputs": [],
      "name": "ADMIN_ROLE",
      "outputs": [
        {
          "internalType": "bytes32",
          "name": "",
          "type": "bytes32"
        }
      ],
      "stateMutability": "view",
      "type": "function"
    },
    {
      "inputs": [],
      "name": "CALLER_ROLE",
      "outputs": [
        {
          "internalType": "bytes32",
          "name": "",
          "type": "bytes32"
        }
      ],
      "stateMutability": "view",
      "type": "function"
    },
    {
      "inputs": [],
      "name": "DEFAULT_ADMIN_ROLE",
      "outputs": [
        {
          "internalType": "bytes32",
          "name": "",
          "type": "bytes32"
        }
      ],
      "stateMutability": "view",
      "type": "function"
    },
    {
      "inputs": [
        {
          "internalType": "uint256",
          "name": "salt",
          "type": "uint256"
        },
        {
          "internalType": "uint256",
          "name": "e",
          "type": "uint256"
        }
      ],
      "name": "chainedEntropy",
      "outputs": [
        {
          "internalType": "bytes32",
          "name": "entropy",
          "type": "bytes32"
        }
      ],
      "stateMutability": "view",
      "type": "function"
    },
    {
      "inputs": [
        {
          "internalType": "bytes",
          "name": "code",
          "type": "bytes"
        }
      ],
      "name": "deployModule",
      "outputs": [],
      "stateMutability": "nonpayable",
      "type": "function"
    },
    {
      "inputs": [
        {
          "internalType": "bytes32",
          "name": "role",
          "type": "bytes32"
        }
      ],
      "name": "getRoleAdmin",
      "outputs": [
        {
          "internalType": "bytes32",
          "name": "",
          "type": "bytes32"
        }
      ],
      "stateMutability": "view",
      "type": "function"
    },
    {
      "inputs": [
        {
          "internalType": "bytes32",
          "name": "role",
          "type": "bytes32"
        },
        {
          "internalType": "uint256",
          "name": "index",
          "type": "uint256"
        }
      ],
      "name": "getRoleMember",
      "outputs": [
        {
          "internalType": "address",
          "name": "",
          "type": "address"
        }
      ],
      "stateMutability": "view",
      "type": "function"
    },
    {
      "inputs": [
        {
          "internalType": "bytes32",
          "name": "role",
          "type": "bytes32"
        }
      ],
      "name": "getRoleMemberCount",
      "outputs": [
        {
          "internalType": "uint256",
          "name": "",
          "type": "uint256"
        }
      ],
      "stateMutability": "view",
      "type": "function"
    },
    {
      "inputs": [
        {
          "internalType": "bytes32",
          "name": "role",
          "type": "bytes32"
        },
        {
          "internalType": "address",
          "name": "account",
          "type": "address"
        }
      ],
      "name": "grantRole",
      "outputs": [],
      "stateMutability": "nonpayable",
      "type": "function"
    },
    {
      "inputs": [
        {
          "internalType": "bytes32",
          "name": "role",
          "type": "bytes32"
        },
        {
          "internalType": "address",
          "name": "account",
          "type": "address"
        }
      ],
      "name": "hasRole",
      "outputs": [
        {
          "internalType": "bool",
          "name": "",
          "type": "bool"
        }
      ],
      "stateMutability": "view",
      "type": "function"
    },
    {
      "inputs": [
        {
          "internalType": "address",
          "name": "_module",
          "type": "address"
        }
      ],
      "name": "removeModule",
      "outputs": [],
      "stateMutability": "nonpayable",
      "type": "function"
    },
    {
      "inputs": [
        {
          "internalType": "bytes32",
          "name": "role",
          "type": "bytes32"
        },
        {
          "internalType": "address",
          "name": "account",
          "type": "address"
        }
      ],
      "name": "renounceRole",
      "outputs": [],
      "stateMutability": "nonpayable",
      "type": "function"
    },
    {
      "inputs": [
        {
          "internalType": "bytes",
          "name": "code",
          "type": "bytes"
        },
        {
          "internalType": "address",
          "name": "target",
          "type": "address"
        }
      ],
      "name": "replaceModule",
      "outputs": [],
      "stateMutability": "nonpayable",
      "type": "function"
    },
    {
      "inputs": [],
      "name": "returnValue",
      "outputs": [
        {
          "internalType": "bytes32",
          "name": "",
          "type": "bytes32"
        }
      ],
      "stateMutability": "view",
      "type": "function"
    },
    {
      "inputs": [
        {
          "internalType": "bytes32",
          "name": "role",
          "type": "bytes32"
        },
        {
          "internalType": "address",
          "name": "account",
          "type": "address"
        }
      ],
      "name": "revokeRole",
      "outputs": [],
      "stateMutability": "nonpayable",
      "type": "function"
    },
    {
      "inputs": [
        {
          "internalType": "uint256",
          "name": "levels",
          "type": "uint256"
        }
      ],
      "name": "setLevels",
      "outputs": [],
      "stateMutability": "nonpayable",
      "type": "function"
    }
  ],
  "bytecode": "0x6080604052600280553480156200001557600080fd5b506200002c6000336001600160e01b03620000b616565b604080516941444d494e5f524f4c4560b01b8152905190819003600a0190206200006090336001600160e01b03620000b616565b604080516a43414c4c45525f524f4c4560a81b8152815190819003600b0181206941444d494e5f524f4c4560b01b8252915190819003600a019020620000b091906001600160e01b03620000cf16565b62000240565b620000cb82826001600160e01b036200012116565b5050565b600082815260208190526040808220600201549051839285917fbd79b86ffe0ab8e8776151514217cd7cacd52c909f66475c3af44e129f0b00ff9190a460009182526020829052604090912060020155565b60008281526020818152604090912062000146918390620009de620001a3821b17901c565b15620000cb576200015f6001600160e01b03620001cc16565b6001600160a01b0316816001600160a01b0316837f2f8788117e7eff1d82e926ec794901d17c78024a50270940304540a733656f0d60405160405180910390a45050565b6000620001c3836001600160a01b0384166001600160e01b03620001d016565b90505b92915050565b3390565b6000620001e783836001600160e01b036200022816565b6200021f57508154600181810184556000848152602080822090930184905584548482528286019093526040902091909155620001c6565b506000620001c6565b60009081526001919091016020526040902054151590565b610de980620002506000396000f3fe608060405234801561001057600080fd5b50600436106101005760003560e01c8063a063246111610097578063ca15c87311610066578063ca15c87314610293578063d547741f146102b0578063e3852eca146102dc578063eb27ec131461035557610100565b8063a063246114610225578063a217fddf1461024b578063bd36cd0c14610253578063be1117721461027657610100565b8063774237fc116100d3578063774237fc146101965780639010d07c1461019e57806391d14854146101dd578063990c8f791461021d57610100565b8063248a9ca3146101055780632f2ff15d1461013457806336568abe1461016257806375b238fc1461018e575b600080fd5b6101226004803603602081101561011b57600080fd5b50356103fb565b60408051918252519081900360200190f35b6101606004803603604081101561014a57600080fd5b50803590602001356001600160a01b0316610410565b005b6101606004803603604081101561017857600080fd5b50803590602001356001600160a01b031661047c565b6101226104dd565b6101226104ff565b6101c1600480360360408110156101b457600080fd5b5080359060200135610522565b604080516001600160a01b039092168252519081900360200190f35b610209600480360360408110156101f357600080fd5b50803590602001356001600160a01b0316610549565b604080519115158252519081900360200190f35b610122610567565b6101606004803603602081101561023b57600080fd5b50356001600160a01b031661057b565b610122610616565b6101226004803603604081101561026957600080fd5b508035906020013561061b565b6101606004803603602081101561028c57600080fd5b5035610844565b610122600480360360208110156102a957600080fd5b50356108c6565b610160600480360360408110156102c657600080fd5b50803590602001356001600160a01b03166108dd565b610160600480360360408110156102f257600080fd5b81019060208101813564010000000081111561030d57600080fd5b82018360208201111561031f57600080fd5b8035906020019184600183028401116401000000008311171561034157600080fd5b9193509150356001600160a01b0316610936565b6101606004803603602081101561036b57600080fd5b81019060208101813564010000000081111561038657600080fd5b82018360208201111561039857600080fd5b803590602001918460018302840111640100000000831117156103ba57600080fd5b91908080601f016020809104026020016040519081016040528093929190818152602001838380828437600092019190915250929550610983945050505050565b60009081526020819052604090206002015490565b6000828152602081905260409020600201546104339061042e6109f3565b610549565b61046e5760405162461bcd60e51b815260040180806020018281038252602f815260200180610d26602f913960400191505060405180910390fd5b61047882826109f7565b5050565b6104846109f3565b6001600160a01b0316816001600160a01b0316146104d35760405162461bcd60e51b815260040180806020018281038252602f815260200180610d85602f913960400191505060405180910390fd5b6104788282610a66565b604080516941444d494e5f524f4c4560b01b8152905190819003600a01902081565b604080516a43414c4c45525f524f4c4560a81b8152905190819003600b01902081565b6000828152602081905260408120610540908363ffffffff610ad516565b90505b92915050565b6000828152602081905260408120610540908363ffffffff610ae116565b6000610576600060025461061b565b905090565b604080516941444d494e5f524f4c4560b01b8152905190819003600a0190206105a390610af6565b806001600160a01b03166352efea6e6040518163ffffffff1660e01b8152600401600060405180830381600087803b1580156105de57600080fd5b505af11580156105f2573d6000803e3d6000fd5b5050505061060a816003610b5390919063ffffffff16565b61061357600080fd5b50565b600081565b604080516a43414c4c45525f524f4c4560a81b8152905190819003600b01902060009061064790610af6565b60006106536003610b68565b116106a5576040805162461bcd60e51b815260206004820152600560248201527f454d505459000000000000000000000000000000000000000000000000000000604482015290519081900360640190fd5b600082116106fc576040805162461bcd60e51b8152602060048083019190915260248201527f45213e3000000000000000000000000000000000000000000000000000000000604482015290519081900360640190fd5b506040805143602080830182905241606090811b848601524460548501526000199092014060748401523290911b60948301523a60a88301524260c883015260e880830186905283518084039091018152610108909201909252805191012060005b8281101561083d57600061078d6107756003610b68565b848161077d57fe5b600391900663ffffffff610ad516565b9050828242836001600160a01b031663990c8f796040518163ffffffff1660e01b815260040160206040518083038186803b1580156107cb57600080fd5b505afa1580156107df573d6000803e3d6000fd5b505050506040513d60208110156107f557600080fd5b5051604080516020818101969096528082019490945260608401929092526080808401919091528151808403909101815260a09092019052805191012092505060010161075e565b5092915050565b604080516941444d494e5f524f4c4560b01b8152905190819003600a01902061086c90610af6565b600081116108c1576040805162461bcd60e51b815260206004820152600660248201527f6c766c213e300000000000000000000000000000000000000000000000000000604482015290519081900360640190fd5b600255565b600081815260208190526040812061054390610b68565b6000828152602081905260409020600201546108fb9061042e6109f3565b6104d35760405162461bcd60e51b8152600401808060200182810382526030815260200180610d556030913960400191505060405180910390fd5b61093f8161057b565b61097e83838080601f01602080910402602001604051908101604052809392919081815260200183838082843760009201919091525061098392505050565b505050565b604080516941444d494e5f524f4c4560b01b8152905190819003600a0190206109ab90610af6565b6000808251602084016000f59050803b6109c457600080fd5b6109d560038263ffffffff6109de16565b61047857600080fd5b6000610540836001600160a01b038416610b73565b3390565b6000828152602081905260409020610a15908263ffffffff6109de16565b1561047857610a226109f3565b6001600160a01b0316816001600160a01b0316837f2f8788117e7eff1d82e926ec794901d17c78024a50270940304540a733656f0d60405160405180910390a45050565b6000828152602081905260409020610a84908263ffffffff610b5316565b1561047857610a916109f3565b6001600160a01b0316816001600160a01b0316837ff6391f5c32d9c69d2a47ea670b442974b53935d1edc7fd64eb21e047a839171b60405160405180910390a45050565b60006105408383610bbd565b6000610540836001600160a01b038416610c21565b610b008133610549565b610613576040805162461bcd60e51b8152602060048083019190915260248201527f4e4f504500000000000000000000000000000000000000000000000000000000604482015290519081900360640190fd5b6000610540836001600160a01b038416610c39565b600061054382610cff565b6000610b7f8383610c21565b610bb557508154600181810184556000848152602080822090930184905584548482528286019093526040902091909155610543565b506000610543565b81546000908210610bff5760405162461bcd60e51b8152600401808060200182810382526022815260200180610d046022913960400191505060405180910390fd5b826000018281548110610c0e57fe5b9060005260206000200154905092915050565b60009081526001919091016020526040902054151590565b60008181526001830160205260408120548015610cf55783546000198083019190810190600090879083908110610c6c57fe5b9060005260206000200154905080876000018481548110610c8957fe5b600091825260208083209091019290925582815260018981019092526040902090840190558654879080610cb957fe5b60019003818190600052602060002001600090559055866001016000878152602001908152602001600020600090556001945050505050610543565b6000915050610543565b549056fe456e756d657261626c655365743a20696e646578206f7574206f6620626f756e6473416363657373436f6e74726f6c3a2073656e646572206d75737420626520616e2061646d696e20746f206772616e74416363657373436f6e74726f6c3a2073656e646572206d75737420626520616e2061646d696e20746f207265766f6b65416363657373436f6e74726f6c3a2063616e206f6e6c792072656e6f756e636520726f6c657320666f722073656c66a2646970667358221220cf907bfd1be05d694a79372029d7950fb4005cd9b65805ecf46c94477fdb879e64736f6c63430006080033",
  "linkReferences": {},
  "deployedLinkReferences": {}
}