{
  "_format": "hh-sol-artifact-1",
  "contractName": "Randomizer",
  "sourceName": "contracts/Randomizer.sol",
  "abi": [
    {
      "inputs": [],
      "stateMutability": "nonpayable",
      "type": "constructor"
    },
    {
      "anonymous": false,
      "inputs": [
        {
          "indexed": true,
          "internalType": "bytes32",
          "name": "role",
          "type": "bytes32"
        },
        {
          "indexed": true,
          "internalType": "bytes32",
          "name": "previousAdminRole",
          "type": "bytes32"
        },
        {
          "indexed": true,
          "internalType": "bytes32",
          "name": "newAdminRole",
          "type": "bytes32"
        }
      ],
      "name": "RoleAdminChanged",
      "type": "event"
    },
    {
      "anonymous": false,
      "inputs": [
        {
          "indexed": true,
          "internalType": "bytes32",
          "name": "role",
          "type": "bytes32"
        },
        {
          "indexed": true,
          "internalType": "address",
          "name": "account",
          "type": "address"
        },
        {
          "indexed": true,
          "internalType": "address",
          "name": "sender",
          "type": "address"
        }
      ],
      "name": "RoleGranted",
      "type": "event"
    },
    {
      "anonymous": false,
      "inputs": [
        {
          "indexed": true,
          "internalType": "bytes32",
          "name": "role",
          "type": "bytes32"
        },
        {
          "indexed": true,
          "internalType": "address",
          "name": "account",
          "type": "address"
        },
        {
          "indexed": true,
          "internalType": "address",
          "name": "sender",
          "type": "address"
        }
      ],
      "name": "RoleRevoked",
      "type": "event"
    },
    {
      "inputs": [],
      "name": "ADMIN_ROLE",
      "outputs": [
        {
          "internalType": "bytes32",
          "name": "",
          "type": "bytes32"
        }
      ],
      "stateMutability": "view",
      "type": "function"
    },
    {
      "inputs": [],
      "name": "CALLER_ROLE",
      "outputs": [
        {
          "internalType": "bytes32",
          "name": "",
          "type": "bytes32"
        }
      ],
      "stateMutability": "view",
      "type": "function"
    },
    {
      "inputs": [],
      "name": "DEFAULT_ADMIN_ROLE",
      "outputs": [
        {
          "internalType": "bytes32",
          "name": "",
          "type": "bytes32"
        }
      ],
      "stateMutability": "view",
      "type": "function"
    },
    {
      "inputs": [
        {
          "internalType": "uint256",
          "name": "salt",
          "type": "uint256"
        },
        {
          "internalType": "uint256",
          "name": "e",
          "type": "uint256"
        }
      ],
      "name": "chainedEntropy",
      "outputs": [
        {
          "internalType": "bytes32",
          "name": "entropy",
          "type": "bytes32"
        }
      ],
      "stateMutability": "view",
      "type": "function"
    },
    {
      "inputs": [
        {
          "internalType": "bytes",
          "name": "code",
          "type": "bytes"
        }
      ],
      "name": "deployModule",
      "outputs": [],
      "stateMutability": "nonpayable",
      "type": "function"
    },
    {
      "inputs": [
        {
          "internalType": "bytes32",
          "name": "role",
          "type": "bytes32"
        }
      ],
      "name": "getRoleAdmin",
      "outputs": [
        {
          "internalType": "bytes32",
          "name": "",
          "type": "bytes32"
        }
      ],
      "stateMutability": "view",
      "type": "function"
    },
    {
      "inputs": [
        {
          "internalType": "bytes32",
          "name": "role",
          "type": "bytes32"
        },
        {
          "internalType": "uint256",
          "name": "index",
          "type": "uint256"
        }
      ],
      "name": "getRoleMember",
      "outputs": [
        {
          "internalType": "address",
          "name": "",
          "type": "address"
        }
      ],
      "stateMutability": "view",
      "type": "function"
    },
    {
      "inputs": [
        {
          "internalType": "bytes32",
          "name": "role",
          "type": "bytes32"
        }
      ],
      "name": "getRoleMemberCount",
      "outputs": [
        {
          "internalType": "uint256",
          "name": "",
          "type": "uint256"
        }
      ],
      "stateMutability": "view",
      "type": "function"
    },
    {
      "inputs": [
        {
          "internalType": "bytes32",
          "name": "role",
          "type": "bytes32"
        },
        {
          "internalType": "address",
          "name": "account",
          "type": "address"
        }
      ],
      "name": "grantRole",
      "outputs": [],
      "stateMutability": "nonpayable",
      "type": "function"
    },
    {
      "inputs": [
        {
          "internalType": "bytes32",
          "name": "role",
          "type": "bytes32"
        },
        {
          "internalType": "address",
          "name": "account",
          "type": "address"
        }
      ],
      "name": "hasRole",
      "outputs": [
        {
          "internalType": "bool",
          "name": "",
          "type": "bool"
        }
      ],
      "stateMutability": "view",
      "type": "function"
    },
    {
      "inputs": [
        {
          "internalType": "address",
          "name": "_module",
          "type": "address"
        }
      ],
      "name": "removeModule",
      "outputs": [],
      "stateMutability": "nonpayable",
      "type": "function"
    },
    {
      "inputs": [
        {
          "internalType": "bytes32",
          "name": "role",
          "type": "bytes32"
        },
        {
          "internalType": "address",
          "name": "account",
          "type": "address"
        }
      ],
      "name": "renounceRole",
      "outputs": [],
      "stateMutability": "nonpayable",
      "type": "function"
    },
    {
      "inputs": [
        {
          "internalType": "bytes",
          "name": "code",
          "type": "bytes"
        },
        {
          "internalType": "address",
          "name": "target",
          "type": "address"
        }
      ],
      "name": "replaceModule",
      "outputs": [],
      "stateMutability": "nonpayable",
      "type": "function"
    },
    {
      "inputs": [],
      "name": "returnValue",
      "outputs": [
        {
          "internalType": "bytes32",
          "name": "",
          "type": "bytes32"
        }
      ],
      "stateMutability": "view",
      "type": "function"
    },
    {
      "inputs": [
        {
          "internalType": "bytes32",
          "name": "role",
          "type": "bytes32"
        },
        {
          "internalType": "address",
          "name": "account",
          "type": "address"
        }
      ],
      "name": "revokeRole",
      "outputs": [],
      "stateMutability": "nonpayable",
      "type": "function"
    },
    {
      "inputs": [
        {
          "internalType": "uint256",
          "name": "levels",
          "type": "uint256"
        }
      ],
      "name": "setLevels",
      "outputs": [],
      "stateMutability": "nonpayable",
      "type": "function"
    }
  ],
  "bytecode": "0x6080604052600280553480156200001557600080fd5b506200002b6000801b33620000f460201b60201c565b6200007260405180807f41444d494e5f524f4c4500000000000000000000000000000000000000000000815250600a019050604051809103902033620000f460201b60201c565b620000ee60405180807f43414c4c45525f524f4c45000000000000000000000000000000000000000000815250600b019050604051809103902060405180807f41444d494e5f524f4c4500000000000000000000000000000000000000000000815250600a01905060405180910390206200010a60201b60201c565b620002ec565b6200010682826200016c60201b60201c565b5050565b8060008084815260200190815260200160002060020154837fbd79b86ffe0ab8e8776151514217cd7cacd52c909f66475c3af44e129f0b00ff60405160405180910390a480600080848152602001908152602001600020600201819055505050565b6200019a816000808581526020019081526020016000206000016200020f60201b62000e121790919060201c565b156200020b57620001b06200024760201b60201c565b73ffffffffffffffffffffffffffffffffffffffff168173ffffffffffffffffffffffffffffffffffffffff16837f2f8788117e7eff1d82e926ec794901d17c78024a50270940304540a733656f0d60405160405180910390a45b5050565b60006200023f836000018373ffffffffffffffffffffffffffffffffffffffff1660001b6200024f60201b60201c565b905092915050565b600033905090565b6000620002638383620002c960201b60201c565b620002be578260000182908060018154018082558091505060019003906000526020600020016000909190919091505582600001805490508360010160008481526020019081526020016000208190555060019050620002c3565b600090505b92915050565b600080836001016000848152602001908152602001600020541415905092915050565b61137380620002fc6000396000f3fe608060405234801561001057600080fd5b50600436106101005760003560e01c8063a063246111610097578063ca15c87311610066578063ca15c873146103f7578063d547741f14610439578063e3852eca14610487578063eb27ec131461052057610100565b8063a06324611461031b578063a217fddf1461035f578063bd36cd0c1461037d578063be111772146103c957610100565b8063774237fc116100d3578063774237fc146102015780639010d07c1461021f57806391d1485414610297578063990c8f79146102fd57610100565b8063248a9ca3146101055780632f2ff15d1461014757806336568abe1461019557806375b238fc146101e3575b600080fd5b6101316004803603602081101561011b57600080fd5b81019080803590602001909291905050506105db565b6040518082815260200191505060405180910390f35b6101936004803603604081101561015d57600080fd5b8101908080359060200190929190803573ffffffffffffffffffffffffffffffffffffffff1690602001909291905050506105fa565b005b6101e1600480360360408110156101ab57600080fd5b8101908080359060200190929190803573ffffffffffffffffffffffffffffffffffffffff169060200190929190505050610683565b005b6101eb61071c565b6040518082815260200191505060405180910390f35b610209610755565b6040518082815260200191505060405180910390f35b6102556004803603604081101561023557600080fd5b81019080803590602001909291908035906020019092919050505061078e565b604051808273ffffffffffffffffffffffffffffffffffffffff1673ffffffffffffffffffffffffffffffffffffffff16815260200191505060405180910390f35b6102e3600480360360408110156102ad57600080fd5b8101908080359060200190929190803573ffffffffffffffffffffffffffffffffffffffff1690602001909291905050506107bf565b604051808215151515815260200191505060405180910390f35b6103056107f0565b6040518082815260200191505060405180910390f35b61035d6004803603602081101561033157600080fd5b81019080803573ffffffffffffffffffffffffffffffffffffffff169060200190929190505050610804565b005b6103676108c2565b6040518082815260200191505060405180910390f35b6103b36004803603604081101561039357600080fd5b8101908080359060200190929190803590602001909291905050506108c9565b6040518082815260200191505060405180910390f35b6103f5600480360360208110156103df57600080fd5b8101908080359060200190929190505050610bd2565b005b6104236004803603602081101561040d57600080fd5b8101908080359060200190929190505050610c90565b6040518082815260200191505060405180910390f35b6104856004803603604081101561044f57600080fd5b8101908080359060200190929190803573ffffffffffffffffffffffffffffffffffffffff169060200190929190505050610cb6565b005b61051e6004803603604081101561049d57600080fd5b81019080803590602001906401000000008111156104ba57600080fd5b8201836020820111156104cc57600080fd5b803590602001918460018302840111640100000000831117156104ee57600080fd5b9091929391929390803573ffffffffffffffffffffffffffffffffffffffff169060200190929190505050610d3f565b005b6105d96004803603602081101561053657600080fd5b810190808035906020019064010000000081111561055357600080fd5b82018360208201111561056557600080fd5b8035906020019184600183028401116401000000008311171561058757600080fd5b91908080601f016020809104026020016040519081016040528093929190818152602001838380828437600081840152601f19601f820116905080830192505050505050509192919290505050610d9a565b005b6000806000838152602001908152602001600020600201549050919050565b6106206000808481526020019081526020016000206002015461061b610e42565b6107bf565b610675576040517f08c379a000000000000000000000000000000000000000000000000000000000815260040180806020018281038252602f8152602001806112b0602f913960400191505060405180910390fd5b61067f8282610e4a565b5050565b61068b610e42565b73ffffffffffffffffffffffffffffffffffffffff168173ffffffffffffffffffffffffffffffffffffffff161461070e576040517f08c379a000000000000000000000000000000000000000000000000000000000815260040180806020018281038252602f81526020018061130f602f913960400191505060405180910390fd5b6107188282610edd565b5050565b60405180807f41444d494e5f524f4c4500000000000000000000000000000000000000000000815250600a019050604051809103902081565b60405180807f43414c4c45525f524f4c45000000000000000000000000000000000000000000815250600b019050604051809103902081565b60006107b782600080868152602001908152602001600020600001610f7090919063ffffffff16565b905092915050565b60006107e882600080868152602001908152602001600020600001610f8a90919063ffffffff16565b905092915050565b60006107ff60006002546108c9565b905090565b61084260405180807f41444d494e5f524f4c4500000000000000000000000000000000000000000000815250600a0190506040518091039020610fba565b8073ffffffffffffffffffffffffffffffffffffffff166352efea6e6040518163ffffffff1660e01b8152600401600060405180830381600087803b15801561088a57600080fd5b505af115801561089e573d6000803e3d6000fd5b505050506108b681600361103990919063ffffffff16565b6108bf57600080fd5b50565b6000801b81565b600061090960405180807f43414c4c45525f524f4c45000000000000000000000000000000000000000000815250600b0190506040518091039020610fba565b60006109156003611069565b11610988576040517f08c379a00000000000000000000000000000000000000000000000000000000081526004018080602001828103825260058152602001807f454d50545900000000000000000000000000000000000000000000000000000081525060200191505060405180910390fd5b600082116109fe576040517f08c379a00000000000000000000000000000000000000000000000000000000081526004018080602001828103825260048152602001807f45213e300000000000000000000000000000000000000000000000000000000081525060200191505060405180910390fd5b4341446001430340323a4289604051602001808981526020018873ffffffffffffffffffffffffffffffffffffffff1673ffffffffffffffffffffffffffffffffffffffff1660601b81526014018781526020018681526020018573ffffffffffffffffffffffffffffffffffffffff1673ffffffffffffffffffffffffffffffffffffffff1660601b81526014018481526020018381526020018281526020019850505050505050505060405160208183030381529060405280519060200120905060008090505b82811015610bcb576000610afa610ade6003611069565b8460001c81610ae957fe5b066003610f7090919063ffffffff16565b90508282428373ffffffffffffffffffffffffffffffffffffffff1663990c8f796040518163ffffffff1660e01b815260040160206040518083038186803b158015610b4557600080fd5b505afa158015610b59573d6000803e3d6000fd5b505050506040513d6020811015610b6f57600080fd5b810190808051906020019092919050505060405160200180858152602001848152602001838152602001828152602001945050505050604051602081830303815290604052805190602001209250508080600101915050610ac7565b5092915050565b610c1060405180807f41444d494e5f524f4c4500000000000000000000000000000000000000000000815250600a0190506040518091039020610fba565b60008111610c86576040517f08c379a00000000000000000000000000000000000000000000000000000000081526004018080602001828103825260068152602001807f6c766c213e30000000000000000000000000000000000000000000000000000081525060200191505060405180910390fd5b8060028190555050565b6000610caf600080848152602001908152602001600020600001611069565b9050919050565b610cdc60008084815260200190815260200160002060020154610cd7610e42565b6107bf565b610d31576040517f08c379a00000000000000000000000000000000000000000000000000000000081526004018080602001828103825260308152602001806112df6030913960400191505060405180910390fd5b610d3b8282610edd565b5050565b610d4881610804565b610d9583838080601f016020809104026020016040519081016040528093929190818152602001838380828437600081840152601f19601f82011690508083019250505050505050610d9a565b505050565b610dd860405180807f41444d494e5f524f4c4500000000000000000000000000000000000000000000815250600a0190506040518091039020610fba565b6000808251602084016000f59050803b610df157600080fd5b610e05816003610e1290919063ffffffff16565b610e0e57600080fd5b5050565b6000610e3a836000018373ffffffffffffffffffffffffffffffffffffffff1660001b61107e565b905092915050565b600033905090565b610e7181600080858152602001908152602001600020600001610e1290919063ffffffff16565b15610ed957610e7e610e42565b73ffffffffffffffffffffffffffffffffffffffff168173ffffffffffffffffffffffffffffffffffffffff16837f2f8788117e7eff1d82e926ec794901d17c78024a50270940304540a733656f0d60405160405180910390a45b5050565b610f048160008085815260200190815260200160002060000161103990919063ffffffff16565b15610f6c57610f11610e42565b73ffffffffffffffffffffffffffffffffffffffff168173ffffffffffffffffffffffffffffffffffffffff16837ff6391f5c32d9c69d2a47ea670b442974b53935d1edc7fd64eb21e047a839171b60405160405180910390a45b5050565b6000610f7f83600001836110ee565b60001c905092915050565b6000610fb2836000018373ffffffffffffffffffffffffffffffffffffffff1660001b611171565b905092915050565b610fc481336107bf565b611036576040517f08c379a00000000000000000000000000000000000000000000000000000000081526004018080602001828103825260048152602001807f4e4f50450000000000000000000000000000000000000000000000000000000081525060200191505060405180910390fd5b50565b6000611061836000018373ffffffffffffffffffffffffffffffffffffffff1660001b611194565b905092915050565b60006110778260000161127c565b9050919050565b600061108a8383611171565b6110e35782600001829080600181540180825580915050600190039060005260206000200160009091909190915055826000018054905083600101600084815260200190815260200160002081905550600190506110e8565b600090505b92915050565b60008183600001805490501161114f576040517f08c379a000000000000000000000000000000000000000000000000000000000815260040180806020018281038252602281526020018061128e6022913960400191505060405180910390fd5b82600001828154811061115e57fe5b9060005260206000200154905092915050565b600080836001016000848152602001908152602001600020541415905092915050565b6000808360010160008481526020019081526020016000205490506000811461127057600060018203905060006001866000018054905003905060008660000182815481106111df57fe5b90600052602060002001549050808760000184815481106111fc57fe5b906000526020600020018190555060018301876001016000838152602001908152602001600020819055508660000180548061123457fe5b60019003818190600052602060002001600090559055866001016000878152602001908152602001600020600090556001945050505050611276565b60009150505b92915050565b60008160000180549050905091905056fe456e756d657261626c655365743a20696e646578206f7574206f6620626f756e6473416363657373436f6e74726f6c3a2073656e646572206d75737420626520616e2061646d696e20746f206772616e74416363657373436f6e74726f6c3a2073656e646572206d75737420626520616e2061646d696e20746f207265766f6b65416363657373436f6e74726f6c3a2063616e206f6e6c792072656e6f756e636520726f6c657320666f722073656c66a26469706673582212205c76008453addc4a356d1e4b1256aac018222e6c012c044c1e4737f5a327cb5764736f6c63430006080033",
  "linkReferences": {},
  "deployedLinkReferences": {}
}