{
  "_format": "hh-sol-artifact-1",
  "contractName": "TinyBoxesLE",
  "sourceName": "contracts/PromoToken.sol",
  "abi": [
    {
      "inputs": [
        {
          "internalType": "address",
          "name": "_target",
          "type": "address"
        }
      ],
      "stateMutability": "nonpayable",
      "type": "constructor"
    },
    {
      "anonymous": false,
      "inputs": [
        {
          "indexed": true,
          "internalType": "address",
          "name": "owner",
          "type": "address"
        },
        {
          "indexed": true,
          "internalType": "address",
          "name": "approved",
          "type": "address"
        },
        {
          "indexed": true,
          "internalType": "uint256",
          "name": "tokenId",
          "type": "uint256"
        }
      ],
      "name": "Approval",
      "type": "event"
    },
    {
      "anonymous": false,
      "inputs": [
        {
          "indexed": true,
          "internalType": "address",
          "name": "owner",
          "type": "address"
        },
        {
          "indexed": true,
          "internalType": "address",
          "name": "operator",
          "type": "address"
        },
        {
          "indexed": false,
          "internalType": "bool",
          "name": "approved",
          "type": "bool"
        }
      ],
      "name": "ApprovalForAll",
      "type": "event"
    },
    {
      "anonymous": false,
      "inputs": [
        {
          "indexed": true,
          "internalType": "address",
          "name": "previousOwner",
          "type": "address"
        },
        {
          "indexed": true,
          "internalType": "address",
          "name": "newOwner",
          "type": "address"
        }
      ],
      "name": "OwnershipTransferred",
      "type": "event"
    },
    {
      "anonymous": false,
      "inputs": [
        {
          "indexed": true,
          "internalType": "address",
          "name": "from",
          "type": "address"
        },
        {
          "indexed": true,
          "internalType": "address",
          "name": "to",
          "type": "address"
        },
        {
          "indexed": true,
          "internalType": "uint256",
          "name": "tokenId",
          "type": "uint256"
        }
      ],
      "name": "Transfer",
      "type": "event"
    },
    {
      "inputs": [],
      "name": "TOKEN_LIMIT",
      "outputs": [
        {
          "internalType": "uint16",
          "name": "",
          "type": "uint16"
        }
      ],
      "stateMutability": "view",
      "type": "function"
    },
    {
      "inputs": [
        {
          "internalType": "address",
          "name": "to",
          "type": "address"
        }
      ],
      "name": "adminMint",
      "outputs": [],
      "stateMutability": "nonpayable",
      "type": "function"
    },
    {
      "inputs": [
        {
          "internalType": "address",
          "name": "to",
          "type": "address"
        },
        {
          "internalType": "uint256",
          "name": "tokenId",
          "type": "uint256"
        }
      ],
      "name": "approve",
      "outputs": [],
      "stateMutability": "nonpayable",
      "type": "function"
    },
    {
      "inputs": [
        {
          "internalType": "address",
          "name": "owner",
          "type": "address"
        }
      ],
      "name": "balanceOf",
      "outputs": [
        {
          "internalType": "uint256",
          "name": "",
          "type": "uint256"
        }
      ],
      "stateMutability": "view",
      "type": "function"
    },
    {
      "inputs": [],
      "name": "baseURI",
      "outputs": [
        {
          "internalType": "string",
          "name": "",
          "type": "string"
        }
      ],
      "stateMutability": "view",
      "type": "function"
    },
    {
      "inputs": [],
      "name": "contractURI",
      "outputs": [
        {
          "internalType": "string",
          "name": "",
          "type": "string"
        }
      ],
      "stateMutability": "view",
      "type": "function"
    },
    {
      "inputs": [
        {
          "internalType": "uint256",
          "name": "tokenId",
          "type": "uint256"
        }
      ],
      "name": "getApproved",
      "outputs": [
        {
          "internalType": "address",
          "name": "",
          "type": "address"
        }
      ],
      "stateMutability": "view",
      "type": "function"
    },
    {
      "inputs": [
        {
          "internalType": "address",
          "name": "owner",
          "type": "address"
        },
        {
          "internalType": "address",
          "name": "operator",
          "type": "address"
        }
      ],
      "name": "isApprovedForAll",
      "outputs": [
        {
          "internalType": "bool",
          "name": "",
          "type": "bool"
        }
      ],
      "stateMutability": "view",
      "type": "function"
    },
    {
      "inputs": [],
      "name": "name",
      "outputs": [
        {
          "internalType": "string",
          "name": "",
          "type": "string"
        }
      ],
      "stateMutability": "view",
      "type": "function"
    },
    {
      "inputs": [],
      "name": "owner",
      "outputs": [
        {
          "internalType": "address",
          "name": "",
          "type": "address"
        }
      ],
      "stateMutability": "view",
      "type": "function"
    },
    {
      "inputs": [
        {
          "internalType": "uint256",
          "name": "tokenId",
          "type": "uint256"
        }
      ],
      "name": "ownerOf",
      "outputs": [
        {
          "internalType": "address",
          "name": "",
          "type": "address"
        }
      ],
      "stateMutability": "view",
      "type": "function"
    },
    {
      "inputs": [
        {
          "internalType": "uint256",
          "name": "id",
          "type": "uint256"
        }
      ],
      "name": "redeem",
      "outputs": [],
      "stateMutability": "nonpayable",
      "type": "function"
    },
    {
      "inputs": [],
      "name": "renounceOwnership",
      "outputs": [],
      "stateMutability": "nonpayable",
      "type": "function"
    },
    {
      "inputs": [
        {
          "internalType": "address",
          "name": "from",
          "type": "address"
        },
        {
          "internalType": "address",
          "name": "to",
          "type": "address"
        },
        {
          "internalType": "uint256",
          "name": "tokenId",
          "type": "uint256"
        }
      ],
      "name": "safeTransferFrom",
      "outputs": [],
      "stateMutability": "nonpayable",
      "type": "function"
    },
    {
      "inputs": [
        {
          "internalType": "address",
          "name": "from",
          "type": "address"
        },
        {
          "internalType": "address",
          "name": "to",
          "type": "address"
        },
        {
          "internalType": "uint256",
          "name": "tokenId",
          "type": "uint256"
        },
        {
          "internalType": "bytes",
          "name": "_data",
          "type": "bytes"
        }
      ],
      "name": "safeTransferFrom",
      "outputs": [],
      "stateMutability": "nonpayable",
      "type": "function"
    },
    {
      "inputs": [
        {
          "internalType": "address",
          "name": "operator",
          "type": "address"
        },
        {
          "internalType": "bool",
          "name": "approved",
          "type": "bool"
        }
      ],
      "name": "setApprovalForAll",
      "outputs": [],
      "stateMutability": "nonpayable",
      "type": "function"
    },
    {
      "inputs": [
        {
          "internalType": "string",
          "name": "_uri",
          "type": "string"
        }
      ],
      "name": "setBaseURI",
      "outputs": [],
      "stateMutability": "nonpayable",
      "type": "function"
    },
    {
      "inputs": [
        {
          "internalType": "string",
          "name": "_uri",
          "type": "string"
        }
      ],
      "name": "setContractURI",
      "outputs": [],
      "stateMutability": "nonpayable",
      "type": "function"
    },
    {
      "inputs": [
        {
          "internalType": "bytes4",
          "name": "interfaceId",
          "type": "bytes4"
        }
      ],
      "name": "supportsInterface",
      "outputs": [
        {
          "internalType": "bool",
          "name": "",
          "type": "bool"
        }
      ],
      "stateMutability": "view",
      "type": "function"
    },
    {
      "inputs": [],
      "name": "symbol",
      "outputs": [
        {
          "internalType": "string",
          "name": "",
          "type": "string"
        }
      ],
      "stateMutability": "view",
      "type": "function"
    },
    {
      "inputs": [],
      "name": "target",
      "outputs": [
        {
          "internalType": "address",
          "name": "",
          "type": "address"
        }
      ],
      "stateMutability": "view",
      "type": "function"
    },
    {
      "inputs": [
        {
          "internalType": "address",
          "name": "to",
          "type": "address"
        }
      ],
      "name": "targetMint",
      "outputs": [],
      "stateMutability": "nonpayable",
      "type": "function"
    },
    {
      "inputs": [
        {
          "internalType": "uint256",
          "name": "index",
          "type": "uint256"
        }
      ],
      "name": "tokenByIndex",
      "outputs": [
        {
          "internalType": "uint256",
          "name": "",
          "type": "uint256"
        }
      ],
      "stateMutability": "view",
      "type": "function"
    },
    {
      "inputs": [
        {
          "internalType": "address",
          "name": "owner",
          "type": "address"
        },
        {
          "internalType": "uint256",
          "name": "index",
          "type": "uint256"
        }
      ],
      "name": "tokenOfOwnerByIndex",
      "outputs": [
        {
          "internalType": "uint256",
          "name": "",
          "type": "uint256"
        }
      ],
      "stateMutability": "view",
      "type": "function"
    },
    {
      "inputs": [
        {
          "internalType": "uint256",
          "name": "tokenId",
          "type": "uint256"
        }
      ],
      "name": "tokenURI",
      "outputs": [
        {
          "internalType": "string",
          "name": "",
          "type": "string"
        }
      ],
      "stateMutability": "view",
      "type": "function"
    },
    {
      "inputs": [],
      "name": "totalSupply",
      "outputs": [
        {
          "internalType": "uint256",
          "name": "",
          "type": "uint256"
        }
      ],
      "stateMutability": "view",
      "type": "function"
    },
    {
      "inputs": [
        {
          "internalType": "address",
          "name": "from",
          "type": "address"
        },
        {
          "internalType": "address",
          "name": "to",
          "type": "address"
        },
        {
          "internalType": "uint256",
          "name": "tokenId",
          "type": "uint256"
        }
      ],
      "name": "transferFrom",
      "outputs": [],
      "stateMutability": "nonpayable",
      "type": "function"
    },
    {
      "inputs": [
        {
          "internalType": "address",
          "name": "newOwner",
          "type": "address"
        }
      ],
      "name": "transferOwnership",
      "outputs": [],
      "stateMutability": "nonpayable",
      "type": "function"
    }
  ],
  "bytecode": "0x60806040527fffffffffffffffffffffffffffffffffffffffffffffffffffffffffffffffff600c556040518060600160405280602d81526020016200402b602d9139600d90805190602001906200005992919062000366565b503480156200006757600080fd5b50604051620040583803806200405883398181016040528101906200008d91906200042c565b6040518060400160405280600c81526020017f54696e79426f786573204c4500000000000000000000000000000000000000008152506040518060400160405280600881526020017f5b54425d5b4c455d000000000000000000000000000000000000000000000000815250620001116301ffc9a760e01b6200028660201b60201c565b81600690805190602001906200012992919062000366565b5080600790805190602001906200014292919062000366565b506200015b6380ac58cd60e01b6200028660201b60201c565b62000173635b5e139f60e01b6200028660201b60201c565b6200018b63780e9d6360e01b6200028660201b60201c565b505060006200019f6200035e60201b60201c565b905080600a60006101000a81548173ffffffffffffffffffffffffffffffffffffffff021916908373ffffffffffffffffffffffffffffffffffffffff1602179055508073ffffffffffffffffffffffffffffffffffffffff16600073ffffffffffffffffffffffffffffffffffffffff167f8be0079c531659141344cd1fd0a4f28419497f9722a3daafe3b4186f6b6457e060405160405180910390a35080600e60006101000a81548173ffffffffffffffffffffffffffffffffffffffff021916908373ffffffffffffffffffffffffffffffffffffffff160217905550506200051b565b63ffffffff60e01b817bffffffffffffffffffffffffffffffffffffffffffffffffffffffff19161415620002f2576040517f08c379a0000000000000000000000000000000000000000000000000000000008152600401620002e9906200049a565b60405180910390fd5b6001600080837bffffffffffffffffffffffffffffffffffffffffffffffffffffffff19167bffffffffffffffffffffffffffffffffffffffffffffffffffffffff1916815260200190815260200160002060006101000a81548160ff02191690831515021790555050565b600033905090565b828054600181600116156101000203166002900490600052602060002090601f016020900481019282601f10620003a957805160ff1916838001178555620003da565b82800160010185558215620003da579182015b82811115620003d9578251825591602001919060010190620003bc565b5b509050620003e99190620003ed565b5090565b6200041291905b808211156200040e576000816000905550600101620003f4565b5090565b90565b600081519050620004268162000501565b92915050565b6000602082840312156200043f57600080fd5b60006200044f8482850162000415565b91505092915050565b600062000467601c83620004bc565b91507f4552433136353a20696e76616c696420696e74657266616365206964000000006000830152602082019050919050565b60006020820190508181036000830152620004b58162000458565b9050919050565b600082825260208201905092915050565b6000620004da82620004e1565b9050919050565b600073ffffffffffffffffffffffffffffffffffffffff82169050919050565b6200050c81620004cd565b81146200051857600080fd5b50565b613b00806200052b6000396000f3fe608060405234801561001057600080fd5b50600436106101c45760003560e01c806370a08231116100f9578063b88d4fde11610097578063db006a7511610071578063db006a75146104f1578063e8a3d4851461050d578063e985e9c51461052b578063f2fde38b1461055b576101c4565b8063b88d4fde14610487578063c87b56dd146104a3578063d4b83992146104d3576101c4565b8063938e3d7b116100d3578063938e3d7b1461041557806395d89b41146104315780639769dc0e1461044f578063a22cb4651461046b576101c4565b806370a08231146103bd578063715018a6146103ed5780638da5cb5b146103f7576101c4565b80632f745c591161016657806355f804b31161014057806355f804b314610337578063623b692f146103535780636352211e1461036f5780636c0360eb1461039f576101c4565b80632f745c59146102bb57806342842e0e146102eb5780634f6ccce714610307576101c4565b8063081812fc116101a2578063081812fc14610235578063095ea7b31461026557806318160ddd1461028157806323b872dd1461029f576101c4565b806301ffc9a7146101c9578063031bd4c4146101f957806306fdde0314610217575b600080fd5b6101e360048036038101906101de9190612be0565b610577565b6040516101f0919061359d565b60405180910390f35b6102016105de565b60405161020e919061383a565b60405180910390f35b61021f6105e3565b60405161022c91906135b8565b60405180910390f35b61024f600480360381019061024a9190612c77565b610685565b60405161025c9190613536565b60405180910390f35b61027f600480360381019061027a9190612ba4565b61070a565b005b610289610822565b6040516102969190613855565b60405180910390f35b6102b960048036038101906102b49190612a9e565b610833565b005b6102d560048036038101906102d09190612ba4565b610893565b6040516102e29190613855565b60405180910390f35b61030560048036038101906103009190612a9e565b6108ee565b005b610321600480360381019061031c9190612c77565b61090e565b60405161032e9190613855565b60405180910390f35b610351600480360381019061034c9190612c32565b610931565b005b61036d60048036038101906103689190612a39565b610992565b005b61038960048036038101906103849190612c77565b6109c9565b6040516103969190613536565b60405180910390f35b6103a7610a00565b6040516103b491906135b8565b60405180910390f35b6103d760048036038101906103d29190612a39565b610aa2565b6040516103e49190613855565b60405180910390f35b6103f5610b61565b005b6103ff610cb9565b60405161040c9190613536565b60405180910390f35b61042f600480360381019061042a9190612c32565b610ce3565b005b610439610d09565b60405161044691906135b8565b60405180910390f35b61046960048036038101906104649190612a39565b610dab565b005b61048560048036038101906104809190612b68565b610dc7565b005b6104a1600480360381019061049c9190612aed565b610f48565b005b6104bd60048036038101906104b89190612c77565b610faa565b6040516104ca91906135b8565b60405180910390f35b6104db611135565b6040516104e89190613536565b60405180910390f35b61050b60048036038101906105069190612c77565b61115b565b005b610515611192565b60405161052291906135b8565b60405180910390f35b61054560048036038101906105409190612a62565b611230565b604051610552919061359d565b60405180910390f35b61057560048036038101906105709190612a39565b6112c4565b005b6000806000837bffffffffffffffffffffffffffffffffffffffffffffffffffffffff19167bffffffffffffffffffffffffffffffffffffffffffffffffffffffff1916815260200190815260200160002060009054906101000a900460ff169050919050565b606481565b606060068054600181600116156101000203166002900480601f01602080910402602001604051908101604052809291908181526020018280546001816001161561010002031660029004801561067b5780601f106106505761010080835404028352916020019161067b565b820191906000526020600020905b81548152906001019060200180831161065e57829003601f168201915b5050505050905090565b60006106908261148b565b6106cf576040517f08c379a00000000000000000000000000000000000000000000000000000000081526004016106c69061373a565b60405180910390fd5b6004600083815260200190815260200160002060009054906101000a900473ffffffffffffffffffffffffffffffffffffffff169050919050565b6000610715826109c9565b90508073ffffffffffffffffffffffffffffffffffffffff168373ffffffffffffffffffffffffffffffffffffffff161415610786576040517f08c379a000000000000000000000000000000000000000000000000000000000815260040161077d906137ba565b60405180910390fd5b8073ffffffffffffffffffffffffffffffffffffffff166107a56114a8565b73ffffffffffffffffffffffffffffffffffffffff1614806107d457506107d3816107ce6114a8565b611230565b5b610813576040517f08c379a000000000000000000000000000000000000000000000000000000000815260040161080a906136ba565b60405180910390fd5b61081d83836114b0565b505050565b600061082e6002611569565b905090565b61084461083e6114a8565b8261157e565b610883576040517f08c379a000000000000000000000000000000000000000000000000000000000815260040161087a906137da565b60405180910390fd5b61088e83838361165c565b505050565b60006108e682600160008673ffffffffffffffffffffffffffffffffffffffff1673ffffffffffffffffffffffffffffffffffffffff16815260200190815260200160002061187390919063ffffffff16565b905092915050565b61090983838360405180602001604052806000815250610f48565b505050565b60008061092583600261188d90919063ffffffff16565b50905080915050919050565b61094161093c610cb9565b6118bc565b61098e82828080601f016020809104026020016040519081016040528093929190818152602001838380828437600081840152601f19601f8201169050808301925050505050505061192d565b5050565b6109bd600e60009054906101000a900473ffffffffffffffffffffffffffffffffffffffff166118bc565b6109c681611947565b50565b60006109f982604051806060016040528060298152602001613aa260299139600261199b9092919063ffffffff16565b9050919050565b606060098054600181600116156101000203166002900480601f016020809104026020016040519081016040528092919081815260200182805460018160011615610100020316600290048015610a985780601f10610a6d57610100808354040283529160200191610a98565b820191906000526020600020905b815481529060010190602001808311610a7b57829003601f168201915b5050505050905090565b60008073ffffffffffffffffffffffffffffffffffffffff168273ffffffffffffffffffffffffffffffffffffffff161415610b13576040517f08c379a0000000000000000000000000000000000000000000000000000000008152600401610b0a906136da565b60405180910390fd5b610b5a600160008473ffffffffffffffffffffffffffffffffffffffff1673ffffffffffffffffffffffffffffffffffffffff1681526020019081526020016000206119ba565b9050919050565b610b696114a8565b73ffffffffffffffffffffffffffffffffffffffff16600a60009054906101000a900473ffffffffffffffffffffffffffffffffffffffff1673ffffffffffffffffffffffffffffffffffffffff1614610bf8576040517f08c379a0000000000000000000000000000000000000000000000000000000008152600401610bef9061375a565b60405180910390fd5b600073ffffffffffffffffffffffffffffffffffffffff16600a60009054906101000a900473ffffffffffffffffffffffffffffffffffffffff1673ffffffffffffffffffffffffffffffffffffffff167f8be0079c531659141344cd1fd0a4f28419497f9722a3daafe3b4186f6b6457e060405160405180910390a36000600a60006101000a81548173ffffffffffffffffffffffffffffffffffffffff021916908373ffffffffffffffffffffffffffffffffffffffff160217905550565b6000600a60009054906101000a900473ffffffffffffffffffffffffffffffffffffffff16905090565b610cf3610cee610cb9565b6118bc565b8181600d9190610d049291906127c5565b505050565b606060078054600181600116156101000203166002900480601f016020809104026020016040519081016040528092919081815260200182805460018160011615610100020316600290048015610da15780601f10610d7657610100808354040283529160200191610da1565b820191906000526020600020905b815481529060010190602001808311610d8457829003601f168201915b5050505050905090565b610dbb610db6610cb9565b6118bc565b610dc481611947565b50565b610dcf6114a8565b73ffffffffffffffffffffffffffffffffffffffff168273ffffffffffffffffffffffffffffffffffffffff161415610e3d576040517f08c379a0000000000000000000000000000000000000000000000000000000008152600401610e349061367a565b60405180910390fd5b8060056000610e4a6114a8565b73ffffffffffffffffffffffffffffffffffffffff1673ffffffffffffffffffffffffffffffffffffffff16815260200190815260200160002060008473ffffffffffffffffffffffffffffffffffffffff1673ffffffffffffffffffffffffffffffffffffffff16815260200190815260200160002060006101000a81548160ff0219169083151502179055508173ffffffffffffffffffffffffffffffffffffffff16610ef76114a8565b73ffffffffffffffffffffffffffffffffffffffff167f17307eab39ab6107e8899845ad3d59bd9653f200f220920489ca2b5937696c3183604051610f3c919061359d565b60405180910390a35050565b610f59610f536114a8565b8361157e565b610f98576040517f08c379a0000000000000000000000000000000000000000000000000000000008152600401610f8f906137da565b60405180910390fd5b610fa4848484846119cf565b50505050565b6060610fb58261148b565b610ff4576040517f08c379a0000000000000000000000000000000000000000000000000000000008152600401610feb9061379a565b60405180910390fd5b6060600860008481526020019081526020016000208054600181600116156101000203166002900480601f01602080910402602001604051908101604052809291908181526020018280546001816001161561010002031660029004801561109d5780601f106110725761010080835404028352916020019161109d565b820191906000526020600020905b81548152906001019060200180831161108057829003601f168201915b505050505090506000600980546001816001161561010002031660029004905014156110cc5780915050611130565b600081511115611101576009816040516020016110ea929190613512565b604051602081830303815290604052915050611130565b600961110c84611a2b565b60405160200161111d929190613512565b6040516020818303038152906040529150505b919050565b600e60009054906101000a900473ffffffffffffffffffffffffffffffffffffffff1681565b611186600e60009054906101000a900473ffffffffffffffffffffffffffffffffffffffff166118bc565b61118f81611b72565b50565b600d8054600181600116156101000203166002900480601f0160208091040260200160405190810160405280929190818152602001828054600181600116156101000203166002900480156112285780601f106111fd57610100808354040283529160200191611228565b820191906000526020600020905b81548152906001019060200180831161120b57829003601f168201915b505050505081565b6000600560008473ffffffffffffffffffffffffffffffffffffffff1673ffffffffffffffffffffffffffffffffffffffff16815260200190815260200160002060008373ffffffffffffffffffffffffffffffffffffffff1673ffffffffffffffffffffffffffffffffffffffff16815260200190815260200160002060009054906101000a900460ff16905092915050565b6112cc6114a8565b73ffffffffffffffffffffffffffffffffffffffff16600a60009054906101000a900473ffffffffffffffffffffffffffffffffffffffff1673ffffffffffffffffffffffffffffffffffffffff161461135b576040517f08c379a00000000000000000000000000000000000000000000000000000000081526004016113529061375a565b60405180910390fd5b600073ffffffffffffffffffffffffffffffffffffffff168173ffffffffffffffffffffffffffffffffffffffff1614156113cb576040517f08c379a00000000000000000000000000000000000000000000000000000000081526004016113c29061361a565b60405180910390fd5b8073ffffffffffffffffffffffffffffffffffffffff16600a60009054906101000a900473ffffffffffffffffffffffffffffffffffffffff1673ffffffffffffffffffffffffffffffffffffffff167f8be0079c531659141344cd1fd0a4f28419497f9722a3daafe3b4186f6b6457e060405160405180910390a380600a60006101000a81548173ffffffffffffffffffffffffffffffffffffffff021916908373ffffffffffffffffffffffffffffffffffffffff16021790555050565b60006114a1826002611cac90919063ffffffff16565b9050919050565b600033905090565b816004600083815260200190815260200160002060006101000a81548173ffffffffffffffffffffffffffffffffffffffff021916908373ffffffffffffffffffffffffffffffffffffffff160217905550808273ffffffffffffffffffffffffffffffffffffffff16611523836109c9565b73ffffffffffffffffffffffffffffffffffffffff167f8c5be1e5ebec7d5bd14f71427d1e84f3dd0314c0f7b2291e5b200ac8c7c3b92560405160405180910390a45050565b600061157782600001611cc6565b9050919050565b60006115898261148b565b6115c8576040517f08c379a00000000000000000000000000000000000000000000000000000000081526004016115bf9061369a565b60405180910390fd5b60006115d3836109c9565b90508073ffffffffffffffffffffffffffffffffffffffff168473ffffffffffffffffffffffffffffffffffffffff16148061164257508373ffffffffffffffffffffffffffffffffffffffff1661162a84610685565b73ffffffffffffffffffffffffffffffffffffffff16145b8061165357506116528185611230565b5b91505092915050565b8273ffffffffffffffffffffffffffffffffffffffff1661167c826109c9565b73ffffffffffffffffffffffffffffffffffffffff16146116d2576040517f08c379a00000000000000000000000000000000000000000000000000000000081526004016116c99061377a565b60405180910390fd5b600073ffffffffffffffffffffffffffffffffffffffff168273ffffffffffffffffffffffffffffffffffffffff161415611742576040517f08c379a00000000000000000000000000000000000000000000000000000000081526004016117399061365a565b60405180910390fd5b61174d838383611cd7565b6117586000826114b0565b6117a981600160008673ffffffffffffffffffffffffffffffffffffffff1673ffffffffffffffffffffffffffffffffffffffff168152602001908152602001600020611cdc90919063ffffffff16565b506117fb81600160008573ffffffffffffffffffffffffffffffffffffffff1673ffffffffffffffffffffffffffffffffffffffff168152602001908152602001600020611cf690919063ffffffff16565b5061181281836002611d109092919063ffffffff16565b50808273ffffffffffffffffffffffffffffffffffffffff168473ffffffffffffffffffffffffffffffffffffffff167fddf252ad1be2c89b69c2b068fc378daa952ba7f163c4a11628f55a4df523b3ef60405160405180910390a4505050565b60006118828360000183611d45565b60001c905092915050565b6000806000806118a08660000186611db2565b915091508160001c8160001c8090509350935050509250929050565b8073ffffffffffffffffffffffffffffffffffffffff163373ffffffffffffffffffffffffffffffffffffffff161461192a576040517f08c379a00000000000000000000000000000000000000000000000000000000081526004016119219061381a565b60405180910390fd5b50565b8060099080519060200190611943929190612845565b5050565b606461ffff16611957600b611e35565b1061196157600080fd5b6000611981611970600b611e35565b600c54611e4390919063ffffffff16565b905061198d8282611e8d565b611997600b61201b565b5050565b60006119ae846000018460001b84612031565b60001c90509392505050565b60006119c8826000016120c2565b9050919050565b6119da84848461165c565b6119e6848484846120d3565b611a25576040517f08c379a0000000000000000000000000000000000000000000000000000000008152600401611a1c906135fa565b60405180910390fd5b50505050565b60606000821415611a73576040518060400160405280600181526020017f30000000000000000000000000000000000000000000000000000000000000008152509050611b6d565b600082905060005b60008214611a9d578080600101915050600a8281611a9557fe5b049150611a7b565b60608167ffffffffffffffff81118015611ab657600080fd5b506040519080825280601f01601f191660200182016040528015611ae95781602001600182028036833780820191505090505b50905060006001830390508593505b60008414611b6557600a8481611b0a57fe5b0660300160f81b82828060019003935081518110611b2457fe5b60200101907effffffffffffffffffffffffffffffffffffffffffffffffffffffffffffff1916908160001a905350600a8481611b5d57fe5b049350611af8565b819450505050505b919050565b6000611b7d826109c9565b9050611b8b81600084611cd7565b611b966000836114b0565b60006008600084815260200190815260200160002080546001816001161561010002031660029004905014611be557600860008381526020019081526020016000206000611be491906128c5565b5b611c3682600160008473ffffffffffffffffffffffffffffffffffffffff1673ffffffffffffffffffffffffffffffffffffffff168152602001908152602001600020611cdc90919063ffffffff16565b50611c4b82600261223790919063ffffffff16565b5081600073ffffffffffffffffffffffffffffffffffffffff168273ffffffffffffffffffffffffffffffffffffffff167fddf252ad1be2c89b69c2b068fc378daa952ba7f163c4a11628f55a4df523b3ef60405160405180910390a45050565b6000611cbe836000018360001b612251565b905092915050565b600081600001805490509050919050565b505050565b6000611cee836000018360001b612274565b905092915050565b6000611d08836000018360001b61235c565b905092915050565b6000611d3c846000018460001b8473ffffffffffffffffffffffffffffffffffffffff1660001b6123cc565b90509392505050565b600081836000018054905011611d90576040517f08c379a0000000000000000000000000000000000000000000000000000000008152600401611d87906135da565b60405180910390fd5b826000018281548110611d9f57fe5b9060005260206000200154905092915050565b60008082846000018054905011611dfe576040517f08c379a0000000000000000000000000000000000000000000000000000000008152600401611df5906136fa565b60405180910390fd5b6000846000018481548110611e0f57fe5b906000526020600020906002020190508060000154816001015492509250509250929050565b600081600001549050919050565b6000611e8583836040518060400160405280601e81526020017f536166654d6174683a207375627472616374696f6e206f766572666c6f7700008152506124a8565b905092915050565b600073ffffffffffffffffffffffffffffffffffffffff168273ffffffffffffffffffffffffffffffffffffffff161415611efd576040517f08c379a0000000000000000000000000000000000000000000000000000000008152600401611ef49061371a565b60405180910390fd5b611f068161148b565b15611f46576040517f08c379a0000000000000000000000000000000000000000000000000000000008152600401611f3d9061363a565b60405180910390fd5b611f5260008383611cd7565b611fa381600160008573ffffffffffffffffffffffffffffffffffffffff1673ffffffffffffffffffffffffffffffffffffffff168152602001908152602001600020611cf690919063ffffffff16565b50611fba81836002611d109092919063ffffffff16565b50808273ffffffffffffffffffffffffffffffffffffffff16600073ffffffffffffffffffffffffffffffffffffffff167fddf252ad1be2c89b69c2b068fc378daa952ba7f163c4a11628f55a4df523b3ef60405160405180910390a45050565b6001816000016000828254019250508190555050565b60008084600101600085815260200190815260200160002054905060008114158390612093576040517f08c379a000000000000000000000000000000000000000000000000000000000815260040161208a91906135b8565b60405180910390fd5b508460000160018203815481106120a657fe5b9060005260206000209060020201600101549150509392505050565b600081600001805490509050919050565b60006120f48473ffffffffffffffffffffffffffffffffffffffff16612503565b612101576001905061222f565b60606121c863150b7a0260e01b6121166114a8565b88878760405160240161212c9493929190613551565b604051602081830303815290604052907bffffffffffffffffffffffffffffffffffffffffffffffffffffffff19166020820180517bffffffffffffffffffffffffffffffffffffffffffffffffffffffff8381831617835250505050604051806060016040528060328152602001613a70603291398773ffffffffffffffffffffffffffffffffffffffff1661254e9092919063ffffffff16565b90506000818060200190518101906121e09190612c09565b905063150b7a0260e01b7bffffffffffffffffffffffffffffffffffffffffffffffffffffffff1916817bffffffffffffffffffffffffffffffffffffffffffffffffffffffff191614925050505b949350505050565b6000612249836000018360001b612566565b905092915050565b600080836001016000848152602001908152602001600020541415905092915050565b6000808360010160008481526020019081526020016000205490506000811461235057600060018203905060006001866000018054905003905060008660000182815481106122bf57fe5b90600052602060002001549050808760000184815481106122dc57fe5b906000526020600020018190555060018301876001016000838152602001908152602001600020819055508660000180548061231457fe5b60019003818190600052602060002001600090559055866001016000878152602001908152602001600020600090556001945050505050612356565b60009150505b92915050565b6000612368838361267f565b6123c15782600001829080600181540180825580915050600190039060005260206000200160009091909190915055826000018054905083600101600084815260200190815260200160002081905550600190506123c6565b600090505b92915050565b6000808460010160008581526020019081526020016000205490506000811415612473578460000160405180604001604052808681526020018581525090806001815401808255809150506001900390600052602060002090600202016000909190919091506000820151816000015560208201518160010155505084600001805490508560010160008681526020019081526020016000208190555060019150506124a1565b8285600001600183038154811061248657fe5b90600052602060002090600202016001018190555060009150505b9392505050565b60008383111582906124f0576040517f08c379a00000000000000000000000000000000000000000000000000000000081526004016124e791906135b8565b60405180910390fd5b5060008385039050809150509392505050565b60008060007fc5d2460186f7233c927e7db2dcc703c0e500b653ca82273b7bfad8045d85a47060001b9050833f915080821415801561254557506000801b8214155b92505050919050565b606061255d84846000856126a2565b90509392505050565b6000808360010160008481526020019081526020016000205490506000811461267357600060018203905060006001866000018054905003905060008660000182815481106125b157fe5b90600052602060002090600202019050808760000184815481106125d157fe5b906000526020600020906002020160008201548160000155600182015481600101559050506001830187600101600083600001548152602001908152602001600020819055508660000180548061262457fe5b6001900381819060005260206000209060020201600080820160009055600182016000905550509055866001016000878152602001908152602001600020600090556001945050505050612679565b60009150505b92915050565b600080836001016000848152602001908152602001600020541415905092915050565b60606126ad85612503565b6126ec576040517f08c379a00000000000000000000000000000000000000000000000000000000081526004016126e3906137fa565b60405180910390fd5b600060608673ffffffffffffffffffffffffffffffffffffffff16858760405161271691906134fb565b60006040518083038185875af1925050503d8060008114612753576040519150601f19603f3d011682016040523d82523d6000602084013e612758565b606091505b5091509150811561276d5780925050506127bd565b6000815111156127805780518082602001fd5b836040517f08c379a00000000000000000000000000000000000000000000000000000000081526004016127b491906135b8565b60405180910390fd5b949350505050565b828054600181600116156101000203166002900490600052602060002090601f016020900481019282601f1061280657803560ff1916838001178555612834565b82800160010185558215612834579182015b82811115612833578235825591602001919060010190612818565b5b509050612841919061290d565b5090565b828054600181600116156101000203166002900490600052602060002090601f016020900481019282601f1061288657805160ff19168380011785556128b4565b828001600101855582156128b4579182015b828111156128b3578251825591602001919060010190612898565b5b5090506128c1919061290d565b5090565b50805460018160011615610100020316600290046000825580601f106128eb575061290a565b601f016020900490600052602060002090810190612909919061290d565b5b50565b61292f91905b8082111561292b576000816000905550600101612913565b5090565b90565b60008135905061294181613a13565b92915050565b60008135905061295681613a2a565b92915050565b60008135905061296b81613a41565b92915050565b60008151905061298081613a41565b92915050565b600082601f83011261299757600080fd5b81356129aa6129a58261389d565b613870565b915080825260208301602083018583830111156129c657600080fd5b6129d18382846139c0565b50505092915050565b60008083601f8401126129ec57600080fd5b8235905067ffffffffffffffff811115612a0557600080fd5b602083019150836001820283011115612a1d57600080fd5b9250929050565b600081359050612a3381613a58565b92915050565b600060208284031215612a4b57600080fd5b6000612a5984828501612932565b91505092915050565b60008060408385031215612a7557600080fd5b6000612a8385828601612932565b9250506020612a9485828601612932565b9150509250929050565b600080600060608486031215612ab357600080fd5b6000612ac186828701612932565b9350506020612ad286828701612932565b9250506040612ae386828701612a24565b9150509250925092565b60008060008060808587031215612b0357600080fd5b6000612b1187828801612932565b9450506020612b2287828801612932565b9350506040612b3387828801612a24565b925050606085013567ffffffffffffffff811115612b5057600080fd5b612b5c87828801612986565b91505092959194509250565b60008060408385031215612b7b57600080fd5b6000612b8985828601612932565b9250506020612b9a85828601612947565b9150509250929050565b60008060408385031215612bb757600080fd5b6000612bc585828601612932565b9250506020612bd685828601612a24565b9150509250929050565b600060208284031215612bf257600080fd5b6000612c008482850161295c565b91505092915050565b600060208284031215612c1b57600080fd5b6000612c2984828501612971565b91505092915050565b60008060208385031215612c4557600080fd5b600083013567ffffffffffffffff811115612c5f57600080fd5b612c6b858286016129da565b92509250509250929050565b600060208284031215612c8957600080fd5b6000612c9784828501612a24565b91505092915050565b612ca98161393e565b82525050565b612cb88161392c565b82525050565b612cc781613950565b82525050565b6000612cd8826138de565b612ce281856138f4565b9350612cf28185602086016139cf565b612cfb81613a02565b840191505092915050565b6000612d11826138de565b612d1b8185613905565b9350612d2b8185602086016139cf565b80840191505092915050565b6000612d42826138e9565b612d4c8185613910565b9350612d5c8185602086016139cf565b612d6581613a02565b840191505092915050565b6000612d7b826138e9565b612d858185613921565b9350612d958185602086016139cf565b80840191505092915050565b600081546001811660008114612dbe5760018114612de357612e27565b607f6002830416612dcf8187613921565b955060ff1983168652808601935050612e27565b60028204612df18187613921565b9550612dfc856138c9565b60005b82811015612e1e57815481890152600182019150602081019050612dff565b82880195505050505b505092915050565b6000612e3c602283613910565b91507f456e756d657261626c655365743a20696e646578206f7574206f6620626f756e60008301527f64730000000000000000000000000000000000000000000000000000000000006020830152604082019050919050565b6000612ea2603283613910565b91507f4552433732313a207472616e7366657220746f206e6f6e20455243373231526560008301527f63656976657220696d706c656d656e74657200000000000000000000000000006020830152604082019050919050565b6000612f08602683613910565b91507f4f776e61626c653a206e6577206f776e657220697320746865207a65726f206160008301527f64647265737300000000000000000000000000000000000000000000000000006020830152604082019050919050565b6000612f6e601c83613910565b91507f4552433732313a20746f6b656e20616c7265616479206d696e746564000000006000830152602082019050919050565b6000612fae602483613910565b91507f4552433732313a207472616e7366657220746f20746865207a65726f2061646460008301527f72657373000000000000000000000000000000000000000000000000000000006020830152604082019050919050565b6000613014601983613910565b91507f4552433732313a20617070726f766520746f2063616c6c6572000000000000006000830152602082019050919050565b6000613054602c83613910565b91507f4552433732313a206f70657261746f7220717565727920666f72206e6f6e657860008301527f697374656e7420746f6b656e00000000000000000000000000000000000000006020830152604082019050919050565b60006130ba603883613910565b91507f4552433732313a20617070726f76652063616c6c6572206973206e6f74206f7760008301527f6e6572206e6f7220617070726f76656420666f7220616c6c00000000000000006020830152604082019050919050565b6000613120602a83613910565b91507f4552433732313a2062616c616e636520717565727920666f7220746865207a6560008301527f726f2061646472657373000000000000000000000000000000000000000000006020830152604082019050919050565b6000613186602283613910565b91507f456e756d657261626c654d61703a20696e646578206f7574206f6620626f756e60008301527f64730000000000000000000000000000000000000000000000000000000000006020830152604082019050919050565b60006131ec602083613910565b91507f4552433732313a206d696e7420746f20746865207a65726f20616464726573736000830152602082019050919050565b600061322c602c83613910565b91507f4552433732313a20617070726f76656420717565727920666f72206e6f6e657860008301527f697374656e7420746f6b656e00000000000000000000000000000000000000006020830152604082019050919050565b6000613292602083613910565b91507f4f776e61626c653a2063616c6c6572206973206e6f7420746865206f776e65726000830152602082019050919050565b60006132d2602983613910565b91507f4552433732313a207472616e73666572206f6620746f6b656e2074686174206960008301527f73206e6f74206f776e00000000000000000000000000000000000000000000006020830152604082019050919050565b6000613338602f83613910565b91507f4552433732314d657461646174613a2055524920717565727920666f72206e6f60008301527f6e6578697374656e7420746f6b656e00000000000000000000000000000000006020830152604082019050919050565b600061339e602183613910565b91507f4552433732313a20617070726f76616c20746f2063757272656e74206f776e6560008301527f72000000000000000000000000000000000000000000000000000000000000006020830152604082019050919050565b6000613404603183613910565b91507f4552433732313a207472616e736665722063616c6c6572206973206e6f74206f60008301527f776e6572206e6f7220617070726f7665640000000000000000000000000000006020830152604082019050919050565b600061346a601d83613910565b91507f416464726573733a2063616c6c20746f206e6f6e2d636f6e74726163740000006000830152602082019050919050565b60006134aa600483613910565b91507f4e4f5045000000000000000000000000000000000000000000000000000000006000830152602082019050919050565b6134e681613988565b82525050565b6134f5816139b6565b82525050565b60006135078284612d06565b915081905092915050565b600061351e8285612da1565b915061352a8284612d70565b91508190509392505050565b600060208201905061354b6000830184612caf565b92915050565b60006080820190506135666000830187612ca0565b6135736020830186612caf565b61358060408301856134ec565b81810360608301526135928184612ccd565b905095945050505050565b60006020820190506135b26000830184612cbe565b92915050565b600060208201905081810360008301526135d28184612d37565b905092915050565b600060208201905081810360008301526135f381612e2f565b9050919050565b6000602082019050818103600083015261361381612e95565b9050919050565b6000602082019050818103600083015261363381612efb565b9050919050565b6000602082019050818103600083015261365381612f61565b9050919050565b6000602082019050818103600083015261367381612fa1565b9050919050565b6000602082019050818103600083015261369381613007565b9050919050565b600060208201905081810360008301526136b381613047565b9050919050565b600060208201905081810360008301526136d3816130ad565b9050919050565b600060208201905081810360008301526136f381613113565b9050919050565b6000602082019050818103600083015261371381613179565b9050919050565b60006020820190508181036000830152613733816131df565b9050919050565b600060208201905081810360008301526137538161321f565b9050919050565b6000602082019050818103600083015261377381613285565b9050919050565b60006020820190508181036000830152613793816132c5565b9050919050565b600060208201905081810360008301526137b38161332b565b9050919050565b600060208201905081810360008301526137d381613391565b9050919050565b600060208201905081810360008301526137f3816133f7565b9050919050565b600060208201905081810360008301526138138161345d565b9050919050565b600060208201905081810360008301526138338161349d565b9050919050565b600060208201905061384f60008301846134dd565b92915050565b600060208201905061386a60008301846134ec565b92915050565b6000604051905081810181811067ffffffffffffffff8211171561389357600080fd5b8060405250919050565b600067ffffffffffffffff8211156138b457600080fd5b601f19601f8301169050602081019050919050565b60008190508160005260206000209050919050565b600081519050919050565b600081519050919050565b600082825260208201905092915050565b600081905092915050565b600082825260208201905092915050565b600081905092915050565b600061393782613996565b9050919050565b600061394982613996565b9050919050565b60008115159050919050565b60007fffffffff0000000000000000000000000000000000000000000000000000000082169050919050565b600061ffff82169050919050565b600073ffffffffffffffffffffffffffffffffffffffff82169050919050565b6000819050919050565b82818337600083830152505050565b60005b838110156139ed5780820151818401526020810190506139d2565b838111156139fc576000848401525b50505050565b6000601f19601f8301169050919050565b613a1c8161392c565b8114613a2757600080fd5b50565b613a3381613950565b8114613a3e57600080fd5b50565b613a4a8161395c565b8114613a5557600080fd5b50565b613a61816139b6565b8114613a6c57600080fd5b5056fe4552433732313a207472616e7366657220746f206e6f6e20455243373231526563656976657220696d706c656d656e7465724552433732313a206f776e657220717565727920666f72206e6f6e6578697374656e7420746f6b656ea2646970667358221220a212c82c44b55424742f5e55864f2f9c4c631bf0b302c5454ae6bad45c6468cd64736f6c6343000608003368747470733a2f2f72696e6b6562792e74696e79626f782e73686f702f54696e79426f7865734c452e6a736f6e",
  "linkReferences": {},
  "deployedLinkReferences": {}
}