{
  "_format": "hh-sol-artifact-1",
  "contractName": "TinyBoxesLE",
  "sourceName": "contracts/PromoToken.sol",
  "abi": [
    {
      "inputs": [
        {
          "internalType": "address",
          "name": "_target",
          "type": "address"
        }
      ],
      "stateMutability": "nonpayable",
      "type": "constructor"
    },
    {
      "anonymous": false,
      "inputs": [
        {
          "indexed": true,
          "internalType": "address",
          "name": "owner",
          "type": "address"
        },
        {
          "indexed": true,
          "internalType": "address",
          "name": "approved",
          "type": "address"
        },
        {
          "indexed": true,
          "internalType": "uint256",
          "name": "tokenId",
          "type": "uint256"
        }
      ],
      "name": "Approval",
      "type": "event"
    },
    {
      "anonymous": false,
      "inputs": [
        {
          "indexed": true,
          "internalType": "address",
          "name": "owner",
          "type": "address"
        },
        {
          "indexed": true,
          "internalType": "address",
          "name": "operator",
          "type": "address"
        },
        {
          "indexed": false,
          "internalType": "bool",
          "name": "approved",
          "type": "bool"
        }
      ],
      "name": "ApprovalForAll",
      "type": "event"
    },
    {
      "anonymous": false,
      "inputs": [
        {
          "indexed": true,
          "internalType": "address",
          "name": "previousOwner",
          "type": "address"
        },
        {
          "indexed": true,
          "internalType": "address",
          "name": "newOwner",
          "type": "address"
        }
      ],
      "name": "OwnershipTransferred",
      "type": "event"
    },
    {
      "anonymous": false,
      "inputs": [
        {
          "indexed": true,
          "internalType": "address",
          "name": "from",
          "type": "address"
        },
        {
          "indexed": true,
          "internalType": "address",
          "name": "to",
          "type": "address"
        },
        {
          "indexed": true,
          "internalType": "uint256",
          "name": "tokenId",
          "type": "uint256"
        }
      ],
      "name": "Transfer",
      "type": "event"
    },
    {
      "inputs": [],
      "name": "TOKEN_LIMIT",
      "outputs": [
        {
          "internalType": "uint16",
          "name": "",
          "type": "uint16"
        }
      ],
      "stateMutability": "view",
      "type": "function"
    },
    {
      "inputs": [
        {
          "internalType": "address",
          "name": "to",
          "type": "address"
        }
      ],
      "name": "adminMint",
      "outputs": [],
      "stateMutability": "nonpayable",
      "type": "function"
    },
    {
      "inputs": [
        {
          "internalType": "address",
          "name": "to",
          "type": "address"
        },
        {
          "internalType": "uint256",
          "name": "tokenId",
          "type": "uint256"
        }
      ],
      "name": "approve",
      "outputs": [],
      "stateMutability": "nonpayable",
      "type": "function"
    },
    {
      "inputs": [
        {
          "internalType": "address",
          "name": "owner",
          "type": "address"
        }
      ],
      "name": "balanceOf",
      "outputs": [
        {
          "internalType": "uint256",
          "name": "",
          "type": "uint256"
        }
      ],
      "stateMutability": "view",
      "type": "function"
    },
    {
      "inputs": [],
      "name": "baseURI",
      "outputs": [
        {
          "internalType": "string",
          "name": "",
          "type": "string"
        }
      ],
      "stateMutability": "view",
      "type": "function"
    },
    {
      "inputs": [],
      "name": "contractURI",
      "outputs": [
        {
          "internalType": "string",
          "name": "",
          "type": "string"
        }
      ],
      "stateMutability": "view",
      "type": "function"
    },
    {
      "inputs": [
        {
          "internalType": "uint256",
          "name": "tokenId",
          "type": "uint256"
        }
      ],
      "name": "getApproved",
      "outputs": [
        {
          "internalType": "address",
          "name": "",
          "type": "address"
        }
      ],
      "stateMutability": "view",
      "type": "function"
    },
    {
      "inputs": [
        {
          "internalType": "address",
          "name": "owner",
          "type": "address"
        },
        {
          "internalType": "address",
          "name": "operator",
          "type": "address"
        }
      ],
      "name": "isApprovedForAll",
      "outputs": [
        {
          "internalType": "bool",
          "name": "",
          "type": "bool"
        }
      ],
      "stateMutability": "view",
      "type": "function"
    },
    {
      "inputs": [],
      "name": "name",
      "outputs": [
        {
          "internalType": "string",
          "name": "",
          "type": "string"
        }
      ],
      "stateMutability": "view",
      "type": "function"
    },
    {
      "inputs": [],
      "name": "owner",
      "outputs": [
        {
          "internalType": "address",
          "name": "",
          "type": "address"
        }
      ],
      "stateMutability": "view",
      "type": "function"
    },
    {
      "inputs": [
        {
          "internalType": "uint256",
          "name": "tokenId",
          "type": "uint256"
        }
      ],
      "name": "ownerOf",
      "outputs": [
        {
          "internalType": "address",
          "name": "",
          "type": "address"
        }
      ],
      "stateMutability": "view",
      "type": "function"
    },
    {
      "inputs": [
        {
          "internalType": "uint256",
          "name": "id",
          "type": "uint256"
        }
      ],
      "name": "redeem",
      "outputs": [],
      "stateMutability": "nonpayable",
      "type": "function"
    },
    {
      "inputs": [],
      "name": "renounceOwnership",
      "outputs": [],
      "stateMutability": "nonpayable",
      "type": "function"
    },
    {
      "inputs": [
        {
          "internalType": "address",
          "name": "from",
          "type": "address"
        },
        {
          "internalType": "address",
          "name": "to",
          "type": "address"
        },
        {
          "internalType": "uint256",
          "name": "tokenId",
          "type": "uint256"
        }
      ],
      "name": "safeTransferFrom",
      "outputs": [],
      "stateMutability": "nonpayable",
      "type": "function"
    },
    {
      "inputs": [
        {
          "internalType": "address",
          "name": "from",
          "type": "address"
        },
        {
          "internalType": "address",
          "name": "to",
          "type": "address"
        },
        {
          "internalType": "uint256",
          "name": "tokenId",
          "type": "uint256"
        },
        {
          "internalType": "bytes",
          "name": "_data",
          "type": "bytes"
        }
      ],
      "name": "safeTransferFrom",
      "outputs": [],
      "stateMutability": "nonpayable",
      "type": "function"
    },
    {
      "inputs": [
        {
          "internalType": "address",
          "name": "operator",
          "type": "address"
        },
        {
          "internalType": "bool",
          "name": "approved",
          "type": "bool"
        }
      ],
      "name": "setApprovalForAll",
      "outputs": [],
      "stateMutability": "nonpayable",
      "type": "function"
    },
    {
      "inputs": [
        {
          "internalType": "string",
          "name": "_uri",
          "type": "string"
        }
      ],
      "name": "setBaseURI",
      "outputs": [],
      "stateMutability": "nonpayable",
      "type": "function"
    },
    {
      "inputs": [
        {
          "internalType": "string",
          "name": "_uri",
          "type": "string"
        }
      ],
      "name": "setContractURI",
      "outputs": [],
      "stateMutability": "nonpayable",
      "type": "function"
    },
    {
      "inputs": [
        {
          "internalType": "bytes4",
          "name": "interfaceId",
          "type": "bytes4"
        }
      ],
      "name": "supportsInterface",
      "outputs": [
        {
          "internalType": "bool",
          "name": "",
          "type": "bool"
        }
      ],
      "stateMutability": "view",
      "type": "function"
    },
    {
      "inputs": [],
      "name": "symbol",
      "outputs": [
        {
          "internalType": "string",
          "name": "",
          "type": "string"
        }
      ],
      "stateMutability": "view",
      "type": "function"
    },
    {
      "inputs": [],
      "name": "target",
      "outputs": [
        {
          "internalType": "address",
          "name": "",
          "type": "address"
        }
      ],
      "stateMutability": "view",
      "type": "function"
    },
    {
      "inputs": [
        {
          "internalType": "address",
          "name": "to",
          "type": "address"
        }
      ],
      "name": "targetMint",
      "outputs": [],
      "stateMutability": "nonpayable",
      "type": "function"
    },
    {
      "inputs": [
        {
          "internalType": "uint256",
          "name": "index",
          "type": "uint256"
        }
      ],
      "name": "tokenByIndex",
      "outputs": [
        {
          "internalType": "uint256",
          "name": "",
          "type": "uint256"
        }
      ],
      "stateMutability": "view",
      "type": "function"
    },
    {
      "inputs": [
        {
          "internalType": "address",
          "name": "owner",
          "type": "address"
        },
        {
          "internalType": "uint256",
          "name": "index",
          "type": "uint256"
        }
      ],
      "name": "tokenOfOwnerByIndex",
      "outputs": [
        {
          "internalType": "uint256",
          "name": "",
          "type": "uint256"
        }
      ],
      "stateMutability": "view",
      "type": "function"
    },
    {
      "inputs": [
        {
          "internalType": "uint256",
          "name": "tokenId",
          "type": "uint256"
        }
      ],
      "name": "tokenURI",
      "outputs": [
        {
          "internalType": "string",
          "name": "",
          "type": "string"
        }
      ],
      "stateMutability": "view",
      "type": "function"
    },
    {
      "inputs": [],
      "name": "totalSupply",
      "outputs": [
        {
          "internalType": "uint256",
          "name": "",
          "type": "uint256"
        }
      ],
      "stateMutability": "view",
      "type": "function"
    },
    {
      "inputs": [
        {
          "internalType": "address",
          "name": "from",
          "type": "address"
        },
        {
          "internalType": "address",
          "name": "to",
          "type": "address"
        },
        {
          "internalType": "uint256",
          "name": "tokenId",
          "type": "uint256"
        }
      ],
      "name": "transferFrom",
      "outputs": [],
      "stateMutability": "nonpayable",
      "type": "function"
    },
    {
      "inputs": [
        {
          "internalType": "address",
          "name": "newOwner",
          "type": "address"
        }
      ],
      "name": "transferOwnership",
      "outputs": [],
      "stateMutability": "nonpayable",
      "type": "function"
    }
  ],
  "bytecode": "0x600019600c5560e0604052602d608081815290620026a260a03980516200002f91600d9160209091019062000227565b503480156200003d57600080fd5b50604051620026cf380380620026cf8339810160408190526200006091620002c9565b604080518082018252600c81526b54696e79426f786573204c4560a01b602080830191909152825180840190935260088352675b54425d5b4c455d60c01b9083015290620000be6301ffc9a760e01b6001600160e01b03620001c716565b8151620000d390600690602085019062000227565b508051620000e990600790602084019062000227565b50620001056380ac58cd60e01b6001600160e01b03620001c716565b62000120635b5e139f60e01b6001600160e01b03620001c716565b6200013b63780e9d6360e01b6001600160e01b03620001c716565b5060009050620001536001600160e01b036200022216565b600a80546001600160a01b0319166001600160a01b038316908117909155604051919250906000907f8be0079c531659141344cd1fd0a4f28419497f9722a3daafe3b4186f6b6457e0908290a350600e80546001600160a01b0319166001600160a01b039290921691909117905562000330565b6001600160e01b03198082161415620001fd5760405162461bcd60e51b8152600401620001f490620002f9565b60405180910390fd5b6001600160e01b0319166000908152602081905260409020805460ff19166001179055565b335b90565b828054600181600116156101000203166002900490600052602060002090601f016020900481019282601f106200026a57805160ff19168380011785556200029a565b828001600101855582156200029a579182015b828111156200029a5782518255916020019190600101906200027d565b50620002a8929150620002ac565b5090565b6200022491905b80821115620002a85760008155600101620002b3565b600060208284031215620002db578081fd5b81516001600160a01b0381168114620002f2578182fd5b9392505050565b6020808252601c908201527f4552433136353a20696e76616c696420696e7465726661636520696400000000604082015260600190565b61236280620003406000396000f3fe608060405234801561001057600080fd5b50600436106101c45760003560e01c806370a08231116100f9578063b88d4fde11610097578063db006a7511610071578063db006a7514610385578063e8a3d48514610398578063e985e9c5146103a0578063f2fde38b146103b3576101c4565b8063b88d4fde14610357578063c87b56dd1461036a578063d4b839921461037d576101c4565b8063938e3d7b116100d3578063938e3d7b1461031657806395d89b41146103295780639769dc0e14610331578063a22cb46514610344576101c4565b806370a08231146102f3578063715018a6146103065780638da5cb5b1461030e576101c4565b80632f745c591161016657806355f804b31161014057806355f804b3146102b2578063623b692f146102c55780636352211e146102d85780636c0360eb146102eb576101c4565b80632f745c591461027957806342842e0e1461028c5780634f6ccce71461029f576101c4565b8063081812fc116101a2578063081812fc1461021c578063095ea7b31461023c57806318160ddd1461025157806323b872dd14610266576101c4565b806301ffc9a7146101c9578063031bd4c4146101f257806306fdde0314610207575b600080fd5b6101dc6101d7366004611b7a565b6103c6565b6040516101e99190611d4e565b60405180910390f35b6101fa6103e9565b6040516101e99190612262565b61020f6103ee565b6040516101e99190611d59565b61022f61022a366004611c1c565b610485565b6040516101e99190611cfd565b61024f61024a366004611b50565b6104d1565b005b610259610569565b6040516101e99190612271565b61024f610274366004611a0f565b61057a565b610259610287366004611b50565b6105b2565b61024f61029a366004611a0f565b6105e3565b6102596102ad366004611c1c565b6105fe565b61024f6102c0366004611bb2565b61061a565b61024f6102d33660046119c0565b61066d565b61022f6102e6366004611c1c565b61068e565b61020f6106bc565b6102596103013660046119c0565b61071d565b61024f610766565b61022f6107e5565b61024f610324366004611bb2565b6107f4565b61020f61080b565b61024f61033f3660046119c0565b61086c565b61024f610352366004611b15565b610877565b61024f610365366004611a4f565b610945565b61020f610378366004611c1c565b610984565b61022f610ace565b61024f610393366004611c1c565b610add565b61020f610afb565b6101dc6103ae3660046119db565b610b89565b61024f6103c13660046119c0565b610bb7565b6001600160e01b0319811660009081526020819052604090205460ff165b919050565b606481565b60068054604080516020601f600260001961010060018816150201909516949094049384018190048102820181019092528281526060939092909183018282801561047a5780601f1061044f5761010080835404028352916020019161047a565b820191906000526020600020905b81548152906001019060200180831161045d57829003601f168201915b505050505090505b90565b600061049082610c6e565b6104b55760405162461bcd60e51b81526004016104ac90612062565b60405180910390fd5b506000908152600460205260409020546001600160a01b031690565b60006104dc8261068e565b9050806001600160a01b0316836001600160a01b031614156105105760405162461bcd60e51b81526004016104ac9061217b565b806001600160a01b0316610522610c81565b6001600160a01b0316148061053e575061053e816103ae610c81565b61055a5760405162461bcd60e51b81526004016104ac90611f44565b6105648383610c85565b505050565b60006105756002610cf3565b905090565b61058b610585610c81565b82610cfe565b6105a75760405162461bcd60e51b81526004016104ac906121bc565b610564838383610d83565b6001600160a01b03821660009081526001602052604081206105da908363ffffffff610ea316565b90505b92915050565b61056483838360405180602001604052806000815250610945565b60008061061260028463ffffffff610eaf16565b509392505050565b61062a6106256107e5565b610ecb565b61066982828080601f016020809104026020016040519081016040528093929190818152602001838380828437600092019190915250610ef392505050565b5050565b600e54610682906001600160a01b0316610ecb565b61068b81610f06565b50565b60006105dd82604051806060016040528060298152602001612304602991396002919063ffffffff610f5016565b60098054604080516020601f600260001961010060018816150201909516949094049384018190048102820181019092528281526060939092909183018282801561047a5780601f1061044f5761010080835404028352916020019161047a565b60006001600160a01b0382166107455760405162461bcd60e51b81526004016104ac90611fa1565b6001600160a01b03821660009081526001602052604090206105dd90610cf3565b61076e610c81565b600a546001600160a01b0390811691161461079b5760405162461bcd60e51b81526004016104ac906120ae565b600a546040516000916001600160a01b0316907f8be0079c531659141344cd1fd0a4f28419497f9722a3daafe3b4186f6b6457e0908390a3600a80546001600160a01b0319169055565b600a546001600160a01b031690565b6107ff6106256107e5565b610564600d8383611863565b60078054604080516020601f600260001961010060018816150201909516949094049384018190048102820181019092528281526060939092909183018282801561047a5780601f1061044f5761010080835404028352916020019161047a565b6106826106256107e5565b61087f610c81565b6001600160a01b0316826001600160a01b031614156108b05760405162461bcd60e51b81526004016104ac90611ec1565b80600560006108bd610c81565b6001600160a01b03908116825260208083019390935260409182016000908120918716808252919093529120805460ff191692151592909217909155610901610c81565b6001600160a01b03167f17307eab39ab6107e8899845ad3d59bd9653f200f220920489ca2b5937696c31836040516109399190611d4e565b60405180910390a35050565b610956610950610c81565b83610cfe565b6109725760405162461bcd60e51b81526004016104ac906121bc565b61097e84848484610f67565b50505050565b606061098f82610c6e565b6109ab5760405162461bcd60e51b81526004016104ac9061212c565b60008281526008602090815260409182902080548351601f6002600019610100600186161502019093169290920491820184900484028101840190945280845260609392830182828015610a405780601f10610a1557610100808354040283529160200191610a40565b820191906000526020600020905b815481529060010190602001808311610a2357829003601f168201915b505060095493945050505060026000196101006001841615020190911604610a695790506103e4565b805115610a9b57600981604051602001610a84929190611c7c565b6040516020818303038152906040529150506103e4565b6009610aa684610f9a565b604051602001610ab7929190611c7c565b604051602081830303815290604052915050919050565b600e546001600160a01b031681565b600e54610af2906001600160a01b0316610ecb565b61068b81611075565b600d805460408051602060026001851615610100026000190190941693909304601f81018490048402820184019092528181529291830182828015610b815780601f10610b5657610100808354040283529160200191610b81565b820191906000526020600020905b815481529060010190602001808311610b6457829003601f168201915b505050505081565b6001600160a01b03918216600090815260056020908152604080832093909416825291909152205460ff1690565b610bbf610c81565b600a546001600160a01b03908116911614610bec5760405162461bcd60e51b81526004016104ac906120ae565b6001600160a01b038116610c125760405162461bcd60e51b81526004016104ac90611e00565b600a546040516001600160a01b038084169216907f8be0079c531659141344cd1fd0a4f28419497f9722a3daafe3b4186f6b6457e090600090a3600a80546001600160a01b0319166001600160a01b0392909216919091179055565b60006105dd60028363ffffffff61114e16565b3390565b600081815260046020526040902080546001600160a01b0319166001600160a01b0384169081179091558190610cba8261068e565b6001600160a01b03167f8c5be1e5ebec7d5bd14f71427d1e84f3dd0314c0f7b2291e5b200ac8c7c3b92560405160405180910390a45050565b60006105dd8261115a565b6000610d0982610c6e565b610d255760405162461bcd60e51b81526004016104ac90611ef8565b6000610d308361068e565b9050806001600160a01b0316846001600160a01b03161480610d6b5750836001600160a01b0316610d6084610485565b6001600160a01b0316145b80610d7b5750610d7b8185610b89565b949350505050565b826001600160a01b0316610d968261068e565b6001600160a01b031614610dbc5760405162461bcd60e51b81526004016104ac906120e3565b6001600160a01b038216610de25760405162461bcd60e51b81526004016104ac90611e7d565b610ded838383610564565b610df8600082610c85565b6001600160a01b0383166000908152600160205260409020610e20908263ffffffff61115e16565b506001600160a01b0382166000908152600160205260409020610e49908263ffffffff61116a16565b50610e5c6002828463ffffffff61117616565b5080826001600160a01b0316846001600160a01b03167fddf252ad1be2c89b69c2b068fc378daa952ba7f163c4a11628f55a4df523b3ef60405160405180910390a4505050565b60006105da838361118c565b6000808080610ebe86866111d1565b9097909650945050505050565b336001600160a01b0382161461068b5760405162461bcd60e51b81526004016104ac90612244565b80516106699060099060208401906118e1565b6064610f12600b61115a565b10610f1c57600080fd5b6000610f3a610f2b600b61115a565b600c549063ffffffff61122d16565b9050610f46828261126f565b610669600b61133f565b6000610f5d848484611348565b90505b9392505050565b610f72848484610d83565b610f7e848484846113a7565b61097e5760405162461bcd60e51b81526004016104ac90611dae565b606081610fbf57506040805180820190915260018152600360fc1b60208201526103e4565b8160005b8115610fd757600101600a82049150610fc3565b60608167ffffffffffffffff81118015610ff057600080fd5b506040519080825280601f01601f19166020018201604052801561101b576020820181803683370190505b50859350905060001982015b831561106c57600a840660300160f81b8282806001900393508151811061104a57fe5b60200101906001600160f81b031916908160001a905350600a84049350611027565b50949350505050565b60006110808261068e565b905061108e81600084610564565b611099600083610c85565b60008281526008602052604090205460026000196101006001841615020190911604156110d75760008281526008602052604081206110d79161194f565b6001600160a01b03811660009081526001602052604090206110ff908363ffffffff61115e16565b5061111160028363ffffffff61148c16565b5060405182906000906001600160a01b038416907fddf252ad1be2c89b69c2b068fc378daa952ba7f163c4a11628f55a4df523b3ef908390a45050565b60006105da8383611498565b5490565b60006105da83836114b0565b60006105da8383611576565b6000610f5d84846001600160a01b0385166115c0565b815460009082106111af5760405162461bcd60e51b81526004016104ac90611d6c565b8260000182815481106111be57fe5b9060005260206000200154905092915050565b8154600090819083106111f65760405162461bcd60e51b81526004016104ac90611feb565b600084600001848154811061120757fe5b906000526020600020906002020190508060000154816001015492509250509250929050565b60006105da83836040518060400160405280601e81526020017f536166654d6174683a207375627472616374696f6e206f766572666c6f770000815250611657565b6001600160a01b0382166112955760405162461bcd60e51b81526004016104ac9061202d565b61129e81610c6e565b156112bb5760405162461bcd60e51b81526004016104ac90611e46565b6112c760008383610564565b6001600160a01b03821660009081526001602052604090206112ef908263ffffffff61116a16565b506113026002828463ffffffff61117616565b5060405181906001600160a01b038416906000907fddf252ad1be2c89b69c2b068fc378daa952ba7f163c4a11628f55a4df523b3ef908290a45050565b80546001019055565b600082815260018401602052604081205482816113785760405162461bcd60e51b81526004016104ac9190611d59565b5084600001600182038154811061138b57fe5b9060005260206000209060020201600101549150509392505050565b60006113bb846001600160a01b0316611683565b6113c757506001610d7b565b6060611455630a85bd0160e11b6113dc610c81565b8887876040516024016113f29493929190611d11565b604051602081830303815290604052906001600160e01b0319166020820180516001600160e01b0383818316178352505050506040518060600160405280603281526020016122d2603291396001600160a01b038816919063ffffffff6116bc16565b905060008180602001905181019061146d9190611b96565b6001600160e01b031916630a85bd0160e11b1492505050949350505050565b60006105da83836116cb565b60009081526001919091016020526040902054151590565b6000818152600183016020526040812054801561156c57835460001980830191908101906000908790839081106114e357fe5b906000526020600020015490508087600001848154811061150057fe5b60009182526020808320909101929092558281526001898101909252604090209084019055865487908061153057fe5b600190038181906000526020600020016000905590558660010160008781526020019081526020016000206000905560019450505050506105dd565b60009150506105dd565b60006115828383611498565b6115b8575081546001818101845560008481526020808220909301849055845484825282860190935260409020919091556105dd565b5060006105dd565b600082815260018401602052604081205480611625575050604080518082018252838152602080820184815286546001818101895560008981528481209551600290930290950191825591519082015586548684528188019092529290912055610f60565b8285600001600183038154811061163857fe5b9060005260206000209060020201600101819055506000915050610f60565b6000818484111561167b5760405162461bcd60e51b81526004016104ac9190611d59565b505050900390565b6000813f7fc5d2460186f7233c927e7db2dcc703c0e500b653ca82273b7bfad8045d85a470818114801590610d7b575050151592915050565b6060610f5d848460008561179f565b6000818152600183016020526040812054801561156c57835460001980830191908101906000908790839081106116fe57fe5b906000526020600020906002020190508087600001848154811061171e57fe5b60009182526020808320845460029093020191825560019384015491840191909155835482528983019052604090209084019055865487908061175d57fe5b60008281526020808220600260001990940193840201828155600190810183905592909355888152898201909252604082209190915594506105dd9350505050565b60606117aa85611683565b6117c65760405162461bcd60e51b81526004016104ac9061220d565b60006060866001600160a01b031685876040516117e39190611c60565b60006040518083038185875af1925050503d8060008114611820576040519150601f19603f3d011682016040523d82523d6000602084013e611825565b606091505b50915091508115611839579150610d7b9050565b8051156118495780518082602001fd5b8360405162461bcd60e51b81526004016104ac9190611d59565b828054600181600116156101000203166002900490600052602060002090601f016020900481019282601f106118a45782800160ff198235161785556118d1565b828001600101855582156118d1579182015b828111156118d15782358255916020019190600101906118b6565b506118dd92915061198f565b5090565b828054600181600116156101000203166002900490600052602060002090601f016020900481019282601f1061192257805160ff19168380011785556118d1565b828001600101855582156118d1579182015b828111156118d1578251825591602001919060010190611934565b50805460018160011615610100020316600290046000825580601f10611975575061068b565b601f01602090049060005260206000209081019061068b91905b61048291905b808211156118dd5760008155600101611995565b80356001600160a01b03811681146105dd57600080fd5b6000602082840312156119d1578081fd5b6105da83836119a9565b600080604083850312156119ed578081fd5b6119f784846119a9565b9150611a0684602085016119a9565b90509250929050565b600080600060608486031215611a23578081fd5b8335611a2e816122a6565b92506020840135611a3e816122a6565b929592945050506040919091013590565b60008060008060808587031215611a64578081fd5b611a6e86866119a9565b93506020611a7e878288016119a9565b935060408601359250606086013567ffffffffffffffff80821115611aa1578384fd5b81880189601f820112611ab2578485fd5b8035925081831115611ac2578485fd5b604051601f8401601f1916810185018381118282101715611ae1578687fd5b60405283815281840185018b1015611af7578586fd5b83858301868301379283019093019390935294979396509194505050565b60008060408385031215611b27578182fd5b611b3184846119a9565b915060208301358015158114611b45578182fd5b809150509250929050565b60008060408385031215611b62578182fd5b611b6c84846119a9565b946020939093013593505050565b600060208284031215611b8b578081fd5b8135610f60816122bb565b600060208284031215611ba7578081fd5b8151610f60816122bb565b60008060208385031215611bc4578182fd5b823567ffffffffffffffff80821115611bdb578384fd5b81850186601f820112611bec578485fd5b8035925081831115611bfc578485fd5b866020848301011115611c0d578485fd5b60200196919550909350505050565b600060208284031215611c2d578081fd5b5035919050565b60008151808452611c4c81602086016020860161227a565b601f01601f19169290920160200192915050565b60008251611c7281846020870161227a565b9190910192915050565b6000808454600180821660008114611c9b5760018114611cb257611ce1565b60ff198316865260028304607f1686019350611ce1565b600283048886526020808720875b83811015611cd95781548a820152908501908201611cc0565b505050860193505b5050508351611cf481836020880161227a565b01949350505050565b6001600160a01b0391909116815260200190565b6001600160a01b0385811682528416602082015260408101839052608060608201819052600090611d4490830184611c34565b9695505050505050565b901515815260200190565b6000602082526105da6020830184611c34565b60208082526022908201527f456e756d657261626c655365743a20696e646578206f7574206f6620626f756e604082015261647360f01b606082015260800190565b60208082526032908201527f4552433732313a207472616e7366657220746f206e6f6e20455243373231526560408201527131b2b4bb32b91034b6b83632b6b2b73a32b960711b606082015260800190565b60208082526026908201527f4f776e61626c653a206e6577206f776e657220697320746865207a65726f206160408201526564647265737360d01b606082015260800190565b6020808252601c908201527f4552433732313a20746f6b656e20616c7265616479206d696e74656400000000604082015260600190565b60208082526024908201527f4552433732313a207472616e7366657220746f20746865207a65726f206164646040820152637265737360e01b606082015260800190565b60208082526019908201527f4552433732313a20617070726f766520746f2063616c6c657200000000000000604082015260600190565b6020808252602c908201527f4552433732313a206f70657261746f7220717565727920666f72206e6f6e657860408201526b34b9ba32b73a103a37b5b2b760a11b606082015260800190565b60208082526038908201527f4552433732313a20617070726f76652063616c6c6572206973206e6f74206f7760408201527f6e6572206e6f7220617070726f76656420666f7220616c6c0000000000000000606082015260800190565b6020808252602a908201527f4552433732313a2062616c616e636520717565727920666f7220746865207a65604082015269726f206164647265737360b01b606082015260800190565b60208082526022908201527f456e756d657261626c654d61703a20696e646578206f7574206f6620626f756e604082015261647360f01b606082015260800190565b6020808252818101527f4552433732313a206d696e7420746f20746865207a65726f2061646472657373604082015260600190565b6020808252602c908201527f4552433732313a20617070726f76656420717565727920666f72206e6f6e657860408201526b34b9ba32b73a103a37b5b2b760a11b606082015260800190565b6020808252818101527f4f776e61626c653a2063616c6c6572206973206e6f7420746865206f776e6572604082015260600190565b60208082526029908201527f4552433732313a207472616e73666572206f6620746f6b656e2074686174206960408201526839903737ba1037bbb760b91b606082015260800190565b6020808252602f908201527f4552433732314d657461646174613a2055524920717565727920666f72206e6f60408201526e3732bc34b9ba32b73a103a37b5b2b760891b606082015260800190565b60208082526021908201527f4552433732313a20617070726f76616c20746f2063757272656e74206f776e656040820152603960f91b606082015260800190565b60208082526031908201527f4552433732313a207472616e736665722063616c6c6572206973206e6f74206f6040820152701ddb995c881b9bdc88185c1c1c9bdd9959607a1b606082015260800190565b6020808252601d908201527f416464726573733a2063616c6c20746f206e6f6e2d636f6e7472616374000000604082015260600190565b6020808252600490820152634e4f504560e01b604082015260600190565b61ffff91909116815260200190565b90815260200190565b60005b8381101561229557818101518382015260200161227d565b8381111561097e5750506000910152565b6001600160a01b038116811461068b57600080fd5b6001600160e01b03198116811461068b57600080fdfe4552433732313a207472616e7366657220746f206e6f6e20455243373231526563656976657220696d706c656d656e7465724552433732313a206f776e657220717565727920666f72206e6f6e6578697374656e7420746f6b656ea26469706673582212208da5867b53fbb3461f3daaffe3859701c13183678fe11aa1b17930172163f7f464736f6c6343000608003368747470733a2f2f72696e6b6562792e74696e79626f782e73686f702f54696e79426f7865734c452e6a736f6e",
  "linkReferences": {},
  "deployedLinkReferences": {}
}