{
  "_format": "hh-sol-artifact-1",
  "contractName": "FixidityLib",
  "sourceName": "contracts/libraries/FixidityLib.sol",
  "abi": [
    {
      "inputs": [
        {
          "internalType": "int256",
          "name": "x",
          "type": "int256"
        }
      ],
      "name": "abs",
      "outputs": [
        {
          "internalType": "int256",
          "name": "",
          "type": "int256"
        }
      ],
      "stateMutability": "pure",
      "type": "function"
    },
    {
      "inputs": [
        {
          "internalType": "int256",
          "name": "x",
          "type": "int256"
        },
        {
          "internalType": "int256",
          "name": "y",
          "type": "int256"
        }
      ],
      "name": "add",
      "outputs": [
        {
          "internalType": "int256",
          "name": "",
          "type": "int256"
        }
      ],
      "stateMutability": "pure",
      "type": "function"
    },
    {
      "inputs": [
        {
          "internalType": "int256",
          "name": "x",
          "type": "int256"
        },
        {
          "internalType": "uint8",
          "name": "_originDigits",
          "type": "uint8"
        },
        {
          "internalType": "uint8",
          "name": "_destinationDigits",
          "type": "uint8"
        }
      ],
      "name": "convertFixed",
      "outputs": [
        {
          "internalType": "int256",
          "name": "",
          "type": "int256"
        }
      ],
      "stateMutability": "pure",
      "type": "function"
    },
    {
      "inputs": [],
      "name": "digits",
      "outputs": [
        {
          "internalType": "uint8",
          "name": "",
          "type": "uint8"
        }
      ],
      "stateMutability": "pure",
      "type": "function"
    },
    {
      "inputs": [
        {
          "internalType": "int256",
          "name": "x",
          "type": "int256"
        },
        {
          "internalType": "int256",
          "name": "y",
          "type": "int256"
        }
      ],
      "name": "divide",
      "outputs": [
        {
          "internalType": "int256",
          "name": "",
          "type": "int256"
        }
      ],
      "stateMutability": "pure",
      "type": "function"
    },
    {
      "inputs": [],
      "name": "fixed1",
      "outputs": [
        {
          "internalType": "int256",
          "name": "",
          "type": "int256"
        }
      ],
      "stateMutability": "pure",
      "type": "function"
    },
    {
      "inputs": [
        {
          "internalType": "int256",
          "name": "x",
          "type": "int256"
        }
      ],
      "name": "fractional",
      "outputs": [
        {
          "internalType": "int256",
          "name": "",
          "type": "int256"
        }
      ],
      "stateMutability": "pure",
      "type": "function"
    },
    {
      "inputs": [
        {
          "internalType": "int256",
          "name": "x",
          "type": "int256"
        }
      ],
      "name": "fromFixed",
      "outputs": [
        {
          "internalType": "int256",
          "name": "",
          "type": "int256"
        }
      ],
      "stateMutability": "pure",
      "type": "function"
    },
    {
      "inputs": [
        {
          "internalType": "int256",
          "name": "x",
          "type": "int256"
        },
        {
          "internalType": "uint8",
          "name": "_destinationDigits",
          "type": "uint8"
        }
      ],
      "name": "fromFixed",
      "outputs": [
        {
          "internalType": "int256",
          "name": "",
          "type": "int256"
        }
      ],
      "stateMutability": "pure",
      "type": "function"
    },
    {
      "inputs": [
        {
          "internalType": "int256",
          "name": "x",
          "type": "int256"
        }
      ],
      "name": "integer",
      "outputs": [
        {
          "internalType": "int256",
          "name": "",
          "type": "int256"
        }
      ],
      "stateMutability": "pure",
      "type": "function"
    },
    {
      "inputs": [],
      "name": "maxFixedAdd",
      "outputs": [
        {
          "internalType": "int256",
          "name": "",
          "type": "int256"
        }
      ],
      "stateMutability": "pure",
      "type": "function"
    },
    {
      "inputs": [],
      "name": "maxFixedDiv",
      "outputs": [
        {
          "internalType": "int256",
          "name": "",
          "type": "int256"
        }
      ],
      "stateMutability": "pure",
      "type": "function"
    },
    {
      "inputs": [],
      "name": "maxFixedDivisor",
      "outputs": [
        {
          "internalType": "int256",
          "name": "",
          "type": "int256"
        }
      ],
      "stateMutability": "pure",
      "type": "function"
    },
    {
      "inputs": [],
      "name": "maxFixedMul",
      "outputs": [
        {
          "internalType": "int256",
          "name": "",
          "type": "int256"
        }
      ],
      "stateMutability": "pure",
      "type": "function"
    },
    {
      "inputs": [],
      "name": "maxFixedSub",
      "outputs": [
        {
          "internalType": "int256",
          "name": "",
          "type": "int256"
        }
      ],
      "stateMutability": "pure",
      "type": "function"
    },
    {
      "inputs": [],
      "name": "maxInt256",
      "outputs": [
        {
          "internalType": "int256",
          "name": "",
          "type": "int256"
        }
      ],
      "stateMutability": "pure",
      "type": "function"
    },
    {
      "inputs": [],
      "name": "maxNewFixed",
      "outputs": [
        {
          "internalType": "int256",
          "name": "",
          "type": "int256"
        }
      ],
      "stateMutability": "pure",
      "type": "function"
    },
    {
      "inputs": [],
      "name": "minInt256",
      "outputs": [
        {
          "internalType": "int256",
          "name": "",
          "type": "int256"
        }
      ],
      "stateMutability": "pure",
      "type": "function"
    },
    {
      "inputs": [],
      "name": "minNewFixed",
      "outputs": [
        {
          "internalType": "int256",
          "name": "",
          "type": "int256"
        }
      ],
      "stateMutability": "pure",
      "type": "function"
    },
    {
      "inputs": [],
      "name": "mulPrecision",
      "outputs": [
        {
          "internalType": "int256",
          "name": "",
          "type": "int256"
        }
      ],
      "stateMutability": "pure",
      "type": "function"
    },
    {
      "inputs": [
        {
          "internalType": "int256",
          "name": "x",
          "type": "int256"
        },
        {
          "internalType": "int256",
          "name": "y",
          "type": "int256"
        }
      ],
      "name": "multiply",
      "outputs": [
        {
          "internalType": "int256",
          "name": "",
          "type": "int256"
        }
      ],
      "stateMutability": "pure",
      "type": "function"
    },
    {
      "inputs": [
        {
          "internalType": "int256",
          "name": "x",
          "type": "int256"
        }
      ],
      "name": "newFixed",
      "outputs": [
        {
          "internalType": "int256",
          "name": "",
          "type": "int256"
        }
      ],
      "stateMutability": "pure",
      "type": "function"
    },
    {
      "inputs": [
        {
          "internalType": "int256",
          "name": "x",
          "type": "int256"
        },
        {
          "internalType": "uint8",
          "name": "_originDigits",
          "type": "uint8"
        }
      ],
      "name": "newFixed",
      "outputs": [
        {
          "internalType": "int256",
          "name": "",
          "type": "int256"
        }
      ],
      "stateMutability": "pure",
      "type": "function"
    },
    {
      "inputs": [
        {
          "internalType": "int256",
          "name": "numerator",
          "type": "int256"
        },
        {
          "internalType": "int256",
          "name": "denominator",
          "type": "int256"
        }
      ],
      "name": "newFixedFraction",
      "outputs": [
        {
          "internalType": "int256",
          "name": "",
          "type": "int256"
        }
      ],
      "stateMutability": "pure",
      "type": "function"
    },
    {
      "inputs": [
        {
          "internalType": "int256",
          "name": "x",
          "type": "int256"
        }
      ],
      "name": "reciprocal",
      "outputs": [
        {
          "internalType": "int256",
          "name": "",
          "type": "int256"
        }
      ],
      "stateMutability": "pure",
      "type": "function"
    },
    {
      "inputs": [
        {
          "internalType": "int256",
          "name": "x",
          "type": "int256"
        },
        {
          "internalType": "int256",
          "name": "y",
          "type": "int256"
        }
      ],
      "name": "subtract",
      "outputs": [
        {
          "internalType": "int256",
          "name": "",
          "type": "int256"
        }
      ],
      "stateMutability": "pure",
      "type": "function"
    }
  ],
  "bytecode": "0x610e4e610026600b82828239805160001a60731461001957fe5b30600052607381538281f3fe73000000000000000000000000000000000000000030146080604052600436106101985760003560e01c806395ac72cf116100e8578063b93ea812116100a1578063d6c1528b1161007b578063d6c1528b14610612578063e179f25214610661578063f5984236146106a3578063f800d672146106ef57610198565b8063b93ea81214610542578063bd5cbd621461058e578063cf94513a146105d057610198565b806395ac72cf146104085780639c15bca4146104545780639ca7eb76146104965780639e20437c146104b4578063a0601be7146104d8578063a5f3c23b146104f657610198565b80633c4308a8116101555780637bc140ea1161012f5780637bc140ea146103905780637c1bd7c8146103ae578063925d6dfd146103cc57806393b027b4146103ea57610198565b80633c4308a8146102ca5780634daaea5314610316578063718db30a1461037257610198565b80630e9989931461019d5780631b5ac4b5146101df5780632179bb6c14610221578063239909ea1461023f5780632fd81f461461025d578063393ca4461461027b575b600080fd5b6101c9600480360360208110156101b357600080fd5b810190808035906020019092919050505061070d565b6040518082815260200191505060405180910390f35b61020b600480360360208110156101f557600080fd5b8101908080359060200190929190505050610727565b6040518082815260200191505060405180910390f35b610229610754565b6040518082815260200191505060405180910390f35b610247610766565b6040518082815260200191505060405180910390f35b610265610782565b6040518082815260200191505060405180910390f35b6102b46004803603604081101561029157600080fd5b8101908080359060200190929190803560ff16906020019092919050505061079f565b6040518082815260200191505060405180910390f35b610300600480360360408110156102e057600080fd5b8101908080359060200190929190803590602001909291905050506107bb565b6040518082815260200191505060405180910390f35b61035c6004803603606081101561032c57600080fd5b8101908080359060200190929190803560ff169060200190929190803560ff169060200190929190505050610979565b6040518082815260200191505060405180910390f35b61037a610b0e565b6040518082815260200191505060405180910390f35b610398610b36565b6040518082815260200191505060405180910390f35b6103b6610b54565b6040518082815260200191505060405180910390f35b6103d4610b7c565b6040518082815260200191505060405180910390f35b6103f2610ba4565b6040518082815260200191505060405180910390f35b61043e6004803603604081101561041e57600080fd5b810190808035906020019092919080359060200190929190505050610bcc565b6040518082815260200191505060405180910390f35b6104806004803603602081101561046a57600080fd5b8101908080359060200190929190505050610c29565b6040518082815260200191505060405180910390f35b61049e610c56565b6040518082815260200191505060405180910390f35b6104bc610c63565b604051808260ff1660ff16815260200191505060405180910390f35b6104e0610c6c565b6040518082815260200191505060405180910390f35b61052c6004803603604081101561050c57600080fd5b810190808035906020019092919080359060200190929190505050610c94565b6040518082815260200191505060405180910390f35b6105786004803603604081101561055857600080fd5b810190808035906020019092919080359060200190929190505050610cfa565b6040518082815260200191505060405180910390f35b6105ba600480360360208110156105a457600080fd5b8101908080359060200190929190505050610d11565b6040518082815260200191505060405180910390f35b6105fc600480360360208110156105e657600080fd5b8101908080359060200190929190505050610d46565b6040518082815260200191505060405180910390f35b61064b6004803603604081101561062857600080fd5b8101908080359060200190929190803560ff169060200190929190505050610d6b565b6040518082815260200191505060405180910390f35b61068d6004803603602081101561067757600080fd5b8101908080359060200190929190505050610d87565b6040518082815260200191505060405180910390f35b6106d9600480360360408110156106b957600080fd5b810190808035906020019092919080359060200190929190505050610daa565b6040518082815260200191505060405180910390f35b6106f7610dfa565b6040518082815260200191505060405180910390f35b6000610717610754565b828161071f57fe5b059050919050565b60008082126107385781905061074f565b60008260000390506000811361074a57fe5b809150505b919050565b600069d3c21bcecceda1000000905090565b600073af298d050e4395d69670b12b7f41000000000000905090565b600074a4a2d938028c280000000000000000000000000000905090565b60006107b3836107ad610c63565b84610979565b905092915050565b6000808314806107cb5750600082145b156107d95760009050610973565b6107e1610754565b8214156107f057829050610973565b6107f8610754565b83141561080757819050610973565b6000610811610754565b61081a85610d87565b8161082157fe5b059050600061082f85610d46565b9050600061083b610754565b61084486610d87565b8161084b57fe5b059050600061085986610d46565b9050600082850290506000851461087d578285828161087457fe5b051461087c57fe5b5b6000610887610754565b82029050600082146108ad5761089b610754565b8282816108a457fe5b05146108ac57fe5b5b80915060008486029050600086146108d257848682816108c957fe5b05146108d157fe5b5b60008488029050600088146108f457848882816108eb57fe5b05146108f357fe5b5b6108fc610c56565b878161090457fe5b05965061090f610c56565b858161091757fe5b059450600085880290506000881461093c578588828161093357fe5b051461093b57fe5b5b600085905061094b8185610c94565b90506109578184610c94565b90506109638183610c94565b9050809a50505050505050505050505b92915050565b600060268360ff1611158015610993575060268260ff1611155b61099957fe5b60008260ff168460ff1611156109fc5782840390508060ff166fffffffffffffffffffffffffffffffff16600a6fffffffffffffffffffffffffffffffff160a6fffffffffffffffffffffffffffffffff1685816109f357fe5b05915050610b07565b8260ff168460ff161015610b025783830390508060ff166fffffffffffffffffffffffffffffffff16600a6fffffffffffffffffffffffffffffffff160a6fffffffffffffffffffffffffffffffff16610a54610ba4565b81610a5b57fe5b05851315610a6557fe5b8060ff166fffffffffffffffffffffffffffffffff16600a6fffffffffffffffffffffffffffffffff160a6fffffffffffffffffffffffffffffffff16610aaa610b54565b81610ab157fe5b05851215610abb57fe5b8060ff166fffffffffffffffffffffffffffffffff16600a6fffffffffffffffffffffffffffffffff160a6fffffffffffffffffffffffffffffffff168502915050610b07565b849150505b9392505050565b60007fffffffffffffffffffff6541eb32bb8ac4ad3b6d95698d86cabd2873c9ea30c6905090565b6000759abe14cd44753b52c4926a9672793542d78c3615cf3a905090565b60007f8000000000000000000000000000000000000000000000000000000000000000905090565b60007f3fffffffffffffffffffffffffffffffffffffffffffffffffffffffffffffff905090565b60007f7fffffffffffffffffffffffffffffffffffffffffffffffffffffffffffffff905090565b6000610bd6610dfa565b831315610bdf57fe5b610be7610dfa565b821315610bf057fe5b6000821415610bfb57fe5b6000610c0684610d11565b90506000610c1384610d11565b9050610c1f8282610daa565b9250505092915050565b600080821415610c3557fe5b81610c3e610754565b610c46610754565b0281610c4e57fe5b059050919050565b600064e8d4a51000905090565b60006018905090565b60007fc000000000000000000000000000000000000000000000000000000000000000905090565b6000808284019050600084138015610cac5750600083135b15610cc6578381138015610cbf57508281135b610cc557fe5b5b600084128015610cd65750600083125b15610cf0578381128015610ce957508281125b610cef57fe5b5b8091505092915050565b6000610d098383600003610c94565b905092915050565b6000610d1b610dfa565b821315610d2457fe5b610d2c610b0e565b821215610d3557fe5b610d3d610754565b82029050919050565b6000610d50610754565b610d58610754565b8381610d6057fe5b050282039050919050565b6000610d7f8383610d7a610c63565b610979565b905092915050565b6000610d91610754565b610d99610754565b8381610da157fe5b05029050919050565b6000610db4610754565b821415610dc357829050610df4565b6000821415610dce57fe5b610dd6610766565b821315610ddf57fe5b610df183610dec84610c29565b6107bb565b90505b92915050565b6000759abe14cd44753b52c4926a9672793542d78c3615cf3a90509056fea2646970667358221220c583b94f527808c6ccbabe8b69ed234410013cd3b1836c48a69b0c86d3b7035564736f6c63430006080033",
  "linkReferences": {},
  "deployedLinkReferences": {}
}