{
  "_format": "hh-sol-artifact-1",
  "contractName": "FixidityLib",
  "sourceName": "contracts/libraries/FixidityLib.sol",
  "abi": [
    {
      "inputs": [
        {
          "internalType": "int256",
          "name": "x",
          "type": "int256"
        }
      ],
      "name": "abs",
      "outputs": [
        {
          "internalType": "int256",
          "name": "",
          "type": "int256"
        }
      ],
      "stateMutability": "pure",
      "type": "function"
    },
    {
      "inputs": [
        {
          "internalType": "int256",
          "name": "x",
          "type": "int256"
        },
        {
          "internalType": "int256",
          "name": "y",
          "type": "int256"
        }
      ],
      "name": "add",
      "outputs": [
        {
          "internalType": "int256",
          "name": "",
          "type": "int256"
        }
      ],
      "stateMutability": "pure",
      "type": "function"
    },
    {
      "inputs": [
        {
          "internalType": "int256",
          "name": "x",
          "type": "int256"
        },
        {
          "internalType": "uint8",
          "name": "_originDigits",
          "type": "uint8"
        },
        {
          "internalType": "uint8",
          "name": "_destinationDigits",
          "type": "uint8"
        }
      ],
      "name": "convertFixed",
      "outputs": [
        {
          "internalType": "int256",
          "name": "",
          "type": "int256"
        }
      ],
      "stateMutability": "pure",
      "type": "function"
    },
    {
      "inputs": [],
      "name": "digits",
      "outputs": [
        {
          "internalType": "uint8",
          "name": "",
          "type": "uint8"
        }
      ],
      "stateMutability": "pure",
      "type": "function"
    },
    {
      "inputs": [
        {
          "internalType": "int256",
          "name": "x",
          "type": "int256"
        },
        {
          "internalType": "int256",
          "name": "y",
          "type": "int256"
        }
      ],
      "name": "divide",
      "outputs": [
        {
          "internalType": "int256",
          "name": "",
          "type": "int256"
        }
      ],
      "stateMutability": "pure",
      "type": "function"
    },
    {
      "inputs": [],
      "name": "fixed1",
      "outputs": [
        {
          "internalType": "int256",
          "name": "",
          "type": "int256"
        }
      ],
      "stateMutability": "pure",
      "type": "function"
    },
    {
      "inputs": [
        {
          "internalType": "int256",
          "name": "x",
          "type": "int256"
        }
      ],
      "name": "fractional",
      "outputs": [
        {
          "internalType": "int256",
          "name": "",
          "type": "int256"
        }
      ],
      "stateMutability": "pure",
      "type": "function"
    },
    {
      "inputs": [
        {
          "internalType": "int256",
          "name": "x",
          "type": "int256"
        }
      ],
      "name": "fromFixed",
      "outputs": [
        {
          "internalType": "int256",
          "name": "",
          "type": "int256"
        }
      ],
      "stateMutability": "pure",
      "type": "function"
    },
    {
      "inputs": [
        {
          "internalType": "int256",
          "name": "x",
          "type": "int256"
        },
        {
          "internalType": "uint8",
          "name": "_destinationDigits",
          "type": "uint8"
        }
      ],
      "name": "fromFixed",
      "outputs": [
        {
          "internalType": "int256",
          "name": "",
          "type": "int256"
        }
      ],
      "stateMutability": "pure",
      "type": "function"
    },
    {
      "inputs": [
        {
          "internalType": "int256",
          "name": "x",
          "type": "int256"
        }
      ],
      "name": "integer",
      "outputs": [
        {
          "internalType": "int256",
          "name": "",
          "type": "int256"
        }
      ],
      "stateMutability": "pure",
      "type": "function"
    },
    {
      "inputs": [],
      "name": "maxFixedAdd",
      "outputs": [
        {
          "internalType": "int256",
          "name": "",
          "type": "int256"
        }
      ],
      "stateMutability": "pure",
      "type": "function"
    },
    {
      "inputs": [],
      "name": "maxFixedDiv",
      "outputs": [
        {
          "internalType": "int256",
          "name": "",
          "type": "int256"
        }
      ],
      "stateMutability": "pure",
      "type": "function"
    },
    {
      "inputs": [],
      "name": "maxFixedDivisor",
      "outputs": [
        {
          "internalType": "int256",
          "name": "",
          "type": "int256"
        }
      ],
      "stateMutability": "pure",
      "type": "function"
    },
    {
      "inputs": [],
      "name": "maxFixedMul",
      "outputs": [
        {
          "internalType": "int256",
          "name": "",
          "type": "int256"
        }
      ],
      "stateMutability": "pure",
      "type": "function"
    },
    {
      "inputs": [],
      "name": "maxFixedSub",
      "outputs": [
        {
          "internalType": "int256",
          "name": "",
          "type": "int256"
        }
      ],
      "stateMutability": "pure",
      "type": "function"
    },
    {
      "inputs": [],
      "name": "maxInt256",
      "outputs": [
        {
          "internalType": "int256",
          "name": "",
          "type": "int256"
        }
      ],
      "stateMutability": "pure",
      "type": "function"
    },
    {
      "inputs": [],
      "name": "maxNewFixed",
      "outputs": [
        {
          "internalType": "int256",
          "name": "",
          "type": "int256"
        }
      ],
      "stateMutability": "pure",
      "type": "function"
    },
    {
      "inputs": [],
      "name": "minInt256",
      "outputs": [
        {
          "internalType": "int256",
          "name": "",
          "type": "int256"
        }
      ],
      "stateMutability": "pure",
      "type": "function"
    },
    {
      "inputs": [],
      "name": "minNewFixed",
      "outputs": [
        {
          "internalType": "int256",
          "name": "",
          "type": "int256"
        }
      ],
      "stateMutability": "pure",
      "type": "function"
    },
    {
      "inputs": [],
      "name": "mulPrecision",
      "outputs": [
        {
          "internalType": "int256",
          "name": "",
          "type": "int256"
        }
      ],
      "stateMutability": "pure",
      "type": "function"
    },
    {
      "inputs": [
        {
          "internalType": "int256",
          "name": "x",
          "type": "int256"
        },
        {
          "internalType": "int256",
          "name": "y",
          "type": "int256"
        }
      ],
      "name": "multiply",
      "outputs": [
        {
          "internalType": "int256",
          "name": "",
          "type": "int256"
        }
      ],
      "stateMutability": "pure",
      "type": "function"
    },
    {
      "inputs": [
        {
          "internalType": "int256",
          "name": "x",
          "type": "int256"
        }
      ],
      "name": "newFixed",
      "outputs": [
        {
          "internalType": "int256",
          "name": "",
          "type": "int256"
        }
      ],
      "stateMutability": "pure",
      "type": "function"
    },
    {
      "inputs": [
        {
          "internalType": "int256",
          "name": "x",
          "type": "int256"
        },
        {
          "internalType": "uint8",
          "name": "_originDigits",
          "type": "uint8"
        }
      ],
      "name": "newFixed",
      "outputs": [
        {
          "internalType": "int256",
          "name": "",
          "type": "int256"
        }
      ],
      "stateMutability": "pure",
      "type": "function"
    },
    {
      "inputs": [
        {
          "internalType": "int256",
          "name": "numerator",
          "type": "int256"
        },
        {
          "internalType": "int256",
          "name": "denominator",
          "type": "int256"
        }
      ],
      "name": "newFixedFraction",
      "outputs": [
        {
          "internalType": "int256",
          "name": "",
          "type": "int256"
        }
      ],
      "stateMutability": "pure",
      "type": "function"
    },
    {
      "inputs": [
        {
          "internalType": "int256",
          "name": "x",
          "type": "int256"
        }
      ],
      "name": "reciprocal",
      "outputs": [
        {
          "internalType": "int256",
          "name": "",
          "type": "int256"
        }
      ],
      "stateMutability": "pure",
      "type": "function"
    },
    {
      "inputs": [
        {
          "internalType": "int256",
          "name": "x",
          "type": "int256"
        },
        {
          "internalType": "int256",
          "name": "y",
          "type": "int256"
        }
      ],
      "name": "subtract",
      "outputs": [
        {
          "internalType": "int256",
          "name": "",
          "type": "int256"
        }
      ],
      "stateMutability": "pure",
      "type": "function"
    }
  ],
  "bytecode": "0x610940610026600b82828239805160001a60731461001957fe5b30600052607381538281f3fe73000000000000000000000000000000000000000030146080604052600436106101985760003560e01c806395ac72cf116100e8578063b93ea812116100a1578063d6c1528b1161007b578063d6c1528b1461038e578063e179f252146103b4578063f5984236146103d1578063f800d6721461028057610198565b8063b93ea81214610331578063bd5cbd6214610354578063cf94513a1461037157610198565b806395ac72cf146102a05780639c15bca4146102c35780639ca7eb76146102e05780639e20437c146102e8578063a0601be714610306578063a5f3c23b1461030e57610198565b80633c4308a8116101555780637bc140ea1161012f5780637bc140ea146102805780637c1bd7c814610288578063925d6dfd1461029057806393b027b41461029857610198565b80633c4308a8146102275780634daaea531461024a578063718db30a1461027857610198565b80630e9989931461019d5780631b5ac4b5146101cc5780632179bb6c146101e9578063239909ea146101f15780632fd81f46146101f9578063393ca44614610201575b600080fd5b6101ba600480360360208110156101b357600080fd5b50356103f4565b60408051918252519081900360200190f35b6101ba600480360360208110156101e257600080fd5b503561040f565b6101ba610434565b6101ba610442565b6101ba61045a565b6101ba6004803603604081101561021757600080fd5b508035906020013560ff16610468565b6101ba6004803603604081101561023d57600080fd5b5080359060200135610485565b6101ba6004803603606081101561026057600080fd5b5080359060ff60208201358116916040013516610615565b6101ba6106f2565b6101ba61070d565b6101ba610727565b6101ba61072f565b6101ba61073a565b6101ba600480360360408110156102b657600080fd5b5080359060200135610745565b6101ba600480360360208110156102d957600080fd5b503561079d565b6101ba6107bf565b6102f06107c8565b6040805160ff9092168252519081900360200190f35b6101ba6107cd565b6101ba6004803603604081101561032457600080fd5b50803590602001356107d5565b6101ba6004803603604081101561034757600080fd5b508035906020013561082b565b6101ba6004803603602081101561036a57600080fd5b503561083a565b6101ba6004803603602081101561038757600080fd5b503561086e565b6101ba600480360360408110156103a457600080fd5b508035906020013560ff16610892565b6101ba600480360360208110156103ca57600080fd5b50356108a6565b6101ba600480360360408110156103e757600080fd5b50803590602001356108c8565b60006103fe610434565b828161040657fe5b0590505b919050565b600080821261041f57508061040a565b600082810390811361042d57fe5b905061040a565b69d3c21bcecceda100000090565b73af298d050e4395d69670b12b7f4100000000000090565b6614945b2700518560731b90565b600061047c836104766107c8565b84610615565b90505b92915050565b6000821580610492575081155b1561049f5750600061047f565b6104a7610434565b8214156104b557508161047f565b6104bd610434565b8314156104cb57508061047f565b60006104d5610434565b6104de856108a6565b816104e557fe5b05905060006104f38561086e565b905060006104ff610434565b610508866108a6565b8161050f57fe5b059050600061051d8661086e565b9050838202841561053a578285828161053257fe5b051461053a57fe5b6000610544610434565b82029050811561056757610556610434565b82828161055f57fe5b051461056757fe5b9050808484028515610585578486828161057d57fe5b051461058557fe5b86840287156105a0578488828161059857fe5b05146105a057fe5b6105a86107bf565b87816105b057fe5b0596506105bb6107bf565b85816105c357fe5b05945086850287156105e157858882816105d957fe5b05146105e157fe5b846105ec81856107d5565b90506105f881846107d5565b905061060481836107d5565b9d9c50505050505050505050505050565b600060268360ff161115801561062f575060268260ff1611155b61063557fe5b60008260ff168460ff16111561066a575081830360ff8116600a0a6001600160801b0316858161066157fe5b059150506106eb565b8260ff168460ff1610156106e6575082820360ff8116600a0a6001600160801b031661069461073a565b8161069b57fe5b058513156106a557fe5b60ff8116600a0a6001600160801b03166106bd610727565b816106c457fe5b058512156106ce57fe5b60ff16600a0a6001600160801b0316840290506106eb565b849150505b9392505050565b759abe14cd44753b52c4926a9672793542d78c3615cf391990565b759abe14cd44753b52c4926a9672793542d78c3615cf3a90565b600160ff1b90565b6001600160fe1b0390565b6001600160ff1b0390565b600061074f61070d565b83131561075857fe5b61076061070d565b82131561076957fe5b8161077057fe5b600061077b8461083a565b905060006107888461083a565b905061079482826108c8565b95945050505050565b6000816107a657fe5b816107af610434565b6107b7610434565b028161040657fe5b64e8d4a5100090565b601890565b600360fe1b90565b600082820181841380156107e95750600083135b156108025783811380156107fc57508281135b61080257fe5b6000841280156108125750600083125b1561047c57838112801561082557508281125b61047c57fe5b600061047c83836000036107d5565b600061084461070d565b82131561084d57fe5b6108556106f2565b82121561085e57fe5b610866610434565b909102919050565b6000610878610434565b610880610434565b838161088857fe5b0502909103919050565b600061047c83836108a16107c8565b610615565b60006108b0610434565b6108b8610434565b83816108c057fe5b050292915050565b60006108d2610434565b8214156108e057508161047f565b816108e757fe5b6108ef610442565b8213156108f857fe5b61047c836109058461079d565b61048556fea26469706673582212200e164409830b122432f62c6647762475a01c59dccfb2677565a1040146ac92cf64736f6c63430006080033",
  "linkReferences": {},
  "deployedLinkReferences": {}
}