{
  "_format": "hh-sol-artifact-1",
  "contractName": "Metadata",
  "sourceName": "contracts/libraries/Metadata.sol",
  "abi": [
    {
      "inputs": [
        {
          "internalType": "address",
          "name": "account",
          "type": "address"
        }
      ],
      "name": "toString",
      "outputs": [
        {
          "internalType": "string",
          "name": "",
          "type": "string"
        }
      ],
      "stateMutability": "pure",
      "type": "function"
    },
    {
      "inputs": [
        {
          "internalType": "uint256",
          "name": "value",
          "type": "uint256"
        }
      ],
      "name": "toString",
      "outputs": [
        {
          "internalType": "string",
          "name": "",
          "type": "string"
        }
      ],
      "stateMutability": "pure",
      "type": "function"
    },
    {
      "inputs": [
        {
          "internalType": "bytes",
          "name": "data",
          "type": "bytes"
        }
      ],
      "name": "toString",
      "outputs": [
        {
          "internalType": "string",
          "name": "",
          "type": "string"
        }
      ],
      "stateMutability": "pure",
      "type": "function"
    },
    {
      "inputs": [
        {
          "internalType": "bytes32",
          "name": "value",
          "type": "bytes32"
        }
      ],
      "name": "toString",
      "outputs": [
        {
          "internalType": "string",
          "name": "",
          "type": "string"
        }
      ],
      "stateMutability": "pure",
      "type": "function"
    }
  ],
  "bytecode": "0x610488610026600b82828239805160001a60731461001957fe5b30600052607381538281f3fe73000000000000000000000000000000000000000030146080604052600436106100565760003560e01c806356ca623e1461005b5780636900a3ae1461010357806371aad10d14610120578063b11a19e814610103575b600080fd5b61008e6004803603602081101561007157600080fd5b503573ffffffffffffffffffffffffffffffffffffffff166101c6565b6040805160208082528351818301528351919283929083019185019080838360005b838110156100c85781810151838201526020016100b0565b50505050905090810190601f1680156100f55780820380516001836020036101000a031916815260200191505b509250505060405180910390f35b61008e6004803603602081101561011957600080fd5b5035610225565b61008e6004803603602081101561013657600080fd5b81019060208101813564010000000081111561015157600080fd5b82018360208201111561016357600080fd5b8035906020019184600183028401116401000000008311171561018557600080fd5b91908080601f01602080910402602001604051908101604052809392919081815260200183838082843760009201919091525092955061024b945050505050565b606061021f82604051602001808273ffffffffffffffffffffffffffffffffffffffff1673ffffffffffffffffffffffffffffffffffffffff1660601b815260140191505060405160208183030381529060405261024b565b92915050565b606061021f82604051602001808281526020019150506040516020818303038152906040525b6060806040518060400160405280601081526020017f303132333435363738394142434445460000000000000000000000000000000081525090506060835160020260020167ffffffffffffffff811180156102a657600080fd5b506040519080825280601f01601f1916602001820160405280156102d1576020820181803683370190505b5090507f30000000000000000000000000000000000000000000000000000000000000008160008151811061030257fe5b60200101906001600160f81b031916908160001a9053507f78000000000000000000000000000000000000000000000000000000000000008160018151811061034757fe5b60200101906001600160f81b031916908160001a90535060005b845181101561044a5782600486838151811061037957fe5b016020015182517fff0000000000000000000000000000000000000000000000000000000000000090911690911c60f81c9081106103b357fe5b602001015160f81c60f81b8282600202600201815181106103d057fe5b60200101906001600160f81b031916908160001a905350828582815181106103f457fe5b602091010151815160f89190911c600f1690811061040e57fe5b602001015160f81c60f81b82826002026003018151811061042b57fe5b60200101906001600160f81b031916908160001a905350600101610361565b50939250505056fea2646970667358221220140bf2aa3e81cf1d8cb7a5b19f8bde800af3367e4e6d73f14f3a695a97a44e0264736f6c63430006080033",
  "linkReferences": {},
  "deployedLinkReferences": {}
}