{
  "_format": "hh-sol-artifact-1",
  "contractName": "TinyBoxesStore",
  "sourceName": "contracts/TinyBoxesStore.sol",
  "abi": [
    {
      "inputs": [
        {
          "internalType": "address",
          "name": "entropySourceAddress",
          "type": "address"
        }
      ],
      "stateMutability": "nonpayable",
      "type": "constructor"
    },
    {
      "anonymous": false,
      "inputs": [
        {
          "indexed": true,
          "internalType": "address",
          "name": "owner",
          "type": "address"
        },
        {
          "indexed": true,
          "internalType": "address",
          "name": "approved",
          "type": "address"
        },
        {
          "indexed": true,
          "internalType": "uint256",
          "name": "tokenId",
          "type": "uint256"
        }
      ],
      "name": "Approval",
      "type": "event"
    },
    {
      "anonymous": false,
      "inputs": [
        {
          "indexed": true,
          "internalType": "address",
          "name": "owner",
          "type": "address"
        },
        {
          "indexed": true,
          "internalType": "address",
          "name": "operator",
          "type": "address"
        },
        {
          "indexed": false,
          "internalType": "bool",
          "name": "approved",
          "type": "bool"
        }
      ],
      "name": "ApprovalForAll",
      "type": "event"
    },
    {
      "anonymous": false,
      "inputs": [
        {
          "indexed": false,
          "internalType": "uint256",
          "name": "id",
          "type": "uint256"
        }
      ],
      "name": "LECreated",
      "type": "event"
    },
    {
      "anonymous": false,
      "inputs": [
        {
          "indexed": true,
          "internalType": "bytes32",
          "name": "role",
          "type": "bytes32"
        },
        {
          "indexed": true,
          "internalType": "bytes32",
          "name": "previousAdminRole",
          "type": "bytes32"
        },
        {
          "indexed": true,
          "internalType": "bytes32",
          "name": "newAdminRole",
          "type": "bytes32"
        }
      ],
      "name": "RoleAdminChanged",
      "type": "event"
    },
    {
      "anonymous": false,
      "inputs": [
        {
          "indexed": true,
          "internalType": "bytes32",
          "name": "role",
          "type": "bytes32"
        },
        {
          "indexed": true,
          "internalType": "address",
          "name": "account",
          "type": "address"
        },
        {
          "indexed": true,
          "internalType": "address",
          "name": "sender",
          "type": "address"
        }
      ],
      "name": "RoleGranted",
      "type": "event"
    },
    {
      "anonymous": false,
      "inputs": [
        {
          "indexed": true,
          "internalType": "bytes32",
          "name": "role",
          "type": "bytes32"
        },
        {
          "indexed": true,
          "internalType": "address",
          "name": "account",
          "type": "address"
        },
        {
          "indexed": true,
          "internalType": "address",
          "name": "sender",
          "type": "address"
        }
      ],
      "name": "RoleRevoked",
      "type": "event"
    },
    {
      "anonymous": false,
      "inputs": [
        {
          "indexed": true,
          "internalType": "address",
          "name": "from",
          "type": "address"
        },
        {
          "indexed": true,
          "internalType": "address",
          "name": "to",
          "type": "address"
        },
        {
          "indexed": true,
          "internalType": "uint256",
          "name": "tokenId",
          "type": "uint256"
        }
      ],
      "name": "Transfer",
      "type": "event"
    },
    {
      "inputs": [],
      "name": "ADMIN_ROLE",
      "outputs": [
        {
          "internalType": "bytes32",
          "name": "",
          "type": "bytes32"
        }
      ],
      "stateMutability": "view",
      "type": "function"
    },
    {
      "inputs": [],
      "name": "ANIMATION_COUNT",
      "outputs": [
        {
          "internalType": "uint8",
          "name": "",
          "type": "uint8"
        }
      ],
      "stateMutability": "view",
      "type": "function"
    },
    {
      "inputs": [],
      "name": "DEFAULT_ADMIN_ROLE",
      "outputs": [
        {
          "internalType": "bytes32",
          "name": "",
          "type": "bytes32"
        }
      ],
      "stateMutability": "view",
      "type": "function"
    },
    {
      "inputs": [],
      "name": "SCHEME_COUNT",
      "outputs": [
        {
          "internalType": "uint8",
          "name": "",
          "type": "uint8"
        }
      ],
      "stateMutability": "view",
      "type": "function"
    },
    {
      "inputs": [],
      "name": "TOKEN_LIMIT",
      "outputs": [
        {
          "internalType": "uint16",
          "name": "",
          "type": "uint16"
        }
      ],
      "stateMutability": "view",
      "type": "function"
    },
    {
      "inputs": [],
      "name": "_tokenIds",
      "outputs": [
        {
          "internalType": "uint256",
          "name": "_value",
          "type": "uint256"
        }
      ],
      "stateMutability": "view",
      "type": "function"
    },
    {
      "inputs": [],
      "name": "_tokenPromoIds",
      "outputs": [
        {
          "internalType": "uint256",
          "name": "_value",
          "type": "uint256"
        }
      ],
      "stateMutability": "view",
      "type": "function"
    },
    {
      "inputs": [
        {
          "internalType": "address",
          "name": "to",
          "type": "address"
        },
        {
          "internalType": "uint256",
          "name": "tokenId",
          "type": "uint256"
        }
      ],
      "name": "approve",
      "outputs": [],
      "stateMutability": "nonpayable",
      "type": "function"
    },
    {
      "inputs": [],
      "name": "avgBlockTime",
      "outputs": [
        {
          "internalType": "uint8",
          "name": "",
          "type": "uint8"
        }
      ],
      "stateMutability": "view",
      "type": "function"
    },
    {
      "inputs": [
        {
          "internalType": "address",
          "name": "owner",
          "type": "address"
        }
      ],
      "name": "balanceOf",
      "outputs": [
        {
          "internalType": "uint256",
          "name": "",
          "type": "uint256"
        }
      ],
      "stateMutability": "view",
      "type": "function"
    },
    {
      "inputs": [],
      "name": "baseURI",
      "outputs": [
        {
          "internalType": "string",
          "name": "",
          "type": "string"
        }
      ],
      "stateMutability": "view",
      "type": "function"
    },
    {
      "inputs": [],
      "name": "blockStart",
      "outputs": [
        {
          "internalType": "uint256",
          "name": "",
          "type": "uint256"
        }
      ],
      "stateMutability": "view",
      "type": "function"
    },
    {
      "inputs": [
        {
          "internalType": "uint256",
          "name": "id",
          "type": "uint256"
        },
        {
          "internalType": "uint8[3]",
          "name": "settings",
          "type": "uint8[3]"
        }
      ],
      "name": "changeSettings",
      "outputs": [],
      "stateMutability": "nonpayable",
      "type": "function"
    },
    {
      "inputs": [],
      "name": "contractURI",
      "outputs": [
        {
          "internalType": "string",
          "name": "",
          "type": "string"
        }
      ],
      "stateMutability": "view",
      "type": "function"
    },
    {
      "inputs": [
        {
          "internalType": "string",
          "name": "_seed",
          "type": "string"
        },
        {
          "internalType": "uint8",
          "name": "shapes",
          "type": "uint8"
        },
        {
          "internalType": "uint8",
          "name": "hatching",
          "type": "uint8"
        },
        {
          "internalType": "uint16[3]",
          "name": "color",
          "type": "uint16[3]"
        },
        {
          "internalType": "uint8[4]",
          "name": "size",
          "type": "uint8[4]"
        },
        {
          "internalType": "uint8[2]",
          "name": "spacing",
          "type": "uint8[2]"
        },
        {
          "internalType": "uint8",
          "name": "mirroring",
          "type": "uint8"
        },
        {
          "internalType": "address",
          "name": "recipient",
          "type": "address"
        },
        {
          "internalType": "uint256",
          "name": "referalID",
          "type": "uint256"
        }
      ],
      "name": "create",
      "outputs": [
        {
          "internalType": "uint256",
          "name": "",
          "type": "uint256"
        }
      ],
      "stateMutability": "payable",
      "type": "function"
    },
    {
      "inputs": [
        {
          "internalType": "uint128",
          "name": "seed",
          "type": "uint128"
        },
        {
          "internalType": "uint8",
          "name": "shapes",
          "type": "uint8"
        },
        {
          "internalType": "uint8",
          "name": "hatching",
          "type": "uint8"
        },
        {
          "internalType": "uint16[3]",
          "name": "color",
          "type": "uint16[3]"
        },
        {
          "internalType": "uint8[4]",
          "name": "size",
          "type": "uint8[4]"
        },
        {
          "internalType": "uint8[2]",
          "name": "spacing",
          "type": "uint8[2]"
        },
        {
          "internalType": "uint8",
          "name": "mirroring",
          "type": "uint8"
        },
        {
          "internalType": "uint256",
          "name": "id",
          "type": "uint256"
        }
      ],
      "name": "createLimitedEdition",
      "outputs": [],
      "stateMutability": "nonpayable",
      "type": "function"
    },
    {
      "inputs": [],
      "name": "currentPhase",
      "outputs": [
        {
          "internalType": "uint8",
          "name": "",
          "type": "uint8"
        }
      ],
      "stateMutability": "view",
      "type": "function"
    },
    {
      "inputs": [
        {
          "internalType": "uint256",
          "name": "tokenId",
          "type": "uint256"
        }
      ],
      "name": "getApproved",
      "outputs": [
        {
          "internalType": "address",
          "name": "",
          "type": "address"
        }
      ],
      "stateMutability": "view",
      "type": "function"
    },
    {
      "inputs": [
        {
          "internalType": "bytes32",
          "name": "role",
          "type": "bytes32"
        }
      ],
      "name": "getRoleAdmin",
      "outputs": [
        {
          "internalType": "bytes32",
          "name": "",
          "type": "bytes32"
        }
      ],
      "stateMutability": "view",
      "type": "function"
    },
    {
      "inputs": [
        {
          "internalType": "bytes32",
          "name": "role",
          "type": "bytes32"
        },
        {
          "internalType": "uint256",
          "name": "index",
          "type": "uint256"
        }
      ],
      "name": "getRoleMember",
      "outputs": [
        {
          "internalType": "address",
          "name": "",
          "type": "address"
        }
      ],
      "stateMutability": "view",
      "type": "function"
    },
    {
      "inputs": [
        {
          "internalType": "bytes32",
          "name": "role",
          "type": "bytes32"
        }
      ],
      "name": "getRoleMemberCount",
      "outputs": [
        {
          "internalType": "uint256",
          "name": "",
          "type": "uint256"
        }
      ],
      "stateMutability": "view",
      "type": "function"
    },
    {
      "inputs": [
        {
          "internalType": "bytes32",
          "name": "role",
          "type": "bytes32"
        },
        {
          "internalType": "address",
          "name": "account",
          "type": "address"
        }
      ],
      "name": "grantRole",
      "outputs": [],
      "stateMutability": "nonpayable",
      "type": "function"
    },
    {
      "inputs": [
        {
          "internalType": "bytes32",
          "name": "role",
          "type": "bytes32"
        },
        {
          "internalType": "address",
          "name": "account",
          "type": "address"
        }
      ],
      "name": "hasRole",
      "outputs": [
        {
          "internalType": "bool",
          "name": "",
          "type": "bool"
        }
      ],
      "stateMutability": "view",
      "type": "function"
    },
    {
      "inputs": [
        {
          "internalType": "address",
          "name": "owner",
          "type": "address"
        },
        {
          "internalType": "address",
          "name": "operator",
          "type": "address"
        }
      ],
      "name": "isApprovedForAll",
      "outputs": [
        {
          "internalType": "bool",
          "name": "",
          "type": "bool"
        }
      ],
      "stateMutability": "view",
      "type": "function"
    },
    {
      "inputs": [
        {
          "internalType": "address",
          "name": "recipient",
          "type": "address"
        }
      ],
      "name": "mintPromo",
      "outputs": [],
      "stateMutability": "nonpayable",
      "type": "function"
    },
    {
      "inputs": [],
      "name": "name",
      "outputs": [
        {
          "internalType": "string",
          "name": "",
          "type": "string"
        }
      ],
      "stateMutability": "view",
      "type": "function"
    },
    {
      "inputs": [
        {
          "internalType": "uint256",
          "name": "tokenId",
          "type": "uint256"
        }
      ],
      "name": "ownerOf",
      "outputs": [
        {
          "internalType": "address",
          "name": "",
          "type": "address"
        }
      ],
      "stateMutability": "view",
      "type": "function"
    },
    {
      "inputs": [],
      "name": "paused",
      "outputs": [
        {
          "internalType": "bool",
          "name": "",
          "type": "bool"
        }
      ],
      "stateMutability": "view",
      "type": "function"
    },
    {
      "inputs": [],
      "name": "phaseCountdown",
      "outputs": [
        {
          "internalType": "uint256",
          "name": "",
          "type": "uint256"
        }
      ],
      "stateMutability": "view",
      "type": "function"
    },
    {
      "inputs": [],
      "name": "phaseCountdownTime",
      "outputs": [
        {
          "internalType": "uint32",
          "name": "",
          "type": "uint32"
        }
      ],
      "stateMutability": "view",
      "type": "function"
    },
    {
      "inputs": [],
      "name": "phaseLen",
      "outputs": [
        {
          "internalType": "uint16",
          "name": "",
          "type": "uint16"
        }
      ],
      "stateMutability": "view",
      "type": "function"
    },
    {
      "inputs": [],
      "name": "price",
      "outputs": [
        {
          "internalType": "uint256",
          "name": "",
          "type": "uint256"
        }
      ],
      "stateMutability": "view",
      "type": "function"
    },
    {
      "inputs": [
        {
          "internalType": "uint256",
          "name": "id",
          "type": "uint256"
        }
      ],
      "name": "readSettings",
      "outputs": [
        {
          "internalType": "uint8",
          "name": "bkg",
          "type": "uint8"
        },
        {
          "internalType": "uint8",
          "name": "duration",
          "type": "uint8"
        },
        {
          "internalType": "uint8",
          "name": "options",
          "type": "uint8"
        }
      ],
      "stateMutability": "view",
      "type": "function"
    },
    {
      "inputs": [],
      "name": "referalNewPercent",
      "outputs": [
        {
          "internalType": "uint256",
          "name": "",
          "type": "uint256"
        }
      ],
      "stateMutability": "view",
      "type": "function"
    },
    {
      "inputs": [],
      "name": "referalPercent",
      "outputs": [
        {
          "internalType": "uint256",
          "name": "",
          "type": "uint256"
        }
      ],
      "stateMutability": "view",
      "type": "function"
    },
    {
      "inputs": [
        {
          "internalType": "bytes32",
          "name": "role",
          "type": "bytes32"
        },
        {
          "internalType": "address",
          "name": "account",
          "type": "address"
        }
      ],
      "name": "renounceRole",
      "outputs": [],
      "stateMutability": "nonpayable",
      "type": "function"
    },
    {
      "inputs": [
        {
          "internalType": "bytes32",
          "name": "role",
          "type": "bytes32"
        },
        {
          "internalType": "address",
          "name": "account",
          "type": "address"
        }
      ],
      "name": "revokeRole",
      "outputs": [],
      "stateMutability": "nonpayable",
      "type": "function"
    },
    {
      "inputs": [
        {
          "internalType": "address",
          "name": "from",
          "type": "address"
        },
        {
          "internalType": "address",
          "name": "to",
          "type": "address"
        },
        {
          "internalType": "uint256",
          "name": "tokenId",
          "type": "uint256"
        }
      ],
      "name": "safeTransferFrom",
      "outputs": [],
      "stateMutability": "nonpayable",
      "type": "function"
    },
    {
      "inputs": [
        {
          "internalType": "address",
          "name": "from",
          "type": "address"
        },
        {
          "internalType": "address",
          "name": "to",
          "type": "address"
        },
        {
          "internalType": "uint256",
          "name": "tokenId",
          "type": "uint256"
        },
        {
          "internalType": "bytes",
          "name": "_data",
          "type": "bytes"
        }
      ],
      "name": "safeTransferFrom",
      "outputs": [],
      "stateMutability": "nonpayable",
      "type": "function"
    },
    {
      "inputs": [
        {
          "internalType": "address",
          "name": "operator",
          "type": "address"
        },
        {
          "internalType": "bool",
          "name": "approved",
          "type": "bool"
        }
      ],
      "name": "setApprovalForAll",
      "outputs": [],
      "stateMutability": "nonpayable",
      "type": "function"
    },
    {
      "inputs": [
        {
          "internalType": "string",
          "name": "_uri",
          "type": "string"
        }
      ],
      "name": "setBaseURI",
      "outputs": [],
      "stateMutability": "nonpayable",
      "type": "function"
    },
    {
      "inputs": [
        {
          "internalType": "string",
          "name": "_uri",
          "type": "string"
        }
      ],
      "name": "setContractURI",
      "outputs": [],
      "stateMutability": "nonpayable",
      "type": "function"
    },
    {
      "inputs": [
        {
          "internalType": "bool",
          "name": "state",
          "type": "bool"
        }
      ],
      "name": "setPause",
      "outputs": [],
      "stateMutability": "nonpayable",
      "type": "function"
    },
    {
      "inputs": [
        {
          "internalType": "address",
          "name": "rand",
          "type": "address"
        }
      ],
      "name": "setRandom",
      "outputs": [],
      "stateMutability": "nonpayable",
      "type": "function"
    },
    {
      "inputs": [
        {
          "internalType": "uint256",
          "name": "_id",
          "type": "uint256"
        },
        {
          "internalType": "string",
          "name": "_uri",
          "type": "string"
        }
      ],
      "name": "setTokenURI",
      "outputs": [],
      "stateMutability": "nonpayable",
      "type": "function"
    },
    {
      "inputs": [
        {
          "internalType": "uint256",
          "name": "startBlock",
          "type": "uint256"
        }
      ],
      "name": "startCountdown",
      "outputs": [],
      "stateMutability": "nonpayable",
      "type": "function"
    },
    {
      "inputs": [
        {
          "internalType": "bytes4",
          "name": "interfaceId",
          "type": "bytes4"
        }
      ],
      "name": "supportsInterface",
      "outputs": [
        {
          "internalType": "bool",
          "name": "",
          "type": "bool"
        }
      ],
      "stateMutability": "view",
      "type": "function"
    },
    {
      "inputs": [],
      "name": "symbol",
      "outputs": [
        {
          "internalType": "string",
          "name": "",
          "type": "string"
        }
      ],
      "stateMutability": "view",
      "type": "function"
    },
    {
      "inputs": [],
      "name": "testRandom",
      "outputs": [
        {
          "internalType": "bytes32",
          "name": "",
          "type": "bytes32"
        }
      ],
      "stateMutability": "view",
      "type": "function"
    },
    {
      "inputs": [
        {
          "internalType": "uint256",
          "name": "index",
          "type": "uint256"
        }
      ],
      "name": "tokenByIndex",
      "outputs": [
        {
          "internalType": "uint256",
          "name": "",
          "type": "uint256"
        }
      ],
      "stateMutability": "view",
      "type": "function"
    },
    {
      "inputs": [
        {
          "internalType": "uint256",
          "name": "_id",
          "type": "uint256"
        }
      ],
      "name": "tokenData",
      "outputs": [
        {
          "internalType": "uint128",
          "name": "randomness",
          "type": "uint128"
        },
        {
          "internalType": "uint256",
          "name": "animation",
          "type": "uint256"
        },
        {
          "internalType": "uint8",
          "name": "shapes",
          "type": "uint8"
        },
        {
          "internalType": "uint8",
          "name": "hatching",
          "type": "uint8"
        },
        {
          "internalType": "uint8[4]",
          "name": "size",
          "type": "uint8[4]"
        },
        {
          "internalType": "uint8[2]",
          "name": "spacing",
          "type": "uint8[2]"
        },
        {
          "internalType": "uint8",
          "name": "mirroring",
          "type": "uint8"
        },
        {
          "internalType": "uint16[3]",
          "name": "color",
          "type": "uint16[3]"
        },
        {
          "internalType": "uint8",
          "name": "contrast",
          "type": "uint8"
        },
        {
          "internalType": "uint8",
          "name": "shades",
          "type": "uint8"
        },
        {
          "internalType": "uint8",
          "name": "scheme",
          "type": "uint8"
        }
      ],
      "stateMutability": "view",
      "type": "function"
    },
    {
      "inputs": [
        {
          "internalType": "address",
          "name": "owner",
          "type": "address"
        },
        {
          "internalType": "uint256",
          "name": "index",
          "type": "uint256"
        }
      ],
      "name": "tokenOfOwnerByIndex",
      "outputs": [
        {
          "internalType": "uint256",
          "name": "",
          "type": "uint256"
        }
      ],
      "stateMutability": "view",
      "type": "function"
    },
    {
      "inputs": [
        {
          "internalType": "uint256",
          "name": "tokenId",
          "type": "uint256"
        }
      ],
      "name": "tokenURI",
      "outputs": [
        {
          "internalType": "string",
          "name": "",
          "type": "string"
        }
      ],
      "stateMutability": "view",
      "type": "function"
    },
    {
      "inputs": [],
      "name": "totalSupply",
      "outputs": [
        {
          "internalType": "uint256",
          "name": "",
          "type": "uint256"
        }
      ],
      "stateMutability": "view",
      "type": "function"
    },
    {
      "inputs": [
        {
          "internalType": "address",
          "name": "from",
          "type": "address"
        },
        {
          "internalType": "address",
          "name": "to",
          "type": "address"
        },
        {
          "internalType": "uint256",
          "name": "tokenId",
          "type": "uint256"
        }
      ],
      "name": "transferFrom",
      "outputs": [],
      "stateMutability": "nonpayable",
      "type": "function"
    },
    {
      "inputs": [
        {
          "internalType": "uint256",
          "name": "id",
          "type": "uint256"
        }
      ],
      "name": "trueID",
      "outputs": [
        {
          "internalType": "int8",
          "name": "",
          "type": "int8"
        }
      ],
      "stateMutability": "pure",
      "type": "function"
    },
    {
      "inputs": [
        {
          "internalType": "uint8",
          "name": "shapes",
          "type": "uint8"
        },
        {
          "internalType": "uint8",
          "name": "hatching",
          "type": "uint8"
        },
        {
          "internalType": "uint16[3]",
          "name": "color",
          "type": "uint16[3]"
        },
        {
          "internalType": "uint8[4]",
          "name": "size",
          "type": "uint8[4]"
        },
        {
          "internalType": "uint8[2]",
          "name": "position",
          "type": "uint8[2]"
        },
        {
          "internalType": "bool",
          "name": "exclusive",
          "type": "bool"
        }
      ],
      "name": "validateParams",
      "outputs": [],
      "stateMutability": "pure",
      "type": "function"
    },
    {
      "stateMutability": "payable",
      "type": "receive"
    }
  ],
  "bytecode": "0x6080604052600d8054600160a01b60ff60a01b19909116179055620000336078600f62000224602090811b6200261317901c565b600f556040518060600160405280602b815260200162005848602b9139805162000066916010916020909101906200043f565b506001601255600a601355600f6014556000196015556064601655601780546001600160a01b0319908116737a832c86002323a5de3a317b3281eb88ec3b2c0017909155601880549091167363a9dbce75413036b2b778e670aabd4493aaf9f3179055348015620000d657600080fd5b506040516200587338038062005873833981016040819052620000f991620004e1565b604080518082018252600981526854696e79426f78657360b81b602080830191909152825180840190935260068352655b235d5b235d60d01b908301528291620001536301ffc9a760e01b6001600160e01b036200027716565b8151620001689060069060208501906200043f565b5080516200017e9060079060208401906200043f565b506200019a6380ac58cd60e01b6001600160e01b036200027716565b620001b5635b5e139f60e01b6001600160e01b036200027716565b620001d063780e9d6360e01b6001600160e01b036200027716565b5050620001fd604051620001e49062000511565b604051908190039020336001600160e01b03620002d216565b600d80546001600160a01b0319166001600160a01b039290921691909117905550620005b4565b60006200026e83836040518060400160405280601a81526020017f536166654d6174683a206469766973696f6e206279207a65726f000000000000815250620002eb60201b60201c565b90505b92915050565b6001600160e01b03198082161415620002ad5760405162461bcd60e51b8152600401620002a4906200057d565b60405180910390fd5b6001600160e01b0319166000908152602081905260409020805460ff19166001179055565b620002e782826001600160e01b036200032616565b5050565b600081836200030f5760405162461bcd60e51b8152600401620002a4919062000527565b5060008385816200031c57fe5b0495945050505050565b6000828152600a602090815260409091206200034d91839062002655620003aa821b17901c565b15620002e757620003666001600160e01b03620003ca16565b6001600160a01b0316816001600160a01b0316837f2f8788117e7eff1d82e926ec794901d17c78024a50270940304540a733656f0d60405160405180910390a45050565b60006200026e836001600160a01b0384166001600160e01b03620003cf16565b335b90565b6000620003e683836001600160e01b036200042716565b6200041e5750815460018181018455600084815260208082209093018490558454848252828601909352604090209190915562000271565b50600062000271565b60009081526001919091016020526040902054151590565b828054600181600116156101000203166002900490600052602060002090601f016020900481019282601f106200048257805160ff1916838001178555620004b2565b82800160010185558215620004b2579182015b82811115620004b257825182559160200191906001019062000495565b50620004c0929150620004c4565b5090565b620003cc91905b80821115620004c05760008155600101620004cb565b600060208284031215620004f3578081fd5b81516001600160a01b03811681146200050a578182fd5b9392505050565b6941444d494e5f524f4c4560b01b8152600a0190565b6000602080835283518082850152825b81811015620005555785810183015185820160400152820162000537565b81811115620005675783604083870101525b50601f01601f1916929092016040019392505050565b6020808252601c908201527f4552433136353a20696e76616c696420696e7465726661636520696400000000604082015260600190565b61528480620005c46000396000f3fe60806040526004361061037a5760003560e01c806387bd15ef116101d1578063b88d4fde11610102578063e8a3d485116100a0578063f7eaec7d1161006f578063f7eaec7d146109d0578063fbddd14b146109e5578063fc4ea939146109fa578063fd05dd6a14610a0f5761038a565b8063e8a3d48514610971578063e985e9c514610986578063f19e1486146109a6578063f1d77baf146109bb5761038a565b8063ca15c873116100dc578063ca15c873146108f1578063ca9c0bad14610911578063d547741f14610931578063dbde5222146109515761038a565b8063b88d4fde14610891578063bedb86fb146108b1578063c87b56dd146108d15761038a565b8063990cec831161016f578063a22cb46511610149578063a22cb46514610810578063aa46a40014610830578063b3174fa114610845578063b4b5b48f1461085a5761038a565b8063990cec83146107d3578063a035b1fe146107e6578063a217fddf146107fb5761038a565b8063938e3d7b116101ab578063938e3d7b1461075a578063947e93d91461077a57806395d89b41146107a957806397baac1e146107be5761038a565b806387bd15ef146106fa5780639010d07c1461071a57806391d148541461073a5761038a565b80633c564cab116102ab5780636c0360eb1161024957806375b238fc1161022357806375b238fc146106905780637b2feaaa146106a55780637def753d146106ba578063824cac1a146106da5761038a565b80636c0360eb1461064657806370a082311461065b57806371a0a0161461067b5761038a565b8063524101971161028557806352410197146105cf57806355f804b3146105f15780635c975abb146106115780636352211e146106265761038a565b80633c564cab1461056f57806342842e0e1461058f5780634f6ccce7146105af5761038a565b8063162094c411610318578063248a9ca3116102f2578063248a9ca3146104ef5780632f2ff15d1461050f5780632f745c591461052f57806336568abe1461054f5761038a565b8063162094c41461048d57806318160ddd146104ad57806323b872dd146104cf5761038a565b806306fdde031161035457806306fdde0314610409578063081812fc1461042b578063095ea7b3146104585780630e1b9b0e146104785761038a565b806301ffc9a71461038f578063031bd4c4146103c5578063055ad42e146103e75761038a565b3661038a5761038834610a3c565b005b600080fd5b34801561039b57600080fd5b506103af6103aa3660046140df565b610aef565b6040516103bc91906145f3565b60405180910390f35b3480156103d157600080fd5b506103da610b12565b6040516103bc919061510d565b3480156103f357600080fd5b506103fc610b17565b6040516103bc919061512d565b34801561041557600080fd5b5061041e610b2e565b6040516103bc919061460c565b34801561043757600080fd5b5061044b61044636600461405f565b610bc4565b6040516103bc91906145a2565b34801561046457600080fd5b50610388610473366004614015565b610c10565b34801561048457600080fd5b506103fc610ca3565b34801561049957600080fd5b506103886104a836600461430c565b610ca8565b3480156104b957600080fd5b506104c2610d04565b6040516103bc91906144c2565b3480156104db57600080fd5b506103886104ea366004613ef4565b610d10565b3480156104fb57600080fd5b506104c261050a36600461405f565b610d48565b34801561051b57600080fd5b5061038861052a36600461408f565b610d5d565b34801561053b57600080fd5b506104c261054a366004614015565b610da5565b34801561055b57600080fd5b5061038861056a36600461408f565b610dd6565b34801561057b57600080fd5b5061038861058a3660046142e9565b610e18565b34801561059b57600080fd5b506103886105aa366004613ef4565b610f98565b3480156105bb57600080fd5b506104c26105ca36600461405f565b610fb3565b3480156105db57600080fd5b506105e4610fcf565b6040516103bc919061511c565b3480156105fd57600080fd5b5061038861060c366004614117565b610fd4565b34801561061d57600080fd5b506103af611022565b34801561063257600080fd5b5061044b61064136600461405f565b611032565b34801561065257600080fd5b5061041e611060565b34801561066757600080fd5b506104c2610676366004613ea5565b6110c1565b34801561068757600080fd5b506103fc61110a565b34801561069c57600080fd5b506104c261110f565b3480156106b157600080fd5b506104c2611126565b3480156106c657600080fd5b506103886106d5366004613ea5565b61112c565b3480156106e657600080fd5b506103886106f5366004614222565b61118b565b34801561070657600080fd5b5061038861071536600461405f565b61162b565b34801561072657600080fd5b5061044b6107353660046140be565b61166b565b34801561074657600080fd5b506103af61075536600461408f565b611689565b34801561076657600080fd5b50610388610775366004614117565b6116a7565b34801561078657600080fd5b5061079a61079536600461405f565b6116c2565b6040516103bc9392919061513b565b3480156107b557600080fd5b5061041e6117ee565b3480156107ca57600080fd5b506104c261184f565b6104c26107e1366004614157565b611855565b3480156107f257600080fd5b506104c2611d94565b34801561080757600080fd5b506104c2611d9a565b34801561081c57600080fd5b5061038861082b366004613fea565b611d9f565b34801561083c57600080fd5b506104c2611e6d565b34801561085157600080fd5b506103da611e73565b34801561086657600080fd5b5061087a61087536600461405f565b611e78565b6040516103bc9b9a99989796959493929190615050565b34801561089d57600080fd5b506103886108ac366004613f34565b6120d9565b3480156108bd57600080fd5b506103886108cc36600461403f565b612118565b3480156108dd57600080fd5b5061041e6108ec36600461405f565b612145565b3480156108fd57600080fd5b506104c261090c36600461405f565b61228f565b34801561091d57600080fd5b5061038861092c366004613ea5565b6122a6565b34801561093d57600080fd5b5061038861094c36600461408f565b6122d7565b34801561095d57600080fd5b5061038861096c366004614371565b612311565b34801561097d57600080fd5b5061041e6124a9565b34801561099257600080fd5b506103af6109a1366004613ec0565b612537565b3480156109b257600080fd5b506103fc612565565b3480156109c757600080fd5b506104c261256a565b3480156109dc57600080fd5b506104c2612570565b3480156109f157600080fd5b506104c2612576565b348015610a0657600080fd5b506104c261260d565b348015610a1b57600080fd5b50610a2f610a2a36600461405f565b610b2b565b6040516103bc91906145fe565b8015610aec576000610a666064610a5a84603c63ffffffff61266a16565b9063ffffffff61261316565b6017546040519192506001600160a01b03169082156108fc029083906000818181858888f19350505050158015610aa1573d6000803e3d6000fd5b506018546001600160a01b03166108fc610ac1848463ffffffff6126a416565b6040518115909202916000818181858888f19350505050158015610ae9573d6000803e3d6000fd5b50505b50565b6001600160e01b0319811660009081526020819052604090205460ff165b919050565b606e81565b6000610b28600a610a5a600b6126e6565b90505b90565b60068054604080516020601f6002600019610100600188161502019095169490940493840181900481028201810190925282815260609390929091830182828015610bba5780601f10610b8f57610100808354040283529160200191610bba565b820191906000526020600020905b815481529060010190602001808311610b9d57829003601f168201915b5050505050905090565b6000610bcf826126ea565b610bf45760405162461bcd60e51b8152600401610beb90614bb6565b60405180910390fd5b506000908152600460205260409020546001600160a01b031690565b6000610c1b82611032565b9050806001600160a01b0316836001600160a01b03161415610c4f5760405162461bcd60e51b8152600401610beb90614d69565b806001600160a01b0316610c616126fd565b6001600160a01b03161480610c7d5750610c7d816109a16126fd565b610c995760405162461bcd60e51b8152600401610beb906149fe565b610ae98383612701565b601881565b610cc4604051610cb79061458c565b604051809103902061276f565b610ae98383838080601f01602080910402602001604051908101604052809392919081815260200183838082843760009201919091525061279592505050565b6000610b2860026127d9565b610d21610d1b6126fd565b826127e4565b610d3d5760405162461bcd60e51b8152600401610beb90614daa565b610ae9838383612869565b6000908152600a602052604090206002015490565b6000828152600a6020526040902060020154610d7b906107556126fd565b610d975760405162461bcd60e51b8152600401610beb90614661565b610da18282612989565b5050565b6001600160a01b0382166000908152600160205260408120610dcd908363ffffffff6129f816565b90505b92915050565b610dde6126fd565b6001600160a01b0316816001600160a01b031614610e0e5760405162461bcd60e51b8152600401610beb90614fa9565b610da18282612a04565b610e2182611032565b6001600160a01b0316336001600160a01b03161480610e595750610e4482610bc4565b6001600160a01b0316336001600160a01b0316145b610e755760405162461bcd60e51b8152600401610beb90614aa5565b6065610e846020830183614356565b60ff161115610ea55760405162461bcd60e51b8152600401610beb9061493d565b6000610eb76040830160208401614356565b60ff1611610ed75760405162461bcd60e51b8152600401610beb90614d13565b610ee46020820182614356565b6000838152601160205260409020805460ff92909216600160e81b0260ff60e81b19909216919091179055806001602002016020810190610f259190614356565b6000838152601160205260409020805460ff92909216600160f01b0260ff60f01b19909216919091179055806002602002016020810190610f669190614356565b600092835260116020526040909220805460ff93909316600160f81b026001600160f81b039093169290921790915550565b610ae9838383604051806020016040528060008152506120d9565b600080610fc760028463ffffffff612a7316565b509392505050565b607881565b610fe3604051610cb79061458c565b610da182828080601f016020809104026020016040519081016040528093929190818152602001838380828437600092019190915250612a9192505050565b600d54600160a01b900460ff1681565b6000610dd082604051806060016040528060298152602001615226602991396002919063ffffffff612aa416565b60098054604080516020601f6002600019610100600188161502019095169490940493840181900481028201810190925282815260609390929091830182828015610bba5780601f10610b8f57610100808354040283529160200191610bba565b60006001600160a01b0382166110e95760405162461bcd60e51b8152600401610beb90614a5b565b6001600160a01b0382166000908152600160205260409020610dd0906127d9565b600b81565b60405161111b9061458c565b604051809103902081565b600e5481565b61113b604051610cb79061458c565b601654611148600c6126e6565b106111655760405162461bcd60e51b8152600401610beb906146ee565b6000611171600c6126e6565b6015540390506111818282612abb565b610da1600c612ad5565b611193612ade565b3361119d82611032565b6001600160a01b0316146111c35760405162461bcd60e51b8152600401610beb90614e78565b600081815260116020526040902054600160a01b900460ff16156111f95760405162461bcd60e51b8152600401610beb90614e5a565b61127787878760038060200260405190810160405280929190826003602002808284376000920191909152505060408051608081810190925291508990600490839083908082843760009201919091525050604080518082018252915089906002908390839080828437600092019190915250600191506123119050565b6040805161020081019091526001600160801b03891681526020808201906112a1908801886142c7565b61ffff1681526020908101906112bd90604089019089016142c7565b60ff1681526020016112d560608801604089016142c7565b60ff90811682528981166020830152881660408201526060018560006020020160208101906113049190614356565b60ff16815260209081019061131f9060408801908801614356565b60ff1681526020016113376060870160408801614356565b60ff16815260200161134f6080870160608801614356565b60ff16815260209081019061136690860186614356565b60ff1681526020908101906113819060408701908701614356565b60ff1681526020018360ff168152602001600060ff168152602001600a60ff168152602001600160ff168152506011600083815260200190815260200160002060008201518160000160006101000a8154816001600160801b0302191690836001600160801b0316021790555060208201518160000160106101000a81548161ffff021916908361ffff16021790555060408201518160000160126101000a81548160ff021916908360ff16021790555060608201518160000160136101000a81548160ff021916908360ff16021790555060808201518160000160146101000a81548160ff021916908360ff16021790555060a08201518160000160156101000a81548160ff021916908360ff16021790555060c08201518160000160166101000a81548160ff021916908360ff16021790555060e08201518160000160176101000a81548160ff021916908360ff1602179055506101008201518160000160186101000a81548160ff021916908360ff1602179055506101208201518160000160196101000a81548160ff021916908360ff16021790555061014082015181600001601a6101000a81548160ff021916908360ff16021790555061016082015181600001601b6101000a81548160ff021916908360ff16021790555061018082015181600001601c6101000a81548160ff021916908360ff1602179055506101a082015181600001601d6101000a81548160ff021916908360ff1602179055506101c082015181600001601e6101000a81548160ff021916908360ff1602179055506101e082015181600001601f6101000a81548160ff021916908360ff1602179055509050507feaa4f184b7f3d10bde81fc2d884889a91fbadf176d0ecc02895ab30b5aba08ef8160405161161991906144c2565b60405180910390a15050505050505050565b61163a604051610cb79061458c565b4381116116595760405162461bcd60e51b8152600401610beb90614e96565b600e55600d805460ff60a01b19169055565b6000828152600a60205260408120610dcd908363ffffffff6129f816565b6000828152600a60205260408120610dcd908363ffffffff612b0a16565b6116b6604051610cb79061458c565b610ae960108383613afb565b60008060006116cf613b79565b5050506000918252506011602090815260409182902082516102008101845290546001600160801b038116825261ffff600160801b8204169282019290925260ff600160901b8304811693820193909352600160981b820483166060820152600160a01b820483166080820152600160a81b8204831660a0820152600160b01b8204831660c0820152600160b81b8204831660e0820152600160c01b82048316610100820152600160c81b82048316610120820152600160d01b82048316610140820152600160d81b82048316610160820152600160e01b82048316610180820152600160e81b820483166101a08201819052600160f01b830484166101c08301819052600160f81b9093049093166101e09091018190529192909190565b60078054604080516020601f6002600019610100600188161502019095169490940493840181900481028201810190925282815260609390929091830182828015610bba5780601f10610b8f57610100808354040283529160200191610bba565b600c5481565b600061185f612b1f565b611867612ade565b61186f612b48565b6118798284612b6a565b6118f489898960038060200260405190810160405280929190826003602002808284376000920191909152505060408051608081810190925291508b9060049083908390808284376000920191909152505060408051808201825291508b906002908390839080828437600092018290525091506123119050565b6001600160a01b03831661191a5760405162461bcd60e51b8152600401610beb90614f79565b6000611926600b6126e6565b9050611932600b612ad5565b61194d600a611941600b6126e6565b9063ffffffff612ce216565b6119825761197e61197161195f610b17565b600f549060ff1663ffffffff61266a16565b439063ffffffff612d2416565b600e555b60006119c38d8d8080601f016020809104026020016040519081016040528093929190818152602001838380828437600092019190915250612d4992505050565b905060006119d18383612da2565b9050604051806102000160405280826001600160801b031681526020018b6000600381106119fb57fe5b602002016020810190611a0e91906142c7565b61ffff16815260200160c86001600160801b038416066001600160801b0316600014611a4957611a4460408d0160208e016142c7565b611a4c565b60005b60ff168152602001611a6460608d0160408e016142c7565b60ff90811682528e811660208301528d1660408201526060018a6000602002016020810190611a939190614356565b60ff168152602090810190611aae9060408d01908d01614356565b60ff168152602001611ac660608c0160408d01614356565b60ff168152602001611ade60808c0160608d01614356565b60ff168152602090810190611af5908b018b614356565b60ff168152602090810190611b109060408c01908c01614356565b60ff1681526020018860ff168152602001600060ff168152602001600a60ff168152602001600160ff168152506011600085815260200190815260200160002060008201518160000160006101000a8154816001600160801b0302191690836001600160801b0316021790555060208201518160000160106101000a81548161ffff021916908361ffff16021790555060408201518160000160126101000a81548160ff021916908360ff16021790555060608201518160000160136101000a81548160ff021916908360ff16021790555060808201518160000160146101000a81548160ff021916908360ff16021790555060a08201518160000160156101000a81548160ff021916908360ff16021790555060c08201518160000160166101000a81548160ff021916908360ff16021790555060e08201518160000160176101000a81548160ff021916908360ff1602179055506101008201518160000160186101000a81548160ff021916908360ff1602179055506101208201518160000160196101000a81548160ff021916908360ff16021790555061014082015181600001601a6101000a81548160ff021916908360ff16021790555061016082015181600001601b6101000a81548160ff021916908360ff16021790555061018082015181600001601c6101000a81548160ff021916908360ff1602179055506101a082015181600001601d6101000a81548160ff021916908360ff1602179055506101c082015181600001601e6101000a81548160ff021916908360ff1602179055506101e082015181600001601f6101000a81548160ff021916908360ff160217905550905050611d838684612abb565b5050509a9950505050505050505050565b60125481565b600081565b611da76126fd565b6001600160a01b0316826001600160a01b03161415611dd85760405162461bcd60e51b8152600401610beb906148c5565b8060056000611de56126fd565b6001600160a01b03908116825260208083019390935260409182016000908120918716808252919093529120805460ff191692151592909217909155611e296126fd565b6001600160a01b03167f17307eab39ab6107e8899845ad3d59bd9653f200f220920489ca2b5937696c3183604051611e6191906145f3565b60405180910390a35050565b600b5481565b600a81565b600080600080611e86613bfd565b611e8e613c1b565b6000611e98613c39565b6000806000611ea5613b79565b5060008c81526011602090815260409182902082516102008101845290546001600160801b038116825261ffff600160801b8204169282019290925260ff600160901b8304811693820193909352600160981b820483166060820152600160a01b820483166080820152600160a81b8204831660a0820152600160b01b8204831660c0820152600160b81b8204831660e0820152600160c01b82048316610100820152600160c81b82048316610120820152600160d01b82048316610140820152600160d81b82048316610160820152600160e01b82048316610180820152600160e81b820483166101a0820152600160f01b820483166101c0820152600160f81b9091049091166101e0820152611fbb613bfd565b611fc5828f612e68565b9050806000602002015160ff169b5080600160200201519250806002602002015193508060036020020151945081600001519c50816101800151965081608001519a508160a0015199506040518060600160405280836020015161ffff1661ffff168152602001836040015160ff1661ffff168152602001836060015160ff1661ffff16815250955060405180608001604052808360c0015160ff1660ff1681526020018360e0015160ff1660ff16815260200183610100015160ff1660ff16815260200183610120015160ff1660ff168152509850604051806040016040528083610140015160ff1660ff16815260200183610160015160ff1660ff168152509750505091939597999b90929496989a50565b6120ea6120e46126fd565b836127e4565b6121065760405162461bcd60e51b8152600401610beb90614daa565b61211284848484613075565b50505050565b612127604051610cb79061458c565b600d8054911515600160a01b0260ff60a01b19909216919091179055565b6060612150826126ea565b61216c5760405162461bcd60e51b8152600401610beb90614cc4565b60008281526008602090815260409182902080548351601f60026000196101006001861615020190931692909204918201849004840281018401909452808452606093928301828280156122015780601f106121d657610100808354040283529160200191612201565b820191906000526020600020905b8154815290600101906020018083116121e457829003601f168201915b50506009549394505050506002600019610100600184161502019091160461222a579050610b0d565b80511561225c5760098160405160200161224592919061450b565b604051602081830303815290604052915050610b0d565b6009612267846130a8565b60405160200161227892919061450b565b604051602081830303815290604052915050919050565b6000818152600a60205260408120610dd0906127d9565b6122b5604051610cb79061458c565b600d80546001600160a01b0319166001600160a01b0392909216919091179055565b6000828152600a60205260409020600201546122f5906107556126fd565b610e0e5760405162461bcd60e51b8152600401610beb906149ae565b60008660ff161180156123275750601f8660ff16105b6123435760405162461bcd60e51b8152600401610beb90614c4e565b8560ff168560ff1611156123695760405162461bcd60e51b8152600401610beb90614857565b610168846002602002015161ffff1611156123965760405162461bcd60e51b8152600401610beb9061470f565b6064846001602002015161ffff1611156123c25760405162461bcd60e51b8152600401610beb90614d3d565b806123f3576014846001602002015161ffff1610156123f35760405162461bcd60e51b8152600401610beb90614d3d565b6064846002602002015161ffff16111561241f5760405162461bcd60e51b8152600401610beb90614ff8565b6020830151835160ff9182169116111561244b5760405162461bcd60e51b8152600401610beb90615023565b6060830151604084015160ff9182169116111561247a5760405162461bcd60e51b8152600401610beb90614ec4565b8151606460ff90911611156124a15760405162461bcd60e51b8152600401610beb90614e32565b505050505050565b6010805460408051602060026001851615610100026000190190941693909304601f8101849004840282018401909252818152929183018282801561252f5780601f106125045761010080835404028352916020019161252f565b820191906000526020600020905b81548152906001019060200180831161251257829003601f168201915b505050505081565b6001600160a01b03918216600090815260056020908152604080832093909416825291909152205460ff1690565b600f81565b60145481565b60135481565b6000612587604051610cb79061458c565b600d60009054906101000a90046001600160a01b03166001600160a01b031663990c8f796040518163ffffffff1660e01b815260040160206040518083038186803b1580156125d557600080fd5b505afa1580156125e9573d6000803e3d6000fd5b505050506040513d601f19601f82011682018060405250810190610b289190614077565b600f5481565b6000610dcd83836040518060400160405280601a81526020017f536166654d6174683a206469766973696f6e206279207a65726f000000000000815250613183565b6000610dcd836001600160a01b0384166131ba565b60008261267957506000610dd0565b8282028284828161268657fe5b0414610dcd5760405162461bcd60e51b8152600401610beb90614b75565b6000610dcd83836040518060400160405280601e81526020017f536166654d6174683a207375627472616374696f6e206f766572666c6f770000815250613204565b5490565b6000610dd060028363ffffffff61323016565b3390565b600081815260046020526040902080546001600160a01b0319166001600160a01b038416908117909155819061273682611032565b6001600160a01b03167f8c5be1e5ebec7d5bd14f71427d1e84f3dd0314c0f7b2291e5b200ac8c7c3b92560405160405180910390a45050565b6127798133611689565b610aec5760405162461bcd60e51b8152600401610beb90614ef2565b61279e826126ea565b6127ba5760405162461bcd60e51b8152600401610beb90614c02565b60008281526008602090815260409091208251610ae992840190613c57565b6000610dd0826126e6565b60006127ef826126ea565b61280b5760405162461bcd60e51b8152600401610beb90614962565b600061281683611032565b9050806001600160a01b0316846001600160a01b031614806128515750836001600160a01b031661284684610bc4565b6001600160a01b0316145b8061286157506128618185612537565b949350505050565b826001600160a01b031661287c82611032565b6001600160a01b0316146128a25760405162461bcd60e51b8152600401610beb90614c7b565b6001600160a01b0382166128c85760405162461bcd60e51b8152600401610beb90614881565b6128d3838383610ae9565b6128de600082612701565b6001600160a01b0383166000908152600160205260409020612906908263ffffffff61323c16565b506001600160a01b038216600090815260016020526040902061292f908263ffffffff61324816565b506129426002828463ffffffff61325416565b5080826001600160a01b0316846001600160a01b03167fddf252ad1be2c89b69c2b068fc378daa952ba7f163c4a11628f55a4df523b3ef60405160405180910390a4505050565b6000828152600a602052604090206129a7908263ffffffff61265516565b15610da1576129b46126fd565b6001600160a01b0316816001600160a01b0316837f2f8788117e7eff1d82e926ec794901d17c78024a50270940304540a733656f0d60405160405180910390a45050565b6000610dcd838361326a565b6000828152600a60205260409020612a22908263ffffffff6132af16565b15610da157612a2f6126fd565b6001600160a01b0316816001600160a01b0316837ff6391f5c32d9c69d2a47ea670b442974b53935d1edc7fd64eb21e047a839171b60405160405180910390a45050565b6000808080612a8286866132c4565b909450925050505b9250929050565b8051610da1906009906020840190613c57565b6000612ab1848484613320565b90505b9392505050565b610da182826040518060200160405280600081525061337f565b80546001019055565b600d54600160a01b900460ff1615612b085760405162461bcd60e51b8152600401610beb906146b0565b565b6000610dcd836001600160a01b0384166133b2565b606e612b2b600b6126e6565b10612b085760405162461bcd60e51b8152600401610beb90614788565b600e54431015612b085760405162461bcd60e51b8152600401610beb906146d0565b601254341015612b8c5760405162461bcd60e51b8152600401610beb90614ad1565b601254341115612bda5760125433906108fc90612bb090349063ffffffff6126a416565b6040518115909202916000818181858888f19350505050158015612bd8573d6000803e3d6000fd5b505b6000612be5836126ea565b612bef5732612bf8565b612bf883611032565b90506000612c05326110c1565b15612c1257601354612c16565b6014545b905060006001600160a01b0383163314801590612c3c57506001600160a01b0383163214155b8015612c5a5750836001600160a01b0316836001600160a01b031614155b612c65576000612c7f565b612c7f6064610a5a8460125461266a90919063ffffffff16565b90508015612cbf576040516001600160a01b0384169082156108fc029083906000818181858888f19350505050158015612cbd573d6000803e3d6000fd5b505b601254612cdb90612cd6908363ffffffff6126a416565b610a3c565b5050505050565b6000610dcd83836040518060400160405280601881526020017f536166654d6174683a206d6f64756c6f206279207a65726f00000000000000008152506133ca565b600082820183811015610dcd5760405162461bcd60e51b8152600401610beb906147e9565b600081815b8151811015612d9b576000828281518110612d6557fe5b016020015160f81c905060308110801590612d81575060398111155b15612d92576030810384600a020193505b50600101612d4e565b5050919050565b600080600d60009054906101000a90046001600160a01b03166001600160a01b031663990c8f796040518163ffffffff1660e01b815260040160206040518083038186803b158015612df357600080fd5b505afa158015612e07573d6000803e3d6000fd5b505050506040513d601f19601f82011682018060405250810190612e2b9190614077565b8484604051602001612e3f939291906144d9565b60408051808303601f1901815291905280516020909101206001600160801b0316949350505050565b612e70613bfd565b606e82101561301e576060612e9184600001516001600160801b03166133fe565b9050612e9b613cc5565b506040805160e0810182526001808252600260208301819052600593830184905260096060840152608083019390935260a082019290925260c0810191909152612ee3613ce3565b506040805161030081018252600180825260208201819052918101829052606081018290526080810182905260a0810182905260c0810182905260e08101829052610100810182905261012081018290526101408101829052610160810182905261018081018290526101a081018290526101c081018290526101e08101829052610200810182905261022081018290526102408101829052610260810182905261028081018290526102a081018290526102c081018290526102e0810191909152612fb78382601863ffffffff6134b516565b60ff168452612fc785600a612613565b60ff166020850152612fef6001612fe085856019613525565b60ff169063ffffffff612d2416565b60ff9081166040860152606087015161300d91859160009116613576565b60ff16606085015250610dd0915050565b825160ff6001607b1b6001600160801b03928316041682528351600160771b90821604600f1660208301528351600160741b90821604600716604083015292516001606d1b931692909204607f1660608301525090565b613080848484612869565b61308c848484846135b9565b6121125760405162461bcd60e51b8152600401610beb90614736565b6060816130cd57506040805180820190915260018152600360fc1b6020820152610b0d565b8160005b81156130e557600101600a820491506130d1565b60608167ffffffffffffffff811180156130fe57600080fd5b506040519080825280601f01601f191660200182016040528015613129576020820181803683370190505b50859350905060001982015b831561317a57600a840660300160f81b8282806001900393508151811061315857fe5b60200101906001600160f81b031916908160001a905350600a84049350613135565b50949350505050565b600081836131a45760405162461bcd60e51b8152600401610beb919061460c565b5060008385816131b057fe5b0495945050505050565b60006131c683836133b2565b6131fc57508154600181810184556000848152602080822090930184905584548482528286019093526040902091909155610dd0565b506000610dd0565b600081848411156132285760405162461bcd60e51b8152600401610beb919061460c565b505050900390565b6000610dcd83836133b2565b6000610dcd838361369e565b6000610dcd83836131ba565b6000612ab184846001600160a01b038516613764565b8154600090821061328d5760405162461bcd60e51b8152600401610beb9061461f565b82600001828154811061329c57fe5b9060005260206000200154905092915050565b6000610dcd836001600160a01b03841661369e565b8154600090819083106132e95760405162461bcd60e51b8152600401610beb90614afe565b60008460000184815481106132fa57fe5b906000526020600020906002020190508060000154816001015492509250509250929050565b600082815260018401602052604081205482816133505760405162461bcd60e51b8152600401610beb919061460c565b5084600001600182038154811061336357fe5b9060005260206000209060020201600101549150509392505050565b61338983836137fb565b61339660008484846135b9565b610ae95760405162461bcd60e51b8152600401610beb90614736565b60009081526001919091016020526040902054151590565b600081836133eb5760405162461bcd60e51b8152600401610beb919061460c565b508284816133f557fe5b06949350505050565b6040805160038082526080820190925260609160029183916020820183803683370190505090506000808560405160200161343a9291906144cb565b60408051601f198184030181529190528051602090910120905060005b838110156134ab578040826040516020016134739291906144cb565b6040516020818303038152906040528051906020012083826001018151811061349857fe5b6020908102919091010152600101613457565b5090949350505050565b6000806134c78560018560ff16613576565b90506000805b60188160ff16101561351b57613500868260ff16601881106134eb57fe5b6020020151839060ff1663ffffffff6138cb16565b9150818313613513579250612ab4915050565b6001016134cd565b5050509392505050565b6000806135378560018560ff16613576565b90506000805b60078160ff16101561351b5761355b868260ff16600781106134eb57fe5b915081831361356e579250612ab4915050565b60010161353d565b6000818313156135985760405162461bcd60e51b8152600401610beb90614f44565b828383036001016135a886613911565b816135af57fe5b0601949350505050565b60006135cd846001600160a01b03166139f4565b6135d957506001612861565b6060613667630a85bd0160e11b6135ee6126fd565b88878760405160240161360494939291906145b6565b604051602081830303815290604052906001600160e01b0319166020820180516001600160e01b0383818316178352505050506040518060600160405280603281526020016151f4603291396001600160a01b038816919063ffffffff613a2d16565b905060008180602001905181019061367f91906140fb565b6001600160e01b031916630a85bd0160e11b1492505050949350505050565b6000818152600183016020526040812054801561375a57835460001980830191908101906000908790839081106136d157fe5b90600052602060002001549050808760000184815481106136ee57fe5b60009182526020808320909101929092558281526001898101909252604090209084019055865487908061371e57fe5b60019003818190600052602060002001600090559055866001016000878152602001908152602001600020600090556001945050505050610dd0565b6000915050610dd0565b6000828152600184016020526040812054806137c9575050604080518082018252838152602080820184815286546001818101895560008981528481209551600290930290950191825591519082015586548684528188019092529290912055612ab4565b828560000160018303815481106137dc57fe5b9060005260206000209060020201600101819055506000915050612ab4565b6001600160a01b0382166138215760405162461bcd60e51b8152600401610beb90614b40565b61382a816126ea565b156138475760405162461bcd60e51b8152600401610beb906147b2565b61385360008383610ae9565b6001600160a01b038216600090815260016020526040902061387b908263ffffffff61324816565b5061388e6002828463ffffffff61325416565b5060405181906001600160a01b038416906000907fddf252ad1be2c89b69c2b068fc378daa952ba7f163c4a11628f55a4df523b3ef908290a45050565b60008282018183128015906138e05750838112155b806138f557506000831280156138f557508381125b610dcd5760405162461bcd60e51b8152600401610beb906148fc565b600060018251116139345760405162461bcd60e51b8152600401610beb90614820565b600060018351038360008151811061394857fe5b602002602001015160001c8161395a57fe5b066001019050600083828151811061396e57fe5b602002602001015160405160200161398691906144c2565b604051602081830303815290604052805190602001209050836000815181106139ab57fe5b602002602001015160001c60010160001b846000815181106139c957fe5b602002602001018181525050808483815181106139e257fe5b60209081029190910101529392505050565b6000813f7fc5d2460186f7233c927e7db2dcc703c0e500b653ca82273b7bfad8045d85a470818114801590612861575050151592915050565b6060612ab184846000856060613a42856139f4565b613a5e5760405162461bcd60e51b8152600401610beb90614dfb565b60006060866001600160a01b03168587604051613a7b91906144ef565b60006040518083038185875af1925050503d8060008114613ab8576040519150601f19603f3d011682016040523d82523d6000602084013e613abd565b606091505b50915091508115613ad15791506128619050565b805115613ae15780518082602001fd5b8360405162461bcd60e51b8152600401610beb919061460c565b828054600181600116156101000203166002900490600052602060002090601f016020900481019282601f10613b3c5782800160ff19823516178555613b69565b82800160010185558215613b69579182015b82811115613b69578235825591602001919060010190613b4e565b50613b75929150613d02565b5090565b6040805161020081018252600080825260208201819052918101829052606081018290526080810182905260a0810182905260c0810182905260e08101829052610100810182905261012081018290526101408101829052610160810182905261018081018290526101a081018290526101c081018290526101e081019190915290565b60405180608001604052806004906020820280368337509192915050565b60405180604001604052806002906020820280368337509192915050565b60405180606001604052806003906020820280368337509192915050565b828054600181600116156101000203166002900490600052602060002090601f016020900481019282601f10613c9857805160ff1916838001178555613b69565b82800160010185558215613b69579182015b82811115613b69578251825591602001919060010190613caa565b6040518060e001604052806007906020820280368337509192915050565b6040518061030001604052806018906020820280368337509192915050565b610b2b91905b80821115613b755760008155600101613d08565b80356001600160a01b0381168114610dd057600080fd5b8060608101831015610dd057600080fd5b8060408101831015610dd057600080fd5b600082601f830112613d65578081fd5b613d6f6040615158565b9050808284604085011115613d8357600080fd5b6000805b6002811015613db557823560ff81168114613da0578283fd5b84526020938401939290920191600101613d87565b5050505092915050565b8060808101831015610dd057600080fd5b600082601f830112613de0578081fd5b613dea6080615158565b9050808284608085011115613dfe57600080fd5b60005b6004811015613e2957613e148683613e94565b83526020928301929190910190600101613e01565b50505092915050565b80358015158114610dd057600080fd5b60008083601f840112613e53578182fd5b50813567ffffffffffffffff811115613e6a578182fd5b602083019150836020828501011115612a8a57600080fd5b803561ffff81168114610dd057600080fd5b803560ff81168114610dd057600080fd5b600060208284031215613eb6578081fd5b610dcd8383613d1c565b60008060408385031215613ed2578081fd5b613edc8484613d1c565b9150613eeb8460208501613d1c565b90509250929050565b600080600060608486031215613f08578081fd5b8335613f13816151c8565b92506020840135613f23816151c8565b929592945050506040919091013590565b60008060008060808587031215613f49578081fd5b613f538686613d1c565b93506020613f6387828801613d1c565b935060408601359250606086013567ffffffffffffffff80821115613f86578384fd5b81880189601f820112613f97578485fd5b8035925081831115613fa7578485fd5b613fb9601f8401601f19168501615158565b91508282528984848301011115613fce578485fd5b8284820185840137509081019091019190915292959194509250565b60008060408385031215613ffc578182fd5b6140068484613d1c565b9150613eeb8460208501613e32565b60008060408385031215614027578182fd5b6140318484613d1c565b946020939093013593505050565b600060208284031215614050578081fd5b81358015158114610dcd578182fd5b600060208284031215614070578081fd5b5035919050565b600060208284031215614088578081fd5b5051919050565b600080604083850312156140a1578182fd5b8235915060208301356140b3816151c8565b809150509250929050565b600080604083850312156140d0578182fd5b50508035926020909101359150565b6000602082840312156140f0578081fd5b8135610dcd816151dd565b60006020828403121561410c578081fd5b8151610dcd816151dd565b60008060208385031215614129578182fd5b823567ffffffffffffffff81111561413f578283fd5b61414b85828601613e42565b90969095509350505050565b6000806000806000806000806000806101e08b8d031215614176578788fd5b8a3567ffffffffffffffff81111561418c578889fd5b6141988d828e01613e42565b909b5099506141ac90508c60208d01613e94565b97506141bb8c60408d01613e94565b96506141ca8c60608d01613d33565b95506141d98c60c08d01613dbf565b94506141e98c6101408d01613d44565b93506141f98c6101808d01613e94565b92506142098c6101a08d01613d1c565b91506101c08b013590509295989b9194979a5092959850565b6000806000806000806000806101c0898b03121561423e578182fd5b88356001600160801b0381168114614254578283fd5b97506142638a60208b01613e94565b96506142728a60408b01613e94565b95506142818a60608b01613d33565b94506142908a60c08b01613dbf565b93506142a08a6101408b01613d44565b92506142b08a6101808b01613e94565b91506101a089013590509295985092959890939650565b6000602082840312156142d8578081fd5b813561ffff81168114610dcd578182fd5b600080608083850312156142fb578182fd5b82359150613eeb8460208501613d33565b600080600060408486031215614320578081fd5b83359250602084013567ffffffffffffffff81111561433d578182fd5b61434986828701613e42565b9497909650939450505050565b600060208284031215614367578081fd5b610dcd8383613e94565b600080600080600080610180878903121561438a578384fd5b6143948888613e94565b955060206143a489828a01613e94565b955088605f8901126143b4578485fd5b60036143c76143c28261517f565b615158565b8060408b0160a08c018d8111156143dc57898afd5b895b85811015614402576143f08f84613e82565b855293860193918601916001016143de565b508299506144108e82613dd0565b9850505050505050614426886101208901613d55565b9150614436886101608901613e32565b90509295509295509295565b8060005b600381101561211257815161ffff16845260209384019390910190600101614446565b8060005b600281101561211257815160ff1684526020938401939091019060010161446d565b600081518084526144a781602086016020860161519c565b601f01601f19169290920160200192915050565b60ff169052565b90815260200190565b918252602082015260400190565b9283526020830191909152604082015260600190565b6000825161450181846020870161519c565b9190910192915050565b600080845460018082166000811461452a576001811461454157614570565b60ff198316865260028304607f1686019350614570565b600283048886526020808720875b838110156145685781548a82015290850190820161454f565b505050860193505b505050835161458381836020880161519c565b01949350505050565b6941444d494e5f524f4c4560b01b8152600a0190565b6001600160a01b0391909116815260200190565b6001600160a01b03858116825284166020820152604081018390526080606082018190526000906145e99083018461448f565b9695505050505050565b901515815260200190565b60009190910b815260200190565b600060208252610dcd602083018461448f565b60208082526022908201527f456e756d657261626c655365743a20696e646578206f7574206f6620626f756e604082015261647360f01b606082015260800190565b6020808252602f908201527f416363657373436f6e74726f6c3a2073656e646572206d75737420626520616e60408201526e0818591b5a5b881d1bc819dc985b9d608a1b606082015260800190565b60208082526006908201526514185d5cd95960d21b604082015260600190565b60208082526004908201526315d0525560e21b604082015260600190565b6020808252600790820152664e4f204d4f524560c81b604082015260600190565b6020808252600d908201526c34b73b30b634b21031b7b637b960991b604082015260600190565b60208082526032908201527f4552433732313a207472616e7366657220746f206e6f6e20455243373231526560408201527131b2b4bb32b91034b6b83632b6b2b73a32b960711b606082015260800190565b60208082526010908201526f20a92a1029a0a6229024a99027ab22a960811b604082015260600190565b6020808252601c908201527f4552433732313a20746f6b656e20616c7265616479206d696e74656400000000604082015260600190565b6020808252601b908201527f536166654d6174683a206164646974696f6e206f766572666c6f770000000000604082015260600190565b60208082526019908201527f52616e646f6d2e6e6578743a20696e76616c696420706f6f6c00000000000000604082015260600190565b60208082526010908201526f696e76616c6964206861746368696e6760801b604082015260600190565b60208082526024908201527f4552433732313a207472616e7366657220746f20746865207a65726f206164646040820152637265737360e01b606082015260800190565b60208082526019908201527f4552433732313a20617070726f766520746f2063616c6c657200000000000000604082015260600190565b60208082526021908201527f5369676e6564536166654d6174683a206164646974696f6e206f766572666c6f6040820152607760f81b606082015260800190565b6020808252600b908201526a496e76616c696420426b6760a81b604082015260600190565b6020808252602c908201527f4552433732313a206f70657261746f7220717565727920666f72206e6f6e657860408201526b34b9ba32b73a103a37b5b2b760a11b606082015260800190565b60208082526030908201527f416363657373436f6e74726f6c3a2073656e646572206d75737420626520616e60408201526f2061646d696e20746f207265766f6b6560801b606082015260800190565b60208082526038908201527f4552433732313a20617070726f76652063616c6c6572206973206e6f74206f7760408201527f6e6572206e6f7220617070726f76656420666f7220616c6c0000000000000000606082015260800190565b6020808252602a908201527f4552433732313a2062616c616e636520717565727920666f7220746865207a65604082015269726f206164647265737360b01b606082015260800190565b602080825260129082015271496e7375662e205065726d697373696f6e7360701b604082015260600190565b6020808252601390820152721a5b9cdd599a58da595b9d081c185e5b595b9d606a1b604082015260600190565b60208082526022908201527f456e756d657261626c654d61703a20696e646578206f7574206f6620626f756e604082015261647360f01b606082015260800190565b6020808252818101527f4552433732313a206d696e7420746f20746865207a65726f2061646472657373604082015260600190565b60208082526021908201527f536166654d6174683a206d756c7469706c69636174696f6e206f766572666c6f6040820152607760f81b606082015260800190565b6020808252602c908201527f4552433732313a20617070726f76656420717565727920666f72206e6f6e657860408201526b34b9ba32b73a103a37b5b2b760a11b606082015260800190565b6020808252602c908201527f4552433732314d657461646174613a2055524920736574206f66206e6f6e657860408201526b34b9ba32b73a103a37b5b2b760a11b606082015260800190565b6020808252601390820152721a5b9d985b1a59081cda185c194818dbdd5b9d606a1b604082015260600190565b60208082526029908201527f4552433732313a207472616e73666572206f6620746f6b656e2074686174206960408201526839903737ba1037bbb760b91b606082015260800190565b6020808252602f908201527f4552433732314d657461646174613a2055524920717565727920666f72206e6f60408201526e3732bc34b9ba32b73a103a37b5b2b760891b606082015260800190565b60208082526010908201526f24b73b30b634b210223ab930ba34b7b760811b604082015260600190565b60208082526012908201527134b73b30b634b21039b0ba3ab930ba34b7b760711b604082015260600190565b60208082526021908201527f4552433732313a20617070726f76616c20746f2063757272656e74206f776e656040820152603960f91b606082015260800190565b60208082526031908201527f4552433732313a207472616e736665722063616c6c6572206973206e6f74206f6040820152701ddb995c881b9bdc88185c1c1c9bdd9959607a1b606082015260800190565b6020808252601d908201527f416464726573733a2063616c6c20746f206e6f6e2d636f6e7472616374000000604082015260600190565b6020808252600e908201526d1a5b9d985b1a59081cdc1c99585960921b604082015260600190565b6020808252600490820152631554d15160e21b604082015260600190565b6020808252600490820152634e4f504560e01b604082015260600190565b6020808252601490820152734d7573742062652066757475726520626c6f636b60601b604082015260600190565b602080825260149082015273696e76616c6964206865696768742072616e676560601b604082015260600190565b60208082526032908201527f43616c6c657220646f736e27742068617665207065726d697373696f6e20746f604082015271103ab9b2903a3434b990333ab731ba34b7b760711b606082015260800190565b6020808252818101527f52616e646f6d2e756e69666f726d3a20696e76616c696420696e74657276616c604082015260600190565b6020808252601690820152750c1e0c0c08149958da5c1a595b9d08125b9d985b1a5960521b604082015260600190565b6020808252602f908201527f416363657373436f6e74726f6c3a2063616e206f6e6c792072656e6f756e636560408201526e103937b632b9903337b91039b2b63360891b606082015260800190565b602080825260119082015270696e76616c6964206c696768746e65737360781b604082015260600190565b602080825260139082015272696e76616c69642077696474682072616e676560681b604082015260600190565b6001600160801b038c16815260208082018c905260ff8b811660408401528a8116606084015261022083019190608084018b60005b60048110156150a4578151841683529184019190840190600101615085565b50505050506150b7610100830189614469565b6150c56101408301886144bb565b6150d3610160830187614442565b6150e16101c08301866144bb565b6150ef6101e08301856144bb565b6150fd6102008301846144bb565b9c9b505050505050505050505050565b61ffff91909116815260200190565b63ffffffff91909116815260200190565b60ff91909116815260200190565b60ff93841681529183166020830152909116604082015260600190565b60405181810167ffffffffffffffff8111828210171561517757600080fd5b604052919050565b600067ffffffffffffffff821115615195578081fd5b5060200290565b60005b838110156151b757818101518382015260200161519f565b838111156121125750506000910152565b6001600160a01b0381168114610aec57600080fd5b6001600160e01b031981168114610aec57600080fdfe4552433732313a207472616e7366657220746f206e6f6e20455243373231526563656976657220696d706c656d656e7465724552433732313a206f776e657220717565727920666f72206e6f6e6578697374656e7420746f6b656ea2646970667358221220968190fa2589a0d160fe4eb2e2ae2ec23e0ed1df5c13d2d85698de2708cba17264736f6c6343000608003368747470733a2f2f72696e6b6562792e74696e79626f782e73686f702f54696e79426f7865732e6a736f6e",
  "linkReferences": {},
  "deployedLinkReferences": {}
}