{
  "_format": "hh-sol-artifact-1",
  "contractName": "TinyBoxesStore",
  "sourceName": "contracts/TinyBoxesStore.sol",
  "abi": [
    {
      "inputs": [
        {
          "internalType": "address",
          "name": "entropySourceAddress",
          "type": "address"
        }
      ],
      "stateMutability": "nonpayable",
      "type": "constructor"
    },
    {
      "anonymous": false,
      "inputs": [
        {
          "indexed": true,
          "internalType": "address",
          "name": "owner",
          "type": "address"
        },
        {
          "indexed": true,
          "internalType": "address",
          "name": "approved",
          "type": "address"
        },
        {
          "indexed": true,
          "internalType": "uint256",
          "name": "tokenId",
          "type": "uint256"
        }
      ],
      "name": "Approval",
      "type": "event"
    },
    {
      "anonymous": false,
      "inputs": [
        {
          "indexed": true,
          "internalType": "address",
          "name": "owner",
          "type": "address"
        },
        {
          "indexed": true,
          "internalType": "address",
          "name": "operator",
          "type": "address"
        },
        {
          "indexed": false,
          "internalType": "bool",
          "name": "approved",
          "type": "bool"
        }
      ],
      "name": "ApprovalForAll",
      "type": "event"
    },
    {
      "anonymous": false,
      "inputs": [
        {
          "indexed": false,
          "internalType": "uint256",
          "name": "id",
          "type": "uint256"
        }
      ],
      "name": "LECreated",
      "type": "event"
    },
    {
      "anonymous": false,
      "inputs": [
        {
          "indexed": true,
          "internalType": "bytes32",
          "name": "role",
          "type": "bytes32"
        },
        {
          "indexed": true,
          "internalType": "bytes32",
          "name": "previousAdminRole",
          "type": "bytes32"
        },
        {
          "indexed": true,
          "internalType": "bytes32",
          "name": "newAdminRole",
          "type": "bytes32"
        }
      ],
      "name": "RoleAdminChanged",
      "type": "event"
    },
    {
      "anonymous": false,
      "inputs": [
        {
          "indexed": true,
          "internalType": "bytes32",
          "name": "role",
          "type": "bytes32"
        },
        {
          "indexed": true,
          "internalType": "address",
          "name": "account",
          "type": "address"
        },
        {
          "indexed": true,
          "internalType": "address",
          "name": "sender",
          "type": "address"
        }
      ],
      "name": "RoleGranted",
      "type": "event"
    },
    {
      "anonymous": false,
      "inputs": [
        {
          "indexed": true,
          "internalType": "bytes32",
          "name": "role",
          "type": "bytes32"
        },
        {
          "indexed": true,
          "internalType": "address",
          "name": "account",
          "type": "address"
        },
        {
          "indexed": true,
          "internalType": "address",
          "name": "sender",
          "type": "address"
        }
      ],
      "name": "RoleRevoked",
      "type": "event"
    },
    {
      "anonymous": false,
      "inputs": [
        {
          "indexed": true,
          "internalType": "address",
          "name": "from",
          "type": "address"
        },
        {
          "indexed": true,
          "internalType": "address",
          "name": "to",
          "type": "address"
        },
        {
          "indexed": true,
          "internalType": "uint256",
          "name": "tokenId",
          "type": "uint256"
        }
      ],
      "name": "Transfer",
      "type": "event"
    },
    {
      "inputs": [],
      "name": "ADMIN_ROLE",
      "outputs": [
        {
          "internalType": "bytes32",
          "name": "",
          "type": "bytes32"
        }
      ],
      "stateMutability": "view",
      "type": "function"
    },
    {
      "inputs": [],
      "name": "ANIMATION_COUNT",
      "outputs": [
        {
          "internalType": "uint8",
          "name": "",
          "type": "uint8"
        }
      ],
      "stateMutability": "view",
      "type": "function"
    },
    {
      "inputs": [],
      "name": "DEFAULT_ADMIN_ROLE",
      "outputs": [
        {
          "internalType": "bytes32",
          "name": "",
          "type": "bytes32"
        }
      ],
      "stateMutability": "view",
      "type": "function"
    },
    {
      "inputs": [],
      "name": "SCHEME_COUNT",
      "outputs": [
        {
          "internalType": "uint8",
          "name": "",
          "type": "uint8"
        }
      ],
      "stateMutability": "view",
      "type": "function"
    },
    {
      "inputs": [],
      "name": "TOKEN_LIMIT",
      "outputs": [
        {
          "internalType": "uint16",
          "name": "",
          "type": "uint16"
        }
      ],
      "stateMutability": "view",
      "type": "function"
    },
    {
      "inputs": [
        {
          "internalType": "address",
          "name": "to",
          "type": "address"
        },
        {
          "internalType": "uint256",
          "name": "tokenId",
          "type": "uint256"
        }
      ],
      "name": "approve",
      "outputs": [],
      "stateMutability": "nonpayable",
      "type": "function"
    },
    {
      "inputs": [
        {
          "internalType": "address",
          "name": "owner",
          "type": "address"
        }
      ],
      "name": "balanceOf",
      "outputs": [
        {
          "internalType": "uint256",
          "name": "",
          "type": "uint256"
        }
      ],
      "stateMutability": "view",
      "type": "function"
    },
    {
      "inputs": [],
      "name": "baseURI",
      "outputs": [
        {
          "internalType": "string",
          "name": "",
          "type": "string"
        }
      ],
      "stateMutability": "view",
      "type": "function"
    },
    {
      "inputs": [],
      "name": "blockStart",
      "outputs": [
        {
          "internalType": "uint256",
          "name": "",
          "type": "uint256"
        }
      ],
      "stateMutability": "view",
      "type": "function"
    },
    {
      "inputs": [
        {
          "components": [
            {
              "internalType": "uint128",
              "name": "randomness",
              "type": "uint128"
            },
            {
              "internalType": "uint16",
              "name": "hue",
              "type": "uint16"
            },
            {
              "internalType": "uint8",
              "name": "saturation",
              "type": "uint8"
            },
            {
              "internalType": "uint8",
              "name": "lightness",
              "type": "uint8"
            },
            {
              "internalType": "uint8",
              "name": "shapes",
              "type": "uint8"
            },
            {
              "internalType": "uint8",
              "name": "hatching",
              "type": "uint8"
            },
            {
              "internalType": "uint8",
              "name": "widthMin",
              "type": "uint8"
            },
            {
              "internalType": "uint8",
              "name": "widthMax",
              "type": "uint8"
            },
            {
              "internalType": "uint8",
              "name": "heightMin",
              "type": "uint8"
            },
            {
              "internalType": "uint8",
              "name": "heightMax",
              "type": "uint8"
            },
            {
              "internalType": "uint8",
              "name": "spread",
              "type": "uint8"
            },
            {
              "internalType": "uint8",
              "name": "grid",
              "type": "uint8"
            },
            {
              "internalType": "uint8",
              "name": "mirroring",
              "type": "uint8"
            },
            {
              "internalType": "uint8",
              "name": "bkg",
              "type": "uint8"
            },
            {
              "internalType": "uint8",
              "name": "duration",
              "type": "uint8"
            },
            {
              "internalType": "uint8",
              "name": "options",
              "type": "uint8"
            }
          ],
          "internalType": "struct TinyBox",
          "name": "box",
          "type": "tuple"
        },
        {
          "internalType": "uint256",
          "name": "id",
          "type": "uint256"
        }
      ],
      "name": "calcedParts",
      "outputs": [
        {
          "internalType": "uint8[4]",
          "name": "parts",
          "type": "uint8[4]"
        }
      ],
      "stateMutability": "view",
      "type": "function"
    },
    {
      "inputs": [
        {
          "internalType": "uint256",
          "name": "id",
          "type": "uint256"
        },
        {
          "internalType": "uint8[3]",
          "name": "settings",
          "type": "uint8[3]"
        }
      ],
      "name": "changeSettings",
      "outputs": [],
      "stateMutability": "nonpayable",
      "type": "function"
    },
    {
      "inputs": [
        {
          "internalType": "string",
          "name": "_seed",
          "type": "string"
        },
        {
          "internalType": "uint8",
          "name": "shapes",
          "type": "uint8"
        },
        {
          "internalType": "uint8",
          "name": "hatching",
          "type": "uint8"
        },
        {
          "internalType": "uint16[3]",
          "name": "color",
          "type": "uint16[3]"
        },
        {
          "internalType": "uint8[4]",
          "name": "size",
          "type": "uint8[4]"
        },
        {
          "internalType": "uint8[2]",
          "name": "spacing",
          "type": "uint8[2]"
        },
        {
          "internalType": "uint8",
          "name": "mirroring",
          "type": "uint8"
        },
        {
          "internalType": "address",
          "name": "recipient",
          "type": "address"
        },
        {
          "internalType": "uint256",
          "name": "referalID",
          "type": "uint256"
        }
      ],
      "name": "create",
      "outputs": [
        {
          "internalType": "uint256",
          "name": "",
          "type": "uint256"
        }
      ],
      "stateMutability": "payable",
      "type": "function"
    },
    {
      "inputs": [
        {
          "internalType": "uint128",
          "name": "seed",
          "type": "uint128"
        },
        {
          "internalType": "uint8",
          "name": "shapes",
          "type": "uint8"
        },
        {
          "internalType": "uint8",
          "name": "hatching",
          "type": "uint8"
        },
        {
          "internalType": "uint16[3]",
          "name": "color",
          "type": "uint16[3]"
        },
        {
          "internalType": "uint8[4]",
          "name": "size",
          "type": "uint8[4]"
        },
        {
          "internalType": "uint8[2]",
          "name": "spacing",
          "type": "uint8[2]"
        },
        {
          "internalType": "uint8",
          "name": "mirroring",
          "type": "uint8"
        },
        {
          "internalType": "uint256",
          "name": "id",
          "type": "uint256"
        }
      ],
      "name": "createLimitedEdition",
      "outputs": [],
      "stateMutability": "nonpayable",
      "type": "function"
    },
    {
      "inputs": [],
      "name": "currentPhase",
      "outputs": [
        {
          "internalType": "uint8",
          "name": "",
          "type": "uint8"
        }
      ],
      "stateMutability": "view",
      "type": "function"
    },
    {
      "inputs": [
        {
          "internalType": "uint256",
          "name": "tokenId",
          "type": "uint256"
        }
      ],
      "name": "getApproved",
      "outputs": [
        {
          "internalType": "address",
          "name": "",
          "type": "address"
        }
      ],
      "stateMutability": "view",
      "type": "function"
    },
    {
      "inputs": [
        {
          "internalType": "bytes32",
          "name": "role",
          "type": "bytes32"
        }
      ],
      "name": "getRoleAdmin",
      "outputs": [
        {
          "internalType": "bytes32",
          "name": "",
          "type": "bytes32"
        }
      ],
      "stateMutability": "view",
      "type": "function"
    },
    {
      "inputs": [
        {
          "internalType": "bytes32",
          "name": "role",
          "type": "bytes32"
        },
        {
          "internalType": "uint256",
          "name": "index",
          "type": "uint256"
        }
      ],
      "name": "getRoleMember",
      "outputs": [
        {
          "internalType": "address",
          "name": "",
          "type": "address"
        }
      ],
      "stateMutability": "view",
      "type": "function"
    },
    {
      "inputs": [
        {
          "internalType": "bytes32",
          "name": "role",
          "type": "bytes32"
        }
      ],
      "name": "getRoleMemberCount",
      "outputs": [
        {
          "internalType": "uint256",
          "name": "",
          "type": "uint256"
        }
      ],
      "stateMutability": "view",
      "type": "function"
    },
    {
      "inputs": [
        {
          "internalType": "bytes32",
          "name": "role",
          "type": "bytes32"
        },
        {
          "internalType": "address",
          "name": "account",
          "type": "address"
        }
      ],
      "name": "grantRole",
      "outputs": [],
      "stateMutability": "nonpayable",
      "type": "function"
    },
    {
      "inputs": [
        {
          "internalType": "bytes32",
          "name": "role",
          "type": "bytes32"
        },
        {
          "internalType": "address",
          "name": "account",
          "type": "address"
        }
      ],
      "name": "hasRole",
      "outputs": [
        {
          "internalType": "bool",
          "name": "",
          "type": "bool"
        }
      ],
      "stateMutability": "view",
      "type": "function"
    },
    {
      "inputs": [
        {
          "internalType": "address",
          "name": "owner",
          "type": "address"
        },
        {
          "internalType": "address",
          "name": "operator",
          "type": "address"
        }
      ],
      "name": "isApprovedForAll",
      "outputs": [
        {
          "internalType": "bool",
          "name": "",
          "type": "bool"
        }
      ],
      "stateMutability": "view",
      "type": "function"
    },
    {
      "inputs": [
        {
          "internalType": "address",
          "name": "recipient",
          "type": "address"
        }
      ],
      "name": "mintPromo",
      "outputs": [],
      "stateMutability": "nonpayable",
      "type": "function"
    },
    {
      "inputs": [],
      "name": "name",
      "outputs": [
        {
          "internalType": "string",
          "name": "",
          "type": "string"
        }
      ],
      "stateMutability": "view",
      "type": "function"
    },
    {
      "inputs": [
        {
          "internalType": "uint256",
          "name": "tokenId",
          "type": "uint256"
        }
      ],
      "name": "ownerOf",
      "outputs": [
        {
          "internalType": "address",
          "name": "",
          "type": "address"
        }
      ],
      "stateMutability": "view",
      "type": "function"
    },
    {
      "inputs": [],
      "name": "paused",
      "outputs": [
        {
          "internalType": "bool",
          "name": "",
          "type": "bool"
        }
      ],
      "stateMutability": "view",
      "type": "function"
    },
    {
      "inputs": [],
      "name": "phaseCountdown",
      "outputs": [
        {
          "internalType": "uint256",
          "name": "",
          "type": "uint256"
        }
      ],
      "stateMutability": "view",
      "type": "function"
    },
    {
      "inputs": [],
      "name": "phaseCountdownTime",
      "outputs": [
        {
          "internalType": "uint256",
          "name": "",
          "type": "uint256"
        }
      ],
      "stateMutability": "view",
      "type": "function"
    },
    {
      "inputs": [],
      "name": "phaseLen",
      "outputs": [
        {
          "internalType": "uint256",
          "name": "",
          "type": "uint256"
        }
      ],
      "stateMutability": "view",
      "type": "function"
    },
    {
      "inputs": [],
      "name": "price",
      "outputs": [
        {
          "internalType": "uint256",
          "name": "",
          "type": "uint256"
        }
      ],
      "stateMutability": "view",
      "type": "function"
    },
    {
      "inputs": [
        {
          "internalType": "uint256",
          "name": "id",
          "type": "uint256"
        }
      ],
      "name": "readSettings",
      "outputs": [
        {
          "internalType": "uint8",
          "name": "bkg",
          "type": "uint8"
        },
        {
          "internalType": "uint8",
          "name": "duration",
          "type": "uint8"
        },
        {
          "internalType": "uint8",
          "name": "options",
          "type": "uint8"
        }
      ],
      "stateMutability": "view",
      "type": "function"
    },
    {
      "inputs": [],
      "name": "referalNewPercent",
      "outputs": [
        {
          "internalType": "uint256",
          "name": "",
          "type": "uint256"
        }
      ],
      "stateMutability": "view",
      "type": "function"
    },
    {
      "inputs": [],
      "name": "referalPercent",
      "outputs": [
        {
          "internalType": "uint256",
          "name": "",
          "type": "uint256"
        }
      ],
      "stateMutability": "view",
      "type": "function"
    },
    {
      "inputs": [
        {
          "internalType": "bytes32",
          "name": "role",
          "type": "bytes32"
        },
        {
          "internalType": "address",
          "name": "account",
          "type": "address"
        }
      ],
      "name": "renounceRole",
      "outputs": [],
      "stateMutability": "nonpayable",
      "type": "function"
    },
    {
      "inputs": [
        {
          "internalType": "bytes32",
          "name": "role",
          "type": "bytes32"
        },
        {
          "internalType": "address",
          "name": "account",
          "type": "address"
        }
      ],
      "name": "revokeRole",
      "outputs": [],
      "stateMutability": "nonpayable",
      "type": "function"
    },
    {
      "inputs": [
        {
          "internalType": "address",
          "name": "from",
          "type": "address"
        },
        {
          "internalType": "address",
          "name": "to",
          "type": "address"
        },
        {
          "internalType": "uint256",
          "name": "tokenId",
          "type": "uint256"
        }
      ],
      "name": "safeTransferFrom",
      "outputs": [],
      "stateMutability": "nonpayable",
      "type": "function"
    },
    {
      "inputs": [
        {
          "internalType": "address",
          "name": "from",
          "type": "address"
        },
        {
          "internalType": "address",
          "name": "to",
          "type": "address"
        },
        {
          "internalType": "uint256",
          "name": "tokenId",
          "type": "uint256"
        },
        {
          "internalType": "bytes",
          "name": "_data",
          "type": "bytes"
        }
      ],
      "name": "safeTransferFrom",
      "outputs": [],
      "stateMutability": "nonpayable",
      "type": "function"
    },
    {
      "inputs": [
        {
          "internalType": "address",
          "name": "operator",
          "type": "address"
        },
        {
          "internalType": "bool",
          "name": "approved",
          "type": "bool"
        }
      ],
      "name": "setApprovalForAll",
      "outputs": [],
      "stateMutability": "nonpayable",
      "type": "function"
    },
    {
      "inputs": [
        {
          "internalType": "bool",
          "name": "state",
          "type": "bool"
        }
      ],
      "name": "setPause",
      "outputs": [],
      "stateMutability": "nonpayable",
      "type": "function"
    },
    {
      "inputs": [
        {
          "internalType": "address",
          "name": "rand",
          "type": "address"
        }
      ],
      "name": "setRandom",
      "outputs": [],
      "stateMutability": "nonpayable",
      "type": "function"
    },
    {
      "inputs": [
        {
          "internalType": "uint256",
          "name": "startBlock",
          "type": "uint256"
        }
      ],
      "name": "startCoundown",
      "outputs": [],
      "stateMutability": "nonpayable",
      "type": "function"
    },
    {
      "inputs": [
        {
          "internalType": "bytes4",
          "name": "interfaceId",
          "type": "bytes4"
        }
      ],
      "name": "supportsInterface",
      "outputs": [
        {
          "internalType": "bool",
          "name": "",
          "type": "bool"
        }
      ],
      "stateMutability": "view",
      "type": "function"
    },
    {
      "inputs": [],
      "name": "symbol",
      "outputs": [
        {
          "internalType": "string",
          "name": "",
          "type": "string"
        }
      ],
      "stateMutability": "view",
      "type": "function"
    },
    {
      "inputs": [],
      "name": "testRandom",
      "outputs": [
        {
          "internalType": "bytes32",
          "name": "",
          "type": "bytes32"
        }
      ],
      "stateMutability": "view",
      "type": "function"
    },
    {
      "inputs": [
        {
          "internalType": "uint256",
          "name": "index",
          "type": "uint256"
        }
      ],
      "name": "tokenByIndex",
      "outputs": [
        {
          "internalType": "uint256",
          "name": "",
          "type": "uint256"
        }
      ],
      "stateMutability": "view",
      "type": "function"
    },
    {
      "inputs": [
        {
          "internalType": "uint256",
          "name": "_id",
          "type": "uint256"
        }
      ],
      "name": "tokenData",
      "outputs": [
        {
          "internalType": "uint256",
          "name": "animation",
          "type": "uint256"
        },
        {
          "internalType": "uint8",
          "name": "shapes",
          "type": "uint8"
        },
        {
          "internalType": "uint8",
          "name": "hatching",
          "type": "uint8"
        },
        {
          "internalType": "uint8[4]",
          "name": "size",
          "type": "uint8[4]"
        },
        {
          "internalType": "uint8[2]",
          "name": "spacing",
          "type": "uint8[2]"
        },
        {
          "internalType": "uint8",
          "name": "mirroring",
          "type": "uint8"
        },
        {
          "internalType": "uint16[3]",
          "name": "color",
          "type": "uint16[3]"
        },
        {
          "internalType": "uint8",
          "name": "contrast",
          "type": "uint8"
        },
        {
          "internalType": "uint8",
          "name": "shades",
          "type": "uint8"
        },
        {
          "internalType": "uint8",
          "name": "scheme",
          "type": "uint8"
        }
      ],
      "stateMutability": "view",
      "type": "function"
    },
    {
      "inputs": [
        {
          "internalType": "address",
          "name": "owner",
          "type": "address"
        },
        {
          "internalType": "uint256",
          "name": "index",
          "type": "uint256"
        }
      ],
      "name": "tokenOfOwnerByIndex",
      "outputs": [
        {
          "internalType": "uint256",
          "name": "",
          "type": "uint256"
        }
      ],
      "stateMutability": "view",
      "type": "function"
    },
    {
      "inputs": [
        {
          "internalType": "uint256",
          "name": "id",
          "type": "uint256"
        }
      ],
      "name": "tokenRandomness",
      "outputs": [
        {
          "internalType": "uint128",
          "name": "",
          "type": "uint128"
        }
      ],
      "stateMutability": "view",
      "type": "function"
    },
    {
      "inputs": [
        {
          "internalType": "uint256",
          "name": "tokenId",
          "type": "uint256"
        }
      ],
      "name": "tokenURI",
      "outputs": [
        {
          "internalType": "string",
          "name": "",
          "type": "string"
        }
      ],
      "stateMutability": "view",
      "type": "function"
    },
    {
      "inputs": [],
      "name": "totalSupply",
      "outputs": [
        {
          "internalType": "uint256",
          "name": "",
          "type": "uint256"
        }
      ],
      "stateMutability": "view",
      "type": "function"
    },
    {
      "inputs": [
        {
          "internalType": "address",
          "name": "from",
          "type": "address"
        },
        {
          "internalType": "address",
          "name": "to",
          "type": "address"
        },
        {
          "internalType": "uint256",
          "name": "tokenId",
          "type": "uint256"
        }
      ],
      "name": "transferFrom",
      "outputs": [],
      "stateMutability": "nonpayable",
      "type": "function"
    },
    {
      "inputs": [
        {
          "internalType": "uint256",
          "name": "id",
          "type": "uint256"
        }
      ],
      "name": "trueID",
      "outputs": [
        {
          "internalType": "int8",
          "name": "",
          "type": "int8"
        }
      ],
      "stateMutability": "pure",
      "type": "function"
    },
    {
      "inputs": [
        {
          "internalType": "uint8",
          "name": "shapes",
          "type": "uint8"
        },
        {
          "internalType": "uint8",
          "name": "hatching",
          "type": "uint8"
        },
        {
          "internalType": "uint16[3]",
          "name": "color",
          "type": "uint16[3]"
        },
        {
          "internalType": "uint8[4]",
          "name": "size",
          "type": "uint8[4]"
        },
        {
          "internalType": "uint8[2]",
          "name": "position",
          "type": "uint8[2]"
        },
        {
          "internalType": "bool",
          "name": "exclusive",
          "type": "bool"
        }
      ],
      "name": "validateParams",
      "outputs": [],
      "stateMutability": "pure",
      "type": "function"
    },
    {
      "stateMutability": "payable",
      "type": "receive"
    }
  ],
  "bytecode": "0x6080604052600e805460ff19166001179055600b606e0461ffff1660105560786011556200003f600f601154620001ff60201b620026f41790919060201c565b6012556001601455600a601555600f6016556000196017556064601855601980546001600160a01b0319908116737a832c86002323a5de3a317b3281eb88ec3b2c0017909155601a80549091167363a9dbce75413036b2b778e670aabd4493aaf9f3179055348015620000b157600080fd5b506040516200561238038062005612833981016040819052620000d491620004bc565b604080518082018252600981526854696e79426f78657360b81b602080830191909152825180840190935260068352655b235d5b235d60d01b9083015282916200012e6301ffc9a760e01b6001600160e01b036200025216565b8151620001439060069060208501906200041a565b508051620001599060079060208401906200041a565b50620001756380ac58cd60e01b6001600160e01b036200025216565b62000190635b5e139f60e01b6001600160e01b036200025216565b620001ab63780e9d6360e01b6001600160e01b036200025216565b5050620001d8604051620001bf90620004ec565b604051908190039020336001600160e01b03620002ad16565b600b80546001600160a01b0319166001600160a01b0392909216919091179055506200058f565b60006200024983836040518060400160405280601a81526020017f536166654d6174683a206469766973696f6e206279207a65726f000000000000815250620002c660201b60201c565b90505b92915050565b6001600160e01b03198082161415620002885760405162461bcd60e51b81526004016200027f9062000558565b60405180910390fd5b6001600160e01b0319166000908152602081905260409020805460ff19166001179055565b620002c282826001600160e01b036200030116565b5050565b60008183620002ea5760405162461bcd60e51b81526004016200027f919062000502565b506000838581620002f757fe5b0495945050505050565b6000828152600a60209081526040909120620003289183906200273662000385821b17901c565b15620002c257620003416001600160e01b03620003a516565b6001600160a01b0316816001600160a01b0316837f2f8788117e7eff1d82e926ec794901d17c78024a50270940304540a733656f0d60405160405180910390a45050565b600062000249836001600160a01b0384166001600160e01b03620003aa16565b335b90565b6000620003c183836001600160e01b036200040216565b620003f9575081546001818101845560008481526020808220909301849055845484825282860190935260409020919091556200024c565b5060006200024c565b60009081526001919091016020526040902054151590565b828054600181600116156101000203166002900490600052602060002090601f016020900481019282601f106200045d57805160ff19168380011785556200048d565b828001600101855582156200048d579182015b828111156200048d57825182559160200191906001019062000470565b506200049b9291506200049f565b5090565b620003a791905b808211156200049b5760008155600101620004a6565b600060208284031215620004ce578081fd5b81516001600160a01b0381168114620004e5578182fd5b9392505050565b6941444d494e5f524f4c4560b01b8152600a0190565b6000602080835283518082850152825b81811015620005305785810183015185820160400152820162000512565b81811115620005425783604083870101525b50601f01601f1916929092016040019392505050565b6020808252601c908201527f4552433136353a20696e76616c696420696e7465726661636520696400000000604082015260600190565b615073806200059f6000396000f3fe6080604052600436106103035760003560e01c80637def753d11610190578063bedb86fb116100dc578063e985e9c511610095578063fa33eb261161006f578063fa33eb26146108d9578063fbddd14b14610906578063fc4ea9391461091b578063fd05dd6a1461093057610313565b8063e985e9c51461088f578063f1d77baf146108af578063f7eaec7d146108c457610313565b8063bedb86fb146107cf578063c87b56dd146107ef578063ca15c8731461080f578063ca9c0bad1461082f578063d547741f1461084f578063dbde52221461086f57610313565b8063990cec8311610149578063a22cb46511610123578063a22cb46514610744578063b3174fa114610764578063b4b5b48f14610779578063b88d4fde146107af57610313565b8063990cec8314610707578063a035b1fe1461071a578063a217fddf1461072f57610313565b80637def753d14610643578063824cac1a146106635780639010d07c1461068357806391d14854146106a3578063947e93d9146106c357806395d89b41146106f257610313565b806336568abe1161024f5780635c975abb1161020857806370a08231116101e257806370a08231146105e457806371a0a0161461060457806375b238fc146106195780637b2feaaa1461062e57610313565b80635c975abb1461059a5780636352211e146105af5780636c0360eb146105cf57610313565b806336568abe146104d85780633c564cab146104f8578063408f3a2b1461051857806342842e0e146105455780634f6ccce714610565578063524101971461058557610313565b80630e1b9b0e116102bc578063248a9ca311610296578063248a9ca3146104585780632f2ff15d146104785780632f745c591461049857806333618273146104b857610313565b80630e1b9b0e1461040157806318160ddd1461041657806323b872dd1461043857610313565b806301ffc9a714610318578063031bd4c41461034e578063055ad42e1461037057806306fdde0314610392578063081812fc146103b4578063095ea7b3146103e157610313565b36610313576103113461095d565b005b600080fd5b34801561032457600080fd5b50610338610333366004613e24565b610a10565b6040516103459190614437565b60405180910390f35b34801561035a57600080fd5b50610363610a33565b6040516103459190614e5c565b34801561037c57600080fd5b50610385610a38565b6040516103459190614f1c565b34801561039e57600080fd5b506103a7610a4f565b6040516103459190614450565b3480156103c057600080fd5b506103d46103cf366004613da4565b610ae5565b60405161034591906143d8565b3480156103ed57600080fd5b506103116103fc366004613d5a565b610b31565b34801561040d57600080fd5b50610385610bc4565b34801561042257600080fd5b5061042b610bc9565b60405161034591906142f8565b34801561044457600080fd5b50610311610453366004613c39565b610bd5565b34801561046457600080fd5b5061042b610473366004613da4565b610c0d565b34801561048457600080fd5b50610311610493366004613dd4565b610c22565b3480156104a457600080fd5b5061042b6104b3366004613d5a565b610c6a565b3480156104c457600080fd5b506103116104d3366004613da4565b610c9b565b3480156104e457600080fd5b506103116104f3366004613dd4565b610ce5565b34801561050457600080fd5b50610311610513366004614169565b610d27565b34801561052457600080fd5b50610538610533366004613da4565b610ea7565b6040516103459190614e48565b34801561055157600080fd5b50610311610560366004613c39565b610fc7565b34801561057157600080fd5b5061042b610580366004613da4565b610fe2565b34801561059157600080fd5b5061042b610ffe565b3480156105a657600080fd5b50610338611004565b3480156105bb57600080fd5b506103d46105ca366004613da4565b61100d565b3480156105db57600080fd5b506103a761103b565b3480156105f057600080fd5b5061042b6105ff366004613bea565b61109c565b34801561061057600080fd5b506103856110e5565b34801561062557600080fd5b5061042b6110ea565b34801561063a57600080fd5b5061042b611101565b34801561064f57600080fd5b5061031161065e366004613bea565b611107565b34801561066f57600080fd5b5061031161067e3660046140ae565b611166565b34801561068f57600080fd5b506103d461069e366004613e03565b611606565b3480156106af57600080fd5b506103386106be366004613dd4565b611624565b3480156106cf57600080fd5b506106e36106de366004613da4565b611642565b60405161034593929190614f2a565b3480156106fe57600080fd5b506103a761176e565b61042b610715366004613e5c565b6117cf565b34801561072657600080fd5b5061042b611d0f565b34801561073b57600080fd5b5061042b611d15565b34801561075057600080fd5b5061031161075f366004613d2f565b611d1a565b34801561077057600080fd5b5061042b611de8565b34801561078557600080fd5b50610799610794366004613da4565b611dee565b6040516103459a99989796959493929190614e6b565b3480156107bb57600080fd5b506103116107ca366004613c79565b612045565b3480156107db57600080fd5b506103116107ea366004613d84565b612084565b3480156107fb57600080fd5b506103a761080a366004613da4565b6120a6565b34801561081b57600080fd5b5061042b61082a366004613da4565b6121f0565b34801561083b57600080fd5b5061031161084a366004613bea565b612207565b34801561085b57600080fd5b5061031161086a366004613dd4565b612238565b34801561087b57600080fd5b5061031161088a3660046141a7565b612272565b34801561089b57600080fd5b506103386108aa366004613c05565b61240a565b3480156108bb57600080fd5b5061042b612438565b3480156108d057600080fd5b5061042b61243e565b3480156108e557600080fd5b506108f96108f4366004613f53565b612444565b6040516103459190614429565b34801561091257600080fd5b5061042b612654565b34801561092757600080fd5b5061042b6126eb565b34801561093c57600080fd5b5061095061094b366004613da4565b6126f1565b6040516103459190614442565b8015610a0d576000610987606461097b84603c63ffffffff61274b16565b9063ffffffff6126f416565b6019546040519192506001600160a01b03169082156108fc029083906000818181858888f193505050501580156109c2573d6000803e3d6000fd5b50601a546001600160a01b03166108fc6109e2848463ffffffff61278516565b6040518115909202916000818181858888f19350505050158015610a0a573d6000803e3d6000fd5b50505b50565b6001600160e01b0319811660009081526020819052604090205460ff165b919050565b606e81565b6000610a4a60105461097b600c6127c7565b905090565b60068054604080516020601f6002600019610100600188161502019095169490940493840181900481028201810190925282815260609390929091830182828015610adb5780601f10610ab057610100808354040283529160200191610adb565b820191906000526020600020905b815481529060010190602001808311610abe57829003601f168201915b5050505050905090565b6000610af0826127cb565b610b155760405162461bcd60e51b8152600401610b0c906149fa565b60405180910390fd5b506000908152600460205260409020546001600160a01b031690565b6000610b3c8261100d565b9050806001600160a01b0316836001600160a01b03161415610b705760405162461bcd60e51b8152600401610b0c90614b61565b806001600160a01b0316610b826127de565b6001600160a01b03161480610b9e5750610b9e816108aa6127de565b610bba5760405162461bcd60e51b8152600401610b0c90614842565b610a0a83836127e2565b601881565b6000610a4a6002612850565b610be6610be06127de565b8261285b565b610c025760405162461bcd60e51b8152600401610b0c90614ba2565b610a0a8383836128e0565b6000908152600a602052604090206002015490565b6000828152600a6020526040902060020154610c40906106be6127de565b610c5c5760405162461bcd60e51b8152600401610b0c906144a5565b610c668282612a00565b5050565b6001600160a01b0382166000908152600160205260408120610c92908363ffffffff612a6f16565b90505b92915050565b610cb7604051610caa906143c2565b6040518091039020612a7b565b438111610cd65760405162461bcd60e51b8152600401610b0c90614c8e565b600f55600e805460ff19169055565b610ced6127de565b6001600160a01b0316816001600160a01b031614610d1d5760405162461bcd60e51b8152600401610b0c90614da1565b610c668282612aa1565b610d308261100d565b6001600160a01b0316336001600160a01b03161480610d685750610d5382610ae5565b6001600160a01b0316336001600160a01b0316145b610d845760405162461bcd60e51b8152600401610b0c906148e9565b6065610d93602083018361418c565b60ff161115610db45760405162461bcd60e51b8152600401610b0c90614781565b6000610dc6604083016020840161418c565b60ff1611610de65760405162461bcd60e51b8152600401610b0c90614b0b565b610df3602082018261418c565b6000838152601360205260409020805460ff92909216600160e81b0260ff60e81b19909216919091179055806001602002016020810190610e34919061418c565b6000838152601360205260409020805460ff92909216600160f01b0260ff60f01b19909216919091179055806002602002016020810190610e75919061418c565b600092835260136020526040909220805460ff93909316600160f81b026001600160f81b039093169290921790915550565b6000610eb161396f565b505060009081526013602090815260409182902082516102008101845290546001600160801b03811680835261ffff600160801b8304169383019390935260ff600160901b8204811694830194909452600160981b810484166060830152600160a01b810484166080830152600160a81b8104841660a0830152600160b01b8104841660c0830152600160b81b8104841660e0830152600160c01b81048416610100830152600160c81b81048416610120830152600160d01b81048416610140830152600160d81b81048416610160830152600160e01b81048416610180830152600160e81b810484166101a0830152600160f01b810484166101c0830152600160f81b90049092166101e09092019190915290565b610a0a83838360405180602001604052806000815250612045565b600080610ff660028463ffffffff612b1016565b509392505050565b60115481565b600e5460ff1681565b6000610c9582604051806060016040528060298152602001615015602991396002919063ffffffff612b2c16565b60098054604080516020601f6002600019610100600188161502019095169490940493840181900481028201810190925282815260609390929091830182828015610adb5780601f10610ab057610100808354040283529160200191610adb565b60006001600160a01b0382166110c45760405162461bcd60e51b8152600401610b0c9061489f565b6001600160a01b0382166000908152600160205260409020610c9590612850565b600b81565b6040516110f6906143c2565b604051809103902081565b600f5481565b611116604051610caa906143c2565b601854611123600d6127c7565b106111405760405162461bcd60e51b8152600401610b0c90614532565b600061114c600d6127c7565b60175403905061115c8282612b43565b610c66600d612b5d565b61116e612b66565b336111788261100d565b6001600160a01b03161461119e5760405162461bcd60e51b8152600401610b0c90614c70565b600081815260136020526040902054600160a01b900460ff16156111d45760405162461bcd60e51b8152600401610b0c90614c52565b61125287878760038060200260405190810160405280929190826003602002808284376000920191909152505060408051608081810190925291508990600490839083908082843760009201919091525050604080518082018252915089906002908390839080828437600092019190915250600191506122729050565b6040805161020081019091526001600160801b038916815260208082019061127c90880188614147565b61ffff1681526020908101906112989060408901908901614147565b60ff1681526020016112b06060880160408901614147565b60ff90811682528981166020830152881660408201526060018560006020020160208101906112df919061418c565b60ff1681526020908101906112fa906040880190880161418c565b60ff168152602001611312606087016040880161418c565b60ff16815260200161132a608087016060880161418c565b60ff1681526020908101906113419086018661418c565b60ff16815260209081019061135c906040870190870161418c565b60ff1681526020018360ff168152602001600060ff168152602001600a60ff168152602001600160ff168152506013600083815260200190815260200160002060008201518160000160006101000a8154816001600160801b0302191690836001600160801b0316021790555060208201518160000160106101000a81548161ffff021916908361ffff16021790555060408201518160000160126101000a81548160ff021916908360ff16021790555060608201518160000160136101000a81548160ff021916908360ff16021790555060808201518160000160146101000a81548160ff021916908360ff16021790555060a08201518160000160156101000a81548160ff021916908360ff16021790555060c08201518160000160166101000a81548160ff021916908360ff16021790555060e08201518160000160176101000a81548160ff021916908360ff1602179055506101008201518160000160186101000a81548160ff021916908360ff1602179055506101208201518160000160196101000a81548160ff021916908360ff16021790555061014082015181600001601a6101000a81548160ff021916908360ff16021790555061016082015181600001601b6101000a81548160ff021916908360ff16021790555061018082015181600001601c6101000a81548160ff021916908360ff1602179055506101a082015181600001601d6101000a81548160ff021916908360ff1602179055506101c082015181600001601e6101000a81548160ff021916908360ff1602179055506101e082015181600001601f6101000a81548160ff021916908360ff1602179055509050507feaa4f184b7f3d10bde81fc2d884889a91fbadf176d0ecc02895ab30b5aba08ef816040516115f491906142f8565b60405180910390a15050505050505050565b6000828152600a60205260408120610c92908363ffffffff612a6f16565b6000828152600a60205260408120610c92908363ffffffff612b8b16565b600080600061164f61396f565b5050506000918252506013602090815260409182902082516102008101845290546001600160801b038116825261ffff600160801b8204169282019290925260ff600160901b8304811693820193909352600160981b820483166060820152600160a01b820483166080820152600160a81b8204831660a0820152600160b01b8204831660c0820152600160b81b8204831660e0820152600160c01b82048316610100820152600160c81b82048316610120820152600160d01b82048316610140820152600160d81b82048316610160820152600160e01b82048316610180820152600160e81b820483166101a08201819052600160f01b830484166101c08301819052600160f81b9093049093166101e09091018190529192909190565b60078054604080516020601f6002600019610100600188161502019095169490940493840181900481028201810190925282815260609390929091830182828015610adb5780601f10610ab057610100808354040283529160200191610adb565b60006117d9612ba0565b6117e1612b66565b6117e9612bc9565b6117f38284612beb565b61186e89898960038060200260405190810160405280929190826003602002808284376000920191909152505060408051608081810190925291508b9060049083908390808284376000920191909152505060408051808201825291508b906002908390839080828437600092018290525091506122729050565b6001600160a01b0383166118945760405162461bcd60e51b8152600401610b0c90614d71565b60006118a0600c6127c7565b90506118ac600c612b5d565b6118c86010546118bc600c6127c7565b9063ffffffff612d6316565b6118fd576118f96118ec6118da610a38565b6012549060ff1663ffffffff61274b16565b439063ffffffff612da516565b600f555b600061193e8d8d8080601f016020809104026020016040519081016040528093929190818152602001838380828437600092019190915250612dca92505050565b9050600061194c8383612e23565b9050604051806102000160405280826001600160801b031681526020018b60006003811061197657fe5b6020020160208101906119899190614147565b61ffff16815260200160c86001600160801b038416066001600160801b03166000146119c4576119bf60408d0160208e01614147565b6119c7565b60005b60ff1681526020016119df60608d0160408e01614147565b60ff90811682528e811660208301528d1660408201526060018a6000602002016020810190611a0e919061418c565b60ff168152602090810190611a299060408d01908d0161418c565b60ff168152602001611a4160608c0160408d0161418c565b60ff168152602001611a5960808c0160608d0161418c565b60ff168152602090810190611a70908b018b61418c565b60ff168152602090810190611a8b9060408c01908c0161418c565b60ff1681526020018860ff168152602001600060ff168152602001600a60ff168152602001600160ff168152506013600085815260200190815260200160002060008201518160000160006101000a8154816001600160801b0302191690836001600160801b0316021790555060208201518160000160106101000a81548161ffff021916908361ffff16021790555060408201518160000160126101000a81548160ff021916908360ff16021790555060608201518160000160136101000a81548160ff021916908360ff16021790555060808201518160000160146101000a81548160ff021916908360ff16021790555060a08201518160000160156101000a81548160ff021916908360ff16021790555060c08201518160000160166101000a81548160ff021916908360ff16021790555060e08201518160000160176101000a81548160ff021916908360ff1602179055506101008201518160000160186101000a81548160ff021916908360ff1602179055506101208201518160000160196101000a81548160ff021916908360ff16021790555061014082015181600001601a6101000a81548160ff021916908360ff16021790555061016082015181600001601b6101000a81548160ff021916908360ff16021790555061018082015181600001601c6101000a81548160ff021916908360ff1602179055506101a082015181600001601d6101000a81548160ff021916908360ff1602179055506101c082015181600001601e6101000a81548160ff021916908360ff1602179055506101e082015181600001601f6101000a81548160ff021916908360ff160217905550905050611cfe8684612b43565b5050509a9950505050505050505050565b60145481565b600081565b611d226127de565b6001600160a01b0316826001600160a01b03161415611d535760405162461bcd60e51b8152600401610b0c90614709565b8060056000611d606127de565b6001600160a01b03908116825260208083019390935260409182016000908120918716808252919093529120805460ff191692151592909217909155611da46127de565b6001600160a01b03167f17307eab39ab6107e8899845ad3d59bd9653f200f220920489ca2b5937696c3183604051611ddc9190614437565b60405180910390a35050565b60105481565b6000806000611dfb6139f3565b611e03613a11565b6000611e0d613a2f565b6000806000611e1a61396f565b5060008b81526013602090815260409182902082516102008101845290546001600160801b038116825261ffff600160801b8204169282019290925260ff600160901b8304811693820193909352600160981b820483166060820152600160a01b820483166080820152600160a81b8204831660a0820152600160b01b8204831660c0820152600160b81b8204831660e0820152600160c01b82048316610100820152600160c81b82048316610120820152600160d01b82048316610140820152600160d81b82048316610160820152600160e01b82048316610180820152600160e81b820483166101a0820152600160f01b820483166101c0820152600160f81b9091049091166101e0820152611f306139f3565b611f3a828e612444565b9050806000602002015160ff169b50806001602002015192508060026020020151935080600360200201519450816101800151965081608001519a508160a0015199506040518060600160405280836020015161ffff1661ffff168152602001836040015160ff1661ffff168152602001836060015160ff1661ffff16815250955060405180608001604052808360c0015160ff1660ff1681526020018360e0015160ff1660ff16815260200183610100015160ff1660ff16815260200183610120015160ff1660ff168152509850604051806040016040528083610140015160ff1660ff16815260200183610160015160ff1660ff16815250975050509193959799509193959799565b6120566120506127de565b8361285b565b6120725760405162461bcd60e51b8152600401610b0c90614ba2565b61207e84848484612ee9565b50505050565b612093604051610caa906143c2565b600e805460ff1916911515919091179055565b60606120b1826127cb565b6120cd5760405162461bcd60e51b8152600401610b0c90614abc565b60008281526008602090815260409182902080548351601f60026000196101006001861615020190931692909204918201849004840281018401909452808452606093928301828280156121625780601f1061213757610100808354040283529160200191612162565b820191906000526020600020905b81548152906001019060200180831161214557829003601f168201915b50506009549394505050506002600019610100600184161502019091160461218b579050610a2e565b8051156121bd576009816040516020016121a6929190614341565b604051602081830303815290604052915050610a2e565b60096121c884612f1c565b6040516020016121d9929190614341565b604051602081830303815290604052915050919050565b6000818152600a60205260408120610c9590612850565b612216604051610caa906143c2565b600b80546001600160a01b0319166001600160a01b0392909216919091179055565b6000828152600a6020526040902060020154612256906106be6127de565b610d1d5760405162461bcd60e51b8152600401610b0c906147f2565b60008660ff161180156122885750601f8660ff16105b6122a45760405162461bcd60e51b8152600401610b0c90614a46565b8560ff168560ff1611156122ca5760405162461bcd60e51b8152600401610b0c9061469b565b610168846002602002015161ffff1611156122f75760405162461bcd60e51b8152600401610b0c90614553565b6064846001602002015161ffff1611156123235760405162461bcd60e51b8152600401610b0c90614b35565b80612354576014846001602002015161ffff1610156123545760405162461bcd60e51b8152600401610b0c90614b35565b6064846002602002015161ffff1611156123805760405162461bcd60e51b8152600401610b0c90614df0565b6020830151835160ff918216911611156123ac5760405162461bcd60e51b8152600401610b0c90614e1b565b6060830151604084015160ff918216911611156123db5760405162461bcd60e51b8152600401610b0c90614cbc565b8151606460ff90911611156124025760405162461bcd60e51b8152600401610b0c90614c2a565b505050505050565b6001600160a01b03918216600090815260056020908152604080832093909416825291909152205460ff1690565b60165481565b60155481565b61244c6139f3565b606e8210156125fd57606061246d84600001516001600160801b0316612ff7565b9050612477613a4d565b506040805160e0810182526001808252600260208301819052600593830184905260096060840152608083019390935260a082019290925260c08101919091526124bf613a6b565b506040805161030081018252600180825260208201819052918101829052606081018290526080810182905260a0810182905260c0810182905260e08101829052610100810182905261012081018290526101408101829052610160810182905261018081018290526101a081018290526101c081018290526101e08101829052610200810182905261022081018290526102408101829052610260810182905261028081018290526102a081018290526102c081018290526102e08101919091526125938382601863ffffffff6130ae16565b60ff1684526010546125a69086906126f4565b60ff1660208501526125ce60016125bf8585601961311e565b60ff169063ffffffff612da516565b60ff908116604086015260608701516125ec9185916000911661316f565b60ff16606085015250610c95915050565b825160ff6001607b1b6001600160801b03928316041682528351600160771b90821604600f1660208301528351600160741b90821604600716604083015292516001606d1b931692909204607f1660608301525090565b6000612665604051610caa906143c2565b600b60009054906101000a90046001600160a01b03166001600160a01b031663990c8f796040518163ffffffff1660e01b815260040160206040518083038186803b1580156126b357600080fd5b505afa1580156126c7573d6000803e3d6000fd5b505050506040513d601f19601f82011682018060405250810190610a4a9190613dbc565b60125481565b90565b6000610c9283836040518060400160405280601a81526020017f536166654d6174683a206469766973696f6e206279207a65726f0000000000008152506131b2565b6000610c92836001600160a01b0384166131e9565b60008261275a57506000610c95565b8282028284828161276757fe5b0414610c925760405162461bcd60e51b8152600401610b0c906149b9565b6000610c9283836040518060400160405280601e81526020017f536166654d6174683a207375627472616374696f6e206f766572666c6f770000815250613233565b5490565b6000610c9560028363ffffffff61325f16565b3390565b600081815260046020526040902080546001600160a01b0319166001600160a01b03841690811790915581906128178261100d565b6001600160a01b03167f8c5be1e5ebec7d5bd14f71427d1e84f3dd0314c0f7b2291e5b200ac8c7c3b92560405160405180910390a45050565b6000610c95826127c7565b6000612866826127cb565b6128825760405162461bcd60e51b8152600401610b0c906147a6565b600061288d8361100d565b9050806001600160a01b0316846001600160a01b031614806128c85750836001600160a01b03166128bd84610ae5565b6001600160a01b0316145b806128d857506128d8818561240a565b949350505050565b826001600160a01b03166128f38261100d565b6001600160a01b0316146129195760405162461bcd60e51b8152600401610b0c90614a73565b6001600160a01b03821661293f5760405162461bcd60e51b8152600401610b0c906146c5565b61294a838383610a0a565b6129556000826127e2565b6001600160a01b038316600090815260016020526040902061297d908263ffffffff61326b16565b506001600160a01b03821660009081526001602052604090206129a6908263ffffffff61327716565b506129b96002828463ffffffff61328316565b5080826001600160a01b0316846001600160a01b03167fddf252ad1be2c89b69c2b068fc378daa952ba7f163c4a11628f55a4df523b3ef60405160405180910390a4505050565b6000828152600a60205260409020612a1e908263ffffffff61273616565b15610c6657612a2b6127de565b6001600160a01b0316816001600160a01b0316837f2f8788117e7eff1d82e926ec794901d17c78024a50270940304540a733656f0d60405160405180910390a45050565b6000610c928383613299565b612a858133611624565b610a0d5760405162461bcd60e51b8152600401610b0c90614cea565b6000828152600a60205260409020612abf908263ffffffff6132de16565b15610c6657612acc6127de565b6001600160a01b0316816001600160a01b0316837ff6391f5c32d9c69d2a47ea670b442974b53935d1edc7fd64eb21e047a839171b60405160405180910390a45050565b6000808080612b1f86866132f3565b9097909650945050505050565b6000612b3984848461334f565b90505b9392505050565b610c668282604051806020016040528060008152506133ae565b80546001019055565b600e5460ff1615612b895760405162461bcd60e51b8152600401610b0c906144f4565b565b6000610c92836001600160a01b0384166133e1565b606e612bac600c6127c7565b10612b895760405162461bcd60e51b8152600401610b0c906145cc565b600f54431015612b895760405162461bcd60e51b8152600401610b0c90614514565b601454341015612c0d5760405162461bcd60e51b8152600401610b0c90614915565b601454341115612c5b5760145433906108fc90612c3190349063ffffffff61278516565b6040518115909202916000818181858888f19350505050158015612c59573d6000803e3d6000fd5b505b6000612c66836127cb565b612c705732612c79565b612c798361100d565b90506000612c863261109c565b15612c9357601554612c97565b6016545b905060006001600160a01b0383163314801590612cbd57506001600160a01b0383163214155b8015612cdb5750836001600160a01b0316836001600160a01b031614155b612ce6576000612d00565b612d00606461097b8460145461274b90919063ffffffff16565b90508015612d40576040516001600160a01b0384169082156108fc029083906000818181858888f19350505050158015612d3e573d6000803e3d6000fd5b505b601454612d5c90612d57908363ffffffff61278516565b61095d565b5050505050565b6000610c9283836040518060400160405280601881526020017f536166654d6174683a206d6f64756c6f206279207a65726f00000000000000008152506133f9565b600082820183811015610c925760405162461bcd60e51b8152600401610b0c9061462d565b600081815b8151811015612e1c576000828281518110612de657fe5b016020015160f81c905060308110801590612e02575060398111155b15612e13576030810384600a020193505b50600101612dcf565b5050919050565b600080600b60009054906101000a90046001600160a01b03166001600160a01b031663990c8f796040518163ffffffff1660e01b815260040160206040518083038186803b158015612e7457600080fd5b505afa158015612e88573d6000803e3d6000fd5b505050506040513d601f19601f82011682018060405250810190612eac9190613dbc565b8484604051602001612ec09392919061430f565b60408051808303601f1901815291905280516020909101206001600160801b0316949350505050565b612ef48484846128e0565b612f008484848461342d565b61207e5760405162461bcd60e51b8152600401610b0c9061457a565b606081612f4157506040805180820190915260018152600360fc1b6020820152610a2e565b8160005b8115612f5957600101600a82049150612f45565b60608167ffffffffffffffff81118015612f7257600080fd5b506040519080825280601f01601f191660200182016040528015612f9d576020820181803683370190505b50859350905060001982015b8315612fee57600a840660300160f81b82828060019003935081518110612fcc57fe5b60200101906001600160f81b031916908160001a905350600a84049350612fa9565b50949350505050565b60408051600380825260808201909252606091600291839160208201838036833701905050905060008085604051602001613033929190614301565b60408051601f198184030181529190528051602090910120905060005b838110156130a45780408260405160200161306c929190614301565b6040516020818303038152906040528051906020012083826001018151811061309157fe5b6020908102919091010152600101613050565b5090949350505050565b6000806130c08560018560ff1661316f565b90506000805b60188160ff161015613114576130f9868260ff16601881106130e457fe5b6020020151839060ff1663ffffffff61351216565b915081831361310c579250612b3c915050565b6001016130c6565b5050509392505050565b6000806131308560018560ff1661316f565b90506000805b60078160ff16101561311457613154868260ff16600781106130e457fe5b9150818313613167579250612b3c915050565b600101613136565b6000818313156131915760405162461bcd60e51b8152600401610b0c90614d3c565b828383036001016131a186613558565b816131a857fe5b0601949350505050565b600081836131d35760405162461bcd60e51b8152600401610b0c9190614450565b5060008385816131df57fe5b0495945050505050565b60006131f583836133e1565b61322b57508154600181810184556000848152602080822090930184905584548482528286019093526040902091909155610c95565b506000610c95565b600081848411156132575760405162461bcd60e51b8152600401610b0c9190614450565b505050900390565b6000610c9283836133e1565b6000610c92838361363b565b6000610c9283836131e9565b6000612b3984846001600160a01b038516613701565b815460009082106132bc5760405162461bcd60e51b8152600401610b0c90614463565b8260000182815481106132cb57fe5b9060005260206000200154905092915050565b6000610c92836001600160a01b03841661363b565b8154600090819083106133185760405162461bcd60e51b8152600401610b0c90614942565b600084600001848154811061332957fe5b906000526020600020906002020190508060000154816001015492509250509250929050565b6000828152600184016020526040812054828161337f5760405162461bcd60e51b8152600401610b0c9190614450565b5084600001600182038154811061339257fe5b9060005260206000209060020201600101549150509392505050565b6133b88383613798565b6133c5600084848461342d565b610a0a5760405162461bcd60e51b8152600401610b0c9061457a565b60009081526001919091016020526040902054151590565b6000818361341a5760405162461bcd60e51b8152600401610b0c9190614450565b5082848161342457fe5b06949350505050565b6000613441846001600160a01b0316613868565b61344d575060016128d8565b60606134db630a85bd0160e11b6134626127de565b88878760405160240161347894939291906143ec565b604051602081830303815290604052906001600160e01b0319166020820180516001600160e01b038381831617835250505050604051806060016040528060328152602001614fe3603291396001600160a01b038816919063ffffffff6138a116565b90506000818060200190518101906134f39190613e40565b6001600160e01b031916630a85bd0160e11b1492505050949350505050565b60008282018183128015906135275750838112155b8061353c575060008312801561353c57508381125b610c925760405162461bcd60e51b8152600401610b0c90614740565b6000600182511161357b5760405162461bcd60e51b8152600401610b0c90614664565b600060018351038360008151811061358f57fe5b602002602001015160001c816135a157fe5b06600101905060008382815181106135b557fe5b60200260200101516040516020016135cd91906142f8565b604051602081830303815290604052805190602001209050836000815181106135f257fe5b602002602001015160001c60010160001b8460008151811061361057fe5b6020026020010181815250508084838151811061362957fe5b60209081029190910101529392505050565b600081815260018301602052604081205480156136f7578354600019808301919081019060009087908390811061366e57fe5b906000526020600020015490508087600001848154811061368b57fe5b6000918252602080832090910192909255828152600189810190925260409020908401905586548790806136bb57fe5b60019003818190600052602060002001600090559055866001016000878152602001908152602001600020600090556001945050505050610c95565b6000915050610c95565b600082815260018401602052604081205480613766575050604080518082018252838152602080820184815286546001818101895560008981528481209551600290930290950191825591519082015586548684528188019092529290912055612b3c565b8285600001600183038154811061377957fe5b9060005260206000209060020201600101819055506000915050612b3c565b6001600160a01b0382166137be5760405162461bcd60e51b8152600401610b0c90614984565b6137c7816127cb565b156137e45760405162461bcd60e51b8152600401610b0c906145f6565b6137f060008383610a0a565b6001600160a01b0382166000908152600160205260409020613818908263ffffffff61327716565b5061382b6002828463ffffffff61328316565b5060405181906001600160a01b038416906000907fddf252ad1be2c89b69c2b068fc378daa952ba7f163c4a11628f55a4df523b3ef908290a45050565b6000813f7fc5d2460186f7233c927e7db2dcc703c0e500b653ca82273b7bfad8045d85a4708181148015906128d8575050151592915050565b6060612b39848460008560606138b685613868565b6138d25760405162461bcd60e51b8152600401610b0c90614bf3565b60006060866001600160a01b031685876040516138ef9190614325565b60006040518083038185875af1925050503d806000811461392c576040519150601f19603f3d011682016040523d82523d6000602084013e613931565b606091505b509150915081156139455791506128d89050565b8051156139555780518082602001fd5b8360405162461bcd60e51b8152600401610b0c9190614450565b6040805161020081018252600080825260208201819052918101829052606081018290526080810182905260a0810182905260c0810182905260e08101829052610100810182905261012081018290526101408101829052610160810182905261018081018290526101a081018290526101c081018290526101e081019190915290565b60405180608001604052806004906020820280368337509192915050565b60405180604001604052806002906020820280368337509192915050565b60405180606001604052806003906020820280368337509192915050565b6040518060e001604052806007906020820280368337509192915050565b6040518061030001604052806018906020820280368337509192915050565b80356001600160a01b0381168114610c9557600080fd5b8060608101831015610c9557600080fd5b8060408101831015610c9557600080fd5b600082601f830112613ad3578081fd5b613add6040614f47565b9050808284604085011115613af157600080fd5b6000805b6002811015613b2357823560ff81168114613b0e578283fd5b84526020938401939290920191600101613af5565b5050505092915050565b8060808101831015610c9557600080fd5b600082601f830112613b4e578081fd5b613b586080614f47565b9050808284608085011115613b6c57600080fd5b60005b6004811015613b9757613b828683613bd9565b83526020928301929190910190600101613b6f565b50505092915050565b80358015158114610c9557600080fd5b80356001600160801b0381168114610c9557600080fd5b803561ffff81168114610c9557600080fd5b803560ff81168114610c9557600080fd5b600060208284031215613bfb578081fd5b610c928383613a8a565b60008060408385031215613c17578081fd5b613c218484613a8a565b9150613c308460208501613a8a565b90509250929050565b600080600060608486031215613c4d578081fd5b8335613c5881614fb7565b92506020840135613c6881614fb7565b929592945050506040919091013590565b60008060008060808587031215613c8e578182fd5b613c988686613a8a565b93506020613ca887828801613a8a565b935060408601359250606086013567ffffffffffffffff80821115613ccb578384fd5b81880189601f820112613cdc578485fd5b8035925081831115613cec578485fd5b613cfe601f8401601f19168501614f47565b91508282528984848301011115613d13578485fd5b8284820185840137509081019091019190915292959194509250565b60008060408385031215613d41578182fd5b613d4b8484613a8a565b9150613c308460208501613ba0565b60008060408385031215613d6c578182fd5b613d768484613a8a565b946020939093013593505050565b600060208284031215613d95578081fd5b81358015158114610c92578182fd5b600060208284031215613db5578081fd5b5035919050565b600060208284031215613dcd578081fd5b5051919050565b60008060408385031215613de6578182fd5b823591506020830135613df881614fb7565b809150509250929050565b60008060408385031215613e15578182fd5b50508035926020909101359150565b600060208284031215613e35578081fd5b8135610c9281614fcc565b600060208284031215613e51578081fd5b8151610c9281614fcc565b6000806000806000806000806000806101e08b8d031215613e7b578788fd5b8a3567ffffffffffffffff80821115613e9257898afd5b818d018e601f820112613ea3578a8bfd5b8035925081831115613eb3578a8bfd5b8e6020848301011115613ec4578a8bfd5b602081019c50505080995050613edd8c60208d01613bd9565b9750613eec8c60408d01613bd9565b9650613efb8c60608d01613aa1565b9550613f0a8c60c08d01613b2d565b9450613f1a8c6101408d01613ab2565b9350613f2a8c6101808d01613bd9565b9250613f3a8c6101a08d01613a8a565b91506101c08b013590509295989b9194979a5092959850565b600080828403610220811215613f67578283fd5b61020080821215613f76578384fd5b613f7f81614f47565b9150613f8b8686613bb0565b8252613f9a8660208701613bc7565b6020830152613fac8660408701613bd9565b6040830152613fbe8660608701613bd9565b6060830152613fd08660808701613bd9565b6080830152613fe28660a08701613bd9565b60a0830152613ff48660c08701613bd9565b60c08301526140068660e08701613bd9565b60e083015261010061401a87828801613bd9565b9083015261012061402d87878301613bd9565b9083015261014061404087878301613bd9565b9083015261016061405387878301613bd9565b9083015261018061406687878301613bd9565b908301526101a061407987878301613bd9565b908301526101c061408c87878301613bd9565b908301526101e061409f87878301613bd9565b90830152909593013593505050565b6000806000806000806000806101c0898b0312156140ca578182fd5b6140d48a8a613bb0565b97506140e38a60208b01613bd9565b96506140f28a60408b01613bd9565b95506141018a60608b01613aa1565b94506141108a60c08b01613b2d565b93506141208a6101408b01613ab2565b92506141308a6101808b01613bd9565b91506101a089013590509295985092959890939650565b600060208284031215614158578081fd5b813561ffff81168114610c92578182fd5b6000806080838503121561417b578182fd5b82359150613c308460208501613aa1565b60006020828403121561419d578081fd5b610c928383613bd9565b60008060008060008061018087890312156141c0578384fd5b6141ca8888613bd9565b955060206141da89828a01613bd9565b955088605f8901126141ea578485fd5b60036141fd6141f882614f6e565b614f47565b8060408b0160a08c018d81111561421257898afd5b895b85811015614238576142268f84613bc7565b85529386019391860191600101614214565b508299506142468e82613b3e565b985050505050505061425c886101208901613ac3565b915061426c886101608901613ba0565b90509295509295509295565b8060005b600381101561207e57815161ffff1684526020938401939091019060010161427c565b8060005b600481101561207e57815160ff168452602093840193909101906001016142a3565b600081518084526142dd816020860160208601614f8b565b601f01601f19169290920160200192915050565b60ff169052565b90815260200190565b918252602082015260400190565b9283526020830191909152604082015260600190565b60008251614337818460208701614f8b565b9190910192915050565b60008084546001808216600081146143605760018114614377576143a6565b60ff198316865260028304607f16860193506143a6565b600283048886526020808720875b8381101561439e5781548a820152908501908201614385565b505050860193505b50505083516143b9818360208801614f8b565b01949350505050565b6941444d494e5f524f4c4560b01b8152600a0190565b6001600160a01b0391909116815260200190565b6001600160a01b038581168252841660208201526040810183905260806060820181905260009061441f908301846142c5565b9695505050505050565b60808101610c95828461429f565b901515815260200190565b60009190910b815260200190565b600060208252610c9260208301846142c5565b60208082526022908201527f456e756d657261626c655365743a20696e646578206f7574206f6620626f756e604082015261647360f01b606082015260800190565b6020808252602f908201527f416363657373436f6e74726f6c3a2073656e646572206d75737420626520616e60408201526e0818591b5a5b881d1bc819dc985b9d608a1b606082015260800190565b60208082526006908201526514185d5cd95960d21b604082015260600190565b60208082526004908201526315d0525560e21b604082015260600190565b6020808252600790820152664e4f204d4f524560c81b604082015260600190565b6020808252600d908201526c34b73b30b634b21031b7b637b960991b604082015260600190565b60208082526032908201527f4552433732313a207472616e7366657220746f206e6f6e20455243373231526560408201527131b2b4bb32b91034b6b83632b6b2b73a32b960711b606082015260800190565b60208082526010908201526f20a92a1029a0a6229024a99027ab22a960811b604082015260600190565b6020808252601c908201527f4552433732313a20746f6b656e20616c7265616479206d696e74656400000000604082015260600190565b6020808252601b908201527f536166654d6174683a206164646974696f6e206f766572666c6f770000000000604082015260600190565b60208082526019908201527f52616e646f6d2e6e6578743a20696e76616c696420706f6f6c00000000000000604082015260600190565b60208082526010908201526f696e76616c6964206861746368696e6760801b604082015260600190565b60208082526024908201527f4552433732313a207472616e7366657220746f20746865207a65726f206164646040820152637265737360e01b606082015260800190565b60208082526019908201527f4552433732313a20617070726f766520746f2063616c6c657200000000000000604082015260600190565b60208082526021908201527f5369676e6564536166654d6174683a206164646974696f6e206f766572666c6f6040820152607760f81b606082015260800190565b6020808252600b908201526a496e76616c696420426b6760a81b604082015260600190565b6020808252602c908201527f4552433732313a206f70657261746f7220717565727920666f72206e6f6e657860408201526b34b9ba32b73a103a37b5b2b760a11b606082015260800190565b60208082526030908201527f416363657373436f6e74726f6c3a2073656e646572206d75737420626520616e60408201526f2061646d696e20746f207265766f6b6560801b606082015260800190565b60208082526038908201527f4552433732313a20617070726f76652063616c6c6572206973206e6f74206f7760408201527f6e6572206e6f7220617070726f76656420666f7220616c6c0000000000000000606082015260800190565b6020808252602a908201527f4552433732313a2062616c616e636520717565727920666f7220746865207a65604082015269726f206164647265737360b01b606082015260800190565b602080825260129082015271496e7375662e205065726d697373696f6e7360701b604082015260600190565b6020808252601390820152721a5b9cdd599a58da595b9d081c185e5b595b9d606a1b604082015260600190565b60208082526022908201527f456e756d657261626c654d61703a20696e646578206f7574206f6620626f756e604082015261647360f01b606082015260800190565b6020808252818101527f4552433732313a206d696e7420746f20746865207a65726f2061646472657373604082015260600190565b60208082526021908201527f536166654d6174683a206d756c7469706c69636174696f6e206f766572666c6f6040820152607760f81b606082015260800190565b6020808252602c908201527f4552433732313a20617070726f76656420717565727920666f72206e6f6e657860408201526b34b9ba32b73a103a37b5b2b760a11b606082015260800190565b6020808252601390820152721a5b9d985b1a59081cda185c194818dbdd5b9d606a1b604082015260600190565b60208082526029908201527f4552433732313a207472616e73666572206f6620746f6b656e2074686174206960408201526839903737ba1037bbb760b91b606082015260800190565b6020808252602f908201527f4552433732314d657461646174613a2055524920717565727920666f72206e6f60408201526e3732bc34b9ba32b73a103a37b5b2b760891b606082015260800190565b60208082526010908201526f24b73b30b634b210223ab930ba34b7b760811b604082015260600190565b60208082526012908201527134b73b30b634b21039b0ba3ab930ba34b7b760711b604082015260600190565b60208082526021908201527f4552433732313a20617070726f76616c20746f2063757272656e74206f776e656040820152603960f91b606082015260800190565b60208082526031908201527f4552433732313a207472616e736665722063616c6c6572206973206e6f74206f6040820152701ddb995c881b9bdc88185c1c1c9bdd9959607a1b606082015260800190565b6020808252601d908201527f416464726573733a2063616c6c20746f206e6f6e2d636f6e7472616374000000604082015260600190565b6020808252600e908201526d1a5b9d985b1a59081cdc1c99585960921b604082015260600190565b6020808252600490820152631554d15160e21b604082015260600190565b6020808252600490820152634e4f504560e01b604082015260600190565b6020808252601490820152734d7573742062652066757475726520626c6f636b60601b604082015260600190565b602080825260149082015273696e76616c6964206865696768742072616e676560601b604082015260600190565b60208082526032908201527f43616c6c657220646f736e27742068617665207065726d697373696f6e20746f604082015271103ab9b2903a3434b990333ab731ba34b7b760711b606082015260800190565b6020808252818101527f52616e646f6d2e756e69666f726d3a20696e76616c696420696e74657276616c604082015260600190565b6020808252601690820152750c1e0c0c08149958da5c1a595b9d08125b9d985b1a5960521b604082015260600190565b6020808252602f908201527f416363657373436f6e74726f6c3a2063616e206f6e6c792072656e6f756e636560408201526e103937b632b9903337b91039b2b63360891b606082015260800190565b602080825260119082015270696e76616c6964206c696768746e65737360781b604082015260600190565b602080825260139082015272696e76616c69642077696474682072616e676560681b604082015260600190565b6001600160801b0391909116815260200190565b61ffff91909116815260200190565b6000610200820190508b8252602060ff8c168184015260ff8b166040840152614e97606084018b61429f565b60e083018960005b6002811015614ec357614eb38383516142f1565b9183019190830190600101614e9f565b50505050614ed56101208301886142f1565b614ee3610140830187614278565b614ef16101a08301866142f1565b614eff6101c08301856142f1565b614f0d6101e08301846142f1565b9b9a5050505050505050505050565b60ff91909116815260200190565b60ff93841681529183166020830152909116604082015260600190565b60405181810167ffffffffffffffff81118282101715614f6657600080fd5b604052919050565b600067ffffffffffffffff821115614f84578081fd5b5060200290565b60005b83811015614fa6578181015183820152602001614f8e565b8381111561207e5750506000910152565b6001600160a01b0381168114610a0d57600080fd5b6001600160e01b031981168114610a0d57600080fdfe4552433732313a207472616e7366657220746f206e6f6e20455243373231526563656976657220696d706c656d656e7465724552433732313a206f776e657220717565727920666f72206e6f6e6578697374656e7420746f6b656ea26469706673582212201c5007c5ff565e172a78a6ff18f73a1ccd9a493eae643d1babfd378b6d04ed5a64736f6c63430006080033",
  "linkReferences": {},
  "deployedLinkReferences": {}
}