{
  "_format": "hh-sol-artifact-1",
  "contractName": "TinyBoxesStore",
  "sourceName": "contracts/TinyBoxesStore.sol",
  "abi": [
    {
      "inputs": [
        {
          "internalType": "address",
          "name": "entropySourceAddress",
          "type": "address"
        }
      ],
      "stateMutability": "nonpayable",
      "type": "constructor"
    },
    {
      "anonymous": false,
      "inputs": [
        {
          "indexed": true,
          "internalType": "address",
          "name": "owner",
          "type": "address"
        },
        {
          "indexed": true,
          "internalType": "address",
          "name": "approved",
          "type": "address"
        },
        {
          "indexed": true,
          "internalType": "uint256",
          "name": "tokenId",
          "type": "uint256"
        }
      ],
      "name": "Approval",
      "type": "event"
    },
    {
      "anonymous": false,
      "inputs": [
        {
          "indexed": true,
          "internalType": "address",
          "name": "owner",
          "type": "address"
        },
        {
          "indexed": true,
          "internalType": "address",
          "name": "operator",
          "type": "address"
        },
        {
          "indexed": false,
          "internalType": "bool",
          "name": "approved",
          "type": "bool"
        }
      ],
      "name": "ApprovalForAll",
      "type": "event"
    },
    {
      "anonymous": false,
      "inputs": [
        {
          "indexed": true,
          "internalType": "bytes32",
          "name": "role",
          "type": "bytes32"
        },
        {
          "indexed": true,
          "internalType": "bytes32",
          "name": "previousAdminRole",
          "type": "bytes32"
        },
        {
          "indexed": true,
          "internalType": "bytes32",
          "name": "newAdminRole",
          "type": "bytes32"
        }
      ],
      "name": "RoleAdminChanged",
      "type": "event"
    },
    {
      "anonymous": false,
      "inputs": [
        {
          "indexed": true,
          "internalType": "bytes32",
          "name": "role",
          "type": "bytes32"
        },
        {
          "indexed": true,
          "internalType": "address",
          "name": "account",
          "type": "address"
        },
        {
          "indexed": true,
          "internalType": "address",
          "name": "sender",
          "type": "address"
        }
      ],
      "name": "RoleGranted",
      "type": "event"
    },
    {
      "anonymous": false,
      "inputs": [
        {
          "indexed": true,
          "internalType": "bytes32",
          "name": "role",
          "type": "bytes32"
        },
        {
          "indexed": true,
          "internalType": "address",
          "name": "account",
          "type": "address"
        },
        {
          "indexed": true,
          "internalType": "address",
          "name": "sender",
          "type": "address"
        }
      ],
      "name": "RoleRevoked",
      "type": "event"
    },
    {
      "anonymous": false,
      "inputs": [
        {
          "indexed": true,
          "internalType": "address",
          "name": "from",
          "type": "address"
        },
        {
          "indexed": true,
          "internalType": "address",
          "name": "to",
          "type": "address"
        },
        {
          "indexed": true,
          "internalType": "uint256",
          "name": "tokenId",
          "type": "uint256"
        }
      ],
      "name": "Transfer",
      "type": "event"
    },
    {
      "inputs": [],
      "name": "ADMIN_ROLE",
      "outputs": [
        {
          "internalType": "bytes32",
          "name": "",
          "type": "bytes32"
        }
      ],
      "stateMutability": "view",
      "type": "function"
    },
    {
      "inputs": [],
      "name": "ANIMATION_COUNT",
      "outputs": [
        {
          "internalType": "uint8",
          "name": "",
          "type": "uint8"
        }
      ],
      "stateMutability": "view",
      "type": "function"
    },
    {
      "inputs": [],
      "name": "ANIMATOR_ROLE",
      "outputs": [
        {
          "internalType": "bytes32",
          "name": "",
          "type": "bytes32"
        }
      ],
      "stateMutability": "view",
      "type": "function"
    },
    {
      "inputs": [],
      "name": "ARTIST_ROLE",
      "outputs": [
        {
          "internalType": "bytes32",
          "name": "",
          "type": "bytes32"
        }
      ],
      "stateMutability": "view",
      "type": "function"
    },
    {
      "inputs": [],
      "name": "DEFAULT_ADMIN_ROLE",
      "outputs": [
        {
          "internalType": "bytes32",
          "name": "",
          "type": "bytes32"
        }
      ],
      "stateMutability": "view",
      "type": "function"
    },
    {
      "inputs": [],
      "name": "SCHEME_COUNT",
      "outputs": [
        {
          "internalType": "uint8",
          "name": "",
          "type": "uint8"
        }
      ],
      "stateMutability": "view",
      "type": "function"
    },
    {
      "inputs": [],
      "name": "TOKEN_LIMIT",
      "outputs": [
        {
          "internalType": "uint16",
          "name": "",
          "type": "uint16"
        }
      ],
      "stateMutability": "view",
      "type": "function"
    },
    {
      "inputs": [
        {
          "internalType": "address",
          "name": "to",
          "type": "address"
        },
        {
          "internalType": "uint256",
          "name": "tokenId",
          "type": "uint256"
        }
      ],
      "name": "approve",
      "outputs": [],
      "stateMutability": "nonpayable",
      "type": "function"
    },
    {
      "inputs": [
        {
          "internalType": "address",
          "name": "owner",
          "type": "address"
        }
      ],
      "name": "balanceOf",
      "outputs": [
        {
          "internalType": "uint256",
          "name": "",
          "type": "uint256"
        }
      ],
      "stateMutability": "view",
      "type": "function"
    },
    {
      "inputs": [],
      "name": "baseURI",
      "outputs": [
        {
          "internalType": "string",
          "name": "",
          "type": "string"
        }
      ],
      "stateMutability": "view",
      "type": "function"
    },
    {
      "inputs": [],
      "name": "blockStart",
      "outputs": [
        {
          "internalType": "uint256",
          "name": "",
          "type": "uint256"
        }
      ],
      "stateMutability": "view",
      "type": "function"
    },
    {
      "inputs": [
        {
          "internalType": "uint256",
          "name": "id",
          "type": "uint256"
        },
        {
          "internalType": "uint8[3]",
          "name": "settings",
          "type": "uint8[3]"
        }
      ],
      "name": "changeSettings",
      "outputs": [],
      "stateMutability": "nonpayable",
      "type": "function"
    },
    {
      "inputs": [
        {
          "internalType": "string",
          "name": "_seed",
          "type": "string"
        },
        {
          "internalType": "uint8",
          "name": "shapes",
          "type": "uint8"
        },
        {
          "internalType": "uint8",
          "name": "hatching",
          "type": "uint8"
        },
        {
          "internalType": "uint16[3]",
          "name": "color",
          "type": "uint16[3]"
        },
        {
          "internalType": "uint8[4]",
          "name": "size",
          "type": "uint8[4]"
        },
        {
          "internalType": "uint8[2]",
          "name": "spacing",
          "type": "uint8[2]"
        },
        {
          "internalType": "uint8",
          "name": "mirroring",
          "type": "uint8"
        },
        {
          "internalType": "address",
          "name": "recipient",
          "type": "address"
        },
        {
          "internalType": "uint256",
          "name": "referalID",
          "type": "uint256"
        }
      ],
      "name": "createTo",
      "outputs": [
        {
          "internalType": "uint256",
          "name": "",
          "type": "uint256"
        }
      ],
      "stateMutability": "payable",
      "type": "function"
    },
    {
      "inputs": [
        {
          "internalType": "uint128",
          "name": "seed",
          "type": "uint128"
        },
        {
          "internalType": "uint8",
          "name": "shapes",
          "type": "uint8"
        },
        {
          "internalType": "uint8",
          "name": "hatching",
          "type": "uint8"
        },
        {
          "internalType": "uint16[3]",
          "name": "color",
          "type": "uint16[3]"
        },
        {
          "internalType": "uint8[4]",
          "name": "size",
          "type": "uint8[4]"
        },
        {
          "internalType": "uint8[2]",
          "name": "spacing",
          "type": "uint8[2]"
        },
        {
          "internalType": "uint8",
          "name": "mirroring",
          "type": "uint8"
        },
        {
          "internalType": "address",
          "name": "recipient",
          "type": "address"
        },
        {
          "internalType": "uint256",
          "name": "id",
          "type": "uint256"
        }
      ],
      "name": "createWithPromo",
      "outputs": [
        {
          "internalType": "uint256",
          "name": "",
          "type": "uint256"
        }
      ],
      "stateMutability": "nonpayable",
      "type": "function"
    },
    {
      "inputs": [],
      "name": "currentPhase",
      "outputs": [
        {
          "internalType": "uint8",
          "name": "",
          "type": "uint8"
        }
      ],
      "stateMutability": "view",
      "type": "function"
    },
    {
      "inputs": [
        {
          "internalType": "uint256",
          "name": "tokenId",
          "type": "uint256"
        }
      ],
      "name": "getApproved",
      "outputs": [
        {
          "internalType": "address",
          "name": "",
          "type": "address"
        }
      ],
      "stateMutability": "view",
      "type": "function"
    },
    {
      "inputs": [
        {
          "internalType": "bytes32",
          "name": "role",
          "type": "bytes32"
        }
      ],
      "name": "getRoleAdmin",
      "outputs": [
        {
          "internalType": "bytes32",
          "name": "",
          "type": "bytes32"
        }
      ],
      "stateMutability": "view",
      "type": "function"
    },
    {
      "inputs": [
        {
          "internalType": "bytes32",
          "name": "role",
          "type": "bytes32"
        },
        {
          "internalType": "uint256",
          "name": "index",
          "type": "uint256"
        }
      ],
      "name": "getRoleMember",
      "outputs": [
        {
          "internalType": "address",
          "name": "",
          "type": "address"
        }
      ],
      "stateMutability": "view",
      "type": "function"
    },
    {
      "inputs": [
        {
          "internalType": "bytes32",
          "name": "role",
          "type": "bytes32"
        }
      ],
      "name": "getRoleMemberCount",
      "outputs": [
        {
          "internalType": "uint256",
          "name": "",
          "type": "uint256"
        }
      ],
      "stateMutability": "view",
      "type": "function"
    },
    {
      "inputs": [
        {
          "internalType": "bytes32",
          "name": "role",
          "type": "bytes32"
        },
        {
          "internalType": "address",
          "name": "account",
          "type": "address"
        }
      ],
      "name": "grantRole",
      "outputs": [],
      "stateMutability": "nonpayable",
      "type": "function"
    },
    {
      "inputs": [
        {
          "internalType": "bytes32",
          "name": "role",
          "type": "bytes32"
        },
        {
          "internalType": "address",
          "name": "account",
          "type": "address"
        }
      ],
      "name": "hasRole",
      "outputs": [
        {
          "internalType": "bool",
          "name": "",
          "type": "bool"
        }
      ],
      "stateMutability": "view",
      "type": "function"
    },
    {
      "inputs": [
        {
          "internalType": "address",
          "name": "owner",
          "type": "address"
        },
        {
          "internalType": "address",
          "name": "operator",
          "type": "address"
        }
      ],
      "name": "isApprovedForAll",
      "outputs": [
        {
          "internalType": "bool",
          "name": "",
          "type": "bool"
        }
      ],
      "stateMutability": "view",
      "type": "function"
    },
    {
      "inputs": [
        {
          "internalType": "address",
          "name": "to",
          "type": "address"
        }
      ],
      "name": "mintPromo",
      "outputs": [],
      "stateMutability": "nonpayable",
      "type": "function"
    },
    {
      "inputs": [],
      "name": "name",
      "outputs": [
        {
          "internalType": "string",
          "name": "",
          "type": "string"
        }
      ],
      "stateMutability": "view",
      "type": "function"
    },
    {
      "inputs": [
        {
          "internalType": "uint256",
          "name": "tokenId",
          "type": "uint256"
        }
      ],
      "name": "ownerOf",
      "outputs": [
        {
          "internalType": "address",
          "name": "",
          "type": "address"
        }
      ],
      "stateMutability": "view",
      "type": "function"
    },
    {
      "inputs": [],
      "name": "paused",
      "outputs": [
        {
          "internalType": "bool",
          "name": "",
          "type": "bool"
        }
      ],
      "stateMutability": "view",
      "type": "function"
    },
    {
      "inputs": [],
      "name": "phaseCountdown",
      "outputs": [
        {
          "internalType": "uint256",
          "name": "",
          "type": "uint256"
        }
      ],
      "stateMutability": "view",
      "type": "function"
    },
    {
      "inputs": [],
      "name": "phaseCountdownTime",
      "outputs": [
        {
          "internalType": "uint256",
          "name": "",
          "type": "uint256"
        }
      ],
      "stateMutability": "view",
      "type": "function"
    },
    {
      "inputs": [],
      "name": "phaseLen",
      "outputs": [
        {
          "internalType": "uint256",
          "name": "",
          "type": "uint256"
        }
      ],
      "stateMutability": "view",
      "type": "function"
    },
    {
      "inputs": [],
      "name": "price",
      "outputs": [
        {
          "internalType": "uint256",
          "name": "",
          "type": "uint256"
        }
      ],
      "stateMutability": "view",
      "type": "function"
    },
    {
      "inputs": [
        {
          "internalType": "uint256",
          "name": "id",
          "type": "uint256"
        }
      ],
      "name": "readSettings",
      "outputs": [
        {
          "internalType": "uint8",
          "name": "bkg",
          "type": "uint8"
        },
        {
          "internalType": "uint8",
          "name": "duration",
          "type": "uint8"
        },
        {
          "internalType": "uint8",
          "name": "options",
          "type": "uint8"
        }
      ],
      "stateMutability": "view",
      "type": "function"
    },
    {
      "inputs": [],
      "name": "referalNewPercent",
      "outputs": [
        {
          "internalType": "uint256",
          "name": "",
          "type": "uint256"
        }
      ],
      "stateMutability": "view",
      "type": "function"
    },
    {
      "inputs": [],
      "name": "referalPercent",
      "outputs": [
        {
          "internalType": "uint256",
          "name": "",
          "type": "uint256"
        }
      ],
      "stateMutability": "view",
      "type": "function"
    },
    {
      "inputs": [
        {
          "internalType": "bytes32",
          "name": "role",
          "type": "bytes32"
        },
        {
          "internalType": "address",
          "name": "account",
          "type": "address"
        }
      ],
      "name": "renounceRole",
      "outputs": [],
      "stateMutability": "nonpayable",
      "type": "function"
    },
    {
      "inputs": [
        {
          "internalType": "bytes32",
          "name": "role",
          "type": "bytes32"
        },
        {
          "internalType": "address",
          "name": "account",
          "type": "address"
        }
      ],
      "name": "revokeRole",
      "outputs": [],
      "stateMutability": "nonpayable",
      "type": "function"
    },
    {
      "inputs": [
        {
          "internalType": "address",
          "name": "from",
          "type": "address"
        },
        {
          "internalType": "address",
          "name": "to",
          "type": "address"
        },
        {
          "internalType": "uint256",
          "name": "tokenId",
          "type": "uint256"
        }
      ],
      "name": "safeTransferFrom",
      "outputs": [],
      "stateMutability": "nonpayable",
      "type": "function"
    },
    {
      "inputs": [
        {
          "internalType": "address",
          "name": "from",
          "type": "address"
        },
        {
          "internalType": "address",
          "name": "to",
          "type": "address"
        },
        {
          "internalType": "uint256",
          "name": "tokenId",
          "type": "uint256"
        },
        {
          "internalType": "bytes",
          "name": "_data",
          "type": "bytes"
        }
      ],
      "name": "safeTransferFrom",
      "outputs": [],
      "stateMutability": "nonpayable",
      "type": "function"
    },
    {
      "inputs": [
        {
          "internalType": "address",
          "name": "operator",
          "type": "address"
        },
        {
          "internalType": "bool",
          "name": "approved",
          "type": "bool"
        }
      ],
      "name": "setApprovalForAll",
      "outputs": [],
      "stateMutability": "nonpayable",
      "type": "function"
    },
    {
      "inputs": [
        {
          "internalType": "bool",
          "name": "state",
          "type": "bool"
        }
      ],
      "name": "setPause",
      "outputs": [],
      "stateMutability": "nonpayable",
      "type": "function"
    },
    {
      "inputs": [
        {
          "internalType": "address",
          "name": "_promoTokenAddress",
          "type": "address"
        }
      ],
      "name": "setPromo",
      "outputs": [],
      "stateMutability": "nonpayable",
      "type": "function"
    },
    {
      "inputs": [
        {
          "internalType": "address",
          "name": "rand",
          "type": "address"
        }
      ],
      "name": "setRandom",
      "outputs": [],
      "stateMutability": "nonpayable",
      "type": "function"
    },
    {
      "inputs": [
        {
          "internalType": "uint256",
          "name": "startBlock",
          "type": "uint256"
        }
      ],
      "name": "startCoundown",
      "outputs": [],
      "stateMutability": "nonpayable",
      "type": "function"
    },
    {
      "inputs": [
        {
          "internalType": "bytes4",
          "name": "interfaceId",
          "type": "bytes4"
        }
      ],
      "name": "supportsInterface",
      "outputs": [
        {
          "internalType": "bool",
          "name": "",
          "type": "bool"
        }
      ],
      "stateMutability": "view",
      "type": "function"
    },
    {
      "inputs": [],
      "name": "symbol",
      "outputs": [
        {
          "internalType": "string",
          "name": "",
          "type": "string"
        }
      ],
      "stateMutability": "view",
      "type": "function"
    },
    {
      "inputs": [],
      "name": "testRandom",
      "outputs": [
        {
          "internalType": "bytes32",
          "name": "",
          "type": "bytes32"
        }
      ],
      "stateMutability": "view",
      "type": "function"
    },
    {
      "inputs": [
        {
          "internalType": "uint256",
          "name": "index",
          "type": "uint256"
        }
      ],
      "name": "tokenByIndex",
      "outputs": [
        {
          "internalType": "uint256",
          "name": "",
          "type": "uint256"
        }
      ],
      "stateMutability": "view",
      "type": "function"
    },
    {
      "inputs": [
        {
          "internalType": "uint256",
          "name": "_id",
          "type": "uint256"
        }
      ],
      "name": "tokenData",
      "outputs": [
        {
          "internalType": "uint256",
          "name": "animation",
          "type": "uint256"
        },
        {
          "internalType": "uint8",
          "name": "shapes",
          "type": "uint8"
        },
        {
          "internalType": "uint8",
          "name": "hatching",
          "type": "uint8"
        },
        {
          "internalType": "uint8[4]",
          "name": "size",
          "type": "uint8[4]"
        },
        {
          "internalType": "uint8[2]",
          "name": "spacing",
          "type": "uint8[2]"
        },
        {
          "internalType": "uint8",
          "name": "mirroring",
          "type": "uint8"
        },
        {
          "internalType": "uint16[3]",
          "name": "color",
          "type": "uint16[3]"
        },
        {
          "internalType": "uint8",
          "name": "contrast",
          "type": "uint8"
        },
        {
          "internalType": "uint8",
          "name": "shades",
          "type": "uint8"
        },
        {
          "internalType": "uint8",
          "name": "scheme",
          "type": "uint8"
        }
      ],
      "stateMutability": "view",
      "type": "function"
    },
    {
      "inputs": [
        {
          "internalType": "address",
          "name": "owner",
          "type": "address"
        },
        {
          "internalType": "uint256",
          "name": "index",
          "type": "uint256"
        }
      ],
      "name": "tokenOfOwnerByIndex",
      "outputs": [
        {
          "internalType": "uint256",
          "name": "",
          "type": "uint256"
        }
      ],
      "stateMutability": "view",
      "type": "function"
    },
    {
      "inputs": [
        {
          "internalType": "uint256",
          "name": "id",
          "type": "uint256"
        }
      ],
      "name": "tokenRandomness",
      "outputs": [
        {
          "internalType": "uint128",
          "name": "",
          "type": "uint128"
        }
      ],
      "stateMutability": "view",
      "type": "function"
    },
    {
      "inputs": [
        {
          "internalType": "uint256",
          "name": "tokenId",
          "type": "uint256"
        }
      ],
      "name": "tokenURI",
      "outputs": [
        {
          "internalType": "string",
          "name": "",
          "type": "string"
        }
      ],
      "stateMutability": "view",
      "type": "function"
    },
    {
      "inputs": [],
      "name": "totalSupply",
      "outputs": [
        {
          "internalType": "uint256",
          "name": "",
          "type": "uint256"
        }
      ],
      "stateMutability": "view",
      "type": "function"
    },
    {
      "inputs": [
        {
          "internalType": "address",
          "name": "from",
          "type": "address"
        },
        {
          "internalType": "address",
          "name": "to",
          "type": "address"
        },
        {
          "internalType": "uint256",
          "name": "tokenId",
          "type": "uint256"
        }
      ],
      "name": "transferFrom",
      "outputs": [],
      "stateMutability": "nonpayable",
      "type": "function"
    },
    {
      "inputs": [
        {
          "internalType": "uint256",
          "name": "id",
          "type": "uint256"
        }
      ],
      "name": "trueID",
      "outputs": [
        {
          "internalType": "int8",
          "name": "",
          "type": "int8"
        }
      ],
      "stateMutability": "pure",
      "type": "function"
    },
    {
      "stateMutability": "payable",
      "type": "receive"
    }
  ],
  "bytecode": "0x60806040526001600c60006101000a81548160ff021916908315150217905550600b60ff16606e61ffff16816200003257fe5b0461ffff16600e556078600f556200005b600f80546200030760201b620033ba1790919060201c565b6010556001601455600a601555600f601655737a832c86002323a5de3a317b3281eb88ec3b2c00601760006101000a81548173ffffffffffffffffffffffffffffffffffffffff021916908373ffffffffffffffffffffffffffffffffffffffff1602179055507363a9dbce75413036b2b778e670aabd4493aaf9f3601860006101000a81548173ffffffffffffffffffffffffffffffffffffffff021916908373ffffffffffffffffffffffffffffffffffffffff1602179055503480156200012457600080fd5b50604051620089ee380380620089ee83398181016040528101906200014a9190620006f3565b6040518060400160405280600981526020017f54696e79426f78657300000000000000000000000000000000000000000000008152506040518060400160405280600681526020017f5b235d5b235d0000000000000000000000000000000000000000000000000000815250620001ce6301ffc9a760e01b6200035960201b60201c565b8160069080519060200190620001e69291906200062d565b508060079080519060200190620001ff9291906200062d565b50620002186380ac58cd60e01b6200035960201b60201c565b62000230635b5e139f60e01b6200035960201b60201c565b6200024863780e9d6360e01b6200035960201b60201c565b5050620002716040516200025c9062000896565b6040518091039020336200043160201b60201c565b6200029860405162000283906200087f565b6040518091039020336200043160201b60201c565b620002bf604051620002aa9062000868565b6040518091039020336200043160201b60201c565b80601260006101000a81548173ffffffffffffffffffffffffffffffffffffffff021916908373ffffffffffffffffffffffffffffffffffffffff16021790555050620009af565b60006200035183836040518060400160405280601a81526020017f536166654d6174683a206469766973696f6e206279207a65726f0000000000008152506200044760201b60201c565b905092915050565b63ffffffff60e01b817bffffffffffffffffffffffffffffffffffffffffffffffffffffffff19161415620003c5576040517f08c379a0000000000000000000000000000000000000000000000000000000008152600401620003bc90620008d1565b60405180910390fd5b6001600080837bffffffffffffffffffffffffffffffffffffffffffffffffffffffff19167bffffffffffffffffffffffffffffffffffffffffffffffffffffffff1916815260200190815260200160002060006101000a81548160ff02191690831515021790555050565b620004438282620004ac60201b60201c565b5050565b6000808311829062000491576040517f08c379a0000000000000000000000000000000000000000000000000000000008152600401620004889190620008ad565b60405180910390fd5b5060008385816200049e57fe5b049050809150509392505050565b620004db81600a60008581526020019081526020016000206000016200055060201b620034041790919060201c565b156200054c57620004f16200058860201b60201c565b73ffffffffffffffffffffffffffffffffffffffff168173ffffffffffffffffffffffffffffffffffffffff16837f2f8788117e7eff1d82e926ec794901d17c78024a50270940304540a733656f0d60405160405180910390a45b5050565b600062000580836000018373ffffffffffffffffffffffffffffffffffffffff1660001b6200059060201b60201c565b905092915050565b600033905090565b6000620005a483836200060a60201b60201c565b620005ff57826000018290806001815401808255809150506001900390600052602060002001600090919091909150558260000180549050836001016000848152602001908152602001600020819055506001905062000604565b600090505b92915050565b600080836001016000848152602001908152602001600020541415905092915050565b828054600181600116156101000203166002900490600052602060002090601f016020900481019282601f106200067057805160ff1916838001178555620006a1565b82800160010185558215620006a1579182015b82811115620006a057825182559160200191906001019062000683565b5b509050620006b09190620006b4565b5090565b620006d991905b80821115620006d5576000816000905550600101620006bb565b5090565b90565b600081519050620006ed8162000995565b92915050565b6000602082840312156200070657600080fd5b60006200071684828501620006dc565b91505092915050565b60006200072c82620008f3565b620007388185620008fe565b93506200074a8185602086016200094e565b620007558162000984565b840191505092915050565b60006200076f601c83620008fe565b91507f4552433136353a20696e76616c696420696e74657266616365206964000000006000830152602082019050919050565b6000620007b1600d836200090f565b91507f414e494d41544f525f524f4c45000000000000000000000000000000000000006000830152600d82019050919050565b6000620007f3600b836200090f565b91507f4152544953545f524f4c450000000000000000000000000000000000000000006000830152600b82019050919050565b600062000835600a836200090f565b91507f41444d494e5f524f4c45000000000000000000000000000000000000000000006000830152600a82019050919050565b60006200087582620007a2565b9150819050919050565b60006200088c82620007e4565b9150819050919050565b6000620008a38262000826565b9150819050919050565b60006020820190508181036000830152620008c981846200071f565b905092915050565b60006020820190508181036000830152620008ec8162000760565b9050919050565b600081519050919050565b600082825260208201905092915050565b600081905092915050565b600062000927826200092e565b9050919050565b600073ffffffffffffffffffffffffffffffffffffffff82169050919050565b60005b838110156200096e57808201518184015260208101905062000951565b838111156200097e576000848401525b50505050565b6000601f19601f8301169050919050565b620009a0816200091a565b8114620009ac57600080fd5b50565b61802f80620009bf6000396000f3fe60806040526004361061031e5760003560e01c806375b238fc116101ab578063b88d4fde116100f7578063d547741f11610095578063f7eaec7d1161006f578063f7eaec7d14610c82578063fbddd14b14610cad578063fc4ea93914610cd8578063fd05dd6a14610d035761032e565b8063d547741f14610bf1578063e985e9c514610c1a578063f1d77baf14610c575761032e565b8063ca15c873116100d1578063ca15c87314610b37578063ca9c0bad14610b74578063ce427c1c14610b9d578063d3fd603c14610bc85761032e565b8063b88d4fde14610aa8578063bedb86fb14610ad1578063c87b56dd14610afa5761032e565b806395d89b4111610164578063a22cb4651161013e578063a22cb465146109e3578063a966a0df14610a0c578063b3174fa114610a37578063b4b5b48f14610a625761032e565b806395d89b4114610962578063a035b1fe1461098d578063a217fddf146109b85761032e565b806375b238fc1461082a5780637b2feaaa146108555780637def753d146108805780639010d07c146108a957806391d14854146108e6578063947e93d9146109235761032e565b80632f745c591161026a5780634f6ccce7116102235780636352211e116101fd5780636352211e1461075a5780636c0360eb1461079757806370a08231146107c257806371a0a016146107ff5761032e565b80634f6ccce7146106c757806352410197146107045780635c975abb1461072f5761032e565b80632f745c59146105a957806333618273146105e657806336568abe1461060f5780633c564cab14610638578063408f3a2b1461066157806342842e0e1461069e5761032e565b80630e1b9b0e116102d757806323b872dd116102b157806323b872dd146104ea578063248a9ca3146105135780632c50bd88146105505780632f2ff15d146105805761032e565b80630e1b9b0e1461045757806314082d811461048257806318160ddd146104bf5761032e565b806301ffc9a714610333578063031bd4c414610370578063055ad42e1461039b57806306fdde03146103c6578063081812fc146103f1578063095ea7b31461042e5761032e565b3661032e5761032c34610d40565b005b600080fd5b34801561033f57600080fd5b5061035a60048036038101906103559190615f74565b610e5d565b6040516103679190617553565b60405180910390f35b34801561037c57600080fd5b50610385610ec4565b6040516103929190617b41565b60405180910390f35b3480156103a757600080fd5b506103b0610ec9565b6040516103bd9190617c16565b60405180910390f35b3480156103d257600080fd5b506103db610eee565b6040516103e891906175a4565b60405180910390f35b3480156103fd57600080fd5b506104186004803603810190610413919061619e565b610f90565b60405161042591906174ec565b60405180910390f35b34801561043a57600080fd5b5061045560048036038101906104509190615e45565b611015565b005b34801561046357600080fd5b5061046c61112d565b6040516104799190617c16565b60405180910390f35b34801561048e57600080fd5b506104a960048036038101906104a491906160ac565b611132565b6040516104b69190617b5c565b60405180910390f35b3480156104cb57600080fd5b506104d46115bb565b6040516104e19190617b5c565b60405180910390f35b3480156104f657600080fd5b50610511600480360381019061050c9190615d3f565b6115cc565b005b34801561051f57600080fd5b5061053a60048036038101906105359190615eaa565b61162c565b604051610547919061756e565b60405180910390f35b61056a60048036038101906105659190615fc6565b61164c565b6040516105779190617b5c565b60405180910390f35b34801561058c57600080fd5b506105a760048036038101906105a29190615efc565b611b56565b005b3480156105b557600080fd5b506105d060048036038101906105cb9190615e45565b611bca565b6040516105dd9190617b5c565b60405180910390f35b3480156105f257600080fd5b5061060d6004803603810190610608919061619e565b611c25565b005b34801561061b57600080fd5b5061063660048036038101906106319190615efc565b611cea565b005b34801561064457600080fd5b5061065f600480360381019061065a91906161c7565b611d6d565b005b34801561066d57600080fd5b506106886004803603810190610683919061619e565b611fda565b6040516106959190617b26565b60405180910390f35b3480156106aa57600080fd5b506106c560048036038101906106c09190615d3f565b612212565b005b3480156106d357600080fd5b506106ee60048036038101906106e9919061619e565b612232565b6040516106fb9190617b5c565b60405180910390f35b34801561071057600080fd5b50610719612255565b6040516107269190617b5c565b60405180910390f35b34801561073b57600080fd5b5061074461225b565b6040516107519190617553565b60405180910390f35b34801561076657600080fd5b50610781600480360381019061077c919061619e565b61226e565b60405161078e91906174ec565b60405180910390f35b3480156107a357600080fd5b506107ac6122a5565b6040516107b991906175a4565b60405180910390f35b3480156107ce57600080fd5b506107e960048036038101906107e49190615cb1565b612347565b6040516107f69190617b5c565b60405180910390f35b34801561080b57600080fd5b50610814612406565b6040516108219190617c16565b60405180910390f35b34801561083657600080fd5b5061083f61240b565b60405161084c919061756e565b60405180910390f35b34801561086157600080fd5b5061086a612422565b6040516108779190617b5c565b60405180910390f35b34801561088c57600080fd5b506108a760048036038101906108a29190615cb1565b612428565b005b3480156108b557600080fd5b506108d060048036038101906108cb9190615f38565b612516565b6040516108dd91906174ec565b60405180910390f35b3480156108f257600080fd5b5061090d60048036038101906109089190615efc565b612548565b60405161091a9190617553565b60405180910390f35b34801561092f57600080fd5b5061094a6004803603810190610945919061619e565b61257a565b60405161095993929190617c31565b60405180910390f35b34801561096e57600080fd5b506109776127c8565b60405161098491906175a4565b60405180910390f35b34801561099957600080fd5b506109a261286a565b6040516109af9190617b5c565b60405180910390f35b3480156109c457600080fd5b506109cd612870565b6040516109da919061756e565b60405180910390f35b3480156109ef57600080fd5b50610a0a6004803603810190610a059190615e09565b612877565b005b348015610a1857600080fd5b50610a216129f8565b604051610a2e919061756e565b60405180910390f35b348015610a4357600080fd5b50610a4c612a0f565b604051610a599190617b5c565b60405180910390f35b348015610a6e57600080fd5b50610a896004803603810190610a84919061619e565b612a15565b604051610a9f9a99989796959493929190617b77565b60405180910390f35b348015610ab457600080fd5b50610acf6004803603810190610aca9190615d8e565b612da7565b005b348015610add57600080fd5b50610af86004803603810190610af39190615e81565b612e09565b005b348015610b0657600080fd5b50610b216004803603810190610b1c919061619e565b612e84565b604051610b2e91906175a4565b60405180910390f35b348015610b4357600080fd5b50610b5e6004803603810190610b599190615eaa565b61300f565b604051610b6b9190617b5c565b60405180910390f35b348015610b8057600080fd5b50610b9b6004803603810190610b969190615cb1565b613036565b005b348015610ba957600080fd5b50610bb26130d8565b604051610bbf919061756e565b60405180910390f35b348015610bd457600080fd5b50610bef6004803603810190610bea9190615cb1565b6130ef565b005b348015610bfd57600080fd5b50610c186004803603810190610c139190615efc565b613191565b005b348015610c2657600080fd5b50610c416004803603810190610c3c9190615d03565b613205565b604051610c4e9190617553565b60405180910390f35b348015610c6357600080fd5b50610c6c613299565b604051610c799190617b5c565b60405180910390f35b348015610c8e57600080fd5b50610c9761329f565b604051610ca49190617b5c565b60405180910390f35b348015610cb957600080fd5b50610cc26132a5565b604051610ccf919061756e565b60405180910390f35b348015610ce457600080fd5b50610ced6133aa565b604051610cfa9190617b5c565b60405180910390f35b348015610d0f57600080fd5b50610d2a6004803603810190610d25919061619e565b6133b0565b604051610d379190617589565b60405180910390f35b6000811115610e5a576000610d726064610d64603c8561343490919063ffffffff16565b6133ba90919063ffffffff16565b9050601760009054906101000a900473ffffffffffffffffffffffffffffffffffffffff1673ffffffffffffffffffffffffffffffffffffffff166108fc829081150290604051600060405180830381858888f19350505050158015610ddc573d6000803e3d6000fd5b50601860009054906101000a900473ffffffffffffffffffffffffffffffffffffffff1673ffffffffffffffffffffffffffffffffffffffff166108fc610e2c83856134a490919063ffffffff16565b9081150290604051600060405180830381858888f19350505050158015610e57573d6000803e3d6000fd5b50505b50565b6000806000837bffffffffffffffffffffffffffffffffffffffffffffffffffffffff19167bffffffffffffffffffffffffffffffffffffffffffffffffffffffff1916815260200190815260200160002060009054906101000a900460ff169050919050565b606e81565b6000610ee9600e54610edb600b6134ee565b6133ba90919063ffffffff16565b905090565b606060068054600181600116156101000203166002900480601f016020809104026020016040519081016040528092919081815260200182805460018160011615610100020316600290048015610f865780601f10610f5b57610100808354040283529160200191610f86565b820191906000526020600020905b815481529060010190602001808311610f6957829003601f168201915b5050505050905090565b6000610f9b826134fc565b610fda576040517f08c379a0000000000000000000000000000000000000000000000000000000008152600401610fd1906178c6565b60405180910390fd5b6004600083815260200190815260200160002060009054906101000a900473ffffffffffffffffffffffffffffffffffffffff169050919050565b60006110208261226e565b90508073ffffffffffffffffffffffffffffffffffffffff168373ffffffffffffffffffffffffffffffffffffffff161415611091576040517f08c379a000000000000000000000000000000000000000000000000000000000815260040161108890617986565b60405180910390fd5b8073ffffffffffffffffffffffffffffffffffffffff166110b0613519565b73ffffffffffffffffffffffffffffffffffffffff1614806110df57506110de816110d9613519565b613205565b5b61111e576040517f08c379a0000000000000000000000000000000000000000000000000000000008152600401611115906177e6565b60405180910390fd5b6111288383613521565b505050565b601881565b6000600c60009054906101000a900460ff1615611184576040517f08c379a000000000000000000000000000000000000000000000000000000000815260040161117b90617606565b60405180910390fd5b3373ffffffffffffffffffffffffffffffffffffffff16601360009054906101000a900473ffffffffffffffffffffffffffffffffffffffff1673ffffffffffffffffffffffffffffffffffffffff16636352211e846040518263ffffffff1660e01b81526004016111f69190617b5c565b60206040518083038186803b15801561120e57600080fd5b505afa158015611222573d6000803e3d6000fd5b505050506040513d601f19601f820116820180604052508101906112469190615cda565b73ffffffffffffffffffffffffffffffffffffffff161461129c576040517f08c379a000000000000000000000000000000000000000000000000000000000815260040161129390617a06565b60405180910390fd5b601360009054906101000a900473ffffffffffffffffffffffffffffffffffffffff1673ffffffffffffffffffffffffffffffffffffffff1663db006a75836040518263ffffffff1660e01b81526004016112f79190617b5c565b600060405180830381600087803b15801561131157600080fd5b505af1158015611325573d6000803e3d6000fd5b505050506113dd8989896003806020026040519081016040528092919082600360200280828437600081840152601f19601f820116905080830192505050505050896004806020026040519081016040528092919082600460200280828437600081840152601f19601f820116905080830192505050505050896002806020026040519081016040528092919082600260200280828437600081840152601f19601f82011690508083019250505050505060016135da565b6115ab6040518061020001604052808c6fffffffffffffffffffffffffffffffff1681526020018960006003811061141157fe5b6020020160208101906114249190616175565b61ffff1681526020018960016003811061143a57fe5b60200201602081019061144d9190616175565b60ff1681526020018960026003811061146257fe5b6020020160208101906114759190616175565b60ff1681526020018b60ff1681526020018a60ff1681526020018860006004811061149c57fe5b6020020160208101906114af9190616203565b60ff168152602001886001600481106114c457fe5b6020020160208101906114d79190616203565b60ff168152602001886002600481106114ec57fe5b6020020160208101906114ff9190616203565b60ff1681526020018860036004811061151457fe5b6020020160208101906115279190616203565b60ff1681526020018760006002811061153c57fe5b60200201602081019061154f9190616203565b60ff1681526020018760016002811061156457fe5b6020020160208101906115779190616203565b60ff1681526020018660ff168152602001600060ff168152602001600a60ff168152602001600160ff168152508385613919565b8190509998505050505050505050565b60006115c76002613b77565b905090565b6115dd6115d7613519565b82613b8c565b61161c576040517f08c379a0000000000000000000000000000000000000000000000000000000008152600401611613906179a6565b60405180910390fd5b611627838383613c6a565b505050565b6000600a6000838152602001908152602001600020600201549050919050565b6000600c60009054906101000a900460ff161561169e576040517f08c379a000000000000000000000000000000000000000000000000000000000815260040161169590617606565b60405180910390fd5b600d544310156116e3576040517f08c379a00000000000000000000000000000000000000000000000000000000081526004016116da90617626565b60405180910390fd5b606e61ffff166116f3600b6134ee565b10611733576040517f08c379a000000000000000000000000000000000000000000000000000000000815260040161172a90617686565b60405180910390fd5b61173d8284613e81565b6117f18989896003806020026040519081016040528092919082600360200280828437600081840152601f19601f820116905080830192505050505050896004806020026040519081016040528092919082600460200280828437600081840152601f19601f820116905080830192505050505050896002806020026040519081016040528092919082600260200280828437600081840152601f19601f82011690508083019250505050505060006135da565b600073ffffffffffffffffffffffffffffffffffffffff168373ffffffffffffffffffffffffffffffffffffffff161415611861576040517f08c379a000000000000000000000000000000000000000000000000000000000815260040161185890617aa6565b60405180910390fd5b600061186d600b6134ee565b9050611879600b6140b9565b6000611899600e5461188b600b6134ee565b6140cf90919063ffffffff16565b14156118d7576118d06118c16118ad610ec9565b60ff1660105461343490919063ffffffff16565b4361411990919063ffffffff16565b600d819055505b60006119268d8d8080601f016020809104026020016040519081016040528093929190818152602001838380828437600081840152601f19601f8201169050808301925050505050505061416e565b9050600061193483836141e1565b9050611b42604051806102000160405280836fffffffffffffffffffffffffffffffff1681526020018c60006003811061196a57fe5b60200201602081019061197d9190616175565b61ffff168152602001600060c8856fffffffffffffffffffffffffffffffff16816119a457fe5b066fffffffffffffffffffffffffffffffff16146119e1578c6001600381106119c957fe5b6020020160208101906119dc9190616175565b6119e4565b60005b60ff1681526020018c6002600381106119f957fe5b602002016020810190611a0c9190616175565b60ff1681526020018e60ff1681526020018d60ff1681526020018b600060048110611a3357fe5b602002016020810190611a469190616203565b60ff1681526020018b600160048110611a5b57fe5b602002016020810190611a6e9190616203565b60ff1681526020018b600260048110611a8357fe5b602002016020810190611a969190616203565b60ff1681526020018b600360048110611aab57fe5b602002016020810190611abe9190616203565b60ff1681526020018a600060028110611ad357fe5b602002016020810190611ae69190616203565b60ff1681526020018a600160028110611afb57fe5b602002016020810190611b0e9190616203565b60ff1681526020018960ff168152602001600060ff168152602001600a60ff168152602001600160ff168152508488613919565b8293505050509a9950505050505050505050565b611b7d600a600084815260200190815260200160002060020154611b78613519565b612548565b611bbc576040517f08c379a0000000000000000000000000000000000000000000000000000000008152600401611bb3906175e6565b60405180910390fd5b611bc682826142d7565b5050565b6000611c1d82600160008673ffffffffffffffffffffffffffffffffffffffff1673ffffffffffffffffffffffffffffffffffffffff16815260200190815260200160002061436b90919063ffffffff16565b905092915050565b604051611c31906174ab565b6040518091039020611c438133612548565b611c82576040517f08c379a0000000000000000000000000000000000000000000000000000000008152600401611c7990617a66565b60405180910390fd5b438211611cc4576040517f08c379a0000000000000000000000000000000000000000000000000000000008152600401611cbb90617a26565b60405180910390fd5b81600d819055506000600c60006101000a81548160ff0219169083151502179055505050565b611cf2613519565b73ffffffffffffffffffffffffffffffffffffffff168173ffffffffffffffffffffffffffffffffffffffff1614611d5f576040517f08c379a0000000000000000000000000000000000000000000000000000000008152600401611d5690617ac6565b60405180910390fd5b611d698282614385565b5050565b611d768261226e565b73ffffffffffffffffffffffffffffffffffffffff163373ffffffffffffffffffffffffffffffffffffffff161480611de25750611db382610f90565b73ffffffffffffffffffffffffffffffffffffffff163373ffffffffffffffffffffffffffffffffffffffff16145b611e21576040517f08c379a0000000000000000000000000000000000000000000000000000000008152600401611e1890617826565b60405180910390fd5b606581600060038110611e3057fe5b602002016020810190611e439190616203565b60ff161115611e87576040517f08c379a0000000000000000000000000000000000000000000000000000000008152600401611e7e90617786565b60405180910390fd5b600081600160038110611e9657fe5b602002016020810190611ea99190616203565b60ff1611611eec576040517f08c379a0000000000000000000000000000000000000000000000000000000008152600401611ee390617946565b60405180910390fd5b80600060038110611ef957fe5b602002016020810190611f0c9190616203565b60116000848152602001908152602001600020600001601d6101000a81548160ff021916908360ff16021790555080600160038110611f4757fe5b602002016020810190611f5a9190616203565b60116000848152602001908152602001600020600001601e6101000a81548160ff021916908360ff16021790555080600260038110611f9557fe5b602002016020810190611fa89190616203565b60116000848152602001908152602001600020600001601f6101000a81548160ff021916908360ff1602179055505050565b6000611fe461594c565b60116000848152602001908152602001600020604051806102000160405290816000820160009054906101000a90046fffffffffffffffffffffffffffffffff166fffffffffffffffffffffffffffffffff166fffffffffffffffffffffffffffffffff1681526020016000820160109054906101000a900461ffff1661ffff1661ffff1681526020016000820160129054906101000a900460ff1660ff1660ff1681526020016000820160139054906101000a900460ff1660ff1660ff1681526020016000820160149054906101000a900460ff1660ff1660ff1681526020016000820160159054906101000a900460ff1660ff1660ff1681526020016000820160169054906101000a900460ff1660ff1660ff1681526020016000820160179054906101000a900460ff1660ff1660ff1681526020016000820160189054906101000a900460ff1660ff1660ff1681526020016000820160199054906101000a900460ff1660ff1660ff16815260200160008201601a9054906101000a900460ff1660ff1660ff16815260200160008201601b9054906101000a900460ff1660ff1660ff16815260200160008201601c9054906101000a900460ff1660ff1660ff16815260200160008201601d9054906101000a900460ff1660ff1660ff16815260200160008201601e9054906101000a900460ff1660ff1660ff16815260200160008201601f9054906101000a900460ff1660ff1660ff168152505090508060000151915050919050565b61222d83838360405180602001604052806000815250612da7565b505050565b60008061224983600261441990919063ffffffff16565b50905080915050919050565b600f5481565b600c60009054906101000a900460ff1681565b600061229e82604051806060016040528060298152602001617fd16029913960026144489092919063ffffffff16565b9050919050565b606060098054600181600116156101000203166002900480601f01602080910402602001604051908101604052809291908181526020018280546001816001161561010002031660029004801561233d5780601f106123125761010080835404028352916020019161233d565b820191906000526020600020905b81548152906001019060200180831161232057829003601f168201915b5050505050905090565b60008073ffffffffffffffffffffffffffffffffffffffff168273ffffffffffffffffffffffffffffffffffffffff1614156123b8576040517f08c379a00000000000000000000000000000000000000000000000000000000081526004016123af90617806565b60405180910390fd5b6123ff600160008473ffffffffffffffffffffffffffffffffffffffff1673ffffffffffffffffffffffffffffffffffffffff168152602001908152602001600020614467565b9050919050565b600b81565b604051612417906174ab565b604051809103902081565b600d5481565b604051612434906174ab565b60405180910390206124468133612548565b612485576040517f08c379a000000000000000000000000000000000000000000000000000000000815260040161247c90617a66565b60405180910390fd5b601360009054906101000a900473ffffffffffffffffffffffffffffffffffffffff1673ffffffffffffffffffffffffffffffffffffffff1663623b692f836040518263ffffffff1660e01b81526004016124e091906174ec565b600060405180830381600087803b1580156124fa57600080fd5b505af115801561250e573d6000803e3d6000fd5b505050505050565b600061254082600a600086815260200190815260200160002060000161447c90919063ffffffff16565b905092915050565b600061257282600a600086815260200190815260200160002060000161449690919063ffffffff16565b905092915050565b600080600061258761594c565b60116000868152602001908152602001600020604051806102000160405290816000820160009054906101000a90046fffffffffffffffffffffffffffffffff166fffffffffffffffffffffffffffffffff166fffffffffffffffffffffffffffffffff1681526020016000820160109054906101000a900461ffff1661ffff1661ffff1681526020016000820160129054906101000a900460ff1660ff1660ff1681526020016000820160139054906101000a900460ff1660ff1660ff1681526020016000820160149054906101000a900460ff1660ff1660ff1681526020016000820160159054906101000a900460ff1660ff1660ff1681526020016000820160169054906101000a900460ff1660ff1660ff1681526020016000820160179054906101000a900460ff1660ff1660ff1681526020016000820160189054906101000a900460ff1660ff1660ff1681526020016000820160199054906101000a900460ff1660ff1660ff16815260200160008201601a9054906101000a900460ff1660ff1660ff16815260200160008201601b9054906101000a900460ff1660ff1660ff16815260200160008201601c9054906101000a900460ff1660ff1660ff16815260200160008201601d9054906101000a900460ff1660ff1660ff16815260200160008201601e9054906101000a900460ff1660ff1660ff16815260200160008201601f9054906101000a900460ff1660ff1660ff16815250509050806101a001519350806101c001519250806101e001519150509193909250565b606060078054600181600116156101000203166002900480601f0160208091040260200160405190810160405280929190818152602001828054600181600116156101000203166002900480156128605780601f1061283557610100808354040283529160200191612860565b820191906000526020600020905b81548152906001019060200180831161284357829003601f168201915b5050505050905090565b60145481565b6000801b81565b61287f613519565b73ffffffffffffffffffffffffffffffffffffffff168273ffffffffffffffffffffffffffffffffffffffff1614156128ed576040517f08c379a00000000000000000000000000000000000000000000000000000000081526004016128e490617746565b60405180910390fd5b80600560006128fa613519565b73ffffffffffffffffffffffffffffffffffffffff1673ffffffffffffffffffffffffffffffffffffffff16815260200190815260200160002060008473ffffffffffffffffffffffffffffffffffffffff1673ffffffffffffffffffffffffffffffffffffffff16815260200190815260200160002060006101000a81548160ff0219169083151502179055508173ffffffffffffffffffffffffffffffffffffffff166129a7613519565b73ffffffffffffffffffffffffffffffffffffffff167f17307eab39ab6107e8899845ad3d59bd9653f200f220920489ca2b5937696c31836040516129ec9190617553565b60405180910390a35050565b604051612a0490617496565b604051809103902081565b600e5481565b6000806000612a22615a09565b612a2a615a2b565b6000612a34615a4d565b6000806000612a4161594c565b601160008d8152602001908152602001600020604051806102000160405290816000820160009054906101000a90046fffffffffffffffffffffffffffffffff166fffffffffffffffffffffffffffffffff166fffffffffffffffffffffffffffffffff1681526020016000820160109054906101000a900461ffff1661ffff1661ffff1681526020016000820160129054906101000a900460ff1660ff1660ff1681526020016000820160139054906101000a900460ff1660ff1660ff1681526020016000820160149054906101000a900460ff1660ff1660ff1681526020016000820160159054906101000a900460ff1660ff1660ff1681526020016000820160169054906101000a900460ff1660ff1660ff1681526020016000820160179054906101000a900460ff1660ff1660ff1681526020016000820160189054906101000a900460ff1660ff1660ff1681526020016000820160199054906101000a900460ff1660ff1660ff16815260200160008201601a9054906101000a900460ff1660ff1660ff16815260200160008201601b9054906101000a900460ff1660ff1660ff16815260200160008201601c9054906101000a900460ff1660ff1660ff16815260200160008201601d9054906101000a900460ff1660ff1660ff16815260200160008201601e9054906101000a900460ff1660ff1660ff16815260200160008201601f9054906101000a900460ff1660ff1660ff16815250509050612c6a615a09565b612c74828e6144c6565b905080600060048110612c8357fe5b602002015160ff169b5080600160048110612c9a57fe5b6020020151925080600260048110612cae57fe5b6020020151935080600360048110612cc257fe5b60200201519450816101800151965081608001519a508160a0015199506040518060600160405280836020015161ffff1661ffff168152602001836040015160ff1661ffff168152602001836060015160ff1661ffff16815250955060405180608001604052808360c0015160ff1660ff1681526020018360e0015160ff1660ff16815260200183610100015160ff1660ff16815260200183610120015160ff1660ff168152509850604051806040016040528083610140015160ff1660ff16815260200183610160015160ff1660ff16815250975050509193959799509193959799565b612db8612db2613519565b83613b8c565b612df7576040517f08c379a0000000000000000000000000000000000000000000000000000000008152600401612dee906179a6565b60405180910390fd5b612e03848484846148de565b50505050565b604051612e15906174ab565b6040518091039020612e278133612548565b612e66576040517f08c379a0000000000000000000000000000000000000000000000000000000008152600401612e5d90617a66565b60405180910390fd5b81600c60006101000a81548160ff0219169083151502179055505050565b6060612e8f826134fc565b612ece576040517f08c379a0000000000000000000000000000000000000000000000000000000008152600401612ec590617926565b60405180910390fd5b6060600860008481526020019081526020016000208054600181600116156101000203166002900480601f016020809104026020016040519081016040528092919081815260200182805460018160011615610100020316600290048015612f775780601f10612f4c57610100808354040283529160200191612f77565b820191906000526020600020905b815481529060010190602001808311612f5a57829003601f168201915b50505050509050600060098054600181600116156101000203166002900490501415612fa6578091505061300a565b600081511115612fdb57600981604051602001612fc492919061745d565b60405160208183030381529060405291505061300a565b6009612fe68461493a565b604051602001612ff792919061745d565b6040516020818303038152906040529150505b919050565b600061302f600a6000848152602001908152602001600020600001614a81565b9050919050565b604051613042906174ab565b60405180910390206130548133612548565b613093576040517f08c379a000000000000000000000000000000000000000000000000000000000815260040161308a90617a66565b60405180910390fd5b81601260006101000a81548173ffffffffffffffffffffffffffffffffffffffff021916908373ffffffffffffffffffffffffffffffffffffffff1602179055505050565b6040516130e490617481565b604051809103902081565b6040516130fb906174ab565b604051809103902061310d8133612548565b61314c576040517f08c379a000000000000000000000000000000000000000000000000000000000815260040161314390617a66565b60405180910390fd5b81601360006101000a81548173ffffffffffffffffffffffffffffffffffffffff021916908373ffffffffffffffffffffffffffffffffffffffff1602179055505050565b6131b8600a6000848152602001908152602001600020600201546131b3613519565b612548565b6131f7576040517f08c379a00000000000000000000000000000000000000000000000000000000081526004016131ee906177c6565b60405180910390fd5b6132018282614385565b5050565b6000600560008473ffffffffffffffffffffffffffffffffffffffff1673ffffffffffffffffffffffffffffffffffffffff16815260200190815260200160002060008373ffffffffffffffffffffffffffffffffffffffff1673ffffffffffffffffffffffffffffffffffffffff16815260200190815260200160002060009054906101000a900460ff16905092915050565b60165481565b60155481565b60006040516132b3906174ab565b60405180910390206132c58133612548565b613304576040517f08c379a00000000000000000000000000000000000000000000000000000000081526004016132fb90617a66565b60405180910390fd5b601260009054906101000a900473ffffffffffffffffffffffffffffffffffffffff1673ffffffffffffffffffffffffffffffffffffffff1663990c8f796040518163ffffffff1660e01b815260040160206040518083038186803b15801561336c57600080fd5b505afa158015613380573d6000803e3d6000fd5b505050506040513d601f19601f820116820180604052508101906133a49190615ed3565b91505090565b60105481565b6000819050919050565b60006133fc83836040518060400160405280601a81526020017f536166654d6174683a206469766973696f6e206279207a65726f000000000000815250614a96565b905092915050565b600061342c836000018373ffffffffffffffffffffffffffffffffffffffff1660001b614af7565b905092915050565b600080831415613447576000905061349e565b600082840290508284828161345857fe5b0414613499576040517f08c379a0000000000000000000000000000000000000000000000000000000008152600401613490906178a6565b60405180910390fd5b809150505b92915050565b60006134e683836040518060400160405280601e81526020017f536166654d6174683a207375627472616374696f6e206f766572666c6f770000815250614b67565b905092915050565b600081600001549050919050565b6000613512826002614bc290919063ffffffff16565b9050919050565b600033905090565b816004600083815260200190815260200160002060006101000a81548173ffffffffffffffffffffffffffffffffffffffff021916908373ffffffffffffffffffffffffffffffffffffffff160217905550808273ffffffffffffffffffffffffffffffffffffffff166135948361226e565b73ffffffffffffffffffffffffffffffffffffffff167f8c5be1e5ebec7d5bd14f71427d1e84f3dd0314c0f7b2291e5b200ac8c7c3b92560405160405180910390a45050565b60008660ff161180156135f05750601f8660ff16105b61362f576040517f08c379a0000000000000000000000000000000000000000000000000000000008152600401613626906178e6565b60405180910390fd5b8560ff168560ff161115613678576040517f08c379a000000000000000000000000000000000000000000000000000000000815260040161366f90617706565b60405180910390fd5b6101688460026003811061368857fe5b602002015161ffff1611156136d2576040517f08c379a00000000000000000000000000000000000000000000000000000000081526004016136c990617646565b60405180910390fd5b6064846001600381106136e157fe5b602002015161ffff16111561372b576040517f08c379a000000000000000000000000000000000000000000000000000000000815260040161372290617966565b60405180910390fd5b8061378a5760148460016003811061373f57fe5b602002015161ffff161015613789576040517f08c379a000000000000000000000000000000000000000000000000000000000815260040161378090617966565b60405180910390fd5b5b60648460026003811061379957fe5b602002015161ffff1611156137e3576040517f08c379a00000000000000000000000000000000000000000000000000000000081526004016137da90617ae6565b60405180910390fd5b826001600481106137f057fe5b602002015160ff168360006004811061380557fe5b602002015160ff16111561384e576040517f08c379a000000000000000000000000000000000000000000000000000000000815260040161384590617b06565b60405180910390fd5b8260036004811061385b57fe5b602002015160ff168360026004811061387057fe5b602002015160ff1611156138b9576040517f08c379a00000000000000000000000000000000000000000000000000000000081526004016138b090617a46565b60405180910390fd5b6064826000600281106138c857fe5b602002015160ff161115613911576040517f08c379a0000000000000000000000000000000000000000000000000000000008152600401613908906179e6565b60405180910390fd5b505050505050565b826011600084815260200190815260200160002060008201518160000160006101000a8154816fffffffffffffffffffffffffffffffff02191690836fffffffffffffffffffffffffffffffff16021790555060208201518160000160106101000a81548161ffff021916908361ffff16021790555060408201518160000160126101000a81548160ff021916908360ff16021790555060608201518160000160136101000a81548160ff021916908360ff16021790555060808201518160000160146101000a81548160ff021916908360ff16021790555060a08201518160000160156101000a81548160ff021916908360ff16021790555060c08201518160000160166101000a81548160ff021916908360ff16021790555060e08201518160000160176101000a81548160ff021916908360ff1602179055506101008201518160000160186101000a81548160ff021916908360ff1602179055506101208201518160000160196101000a81548160ff021916908360ff16021790555061014082015181600001601a6101000a81548160ff021916908360ff16021790555061016082015181600001601b6101000a81548160ff021916908360ff16021790555061018082015181600001601c6101000a81548160ff021916908360ff1602179055506101a082015181600001601d6101000a81548160ff021916908360ff1602179055506101c082015181600001601e6101000a81548160ff021916908360ff1602179055506101e082015181600001601f6101000a81548160ff021916908360ff160217905550905050613b728183614bdc565b505050565b6000613b8582600001614bfa565b9050919050565b6000613b97826134fc565b613bd6576040517f08c379a0000000000000000000000000000000000000000000000000000000008152600401613bcd906177a6565b60405180910390fd5b6000613be18361226e565b90508073ffffffffffffffffffffffffffffffffffffffff168473ffffffffffffffffffffffffffffffffffffffff161480613c5057508373ffffffffffffffffffffffffffffffffffffffff16613c3884610f90565b73ffffffffffffffffffffffffffffffffffffffff16145b80613c615750613c608185613205565b5b91505092915050565b8273ffffffffffffffffffffffffffffffffffffffff16613c8a8261226e565b73ffffffffffffffffffffffffffffffffffffffff1614613ce0576040517f08c379a0000000000000000000000000000000000000000000000000000000008152600401613cd790617906565b60405180910390fd5b600073ffffffffffffffffffffffffffffffffffffffff168273ffffffffffffffffffffffffffffffffffffffff161415613d50576040517f08c379a0000000000000000000000000000000000000000000000000000000008152600401613d4790617726565b60405180910390fd5b613d5b838383614c0b565b613d66600082613521565b613db781600160008673ffffffffffffffffffffffffffffffffffffffff1673ffffffffffffffffffffffffffffffffffffffff168152602001908152602001600020614c1090919063ffffffff16565b50613e0981600160008573ffffffffffffffffffffffffffffffffffffffff1673ffffffffffffffffffffffffffffffffffffffff168152602001908152602001600020614c2a90919063ffffffff16565b50613e2081836002614c449092919063ffffffff16565b50808273ffffffffffffffffffffffffffffffffffffffff168473ffffffffffffffffffffffffffffffffffffffff167fddf252ad1be2c89b69c2b068fc378daa952ba7f163c4a11628f55a4df523b3ef60405160405180910390a4505050565b601454341015613ec6576040517f08c379a0000000000000000000000000000000000000000000000000000000008152600401613ebd90617846565b60405180910390fd5b601454341115613f2c573373ffffffffffffffffffffffffffffffffffffffff166108fc613eff601454346134a490919063ffffffff16565b9081150290604051600060405180830381858888f19350505050158015613f2a573d6000803e3d6000fd5b505b6000613f37836134fc565b613f415732613f4b565b613f4a8361226e565b5b9050600080613f5932612347565b14613f6657601554613f6a565b6016545b905060003373ffffffffffffffffffffffffffffffffffffffff168373ffffffffffffffffffffffffffffffffffffffff1614158015613fd657503273ffffffffffffffffffffffffffffffffffffffff168373ffffffffffffffffffffffffffffffffffffffff1614155b801561400e57508373ffffffffffffffffffffffffffffffffffffffff168373ffffffffffffffffffffffffffffffffffffffff1614155b614019576000614042565b61404160646140338460145461343490919063ffffffff16565b6133ba90919063ffffffff16565b5b90506000811115614095578273ffffffffffffffffffffffffffffffffffffffff166108fc829081150290604051600060405180830381858888f19350505050158015614093573d6000803e3d6000fd5b505b6140b26140ad826014546134a490919063ffffffff16565b610d40565b5050505050565b6001816000016000828254019250508190555050565b600061411183836040518060400160405280601881526020017f536166654d6174683a206d6f64756c6f206279207a65726f0000000000000000815250614c79565b905092915050565b600080828401905083811015614164576040517f08c379a000000000000000000000000000000000000000000000000000000000815260040161415b906176c6565b60405180910390fd5b8091505092915050565b600060608290506000809250600090505b81518110156141da57600082828151811061419657fe5b602001015160f81c60f81b60f81c60ff169050603081101580156141bb575060398111155b156141cc5760308103600a85020193505b50808060010191505061417f565b5050919050565b600080601260009054906101000a900473ffffffffffffffffffffffffffffffffffffffff1673ffffffffffffffffffffffffffffffffffffffff1663990c8f796040518163ffffffff1660e01b815260040160206040518083038186803b15801561424c57600080fd5b505afa158015614260573d6000803e3d6000fd5b505050506040513d601f19601f820116820180604052508101906142849190615ed3565b848460405160200161429893929190617409565b6040516020818303038152906040528051906020012060001c905070010000000000000000000000000000000081816142cd57fe5b0691505092915050565b6142ff81600a600085815260200190815260200160002060000161340490919063ffffffff16565b156143675761430c613519565b73ffffffffffffffffffffffffffffffffffffffff168173ffffffffffffffffffffffffffffffffffffffff16837f2f8788117e7eff1d82e926ec794901d17c78024a50270940304540a733656f0d60405160405180910390a45b5050565b600061437a8360000183614cd5565b60001c905092915050565b6143ad81600a6000858152602001908152602001600020600001614d4290919063ffffffff16565b15614415576143ba613519565b73ffffffffffffffffffffffffffffffffffffffff168173ffffffffffffffffffffffffffffffffffffffff16837ff6391f5c32d9c69d2a47ea670b442974b53935d1edc7fd64eb21e047a839171b60405160405180910390a45b5050565b60008060008061442c8660000186614d72565b915091508160001c8160001c8090509350935050509250929050565b600061445b846000018460001b84614df5565b60001c90509392505050565b600061447582600001614e86565b9050919050565b600061448b8360000183614cd5565b60001c905092915050565b60006144be836000018373ffffffffffffffffffffffffffffffffffffffff1660001b614e97565b905092915050565b6144ce615a09565b606e61ffff1682101561474f5760606144fc84600001516fffffffffffffffffffffffffffffffff16614eba565b9050614506615a6f565b6040518060e00160405280600160ff168152602001600260ff168152602001600560ff168152602001600960ff168152602001600560ff168152602001600260ff168152602001600160ff16815250905061455f615a91565b604051806103000160405280600160ff168152602001600160ff168152602001600160ff168152602001600160ff168152602001600160ff168152602001600160ff168152602001600160ff168152602001600160ff168152602001600160ff168152602001600160ff168152602001600160ff168152602001600160ff168152602001600160ff168152602001600160ff168152602001600160ff168152602001600160ff168152602001600160ff168152602001600160ff168152602001600160ff168152602001600160ff168152602001600160ff168152602001600160ff168152602001600160ff168152602001600160ff16815250905061467181601885614fa79092919063ffffffff16565b8460006004811061467e57fe5b602002019060ff16908160ff16815250506146a4600e54866133ba90919063ffffffff16565b846001600481106146b157fe5b602002019060ff16908160ff16815250506146ee60016146dd846019876150279092919063ffffffff16565b60ff1661411990919063ffffffff16565b846002600481106146fb57fe5b602002019060ff16908160ff16815250506147296000876060015160ff16856150a79092919063ffffffff16565b8460036004811061473657fe5b602002019060ff16908160ff16815250505050506148d8565b6f0800000000000000000000000000000083600001516fffffffffffffffffffffffffffffffff168161477e57fe5b048160006004811061478c57fe5b602002019060ff16908160ff168152505060106e80000000000000000000000000000084600001516fffffffffffffffffffffffffffffffff16816147cd57fe5b046fffffffffffffffffffffffffffffffff16816147e757fe5b06816001600481106147f557fe5b602002019060ff16908160ff168152505060086e10000000000000000000000000000084600001516fffffffffffffffffffffffffffffffff168161483657fe5b046fffffffffffffffffffffffffffffffff168161485057fe5b068160026004811061485e57fe5b602002019060ff16908160ff168152505060806d200000000000000000000000000084600001516fffffffffffffffffffffffffffffffff168161489e57fe5b046fffffffffffffffffffffffffffffffff16816148b857fe5b06816003600481106148c657fe5b602002019060ff16908160ff16815250505b92915050565b6148e9848484613c6a565b6148f58484848461510e565b614934576040517f08c379a000000000000000000000000000000000000000000000000000000000815260040161492b90617666565b60405180910390fd5b50505050565b60606000821415614982576040518060400160405280600181526020017f30000000000000000000000000000000000000000000000000000000000000008152509050614a7c565b600082905060005b600082146149ac578080600101915050600a82816149a457fe5b04915061498a565b60608167ffffffffffffffff811180156149c557600080fd5b506040519080825280601f01601f1916602001820160405280156149f85781602001600182028036833780820191505090505b50905060006001830390508593505b60008414614a7457600a8481614a1957fe5b0660300160f81b82828060019003935081518110614a3357fe5b60200101907effffffffffffffffffffffffffffffffffffffffffffffffffffffffffffff1916908160001a905350600a8481614a6c57fe5b049350614a07565b819450505050505b919050565b6000614a8f82600001614e86565b9050919050565b60008083118290614add576040517f08c379a0000000000000000000000000000000000000000000000000000000008152600401614ad491906175a4565b60405180910390fd5b506000838581614ae957fe5b049050809150509392505050565b6000614b038383614e97565b614b5c578260000182908060018154018082558091505060019003906000526020600020016000909190919091505582600001805490508360010160008481526020019081526020016000208190555060019050614b61565b600090505b92915050565b6000838311158290614baf576040517f08c379a0000000000000000000000000000000000000000000000000000000008152600401614ba691906175a4565b60405180910390fd5b5060008385039050809150509392505050565b6000614bd4836000018360001b615272565b905092915050565b614bf6828260405180602001604052806000815250615295565b5050565b600081600001805490509050919050565b505050565b6000614c22836000018360001b6152f0565b905092915050565b6000614c3c836000018360001b614af7565b905092915050565b6000614c70846000018460001b8473ffffffffffffffffffffffffffffffffffffffff1660001b6153d8565b90509392505050565b6000808314158290614cc1576040517f08c379a0000000000000000000000000000000000000000000000000000000008152600401614cb891906175a4565b60405180910390fd5b50828481614ccb57fe5b0690509392505050565b600081836000018054905011614d20576040517f08c379a0000000000000000000000000000000000000000000000000000000008152600401614d17906175c6565b60405180910390fd5b826000018281548110614d2f57fe5b9060005260206000200154905092915050565b6000614d6a836000018373ffffffffffffffffffffffffffffffffffffffff1660001b6152f0565b905092915050565b60008082846000018054905011614dbe576040517f08c379a0000000000000000000000000000000000000000000000000000000008152600401614db590617866565b60405180910390fd5b6000846000018481548110614dcf57fe5b906000526020600020906002020190508060000154816001015492509250509250929050565b60008084600101600085815260200190815260200160002054905060008114158390614e57576040517f08c379a0000000000000000000000000000000000000000000000000000000008152600401614e4e91906175a4565b60405180910390fd5b50846000016001820381548110614e6a57fe5b9060005260206000209060020201600101549150509392505050565b600081600001805490509050919050565b600080836001016000848152602001908152602001600020541415905092915050565b60606000600290506060600367ffffffffffffffff81118015614edc57600080fd5b50604051908082528060200260200182016040528015614f0b5781602001602082028036833780820191505090505b50905060008085604051602001614f239291906174c0565b60405160208183030381529060405280519060200120905060008090505b83811015614f9b57804082604051602001614f5d9291906173dd565b60405160208183030381529060405280519060200120836001830181518110614f8257fe5b6020026020010181815250508080600101915050614f41565b50819350505050919050565b600080614fb98560018560ff166150a7565b9050600080905060008090505b60188160ff16101561501c57614ffb868260ff1660188110614fe457fe5b602002015160ff16836154b490919063ffffffff16565b915081831361500f57809350505050615020565b8080600101915050614fc6565b5050505b9392505050565b6000806150398560018560ff166150a7565b9050600080905060008090505b60078160ff16101561509c5761507b868260ff166007811061506457fe5b602002015160ff16836154b490919063ffffffff16565b915081831361508f578093505050506150a0565b8080600101915050615046565b5050505b9392505050565b6000818313156150ec576040517f08c379a00000000000000000000000000000000000000000000000000000000081526004016150e390617a86565b60405180910390fd5b826001848403016150fc8661552c565b8161510357fe5b060190509392505050565b600061512f8473ffffffffffffffffffffffffffffffffffffffff16615638565b61513c576001905061526a565b606061520363150b7a0260e01b615151613519565b8887876040516024016151679493929190617507565b604051602081830303815290604052907bffffffffffffffffffffffffffffffffffffffffffffffffffffffff19166020820180517bffffffffffffffffffffffffffffffffffffffffffffffffffffffff8381831617835250505050604051806060016040528060328152602001617f9f603291398773ffffffffffffffffffffffffffffffffffffffff166156839092919063ffffffff16565b905060008180602001905181019061521b9190615f9d565b905063150b7a0260e01b7bffffffffffffffffffffffffffffffffffffffffffffffffffffffff1916817bffffffffffffffffffffffffffffffffffffffffffffffffffffffff191614925050505b949350505050565b600080836001016000848152602001908152602001600020541415905092915050565b61529f838361569b565b6152ac600084848461510e565b6152eb576040517f08c379a00000000000000000000000000000000000000000000000000000000081526004016152e290617666565b60405180910390fd5b505050565b600080836001016000848152602001908152602001600020549050600081146153cc576000600182039050600060018660000180549050039050600086600001828154811061533b57fe5b906000526020600020015490508087600001848154811061535857fe5b906000526020600020018190555060018301876001016000838152602001908152602001600020819055508660000180548061539057fe5b600190038181906000526020600020016000905590558660010160008781526020019081526020016000206000905560019450505050506153d2565b60009150505b92915050565b600080846001016000858152602001908152602001600020549050600081141561547f578460000160405180604001604052808681526020018581525090806001815401808255809150506001900390600052602060002090600202016000909190919091506000820151816000015560208201518160010155505084600001805490508560010160008681526020019081526020016000208190555060019150506154ad565b8285600001600183038154811061549257fe5b90600052602060002090600202016001018190555060009150505b9392505050565b6000808284019050600083121580156154cd5750838112155b806154e357506000831280156154e257508381125b5b615522576040517f08c379a000000000000000000000000000000000000000000000000000000000815260040161551990617766565b60405180910390fd5b8091505092915050565b60006001825111615572576040517f08c379a0000000000000000000000000000000000000000000000000000000008152600401615569906176e6565b60405180910390fd5b60006001808451038460008151811061558757fe5b602002602001015160001c8161559957fe5b0601905060008382815181106155ab57fe5b60200260200101516040516020016155c391906173c2565b6040516020818303038152906040528051906020012090506001846000815181106155ea57fe5b602002602001015160001c0160001b8460008151811061560657fe5b6020026020010181815250508084838151811061561f57fe5b6020026020010181815250508060001c92505050919050565b60008060007fc5d2460186f7233c927e7db2dcc703c0e500b653ca82273b7bfad8045d85a47060001b9050833f915080821415801561567a57506000801b8214155b92505050919050565b60606156928484600085615829565b90509392505050565b600073ffffffffffffffffffffffffffffffffffffffff168273ffffffffffffffffffffffffffffffffffffffff16141561570b576040517f08c379a000000000000000000000000000000000000000000000000000000000815260040161570290617886565b60405180910390fd5b615714816134fc565b15615754576040517f08c379a000000000000000000000000000000000000000000000000000000000815260040161574b906176a6565b60405180910390fd5b61576060008383614c0b565b6157b181600160008573ffffffffffffffffffffffffffffffffffffffff1673ffffffffffffffffffffffffffffffffffffffff168152602001908152602001600020614c2a90919063ffffffff16565b506157c881836002614c449092919063ffffffff16565b50808273ffffffffffffffffffffffffffffffffffffffff16600073ffffffffffffffffffffffffffffffffffffffff167fddf252ad1be2c89b69c2b068fc378daa952ba7f163c4a11628f55a4df523b3ef60405160405180910390a45050565b606061583485615638565b615873576040517f08c379a000000000000000000000000000000000000000000000000000000000815260040161586a906179c6565b60405180910390fd5b600060608673ffffffffffffffffffffffffffffffffffffffff16858760405161589d9190617446565b60006040518083038185875af1925050503d80600081146158da576040519150601f19603f3d011682016040523d82523d6000602084013e6158df565b606091505b509150915081156158f4578092505050615944565b6000815111156159075780518082602001fd5b836040517f08c379a000000000000000000000000000000000000000000000000000000000815260040161593b91906175a4565b60405180910390fd5b949350505050565b60405180610200016040528060006fffffffffffffffffffffffffffffffff168152602001600061ffff168152602001600060ff168152602001600060ff168152602001600060ff168152602001600060ff168152602001600060ff168152602001600060ff168152602001600060ff168152602001600060ff168152602001600060ff168152602001600060ff168152602001600060ff168152602001600060ff168152602001600060ff168152602001600060ff1681525090565b6040518060800160405280600490602082028036833780820191505090505090565b6040518060400160405280600290602082028036833780820191505090505090565b6040518060600160405280600390602082028036833780820191505090505090565b6040518060e00160405280600790602082028036833780820191505090505090565b604051806103000160405280601890602082028036833780820191505090505090565b600081359050615ac381617ee6565b92915050565b600081519050615ad881617ee6565b92915050565b600081905082602060030282011115615af657600080fd5b92915050565b600081905082602060020282011115615b1457600080fd5b92915050565b600081905082602060030282011115615b3257600080fd5b92915050565b600081905082602060040282011115615b5057600080fd5b92915050565b600081359050615b6581617efd565b92915050565b600081359050615b7a81617f14565b92915050565b600081519050615b8f81617f14565b92915050565b600081359050615ba481617f2b565b92915050565b600081519050615bb981617f2b565b92915050565b600082601f830112615bd057600080fd5b8135615be3615bde82617c95565b617c68565b91508082526020830160208301858383011115615bff57600080fd5b615c0a838284617e7f565b50505092915050565b60008083601f840112615c2557600080fd5b8235905067ffffffffffffffff811115615c3e57600080fd5b602083019150836001820283011115615c5657600080fd5b9250929050565b600081359050615c6c81617f42565b92915050565b600081359050615c8181617f59565b92915050565b600081359050615c9681617f70565b92915050565b600081359050615cab81617f87565b92915050565b600060208284031215615cc357600080fd5b6000615cd184828501615ab4565b91505092915050565b600060208284031215615cec57600080fd5b6000615cfa84828501615ac9565b91505092915050565b60008060408385031215615d1657600080fd5b6000615d2485828601615ab4565b9250506020615d3585828601615ab4565b9150509250929050565b600080600060608486031215615d5457600080fd5b6000615d6286828701615ab4565b9350506020615d7386828701615ab4565b9250506040615d8486828701615c87565b9150509250925092565b60008060008060808587031215615da457600080fd5b6000615db287828801615ab4565b9450506020615dc387828801615ab4565b9350506040615dd487828801615c87565b925050606085013567ffffffffffffffff811115615df157600080fd5b615dfd87828801615bbf565b91505092959194509250565b60008060408385031215615e1c57600080fd5b6000615e2a85828601615ab4565b9250506020615e3b85828601615b56565b9150509250929050565b60008060408385031215615e5857600080fd5b6000615e6685828601615ab4565b9250506020615e7785828601615c87565b9150509250929050565b600060208284031215615e9357600080fd5b6000615ea184828501615b56565b91505092915050565b600060208284031215615ebc57600080fd5b6000615eca84828501615b6b565b91505092915050565b600060208284031215615ee557600080fd5b6000615ef384828501615b80565b91505092915050565b60008060408385031215615f0f57600080fd5b6000615f1d85828601615b6b565b9250506020615f2e85828601615ab4565b9150509250929050565b60008060408385031215615f4b57600080fd5b6000615f5985828601615b6b565b9250506020615f6a85828601615c87565b9150509250929050565b600060208284031215615f8657600080fd5b6000615f9484828501615b95565b91505092915050565b600060208284031215615faf57600080fd5b6000615fbd84828501615baa565b91505092915050565b6000806000806000806000806000806101e08b8d031215615fe657600080fd5b60008b013567ffffffffffffffff81111561600057600080fd5b61600c8d828e01615c13565b9a509a5050602061601f8d828e01615c9c565b98505060406160308d828e01615c9c565b97505060606160418d828e01615ade565b96505060c06160528d828e01615b38565b9550506101406160648d828e01615afc565b9450506101806160768d828e01615c9c565b9350506101a06160888d828e01615ab4565b9250506101c061609a8d828e01615c87565b9150509295989b9194979a5092959850565b60008060008060008060008060006101e08a8c0312156160cb57600080fd5b60006160d98c828d01615c5d565b99505060206160ea8c828d01615c9c565b98505060406160fb8c828d01615c9c565b975050606061610c8c828d01615ade565b96505060c061611d8c828d01615b38565b95505061014061612f8c828d01615afc565b9450506101806161418c828d01615c9c565b9350506101a06161538c828d01615ab4565b9250506101c06161658c828d01615c87565b9150509295985092959850929598565b60006020828403121561618757600080fd5b600061619584828501615c72565b91505092915050565b6000602082840312156161b057600080fd5b60006161be84828501615c87565b91505092915050565b600080608083850312156161da57600080fd5b60006161e885828601615c87565b92505060206161f985828601615b1a565b9150509250929050565b60006020828403121561621557600080fd5b600061622384828501615c9c565b91505092915050565b60006162388383617360565b60208301905092915050565b600061625083836173a4565b60208301905092915050565b61626581617dbd565b82525050565b61627481617dab565b82525050565b61628381617cf4565b61628d8184617d52565b925061629882617cc1565b8060005b838110156162c95781516162b0878261622c565b96506162bb83617d2b565b92505060018101905061629c565b505050505050565b6162da81617cff565b6162e48184617d5d565b92506162ef82617ccb565b8060005b838110156163205781516163078782616244565b965061631283617d38565b9250506001810190506162f3565b505050505050565b61633181617d0a565b61633b8184617d68565b925061634682617cd5565b8060005b8381101561637757815161635e8782616244565b965061636983617d45565b92505060018101905061634a565b505050505050565b61638881617dcf565b82525050565b61639781617ddb565b82525050565b6163ae6163a982617ddb565b617ec1565b82525050565b60006163bf82617d15565b6163c98185617d73565b93506163d9818560208601617e8e565b6163e281617ed5565b840191505092915050565b60006163f882617d15565b6164028185617d84565b9350616412818560208601617e8e565b80840191505092915050565b61642781617e11565b82525050565b600061643882617d20565b6164428185617d8f565b9350616452818560208601617e8e565b61645b81617ed5565b840191505092915050565b600061647182617d20565b61647b8185617da0565b935061648b818560208601617e8e565b80840191505092915050565b6000815460018116600081146164b457600181146164d95761651d565b607f60028304166164c58187617da0565b955060ff198316865280860193505061651d565b600282046164e78187617da0565b95506164f285617cdf565b60005b82811015616514578154818901526001820191506020810190506164f5565b82880195505050505b505092915050565b6000616532602283617d8f565b91507f456e756d657261626c655365743a20696e646578206f7574206f6620626f756e60008301527f64730000000000000000000000000000000000000000000000000000000000006020830152604082019050919050565b6000616598602f83617d8f565b91507f416363657373436f6e74726f6c3a2073656e646572206d75737420626520616e60008301527f2061646d696e20746f206772616e7400000000000000000000000000000000006020830152604082019050919050565b60006165fe600683617d8f565b91507f50617573656400000000000000000000000000000000000000000000000000006000830152602082019050919050565b600061663e600483617d8f565b91507f57414954000000000000000000000000000000000000000000000000000000006000830152602082019050919050565b600061667e600d83617d8f565b91507f696e76616c696420636f6c6f72000000000000000000000000000000000000006000830152602082019050919050565b60006166be603283617d8f565b91507f4552433732313a207472616e7366657220746f206e6f6e20455243373231526560008301527f63656976657220696d706c656d656e74657200000000000000000000000000006020830152604082019050919050565b6000616724601083617d8f565b91507f4152542053414c45204953204f564552000000000000000000000000000000006000830152602082019050919050565b6000616764601c83617d8f565b91507f4552433732313a20746f6b656e20616c7265616479206d696e746564000000006000830152602082019050919050565b60006167a4601b83617d8f565b91507f536166654d6174683a206164646974696f6e206f766572666c6f7700000000006000830152602082019050919050565b60006167e4601983617d8f565b91507f52616e646f6d2e6e6578743a20696e76616c696420706f6f6c000000000000006000830152602082019050919050565b6000616824601083617d8f565b91507f696e76616c6964206861746368696e67000000000000000000000000000000006000830152602082019050919050565b6000616864602483617d8f565b91507f4552433732313a207472616e7366657220746f20746865207a65726f2061646460008301527f72657373000000000000000000000000000000000000000000000000000000006020830152604082019050919050565b60006168ca601983617d8f565b91507f4552433732313a20617070726f766520746f2063616c6c6572000000000000006000830152602082019050919050565b600061690a602183617d8f565b91507f5369676e6564536166654d6174683a206164646974696f6e206f766572666c6f60008301527f77000000000000000000000000000000000000000000000000000000000000006020830152604082019050919050565b6000616970600b83617d8f565b91507f496e76616c696420426b670000000000000000000000000000000000000000006000830152602082019050919050565b60006169b0602c83617d8f565b91507f4552433732313a206f70657261746f7220717565727920666f72206e6f6e657860008301527f697374656e7420746f6b656e00000000000000000000000000000000000000006020830152604082019050919050565b6000616a16603083617d8f565b91507f416363657373436f6e74726f6c3a2073656e646572206d75737420626520616e60008301527f2061646d696e20746f207265766f6b65000000000000000000000000000000006020830152604082019050919050565b6000616a7c600d83617da0565b91507f414e494d41544f525f524f4c45000000000000000000000000000000000000006000830152600d82019050919050565b6000616abc603883617d8f565b91507f4552433732313a20617070726f76652063616c6c6572206973206e6f74206f7760008301527f6e6572206e6f7220617070726f76656420666f7220616c6c00000000000000006020830152604082019050919050565b6000616b22602a83617d8f565b91507f4552433732313a2062616c616e636520717565727920666f7220746865207a6560008301527f726f2061646472657373000000000000000000000000000000000000000000006020830152604082019050919050565b6000616b88601283617d8f565b91507f496e7375662e205065726d697373696f6e7300000000000000000000000000006000830152602082019050919050565b6000616bc8601383617d8f565b91507f696e737566696369656e74207061796d656e74000000000000000000000000006000830152602082019050919050565b6000616c08602283617d8f565b91507f456e756d657261626c654d61703a20696e646578206f7574206f6620626f756e60008301527f64730000000000000000000000000000000000000000000000000000000000006020830152604082019050919050565b6000616c6e600b83617da0565b91507f4152544953545f524f4c450000000000000000000000000000000000000000006000830152600b82019050919050565b6000616cae602083617d8f565b91507f4552433732313a206d696e7420746f20746865207a65726f20616464726573736000830152602082019050919050565b6000616cee602183617d8f565b91507f536166654d6174683a206d756c7469706c69636174696f6e206f766572666c6f60008301527f77000000000000000000000000000000000000000000000000000000000000006020830152604082019050919050565b6000616d54602c83617d8f565b91507f4552433732313a20617070726f76656420717565727920666f72206e6f6e657860008301527f697374656e7420746f6b656e00000000000000000000000000000000000000006020830152604082019050919050565b6000616dba601383617d8f565b91507f696e76616c696420736861706520636f756e74000000000000000000000000006000830152602082019050919050565b6000616dfa602983617d8f565b91507f4552433732313a207472616e73666572206f6620746f6b656e2074686174206960008301527f73206e6f74206f776e00000000000000000000000000000000000000000000006020830152604082019050919050565b6000616e60602f83617d8f565b91507f4552433732314d657461646174613a2055524920717565727920666f72206e6f60008301527f6e6578697374656e7420746f6b656e00000000000000000000000000000000006020830152604082019050919050565b6000616ec6600a83617da0565b91507f41444d494e5f524f4c45000000000000000000000000000000000000000000006000830152600a82019050919050565b6000616f06601083617d8f565b91507f496e76616c6964204475726174696f6e000000000000000000000000000000006000830152602082019050919050565b6000616f46601283617d8f565b91507f696e76616c69642073617475726174696f6e00000000000000000000000000006000830152602082019050919050565b6000616f86602183617d8f565b91507f4552433732313a20617070726f76616c20746f2063757272656e74206f776e6560008301527f72000000000000000000000000000000000000000000000000000000000000006020830152604082019050919050565b6000616fec603183617d8f565b91507f4552433732313a207472616e736665722063616c6c6572206973206e6f74206f60008301527f776e6572206e6f7220617070726f7665640000000000000000000000000000006020830152604082019050919050565b6000617052601d83617d8f565b91507f416464726573733a2063616c6c20746f206e6f6e2d636f6e74726163740000006000830152602082019050919050565b6000617092600e83617d8f565b91507f696e76616c6964207370726561640000000000000000000000000000000000006000830152602082019050919050565b60006170d2600483617d8f565b91507f4e4f5045000000000000000000000000000000000000000000000000000000006000830152602082019050919050565b6000617112601483617d8f565b91507f4d7573742062652066757475726520626c6f636b0000000000000000000000006000830152602082019050919050565b6000617152601483617d8f565b91507f696e76616c6964206865696768742072616e67650000000000000000000000006000830152602082019050919050565b6000617192603283617d8f565b91507f43616c6c657220646f736e27742068617665207065726d697373696f6e20746f60008301527f2075736520746869732066756e6374696f6e00000000000000000000000000006020830152604082019050919050565b60006171f8602083617d8f565b91507f52616e646f6d2e756e69666f726d3a20696e76616c696420696e74657276616c6000830152602082019050919050565b6000617238601683617d8f565b91507f3078303020526563697069656e7420496e76616c6964000000000000000000006000830152602082019050919050565b6000617278602f83617d8f565b91507f416363657373436f6e74726f6c3a2063616e206f6e6c792072656e6f756e636560008301527f20726f6c657320666f722073656c6600000000000000000000000000000000006020830152604082019050919050565b60006172de601183617d8f565b91507f696e76616c6964206c696768746e6573730000000000000000000000000000006000830152602082019050919050565b600061731e601383617d8f565b91507f696e76616c69642077696474682072616e6765000000000000000000000000006000830152602082019050919050565b61735a81617e1e565b82525050565b61736981617e3a565b82525050565b61737881617e3a565b82525050565b61738781617e68565b82525050565b61739e61739982617e68565b617ecb565b82525050565b6173ad81617e72565b82525050565b6173bc81617e72565b82525050565b60006173ce828461639d565b60208201915081905092915050565b60006173e9828561639d565b6020820191506173f9828461639d565b6020820191508190509392505050565b6000617415828661639d565b602082019150617425828561738d565b602082019150617435828461738d565b602082019150819050949350505050565b600061745282846163ed565b915081905092915050565b60006174698285616497565b91506174758284616466565b91508190509392505050565b600061748c82616a6f565b9150819050919050565b60006174a182616c61565b9150819050919050565b60006174b682616eb9565b9150819050919050565b60006174cc828561738d565b6020820191506174dc828461738d565b6020820191508190509392505050565b6000602082019050617501600083018461626b565b92915050565b600060808201905061751c600083018761625c565b617529602083018661626b565b617536604083018561737e565b818103606083015261754881846163b4565b905095945050505050565b6000602082019050617568600083018461637f565b92915050565b6000602082019050617583600083018461638e565b92915050565b600060208201905061759e600083018461641e565b92915050565b600060208201905081810360008301526175be818461642d565b905092915050565b600060208201905081810360008301526175df81616525565b9050919050565b600060208201905081810360008301526175ff8161658b565b9050919050565b6000602082019050818103600083015261761f816165f1565b9050919050565b6000602082019050818103600083015261763f81616631565b9050919050565b6000602082019050818103600083015261765f81616671565b9050919050565b6000602082019050818103600083015261767f816166b1565b9050919050565b6000602082019050818103600083015261769f81616717565b9050919050565b600060208201905081810360008301526176bf81616757565b9050919050565b600060208201905081810360008301526176df81616797565b9050919050565b600060208201905081810360008301526176ff816167d7565b9050919050565b6000602082019050818103600083015261771f81616817565b9050919050565b6000602082019050818103600083015261773f81616857565b9050919050565b6000602082019050818103600083015261775f816168bd565b9050919050565b6000602082019050818103600083015261777f816168fd565b9050919050565b6000602082019050818103600083015261779f81616963565b9050919050565b600060208201905081810360008301526177bf816169a3565b9050919050565b600060208201905081810360008301526177df81616a09565b9050919050565b600060208201905081810360008301526177ff81616aaf565b9050919050565b6000602082019050818103600083015261781f81616b15565b9050919050565b6000602082019050818103600083015261783f81616b7b565b9050919050565b6000602082019050818103600083015261785f81616bbb565b9050919050565b6000602082019050818103600083015261787f81616bfb565b9050919050565b6000602082019050818103600083015261789f81616ca1565b9050919050565b600060208201905081810360008301526178bf81616ce1565b9050919050565b600060208201905081810360008301526178df81616d47565b9050919050565b600060208201905081810360008301526178ff81616dad565b9050919050565b6000602082019050818103600083015261791f81616ded565b9050919050565b6000602082019050818103600083015261793f81616e53565b9050919050565b6000602082019050818103600083015261795f81616ef9565b9050919050565b6000602082019050818103600083015261797f81616f39565b9050919050565b6000602082019050818103600083015261799f81616f79565b9050919050565b600060208201905081810360008301526179bf81616fdf565b9050919050565b600060208201905081810360008301526179df81617045565b9050919050565b600060208201905081810360008301526179ff81617085565b9050919050565b60006020820190508181036000830152617a1f816170c5565b9050919050565b60006020820190508181036000830152617a3f81617105565b9050919050565b60006020820190508181036000830152617a5f81617145565b9050919050565b60006020820190508181036000830152617a7f81617185565b9050919050565b60006020820190508181036000830152617a9f816171eb565b9050919050565b60006020820190508181036000830152617abf8161722b565b9050919050565b60006020820190508181036000830152617adf8161726b565b9050919050565b60006020820190508181036000830152617aff816172d1565b9050919050565b60006020820190508181036000830152617b1f81617311565b9050919050565b6000602082019050617b3b6000830184617351565b92915050565b6000602082019050617b56600083018461736f565b92915050565b6000602082019050617b71600083018461737e565b92915050565b600061020082019050617b8d600083018d61737e565b617b9a602083018c6173b3565b617ba7604083018b6173b3565b617bb4606083018a616328565b617bc160e08301896162d1565b617bcf6101208301886173b3565b617bdd61014083018761627a565b617beb6101a08301866173b3565b617bf96101c08301856173b3565b617c076101e08301846173b3565b9b9a5050505050505050505050565b6000602082019050617c2b60008301846173b3565b92915050565b6000606082019050617c4660008301866173b3565b617c5360208301856173b3565b617c6060408301846173b3565b949350505050565b6000604051905081810181811067ffffffffffffffff82111715617c8b57600080fd5b8060405250919050565b600067ffffffffffffffff821115617cac57600080fd5b601f19601f8301169050602081019050919050565b6000819050919050565b6000819050919050565b6000819050919050565b60008190508160005260206000209050919050565b600060039050919050565b600060029050919050565b600060049050919050565b600081519050919050565b600081519050919050565b6000602082019050919050565b6000602082019050919050565b6000602082019050919050565b600081905092915050565b600081905092915050565b600081905092915050565b600082825260208201905092915050565b600081905092915050565b600082825260208201905092915050565b600081905092915050565b6000617db682617e48565b9050919050565b6000617dc882617e48565b9050919050565b60008115159050919050565b6000819050919050565b60007fffffffff0000000000000000000000000000000000000000000000000000000082169050919050565b60008160000b9050919050565b60006fffffffffffffffffffffffffffffffff82169050919050565b600061ffff82169050919050565b600073ffffffffffffffffffffffffffffffffffffffff82169050919050565b6000819050919050565b600060ff82169050919050565b82818337600083830152505050565b60005b83811015617eac578082015181840152602081019050617e91565b83811115617ebb576000848401525b50505050565b6000819050919050565b6000819050919050565b6000601f19601f8301169050919050565b617eef81617dab565b8114617efa57600080fd5b50565b617f0681617dcf565b8114617f1157600080fd5b50565b617f1d81617ddb565b8114617f2857600080fd5b50565b617f3481617de5565b8114617f3f57600080fd5b50565b617f4b81617e1e565b8114617f5657600080fd5b50565b617f6281617e3a565b8114617f6d57600080fd5b50565b617f7981617e68565b8114617f8457600080fd5b50565b617f9081617e72565b8114617f9b57600080fd5b5056fe4552433732313a207472616e7366657220746f206e6f6e20455243373231526563656976657220696d706c656d656e7465724552433732313a206f776e657220717565727920666f72206e6f6e6578697374656e7420746f6b656ea26469706673582212207b8c1a8acf906ef03e68148c9634431d7f0f57a3a2bd051e972af4370e56890f64736f6c63430006080033",
  "linkReferences": {},
  "deployedLinkReferences": {}
}