{
  "_format": "hh-sol-artifact-1",
  "contractName": "TinyBoxesStore",
  "sourceName": "contracts/TinyBoxesStore.sol",
  "abi": [
    {
      "inputs": [
        {
          "internalType": "address",
          "name": "entropySourceAddress",
          "type": "address"
        }
      ],
      "stateMutability": "nonpayable",
      "type": "constructor"
    },
    {
      "anonymous": false,
      "inputs": [
        {
          "indexed": true,
          "internalType": "address",
          "name": "owner",
          "type": "address"
        },
        {
          "indexed": true,
          "internalType": "address",
          "name": "approved",
          "type": "address"
        },
        {
          "indexed": true,
          "internalType": "uint256",
          "name": "tokenId",
          "type": "uint256"
        }
      ],
      "name": "Approval",
      "type": "event"
    },
    {
      "anonymous": false,
      "inputs": [
        {
          "indexed": true,
          "internalType": "address",
          "name": "owner",
          "type": "address"
        },
        {
          "indexed": true,
          "internalType": "address",
          "name": "operator",
          "type": "address"
        },
        {
          "indexed": false,
          "internalType": "bool",
          "name": "approved",
          "type": "bool"
        }
      ],
      "name": "ApprovalForAll",
      "type": "event"
    },
    {
      "anonymous": false,
      "inputs": [
        {
          "indexed": true,
          "internalType": "bytes32",
          "name": "role",
          "type": "bytes32"
        },
        {
          "indexed": true,
          "internalType": "bytes32",
          "name": "previousAdminRole",
          "type": "bytes32"
        },
        {
          "indexed": true,
          "internalType": "bytes32",
          "name": "newAdminRole",
          "type": "bytes32"
        }
      ],
      "name": "RoleAdminChanged",
      "type": "event"
    },
    {
      "anonymous": false,
      "inputs": [
        {
          "indexed": true,
          "internalType": "bytes32",
          "name": "role",
          "type": "bytes32"
        },
        {
          "indexed": true,
          "internalType": "address",
          "name": "account",
          "type": "address"
        },
        {
          "indexed": true,
          "internalType": "address",
          "name": "sender",
          "type": "address"
        }
      ],
      "name": "RoleGranted",
      "type": "event"
    },
    {
      "anonymous": false,
      "inputs": [
        {
          "indexed": true,
          "internalType": "bytes32",
          "name": "role",
          "type": "bytes32"
        },
        {
          "indexed": true,
          "internalType": "address",
          "name": "account",
          "type": "address"
        },
        {
          "indexed": true,
          "internalType": "address",
          "name": "sender",
          "type": "address"
        }
      ],
      "name": "RoleRevoked",
      "type": "event"
    },
    {
      "anonymous": false,
      "inputs": [
        {
          "indexed": true,
          "internalType": "address",
          "name": "from",
          "type": "address"
        },
        {
          "indexed": true,
          "internalType": "address",
          "name": "to",
          "type": "address"
        },
        {
          "indexed": true,
          "internalType": "uint256",
          "name": "tokenId",
          "type": "uint256"
        }
      ],
      "name": "Transfer",
      "type": "event"
    },
    {
      "inputs": [],
      "name": "ADMIN_ROLE",
      "outputs": [
        {
          "internalType": "bytes32",
          "name": "",
          "type": "bytes32"
        }
      ],
      "stateMutability": "view",
      "type": "function"
    },
    {
      "inputs": [],
      "name": "ANIMATION_COUNT",
      "outputs": [
        {
          "internalType": "uint8",
          "name": "",
          "type": "uint8"
        }
      ],
      "stateMutability": "view",
      "type": "function"
    },
    {
      "inputs": [],
      "name": "ANIMATOR_ROLE",
      "outputs": [
        {
          "internalType": "bytes32",
          "name": "",
          "type": "bytes32"
        }
      ],
      "stateMutability": "view",
      "type": "function"
    },
    {
      "inputs": [],
      "name": "ARTIST_ROLE",
      "outputs": [
        {
          "internalType": "bytes32",
          "name": "",
          "type": "bytes32"
        }
      ],
      "stateMutability": "view",
      "type": "function"
    },
    {
      "inputs": [],
      "name": "DEFAULT_ADMIN_ROLE",
      "outputs": [
        {
          "internalType": "bytes32",
          "name": "",
          "type": "bytes32"
        }
      ],
      "stateMutability": "view",
      "type": "function"
    },
    {
      "inputs": [],
      "name": "SCHEME_COUNT",
      "outputs": [
        {
          "internalType": "uint8",
          "name": "",
          "type": "uint8"
        }
      ],
      "stateMutability": "view",
      "type": "function"
    },
    {
      "inputs": [],
      "name": "TOKEN_LIMIT",
      "outputs": [
        {
          "internalType": "uint16",
          "name": "",
          "type": "uint16"
        }
      ],
      "stateMutability": "view",
      "type": "function"
    },
    {
      "inputs": [
        {
          "internalType": "address",
          "name": "to",
          "type": "address"
        },
        {
          "internalType": "uint256",
          "name": "tokenId",
          "type": "uint256"
        }
      ],
      "name": "approve",
      "outputs": [],
      "stateMutability": "nonpayable",
      "type": "function"
    },
    {
      "inputs": [
        {
          "internalType": "address",
          "name": "owner",
          "type": "address"
        }
      ],
      "name": "balanceOf",
      "outputs": [
        {
          "internalType": "uint256",
          "name": "",
          "type": "uint256"
        }
      ],
      "stateMutability": "view",
      "type": "function"
    },
    {
      "inputs": [],
      "name": "baseURI",
      "outputs": [
        {
          "internalType": "string",
          "name": "",
          "type": "string"
        }
      ],
      "stateMutability": "view",
      "type": "function"
    },
    {
      "inputs": [],
      "name": "blockStart",
      "outputs": [
        {
          "internalType": "uint256",
          "name": "",
          "type": "uint256"
        }
      ],
      "stateMutability": "view",
      "type": "function"
    },
    {
      "inputs": [
        {
          "internalType": "uint256",
          "name": "id",
          "type": "uint256"
        },
        {
          "internalType": "uint8[3]",
          "name": "settings",
          "type": "uint8[3]"
        }
      ],
      "name": "changeSettings",
      "outputs": [],
      "stateMutability": "nonpayable",
      "type": "function"
    },
    {
      "inputs": [
        {
          "internalType": "string",
          "name": "_seed",
          "type": "string"
        },
        {
          "internalType": "uint8",
          "name": "shapes",
          "type": "uint8"
        },
        {
          "internalType": "uint8",
          "name": "hatching",
          "type": "uint8"
        },
        {
          "internalType": "uint16[3]",
          "name": "color",
          "type": "uint16[3]"
        },
        {
          "internalType": "uint8[4]",
          "name": "size",
          "type": "uint8[4]"
        },
        {
          "internalType": "uint8[2]",
          "name": "spacing",
          "type": "uint8[2]"
        },
        {
          "internalType": "uint8",
          "name": "mirroring",
          "type": "uint8"
        },
        {
          "internalType": "address",
          "name": "recipient",
          "type": "address"
        },
        {
          "internalType": "uint256",
          "name": "referalID",
          "type": "uint256"
        }
      ],
      "name": "createTo",
      "outputs": [
        {
          "internalType": "uint256",
          "name": "",
          "type": "uint256"
        }
      ],
      "stateMutability": "payable",
      "type": "function"
    },
    {
      "inputs": [
        {
          "internalType": "uint128",
          "name": "seed",
          "type": "uint128"
        },
        {
          "internalType": "uint8",
          "name": "shapes",
          "type": "uint8"
        },
        {
          "internalType": "uint8",
          "name": "hatching",
          "type": "uint8"
        },
        {
          "internalType": "uint16[3]",
          "name": "color",
          "type": "uint16[3]"
        },
        {
          "internalType": "uint8[4]",
          "name": "size",
          "type": "uint8[4]"
        },
        {
          "internalType": "uint8[2]",
          "name": "spacing",
          "type": "uint8[2]"
        },
        {
          "internalType": "uint8",
          "name": "mirroring",
          "type": "uint8"
        },
        {
          "internalType": "address",
          "name": "recipient",
          "type": "address"
        },
        {
          "internalType": "uint256",
          "name": "id",
          "type": "uint256"
        }
      ],
      "name": "createWithPromo",
      "outputs": [
        {
          "internalType": "uint256",
          "name": "",
          "type": "uint256"
        }
      ],
      "stateMutability": "nonpayable",
      "type": "function"
    },
    {
      "inputs": [],
      "name": "currentPhase",
      "outputs": [
        {
          "internalType": "uint8",
          "name": "",
          "type": "uint8"
        }
      ],
      "stateMutability": "view",
      "type": "function"
    },
    {
      "inputs": [
        {
          "internalType": "uint256",
          "name": "tokenId",
          "type": "uint256"
        }
      ],
      "name": "getApproved",
      "outputs": [
        {
          "internalType": "address",
          "name": "",
          "type": "address"
        }
      ],
      "stateMutability": "view",
      "type": "function"
    },
    {
      "inputs": [
        {
          "internalType": "bytes32",
          "name": "role",
          "type": "bytes32"
        }
      ],
      "name": "getRoleAdmin",
      "outputs": [
        {
          "internalType": "bytes32",
          "name": "",
          "type": "bytes32"
        }
      ],
      "stateMutability": "view",
      "type": "function"
    },
    {
      "inputs": [
        {
          "internalType": "bytes32",
          "name": "role",
          "type": "bytes32"
        },
        {
          "internalType": "uint256",
          "name": "index",
          "type": "uint256"
        }
      ],
      "name": "getRoleMember",
      "outputs": [
        {
          "internalType": "address",
          "name": "",
          "type": "address"
        }
      ],
      "stateMutability": "view",
      "type": "function"
    },
    {
      "inputs": [
        {
          "internalType": "bytes32",
          "name": "role",
          "type": "bytes32"
        }
      ],
      "name": "getRoleMemberCount",
      "outputs": [
        {
          "internalType": "uint256",
          "name": "",
          "type": "uint256"
        }
      ],
      "stateMutability": "view",
      "type": "function"
    },
    {
      "inputs": [
        {
          "internalType": "bytes32",
          "name": "role",
          "type": "bytes32"
        },
        {
          "internalType": "address",
          "name": "account",
          "type": "address"
        }
      ],
      "name": "grantRole",
      "outputs": [],
      "stateMutability": "nonpayable",
      "type": "function"
    },
    {
      "inputs": [
        {
          "internalType": "bytes32",
          "name": "role",
          "type": "bytes32"
        },
        {
          "internalType": "address",
          "name": "account",
          "type": "address"
        }
      ],
      "name": "hasRole",
      "outputs": [
        {
          "internalType": "bool",
          "name": "",
          "type": "bool"
        }
      ],
      "stateMutability": "view",
      "type": "function"
    },
    {
      "inputs": [
        {
          "internalType": "address",
          "name": "owner",
          "type": "address"
        },
        {
          "internalType": "address",
          "name": "operator",
          "type": "address"
        }
      ],
      "name": "isApprovedForAll",
      "outputs": [
        {
          "internalType": "bool",
          "name": "",
          "type": "bool"
        }
      ],
      "stateMutability": "view",
      "type": "function"
    },
    {
      "inputs": [
        {
          "internalType": "address",
          "name": "to",
          "type": "address"
        }
      ],
      "name": "mintPromo",
      "outputs": [],
      "stateMutability": "nonpayable",
      "type": "function"
    },
    {
      "inputs": [],
      "name": "name",
      "outputs": [
        {
          "internalType": "string",
          "name": "",
          "type": "string"
        }
      ],
      "stateMutability": "view",
      "type": "function"
    },
    {
      "inputs": [
        {
          "internalType": "uint256",
          "name": "tokenId",
          "type": "uint256"
        }
      ],
      "name": "ownerOf",
      "outputs": [
        {
          "internalType": "address",
          "name": "",
          "type": "address"
        }
      ],
      "stateMutability": "view",
      "type": "function"
    },
    {
      "inputs": [],
      "name": "paused",
      "outputs": [
        {
          "internalType": "bool",
          "name": "",
          "type": "bool"
        }
      ],
      "stateMutability": "view",
      "type": "function"
    },
    {
      "inputs": [],
      "name": "phaseCountdown",
      "outputs": [
        {
          "internalType": "uint256",
          "name": "",
          "type": "uint256"
        }
      ],
      "stateMutability": "view",
      "type": "function"
    },
    {
      "inputs": [],
      "name": "phaseCountdownTime",
      "outputs": [
        {
          "internalType": "uint256",
          "name": "",
          "type": "uint256"
        }
      ],
      "stateMutability": "view",
      "type": "function"
    },
    {
      "inputs": [],
      "name": "phaseLen",
      "outputs": [
        {
          "internalType": "uint256",
          "name": "",
          "type": "uint256"
        }
      ],
      "stateMutability": "view",
      "type": "function"
    },
    {
      "inputs": [],
      "name": "price",
      "outputs": [
        {
          "internalType": "uint256",
          "name": "",
          "type": "uint256"
        }
      ],
      "stateMutability": "view",
      "type": "function"
    },
    {
      "inputs": [
        {
          "internalType": "uint256",
          "name": "id",
          "type": "uint256"
        }
      ],
      "name": "readSettings",
      "outputs": [
        {
          "internalType": "uint8",
          "name": "bkg",
          "type": "uint8"
        },
        {
          "internalType": "uint8",
          "name": "duration",
          "type": "uint8"
        },
        {
          "internalType": "uint8",
          "name": "options",
          "type": "uint8"
        }
      ],
      "stateMutability": "view",
      "type": "function"
    },
    {
      "inputs": [],
      "name": "referalNewPercent",
      "outputs": [
        {
          "internalType": "uint256",
          "name": "",
          "type": "uint256"
        }
      ],
      "stateMutability": "view",
      "type": "function"
    },
    {
      "inputs": [],
      "name": "referalPercent",
      "outputs": [
        {
          "internalType": "uint256",
          "name": "",
          "type": "uint256"
        }
      ],
      "stateMutability": "view",
      "type": "function"
    },
    {
      "inputs": [
        {
          "internalType": "bytes32",
          "name": "role",
          "type": "bytes32"
        },
        {
          "internalType": "address",
          "name": "account",
          "type": "address"
        }
      ],
      "name": "renounceRole",
      "outputs": [],
      "stateMutability": "nonpayable",
      "type": "function"
    },
    {
      "inputs": [
        {
          "internalType": "bytes32",
          "name": "role",
          "type": "bytes32"
        },
        {
          "internalType": "address",
          "name": "account",
          "type": "address"
        }
      ],
      "name": "revokeRole",
      "outputs": [],
      "stateMutability": "nonpayable",
      "type": "function"
    },
    {
      "inputs": [
        {
          "internalType": "address",
          "name": "from",
          "type": "address"
        },
        {
          "internalType": "address",
          "name": "to",
          "type": "address"
        },
        {
          "internalType": "uint256",
          "name": "tokenId",
          "type": "uint256"
        }
      ],
      "name": "safeTransferFrom",
      "outputs": [],
      "stateMutability": "nonpayable",
      "type": "function"
    },
    {
      "inputs": [
        {
          "internalType": "address",
          "name": "from",
          "type": "address"
        },
        {
          "internalType": "address",
          "name": "to",
          "type": "address"
        },
        {
          "internalType": "uint256",
          "name": "tokenId",
          "type": "uint256"
        },
        {
          "internalType": "bytes",
          "name": "_data",
          "type": "bytes"
        }
      ],
      "name": "safeTransferFrom",
      "outputs": [],
      "stateMutability": "nonpayable",
      "type": "function"
    },
    {
      "inputs": [
        {
          "internalType": "address",
          "name": "operator",
          "type": "address"
        },
        {
          "internalType": "bool",
          "name": "approved",
          "type": "bool"
        }
      ],
      "name": "setApprovalForAll",
      "outputs": [],
      "stateMutability": "nonpayable",
      "type": "function"
    },
    {
      "inputs": [
        {
          "internalType": "bool",
          "name": "state",
          "type": "bool"
        }
      ],
      "name": "setPause",
      "outputs": [],
      "stateMutability": "nonpayable",
      "type": "function"
    },
    {
      "inputs": [
        {
          "internalType": "address",
          "name": "_promoTokenAddress",
          "type": "address"
        }
      ],
      "name": "setPromo",
      "outputs": [],
      "stateMutability": "nonpayable",
      "type": "function"
    },
    {
      "inputs": [
        {
          "internalType": "address",
          "name": "rand",
          "type": "address"
        }
      ],
      "name": "setRandom",
      "outputs": [],
      "stateMutability": "nonpayable",
      "type": "function"
    },
    {
      "inputs": [
        {
          "internalType": "uint256",
          "name": "startBlock",
          "type": "uint256"
        }
      ],
      "name": "startCoundown",
      "outputs": [],
      "stateMutability": "nonpayable",
      "type": "function"
    },
    {
      "inputs": [
        {
          "internalType": "bytes4",
          "name": "interfaceId",
          "type": "bytes4"
        }
      ],
      "name": "supportsInterface",
      "outputs": [
        {
          "internalType": "bool",
          "name": "",
          "type": "bool"
        }
      ],
      "stateMutability": "view",
      "type": "function"
    },
    {
      "inputs": [],
      "name": "symbol",
      "outputs": [
        {
          "internalType": "string",
          "name": "",
          "type": "string"
        }
      ],
      "stateMutability": "view",
      "type": "function"
    },
    {
      "inputs": [],
      "name": "testRandom",
      "outputs": [
        {
          "internalType": "bytes32",
          "name": "",
          "type": "bytes32"
        }
      ],
      "stateMutability": "view",
      "type": "function"
    },
    {
      "inputs": [
        {
          "internalType": "uint256",
          "name": "index",
          "type": "uint256"
        }
      ],
      "name": "tokenByIndex",
      "outputs": [
        {
          "internalType": "uint256",
          "name": "",
          "type": "uint256"
        }
      ],
      "stateMutability": "view",
      "type": "function"
    },
    {
      "inputs": [
        {
          "internalType": "uint256",
          "name": "_id",
          "type": "uint256"
        }
      ],
      "name": "tokenData",
      "outputs": [
        {
          "internalType": "uint256",
          "name": "animation",
          "type": "uint256"
        },
        {
          "internalType": "uint8",
          "name": "shapes",
          "type": "uint8"
        },
        {
          "internalType": "uint8",
          "name": "hatching",
          "type": "uint8"
        },
        {
          "internalType": "uint8[4]",
          "name": "size",
          "type": "uint8[4]"
        },
        {
          "internalType": "uint8[2]",
          "name": "spacing",
          "type": "uint8[2]"
        },
        {
          "internalType": "uint8",
          "name": "mirroring",
          "type": "uint8"
        },
        {
          "internalType": "uint16[3]",
          "name": "color",
          "type": "uint16[3]"
        },
        {
          "internalType": "uint8",
          "name": "contrast",
          "type": "uint8"
        },
        {
          "internalType": "uint8",
          "name": "shades",
          "type": "uint8"
        },
        {
          "internalType": "uint8",
          "name": "scheme",
          "type": "uint8"
        }
      ],
      "stateMutability": "view",
      "type": "function"
    },
    {
      "inputs": [
        {
          "internalType": "address",
          "name": "owner",
          "type": "address"
        },
        {
          "internalType": "uint256",
          "name": "index",
          "type": "uint256"
        }
      ],
      "name": "tokenOfOwnerByIndex",
      "outputs": [
        {
          "internalType": "uint256",
          "name": "",
          "type": "uint256"
        }
      ],
      "stateMutability": "view",
      "type": "function"
    },
    {
      "inputs": [
        {
          "internalType": "uint256",
          "name": "id",
          "type": "uint256"
        }
      ],
      "name": "tokenRandomness",
      "outputs": [
        {
          "internalType": "uint128",
          "name": "",
          "type": "uint128"
        }
      ],
      "stateMutability": "view",
      "type": "function"
    },
    {
      "inputs": [
        {
          "internalType": "uint256",
          "name": "tokenId",
          "type": "uint256"
        }
      ],
      "name": "tokenURI",
      "outputs": [
        {
          "internalType": "string",
          "name": "",
          "type": "string"
        }
      ],
      "stateMutability": "view",
      "type": "function"
    },
    {
      "inputs": [],
      "name": "totalSupply",
      "outputs": [
        {
          "internalType": "uint256",
          "name": "",
          "type": "uint256"
        }
      ],
      "stateMutability": "view",
      "type": "function"
    },
    {
      "inputs": [
        {
          "internalType": "address",
          "name": "from",
          "type": "address"
        },
        {
          "internalType": "address",
          "name": "to",
          "type": "address"
        },
        {
          "internalType": "uint256",
          "name": "tokenId",
          "type": "uint256"
        }
      ],
      "name": "transferFrom",
      "outputs": [],
      "stateMutability": "nonpayable",
      "type": "function"
    },
    {
      "inputs": [
        {
          "internalType": "uint256",
          "name": "id",
          "type": "uint256"
        }
      ],
      "name": "trueID",
      "outputs": [
        {
          "internalType": "int8",
          "name": "",
          "type": "int8"
        }
      ],
      "stateMutability": "pure",
      "type": "function"
    },
    {
      "stateMutability": "payable",
      "type": "receive"
    }
  ],
  "bytecode": "0x6080604052600c805460ff19166001179055600b606e0461ffff16600e556078600f556200003e600f80546200021560201b620022321790919060201c565b6010556001601455600a601555600f601655601780546001600160a01b0319908116737a832c86002323a5de3a317b3281eb88ec3b2c0017909155601880549091167363a9dbce75413036b2b778e670aabd4493aaf9f3179055348015620000a557600080fd5b506040516200564d3803806200564d833981016040819052620000c891620004d2565b604080518082018252600981526854696e79426f78657360b81b602080830191909152825180840190935260068352655b235d5b235d60d01b9083015290620001216301ffc9a760e01b6001600160e01b036200026816565b81516200013690600690602085019062000430565b5080516200014c90600790602084019062000430565b50620001686380ac58cd60e01b6001600160e01b036200026816565b62000183635b5e139f60e01b6001600160e01b036200026816565b6200019e63780e9d6360e01b6001600160e01b036200026816565b5050620001cb604051620001b29062000532565b604051908190039020336001600160e01b03620002c316565b620001dd604051620001b2906200051b565b620001ef604051620001b29062000502565b601280546001600160a01b0319166001600160a01b0392909216919091179055620005d5565b60006200025f83836040518060400160405280601a81526020017f536166654d6174683a206469766973696f6e206279207a65726f000000000000815250620002dc60201b60201c565b90505b92915050565b6001600160e01b031980821614156200029e5760405162461bcd60e51b815260040162000295906200059e565b60405180910390fd5b6001600160e01b0319166000908152602081905260409020805460ff19166001179055565b620002d882826001600160e01b036200031716565b5050565b60008183620003005760405162461bcd60e51b815260040162000295919062000548565b5060008385816200030d57fe5b0495945050505050565b6000828152600a602090815260409091206200033e918390620022746200039b821b17901c565b15620002d857620003576001600160e01b03620003bb16565b6001600160a01b0316816001600160a01b0316837f2f8788117e7eff1d82e926ec794901d17c78024a50270940304540a733656f0d60405160405180910390a45050565b60006200025f836001600160a01b0384166001600160e01b03620003c016565b335b90565b6000620003d783836001600160e01b036200041816565b6200040f5750815460018181018455600084815260208082209093018490558454848252828601909352604090209190915562000262565b50600062000262565b60009081526001919091016020526040902054151590565b828054600181600116156101000203166002900490600052602060002090601f016020900481019282601f106200047357805160ff1916838001178555620004a3565b82800160010185558215620004a3579182015b82811115620004a357825182559160200191906001019062000486565b50620004b1929150620004b5565b5090565b620003bd91905b80821115620004b15760008155600101620004bc565b600060208284031215620004e4578081fd5b81516001600160a01b0381168114620004fb578182fd5b9392505050565b6c414e494d41544f525f524f4c4560981b8152600d0190565b6a4152544953545f524f4c4560a81b8152600b0190565b6941444d494e5f524f4c4560b01b8152600a0190565b6000602080835283518082850152825b81811015620005765785810183015185820160400152820162000558565b81811115620005885783604083870101525b50601f01601f1916929092016040019392505050565b6020808252601c908201527f4552433136353a20696e76616c696420696e7465726661636520696400000000604082015260600190565b61506880620005e56000396000f3fe60806040526004361061034e5760003560e01c806375b238fc116101bb578063b88d4fde116100f7578063d547741f11610095578063f7eaec7d1161006f578063f7eaec7d14610939578063fbddd14b1461094e578063fc4ea93914610963578063fd05dd6a146109785761035e565b8063d547741f146108e4578063e985e9c514610904578063f1d77baf146109245761035e565b8063ca15c873116100d1578063ca15c8731461086f578063ca9c0bad1461088f578063ce427c1c146108af578063d3fd603c146108c45761035e565b8063b88d4fde1461080f578063bedb86fb1461082f578063c87b56dd1461084f5761035e565b806395d89b4111610164578063a22cb4651161013e578063a22cb4651461078f578063a966a0df146107af578063b3174fa1146107c4578063b4b5b48f146107d95761035e565b806395d89b4114610750578063a035b1fe14610765578063a217fddf1461077a5761035e565b80639010d07c116101955780639010d07c146106e157806391d1485414610701578063947e93d9146107215761035e565b806375b238fc146106975780637b2feaaa146106ac5780637def753d146106c15761035e565b80632f745c591161028a5780634f6ccce7116102335780636352211e1161020d5780636352211e1461062d5780636c0360eb1461064d57806370a082311461066257806371a0a016146106825761035e565b80634f6ccce7146105e357806352410197146106035780635c975abb146106185761035e565b80633c564cab116102645780633c564cab14610576578063408f3a2b1461059657806342842e0e146105c35761035e565b80632f745c5914610516578063336182731461053657806336568abe146105565761035e565b80630e1b9b0e116102f757806323b872dd116102d157806323b872dd146104a3578063248a9ca3146104c35780632c50bd88146104e35780632f2ff15d146104f65761035e565b80630e1b9b0e1461044c57806314082d811461046157806318160ddd1461048e5761035e565b806306fdde031161032857806306fdde03146103dd578063081812fc146103ff578063095ea7b31461042c5761035e565b806301ffc9a714610363578063031bd4c414610399578063055ad42e146103bb5761035e565b3661035e5761035c346109a5565b005b600080fd5b34801561036f57600080fd5b5061038361037e366004613e85565b610a58565b60405161039091906142ec565b60405180910390f35b3480156103a557600080fd5b506103ae610a93565b6040516103909190614e81565b3480156103c757600080fd5b506103d0610a98565b6040516103909190614f3d565b3480156103e957600080fd5b506103f2610aaf565b6040516103909190614305565b34801561040b57600080fd5b5061041f61041a366004613e10565b610b45565b604051610390919061429c565b34801561043857600080fd5b5061035c610447366004613dc5565b610b91565b34801561045857600080fd5b506103d0610c24565b34801561046d57600080fd5b5061048161047c366004613fb4565b610c29565b6040516103909190614157565b34801561049a57600080fd5b50610481610f5d565b3480156104af57600080fd5b5061035c6104be366004613c8c565b610f69565b3480156104cf57600080fd5b506104816104de366004613e10565b610fa1565b6104816104f1366004613ebd565b610fb6565b34801561050257600080fd5b5061035c610511366004613e40565b611309565b34801561052257600080fd5b50610481610531366004613dc5565b611351565b34801561054257600080fd5b5061035c610551366004613e10565b611382565b34801561056257600080fd5b5061035c610571366004613e40565b6113eb565b34801561058257600080fd5b5061035c610591366004614090565b61142d565b3480156105a257600080fd5b506105b66105b1366004613e10565b6115fb565b6040516103909190614e6d565b3480156105cf57600080fd5b5061035c6105de366004613c8c565b61171b565b3480156105ef57600080fd5b506104816105fe366004613e10565b611736565b34801561060f57600080fd5b50610481611752565b34801561062457600080fd5b50610383611758565b34801561063957600080fd5b5061041f610648366004613e10565b611761565b34801561065957600080fd5b506103f261178f565b34801561066e57600080fd5b5061048161067d366004613c1c565b6117f0565b34801561068e57600080fd5b506103d0611839565b3480156106a357600080fd5b5061048161183e565b3480156106b857600080fd5b50610481611855565b3480156106cd57600080fd5b5061035c6106dc366004613c1c565b61185b565b3480156106ed57600080fd5b5061041f6106fc366004613e64565b611914565b34801561070d57600080fd5b5061038361071c366004613e40565b611932565b34801561072d57600080fd5b5061074161073c366004613e10565b611950565b60405161039093929190614f4b565b34801561075c57600080fd5b506103f2611a7c565b34801561077157600080fd5b50610481611add565b34801561078657600080fd5b50610481611ae3565b34801561079b57600080fd5b5061035c6107aa366004613d94565b611ae8565b3480156107bb57600080fd5b50610481611bb6565b3480156107d057600080fd5b50610481611bc2565b3480156107e557600080fd5b506107f96107f4366004613e10565b611bc8565b6040516103909a99989796959493929190614e90565b34801561081b57600080fd5b5061035c61082a366004613ccc565b611e1f565b34801561083b57600080fd5b5061035c61084a366004613df0565b611e5e565b34801561085b57600080fd5b506103f261086a366004613e10565b611eac565b34801561087b57600080fd5b5061048161088a366004613e10565b611ff6565b34801561089b57600080fd5b5061035c6108aa366004613c1c565b61200d565b3480156108bb57600080fd5b50610481612077565b3480156108d057600080fd5b5061035c6108df366004613c1c565b612083565b3480156108f057600080fd5b5061035c6108ff366004613e40565b6120ed565b34801561091057600080fd5b5061038361091f366004613c54565b612127565b34801561093057600080fd5b50610481612155565b34801561094557600080fd5b5061048161215b565b34801561095a57600080fd5b50610481612161565b34801561096f57600080fd5b50610481612229565b34801561098457600080fd5b50610998610993366004613e10565b61222f565b60405161039091906142f7565b8015610a555760006109cf60646109c384603c63ffffffff61228916565b9063ffffffff61223216565b6017546040519192506001600160a01b03169082156108fc029083906000818181858888f19350505050158015610a0a573d6000803e3d6000fd5b506018546001600160a01b03166108fc610a2a848463ffffffff6122c316565b6040518115909202916000818181858888f19350505050158015610a52573d6000803e3d6000fd5b50505b50565b7fffffffff00000000000000000000000000000000000000000000000000000000811660009081526020819052604090205460ff165b919050565b606e81565b6000610aaa600e546109c3600b612305565b905090565b60068054604080516020601f6002600019610100600188161502019095169490940493840181900481028201810190925282815260609390929091830182828015610b3b5780601f10610b1057610100808354040283529160200191610b3b565b820191906000526020600020905b815481529060010190602001808311610b1e57829003601f168201915b5050505050905090565b6000610b5082612309565b610b755760405162461bcd60e51b8152600401610b6c90614961565b60405180910390fd5b506000908152600460205260409020546001600160a01b031690565b6000610b9c82611761565b9050806001600160a01b0316836001600160a01b03161415610bd05760405162461bcd60e51b8152600401610b6c90614b0c565b806001600160a01b0316610be261231c565b6001600160a01b03161480610bfe5750610bfe8161091f61231c565b610c1a5760405162461bcd60e51b8152600401610b6c90614781565b610a528383612320565b601881565b600c5460009060ff1615610c4f5760405162461bcd60e51b8152600401610b6c906143b7565b6013546040517f6352211e00000000000000000000000000000000000000000000000000000000815233916001600160a01b031690636352211e90610c98908690600401614157565b60206040518083038186803b158015610cb057600080fd5b505afa158015610cc4573d6000803e3d6000fd5b505050506040513d601f19601f82011682018060405250810190610ce89190613c38565b6001600160a01b031614610d0e5760405162461bcd60e51b8152600401610b6c90614c34565b6013546040517fdb006a750000000000000000000000000000000000000000000000000000000081526001600160a01b039091169063db006a7590610d57908590600401614157565b600060405180830381600087803b158015610d7157600080fd5b505af1158015610d85573d6000803e3d6000fd5b50505050610e0789898960038060200260405190810160405280929190826003602002808284376000920191909152505060408051608081810190925291508b9060049083908390808284376000920191909152505060408051808201825291508b9060029083908390808284376000920191909152506001915061239b9050565b610f506040518061020001604052808c6001600160801b0316815260200189600060038110610e3257fe5b602002016020810190610e45919061406e565b61ffff168152602090810190610e619060408c01908c0161406e565b60ff168152602001610e7960608b0160408c0161406e565b60ff90811682528c811660208301528b166040820152606001886000602002016020810190610ea891906140bc565b60ff168152602090810190610ec39060408b01908b016140bc565b60ff168152602001610edb60608a0160408b016140bc565b60ff168152602001610ef360808a0160608b016140bc565b60ff168152602090810190610f0a908901896140bc565b60ff168152602090810190610f259060408a01908a016140bc565b60ff90811682528716602082015260006040820152600a60608201526001608090910152838561252b565b5098975050505050505050565b6000610aaa6002612772565b610f7a610f7461231c565b8261277d565b610f965760405162461bcd60e51b8152600401610b6c90614b69565b610a52838383612802565b6000908152600a602052604090206002015490565b600c5460009060ff1615610fdc5760405162461bcd60e51b8152600401610b6c906143b7565b600d54431015610ffe5760405162461bcd60e51b8152600401610b6c906143ee565b606e61100a600b612305565b106110275760405162461bcd60e51b8152600401610b6c906144b9565b6110318284612922565b6110ac89898960038060200260405190810160405280929190826003602002808284376000920191909152505060408051608081810190925291508b9060049083908390808284376000920191909152505060408051808201825291508b9060029083908390808284376000920182905250915061239b9050565b6001600160a01b0383166110d25760405162461bcd60e51b8152600401610b6c90614d6b565b60006110de600b612305565b90506110ea600b612a9a565b611106600e546110fa600b612305565b9063ffffffff612aa316565b61113b5761113761112a611118610a98565b6010549060ff1663ffffffff61228916565b439063ffffffff612ae516565b600d555b600061117c8d8d8080601f016020809104026020016040519081016040528093929190818152602001838380828437600092019190915250612b0a92505050565b9050600061118a8383612b63565b90506112f7604051806102000160405280836001600160801b031681526020018c6000600381106111b757fe5b6020020160208101906111ca919061406e565b61ffff16815260200160c86001600160801b038516066001600160801b03166000146112055761120060408e0160208f0161406e565b611208565b60005b60ff16815260200161122060608e0160408f0161406e565b60ff90811682528f811660208301528e1660408201526060018b600060200201602081019061124f91906140bc565b60ff16815260209081019061126a9060408e01908e016140bc565b60ff16815260200161128260608d0160408e016140bc565b60ff16815260200161129a60808d0160608e016140bc565b60ff1681526020908101906112b1908c018c6140bc565b60ff1681526020908101906112cc9060408d01908d016140bc565b60ff90811682528a16602082015260006040820152600a60608201526001608090910152848861252b565b50909c9b505050505050505050505050565b6000828152600a60205260409020600201546113279061071c61231c565b6113435760405162461bcd60e51b8152600401610b6c9061435a565b61134d8282612c29565b5050565b6001600160a01b0382166000908152600160205260408120611379908363ffffffff612c9816565b90505b92915050565b60405161138e90614273565b60405180910390206113a08133611932565b6113bc5760405162461bcd60e51b8152600401610b6c90614cd9565b4382116113db5760405162461bcd60e51b8152600401610b6c90614c6b565b50600d55600c805460ff19169055565b6113f361231c565b6001600160a01b0316816001600160a01b0316146114235760405162461bcd60e51b8152600401610b6c90614da2565b61134d8282612ca4565b61143682611761565b6001600160a01b0316336001600160a01b0316148061146e575061145982610b45565b6001600160a01b0316336001600160a01b0316145b61148a5760405162461bcd60e51b8152600401610b6c9061483b565b606561149960208301836140bc565b60ff1611156114ba5760405162461bcd60e51b8152600401610b6c906146a1565b60006114cc60408301602084016140bc565b60ff16116114ec5760405162461bcd60e51b8152600401610b6c90614a9e565b6114f960208201826140bc565b6000838152601160205260409020805460ff92909216600160e81b027fffff00ffffffffffffffffffffffffffffffffffffffffffffffffffffffffff90921691909117905580600160200201602081019061155591906140bc565b6000838152601160205260409020805460ff92909216600160f01b027fff00ffffffffffffffffffffffffffffffffffffffffffffffffffffffffffff9092169190911790558060026020020160208101906115b191906140bc565b600092835260116020526040909220805460ff93909316600160f81b027effffffffffffffffffffffffffffffffffffffffffffffffffffffffffffff9093169290921790915550565b6000611605613ab2565b505060009081526011602090815260409182902082516102008101845290546001600160801b03811680835261ffff600160801b8304169383019390935260ff600160901b8204811694830194909452600160981b810484166060830152600160a01b810484166080830152600160a81b8104841660a0830152600160b01b8104841660c0830152600160b81b8104841660e0830152600160c01b81048416610100830152600160c81b81048416610120830152600160d01b81048416610140830152600160d81b81048416610160830152600160e01b81048416610180830152600160e81b810484166101a0830152600160f01b810484166101c0830152600160f81b90049092166101e09092019190915290565b610a5283838360405180602001604052806000815250611e1f565b60008061174a60028463ffffffff612d1316565b509392505050565b600f5481565b600c5460ff1681565b600061137c8260405180606001604052806029815260200161500a602991396002919063ffffffff612d2f16565b60098054604080516020601f6002600019610100600188161502019095169490940493840181900481028201810190925282815260609390929091830182828015610b3b5780601f10610b1057610100808354040283529160200191610b3b565b60006001600160a01b0382166118185760405162461bcd60e51b8152600401610b6c906147de565b6001600160a01b038216600090815260016020526040902061137c90612772565b600b81565b60405161184a90614273565b604051809103902081565b600d5481565b60405161186790614273565b60405180910390206118798133611932565b6118955760405162461bcd60e51b8152600401610b6c90614cd9565b6013546040517f623b692f0000000000000000000000000000000000000000000000000000000081526001600160a01b039091169063623b692f906118de90859060040161429c565b600060405180830381600087803b1580156118f857600080fd5b505af115801561190c573d6000803e3d6000fd5b505050505050565b6000828152600a60205260408120611379908363ffffffff612c9816565b6000828152600a60205260408120611379908363ffffffff612d4616565b600080600061195d613ab2565b5050506000918252506011602090815260409182902082516102008101845290546001600160801b038116825261ffff600160801b8204169282019290925260ff600160901b8304811693820193909352600160981b820483166060820152600160a01b820483166080820152600160a81b8204831660a0820152600160b01b8204831660c0820152600160b81b8204831660e0820152600160c01b82048316610100820152600160c81b82048316610120820152600160d01b82048316610140820152600160d81b82048316610160820152600160e01b82048316610180820152600160e81b820483166101a08201819052600160f01b830484166101c08301819052600160f81b9093049093166101e09091018190529192909190565b60078054604080516020601f6002600019610100600188161502019095169490940493840181900481028201810190925282815260609390929091830182828015610b3b5780601f10610b1057610100808354040283529160200191610b3b565b60145481565b600081565b611af061231c565b6001600160a01b0316826001600160a01b03161415611b215760405162461bcd60e51b8152600401610b6c90614629565b8060056000611b2e61231c565b6001600160a01b03908116825260208083019390935260409182016000908120918716808252919093529120805460ff191692151592909217909155611b7261231c565b6001600160a01b03167f17307eab39ab6107e8899845ad3d59bd9653f200f220920489ca2b5937696c3183604051611baa91906142ec565b60405180910390a35050565b60405161184a9061424a565b600e5481565b6000806000611bd5613b36565b611bdd613b54565b6000611be7613b72565b6000806000611bf4613ab2565b5060008b81526011602090815260409182902082516102008101845290546001600160801b038116825261ffff600160801b8204169282019290925260ff600160901b8304811693820193909352600160981b820483166060820152600160a01b820483166080820152600160a81b8204831660a0820152600160b01b8204831660c0820152600160b81b8204831660e0820152600160c01b82048316610100820152600160c81b82048316610120820152600160d01b82048316610140820152600160d81b82048316610160820152600160e01b82048316610180820152600160e81b820483166101a0820152600160f01b820483166101c0820152600160f81b9091049091166101e0820152611d0a613b36565b611d14828e612d5b565b9050806000602002015160ff169b50806001602002015192508060026020020151935080600360200201519450816101800151965081608001519a508160a0015199506040518060600160405280836020015161ffff1661ffff168152602001836040015160ff1661ffff168152602001836060015160ff1661ffff16815250955060405180608001604052808360c0015160ff1660ff1681526020018360e0015160ff1660ff16815260200183610100015160ff1660ff16815260200183610120015160ff1660ff168152509850604051806040016040528083610140015160ff1660ff16815260200183610160015160ff1660ff16815250975050509193959799509193959799565b611e30611e2a61231c565b8361277d565b611e4c5760405162461bcd60e51b8152600401610b6c90614b69565b611e5884848484612f97565b50505050565b604051611e6a90614273565b6040518091039020611e7c8133611932565b611e985760405162461bcd60e51b8152600401610b6c90614cd9565b50600c805460ff1916911515919091179055565b6060611eb782612309565b611ed35760405162461bcd60e51b8152600401610b6c90614a41565b60008281526008602090815260409182902080548351601f6002600019610100600186161502019093169290920491820184900484028101840190945280845260609392830182828015611f685780601f10611f3d57610100808354040283529160200191611f68565b820191906000526020600020905b815481529060010190602001808311611f4b57829003601f168201915b505060095493945050505060026000196101006001841615020190911604611f91579050610a8e565b805115611fc357600981604051602001611fac9291906141a0565b604051602081830303815290604052915050610a8e565b6009611fce84612fca565b604051602001611fdf9291906141a0565b604051602081830303815290604052915050919050565b6000818152600a6020526040812061137c90612772565b60405161201990614273565b604051809103902061202b8133611932565b6120475760405162461bcd60e51b8152600401610b6c90614cd9565b506012805473ffffffffffffffffffffffffffffffffffffffff19166001600160a01b0392909216919091179055565b60405161184a90614221565b60405161208f90614273565b60405180910390206120a18133611932565b6120bd5760405162461bcd60e51b8152600401610b6c90614cd9565b506013805473ffffffffffffffffffffffffffffffffffffffff19166001600160a01b0392909216919091179055565b6000828152600a602052604090206002015461210b9061071c61231c565b6114235760405162461bcd60e51b8152600401610b6c90614724565b6001600160a01b03918216600090815260056020908152604080832093909416825291909152205460ff1690565b60165481565b60155481565b600060405161216f90614273565b60405180910390206121818133611932565b61219d5760405162461bcd60e51b8152600401610b6c90614cd9565b601260009054906101000a90046001600160a01b03166001600160a01b031663990c8f796040518163ffffffff1660e01b815260040160206040518083038186803b1580156121eb57600080fd5b505afa1580156121ff573d6000803e3d6000fd5b505050506040513d601f19601f820116820180604052508101906122239190613e28565b91505090565b60105481565b90565b600061137983836040518060400160405280601a81526020017f536166654d6174683a206469766973696f6e206279207a65726f0000000000008152506130d9565b6000611379836001600160a01b038416613110565b6000826122985750600061137c565b828202828482816122a557fe5b04146113795760405162461bcd60e51b8152600401610b6c90614920565b600061137983836040518060400160405280601e81526020017f536166654d6174683a207375627472616374696f6e206f766572666c6f77000081525061315a565b5490565b600061137c60028363ffffffff61318616565b3390565b6000818152600460205260409020805473ffffffffffffffffffffffffffffffffffffffff19166001600160a01b038416908117909155819061236282611761565b6001600160a01b03167f8c5be1e5ebec7d5bd14f71427d1e84f3dd0314c0f7b2291e5b200ac8c7c3b92560405160405180910390a45050565b60008660ff161180156123b15750601f8660ff16105b6123cd5760405162461bcd60e51b8152600401610b6c906149ad565b8560ff168560ff1611156123f35760405162461bcd60e51b8152600401610b6c90614595565b610168846002602002015161ffff1611156124205760405162461bcd60e51b8152600401610b6c90614425565b6064846001602002015161ffff16111561244c5760405162461bcd60e51b8152600401610b6c90614ad5565b8061247d576014846001602002015161ffff16101561247d5760405162461bcd60e51b8152600401610b6c90614ad5565b6064846002602002015161ffff1611156124a95760405162461bcd60e51b8152600401610b6c90614dff565b6020830151835160ff918216911611156124d55760405162461bcd60e51b8152600401610b6c90614e36565b6060830151604084015160ff918216911611156125045760405162461bcd60e51b8152600401610b6c90614ca2565b8151606460ff909116111561190c5760405162461bcd60e51b8152600401610b6c90614bfd565b826011600084815260200190815260200160002060008201518160000160006101000a8154816001600160801b0302191690836001600160801b0316021790555060208201518160000160106101000a81548161ffff021916908361ffff16021790555060408201518160000160126101000a81548160ff021916908360ff16021790555060608201518160000160136101000a81548160ff021916908360ff16021790555060808201518160000160146101000a81548160ff021916908360ff16021790555060a08201518160000160156101000a81548160ff021916908360ff16021790555060c08201518160000160166101000a81548160ff021916908360ff16021790555060e08201518160000160176101000a81548160ff021916908360ff1602179055506101008201518160000160186101000a81548160ff021916908360ff1602179055506101208201518160000160196101000a81548160ff021916908360ff16021790555061014082015181600001601a6101000a81548160ff021916908360ff16021790555061016082015181600001601b6101000a81548160ff021916908360ff16021790555061018082015181600001601c6101000a81548160ff021916908360ff1602179055506101a082015181600001601d6101000a81548160ff021916908360ff1602179055506101c082015181600001601e6101000a81548160ff021916908360ff1602179055506101e082015181600001601f6101000a81548160ff021916908360ff160217905550905050610a528183613192565b600061137c82612305565b600061278882612309565b6127a45760405162461bcd60e51b8152600401610b6c906146d8565b60006127af83611761565b9050806001600160a01b0316846001600160a01b031614806127ea5750836001600160a01b03166127df84610b45565b6001600160a01b0316145b806127fa57506127fa8185612127565b949350505050565b826001600160a01b031661281582611761565b6001600160a01b03161461283b5760405162461bcd60e51b8152600401610b6c906149e4565b6001600160a01b0382166128615760405162461bcd60e51b8152600401610b6c906145cc565b61286c838383610a52565b612877600082612320565b6001600160a01b038316600090815260016020526040902061289f908263ffffffff6131ac16565b506001600160a01b03821660009081526001602052604090206128c8908263ffffffff6131b816565b506128db6002828463ffffffff6131c416565b5080826001600160a01b0316846001600160a01b03167fddf252ad1be2c89b69c2b068fc378daa952ba7f163c4a11628f55a4df523b3ef60405160405180910390a4505050565b6014543410156129445760405162461bcd60e51b8152600401610b6c90614872565b6014543411156129925760145433906108fc9061296890349063ffffffff6122c316565b6040518115909202916000818181858888f19350505050158015612990573d6000803e3d6000fd5b505b600061299d83612309565b6129a757326129b0565b6129b083611761565b905060006129bd326117f0565b156129ca576015546129ce565b6016545b905060006001600160a01b03831633148015906129f457506001600160a01b0383163214155b8015612a125750836001600160a01b0316836001600160a01b031614155b612a1d576000612a37565b612a3760646109c38460145461228990919063ffffffff16565b90508015612a77576040516001600160a01b0384169082156108fc029083906000818181858888f19350505050158015612a75573d6000803e3d6000fd5b505b601454612a9390612a8e908363ffffffff6122c316565b6109a5565b5050505050565b80546001019055565b600061137983836040518060400160405280601881526020017f536166654d6174683a206d6f64756c6f206279207a65726f00000000000000008152506131da565b6000828201838110156113795760405162461bcd60e51b8152600401610b6c90614527565b600081815b8151811015612b5c576000828281518110612b2657fe5b016020015160f81c905060308110801590612b42575060398111155b15612b53576030810384600a020193505b50600101612b0f565b5050919050565b600080601260009054906101000a90046001600160a01b03166001600160a01b031663990c8f796040518163ffffffff1660e01b815260040160206040518083038186803b158015612bb457600080fd5b505afa158015612bc8573d6000803e3d6000fd5b505050506040513d601f19601f82011682018060405250810190612bec9190613e28565b8484604051602001612c009392919061416e565b60408051808303601f1901815291905280516020909101206001600160801b0316949350505050565b6000828152600a60205260409020612c47908263ffffffff61227416565b1561134d57612c5461231c565b6001600160a01b0316816001600160a01b0316837f2f8788117e7eff1d82e926ec794901d17c78024a50270940304540a733656f0d60405160405180910390a45050565b6000611379838361320e565b6000828152600a60205260409020612cc2908263ffffffff61325316565b1561134d57612ccf61231c565b6001600160a01b0316816001600160a01b0316837ff6391f5c32d9c69d2a47ea670b442974b53935d1edc7fd64eb21e047a839171b60405160405180910390a45050565b6000808080612d228686613268565b9097909650945050505050565b6000612d3c8484846132c4565b90505b9392505050565b6000611379836001600160a01b038416613323565b612d63613b36565b606e821015612f14576060612d8484600001516001600160801b031661333b565b9050612d8e613b90565b506040805160e0810182526001808252600260208301819052600593830184905260096060840152608083019390935260a082019290925260c0810191909152612dd6613bae565b506040805161030081018252600180825260208201819052918101829052606081018290526080810182905260a0810182905260c0810182905260e08101829052610100810182905261012081018290526101408101829052610160810182905261018081018290526101a081018290526101c081018290526101e08101829052610200810182905261022081018290526102408101829052610260810182905261028081018290526102a081018290526102c081018290526102e0810191909152612eaa8382601863ffffffff6133f216565b60ff168452600e54612ebd908690612232565b60ff166020850152612ee56001612ed685856019613462565b60ff169063ffffffff612ae516565b60ff90811660408601526060870151612f03918591600091166134b3565b60ff1660608501525061137c915050565b825160ff6f080000000000000000000000000000006001600160801b039283160416825283516e80000000000000000000000000000090821604600f16602083015283516e10000000000000000000000000000090821604600716604083015292516d2000000000000000000000000000931692909204607f1660608301525090565b612fa2848484612802565b612fae848484846134f6565b611e585760405162461bcd60e51b8152600401610b6c9061445c565b60608161300b575060408051808201909152600181527f30000000000000000000000000000000000000000000000000000000000000006020820152610a8e565b8160005b811561302357600101600a8204915061300f565b60608167ffffffffffffffff8111801561303c57600080fd5b506040519080825280601f01601f191660200182016040528015613067576020820181803683370190505b50859350905060001982015b83156130d057600a840660300160f81b8282806001900393508151811061309657fe5b60200101907effffffffffffffffffffffffffffffffffffffffffffffffffffffffffffff1916908160001a905350600a84049350613073565b50949350505050565b600081836130fa5760405162461bcd60e51b8152600401610b6c9190614305565b50600083858161310657fe5b0495945050505050565b600061311c8383613323565b6131525750815460018181018455600084815260208082209093018490558454848252828601909352604090209190915561137c565b50600061137c565b6000818484111561317e5760405162461bcd60e51b8152600401610b6c9190614305565b505050900390565b60006113798383613323565b61134d82826040518060200160405280600081525061361d565b60006113798383613650565b60006113798383613110565b6000612d3c84846001600160a01b038516613716565b600081836131fb5760405162461bcd60e51b8152600401610b6c9190614305565b5082848161320557fe5b06949350505050565b815460009082106132315760405162461bcd60e51b8152600401610b6c90614318565b82600001828154811061324057fe5b9060005260206000200154905092915050565b6000611379836001600160a01b038416613650565b81546000908190831061328d5760405162461bcd60e51b8152600401610b6c906148a9565b600084600001848154811061329e57fe5b906000526020600020906002020190508060000154816001015492509250509250929050565b600082815260018401602052604081205482816132f45760405162461bcd60e51b8152600401610b6c9190614305565b5084600001600182038154811061330757fe5b9060005260206000209060020201600101549150509392505050565b60009081526001919091016020526040902054151590565b60408051600380825260808201909252606091600291839160208201838036833701905050905060008085604051602001613377929190614160565b60408051601f198184030181529190528051602090910120905060005b838110156133e8578040826040516020016133b0929190614160565b604051602081830303815290604052805190602001208382600101815181106133d557fe5b6020908102919091010152600101613394565b5090949350505050565b6000806134048560018560ff166134b3565b90506000805b60188160ff1610156134585761343d868260ff166018811061342857fe5b6020020151839060ff1663ffffffff6137ad16565b9150818313613450579250612d3f915050565b60010161340a565b5050509392505050565b6000806134748560018560ff166134b3565b90506000805b60078160ff16101561345857613498868260ff166007811061342857fe5b91508183136134ab579250612d3f915050565b60010161347a565b6000818313156134d55760405162461bcd60e51b8152600401610b6c90614d36565b828383036001016134e5866137f3565b816134ec57fe5b0601949350505050565b600061350a846001600160a01b03166138d6565b613516575060016127fa565b60606135ce630a85bd0160e11b61352b61231c565b88878760405160240161354194939291906142b0565b604051602081830303815290604052907bffffffffffffffffffffffffffffffffffffffffffffffffffffffff19166020820180517bffffffffffffffffffffffffffffffffffffffffffffffffffffffff8381831617835250505050604051806060016040528060328152602001614fd8603291396001600160a01b038816919063ffffffff61390f16565b90506000818060200190518101906135e69190613ea1565b7fffffffff0000000000000000000000000000000000000000000000000000000016630a85bd0160e11b1492505050949350505050565b613627838361391e565b61363460008484846134f6565b610a525760405162461bcd60e51b8152600401610b6c9061445c565b6000818152600183016020526040812054801561370c578354600019808301919081019060009087908390811061368357fe5b90600052602060002001549050808760000184815481106136a057fe5b6000918252602080832090910192909255828152600189810190925260409020908401905586548790806136d057fe5b6001900381819060005260206000200160009055905586600101600087815260200190815260200160002060009055600194505050505061137c565b600091505061137c565b60008281526001840160205260408120548061377b575050604080518082018252838152602080820184815286546001818101895560008981528481209551600290930290950191825591519082015586548684528188019092529290912055612d3f565b8285600001600183038154811061378e57fe5b9060005260206000209060020201600101819055506000915050612d3f565b60008282018183128015906137c25750838112155b806137d757506000831280156137d757508381125b6113795760405162461bcd60e51b8152600401610b6c90614660565b600060018251116138165760405162461bcd60e51b8152600401610b6c9061455e565b600060018351038360008151811061382a57fe5b602002602001015160001c8161383c57fe5b066001019050600083828151811061385057fe5b60200260200101516040516020016138689190614157565b6040516020818303038152906040528051906020012090508360008151811061388d57fe5b602002602001015160001c60010160001b846000815181106138ab57fe5b602002602001018181525050808483815181106138c457fe5b60209081029190910101529392505050565b6000813f7fc5d2460186f7233c927e7db2dcc703c0e500b653ca82273b7bfad8045d85a4708181148015906127fa575050151592915050565b6060612d3c84846000856139ee565b6001600160a01b0382166139445760405162461bcd60e51b8152600401610b6c906148eb565b61394d81612309565b1561396a5760405162461bcd60e51b8152600401610b6c906144f0565b61397660008383610a52565b6001600160a01b038216600090815260016020526040902061399e908263ffffffff6131b816565b506139b16002828463ffffffff6131c416565b5060405181906001600160a01b038416906000907fddf252ad1be2c89b69c2b068fc378daa952ba7f163c4a11628f55a4df523b3ef908290a45050565b60606139f9856138d6565b613a155760405162461bcd60e51b8152600401610b6c90614bc6565b60006060866001600160a01b03168587604051613a329190614184565b60006040518083038185875af1925050503d8060008114613a6f576040519150601f19603f3d011682016040523d82523d6000602084013e613a74565b606091505b50915091508115613a885791506127fa9050565b805115613a985780518082602001fd5b8360405162461bcd60e51b8152600401610b6c9190614305565b6040805161020081018252600080825260208201819052918101829052606081018290526080810182905260a0810182905260c0810182905260e08101829052610100810182905261012081018290526101408101829052610160810182905261018081018290526101a081018290526101c081018290526101e081019190915290565b60405180608001604052806004906020820280368337509192915050565b60405180604001604052806002906020820280368337509192915050565b60405180606001604052806003906020820280368337509192915050565b6040518060e001604052806007906020820280368337509192915050565b6040518061030001604052806018906020820280368337509192915050565b803561137c81614f94565b806060810183101561137c57600080fd5b806040810183101561137c57600080fd5b806080810183101561137c57600080fd5b803560ff8116811461137c57600080fd5b600060208284031215613c2d578081fd5b813561137981614f94565b600060208284031215613c49578081fd5b815161137981614f94565b60008060408385031215613c66578081fd5b8235613c7181614f94565b91506020830135613c8181614f94565b809150509250929050565b600080600060608486031215613ca0578081fd5b8335613cab81614f94565b92506020840135613cbb81614f94565b929592945050506040919091013590565b60008060008060808587031215613ce1578081fd5b8435613cec81614f94565b9350602085810135613cfd81614f94565b935060408601359250606086013567ffffffffffffffff80821115613d20578384fd5b81880189601f820112613d31578485fd5b8035925081831115613d41578485fd5b604051601f8401601f1916810185018381118282101715613d60578687fd5b60405283815281840185018b1015613d76578586fd5b83858301868301379283019093019390935294979396509194505050565b60008060408385031215613da6578182fd5b8235613db181614f94565b915060208301358015158114613c81578182fd5b60008060408385031215613dd7578182fd5b8235613de281614f94565b946020939093013593505050565b600060208284031215613e01578081fd5b81358015158114611379578182fd5b600060208284031215613e21578081fd5b5035919050565b600060208284031215613e39578081fd5b5051919050565b60008060408385031215613e52578182fd5b823591506020830135613c8181614f94565b60008060408385031215613e76578182fd5b50508035926020909101359150565b600060208284031215613e96578081fd5b813561137981614fa9565b600060208284031215613eb2578081fd5b815161137981614fa9565b6000806000806000806000806000806101e08b8d031215613edc578788fd5b8a3567ffffffffffffffff80821115613ef357898afd5b818d018e601f820112613f04578a8bfd5b8035925081831115613f14578a8bfd5b8e6020848301011115613f25578a8bfd5b602081019c50505080995050613f3e8c60208d01613c0b565b9750613f4d8c60408d01613c0b565b9650613f5c8c60608d01613bd8565b9550613f6b8c60c08d01613bfa565b9450613f7b8c6101408d01613be9565b9350613f8b8c6101808d01613c0b565b9250613f9b8c6101a08d01613bcd565b91506101c08b013590509295989b9194979a5092959850565b60008060008060008060008060006101e08a8c031215613fd2578283fd5b89356001600160801b0381168114613fe8578384fd5b9850613ff78b60208c01613c0b565b97506140068b60408c01613c0b565b96506140158b60608c01613bd8565b95506140248b60c08c01613bfa565b94506140348b6101408c01613be9565b93506140448b6101808c01613c0b565b92506101a08a013561405581614f94565b809250506101c08a013590509295985092959850929598565b60006020828403121561407f578081fd5b813561ffff81168114611379578182fd5b600080608083850312156140a2578182fd5b823591506140b38460208501613bd8565b90509250929050565b6000602082840312156140cd578081fd5b6113798383613c0b565b8060005b6003811015611e5857815161ffff168452602093840193909101906001016140db565b8060005b6002811015611e5857815160ff16845260209384019390910190600101614102565b6000815180845261413c816020860160208601614f68565b601f01601f19169290920160200192915050565b60ff169052565b90815260200190565b918252602082015260400190565b9283526020830191909152604082015260600190565b60008251614196818460208701614f68565b9190910192915050565b60008084546001808216600081146141bf57600181146141d657614205565b60ff198316865260028304607f1686019350614205565b600283048886526020808720875b838110156141fd5781548a8201529085019082016141e4565b505050860193505b5050508351614218818360208801614f68565b01949350505050565b7f414e494d41544f525f524f4c45000000000000000000000000000000000000008152600d0190565b7f4152544953545f524f4c450000000000000000000000000000000000000000008152600b0190565b7f41444d494e5f524f4c45000000000000000000000000000000000000000000008152600a0190565b6001600160a01b0391909116815260200190565b60006001600160a01b038087168352808616602084015250836040830152608060608301526142e26080830184614124565b9695505050505050565b901515815260200190565b60009190910b815260200190565b6000602082526113796020830184614124565b60208082526022908201527f456e756d657261626c655365743a20696e646578206f7574206f6620626f756e604082015261647360f01b606082015260800190565b6020808252602f908201527f416363657373436f6e74726f6c3a2073656e646572206d75737420626520616e60408201527f2061646d696e20746f206772616e740000000000000000000000000000000000606082015260800190565b60208082526006908201527f5061757365640000000000000000000000000000000000000000000000000000604082015260600190565b60208082526004908201527f5741495400000000000000000000000000000000000000000000000000000000604082015260600190565b6020808252600d908201527f696e76616c696420636f6c6f7200000000000000000000000000000000000000604082015260600190565b60208082526032908201527f4552433732313a207472616e7366657220746f206e6f6e20455243373231526560408201527f63656976657220696d706c656d656e7465720000000000000000000000000000606082015260800190565b60208082526010908201527f4152542053414c45204953204f56455200000000000000000000000000000000604082015260600190565b6020808252601c908201527f4552433732313a20746f6b656e20616c7265616479206d696e74656400000000604082015260600190565b6020808252601b908201527f536166654d6174683a206164646974696f6e206f766572666c6f770000000000604082015260600190565b60208082526019908201527f52616e646f6d2e6e6578743a20696e76616c696420706f6f6c00000000000000604082015260600190565b60208082526010908201527f696e76616c6964206861746368696e6700000000000000000000000000000000604082015260600190565b60208082526024908201527f4552433732313a207472616e7366657220746f20746865207a65726f2061646460408201527f7265737300000000000000000000000000000000000000000000000000000000606082015260800190565b60208082526019908201527f4552433732313a20617070726f766520746f2063616c6c657200000000000000604082015260600190565b60208082526021908201527f5369676e6564536166654d6174683a206164646974696f6e206f766572666c6f6040820152607760f81b606082015260800190565b6020808252600b908201527f496e76616c696420426b67000000000000000000000000000000000000000000604082015260600190565b6020808252602c908201527f4552433732313a206f70657261746f7220717565727920666f72206e6f6e657860408201526b34b9ba32b73a103a37b5b2b760a11b606082015260800190565b60208082526030908201527f416363657373436f6e74726f6c3a2073656e646572206d75737420626520616e60408201527f2061646d696e20746f207265766f6b6500000000000000000000000000000000606082015260800190565b60208082526038908201527f4552433732313a20617070726f76652063616c6c6572206973206e6f74206f7760408201527f6e6572206e6f7220617070726f76656420666f7220616c6c0000000000000000606082015260800190565b6020808252602a908201527f4552433732313a2062616c616e636520717565727920666f7220746865207a6560408201527f726f206164647265737300000000000000000000000000000000000000000000606082015260800190565b60208082526012908201527f496e7375662e205065726d697373696f6e730000000000000000000000000000604082015260600190565b60208082526013908201527f696e737566696369656e74207061796d656e7400000000000000000000000000604082015260600190565b60208082526022908201527f456e756d657261626c654d61703a20696e646578206f7574206f6620626f756e604082015261647360f01b606082015260800190565b6020808252818101527f4552433732313a206d696e7420746f20746865207a65726f2061646472657373604082015260600190565b60208082526021908201527f536166654d6174683a206d756c7469706c69636174696f6e206f766572666c6f6040820152607760f81b606082015260800190565b6020808252602c908201527f4552433732313a20617070726f76656420717565727920666f72206e6f6e657860408201526b34b9ba32b73a103a37b5b2b760a11b606082015260800190565b60208082526013908201527f696e76616c696420736861706520636f756e7400000000000000000000000000604082015260600190565b60208082526029908201527f4552433732313a207472616e73666572206f6620746f6b656e2074686174206960408201527f73206e6f74206f776e0000000000000000000000000000000000000000000000606082015260800190565b6020808252602f908201527f4552433732314d657461646174613a2055524920717565727920666f72206e6f60408201527f6e6578697374656e7420746f6b656e0000000000000000000000000000000000606082015260800190565b60208082526010908201527f496e76616c6964204475726174696f6e00000000000000000000000000000000604082015260600190565b60208082526012908201527f696e76616c69642073617475726174696f6e0000000000000000000000000000604082015260600190565b60208082526021908201527f4552433732313a20617070726f76616c20746f2063757272656e74206f776e6560408201527f7200000000000000000000000000000000000000000000000000000000000000606082015260800190565b60208082526031908201527f4552433732313a207472616e736665722063616c6c6572206973206e6f74206f60408201527f776e6572206e6f7220617070726f766564000000000000000000000000000000606082015260800190565b6020808252601d908201527f416464726573733a2063616c6c20746f206e6f6e2d636f6e7472616374000000604082015260600190565b6020808252600e908201527f696e76616c696420737072656164000000000000000000000000000000000000604082015260600190565b60208082526004908201527f4e4f504500000000000000000000000000000000000000000000000000000000604082015260600190565b60208082526014908201527f4d7573742062652066757475726520626c6f636b000000000000000000000000604082015260600190565b60208082526014908201527f696e76616c6964206865696768742072616e6765000000000000000000000000604082015260600190565b60208082526032908201527f43616c6c657220646f736e27742068617665207065726d697373696f6e20746f60408201527f2075736520746869732066756e6374696f6e0000000000000000000000000000606082015260800190565b6020808252818101527f52616e646f6d2e756e69666f726d3a20696e76616c696420696e74657276616c604082015260600190565b60208082526016908201527f3078303020526563697069656e7420496e76616c696400000000000000000000604082015260600190565b6020808252602f908201527f416363657373436f6e74726f6c3a2063616e206f6e6c792072656e6f756e636560408201527f20726f6c657320666f722073656c660000000000000000000000000000000000606082015260800190565b60208082526011908201527f696e76616c6964206c696768746e657373000000000000000000000000000000604082015260600190565b60208082526013908201527f696e76616c69642077696474682072616e676500000000000000000000000000604082015260600190565b6001600160801b0391909116815260200190565b61ffff91909116815260200190565b8a815260ff8a81166020808401919091528a82166040840152610200830191606084018b60005b6004811015614ed6578151841683529184019190840190600101614eb7565b5050505050614ee860e08301896140fe565b614ef6610120830188614150565b614f046101408301876140d7565b614f126101a0830186614150565b614f206101c0830185614150565b614f2e6101e0830184614150565b9b9a5050505050505050505050565b60ff91909116815260200190565b60ff93841681529183166020830152909116604082015260600190565b60005b83811015614f83578181015183820152602001614f6b565b83811115611e585750506000910152565b6001600160a01b0381168114610a5557600080fd5b7fffffffff0000000000000000000000000000000000000000000000000000000081168114610a5557600080fdfe4552433732313a207472616e7366657220746f206e6f6e20455243373231526563656976657220696d706c656d656e7465724552433732313a206f776e657220717565727920666f72206e6f6e6578697374656e7420746f6b656ea2646970667358221220deeca512d287a62244fd07eeae414d453c28119ac1aeaef1813c27229160847a64736f6c63430006080033",
  "linkReferences": {},
  "deployedLinkReferences": {}
}