{
  "_format": "hh-sol-artifact-1",
  "contractName": "TinyBoxesStore",
  "sourceName": "contracts/TinyBoxesStore.sol",
  "abi": [
    {
      "inputs": [
        {
          "internalType": "address",
          "name": "entropySourceAddress",
          "type": "address"
        }
      ],
      "stateMutability": "nonpayable",
      "type": "constructor"
    },
    {
      "anonymous": false,
      "inputs": [
        {
          "indexed": true,
          "internalType": "address",
          "name": "owner",
          "type": "address"
        },
        {
          "indexed": true,
          "internalType": "address",
          "name": "approved",
          "type": "address"
        },
        {
          "indexed": true,
          "internalType": "uint256",
          "name": "tokenId",
          "type": "uint256"
        }
      ],
      "name": "Approval",
      "type": "event"
    },
    {
      "anonymous": false,
      "inputs": [
        {
          "indexed": true,
          "internalType": "address",
          "name": "owner",
          "type": "address"
        },
        {
          "indexed": true,
          "internalType": "address",
          "name": "operator",
          "type": "address"
        },
        {
          "indexed": false,
          "internalType": "bool",
          "name": "approved",
          "type": "bool"
        }
      ],
      "name": "ApprovalForAll",
      "type": "event"
    },
    {
      "anonymous": false,
      "inputs": [
        {
          "indexed": false,
          "internalType": "uint256",
          "name": "id",
          "type": "uint256"
        }
      ],
      "name": "LECreated",
      "type": "event"
    },
    {
      "anonymous": false,
      "inputs": [
        {
          "indexed": true,
          "internalType": "bytes32",
          "name": "role",
          "type": "bytes32"
        },
        {
          "indexed": true,
          "internalType": "bytes32",
          "name": "previousAdminRole",
          "type": "bytes32"
        },
        {
          "indexed": true,
          "internalType": "bytes32",
          "name": "newAdminRole",
          "type": "bytes32"
        }
      ],
      "name": "RoleAdminChanged",
      "type": "event"
    },
    {
      "anonymous": false,
      "inputs": [
        {
          "indexed": true,
          "internalType": "bytes32",
          "name": "role",
          "type": "bytes32"
        },
        {
          "indexed": true,
          "internalType": "address",
          "name": "account",
          "type": "address"
        },
        {
          "indexed": true,
          "internalType": "address",
          "name": "sender",
          "type": "address"
        }
      ],
      "name": "RoleGranted",
      "type": "event"
    },
    {
      "anonymous": false,
      "inputs": [
        {
          "indexed": true,
          "internalType": "bytes32",
          "name": "role",
          "type": "bytes32"
        },
        {
          "indexed": true,
          "internalType": "address",
          "name": "account",
          "type": "address"
        },
        {
          "indexed": true,
          "internalType": "address",
          "name": "sender",
          "type": "address"
        }
      ],
      "name": "RoleRevoked",
      "type": "event"
    },
    {
      "anonymous": false,
      "inputs": [
        {
          "indexed": true,
          "internalType": "address",
          "name": "from",
          "type": "address"
        },
        {
          "indexed": true,
          "internalType": "address",
          "name": "to",
          "type": "address"
        },
        {
          "indexed": true,
          "internalType": "uint256",
          "name": "tokenId",
          "type": "uint256"
        }
      ],
      "name": "Transfer",
      "type": "event"
    },
    {
      "inputs": [],
      "name": "ADMIN_ROLE",
      "outputs": [
        {
          "internalType": "bytes32",
          "name": "",
          "type": "bytes32"
        }
      ],
      "stateMutability": "view",
      "type": "function"
    },
    {
      "inputs": [],
      "name": "ANIMATION_COUNT",
      "outputs": [
        {
          "internalType": "uint8",
          "name": "",
          "type": "uint8"
        }
      ],
      "stateMutability": "view",
      "type": "function"
    },
    {
      "inputs": [],
      "name": "DEFAULT_ADMIN_ROLE",
      "outputs": [
        {
          "internalType": "bytes32",
          "name": "",
          "type": "bytes32"
        }
      ],
      "stateMutability": "view",
      "type": "function"
    },
    {
      "inputs": [],
      "name": "SCHEME_COUNT",
      "outputs": [
        {
          "internalType": "uint8",
          "name": "",
          "type": "uint8"
        }
      ],
      "stateMutability": "view",
      "type": "function"
    },
    {
      "inputs": [],
      "name": "TOKEN_LIMIT",
      "outputs": [
        {
          "internalType": "uint16",
          "name": "",
          "type": "uint16"
        }
      ],
      "stateMutability": "view",
      "type": "function"
    },
    {
      "inputs": [
        {
          "internalType": "address",
          "name": "to",
          "type": "address"
        },
        {
          "internalType": "uint256",
          "name": "tokenId",
          "type": "uint256"
        }
      ],
      "name": "approve",
      "outputs": [],
      "stateMutability": "nonpayable",
      "type": "function"
    },
    {
      "inputs": [],
      "name": "avgBlockTime",
      "outputs": [
        {
          "internalType": "uint8",
          "name": "",
          "type": "uint8"
        }
      ],
      "stateMutability": "view",
      "type": "function"
    },
    {
      "inputs": [
        {
          "internalType": "address",
          "name": "owner",
          "type": "address"
        }
      ],
      "name": "balanceOf",
      "outputs": [
        {
          "internalType": "uint256",
          "name": "",
          "type": "uint256"
        }
      ],
      "stateMutability": "view",
      "type": "function"
    },
    {
      "inputs": [],
      "name": "baseURI",
      "outputs": [
        {
          "internalType": "string",
          "name": "",
          "type": "string"
        }
      ],
      "stateMutability": "view",
      "type": "function"
    },
    {
      "inputs": [],
      "name": "blockStart",
      "outputs": [
        {
          "internalType": "uint256",
          "name": "",
          "type": "uint256"
        }
      ],
      "stateMutability": "view",
      "type": "function"
    },
    {
      "inputs": [
        {
          "internalType": "uint256",
          "name": "id",
          "type": "uint256"
        },
        {
          "internalType": "uint8[3]",
          "name": "settings",
          "type": "uint8[3]"
        }
      ],
      "name": "changeSettings",
      "outputs": [],
      "stateMutability": "nonpayable",
      "type": "function"
    },
    {
      "inputs": [],
      "name": "contractURI",
      "outputs": [
        {
          "internalType": "string",
          "name": "",
          "type": "string"
        }
      ],
      "stateMutability": "view",
      "type": "function"
    },
    {
      "inputs": [
        {
          "internalType": "string",
          "name": "_seed",
          "type": "string"
        },
        {
          "internalType": "uint8",
          "name": "shapes",
          "type": "uint8"
        },
        {
          "internalType": "uint8",
          "name": "hatching",
          "type": "uint8"
        },
        {
          "internalType": "uint16[3]",
          "name": "color",
          "type": "uint16[3]"
        },
        {
          "internalType": "uint8[4]",
          "name": "size",
          "type": "uint8[4]"
        },
        {
          "internalType": "uint8[2]",
          "name": "spacing",
          "type": "uint8[2]"
        },
        {
          "internalType": "uint8",
          "name": "mirroring",
          "type": "uint8"
        },
        {
          "internalType": "address",
          "name": "recipient",
          "type": "address"
        },
        {
          "internalType": "uint256",
          "name": "referalID",
          "type": "uint256"
        }
      ],
      "name": "create",
      "outputs": [
        {
          "internalType": "uint256",
          "name": "",
          "type": "uint256"
        }
      ],
      "stateMutability": "payable",
      "type": "function"
    },
    {
      "inputs": [
        {
          "internalType": "uint128",
          "name": "seed",
          "type": "uint128"
        },
        {
          "internalType": "uint8",
          "name": "shapes",
          "type": "uint8"
        },
        {
          "internalType": "uint8",
          "name": "hatching",
          "type": "uint8"
        },
        {
          "internalType": "uint16[3]",
          "name": "color",
          "type": "uint16[3]"
        },
        {
          "internalType": "uint8[4]",
          "name": "size",
          "type": "uint8[4]"
        },
        {
          "internalType": "uint8[2]",
          "name": "spacing",
          "type": "uint8[2]"
        },
        {
          "internalType": "uint8",
          "name": "mirroring",
          "type": "uint8"
        },
        {
          "internalType": "uint256",
          "name": "id",
          "type": "uint256"
        }
      ],
      "name": "createLimitedEdition",
      "outputs": [],
      "stateMutability": "nonpayable",
      "type": "function"
    },
    {
      "inputs": [],
      "name": "currentPhase",
      "outputs": [
        {
          "internalType": "uint8",
          "name": "",
          "type": "uint8"
        }
      ],
      "stateMutability": "view",
      "type": "function"
    },
    {
      "inputs": [
        {
          "internalType": "uint256",
          "name": "tokenId",
          "type": "uint256"
        }
      ],
      "name": "getApproved",
      "outputs": [
        {
          "internalType": "address",
          "name": "",
          "type": "address"
        }
      ],
      "stateMutability": "view",
      "type": "function"
    },
    {
      "inputs": [
        {
          "internalType": "bytes32",
          "name": "role",
          "type": "bytes32"
        }
      ],
      "name": "getRoleAdmin",
      "outputs": [
        {
          "internalType": "bytes32",
          "name": "",
          "type": "bytes32"
        }
      ],
      "stateMutability": "view",
      "type": "function"
    },
    {
      "inputs": [
        {
          "internalType": "bytes32",
          "name": "role",
          "type": "bytes32"
        },
        {
          "internalType": "uint256",
          "name": "index",
          "type": "uint256"
        }
      ],
      "name": "getRoleMember",
      "outputs": [
        {
          "internalType": "address",
          "name": "",
          "type": "address"
        }
      ],
      "stateMutability": "view",
      "type": "function"
    },
    {
      "inputs": [
        {
          "internalType": "bytes32",
          "name": "role",
          "type": "bytes32"
        }
      ],
      "name": "getRoleMemberCount",
      "outputs": [
        {
          "internalType": "uint256",
          "name": "",
          "type": "uint256"
        }
      ],
      "stateMutability": "view",
      "type": "function"
    },
    {
      "inputs": [
        {
          "internalType": "bytes32",
          "name": "role",
          "type": "bytes32"
        },
        {
          "internalType": "address",
          "name": "account",
          "type": "address"
        }
      ],
      "name": "grantRole",
      "outputs": [],
      "stateMutability": "nonpayable",
      "type": "function"
    },
    {
      "inputs": [
        {
          "internalType": "bytes32",
          "name": "role",
          "type": "bytes32"
        },
        {
          "internalType": "address",
          "name": "account",
          "type": "address"
        }
      ],
      "name": "hasRole",
      "outputs": [
        {
          "internalType": "bool",
          "name": "",
          "type": "bool"
        }
      ],
      "stateMutability": "view",
      "type": "function"
    },
    {
      "inputs": [
        {
          "internalType": "address",
          "name": "owner",
          "type": "address"
        },
        {
          "internalType": "address",
          "name": "operator",
          "type": "address"
        }
      ],
      "name": "isApprovedForAll",
      "outputs": [
        {
          "internalType": "bool",
          "name": "",
          "type": "bool"
        }
      ],
      "stateMutability": "view",
      "type": "function"
    },
    {
      "inputs": [
        {
          "internalType": "address",
          "name": "recipient",
          "type": "address"
        }
      ],
      "name": "mintPromo",
      "outputs": [],
      "stateMutability": "nonpayable",
      "type": "function"
    },
    {
      "inputs": [],
      "name": "name",
      "outputs": [
        {
          "internalType": "string",
          "name": "",
          "type": "string"
        }
      ],
      "stateMutability": "view",
      "type": "function"
    },
    {
      "inputs": [
        {
          "internalType": "uint256",
          "name": "tokenId",
          "type": "uint256"
        }
      ],
      "name": "ownerOf",
      "outputs": [
        {
          "internalType": "address",
          "name": "",
          "type": "address"
        }
      ],
      "stateMutability": "view",
      "type": "function"
    },
    {
      "inputs": [],
      "name": "paused",
      "outputs": [
        {
          "internalType": "bool",
          "name": "",
          "type": "bool"
        }
      ],
      "stateMutability": "view",
      "type": "function"
    },
    {
      "inputs": [],
      "name": "phaseCountdown",
      "outputs": [
        {
          "internalType": "uint256",
          "name": "",
          "type": "uint256"
        }
      ],
      "stateMutability": "view",
      "type": "function"
    },
    {
      "inputs": [],
      "name": "phaseCountdownTime",
      "outputs": [
        {
          "internalType": "uint32",
          "name": "",
          "type": "uint32"
        }
      ],
      "stateMutability": "view",
      "type": "function"
    },
    {
      "inputs": [],
      "name": "phaseLen",
      "outputs": [
        {
          "internalType": "uint16",
          "name": "",
          "type": "uint16"
        }
      ],
      "stateMutability": "view",
      "type": "function"
    },
    {
      "inputs": [],
      "name": "price",
      "outputs": [
        {
          "internalType": "uint256",
          "name": "",
          "type": "uint256"
        }
      ],
      "stateMutability": "view",
      "type": "function"
    },
    {
      "inputs": [
        {
          "internalType": "uint256",
          "name": "id",
          "type": "uint256"
        }
      ],
      "name": "readSettings",
      "outputs": [
        {
          "internalType": "uint8",
          "name": "bkg",
          "type": "uint8"
        },
        {
          "internalType": "uint8",
          "name": "duration",
          "type": "uint8"
        },
        {
          "internalType": "uint8",
          "name": "options",
          "type": "uint8"
        }
      ],
      "stateMutability": "view",
      "type": "function"
    },
    {
      "inputs": [],
      "name": "referalNewPercent",
      "outputs": [
        {
          "internalType": "uint256",
          "name": "",
          "type": "uint256"
        }
      ],
      "stateMutability": "view",
      "type": "function"
    },
    {
      "inputs": [],
      "name": "referalPercent",
      "outputs": [
        {
          "internalType": "uint256",
          "name": "",
          "type": "uint256"
        }
      ],
      "stateMutability": "view",
      "type": "function"
    },
    {
      "inputs": [
        {
          "internalType": "bytes32",
          "name": "role",
          "type": "bytes32"
        },
        {
          "internalType": "address",
          "name": "account",
          "type": "address"
        }
      ],
      "name": "renounceRole",
      "outputs": [],
      "stateMutability": "nonpayable",
      "type": "function"
    },
    {
      "inputs": [
        {
          "internalType": "bytes32",
          "name": "role",
          "type": "bytes32"
        },
        {
          "internalType": "address",
          "name": "account",
          "type": "address"
        }
      ],
      "name": "revokeRole",
      "outputs": [],
      "stateMutability": "nonpayable",
      "type": "function"
    },
    {
      "inputs": [
        {
          "internalType": "address",
          "name": "from",
          "type": "address"
        },
        {
          "internalType": "address",
          "name": "to",
          "type": "address"
        },
        {
          "internalType": "uint256",
          "name": "tokenId",
          "type": "uint256"
        }
      ],
      "name": "safeTransferFrom",
      "outputs": [],
      "stateMutability": "nonpayable",
      "type": "function"
    },
    {
      "inputs": [
        {
          "internalType": "address",
          "name": "from",
          "type": "address"
        },
        {
          "internalType": "address",
          "name": "to",
          "type": "address"
        },
        {
          "internalType": "uint256",
          "name": "tokenId",
          "type": "uint256"
        },
        {
          "internalType": "bytes",
          "name": "_data",
          "type": "bytes"
        }
      ],
      "name": "safeTransferFrom",
      "outputs": [],
      "stateMutability": "nonpayable",
      "type": "function"
    },
    {
      "inputs": [
        {
          "internalType": "address",
          "name": "operator",
          "type": "address"
        },
        {
          "internalType": "bool",
          "name": "approved",
          "type": "bool"
        }
      ],
      "name": "setApprovalForAll",
      "outputs": [],
      "stateMutability": "nonpayable",
      "type": "function"
    },
    {
      "inputs": [
        {
          "internalType": "string",
          "name": "_uri",
          "type": "string"
        }
      ],
      "name": "setBaseURI",
      "outputs": [],
      "stateMutability": "nonpayable",
      "type": "function"
    },
    {
      "inputs": [
        {
          "internalType": "string",
          "name": "_uri",
          "type": "string"
        }
      ],
      "name": "setContractURI",
      "outputs": [],
      "stateMutability": "nonpayable",
      "type": "function"
    },
    {
      "inputs": [
        {
          "internalType": "bool",
          "name": "state",
          "type": "bool"
        }
      ],
      "name": "setPause",
      "outputs": [],
      "stateMutability": "nonpayable",
      "type": "function"
    },
    {
      "inputs": [
        {
          "internalType": "address",
          "name": "rand",
          "type": "address"
        }
      ],
      "name": "setRandom",
      "outputs": [],
      "stateMutability": "nonpayable",
      "type": "function"
    },
    {
      "inputs": [
        {
          "internalType": "uint256",
          "name": "_id",
          "type": "uint256"
        },
        {
          "internalType": "string",
          "name": "_uri",
          "type": "string"
        }
      ],
      "name": "setTokenURI",
      "outputs": [],
      "stateMutability": "nonpayable",
      "type": "function"
    },
    {
      "inputs": [
        {
          "internalType": "uint256",
          "name": "startBlock",
          "type": "uint256"
        }
      ],
      "name": "startCountdown",
      "outputs": [],
      "stateMutability": "nonpayable",
      "type": "function"
    },
    {
      "inputs": [
        {
          "internalType": "bytes4",
          "name": "interfaceId",
          "type": "bytes4"
        }
      ],
      "name": "supportsInterface",
      "outputs": [
        {
          "internalType": "bool",
          "name": "",
          "type": "bool"
        }
      ],
      "stateMutability": "view",
      "type": "function"
    },
    {
      "inputs": [],
      "name": "symbol",
      "outputs": [
        {
          "internalType": "string",
          "name": "",
          "type": "string"
        }
      ],
      "stateMutability": "view",
      "type": "function"
    },
    {
      "inputs": [],
      "name": "testRandom",
      "outputs": [
        {
          "internalType": "bytes32",
          "name": "",
          "type": "bytes32"
        }
      ],
      "stateMutability": "view",
      "type": "function"
    },
    {
      "inputs": [
        {
          "internalType": "uint256",
          "name": "index",
          "type": "uint256"
        }
      ],
      "name": "tokenByIndex",
      "outputs": [
        {
          "internalType": "uint256",
          "name": "",
          "type": "uint256"
        }
      ],
      "stateMutability": "view",
      "type": "function"
    },
    {
      "inputs": [
        {
          "internalType": "uint256",
          "name": "_id",
          "type": "uint256"
        }
      ],
      "name": "tokenData",
      "outputs": [
        {
          "internalType": "uint128",
          "name": "randomness",
          "type": "uint128"
        },
        {
          "internalType": "uint256",
          "name": "animation",
          "type": "uint256"
        },
        {
          "internalType": "uint8",
          "name": "shapes",
          "type": "uint8"
        },
        {
          "internalType": "uint8",
          "name": "hatching",
          "type": "uint8"
        },
        {
          "internalType": "uint8[4]",
          "name": "size",
          "type": "uint8[4]"
        },
        {
          "internalType": "uint8[2]",
          "name": "spacing",
          "type": "uint8[2]"
        },
        {
          "internalType": "uint8",
          "name": "mirroring",
          "type": "uint8"
        },
        {
          "internalType": "uint16[3]",
          "name": "color",
          "type": "uint16[3]"
        },
        {
          "internalType": "uint8",
          "name": "contrast",
          "type": "uint8"
        },
        {
          "internalType": "uint8",
          "name": "shades",
          "type": "uint8"
        },
        {
          "internalType": "uint8",
          "name": "scheme",
          "type": "uint8"
        }
      ],
      "stateMutability": "view",
      "type": "function"
    },
    {
      "inputs": [
        {
          "internalType": "address",
          "name": "owner",
          "type": "address"
        },
        {
          "internalType": "uint256",
          "name": "index",
          "type": "uint256"
        }
      ],
      "name": "tokenOfOwnerByIndex",
      "outputs": [
        {
          "internalType": "uint256",
          "name": "",
          "type": "uint256"
        }
      ],
      "stateMutability": "view",
      "type": "function"
    },
    {
      "inputs": [
        {
          "internalType": "uint256",
          "name": "tokenId",
          "type": "uint256"
        }
      ],
      "name": "tokenURI",
      "outputs": [
        {
          "internalType": "string",
          "name": "",
          "type": "string"
        }
      ],
      "stateMutability": "view",
      "type": "function"
    },
    {
      "inputs": [],
      "name": "totalSupply",
      "outputs": [
        {
          "internalType": "uint256",
          "name": "",
          "type": "uint256"
        }
      ],
      "stateMutability": "view",
      "type": "function"
    },
    {
      "inputs": [
        {
          "internalType": "address",
          "name": "from",
          "type": "address"
        },
        {
          "internalType": "address",
          "name": "to",
          "type": "address"
        },
        {
          "internalType": "uint256",
          "name": "tokenId",
          "type": "uint256"
        }
      ],
      "name": "transferFrom",
      "outputs": [],
      "stateMutability": "nonpayable",
      "type": "function"
    },
    {
      "inputs": [
        {
          "internalType": "uint256",
          "name": "id",
          "type": "uint256"
        }
      ],
      "name": "trueID",
      "outputs": [
        {
          "internalType": "int8",
          "name": "",
          "type": "int8"
        }
      ],
      "stateMutability": "pure",
      "type": "function"
    },
    {
      "inputs": [
        {
          "internalType": "uint8",
          "name": "shapes",
          "type": "uint8"
        },
        {
          "internalType": "uint8",
          "name": "hatching",
          "type": "uint8"
        },
        {
          "internalType": "uint16[3]",
          "name": "color",
          "type": "uint16[3]"
        },
        {
          "internalType": "uint8[4]",
          "name": "size",
          "type": "uint8[4]"
        },
        {
          "internalType": "uint8[2]",
          "name": "position",
          "type": "uint8[2]"
        },
        {
          "internalType": "bool",
          "name": "exclusive",
          "type": "bool"
        }
      ],
      "name": "validateParams",
      "outputs": [],
      "stateMutability": "pure",
      "type": "function"
    },
    {
      "stateMutability": "payable",
      "type": "receive"
    }
  ],
  "bytecode": "0x6080604052600d8054600160a01b60ff60a01b19909116179055620000336078600f62000224602090811b620025b717901c565b600f556040518060600160405280602b8152602001620057ec602b9139805162000066916010916020909101906200043f565b506001601255600a601355600f6014556000196015556064601655601780546001600160a01b0319908116737a832c86002323a5de3a317b3281eb88ec3b2c0017909155601880549091167363a9dbce75413036b2b778e670aabd4493aaf9f3179055348015620000d657600080fd5b506040516200581738038062005817833981016040819052620000f991620004e1565b604080518082018252600981526854696e79426f78657360b81b602080830191909152825180840190935260068352655b235d5b235d60d01b908301528291620001536301ffc9a760e01b6001600160e01b036200027716565b8151620001689060069060208501906200043f565b5080516200017e9060079060208401906200043f565b506200019a6380ac58cd60e01b6001600160e01b036200027716565b620001b5635b5e139f60e01b6001600160e01b036200027716565b620001d063780e9d6360e01b6001600160e01b036200027716565b5050620001fd604051620001e49062000511565b604051908190039020336001600160e01b03620002d216565b600d80546001600160a01b0319166001600160a01b039290921691909117905550620005b4565b60006200026e83836040518060400160405280601a81526020017f536166654d6174683a206469766973696f6e206279207a65726f000000000000815250620002eb60201b60201c565b90505b92915050565b6001600160e01b03198082161415620002ad5760405162461bcd60e51b8152600401620002a4906200057d565b60405180910390fd5b6001600160e01b0319166000908152602081905260409020805460ff19166001179055565b620002e782826001600160e01b036200032616565b5050565b600081836200030f5760405162461bcd60e51b8152600401620002a4919062000527565b5060008385816200031c57fe5b0495945050505050565b6000828152600a602090815260409091206200034d918390620025f9620003aa821b17901c565b15620002e757620003666001600160e01b03620003ca16565b6001600160a01b0316816001600160a01b0316837f2f8788117e7eff1d82e926ec794901d17c78024a50270940304540a733656f0d60405160405180910390a45050565b60006200026e836001600160a01b0384166001600160e01b03620003cf16565b335b90565b6000620003e683836001600160e01b036200042716565b6200041e5750815460018181018455600084815260208082209093018490558454848252828601909352604090209190915562000271565b50600062000271565b60009081526001919091016020526040902054151590565b828054600181600116156101000203166002900490600052602060002090601f016020900481019282601f106200048257805160ff1916838001178555620004b2565b82800160010185558215620004b2579182015b82811115620004b257825182559160200191906001019062000495565b50620004c0929150620004c4565b5090565b620003cc91905b80821115620004c05760008155600101620004cb565b600060208284031215620004f3578081fd5b81516001600160a01b03811681146200050a578182fd5b9392505050565b6941444d494e5f524f4c4560b01b8152600a0190565b6000602080835283518082850152825b81811015620005555785810183015185820160400152820162000537565b81811115620005675783604083870101525b50601f01601f1916929092016040019392505050565b6020808252601c908201527f4552433136353a20696e76616c696420696e7465726661636520696400000000604082015260600190565b61522880620005c46000396000f3fe6080604052600436106103545760003560e01c8063824cac1a116101c6578063bedb86fb116100f7578063e985e9c511610095578063f7eaec7d1161006f578063f7eaec7d14610980578063fbddd14b14610995578063fc4ea939146109aa578063fd05dd6a146109bf57610364565b8063e985e9c514610936578063f19e148614610956578063f1d77baf1461096b57610364565b8063ca9c0bad116100d1578063ca9c0bad146108c1578063d547741f146108e1578063dbde522214610901578063e8a3d4851461092157610364565b8063bedb86fb14610861578063c87b56dd14610881578063ca15c873146108a157610364565b8063990cec8311610164578063a22cb4651161013e578063a22cb465146107d5578063b3174fa1146107f5578063b4b5b48f1461080a578063b88d4fde1461084157610364565b8063990cec8314610798578063a035b1fe146107ab578063a217fddf146107c057610364565b806391d14854116101a057806391d1485414610714578063938e3d7b14610734578063947e93d91461075457806395d89b411461078357610364565b8063824cac1a146106b457806387bd15ef146106d45780639010d07c146106f457610364565b806336568abe116102a05780636352211e1161023e57806371a0a0161161021857806371a0a0161461065557806375b238fc1461066a5780637b2feaaa1461067f5780637def753d1461069457610364565b80636352211e146106005780636c0360eb1461062057806370a082311461063557610364565b80634f6ccce71161027a5780634f6ccce71461058957806352410197146105a957806355f804b3146105cb5780635c975abb146105eb57610364565b806336568abe146105295780633c564cab1461054957806342842e0e1461056957610364565b80630e1b9b0e1161030d57806323b872dd116102e757806323b872dd146104a9578063248a9ca3146104c95780632f2ff15d146104e95780632f745c591461050957610364565b80630e1b9b0e14610452578063162094c41461046757806318160ddd1461048757610364565b806301ffc9a714610369578063031bd4c41461039f578063055ad42e146103c157806306fdde03146103e3578063081812fc14610405578063095ea7b31461043257610364565b3661036457610362346109ec565b005b600080fd5b34801561037557600080fd5b50610389610384366004614083565b610a9f565b6040516103969190614597565b60405180910390f35b3480156103ab57600080fd5b506103b4610ac2565b60405161039691906150b1565b3480156103cd57600080fd5b506103d6610ac7565b60405161039691906150d1565b3480156103ef57600080fd5b506103f8610ade565b60405161039691906145b0565b34801561041157600080fd5b50610425610420366004614003565b610b74565b6040516103969190614546565b34801561043e57600080fd5b5061036261044d366004613fb9565b610bc0565b34801561045e57600080fd5b506103d6610c53565b34801561047357600080fd5b506103626104823660046142b0565b610c58565b34801561049357600080fd5b5061049c610cb4565b6040516103969190614466565b3480156104b557600080fd5b506103626104c4366004613e98565b610cc0565b3480156104d557600080fd5b5061049c6104e4366004614003565b610cf8565b3480156104f557600080fd5b50610362610504366004614033565b610d0d565b34801561051557600080fd5b5061049c610524366004613fb9565b610d55565b34801561053557600080fd5b50610362610544366004614033565b610d86565b34801561055557600080fd5b5061036261056436600461428d565b610dc8565b34801561057557600080fd5b50610362610584366004613e98565b610f48565b34801561059557600080fd5b5061049c6105a4366004614003565b610f63565b3480156105b557600080fd5b506105be610f7f565b60405161039691906150c0565b3480156105d757600080fd5b506103626105e63660046140bb565b610f84565b3480156105f757600080fd5b50610389610fd2565b34801561060c57600080fd5b5061042561061b366004614003565b610fe2565b34801561062c57600080fd5b506103f8611010565b34801561064157600080fd5b5061049c610650366004613e49565b611071565b34801561066157600080fd5b506103d66110ba565b34801561067657600080fd5b5061049c6110bf565b34801561068b57600080fd5b5061049c6110d6565b3480156106a057600080fd5b506103626106af366004613e49565b6110dc565b3480156106c057600080fd5b506103626106cf3660046141c6565b61113b565b3480156106e057600080fd5b506103626106ef366004614003565b6115db565b34801561070057600080fd5b5061042561070f366004614062565b61161b565b34801561072057600080fd5b5061038961072f366004614033565b611639565b34801561074057600080fd5b5061036261074f3660046140bb565b611657565b34801561076057600080fd5b5061077461076f366004614003565b611672565b604051610396939291906150df565b34801561078f57600080fd5b506103f861179e565b61049c6107a63660046140fb565b6117ff565b3480156107b757600080fd5b5061049c611d3e565b3480156107cc57600080fd5b5061049c611d44565b3480156107e157600080fd5b506103626107f0366004613f8e565b611d49565b34801561080157600080fd5b506103b4611e17565b34801561081657600080fd5b5061082a610825366004614003565b611e1c565b6040516103969b9a99989796959493929190614ff4565b34801561084d57600080fd5b5061036261085c366004613ed8565b61207d565b34801561086d57600080fd5b5061036261087c366004613fe3565b6120bc565b34801561088d57600080fd5b506103f861089c366004614003565b6120e9565b3480156108ad57600080fd5b5061049c6108bc366004614003565b612233565b3480156108cd57600080fd5b506103626108dc366004613e49565b61224a565b3480156108ed57600080fd5b506103626108fc366004614033565b61227b565b34801561090d57600080fd5b5061036261091c366004614315565b6122b5565b34801561092d57600080fd5b506103f861244d565b34801561094257600080fd5b50610389610951366004613e64565b6124db565b34801561096257600080fd5b506103d6612509565b34801561097757600080fd5b5061049c61250e565b34801561098c57600080fd5b5061049c612514565b3480156109a157600080fd5b5061049c61251a565b3480156109b657600080fd5b5061049c6125b1565b3480156109cb57600080fd5b506109df6109da366004614003565b610adb565b60405161039691906145a2565b8015610a9c576000610a166064610a0a84603c63ffffffff61260e16565b9063ffffffff6125b716565b6017546040519192506001600160a01b03169082156108fc029083906000818181858888f19350505050158015610a51573d6000803e3d6000fd5b506018546001600160a01b03166108fc610a71848463ffffffff61264816565b6040518115909202916000818181858888f19350505050158015610a99573d6000803e3d6000fd5b50505b50565b6001600160e01b0319811660009081526020819052604090205460ff165b919050565b606e81565b6000610ad8600a610a0a600b61268a565b90505b90565b60068054604080516020601f6002600019610100600188161502019095169490940493840181900481028201810190925282815260609390929091830182828015610b6a5780601f10610b3f57610100808354040283529160200191610b6a565b820191906000526020600020905b815481529060010190602001808311610b4d57829003601f168201915b5050505050905090565b6000610b7f8261268e565b610ba45760405162461bcd60e51b8152600401610b9b90614b5a565b60405180910390fd5b506000908152600460205260409020546001600160a01b031690565b6000610bcb82610fe2565b9050806001600160a01b0316836001600160a01b03161415610bff5760405162461bcd60e51b8152600401610b9b90614d0d565b806001600160a01b0316610c116126a1565b6001600160a01b03161480610c2d5750610c2d816109516126a1565b610c495760405162461bcd60e51b8152600401610b9b906149a2565b610a9983836126a5565b601881565b610c74604051610c6790614530565b6040518091039020612713565b610a998383838080601f01602080910402602001604051908101604052809392919081815260200183838082843760009201919091525061273992505050565b6000610ad8600261277d565b610cd1610ccb6126a1565b82612788565b610ced5760405162461bcd60e51b8152600401610b9b90614d4e565b610a9983838361280d565b6000908152600a602052604090206002015490565b6000828152600a6020526040902060020154610d2b9061072f6126a1565b610d475760405162461bcd60e51b8152600401610b9b90614605565b610d51828261292d565b5050565b6001600160a01b0382166000908152600160205260408120610d7d908363ffffffff61299c16565b90505b92915050565b610d8e6126a1565b6001600160a01b0316816001600160a01b031614610dbe5760405162461bcd60e51b8152600401610b9b90614f4d565b610d5182826129a8565b610dd182610fe2565b6001600160a01b0316336001600160a01b03161480610e095750610df482610b74565b6001600160a01b0316336001600160a01b0316145b610e255760405162461bcd60e51b8152600401610b9b90614a49565b6065610e3460208301836142fa565b60ff161115610e555760405162461bcd60e51b8152600401610b9b906148e1565b6000610e6760408301602084016142fa565b60ff1611610e875760405162461bcd60e51b8152600401610b9b90614cb7565b610e9460208201826142fa565b6000838152601160205260409020805460ff92909216600160e81b0260ff60e81b19909216919091179055806001602002016020810190610ed591906142fa565b6000838152601160205260409020805460ff92909216600160f01b0260ff60f01b19909216919091179055806002602002016020810190610f1691906142fa565b600092835260116020526040909220805460ff93909316600160f81b026001600160f81b039093169290921790915550565b610a998383836040518060200160405280600081525061207d565b600080610f7760028463ffffffff612a1716565b509392505050565b607881565b610f93604051610c6790614530565b610d5182828080601f016020809104026020016040519081016040528093929190818152602001838380828437600092019190915250612a3592505050565b600d54600160a01b900460ff1681565b6000610d80826040518060600160405280602981526020016151ca602991396002919063ffffffff612a4816565b60098054604080516020601f6002600019610100600188161502019095169490940493840181900481028201810190925282815260609390929091830182828015610b6a5780601f10610b3f57610100808354040283529160200191610b6a565b60006001600160a01b0382166110995760405162461bcd60e51b8152600401610b9b906149ff565b6001600160a01b0382166000908152600160205260409020610d809061277d565b600b81565b6040516110cb90614530565b604051809103902081565b600e5481565b6110eb604051610c6790614530565b6016546110f8600c61268a565b106111155760405162461bcd60e51b8152600401610b9b90614692565b6000611121600c61268a565b6015540390506111318282612a5f565b610d51600c612a79565b611143612a82565b3361114d82610fe2565b6001600160a01b0316146111735760405162461bcd60e51b8152600401610b9b90614e1c565b600081815260116020526040902054600160a01b900460ff16156111a95760405162461bcd60e51b8152600401610b9b90614dfe565b61122787878760038060200260405190810160405280929190826003602002808284376000920191909152505060408051608081810190925291508990600490839083908082843760009201919091525050604080518082018252915089906002908390839080828437600092019190915250600191506122b59050565b6040805161020081019091526001600160801b03891681526020808201906112519088018861426b565b61ffff16815260209081019061126d906040890190890161426b565b60ff168152602001611285606088016040890161426b565b60ff90811682528981166020830152881660408201526060018560006020020160208101906112b491906142fa565b60ff1681526020908101906112cf90604088019088016142fa565b60ff1681526020016112e760608701604088016142fa565b60ff1681526020016112ff60808701606088016142fa565b60ff168152602090810190611316908601866142fa565b60ff16815260209081019061133190604087019087016142fa565b60ff1681526020018360ff168152602001600060ff168152602001600a60ff168152602001600160ff168152506011600083815260200190815260200160002060008201518160000160006101000a8154816001600160801b0302191690836001600160801b0316021790555060208201518160000160106101000a81548161ffff021916908361ffff16021790555060408201518160000160126101000a81548160ff021916908360ff16021790555060608201518160000160136101000a81548160ff021916908360ff16021790555060808201518160000160146101000a81548160ff021916908360ff16021790555060a08201518160000160156101000a81548160ff021916908360ff16021790555060c08201518160000160166101000a81548160ff021916908360ff16021790555060e08201518160000160176101000a81548160ff021916908360ff1602179055506101008201518160000160186101000a81548160ff021916908360ff1602179055506101208201518160000160196101000a81548160ff021916908360ff16021790555061014082015181600001601a6101000a81548160ff021916908360ff16021790555061016082015181600001601b6101000a81548160ff021916908360ff16021790555061018082015181600001601c6101000a81548160ff021916908360ff1602179055506101a082015181600001601d6101000a81548160ff021916908360ff1602179055506101c082015181600001601e6101000a81548160ff021916908360ff1602179055506101e082015181600001601f6101000a81548160ff021916908360ff1602179055509050507feaa4f184b7f3d10bde81fc2d884889a91fbadf176d0ecc02895ab30b5aba08ef816040516115c99190614466565b60405180910390a15050505050505050565b6115ea604051610c6790614530565b4381116116095760405162461bcd60e51b8152600401610b9b90614e3a565b600e55600d805460ff60a01b19169055565b6000828152600a60205260408120610d7d908363ffffffff61299c16565b6000828152600a60205260408120610d7d908363ffffffff612aae16565b611666604051610c6790614530565b610a9960108383613a9f565b600080600061167f613b1d565b5050506000918252506011602090815260409182902082516102008101845290546001600160801b038116825261ffff600160801b8204169282019290925260ff600160901b8304811693820193909352600160981b820483166060820152600160a01b820483166080820152600160a81b8204831660a0820152600160b01b8204831660c0820152600160b81b8204831660e0820152600160c01b82048316610100820152600160c81b82048316610120820152600160d01b82048316610140820152600160d81b82048316610160820152600160e01b82048316610180820152600160e81b820483166101a08201819052600160f01b830484166101c08301819052600160f81b9093049093166101e09091018190529192909190565b60078054604080516020601f6002600019610100600188161502019095169490940493840181900481028201810190925282815260609390929091830182828015610b6a5780601f10610b3f57610100808354040283529160200191610b6a565b6000611809612ac3565b611811612a82565b611819612aec565b6118238284612b0e565b61189e89898960038060200260405190810160405280929190826003602002808284376000920191909152505060408051608081810190925291508b9060049083908390808284376000920191909152505060408051808201825291508b906002908390839080828437600092018290525091506122b59050565b6001600160a01b0383166118c45760405162461bcd60e51b8152600401610b9b90614f1d565b60006118d0600b61268a565b90506118dc600b612a79565b6118f7600a6118eb600b61268a565b9063ffffffff612c8616565b61192c5761192861191b611909610ac7565b600f549060ff1663ffffffff61260e16565b439063ffffffff612cc816565b600e555b600061196d8d8d8080601f016020809104026020016040519081016040528093929190818152602001838380828437600092019190915250612ced92505050565b9050600061197b8383612d46565b9050604051806102000160405280826001600160801b031681526020018b6000600381106119a557fe5b6020020160208101906119b8919061426b565b61ffff16815260200160c86001600160801b038416066001600160801b03166000146119f3576119ee60408d0160208e0161426b565b6119f6565b60005b60ff168152602001611a0e60608d0160408e0161426b565b60ff90811682528e811660208301528d1660408201526060018a6000602002016020810190611a3d91906142fa565b60ff168152602090810190611a589060408d01908d016142fa565b60ff168152602001611a7060608c0160408d016142fa565b60ff168152602001611a8860808c0160608d016142fa565b60ff168152602090810190611a9f908b018b6142fa565b60ff168152602090810190611aba9060408c01908c016142fa565b60ff1681526020018860ff168152602001600060ff168152602001600a60ff168152602001600160ff168152506011600085815260200190815260200160002060008201518160000160006101000a8154816001600160801b0302191690836001600160801b0316021790555060208201518160000160106101000a81548161ffff021916908361ffff16021790555060408201518160000160126101000a81548160ff021916908360ff16021790555060608201518160000160136101000a81548160ff021916908360ff16021790555060808201518160000160146101000a81548160ff021916908360ff16021790555060a08201518160000160156101000a81548160ff021916908360ff16021790555060c08201518160000160166101000a81548160ff021916908360ff16021790555060e08201518160000160176101000a81548160ff021916908360ff1602179055506101008201518160000160186101000a81548160ff021916908360ff1602179055506101208201518160000160196101000a81548160ff021916908360ff16021790555061014082015181600001601a6101000a81548160ff021916908360ff16021790555061016082015181600001601b6101000a81548160ff021916908360ff16021790555061018082015181600001601c6101000a81548160ff021916908360ff1602179055506101a082015181600001601d6101000a81548160ff021916908360ff1602179055506101c082015181600001601e6101000a81548160ff021916908360ff1602179055506101e082015181600001601f6101000a81548160ff021916908360ff160217905550905050611d2d8684612a5f565b5050509a9950505050505050505050565b60125481565b600081565b611d516126a1565b6001600160a01b0316826001600160a01b03161415611d825760405162461bcd60e51b8152600401610b9b90614869565b8060056000611d8f6126a1565b6001600160a01b03908116825260208083019390935260409182016000908120918716808252919093529120805460ff191692151592909217909155611dd36126a1565b6001600160a01b03167f17307eab39ab6107e8899845ad3d59bd9653f200f220920489ca2b5937696c3183604051611e0b9190614597565b60405180910390a35050565b600a81565b600080600080611e2a613ba1565b611e32613bbf565b6000611e3c613bdd565b6000806000611e49613b1d565b5060008c81526011602090815260409182902082516102008101845290546001600160801b038116825261ffff600160801b8204169282019290925260ff600160901b8304811693820193909352600160981b820483166060820152600160a01b820483166080820152600160a81b8204831660a0820152600160b01b8204831660c0820152600160b81b8204831660e0820152600160c01b82048316610100820152600160c81b82048316610120820152600160d01b82048316610140820152600160d81b82048316610160820152600160e01b82048316610180820152600160e81b820483166101a0820152600160f01b820483166101c0820152600160f81b9091049091166101e0820152611f5f613ba1565b611f69828f612e0c565b9050806000602002015160ff169b5080600160200201519250806002602002015193508060036020020151945081600001519c50816101800151965081608001519a508160a0015199506040518060600160405280836020015161ffff1661ffff168152602001836040015160ff1661ffff168152602001836060015160ff1661ffff16815250955060405180608001604052808360c0015160ff1660ff1681526020018360e0015160ff1660ff16815260200183610100015160ff1660ff16815260200183610120015160ff1660ff168152509850604051806040016040528083610140015160ff1660ff16815260200183610160015160ff1660ff168152509750505091939597999b90929496989a50565b61208e6120886126a1565b83612788565b6120aa5760405162461bcd60e51b8152600401610b9b90614d4e565b6120b684848484613019565b50505050565b6120cb604051610c6790614530565b600d8054911515600160a01b0260ff60a01b19909216919091179055565b60606120f48261268e565b6121105760405162461bcd60e51b8152600401610b9b90614c68565b60008281526008602090815260409182902080548351601f60026000196101006001861615020190931692909204918201849004840281018401909452808452606093928301828280156121a55780601f1061217a576101008083540402835291602001916121a5565b820191906000526020600020905b81548152906001019060200180831161218857829003601f168201915b5050600954939450505050600260001961010060018416150201909116046121ce579050610abd565b805115612200576009816040516020016121e99291906144af565b604051602081830303815290604052915050610abd565b600961220b8461304c565b60405160200161221c9291906144af565b604051602081830303815290604052915050919050565b6000818152600a60205260408120610d809061277d565b612259604051610c6790614530565b600d80546001600160a01b0319166001600160a01b0392909216919091179055565b6000828152600a60205260409020600201546122999061072f6126a1565b610dbe5760405162461bcd60e51b8152600401610b9b90614952565b60008660ff161180156122cb5750601f8660ff16105b6122e75760405162461bcd60e51b8152600401610b9b90614bf2565b8560ff168560ff16111561230d5760405162461bcd60e51b8152600401610b9b906147fb565b610168846002602002015161ffff16111561233a5760405162461bcd60e51b8152600401610b9b906146b3565b6064846001602002015161ffff1611156123665760405162461bcd60e51b8152600401610b9b90614ce1565b80612397576014846001602002015161ffff1610156123975760405162461bcd60e51b8152600401610b9b90614ce1565b6064846002602002015161ffff1611156123c35760405162461bcd60e51b8152600401610b9b90614f9c565b6020830151835160ff918216911611156123ef5760405162461bcd60e51b8152600401610b9b90614fc7565b6060830151604084015160ff9182169116111561241e5760405162461bcd60e51b8152600401610b9b90614e68565b8151606460ff90911611156124455760405162461bcd60e51b8152600401610b9b90614dd6565b505050505050565b6010805460408051602060026001851615610100026000190190941693909304601f810184900484028201840190925281815292918301828280156124d35780601f106124a8576101008083540402835291602001916124d3565b820191906000526020600020905b8154815290600101906020018083116124b657829003601f168201915b505050505081565b6001600160a01b03918216600090815260056020908152604080832093909416825291909152205460ff1690565b600f81565b60145481565b60135481565b600061252b604051610c6790614530565b600d60009054906101000a90046001600160a01b03166001600160a01b031663990c8f796040518163ffffffff1660e01b815260040160206040518083038186803b15801561257957600080fd5b505afa15801561258d573d6000803e3d6000fd5b505050506040513d601f19601f82011682018060405250810190610ad8919061401b565b600f5481565b6000610d7d83836040518060400160405280601a81526020017f536166654d6174683a206469766973696f6e206279207a65726f000000000000815250613127565b6000610d7d836001600160a01b03841661315e565b60008261261d57506000610d80565b8282028284828161262a57fe5b0414610d7d5760405162461bcd60e51b8152600401610b9b90614b19565b6000610d7d83836040518060400160405280601e81526020017f536166654d6174683a207375627472616374696f6e206f766572666c6f7700008152506131a8565b5490565b6000610d8060028363ffffffff6131d416565b3390565b600081815260046020526040902080546001600160a01b0319166001600160a01b03841690811790915581906126da82610fe2565b6001600160a01b03167f8c5be1e5ebec7d5bd14f71427d1e84f3dd0314c0f7b2291e5b200ac8c7c3b92560405160405180910390a45050565b61271d8133611639565b610a9c5760405162461bcd60e51b8152600401610b9b90614e96565b6127428261268e565b61275e5760405162461bcd60e51b8152600401610b9b90614ba6565b60008281526008602090815260409091208251610a9992840190613bfb565b6000610d808261268a565b60006127938261268e565b6127af5760405162461bcd60e51b8152600401610b9b90614906565b60006127ba83610fe2565b9050806001600160a01b0316846001600160a01b031614806127f55750836001600160a01b03166127ea84610b74565b6001600160a01b0316145b80612805575061280581856124db565b949350505050565b826001600160a01b031661282082610fe2565b6001600160a01b0316146128465760405162461bcd60e51b8152600401610b9b90614c1f565b6001600160a01b03821661286c5760405162461bcd60e51b8152600401610b9b90614825565b612877838383610a99565b6128826000826126a5565b6001600160a01b03831660009081526001602052604090206128aa908263ffffffff6131e016565b506001600160a01b03821660009081526001602052604090206128d3908263ffffffff6131ec16565b506128e66002828463ffffffff6131f816565b5080826001600160a01b0316846001600160a01b03167fddf252ad1be2c89b69c2b068fc378daa952ba7f163c4a11628f55a4df523b3ef60405160405180910390a4505050565b6000828152600a6020526040902061294b908263ffffffff6125f916565b15610d51576129586126a1565b6001600160a01b0316816001600160a01b0316837f2f8788117e7eff1d82e926ec794901d17c78024a50270940304540a733656f0d60405160405180910390a45050565b6000610d7d838361320e565b6000828152600a602052604090206129c6908263ffffffff61325316565b15610d51576129d36126a1565b6001600160a01b0316816001600160a01b0316837ff6391f5c32d9c69d2a47ea670b442974b53935d1edc7fd64eb21e047a839171b60405160405180910390a45050565b6000808080612a268686613268565b909450925050505b9250929050565b8051610d51906009906020840190613bfb565b6000612a558484846132c4565b90505b9392505050565b610d51828260405180602001604052806000815250613323565b80546001019055565b600d54600160a01b900460ff1615612aac5760405162461bcd60e51b8152600401610b9b90614654565b565b6000610d7d836001600160a01b038416613356565b606e612acf600b61268a565b10612aac5760405162461bcd60e51b8152600401610b9b9061472c565b600e54431015612aac5760405162461bcd60e51b8152600401610b9b90614674565b601254341015612b305760405162461bcd60e51b8152600401610b9b90614a75565b601254341115612b7e5760125433906108fc90612b5490349063ffffffff61264816565b6040518115909202916000818181858888f19350505050158015612b7c573d6000803e3d6000fd5b505b6000612b898361268e565b612b935732612b9c565b612b9c83610fe2565b90506000612ba932611071565b15612bb657601354612bba565b6014545b905060006001600160a01b0383163314801590612be057506001600160a01b0383163214155b8015612bfe5750836001600160a01b0316836001600160a01b031614155b612c09576000612c23565b612c236064610a0a8460125461260e90919063ffffffff16565b90508015612c63576040516001600160a01b0384169082156108fc029083906000818181858888f19350505050158015612c61573d6000803e3d6000fd5b505b601254612c7f90612c7a908363ffffffff61264816565b6109ec565b5050505050565b6000610d7d83836040518060400160405280601881526020017f536166654d6174683a206d6f64756c6f206279207a65726f000000000000000081525061336e565b600082820183811015610d7d5760405162461bcd60e51b8152600401610b9b9061478d565b600081815b8151811015612d3f576000828281518110612d0957fe5b016020015160f81c905060308110801590612d25575060398111155b15612d36576030810384600a020193505b50600101612cf2565b5050919050565b600080600d60009054906101000a90046001600160a01b03166001600160a01b031663990c8f796040518163ffffffff1660e01b815260040160206040518083038186803b158015612d9757600080fd5b505afa158015612dab573d6000803e3d6000fd5b505050506040513d601f19601f82011682018060405250810190612dcf919061401b565b8484604051602001612de39392919061447d565b60408051808303601f1901815291905280516020909101206001600160801b0316949350505050565b612e14613ba1565b606e821015612fc2576060612e3584600001516001600160801b03166133a2565b9050612e3f613c69565b506040805160e0810182526001808252600260208301819052600593830184905260096060840152608083019390935260a082019290925260c0810191909152612e87613c87565b506040805161030081018252600180825260208201819052918101829052606081018290526080810182905260a0810182905260c0810182905260e08101829052610100810182905261012081018290526101408101829052610160810182905261018081018290526101a081018290526101c081018290526101e08101829052610200810182905261022081018290526102408101829052610260810182905261028081018290526102a081018290526102c081018290526102e0810191909152612f5b8382601863ffffffff61345916565b60ff168452612f6b85600a6125b7565b60ff166020850152612f936001612f84858560196134c9565b60ff169063ffffffff612cc816565b60ff90811660408601526060870151612fb19185916000911661351a565b60ff16606085015250610d80915050565b825160ff6001607b1b6001600160801b03928316041682528351600160771b90821604600f1660208301528351600160741b90821604600716604083015292516001606d1b931692909204607f1660608301525090565b61302484848461280d565b6130308484848461355d565b6120b65760405162461bcd60e51b8152600401610b9b906146da565b60608161307157506040805180820190915260018152600360fc1b6020820152610abd565b8160005b811561308957600101600a82049150613075565b60608167ffffffffffffffff811180156130a257600080fd5b506040519080825280601f01601f1916602001820160405280156130cd576020820181803683370190505b50859350905060001982015b831561311e57600a840660300160f81b828280600190039350815181106130fc57fe5b60200101906001600160f81b031916908160001a905350600a840493506130d9565b50949350505050565b600081836131485760405162461bcd60e51b8152600401610b9b91906145b0565b50600083858161315457fe5b0495945050505050565b600061316a8383613356565b6131a057508154600181810184556000848152602080822090930184905584548482528286019093526040902091909155610d80565b506000610d80565b600081848411156131cc5760405162461bcd60e51b8152600401610b9b91906145b0565b505050900390565b6000610d7d8383613356565b6000610d7d8383613642565b6000610d7d838361315e565b6000612a5584846001600160a01b038516613708565b815460009082106132315760405162461bcd60e51b8152600401610b9b906145c3565b82600001828154811061324057fe5b9060005260206000200154905092915050565b6000610d7d836001600160a01b038416613642565b81546000908190831061328d5760405162461bcd60e51b8152600401610b9b90614aa2565b600084600001848154811061329e57fe5b906000526020600020906002020190508060000154816001015492509250509250929050565b600082815260018401602052604081205482816132f45760405162461bcd60e51b8152600401610b9b91906145b0565b5084600001600182038154811061330757fe5b9060005260206000209060020201600101549150509392505050565b61332d838361379f565b61333a600084848461355d565b610a995760405162461bcd60e51b8152600401610b9b906146da565b60009081526001919091016020526040902054151590565b6000818361338f5760405162461bcd60e51b8152600401610b9b91906145b0565b5082848161339957fe5b06949350505050565b604080516003808252608082019092526060916002918391602082018380368337019050509050600080856040516020016133de92919061446f565b60408051601f198184030181529190528051602090910120905060005b8381101561344f5780408260405160200161341792919061446f565b6040516020818303038152906040528051906020012083826001018151811061343c57fe5b60209081029190910101526001016133fb565b5090949350505050565b60008061346b8560018560ff1661351a565b90506000805b60188160ff1610156134bf576134a4868260ff166018811061348f57fe5b6020020151839060ff1663ffffffff61386f16565b91508183136134b7579250612a58915050565b600101613471565b5050509392505050565b6000806134db8560018560ff1661351a565b90506000805b60078160ff1610156134bf576134ff868260ff166007811061348f57fe5b9150818313613512579250612a58915050565b6001016134e1565b60008183131561353c5760405162461bcd60e51b8152600401610b9b90614ee8565b8283830360010161354c866138b5565b8161355357fe5b0601949350505050565b6000613571846001600160a01b0316613998565b61357d57506001612805565b606061360b630a85bd0160e11b6135926126a1565b8887876040516024016135a8949392919061455a565b604051602081830303815290604052906001600160e01b0319166020820180516001600160e01b038381831617835250505050604051806060016040528060328152602001615198603291396001600160a01b038816919063ffffffff6139d116565b9050600081806020019051810190613623919061409f565b6001600160e01b031916630a85bd0160e11b1492505050949350505050565b600081815260018301602052604081205480156136fe578354600019808301919081019060009087908390811061367557fe5b906000526020600020015490508087600001848154811061369257fe5b6000918252602080832090910192909255828152600189810190925260409020908401905586548790806136c257fe5b60019003818190600052602060002001600090559055866001016000878152602001908152602001600020600090556001945050505050610d80565b6000915050610d80565b60008281526001840160205260408120548061376d575050604080518082018252838152602080820184815286546001818101895560008981528481209551600290930290950191825591519082015586548684528188019092529290912055612a58565b8285600001600183038154811061378057fe5b9060005260206000209060020201600101819055506000915050612a58565b6001600160a01b0382166137c55760405162461bcd60e51b8152600401610b9b90614ae4565b6137ce8161268e565b156137eb5760405162461bcd60e51b8152600401610b9b90614756565b6137f760008383610a99565b6001600160a01b038216600090815260016020526040902061381f908263ffffffff6131ec16565b506138326002828463ffffffff6131f816565b5060405181906001600160a01b038416906000907fddf252ad1be2c89b69c2b068fc378daa952ba7f163c4a11628f55a4df523b3ef908290a45050565b60008282018183128015906138845750838112155b80613899575060008312801561389957508381125b610d7d5760405162461bcd60e51b8152600401610b9b906148a0565b600060018251116138d85760405162461bcd60e51b8152600401610b9b906147c4565b60006001835103836000815181106138ec57fe5b602002602001015160001c816138fe57fe5b066001019050600083828151811061391257fe5b602002602001015160405160200161392a9190614466565b6040516020818303038152906040528051906020012090508360008151811061394f57fe5b602002602001015160001c60010160001b8460008151811061396d57fe5b6020026020010181815250508084838151811061398657fe5b60209081029190910101529392505050565b6000813f7fc5d2460186f7233c927e7db2dcc703c0e500b653ca82273b7bfad8045d85a470818114801590612805575050151592915050565b6060612a55848460008560606139e685613998565b613a025760405162461bcd60e51b8152600401610b9b90614d9f565b60006060866001600160a01b03168587604051613a1f9190614493565b60006040518083038185875af1925050503d8060008114613a5c576040519150601f19603f3d011682016040523d82523d6000602084013e613a61565b606091505b50915091508115613a755791506128059050565b805115613a855780518082602001fd5b8360405162461bcd60e51b8152600401610b9b91906145b0565b828054600181600116156101000203166002900490600052602060002090601f016020900481019282601f10613ae05782800160ff19823516178555613b0d565b82800160010185558215613b0d579182015b82811115613b0d578235825591602001919060010190613af2565b50613b19929150613ca6565b5090565b6040805161020081018252600080825260208201819052918101829052606081018290526080810182905260a0810182905260c0810182905260e08101829052610100810182905261012081018290526101408101829052610160810182905261018081018290526101a081018290526101c081018290526101e081019190915290565b60405180608001604052806004906020820280368337509192915050565b60405180604001604052806002906020820280368337509192915050565b60405180606001604052806003906020820280368337509192915050565b828054600181600116156101000203166002900490600052602060002090601f016020900481019282601f10613c3c57805160ff1916838001178555613b0d565b82800160010185558215613b0d579182015b82811115613b0d578251825591602001919060010190613c4e565b6040518060e001604052806007906020820280368337509192915050565b6040518061030001604052806018906020820280368337509192915050565b610adb91905b80821115613b195760008155600101613cac565b80356001600160a01b0381168114610d8057600080fd5b8060608101831015610d8057600080fd5b8060408101831015610d8057600080fd5b600082601f830112613d09578081fd5b613d1360406150fc565b9050808284604085011115613d2757600080fd5b6000805b6002811015613d5957823560ff81168114613d44578283fd5b84526020938401939290920191600101613d2b565b5050505092915050565b8060808101831015610d8057600080fd5b600082601f830112613d84578081fd5b613d8e60806150fc565b9050808284608085011115613da257600080fd5b60005b6004811015613dcd57613db88683613e38565b83526020928301929190910190600101613da5565b50505092915050565b80358015158114610d8057600080fd5b60008083601f840112613df7578182fd5b50813567ffffffffffffffff811115613e0e578182fd5b602083019150836020828501011115612a2e57600080fd5b803561ffff81168114610d8057600080fd5b803560ff81168114610d8057600080fd5b600060208284031215613e5a578081fd5b610d7d8383613cc0565b60008060408385031215613e76578081fd5b613e808484613cc0565b9150613e8f8460208501613cc0565b90509250929050565b600080600060608486031215613eac578081fd5b8335613eb78161516c565b92506020840135613ec78161516c565b929592945050506040919091013590565b60008060008060808587031215613eed578081fd5b613ef78686613cc0565b93506020613f0787828801613cc0565b935060408601359250606086013567ffffffffffffffff80821115613f2a578384fd5b81880189601f820112613f3b578485fd5b8035925081831115613f4b578485fd5b613f5d601f8401601f191685016150fc565b91508282528984848301011115613f72578485fd5b8284820185840137509081019091019190915292959194509250565b60008060408385031215613fa0578182fd5b613faa8484613cc0565b9150613e8f8460208501613dd6565b60008060408385031215613fcb578182fd5b613fd58484613cc0565b946020939093013593505050565b600060208284031215613ff4578081fd5b81358015158114610d7d578182fd5b600060208284031215614014578081fd5b5035919050565b60006020828403121561402c578081fd5b5051919050565b60008060408385031215614045578182fd5b8235915060208301356140578161516c565b809150509250929050565b60008060408385031215614074578182fd5b50508035926020909101359150565b600060208284031215614094578081fd5b8135610d7d81615181565b6000602082840312156140b0578081fd5b8151610d7d81615181565b600080602083850312156140cd578182fd5b823567ffffffffffffffff8111156140e3578283fd5b6140ef85828601613de6565b90969095509350505050565b6000806000806000806000806000806101e08b8d03121561411a578788fd5b8a3567ffffffffffffffff811115614130578889fd5b61413c8d828e01613de6565b909b50995061415090508c60208d01613e38565b975061415f8c60408d01613e38565b965061416e8c60608d01613cd7565b955061417d8c60c08d01613d63565b945061418d8c6101408d01613ce8565b935061419d8c6101808d01613e38565b92506141ad8c6101a08d01613cc0565b91506101c08b013590509295989b9194979a5092959850565b6000806000806000806000806101c0898b0312156141e2578182fd5b88356001600160801b03811681146141f8578283fd5b97506142078a60208b01613e38565b96506142168a60408b01613e38565b95506142258a60608b01613cd7565b94506142348a60c08b01613d63565b93506142448a6101408b01613ce8565b92506142548a6101808b01613e38565b91506101a089013590509295985092959890939650565b60006020828403121561427c578081fd5b813561ffff81168114610d7d578182fd5b6000806080838503121561429f578182fd5b82359150613e8f8460208501613cd7565b6000806000604084860312156142c4578081fd5b83359250602084013567ffffffffffffffff8111156142e1578182fd5b6142ed86828701613de6565b9497909650939450505050565b60006020828403121561430b578081fd5b610d7d8383613e38565b600080600080600080610180878903121561432e578384fd5b6143388888613e38565b9550602061434889828a01613e38565b955088605f890112614358578485fd5b600361436b61436682615123565b6150fc565b8060408b0160a08c018d81111561438057898afd5b895b858110156143a6576143948f84613e26565b85529386019391860191600101614382565b508299506143b48e82613d74565b98505050505050506143ca886101208901613cf9565b91506143da886101608901613dd6565b90509295509295509295565b8060005b60038110156120b657815161ffff168452602093840193909101906001016143ea565b8060005b60028110156120b657815160ff16845260209384019390910190600101614411565b6000815180845261444b816020860160208601615140565b601f01601f19169290920160200192915050565b60ff169052565b90815260200190565b918252602082015260400190565b9283526020830191909152604082015260600190565b600082516144a5818460208701615140565b9190910192915050565b60008084546001808216600081146144ce57600181146144e557614514565b60ff198316865260028304607f1686019350614514565b600283048886526020808720875b8381101561450c5781548a8201529085019082016144f3565b505050860193505b5050508351614527818360208801615140565b01949350505050565b6941444d494e5f524f4c4560b01b8152600a0190565b6001600160a01b0391909116815260200190565b6001600160a01b038581168252841660208201526040810183905260806060820181905260009061458d90830184614433565b9695505050505050565b901515815260200190565b60009190910b815260200190565b600060208252610d7d6020830184614433565b60208082526022908201527f456e756d657261626c655365743a20696e646578206f7574206f6620626f756e604082015261647360f01b606082015260800190565b6020808252602f908201527f416363657373436f6e74726f6c3a2073656e646572206d75737420626520616e60408201526e0818591b5a5b881d1bc819dc985b9d608a1b606082015260800190565b60208082526006908201526514185d5cd95960d21b604082015260600190565b60208082526004908201526315d0525560e21b604082015260600190565b6020808252600790820152664e4f204d4f524560c81b604082015260600190565b6020808252600d908201526c34b73b30b634b21031b7b637b960991b604082015260600190565b60208082526032908201527f4552433732313a207472616e7366657220746f206e6f6e20455243373231526560408201527131b2b4bb32b91034b6b83632b6b2b73a32b960711b606082015260800190565b60208082526010908201526f20a92a1029a0a6229024a99027ab22a960811b604082015260600190565b6020808252601c908201527f4552433732313a20746f6b656e20616c7265616479206d696e74656400000000604082015260600190565b6020808252601b908201527f536166654d6174683a206164646974696f6e206f766572666c6f770000000000604082015260600190565b60208082526019908201527f52616e646f6d2e6e6578743a20696e76616c696420706f6f6c00000000000000604082015260600190565b60208082526010908201526f696e76616c6964206861746368696e6760801b604082015260600190565b60208082526024908201527f4552433732313a207472616e7366657220746f20746865207a65726f206164646040820152637265737360e01b606082015260800190565b60208082526019908201527f4552433732313a20617070726f766520746f2063616c6c657200000000000000604082015260600190565b60208082526021908201527f5369676e6564536166654d6174683a206164646974696f6e206f766572666c6f6040820152607760f81b606082015260800190565b6020808252600b908201526a496e76616c696420426b6760a81b604082015260600190565b6020808252602c908201527f4552433732313a206f70657261746f7220717565727920666f72206e6f6e657860408201526b34b9ba32b73a103a37b5b2b760a11b606082015260800190565b60208082526030908201527f416363657373436f6e74726f6c3a2073656e646572206d75737420626520616e60408201526f2061646d696e20746f207265766f6b6560801b606082015260800190565b60208082526038908201527f4552433732313a20617070726f76652063616c6c6572206973206e6f74206f7760408201527f6e6572206e6f7220617070726f76656420666f7220616c6c0000000000000000606082015260800190565b6020808252602a908201527f4552433732313a2062616c616e636520717565727920666f7220746865207a65604082015269726f206164647265737360b01b606082015260800190565b602080825260129082015271496e7375662e205065726d697373696f6e7360701b604082015260600190565b6020808252601390820152721a5b9cdd599a58da595b9d081c185e5b595b9d606a1b604082015260600190565b60208082526022908201527f456e756d657261626c654d61703a20696e646578206f7574206f6620626f756e604082015261647360f01b606082015260800190565b6020808252818101527f4552433732313a206d696e7420746f20746865207a65726f2061646472657373604082015260600190565b60208082526021908201527f536166654d6174683a206d756c7469706c69636174696f6e206f766572666c6f6040820152607760f81b606082015260800190565b6020808252602c908201527f4552433732313a20617070726f76656420717565727920666f72206e6f6e657860408201526b34b9ba32b73a103a37b5b2b760a11b606082015260800190565b6020808252602c908201527f4552433732314d657461646174613a2055524920736574206f66206e6f6e657860408201526b34b9ba32b73a103a37b5b2b760a11b606082015260800190565b6020808252601390820152721a5b9d985b1a59081cda185c194818dbdd5b9d606a1b604082015260600190565b60208082526029908201527f4552433732313a207472616e73666572206f6620746f6b656e2074686174206960408201526839903737ba1037bbb760b91b606082015260800190565b6020808252602f908201527f4552433732314d657461646174613a2055524920717565727920666f72206e6f60408201526e3732bc34b9ba32b73a103a37b5b2b760891b606082015260800190565b60208082526010908201526f24b73b30b634b210223ab930ba34b7b760811b604082015260600190565b60208082526012908201527134b73b30b634b21039b0ba3ab930ba34b7b760711b604082015260600190565b60208082526021908201527f4552433732313a20617070726f76616c20746f2063757272656e74206f776e656040820152603960f91b606082015260800190565b60208082526031908201527f4552433732313a207472616e736665722063616c6c6572206973206e6f74206f6040820152701ddb995c881b9bdc88185c1c1c9bdd9959607a1b606082015260800190565b6020808252601d908201527f416464726573733a2063616c6c20746f206e6f6e2d636f6e7472616374000000604082015260600190565b6020808252600e908201526d1a5b9d985b1a59081cdc1c99585960921b604082015260600190565b6020808252600490820152631554d15160e21b604082015260600190565b6020808252600490820152634e4f504560e01b604082015260600190565b6020808252601490820152734d7573742062652066757475726520626c6f636b60601b604082015260600190565b602080825260149082015273696e76616c6964206865696768742072616e676560601b604082015260600190565b60208082526032908201527f43616c6c657220646f736e27742068617665207065726d697373696f6e20746f604082015271103ab9b2903a3434b990333ab731ba34b7b760711b606082015260800190565b6020808252818101527f52616e646f6d2e756e69666f726d3a20696e76616c696420696e74657276616c604082015260600190565b6020808252601690820152750c1e0c0c08149958da5c1a595b9d08125b9d985b1a5960521b604082015260600190565b6020808252602f908201527f416363657373436f6e74726f6c3a2063616e206f6e6c792072656e6f756e636560408201526e103937b632b9903337b91039b2b63360891b606082015260800190565b602080825260119082015270696e76616c6964206c696768746e65737360781b604082015260600190565b602080825260139082015272696e76616c69642077696474682072616e676560681b604082015260600190565b6001600160801b038c16815260208082018c905260ff8b811660408401528a8116606084015261022083019190608084018b60005b6004811015615048578151841683529184019190840190600101615029565b505050505061505b61010083018961440d565b61506961014083018861445f565b6150776101608301876143e6565b6150856101c083018661445f565b6150936101e083018561445f565b6150a161020083018461445f565b9c9b505050505050505050505050565b61ffff91909116815260200190565b63ffffffff91909116815260200190565b60ff91909116815260200190565b60ff93841681529183166020830152909116604082015260600190565b60405181810167ffffffffffffffff8111828210171561511b57600080fd5b604052919050565b600067ffffffffffffffff821115615139578081fd5b5060200290565b60005b8381101561515b578181015183820152602001615143565b838111156120b65750506000910152565b6001600160a01b0381168114610a9c57600080fd5b6001600160e01b031981168114610a9c57600080fdfe4552433732313a207472616e7366657220746f206e6f6e20455243373231526563656976657220696d706c656d656e7465724552433732313a206f776e657220717565727920666f72206e6f6e6578697374656e7420746f6b656ea264697066735822122013e6964f7d2ca0794f8efef61e0265b5795cc5f91e67cbf69f014242a589e46a64736f6c6343000608003368747470733a2f2f72696e6b6562792e74696e79626f782e73686f702f54696e79426f7865732e6a736f6e",
  "linkReferences": {},
  "deployedLinkReferences": {}
}