{
  "_format": "hh-sol-artifact-1",
  "contractName": "TinyBoxesStore",
  "sourceName": "contracts/TinyBoxesStore.sol",
  "abi": [
    {
      "inputs": [
        {
          "internalType": "address",
          "name": "entropySourceAddress",
          "type": "address"
        }
      ],
      "stateMutability": "nonpayable",
      "type": "constructor"
    },
    {
      "anonymous": false,
      "inputs": [
        {
          "indexed": true,
          "internalType": "address",
          "name": "owner",
          "type": "address"
        },
        {
          "indexed": true,
          "internalType": "address",
          "name": "approved",
          "type": "address"
        },
        {
          "indexed": true,
          "internalType": "uint256",
          "name": "tokenId",
          "type": "uint256"
        }
      ],
      "name": "Approval",
      "type": "event"
    },
    {
      "anonymous": false,
      "inputs": [
        {
          "indexed": true,
          "internalType": "address",
          "name": "owner",
          "type": "address"
        },
        {
          "indexed": true,
          "internalType": "address",
          "name": "operator",
          "type": "address"
        },
        {
          "indexed": false,
          "internalType": "bool",
          "name": "approved",
          "type": "bool"
        }
      ],
      "name": "ApprovalForAll",
      "type": "event"
    },
    {
      "anonymous": false,
      "inputs": [
        {
          "indexed": false,
          "internalType": "uint256",
          "name": "id",
          "type": "uint256"
        }
      ],
      "name": "LECreated",
      "type": "event"
    },
    {
      "anonymous": false,
      "inputs": [
        {
          "indexed": true,
          "internalType": "bytes32",
          "name": "role",
          "type": "bytes32"
        },
        {
          "indexed": true,
          "internalType": "bytes32",
          "name": "previousAdminRole",
          "type": "bytes32"
        },
        {
          "indexed": true,
          "internalType": "bytes32",
          "name": "newAdminRole",
          "type": "bytes32"
        }
      ],
      "name": "RoleAdminChanged",
      "type": "event"
    },
    {
      "anonymous": false,
      "inputs": [
        {
          "indexed": true,
          "internalType": "bytes32",
          "name": "role",
          "type": "bytes32"
        },
        {
          "indexed": true,
          "internalType": "address",
          "name": "account",
          "type": "address"
        },
        {
          "indexed": true,
          "internalType": "address",
          "name": "sender",
          "type": "address"
        }
      ],
      "name": "RoleGranted",
      "type": "event"
    },
    {
      "anonymous": false,
      "inputs": [
        {
          "indexed": true,
          "internalType": "bytes32",
          "name": "role",
          "type": "bytes32"
        },
        {
          "indexed": true,
          "internalType": "address",
          "name": "account",
          "type": "address"
        },
        {
          "indexed": true,
          "internalType": "address",
          "name": "sender",
          "type": "address"
        }
      ],
      "name": "RoleRevoked",
      "type": "event"
    },
    {
      "anonymous": false,
      "inputs": [
        {
          "indexed": true,
          "internalType": "address",
          "name": "from",
          "type": "address"
        },
        {
          "indexed": true,
          "internalType": "address",
          "name": "to",
          "type": "address"
        },
        {
          "indexed": true,
          "internalType": "uint256",
          "name": "tokenId",
          "type": "uint256"
        }
      ],
      "name": "Transfer",
      "type": "event"
    },
    {
      "inputs": [],
      "name": "ADMIN_ROLE",
      "outputs": [
        {
          "internalType": "bytes32",
          "name": "",
          "type": "bytes32"
        }
      ],
      "stateMutability": "view",
      "type": "function"
    },
    {
      "inputs": [],
      "name": "ANIMATION_COUNT",
      "outputs": [
        {
          "internalType": "uint8",
          "name": "",
          "type": "uint8"
        }
      ],
      "stateMutability": "view",
      "type": "function"
    },
    {
      "inputs": [],
      "name": "ANIMATOR_ROLE",
      "outputs": [
        {
          "internalType": "bytes32",
          "name": "",
          "type": "bytes32"
        }
      ],
      "stateMutability": "view",
      "type": "function"
    },
    {
      "inputs": [],
      "name": "ARTIST_ROLE",
      "outputs": [
        {
          "internalType": "bytes32",
          "name": "",
          "type": "bytes32"
        }
      ],
      "stateMutability": "view",
      "type": "function"
    },
    {
      "inputs": [],
      "name": "DEFAULT_ADMIN_ROLE",
      "outputs": [
        {
          "internalType": "bytes32",
          "name": "",
          "type": "bytes32"
        }
      ],
      "stateMutability": "view",
      "type": "function"
    },
    {
      "inputs": [],
      "name": "SCHEME_COUNT",
      "outputs": [
        {
          "internalType": "uint8",
          "name": "",
          "type": "uint8"
        }
      ],
      "stateMutability": "view",
      "type": "function"
    },
    {
      "inputs": [],
      "name": "TOKEN_LIMIT",
      "outputs": [
        {
          "internalType": "uint16",
          "name": "",
          "type": "uint16"
        }
      ],
      "stateMutability": "view",
      "type": "function"
    },
    {
      "inputs": [
        {
          "internalType": "address",
          "name": "to",
          "type": "address"
        },
        {
          "internalType": "uint256",
          "name": "tokenId",
          "type": "uint256"
        }
      ],
      "name": "approve",
      "outputs": [],
      "stateMutability": "nonpayable",
      "type": "function"
    },
    {
      "inputs": [
        {
          "internalType": "address",
          "name": "owner",
          "type": "address"
        }
      ],
      "name": "balanceOf",
      "outputs": [
        {
          "internalType": "uint256",
          "name": "",
          "type": "uint256"
        }
      ],
      "stateMutability": "view",
      "type": "function"
    },
    {
      "inputs": [],
      "name": "baseURI",
      "outputs": [
        {
          "internalType": "string",
          "name": "",
          "type": "string"
        }
      ],
      "stateMutability": "view",
      "type": "function"
    },
    {
      "inputs": [],
      "name": "blockStart",
      "outputs": [
        {
          "internalType": "uint256",
          "name": "",
          "type": "uint256"
        }
      ],
      "stateMutability": "view",
      "type": "function"
    },
    {
      "inputs": [
        {
          "internalType": "uint256",
          "name": "id",
          "type": "uint256"
        },
        {
          "internalType": "uint8[3]",
          "name": "settings",
          "type": "uint8[3]"
        }
      ],
      "name": "changeSettings",
      "outputs": [],
      "stateMutability": "nonpayable",
      "type": "function"
    },
    {
      "inputs": [
        {
          "internalType": "string",
          "name": "_seed",
          "type": "string"
        },
        {
          "internalType": "uint8",
          "name": "shapes",
          "type": "uint8"
        },
        {
          "internalType": "uint8",
          "name": "hatching",
          "type": "uint8"
        },
        {
          "internalType": "uint16[3]",
          "name": "color",
          "type": "uint16[3]"
        },
        {
          "internalType": "uint8[4]",
          "name": "size",
          "type": "uint8[4]"
        },
        {
          "internalType": "uint8[2]",
          "name": "spacing",
          "type": "uint8[2]"
        },
        {
          "internalType": "uint8",
          "name": "mirroring",
          "type": "uint8"
        },
        {
          "internalType": "address",
          "name": "recipient",
          "type": "address"
        },
        {
          "internalType": "uint256",
          "name": "referalID",
          "type": "uint256"
        }
      ],
      "name": "create",
      "outputs": [
        {
          "internalType": "uint256",
          "name": "",
          "type": "uint256"
        }
      ],
      "stateMutability": "payable",
      "type": "function"
    },
    {
      "inputs": [
        {
          "internalType": "uint128",
          "name": "seed",
          "type": "uint128"
        },
        {
          "internalType": "uint8",
          "name": "shapes",
          "type": "uint8"
        },
        {
          "internalType": "uint8",
          "name": "hatching",
          "type": "uint8"
        },
        {
          "internalType": "uint16[3]",
          "name": "color",
          "type": "uint16[3]"
        },
        {
          "internalType": "uint8[4]",
          "name": "size",
          "type": "uint8[4]"
        },
        {
          "internalType": "uint8[2]",
          "name": "spacing",
          "type": "uint8[2]"
        },
        {
          "internalType": "uint8",
          "name": "mirroring",
          "type": "uint8"
        },
        {
          "internalType": "uint256",
          "name": "id",
          "type": "uint256"
        }
      ],
      "name": "createLimitedEdition",
      "outputs": [],
      "stateMutability": "nonpayable",
      "type": "function"
    },
    {
      "inputs": [],
      "name": "currentPhase",
      "outputs": [
        {
          "internalType": "uint8",
          "name": "",
          "type": "uint8"
        }
      ],
      "stateMutability": "view",
      "type": "function"
    },
    {
      "inputs": [
        {
          "internalType": "uint256",
          "name": "tokenId",
          "type": "uint256"
        }
      ],
      "name": "getApproved",
      "outputs": [
        {
          "internalType": "address",
          "name": "",
          "type": "address"
        }
      ],
      "stateMutability": "view",
      "type": "function"
    },
    {
      "inputs": [
        {
          "internalType": "bytes32",
          "name": "role",
          "type": "bytes32"
        }
      ],
      "name": "getRoleAdmin",
      "outputs": [
        {
          "internalType": "bytes32",
          "name": "",
          "type": "bytes32"
        }
      ],
      "stateMutability": "view",
      "type": "function"
    },
    {
      "inputs": [
        {
          "internalType": "bytes32",
          "name": "role",
          "type": "bytes32"
        },
        {
          "internalType": "uint256",
          "name": "index",
          "type": "uint256"
        }
      ],
      "name": "getRoleMember",
      "outputs": [
        {
          "internalType": "address",
          "name": "",
          "type": "address"
        }
      ],
      "stateMutability": "view",
      "type": "function"
    },
    {
      "inputs": [
        {
          "internalType": "bytes32",
          "name": "role",
          "type": "bytes32"
        }
      ],
      "name": "getRoleMemberCount",
      "outputs": [
        {
          "internalType": "uint256",
          "name": "",
          "type": "uint256"
        }
      ],
      "stateMutability": "view",
      "type": "function"
    },
    {
      "inputs": [
        {
          "internalType": "bytes32",
          "name": "role",
          "type": "bytes32"
        },
        {
          "internalType": "address",
          "name": "account",
          "type": "address"
        }
      ],
      "name": "grantRole",
      "outputs": [],
      "stateMutability": "nonpayable",
      "type": "function"
    },
    {
      "inputs": [
        {
          "internalType": "bytes32",
          "name": "role",
          "type": "bytes32"
        },
        {
          "internalType": "address",
          "name": "account",
          "type": "address"
        }
      ],
      "name": "hasRole",
      "outputs": [
        {
          "internalType": "bool",
          "name": "",
          "type": "bool"
        }
      ],
      "stateMutability": "view",
      "type": "function"
    },
    {
      "inputs": [
        {
          "internalType": "address",
          "name": "owner",
          "type": "address"
        },
        {
          "internalType": "address",
          "name": "operator",
          "type": "address"
        }
      ],
      "name": "isApprovedForAll",
      "outputs": [
        {
          "internalType": "bool",
          "name": "",
          "type": "bool"
        }
      ],
      "stateMutability": "view",
      "type": "function"
    },
    {
      "inputs": [
        {
          "internalType": "address",
          "name": "recipient",
          "type": "address"
        }
      ],
      "name": "mintPromo",
      "outputs": [],
      "stateMutability": "nonpayable",
      "type": "function"
    },
    {
      "inputs": [],
      "name": "name",
      "outputs": [
        {
          "internalType": "string",
          "name": "",
          "type": "string"
        }
      ],
      "stateMutability": "view",
      "type": "function"
    },
    {
      "inputs": [
        {
          "internalType": "uint256",
          "name": "tokenId",
          "type": "uint256"
        }
      ],
      "name": "ownerOf",
      "outputs": [
        {
          "internalType": "address",
          "name": "",
          "type": "address"
        }
      ],
      "stateMutability": "view",
      "type": "function"
    },
    {
      "inputs": [],
      "name": "paused",
      "outputs": [
        {
          "internalType": "bool",
          "name": "",
          "type": "bool"
        }
      ],
      "stateMutability": "view",
      "type": "function"
    },
    {
      "inputs": [],
      "name": "phaseCountdown",
      "outputs": [
        {
          "internalType": "uint256",
          "name": "",
          "type": "uint256"
        }
      ],
      "stateMutability": "view",
      "type": "function"
    },
    {
      "inputs": [],
      "name": "phaseCountdownTime",
      "outputs": [
        {
          "internalType": "uint256",
          "name": "",
          "type": "uint256"
        }
      ],
      "stateMutability": "view",
      "type": "function"
    },
    {
      "inputs": [],
      "name": "phaseLen",
      "outputs": [
        {
          "internalType": "uint256",
          "name": "",
          "type": "uint256"
        }
      ],
      "stateMutability": "view",
      "type": "function"
    },
    {
      "inputs": [],
      "name": "price",
      "outputs": [
        {
          "internalType": "uint256",
          "name": "",
          "type": "uint256"
        }
      ],
      "stateMutability": "view",
      "type": "function"
    },
    {
      "inputs": [
        {
          "internalType": "uint256",
          "name": "id",
          "type": "uint256"
        }
      ],
      "name": "readSettings",
      "outputs": [
        {
          "internalType": "uint8",
          "name": "bkg",
          "type": "uint8"
        },
        {
          "internalType": "uint8",
          "name": "duration",
          "type": "uint8"
        },
        {
          "internalType": "uint8",
          "name": "options",
          "type": "uint8"
        }
      ],
      "stateMutability": "view",
      "type": "function"
    },
    {
      "inputs": [],
      "name": "referalNewPercent",
      "outputs": [
        {
          "internalType": "uint256",
          "name": "",
          "type": "uint256"
        }
      ],
      "stateMutability": "view",
      "type": "function"
    },
    {
      "inputs": [],
      "name": "referalPercent",
      "outputs": [
        {
          "internalType": "uint256",
          "name": "",
          "type": "uint256"
        }
      ],
      "stateMutability": "view",
      "type": "function"
    },
    {
      "inputs": [
        {
          "internalType": "bytes32",
          "name": "role",
          "type": "bytes32"
        },
        {
          "internalType": "address",
          "name": "account",
          "type": "address"
        }
      ],
      "name": "renounceRole",
      "outputs": [],
      "stateMutability": "nonpayable",
      "type": "function"
    },
    {
      "inputs": [
        {
          "internalType": "bytes32",
          "name": "role",
          "type": "bytes32"
        },
        {
          "internalType": "address",
          "name": "account",
          "type": "address"
        }
      ],
      "name": "revokeRole",
      "outputs": [],
      "stateMutability": "nonpayable",
      "type": "function"
    },
    {
      "inputs": [
        {
          "internalType": "address",
          "name": "from",
          "type": "address"
        },
        {
          "internalType": "address",
          "name": "to",
          "type": "address"
        },
        {
          "internalType": "uint256",
          "name": "tokenId",
          "type": "uint256"
        }
      ],
      "name": "safeTransferFrom",
      "outputs": [],
      "stateMutability": "nonpayable",
      "type": "function"
    },
    {
      "inputs": [
        {
          "internalType": "address",
          "name": "from",
          "type": "address"
        },
        {
          "internalType": "address",
          "name": "to",
          "type": "address"
        },
        {
          "internalType": "uint256",
          "name": "tokenId",
          "type": "uint256"
        },
        {
          "internalType": "bytes",
          "name": "_data",
          "type": "bytes"
        }
      ],
      "name": "safeTransferFrom",
      "outputs": [],
      "stateMutability": "nonpayable",
      "type": "function"
    },
    {
      "inputs": [
        {
          "internalType": "address",
          "name": "operator",
          "type": "address"
        },
        {
          "internalType": "bool",
          "name": "approved",
          "type": "bool"
        }
      ],
      "name": "setApprovalForAll",
      "outputs": [],
      "stateMutability": "nonpayable",
      "type": "function"
    },
    {
      "inputs": [
        {
          "internalType": "bool",
          "name": "state",
          "type": "bool"
        }
      ],
      "name": "setPause",
      "outputs": [],
      "stateMutability": "nonpayable",
      "type": "function"
    },
    {
      "inputs": [
        {
          "internalType": "address",
          "name": "rand",
          "type": "address"
        }
      ],
      "name": "setRandom",
      "outputs": [],
      "stateMutability": "nonpayable",
      "type": "function"
    },
    {
      "inputs": [
        {
          "internalType": "uint256",
          "name": "startBlock",
          "type": "uint256"
        }
      ],
      "name": "startCoundown",
      "outputs": [],
      "stateMutability": "nonpayable",
      "type": "function"
    },
    {
      "inputs": [
        {
          "internalType": "bytes4",
          "name": "interfaceId",
          "type": "bytes4"
        }
      ],
      "name": "supportsInterface",
      "outputs": [
        {
          "internalType": "bool",
          "name": "",
          "type": "bool"
        }
      ],
      "stateMutability": "view",
      "type": "function"
    },
    {
      "inputs": [],
      "name": "symbol",
      "outputs": [
        {
          "internalType": "string",
          "name": "",
          "type": "string"
        }
      ],
      "stateMutability": "view",
      "type": "function"
    },
    {
      "inputs": [],
      "name": "testRandom",
      "outputs": [
        {
          "internalType": "bytes32",
          "name": "",
          "type": "bytes32"
        }
      ],
      "stateMutability": "view",
      "type": "function"
    },
    {
      "inputs": [
        {
          "internalType": "uint256",
          "name": "index",
          "type": "uint256"
        }
      ],
      "name": "tokenByIndex",
      "outputs": [
        {
          "internalType": "uint256",
          "name": "",
          "type": "uint256"
        }
      ],
      "stateMutability": "view",
      "type": "function"
    },
    {
      "inputs": [
        {
          "internalType": "uint256",
          "name": "_id",
          "type": "uint256"
        }
      ],
      "name": "tokenData",
      "outputs": [
        {
          "internalType": "uint256",
          "name": "animation",
          "type": "uint256"
        },
        {
          "internalType": "uint8",
          "name": "shapes",
          "type": "uint8"
        },
        {
          "internalType": "uint8",
          "name": "hatching",
          "type": "uint8"
        },
        {
          "internalType": "uint8[4]",
          "name": "size",
          "type": "uint8[4]"
        },
        {
          "internalType": "uint8[2]",
          "name": "spacing",
          "type": "uint8[2]"
        },
        {
          "internalType": "uint8",
          "name": "mirroring",
          "type": "uint8"
        },
        {
          "internalType": "uint16[3]",
          "name": "color",
          "type": "uint16[3]"
        },
        {
          "internalType": "uint8",
          "name": "contrast",
          "type": "uint8"
        },
        {
          "internalType": "uint8",
          "name": "shades",
          "type": "uint8"
        },
        {
          "internalType": "uint8",
          "name": "scheme",
          "type": "uint8"
        }
      ],
      "stateMutability": "view",
      "type": "function"
    },
    {
      "inputs": [
        {
          "internalType": "address",
          "name": "owner",
          "type": "address"
        },
        {
          "internalType": "uint256",
          "name": "index",
          "type": "uint256"
        }
      ],
      "name": "tokenOfOwnerByIndex",
      "outputs": [
        {
          "internalType": "uint256",
          "name": "",
          "type": "uint256"
        }
      ],
      "stateMutability": "view",
      "type": "function"
    },
    {
      "inputs": [
        {
          "internalType": "uint256",
          "name": "id",
          "type": "uint256"
        }
      ],
      "name": "tokenRandomness",
      "outputs": [
        {
          "internalType": "uint128",
          "name": "",
          "type": "uint128"
        }
      ],
      "stateMutability": "view",
      "type": "function"
    },
    {
      "inputs": [
        {
          "internalType": "uint256",
          "name": "tokenId",
          "type": "uint256"
        }
      ],
      "name": "tokenURI",
      "outputs": [
        {
          "internalType": "string",
          "name": "",
          "type": "string"
        }
      ],
      "stateMutability": "view",
      "type": "function"
    },
    {
      "inputs": [],
      "name": "totalSupply",
      "outputs": [
        {
          "internalType": "uint256",
          "name": "",
          "type": "uint256"
        }
      ],
      "stateMutability": "view",
      "type": "function"
    },
    {
      "inputs": [
        {
          "internalType": "address",
          "name": "from",
          "type": "address"
        },
        {
          "internalType": "address",
          "name": "to",
          "type": "address"
        },
        {
          "internalType": "uint256",
          "name": "tokenId",
          "type": "uint256"
        }
      ],
      "name": "transferFrom",
      "outputs": [],
      "stateMutability": "nonpayable",
      "type": "function"
    },
    {
      "inputs": [
        {
          "internalType": "uint256",
          "name": "id",
          "type": "uint256"
        }
      ],
      "name": "trueID",
      "outputs": [
        {
          "internalType": "int8",
          "name": "",
          "type": "int8"
        }
      ],
      "stateMutability": "pure",
      "type": "function"
    },
    {
      "stateMutability": "payable",
      "type": "receive"
    }
  ],
  "bytecode": "0x6080604052600d805460ff19166001179055600b606e0461ffff16600f5560786010556200003f600f6010546200022160201b620024861790919060201c565b6011556001601455600a601555600f6016556000196017556064601855601980546001600160a01b0319908116737a832c86002323a5de3a317b3281eb88ec3b2c0017909155601a80549091167363a9dbce75413036b2b778e670aabd4493aaf9f3179055348015620000b157600080fd5b50604051620053d2380380620053d2833981016040819052620000d491620004de565b604080518082018252600981526854696e79426f78657360b81b602080830191909152825180840190935260068352655b235d5b235d60d01b90830152906200012d6301ffc9a760e01b6001600160e01b036200027416565b8151620001429060069060208501906200043c565b508051620001589060079060208401906200043c565b50620001746380ac58cd60e01b6001600160e01b036200027416565b6200018f635b5e139f60e01b6001600160e01b036200027416565b620001aa63780e9d6360e01b6001600160e01b036200027416565b5050620001d7604051620001be906200053e565b604051908190039020336001600160e01b03620002cf16565b620001e9604051620001be9062000527565b620001fb604051620001be906200050e565b601380546001600160a01b0319166001600160a01b0392909216919091179055620005e1565b60006200026b83836040518060400160405280601a81526020017f536166654d6174683a206469766973696f6e206279207a65726f000000000000815250620002e860201b60201c565b90505b92915050565b6001600160e01b03198082161415620002aa5760405162461bcd60e51b8152600401620002a190620005aa565b60405180910390fd5b6001600160e01b0319166000908152602081905260409020805460ff19166001179055565b620002e482826001600160e01b036200032316565b5050565b600081836200030c5760405162461bcd60e51b8152600401620002a1919062000554565b5060008385816200031957fe5b0495945050505050565b6000828152600a602090815260409091206200034a918390620024c8620003a7821b17901c565b15620002e457620003636001600160e01b03620003c716565b6001600160a01b0316816001600160a01b0316837f2f8788117e7eff1d82e926ec794901d17c78024a50270940304540a733656f0d60405160405180910390a45050565b60006200026b836001600160a01b0384166001600160e01b03620003cc16565b335b90565b6000620003e383836001600160e01b036200042416565b6200041b575081546001818101845560008481526020808220909301849055845484825282860190935260409020919091556200026e565b5060006200026e565b60009081526001919091016020526040902054151590565b828054600181600116156101000203166002900490600052602060002090601f016020900481019282601f106200047f57805160ff1916838001178555620004af565b82800160010185558215620004af579182015b82811115620004af57825182559160200191906001019062000492565b50620004bd929150620004c1565b5090565b620003c991905b80821115620004bd5760008155600101620004c8565b600060208284031215620004f0578081fd5b81516001600160a01b038116811462000507578182fd5b9392505050565b6c414e494d41544f525f524f4c4560981b8152600d0190565b6a4152544953545f524f4c4560a81b8152600b0190565b6941444d494e5f524f4c4560b01b8152600a0190565b6000602080835283518082850152825b81811015620005825785810183015185820160400152820162000564565b81811115620005945783604083870101525b50601f01601f1916929092016040019392505050565b6020808252601c908201527f4552433136353a20696e76616c696420696e7465726661636520696400000000604082015260600190565b614de180620005f16000396000f3fe6080604052600436106103035760003560e01c80637def753d11610190578063b88d4fde116100dc578063d547741f11610095578063f7eaec7d1161006f578063f7eaec7d146108ce578063fbddd14b146108e3578063fc4ea939146108f8578063fd05dd6a1461090d57610313565b8063d547741f14610879578063e985e9c514610899578063f1d77baf146108b957610313565b8063b88d4fde146107c4578063bedb86fb146107e4578063c87b56dd14610804578063ca15c87314610824578063ca9c0bad14610844578063ce427c1c1461086457610313565b8063990cec8311610149578063a22cb46511610123578063a22cb46514610744578063a966a0df14610764578063b3174fa114610779578063b4b5b48f1461078e57610313565b8063990cec8314610707578063a035b1fe1461071a578063a217fddf1461072f57610313565b80637def753d14610643578063824cac1a146106635780639010d07c1461068357806391d14854146106a3578063947e93d9146106c357806395d89b41146106f257610313565b806336568abe1161024f5780635c975abb1161020857806370a08231116101e257806370a08231146105e457806371a0a0161461060457806375b238fc146106195780637b2feaaa1461062e57610313565b80635c975abb1461059a5780636352211e146105af5780636c0360eb146105cf57610313565b806336568abe146104d85780633c564cab146104f8578063408f3a2b1461051857806342842e0e146105455780634f6ccce714610565578063524101971461058557610313565b80630e1b9b0e116102bc578063248a9ca311610296578063248a9ca3146104585780632f2ff15d146104785780632f745c591461049857806333618273146104b857610313565b80630e1b9b0e1461040157806318160ddd1461041657806323b872dd1461043857610313565b806301ffc9a714610318578063031bd4c41461034e578063055ad42e1461037057806306fdde0314610392578063081812fc146103b4578063095ea7b3146103e157610313565b36610313576103113461093a565b005b600080fd5b34801561032457600080fd5b50610338610333366004613dd8565b6109ed565b60405161034591906141ed565b60405180910390f35b34801561035a57600080fd5b50610363610a10565b6040516103459190614c12565b34801561037c57600080fd5b50610385610a15565b6040516103459190614cce565b34801561039e57600080fd5b506103a7610a2c565b6040516103459190614206565b3480156103c057600080fd5b506103d46103cf366004613d63565b610ac2565b604051610345919061419c565b3480156103ed57600080fd5b506103116103fc366004613d19565b610b0e565b34801561040d57600080fd5b50610385610ba1565b34801561042257600080fd5b5061042b610ba6565b604051610345919061408c565b34801561044457600080fd5b50610311610453366004613bd8565b610bb2565b34801561046457600080fd5b5061042b610473366004613d63565b610bea565b34801561048457600080fd5b50610311610493366004613d93565b610bff565b3480156104a457600080fd5b5061042b6104b3366004613d19565b610c47565b3480156104c457600080fd5b506103116104d3366004613d63565b610c78565b3480156104e457600080fd5b506103116104f3366004613d93565b610ce1565b34801561050457600080fd5b50610311610513366004613fce565b610d23565b34801561052457600080fd5b50610538610533366004613d63565b610ea3565b6040516103459190614bfe565b34801561055157600080fd5b50610311610560366004613bd8565b610fc3565b34801561057157600080fd5b5061042b610580366004613d63565b610fde565b34801561059157600080fd5b5061042b610ffa565b3480156105a657600080fd5b50610338611000565b3480156105bb57600080fd5b506103d46105ca366004613d63565b611009565b3480156105db57600080fd5b506103a7611037565b3480156105f057600080fd5b5061042b6105ff366004613b89565b611098565b34801561061057600080fd5b506103856110e1565b34801561062557600080fd5b5061042b6110e6565b34801561063a57600080fd5b5061042b6110fd565b34801561064f57600080fd5b5061031161065e366004613b89565b611103565b34801561066f57600080fd5b5061031161067e366004613f07565b61118d565b34801561068f57600080fd5b506103d461069e366004613db7565b611648565b3480156106af57600080fd5b506103386106be366004613d93565b611666565b3480156106cf57600080fd5b506106e36106de366004613d63565b611684565b60405161034593929190614cdc565b3480156106fe57600080fd5b506103a76117b0565b61042b610715366004613e10565b611811565b34801561072657600080fd5b5061042b611da8565b34801561073b57600080fd5b5061042b611dae565b34801561075057600080fd5b5061031161075f366004613cde565b611db3565b34801561077057600080fd5b5061042b611e81565b34801561078557600080fd5b5061042b611e8d565b34801561079a57600080fd5b506107ae6107a9366004613d63565b611e93565b6040516103459a99989796959493929190614c21565b3480156107d057600080fd5b506103116107df366004613c18565b6120ea565b3480156107f057600080fd5b506103116107ff366004613d43565b612129565b34801561081057600080fd5b506103a761081f366004613d63565b612177565b34801561083057600080fd5b5061042b61083f366004613d63565b6122c1565b34801561085057600080fd5b5061031161085f366004613b89565b6122d8565b34801561087057600080fd5b5061042b612335565b34801561088557600080fd5b50610311610894366004613d93565b612341565b3480156108a557600080fd5b506103386108b4366004613ba4565b61237b565b3480156108c557600080fd5b5061042b6123a9565b3480156108da57600080fd5b5061042b6123af565b3480156108ef57600080fd5b5061042b6123b5565b34801561090457600080fd5b5061042b61247d565b34801561091957600080fd5b5061092d610928366004613d63565b612483565b60405161034591906141f8565b80156109ea576000610964606461095884603c63ffffffff6124dd16565b9063ffffffff61248616565b6019546040519192506001600160a01b03169082156108fc029083906000818181858888f1935050505015801561099f573d6000803e3d6000fd5b50601a546001600160a01b03166108fc6109bf848463ffffffff61251716565b6040518115909202916000818181858888f193505050501580156109e7573d6000803e3d6000fd5b50505b50565b6001600160e01b0319811660009081526020819052604090205460ff165b919050565b606e81565b6000610a27600f54610958600b612559565b905090565b60068054604080516020601f6002600019610100600188161502019095169490940493840181900481028201810190925282815260609390929091830182828015610ab85780601f10610a8d57610100808354040283529160200191610ab8565b820191906000526020600020905b815481529060010190602001808311610a9b57829003601f168201915b5050505050905090565b6000610acd8261255d565b610af25760405162461bcd60e51b8152600401610ae9906147b0565b60405180910390fd5b506000908152600460205260409020546001600160a01b031690565b6000610b1982611009565b9050806001600160a01b0316836001600160a01b03161415610b4d5760405162461bcd60e51b8152600401610ae990614917565b806001600160a01b0316610b5f612570565b6001600160a01b03161480610b7b5750610b7b816108b4612570565b610b975760405162461bcd60e51b8152600401610ae9906145f8565b6109e78383612574565b601881565b6000610a2760026125e2565b610bc3610bbd612570565b826125ed565b610bdf5760405162461bcd60e51b8152600401610ae990614958565b6109e7838383612672565b6000908152600a602052604090206002015490565b6000828152600a6020526040902060020154610c1d906106be612570565b610c395760405162461bcd60e51b8152600401610ae99061425b565b610c438282612792565b5050565b6001600160a01b0382166000908152600160205260408120610c6f908363ffffffff61280116565b90505b92915050565b604051610c8490614186565b6040518091039020610c968133611666565b610cb25760405162461bcd60e51b8152600401610ae990614aa0565b438211610cd15760405162461bcd60e51b8152600401610ae990614a44565b50600e55600d805460ff19169055565b610ce9612570565b6001600160a01b0316816001600160a01b031614610d195760405162461bcd60e51b8152600401610ae990614b57565b610c43828261280d565b610d2c82611009565b6001600160a01b0316336001600160a01b03161480610d645750610d4f82610ac2565b6001600160a01b0316336001600160a01b0316145b610d805760405162461bcd60e51b8152600401610ae99061469f565b6065610d8f6020830183613ff1565b60ff161115610db05760405162461bcd60e51b8152600401610ae990614537565b6000610dc26040830160208401613ff1565b60ff1611610de25760405162461bcd60e51b8152600401610ae9906148c1565b610def6020820182613ff1565b6000838152601260205260409020805460ff92909216600160e81b0260ff60e81b19909216919091179055806001602002016020810190610e309190613ff1565b6000838152601260205260409020805460ff92909216600160f01b0260ff60f01b19909216919091179055806002602002016020810190610e719190613ff1565b600092835260126020526040909220805460ff93909316600160f81b026001600160f81b039093169290921790915550565b6000610ead613a13565b505060009081526012602090815260409182902082516102008101845290546001600160801b03811680835261ffff600160801b8304169383019390935260ff600160901b8204811694830194909452600160981b810484166060830152600160a01b810484166080830152600160a81b8104841660a0830152600160b01b8104841660c0830152600160b81b8104841660e0830152600160c01b81048416610100830152600160c81b81048416610120830152600160d01b81048416610140830152600160d81b81048416610160830152600160e01b81048416610180830152600160e81b810484166101a0830152600160f01b810484166101c0830152600160f81b90049092166101e09092019190915290565b6109e7838383604051806020016040528060008152506120ea565b600080610ff260028463ffffffff61287c16565b509392505050565b60105481565b600d5460ff1681565b6000610c7282604051806060016040528060298152602001614d83602991396002919063ffffffff61289816565b60098054604080516020601f6002600019610100600188161502019095169490940493840181900481028201810190925282815260609390929091830182828015610ab85780601f10610a8d57610100808354040283529160200191610ab8565b60006001600160a01b0382166110c05760405162461bcd60e51b8152600401610ae990614655565b6001600160a01b0382166000908152600160205260409020610c72906125e2565b600b81565b6040516110f290614186565b604051809103902081565b600e5481565b60405161110f90614186565b60405180910390206111218133611666565b61113d5760405162461bcd60e51b8152600401610ae990614aa0565b60185461114a600c612559565b106111675760405162461bcd60e51b8152600401610ae9906142e8565b6000611173600c612559565b60175403905061118383826128af565b6109e7600c6128c9565b600d5460ff16156111b05760405162461bcd60e51b8152600401610ae9906142aa565b336111ba82611009565b6001600160a01b0316146111e05760405162461bcd60e51b8152600401610ae990614a26565b600081815260126020526040902054600160a01b900460ff16156112165760405162461bcd60e51b8152600401610ae990614a08565b61129487878760038060200260405190810160405280929190826003602002808284376000920191909152505060408051608081810190925291508990600490839083908082843760009201919091525050604080518082018252915089906002908390839080828437600092019190915250600191506128d29050565b6040805161020081019091526001600160801b03891681526020808201906112be90880188613fac565b61ffff1681526020908101906112da9060408901908901613fac565b60ff1681526020016112f26060880160408901613fac565b60ff90811682528981166020830152881660408201526060018560006020020160208101906113219190613ff1565b60ff16815260209081019061133c9060408801908801613ff1565b60ff1681526020016113546060870160408801613ff1565b60ff16815260200161136c6080870160608801613ff1565b60ff16815260209081019061138390860186613ff1565b60ff16815260209081019061139e9060408701908701613ff1565b60ff1681526020018360ff168152602001600060ff168152602001600a60ff168152602001600160ff168152506012600083815260200190815260200160002060008201518160000160006101000a8154816001600160801b0302191690836001600160801b0316021790555060208201518160000160106101000a81548161ffff021916908361ffff16021790555060408201518160000160126101000a81548160ff021916908360ff16021790555060608201518160000160136101000a81548160ff021916908360ff16021790555060808201518160000160146101000a81548160ff021916908360ff16021790555060a08201518160000160156101000a81548160ff021916908360ff16021790555060c08201518160000160166101000a81548160ff021916908360ff16021790555060e08201518160000160176101000a81548160ff021916908360ff1602179055506101008201518160000160186101000a81548160ff021916908360ff1602179055506101208201518160000160196101000a81548160ff021916908360ff16021790555061014082015181600001601a6101000a81548160ff021916908360ff16021790555061016082015181600001601b6101000a81548160ff021916908360ff16021790555061018082015181600001601c6101000a81548160ff021916908360ff1602179055506101a082015181600001601d6101000a81548160ff021916908360ff1602179055506101c082015181600001601e6101000a81548160ff021916908360ff1602179055506101e082015181600001601f6101000a81548160ff021916908360ff1602179055509050507feaa4f184b7f3d10bde81fc2d884889a91fbadf176d0ecc02895ab30b5aba08ef81604051611636919061408c565b60405180910390a15050505050505050565b6000828152600a60205260408120610c6f908363ffffffff61280116565b6000828152600a60205260408120610c6f908363ffffffff612a6a16565b6000806000611691613a13565b5050506000918252506012602090815260409182902082516102008101845290546001600160801b038116825261ffff600160801b8204169282019290925260ff600160901b8304811693820193909352600160981b820483166060820152600160a01b820483166080820152600160a81b8204831660a0820152600160b01b8204831660c0820152600160b81b8204831660e0820152600160c01b82048316610100820152600160c81b82048316610120820152600160d01b82048316610140820152600160d81b82048316610160820152600160e01b82048316610180820152600160e81b820483166101a08201819052600160f01b830484166101c08301819052600160f81b9093049093166101e09091018190529192909190565b60078054604080516020601f6002600019610100600188161502019095169490940493840181900481028201810190925282815260609390929091830182828015610ab85780601f10610a8d57610100808354040283529160200191610ab8565b600d5460009060ff16156118375760405162461bcd60e51b8152600401610ae9906142aa565b600e544310156118595760405162461bcd60e51b8152600401610ae9906142ca565b606e611865600b612559565b106118825760405162461bcd60e51b8152600401610ae990614382565b61188c8284612a7f565b61190789898960038060200260405190810160405280929190826003602002808284376000920191909152505060408051608081810190925291508b9060049083908390808284376000920191909152505060408051808201825291508b906002908390839080828437600092018290525091506128d29050565b6001600160a01b03831661192d5760405162461bcd60e51b8152600401610ae990614b27565b6000611939600b612559565b9050611945600b6128c9565b611961600f54611955600b612559565b9063ffffffff612bf716565b61199657611992611985611973610a15565b6011549060ff1663ffffffff6124dd16565b439063ffffffff612c3916565b600e555b60006119d78d8d8080601f016020809104026020016040519081016040528093929190818152602001838380828437600092019190915250612c5e92505050565b905060006119e58383612cb7565b9050604051806102000160405280826001600160801b031681526020018b600060038110611a0f57fe5b602002016020810190611a229190613fac565b61ffff16815260200160c86001600160801b038416066001600160801b0316600014611a5d57611a5860408d0160208e01613fac565b611a60565b60005b60ff168152602001611a7860608d0160408e01613fac565b60ff90811682528e811660208301528d1660408201526060018a6000602002016020810190611aa79190613ff1565b60ff168152602090810190611ac29060408d01908d01613ff1565b60ff168152602001611ada60608c0160408d01613ff1565b60ff168152602001611af260808c0160608d01613ff1565b60ff168152602090810190611b09908b018b613ff1565b60ff168152602090810190611b249060408c01908c01613ff1565b60ff1681526020018860ff168152602001600060ff168152602001600a60ff168152602001600160ff168152506012600085815260200190815260200160002060008201518160000160006101000a8154816001600160801b0302191690836001600160801b0316021790555060208201518160000160106101000a81548161ffff021916908361ffff16021790555060408201518160000160126101000a81548160ff021916908360ff16021790555060608201518160000160136101000a81548160ff021916908360ff16021790555060808201518160000160146101000a81548160ff021916908360ff16021790555060a08201518160000160156101000a81548160ff021916908360ff16021790555060c08201518160000160166101000a81548160ff021916908360ff16021790555060e08201518160000160176101000a81548160ff021916908360ff1602179055506101008201518160000160186101000a81548160ff021916908360ff1602179055506101208201518160000160196101000a81548160ff021916908360ff16021790555061014082015181600001601a6101000a81548160ff021916908360ff16021790555061016082015181600001601b6101000a81548160ff021916908360ff16021790555061018082015181600001601c6101000a81548160ff021916908360ff1602179055506101a082015181600001601d6101000a81548160ff021916908360ff1602179055506101c082015181600001601e6101000a81548160ff021916908360ff1602179055506101e082015181600001601f6101000a81548160ff021916908360ff160217905550905050611d9786846128af565b5050509a9950505050505050505050565b60145481565b600081565b611dbb612570565b6001600160a01b0316826001600160a01b03161415611dec5760405162461bcd60e51b8152600401610ae9906144bf565b8060056000611df9612570565b6001600160a01b03908116825260208083019390935260409182016000908120918716808252919093529120805460ff191692151592909217909155611e3d612570565b6001600160a01b03167f17307eab39ab6107e8899845ad3d59bd9653f200f220920489ca2b5937696c3183604051611e7591906141ed565b60405180910390a35050565b6040516110f29061416f565b600f5481565b6000806000611ea0613a97565b611ea8613ab5565b6000611eb2613ad3565b6000806000611ebf613a13565b5060008b81526012602090815260409182902082516102008101845290546001600160801b038116825261ffff600160801b8204169282019290925260ff600160901b8304811693820193909352600160981b820483166060820152600160a01b820483166080820152600160a81b8204831660a0820152600160b01b8204831660c0820152600160b81b8204831660e0820152600160c01b82048316610100820152600160c81b82048316610120820152600160d01b82048316610140820152600160d81b82048316610160820152600160e01b82048316610180820152600160e81b820483166101a0820152600160f01b820483166101c0820152600160f81b9091049091166101e0820152611fd5613a97565b611fdf828e612d7d565b9050806000602002015160ff169b50806001602002015192508060026020020151935080600360200201519450816101800151965081608001519a508160a0015199506040518060600160405280836020015161ffff1661ffff168152602001836040015160ff1661ffff168152602001836060015160ff1661ffff16815250955060405180608001604052808360c0015160ff1660ff1681526020018360e0015160ff1660ff16815260200183610100015160ff1660ff16815260200183610120015160ff1660ff168152509850604051806040016040528083610140015160ff1660ff16815260200183610160015160ff1660ff16815250975050509193959799509193959799565b6120fb6120f5612570565b836125ed565b6121175760405162461bcd60e51b8152600401610ae990614958565b61212384848484612f8d565b50505050565b60405161213590614186565b60405180910390206121478133611666565b6121635760405162461bcd60e51b8152600401610ae990614aa0565b50600d805460ff1916911515919091179055565b60606121828261255d565b61219e5760405162461bcd60e51b8152600401610ae990614872565b60008281526008602090815260409182902080548351601f60026000196101006001861615020190931692909204918201849004840281018401909452808452606093928301828280156122335780601f1061220857610100808354040283529160200191612233565b820191906000526020600020905b81548152906001019060200180831161221657829003601f168201915b50506009549394505050506002600019610100600184161502019091160461225c579050610a0b565b80511561228e576009816040516020016122779291906140d5565b604051602081830303815290604052915050610a0b565b600961229984612fc0565b6040516020016122aa9291906140d5565b604051602081830303815290604052915050919050565b6000818152600a60205260408120610c72906125e2565b6040516122e490614186565b60405180910390206122f68133611666565b6123125760405162461bcd60e51b8152600401610ae990614aa0565b50601380546001600160a01b0319166001600160a01b0392909216919091179055565b6040516110f290614156565b6000828152600a602052604090206002015461235f906106be612570565b610d195760405162461bcd60e51b8152600401610ae9906145a8565b6001600160a01b03918216600090815260056020908152604080832093909416825291909152205460ff1690565b60165481565b60155481565b60006040516123c390614186565b60405180910390206123d58133611666565b6123f15760405162461bcd60e51b8152600401610ae990614aa0565b601360009054906101000a90046001600160a01b03166001600160a01b031663990c8f796040518163ffffffff1660e01b815260040160206040518083038186803b15801561243f57600080fd5b505afa158015612453573d6000803e3d6000fd5b505050506040513d601f19601f820116820180604052508101906124779190613d7b565b91505090565b60115481565b90565b6000610c6f83836040518060400160405280601a81526020017f536166654d6174683a206469766973696f6e206279207a65726f00000000000081525061309b565b6000610c6f836001600160a01b0384166130d2565b6000826124ec57506000610c72565b828202828482816124f957fe5b0414610c6f5760405162461bcd60e51b8152600401610ae99061476f565b6000610c6f83836040518060400160405280601e81526020017f536166654d6174683a207375627472616374696f6e206f766572666c6f77000081525061311c565b5490565b6000610c7260028363ffffffff61314816565b3390565b600081815260046020526040902080546001600160a01b0319166001600160a01b03841690811790915581906125a982611009565b6001600160a01b03167f8c5be1e5ebec7d5bd14f71427d1e84f3dd0314c0f7b2291e5b200ac8c7c3b92560405160405180910390a45050565b6000610c7282612559565b60006125f88261255d565b6126145760405162461bcd60e51b8152600401610ae99061455c565b600061261f83611009565b9050806001600160a01b0316846001600160a01b0316148061265a5750836001600160a01b031661264f84610ac2565b6001600160a01b0316145b8061266a575061266a818561237b565b949350505050565b826001600160a01b031661268582611009565b6001600160a01b0316146126ab5760405162461bcd60e51b8152600401610ae990614829565b6001600160a01b0382166126d15760405162461bcd60e51b8152600401610ae99061447b565b6126dc8383836109e7565b6126e7600082612574565b6001600160a01b038316600090815260016020526040902061270f908263ffffffff61315416565b506001600160a01b0382166000908152600160205260409020612738908263ffffffff61316016565b5061274b6002828463ffffffff61316c16565b5080826001600160a01b0316846001600160a01b03167fddf252ad1be2c89b69c2b068fc378daa952ba7f163c4a11628f55a4df523b3ef60405160405180910390a4505050565b6000828152600a602052604090206127b0908263ffffffff6124c816565b15610c43576127bd612570565b6001600160a01b0316816001600160a01b0316837f2f8788117e7eff1d82e926ec794901d17c78024a50270940304540a733656f0d60405160405180910390a45050565b6000610c6f8383613182565b6000828152600a6020526040902061282b908263ffffffff6131c716565b15610c4357612838612570565b6001600160a01b0316816001600160a01b0316837ff6391f5c32d9c69d2a47ea670b442974b53935d1edc7fd64eb21e047a839171b60405160405180910390a45050565b600080808061288b86866131dc565b9097909650945050505050565b60006128a5848484613238565b90505b9392505050565b610c43828260405180602001604052806000815250613297565b80546001019055565b60008660ff161180156128e85750601f8660ff16105b6129045760405162461bcd60e51b8152600401610ae9906147fc565b8560ff168560ff16111561292a5760405162461bcd60e51b8152600401610ae990614451565b610168846002602002015161ffff1611156129575760405162461bcd60e51b8152600401610ae990614309565b6064846001602002015161ffff1611156129835760405162461bcd60e51b8152600401610ae9906148eb565b806129b4576014846001602002015161ffff1610156129b45760405162461bcd60e51b8152600401610ae9906148eb565b6064846002602002015161ffff1611156129e05760405162461bcd60e51b8152600401610ae990614ba6565b6020830151835160ff91821691161115612a0c5760405162461bcd60e51b8152600401610ae990614bd1565b6060830151604084015160ff91821691161115612a3b5760405162461bcd60e51b8152600401610ae990614a72565b8151606460ff9091161115612a625760405162461bcd60e51b8152600401610ae9906149e0565b505050505050565b6000610c6f836001600160a01b0384166132ca565b601454341015612aa15760405162461bcd60e51b8152600401610ae9906146cb565b601454341115612aef5760145433906108fc90612ac590349063ffffffff61251716565b6040518115909202916000818181858888f19350505050158015612aed573d6000803e3d6000fd5b505b6000612afa8361255d565b612b045732612b0d565b612b0d83611009565b90506000612b1a32611098565b15612b2757601554612b2b565b6016545b905060006001600160a01b0383163314801590612b5157506001600160a01b0383163214155b8015612b6f5750836001600160a01b0316836001600160a01b031614155b612b7a576000612b94565b612b946064610958846014546124dd90919063ffffffff16565b90508015612bd4576040516001600160a01b0384169082156108fc029083906000818181858888f19350505050158015612bd2573d6000803e3d6000fd5b505b601454612bf090612beb908363ffffffff61251716565b61093a565b5050505050565b6000610c6f83836040518060400160405280601881526020017f536166654d6174683a206d6f64756c6f206279207a65726f00000000000000008152506132e2565b600082820183811015610c6f5760405162461bcd60e51b8152600401610ae9906143e3565b600081815b8151811015612cb0576000828281518110612c7a57fe5b016020015160f81c905060308110801590612c96575060398111155b15612ca7576030810384600a020193505b50600101612c63565b5050919050565b600080601360009054906101000a90046001600160a01b03166001600160a01b031663990c8f796040518163ffffffff1660e01b815260040160206040518083038186803b158015612d0857600080fd5b505afa158015612d1c573d6000803e3d6000fd5b505050506040513d601f19601f82011682018060405250810190612d409190613d7b565b8484604051602001612d54939291906140a3565b60408051808303601f1901815291905280516020909101206001600160801b0316949350505050565b612d85613a97565b606e821015612f36576060612da684600001516001600160801b0316613316565b9050612db0613af1565b506040805160e0810182526001808252600260208301819052600593830184905260096060840152608083019390935260a082019290925260c0810191909152612df8613b0f565b506040805161030081018252600180825260208201819052918101829052606081018290526080810182905260a0810182905260c0810182905260e08101829052610100810182905261012081018290526101408101829052610160810182905261018081018290526101a081018290526101c081018290526101e08101829052610200810182905261022081018290526102408101829052610260810182905261028081018290526102a081018290526102c081018290526102e0810191909152612ecc8382601863ffffffff6133cd16565b60ff168452600f54612edf908690612486565b60ff166020850152612f076001612ef88585601961343d565b60ff169063ffffffff612c3916565b60ff90811660408601526060870151612f259185916000911661348e565b60ff16606085015250610c72915050565b825160ff6001607b1b6001600160801b03928316041682528351600160771b90821604600f1660208301528351600160741b90821604600716604083015292516001606d1b931692909204607f1660608301525090565b612f98848484612672565b612fa4848484846134d1565b6121235760405162461bcd60e51b8152600401610ae990614330565b606081612fe557506040805180820190915260018152600360fc1b6020820152610a0b565b8160005b8115612ffd57600101600a82049150612fe9565b60608167ffffffffffffffff8111801561301657600080fd5b506040519080825280601f01601f191660200182016040528015613041576020820181803683370190505b50859350905060001982015b831561309257600a840660300160f81b8282806001900393508151811061307057fe5b60200101906001600160f81b031916908160001a905350600a8404935061304d565b50949350505050565b600081836130bc5760405162461bcd60e51b8152600401610ae99190614206565b5060008385816130c857fe5b0495945050505050565b60006130de83836132ca565b61311457508154600181810184556000848152602080822090930184905584548482528286019093526040902091909155610c72565b506000610c72565b600081848411156131405760405162461bcd60e51b8152600401610ae99190614206565b505050900390565b6000610c6f83836132ca565b6000610c6f83836135b6565b6000610c6f83836130d2565b60006128a584846001600160a01b03851661367c565b815460009082106131a55760405162461bcd60e51b8152600401610ae990614219565b8260000182815481106131b457fe5b9060005260206000200154905092915050565b6000610c6f836001600160a01b0384166135b6565b8154600090819083106132015760405162461bcd60e51b8152600401610ae9906146f8565b600084600001848154811061321257fe5b906000526020600020906002020190508060000154816001015492509250509250929050565b600082815260018401602052604081205482816132685760405162461bcd60e51b8152600401610ae99190614206565b5084600001600182038154811061327b57fe5b9060005260206000209060020201600101549150509392505050565b6132a18383613713565b6132ae60008484846134d1565b6109e75760405162461bcd60e51b8152600401610ae990614330565b60009081526001919091016020526040902054151590565b600081836133035760405162461bcd60e51b8152600401610ae99190614206565b5082848161330d57fe5b06949350505050565b60408051600380825260808201909252606091600291839160208201838036833701905050905060008085604051602001613352929190614095565b60408051601f198184030181529190528051602090910120905060005b838110156133c35780408260405160200161338b929190614095565b604051602081830303815290604052805190602001208382600101815181106133b057fe5b602090810291909101015260010161336f565b5090949350505050565b6000806133df8560018560ff1661348e565b90506000805b60188160ff16101561343357613418868260ff166018811061340357fe5b6020020151839060ff1663ffffffff6137e316565b915081831361342b5792506128a8915050565b6001016133e5565b5050509392505050565b60008061344f8560018560ff1661348e565b90506000805b60078160ff16101561343357613473868260ff166007811061340357fe5b91508183136134865792506128a8915050565b600101613455565b6000818313156134b05760405162461bcd60e51b8152600401610ae990614af2565b828383036001016134c086613829565b816134c757fe5b0601949350505050565b60006134e5846001600160a01b031661390c565b6134f15750600161266a565b606061357f630a85bd0160e11b613506612570565b88878760405160240161351c94939291906141b0565b604051602081830303815290604052906001600160e01b0319166020820180516001600160e01b038381831617835250505050604051806060016040528060328152602001614d51603291396001600160a01b038816919063ffffffff61394516565b90506000818060200190518101906135979190613df4565b6001600160e01b031916630a85bd0160e11b1492505050949350505050565b6000818152600183016020526040812054801561367257835460001980830191908101906000908790839081106135e957fe5b906000526020600020015490508087600001848154811061360657fe5b60009182526020808320909101929092558281526001898101909252604090209084019055865487908061363657fe5b60019003818190600052602060002001600090559055866001016000878152602001908152602001600020600090556001945050505050610c72565b6000915050610c72565b6000828152600184016020526040812054806136e15750506040805180820182528381526020808201848152865460018181018955600089815284812095516002909302909501918255915190820155865486845281880190925292909120556128a8565b828560000160018303815481106136f457fe5b90600052602060002090600202016001018190555060009150506128a8565b6001600160a01b0382166137395760405162461bcd60e51b8152600401610ae99061473a565b6137428161255d565b1561375f5760405162461bcd60e51b8152600401610ae9906143ac565b61376b600083836109e7565b6001600160a01b0382166000908152600160205260409020613793908263ffffffff61316016565b506137a66002828463ffffffff61316c16565b5060405181906001600160a01b038416906000907fddf252ad1be2c89b69c2b068fc378daa952ba7f163c4a11628f55a4df523b3ef908290a45050565b60008282018183128015906137f85750838112155b8061380d575060008312801561380d57508381125b610c6f5760405162461bcd60e51b8152600401610ae9906144f6565b6000600182511161384c5760405162461bcd60e51b8152600401610ae99061441a565b600060018351038360008151811061386057fe5b602002602001015160001c8161387257fe5b066001019050600083828151811061388657fe5b602002602001015160405160200161389e919061408c565b604051602081830303815290604052805190602001209050836000815181106138c357fe5b602002602001015160001c60010160001b846000815181106138e157fe5b602002602001018181525050808483815181106138fa57fe5b60209081029190910101529392505050565b6000813f7fc5d2460186f7233c927e7db2dcc703c0e500b653ca82273b7bfad8045d85a47081811480159061266a575050151592915050565b60606128a58484600085606061395a8561390c565b6139765760405162461bcd60e51b8152600401610ae9906149a9565b60006060866001600160a01b0316858760405161399391906140b9565b60006040518083038185875af1925050503d80600081146139d0576040519150601f19603f3d011682016040523d82523d6000602084013e6139d5565b606091505b509150915081156139e957915061266a9050565b8051156139f95780518082602001fd5b8360405162461bcd60e51b8152600401610ae99190614206565b6040805161020081018252600080825260208201819052918101829052606081018290526080810182905260a0810182905260c0810182905260e08101829052610100810182905261012081018290526101408101829052610160810182905261018081018290526101a081018290526101c081018290526101e081019190915290565b60405180608001604052806004906020820280368337509192915050565b60405180604001604052806002906020820280368337509192915050565b60405180606001604052806003906020820280368337509192915050565b6040518060e001604052806007906020820280368337509192915050565b6040518061030001604052806018906020820280368337509192915050565b80356001600160a01b0381168114610c7257600080fd5b8060608101831015610c7257600080fd5b8060408101831015610c7257600080fd5b8060808101831015610c7257600080fd5b803560ff81168114610c7257600080fd5b600060208284031215613b9a578081fd5b610c6f8383613b2e565b60008060408385031215613bb6578081fd5b613bc08484613b2e565b9150613bcf8460208501613b2e565b90509250929050565b600080600060608486031215613bec578081fd5b8335613bf781614d25565b92506020840135613c0781614d25565b929592945050506040919091013590565b60008060008060808587031215613c2d578081fd5b613c378686613b2e565b93506020613c4787828801613b2e565b935060408601359250606086013567ffffffffffffffff80821115613c6a578384fd5b81880189601f820112613c7b578485fd5b8035925081831115613c8b578485fd5b604051601f8401601f1916810185018381118282101715613caa578687fd5b60405283815281840185018b1015613cc0578586fd5b83858301868301379283019093019390935294979396509194505050565b60008060408385031215613cf0578182fd5b613cfa8484613b2e565b915060208301358015158114613d0e578182fd5b809150509250929050565b60008060408385031215613d2b578182fd5b613d358484613b2e565b946020939093013593505050565b600060208284031215613d54578081fd5b81358015158114610c6f578182fd5b600060208284031215613d74578081fd5b5035919050565b600060208284031215613d8c578081fd5b5051919050565b60008060408385031215613da5578182fd5b823591506020830135613d0e81614d25565b60008060408385031215613dc9578081fd5b50508035926020909101359150565b600060208284031215613de9578081fd5b8135610c6f81614d3a565b600060208284031215613e05578081fd5b8151610c6f81614d3a565b6000806000806000806000806000806101e08b8d031215613e2f578788fd5b8a3567ffffffffffffffff80821115613e4657898afd5b818d018e601f820112613e57578a8bfd5b8035925081831115613e67578a8bfd5b8e6020848301011115613e78578a8bfd5b602081019c50505080995050613e918c60208d01613b78565b9750613ea08c60408d01613b78565b9650613eaf8c60608d01613b45565b9550613ebe8c60c08d01613b67565b9450613ece8c6101408d01613b56565b9350613ede8c6101808d01613b78565b9250613eee8c6101a08d01613b2e565b91506101c08b013590509295989b9194979a5092959850565b6000806000806000806000806101c0898b031215613f23578182fd5b88356001600160801b0381168114613f39578283fd5b9750613f488a60208b01613b78565b9650613f578a60408b01613b78565b9550613f668a60608b01613b45565b9450613f758a60c08b01613b67565b9350613f858a6101408b01613b56565b9250613f958a6101808b01613b78565b91506101a089013590509295985092959890939650565b600060208284031215613fbd578081fd5b813561ffff81168114610c6f578182fd5b60008060808385031215613fe0578182fd5b82359150613bcf8460208501613b45565b600060208284031215614002578081fd5b610c6f8383613b78565b8060005b600381101561212357815161ffff16845260209384019390910190600101614010565b8060005b600281101561212357815160ff16845260209384019390910190600101614037565b60008151808452614071816020860160208601614cf9565b601f01601f19169290920160200192915050565b60ff169052565b90815260200190565b918252602082015260400190565b9283526020830191909152604082015260600190565b600082516140cb818460208701614cf9565b9190910192915050565b60008084546001808216600081146140f4576001811461410b5761413a565b60ff198316865260028304607f168601935061413a565b600283048886526020808720875b838110156141325781548a820152908501908201614119565b505050860193505b505050835161414d818360208801614cf9565b01949350505050565b6c414e494d41544f525f524f4c4560981b8152600d0190565b6a4152544953545f524f4c4560a81b8152600b0190565b6941444d494e5f524f4c4560b01b8152600a0190565b6001600160a01b0391909116815260200190565b6001600160a01b03858116825284166020820152604081018390526080606082018190526000906141e390830184614059565b9695505050505050565b901515815260200190565b60009190910b815260200190565b600060208252610c6f6020830184614059565b60208082526022908201527f456e756d657261626c655365743a20696e646578206f7574206f6620626f756e604082015261647360f01b606082015260800190565b6020808252602f908201527f416363657373436f6e74726f6c3a2073656e646572206d75737420626520616e60408201526e0818591b5a5b881d1bc819dc985b9d608a1b606082015260800190565b60208082526006908201526514185d5cd95960d21b604082015260600190565b60208082526004908201526315d0525560e21b604082015260600190565b6020808252600790820152664e4f204d4f524560c81b604082015260600190565b6020808252600d908201526c34b73b30b634b21031b7b637b960991b604082015260600190565b60208082526032908201527f4552433732313a207472616e7366657220746f206e6f6e20455243373231526560408201527131b2b4bb32b91034b6b83632b6b2b73a32b960711b606082015260800190565b60208082526010908201526f20a92a1029a0a6229024a99027ab22a960811b604082015260600190565b6020808252601c908201527f4552433732313a20746f6b656e20616c7265616479206d696e74656400000000604082015260600190565b6020808252601b908201527f536166654d6174683a206164646974696f6e206f766572666c6f770000000000604082015260600190565b60208082526019908201527f52616e646f6d2e6e6578743a20696e76616c696420706f6f6c00000000000000604082015260600190565b60208082526010908201526f696e76616c6964206861746368696e6760801b604082015260600190565b60208082526024908201527f4552433732313a207472616e7366657220746f20746865207a65726f206164646040820152637265737360e01b606082015260800190565b60208082526019908201527f4552433732313a20617070726f766520746f2063616c6c657200000000000000604082015260600190565b60208082526021908201527f5369676e6564536166654d6174683a206164646974696f6e206f766572666c6f6040820152607760f81b606082015260800190565b6020808252600b908201526a496e76616c696420426b6760a81b604082015260600190565b6020808252602c908201527f4552433732313a206f70657261746f7220717565727920666f72206e6f6e657860408201526b34b9ba32b73a103a37b5b2b760a11b606082015260800190565b60208082526030908201527f416363657373436f6e74726f6c3a2073656e646572206d75737420626520616e60408201526f2061646d696e20746f207265766f6b6560801b606082015260800190565b60208082526038908201527f4552433732313a20617070726f76652063616c6c6572206973206e6f74206f7760408201527f6e6572206e6f7220617070726f76656420666f7220616c6c0000000000000000606082015260800190565b6020808252602a908201527f4552433732313a2062616c616e636520717565727920666f7220746865207a65604082015269726f206164647265737360b01b606082015260800190565b602080825260129082015271496e7375662e205065726d697373696f6e7360701b604082015260600190565b6020808252601390820152721a5b9cdd599a58da595b9d081c185e5b595b9d606a1b604082015260600190565b60208082526022908201527f456e756d657261626c654d61703a20696e646578206f7574206f6620626f756e604082015261647360f01b606082015260800190565b6020808252818101527f4552433732313a206d696e7420746f20746865207a65726f2061646472657373604082015260600190565b60208082526021908201527f536166654d6174683a206d756c7469706c69636174696f6e206f766572666c6f6040820152607760f81b606082015260800190565b6020808252602c908201527f4552433732313a20617070726f76656420717565727920666f72206e6f6e657860408201526b34b9ba32b73a103a37b5b2b760a11b606082015260800190565b6020808252601390820152721a5b9d985b1a59081cda185c194818dbdd5b9d606a1b604082015260600190565b60208082526029908201527f4552433732313a207472616e73666572206f6620746f6b656e2074686174206960408201526839903737ba1037bbb760b91b606082015260800190565b6020808252602f908201527f4552433732314d657461646174613a2055524920717565727920666f72206e6f60408201526e3732bc34b9ba32b73a103a37b5b2b760891b606082015260800190565b60208082526010908201526f24b73b30b634b210223ab930ba34b7b760811b604082015260600190565b60208082526012908201527134b73b30b634b21039b0ba3ab930ba34b7b760711b604082015260600190565b60208082526021908201527f4552433732313a20617070726f76616c20746f2063757272656e74206f776e656040820152603960f91b606082015260800190565b60208082526031908201527f4552433732313a207472616e736665722063616c6c6572206973206e6f74206f6040820152701ddb995c881b9bdc88185c1c1c9bdd9959607a1b606082015260800190565b6020808252601d908201527f416464726573733a2063616c6c20746f206e6f6e2d636f6e7472616374000000604082015260600190565b6020808252600e908201526d1a5b9d985b1a59081cdc1c99585960921b604082015260600190565b6020808252600490820152631554d15160e21b604082015260600190565b6020808252600490820152634e4f504560e01b604082015260600190565b6020808252601490820152734d7573742062652066757475726520626c6f636b60601b604082015260600190565b602080825260149082015273696e76616c6964206865696768742072616e676560601b604082015260600190565b60208082526032908201527f43616c6c657220646f736e27742068617665207065726d697373696f6e20746f604082015271103ab9b2903a3434b990333ab731ba34b7b760711b606082015260800190565b6020808252818101527f52616e646f6d2e756e69666f726d3a20696e76616c696420696e74657276616c604082015260600190565b6020808252601690820152750c1e0c0c08149958da5c1a595b9d08125b9d985b1a5960521b604082015260600190565b6020808252602f908201527f416363657373436f6e74726f6c3a2063616e206f6e6c792072656e6f756e636560408201526e103937b632b9903337b91039b2b63360891b606082015260800190565b602080825260119082015270696e76616c6964206c696768746e65737360781b604082015260600190565b602080825260139082015272696e76616c69642077696474682072616e676560681b604082015260600190565b6001600160801b0391909116815260200190565b61ffff91909116815260200190565b8a815260ff8a81166020808401919091528a82166040840152610200830191606084018b60005b6004811015614c67578151841683529184019190840190600101614c48565b5050505050614c7960e0830189614033565b614c87610120830188614085565b614c9561014083018761400c565b614ca36101a0830186614085565b614cb16101c0830185614085565b614cbf6101e0830184614085565b9b9a5050505050505050505050565b60ff91909116815260200190565b60ff93841681529183166020830152909116604082015260600190565b60005b83811015614d14578181015183820152602001614cfc565b838111156121235750506000910152565b6001600160a01b03811681146109ea57600080fd5b6001600160e01b0319811681146109ea57600080fdfe4552433732313a207472616e7366657220746f206e6f6e20455243373231526563656976657220696d706c656d656e7465724552433732313a206f776e657220717565727920666f72206e6f6e6578697374656e7420746f6b656ea2646970667358221220f20d13cb8f86d8fd4dc4a752b78fbe5c0c6637fd1a208a552798090d3c93538d64736f6c63430006080033",
  "linkReferences": {},
  "deployedLinkReferences": {}
}