{
  "_format": "hh-sol-artifact-1",
  "contractName": "Colors",
  "sourceName": "contracts/libraries/Colors.sol",
  "abi": [
    {
      "inputs": [
        {
          "components": [
            {
              "components": [
                {
                  "internalType": "uint16",
                  "name": "hue",
                  "type": "uint16"
                },
                {
                  "internalType": "uint8",
                  "name": "saturation",
                  "type": "uint8"
                },
                {
                  "internalType": "uint8",
                  "name": "lightness",
                  "type": "uint8"
                }
              ],
              "internalType": "struct HSL",
              "name": "root",
              "type": "tuple"
            },
            {
              "internalType": "uint8",
              "name": "contrast",
              "type": "uint8"
            },
            {
              "internalType": "uint8",
              "name": "shades",
              "type": "uint8"
            },
            {
              "internalType": "uint8",
              "name": "scheme",
              "type": "uint8"
            }
          ],
          "internalType": "struct Palette",
          "name": "pal",
          "type": "tuple"
        },
        {
          "internalType": "uint8",
          "name": "hueIndex",
          "type": "uint8"
        },
        {
          "internalType": "uint8",
          "name": "shade",
          "type": "uint8"
        }
      ],
      "name": "lookupColor",
      "outputs": [
        {
          "components": [
            {
              "internalType": "uint16",
              "name": "hue",
              "type": "uint16"
            },
            {
              "internalType": "uint8",
              "name": "saturation",
              "type": "uint8"
            },
            {
              "internalType": "uint8",
              "name": "lightness",
              "type": "uint8"
            }
          ],
          "internalType": "struct HSL",
          "name": "",
          "type": "tuple"
        }
      ],
      "stateMutability": "view",
      "type": "function"
    },
    {
      "inputs": [
        {
          "internalType": "uint16",
          "name": "rootHue",
          "type": "uint16"
        },
        {
          "internalType": "uint8",
          "name": "scheme",
          "type": "uint8"
        },
        {
          "internalType": "uint8",
          "name": "index",
          "type": "uint8"
        }
      ],
      "name": "lookupHue",
      "outputs": [
        {
          "internalType": "uint16",
          "name": "hue",
          "type": "uint16"
        }
      ],
      "stateMutability": "view",
      "type": "function"
    },
    {
      "inputs": [
        {
          "components": [
            {
              "internalType": "uint16",
              "name": "hue",
              "type": "uint16"
            },
            {
              "internalType": "uint8",
              "name": "saturation",
              "type": "uint8"
            },
            {
              "internalType": "uint8",
              "name": "lightness",
              "type": "uint8"
            }
          ],
          "internalType": "struct HSL",
          "name": "color",
          "type": "tuple"
        }
      ],
      "name": "toString",
      "outputs": [
        {
          "internalType": "string",
          "name": "",
          "type": "string"
        }
      ],
      "stateMutability": "pure",
      "type": "function"
    }
  ],
  "bytecode": "0x61162a610026600b82828239805160001a60731461001957fe5b30600052607381538281f3fe730000000000000000000000000000000000000000301460806040526004361061004b5760003560e01c8063629fe50c14610050578063b090092a14610080578063fa43895e146100b0575b600080fd5b61006a60048036038101906100659190610df9565b6100e0565b60405161007791906114a4565b60405180910390f35b61009a60048036038101906100959190610e72565b6101cb565b6040516100a791906114bf565b60405180910390f35b6100ca60048036038101906100c59190610dd0565b6105fb565b6040516100d791906113a0565b60405180910390f35b6100e8610c3c565b60006101018560000151600001518660600151866101cb565b90506000856000015160200151905060006001876040015160ff16111561018e576000876020015160ff169050600061014a896040015160ff168361068090919063ffffffff16565b90506000610164828960ff166106ca90919063ffffffff16565b9050610184818b600001516040015160ff1661073a90919063ffffffff16565b935050505061019a565b86600001516040015190505b60405180606001604052808461ffff1681526020018360ff1681526020018260ff1681525093505050509392505050565b6000806101e76101688661ffff1661068090919063ffffffff16565b905060606101f482610784565b90506101fe610c67565b60405180606001604052806102216000610167866108719092919063ffffffff16565b61ffff1661ffff168152602001610259600a61024b600a610171886108719092919063ffffffff16565b61073a90919063ffffffff16565b61ffff1661ffff1681526020016102916014610283601461017b886108719092919063ffffffff16565b61073a90919063ffffffff16565b61ffff1661ffff1681525090506102a6610c89565b6040518061016001604052806040518060600160405280607861ffff1661ffff16815260200160f061ffff1661ffff168152602001600061ffff1661ffff168152508152602001604051806060016040528060b461ffff1661ffff16815260200160b461ffff1661ffff168152602001600061ffff1661ffff1681525081526020016040518060600160405280603c61ffff1661ffff16815260200160b461ffff1661ffff16815260200160f061ffff1661ffff1681525081526020016040518060600160405280601e61ffff1661ffff16815260200161014a61ffff1661ffff168152602001600061ffff1661ffff1681525081526020016040518060600160405280601e61ffff1661ffff16815260200160b461ffff1661ffff16815260200161014a61ffff1661ffff1681525081526020016040518060600160405280609661ffff1661ffff16815260200160d261ffff1661ffff168152602001600061ffff1661ffff1681525081526020016040518060600160405280609661ffff1661ffff16815260200160b461ffff1661ffff16815260200160d261ffff1661ffff1681525081526020016040518060600160405280601e61ffff1661ffff168152602001603c61ffff1661ffff168152602001605a61ffff1661ffff1681525081526020016040518060600160405280605a61ffff1661ffff16815260200160b461ffff1661ffff16815260200161010e61ffff1661ffff1681525081526020016040518060600160405280600061ffff1661ffff168152602001600061ffff1661ffff168152602001600061ffff1661ffff168152508152602001838152509050600b8760ff161061054f576040517f08c379a000000000000000000000000000000000000000000000000000000000815260040161054690611484565b60405180910390fd5b60048660ff1610610595576040517f08c379a000000000000000000000000000000000000000000000000000000000815260040161058c906113e4565b60405180910390fd5b60008660ff1614156105a9578794506105f0565b6105ed818860ff16600b81106105bb57fe5b60200201516001880360ff16600381106105d157fe5b602002015161ffff168961ffff166108d890919063ffffffff16565b94505b505050509392505050565b606061061c8260000160208101906106139190610e49565b61ffff1661092d565b61063a8360200160208101906106329190610ec1565b60ff1661092d565b6106588460400160208101906106509190610ec1565b60ff1661092d565b60405160200161066a93929190611317565b6040516020818303038152906040529050919050565b60006106c283836040518060400160405280601a81526020017f536166654d6174683a206469766973696f6e206279207a65726f000000000000815250610a74565b905092915050565b6000808314156106dd5760009050610734565b60008284029050828482816106ee57fe5b041461072f576040517f08c379a000000000000000000000000000000000000000000000000000000000815260040161072690611444565b60405180910390fd5b809150505b92915050565b600061077c83836040518060400160405280601e81526020017f536166654d6174683a207375627472616374696f6e206f766572666c6f770000815250610ad5565b905092915050565b60606000600290506060600367ffffffffffffffff811180156107a657600080fd5b506040519080825280602002602001820160405280156107d55781602001602082028036833780820191505090505b509050600080856040516020016107ed929190611374565b60405160208183030381529060405280519060200120905060008090505b83811015610865578040826040516020016108279291906112eb565b6040516020818303038152906040528051906020012083600183018151811061084c57fe5b602002602001018181525050808060010191505061080b565b50819350505050919050565b6000818313156108b6576040517f08c379a00000000000000000000000000000000000000000000000000000000081526004016108ad90611464565b60405180910390fd5b826001848403016108c686610b30565b816108cd57fe5b060190509392505050565b600080828401905083811015610923576040517f08c379a000000000000000000000000000000000000000000000000000000000815260040161091a90611404565b60405180910390fd5b8091505092915050565b60606000821415610975576040518060400160405280600181526020017f30000000000000000000000000000000000000000000000000000000000000008152509050610a6f565b600082905060005b6000821461099f578080600101915050600a828161099757fe5b04915061097d565b60608167ffffffffffffffff811180156109b857600080fd5b506040519080825280601f01601f1916602001820160405280156109eb5781602001600182028036833780820191505090505b50905060006001830390508593505b60008414610a6757600a8481610a0c57fe5b0660300160f81b82828060019003935081518110610a2657fe5b60200101907effffffffffffffffffffffffffffffffffffffffffffffffffffffffffffff1916908160001a905350600a8481610a5f57fe5b0493506109fa565b819450505050505b919050565b60008083118290610abb576040517f08c379a0000000000000000000000000000000000000000000000000000000008152600401610ab291906113c2565b60405180910390fd5b506000838581610ac757fe5b049050809150509392505050565b6000838311158290610b1d576040517f08c379a0000000000000000000000000000000000000000000000000000000008152600401610b1491906113c2565b60405180910390fd5b5060008385039050809150509392505050565b60006001825111610b76576040517f08c379a0000000000000000000000000000000000000000000000000000000008152600401610b6d90611424565b60405180910390fd5b600060018084510384600081518110610b8b57fe5b602002602001015160001c81610b9d57fe5b060190506000838281518110610baf57fe5b6020026020010151604051602001610bc791906112d0565b604051602081830303815290604052805190602001209050600184600081518110610bee57fe5b602002602001015160001c0160001b84600081518110610c0a57fe5b60200260200101818152505080848381518110610c2357fe5b6020026020010181815250508060001c92505050919050565b6040518060600160405280600061ffff168152602001600060ff168152602001600060ff1681525090565b6040518060600160405280600390602082028036833780820191505090505090565b604051806101600160405280600b905b610ca1610c67565b815260200190600190039081610c995790505090565b600060608284031215610cc957600080fd5b81905092915050565b600060608284031215610ce457600080fd5b610cee60606114da565b90506000610cfe84828501610da6565b6000830152506020610d1284828501610dbb565b6020830152506040610d2684828501610dbb565b60408301525092915050565b600060c08284031215610d4457600080fd5b610d4e60806114da565b90506000610d5e84828501610cd2565b6000830152506060610d7284828501610dbb565b6020830152506080610d8684828501610dbb565b60408301525060a0610d9a84828501610dbb565b60608301525092915050565b600081359050610db5816115c6565b92915050565b600081359050610dca816115dd565b92915050565b600060608284031215610de257600080fd5b6000610df084828501610cb7565b91505092915050565b60008060006101008486031215610e0f57600080fd5b6000610e1d86828701610d32565b93505060c0610e2e86828701610dbb565b92505060e0610e3f86828701610dbb565b9150509250925092565b600060208284031215610e5b57600080fd5b6000610e6984828501610da6565b91505092915050565b600080600060608486031215610e8757600080fd5b6000610e9586828701610da6565b9350506020610ea686828701610dbb565b9250506040610eb786828701610dbb565b9150509250925092565b600060208284031215610ed357600080fd5b6000610ee184828501610dbb565b91505092915050565b610efb610ef68261153f565b6115a1565b82525050565b6000610f0c82611507565b610f168185611512565b9350610f2681856020860161156e565b610f2f816115b5565b840191505092915050565b6000610f4582611507565b610f4f8185611523565b9350610f5f81856020860161156e565b610f68816115b5565b840191505092915050565b6000610f7e82611507565b610f888185611534565b9350610f9881856020860161156e565b80840191505092915050565b6000610fb1601383611512565b91507f496e76616c696420636f6c6f7220696e646578000000000000000000000000006000830152602082019050919050565b6000610ff1601b83611512565b91507f536166654d6174683a206164646974696f6e206f766572666c6f7700000000006000830152602082019050919050565b6000611031600283611534565b91507f252c0000000000000000000000000000000000000000000000000000000000006000830152600282019050919050565b6000611071601983611512565b91507f52616e646f6d2e6e6578743a20696e76616c696420706f6f6c000000000000006000830152602082019050919050565b60006110b1600183611534565b91507f2c000000000000000000000000000000000000000000000000000000000000006000830152600182019050919050565b60006110f1600483611534565b91507f68736c28000000000000000000000000000000000000000000000000000000006000830152600482019050919050565b6000611131600283611534565b91507f25290000000000000000000000000000000000000000000000000000000000006000830152600282019050919050565b6000611171602183611512565b91507f536166654d6174683a206d756c7469706c69636174696f6e206f766572666c6f60008301527f77000000000000000000000000000000000000000000000000000000000000006020830152604082019050919050565b60006111d7602083611512565b91507f52616e646f6d2e756e69666f726d3a20696e76616c696420696e74657276616c6000830152602082019050919050565b6000611217601183611512565b91507f496e76616c696420736368656d652069640000000000000000000000000000006000830152602082019050919050565b606082016000820151611260600085018261129b565b50602082015161127360208501826112c1565b50604082015161128660408501826112c1565b50505050565b61129581611549565b82525050565b6112a481611549565b82525050565b6112bb6112b682611557565b6115ab565b82525050565b6112ca81611561565b82525050565b60006112dc8284610eea565b60208201915081905092915050565b60006112f78285610eea565b6020820191506113078284610eea565b6020820191508190509392505050565b6000611322826110e4565b915061132e8286610f73565b9150611339826110a4565b91506113458285610f73565b915061135082611024565b915061135c8284610f73565b915061136782611124565b9150819050949350505050565b600061138082856112aa565b60208201915061139082846112aa565b6020820191508190509392505050565b600060208201905081810360008301526113ba8184610f3a565b905092915050565b600060208201905081810360008301526113dc8184610f01565b905092915050565b600060208201905081810360008301526113fd81610fa4565b9050919050565b6000602082019050818103600083015261141d81610fe4565b9050919050565b6000602082019050818103600083015261143d81611064565b9050919050565b6000602082019050818103600083015261145d81611164565b9050919050565b6000602082019050818103600083015261147d816111ca565b9050919050565b6000602082019050818103600083015261149d8161120a565b9050919050565b60006060820190506114b9600083018461124a565b92915050565b60006020820190506114d4600083018461128c565b92915050565b6000604051905081810181811067ffffffffffffffff821117156114fd57600080fd5b8060405250919050565b600081519050919050565b600082825260208201905092915050565b600082825260208201905092915050565b600081905092915050565b6000819050919050565b600061ffff82169050919050565b6000819050919050565b600060ff82169050919050565b60005b8381101561158c578082015181840152602081019050611571565b8381111561159b576000848401525b50505050565b6000819050919050565b6000819050919050565b6000601f19601f8301169050919050565b6115cf81611549565b81146115da57600080fd5b50565b6115e681611561565b81146115f157600080fd5b5056fea2646970667358221220db12aef392add616ae4e3daed7365a2fc4c71ec7d0ef78f95e9088ce86ae1c8764736f6c63430006080033",
  "linkReferences": {},
  "deployedLinkReferences": {}
}