{
  "_format": "hh-sol-artifact-1",
  "contractName": "Colors",
  "sourceName": "contracts/libraries/Colors.sol",
  "abi": [
    {
      "inputs": [
        {
          "components": [
            {
              "components": [
                {
                  "internalType": "uint16",
                  "name": "hue",
                  "type": "uint16"
                },
                {
                  "internalType": "uint8",
                  "name": "saturation",
                  "type": "uint8"
                },
                {
                  "internalType": "uint8",
                  "name": "lightness",
                  "type": "uint8"
                }
              ],
              "internalType": "struct HSL",
              "name": "root",
              "type": "tuple"
            },
            {
              "internalType": "uint8",
              "name": "contrast",
              "type": "uint8"
            },
            {
              "internalType": "uint8",
              "name": "shades",
              "type": "uint8"
            },
            {
              "internalType": "uint8",
              "name": "scheme",
              "type": "uint8"
            }
          ],
          "internalType": "struct Palette",
          "name": "pal",
          "type": "tuple"
        },
        {
          "internalType": "uint8",
          "name": "hueIndex",
          "type": "uint8"
        },
        {
          "internalType": "uint8",
          "name": "shade",
          "type": "uint8"
        }
      ],
      "name": "lookupColor",
      "outputs": [
        {
          "components": [
            {
              "internalType": "uint16",
              "name": "hue",
              "type": "uint16"
            },
            {
              "internalType": "uint8",
              "name": "saturation",
              "type": "uint8"
            },
            {
              "internalType": "uint8",
              "name": "lightness",
              "type": "uint8"
            }
          ],
          "internalType": "struct HSL",
          "name": "",
          "type": "tuple"
        }
      ],
      "stateMutability": "view",
      "type": "function"
    },
    {
      "inputs": [
        {
          "internalType": "uint16",
          "name": "rootHue",
          "type": "uint16"
        },
        {
          "internalType": "uint8",
          "name": "scheme",
          "type": "uint8"
        },
        {
          "internalType": "uint8",
          "name": "index",
          "type": "uint8"
        }
      ],
      "name": "lookupHue",
      "outputs": [
        {
          "internalType": "uint16",
          "name": "hue",
          "type": "uint16"
        }
      ],
      "stateMutability": "view",
      "type": "function"
    },
    {
      "inputs": [
        {
          "components": [
            {
              "internalType": "uint16",
              "name": "hue",
              "type": "uint16"
            },
            {
              "internalType": "uint8",
              "name": "saturation",
              "type": "uint8"
            },
            {
              "internalType": "uint8",
              "name": "lightness",
              "type": "uint8"
            }
          ],
          "internalType": "struct HSL",
          "name": "color",
          "type": "tuple"
        }
      ],
      "name": "toString",
      "outputs": [
        {
          "internalType": "string",
          "name": "",
          "type": "string"
        }
      ],
      "stateMutability": "pure",
      "type": "function"
    }
  ],
  "bytecode": "0x610e56610026600b82828239805160001a60731461001957fe5b30600052607381538281f3fe730000000000000000000000000000000000000000301460806040526004361061004b5760003560e01c8063629fe50c14610050578063b090092a14610079578063fa43895e14610099575b600080fd5b61006361005e366004610989565b6100b9565b6040516100709190610d8a565b60405180910390f35b61008c610087366004610a83565b61018c565b6040516100709190610dba565b6100ac6100a7366004610972565b610436565b6040516100709190610c09565b6100c16108e3565b83515160608501516000916100d6918661018c565b90506000856000015160200151905060006001876040015160ff161115610159576020870151604088015160ff9182169160009161011c9184911663ffffffff6104a816565b9050600061013360ff89168363ffffffff6104f316565b8a516040015190915061014f9060ff168263ffffffff61052d16565b9350505050610161565b508551604001515b6040805160608101825261ffff909416845260ff928316602085015291169082015290509392505050565b6000806101a561ffff861661016863ffffffff6104a816565b905060606101b28261056f565b90506101bc610903565b6040805160608101909152806101dc84600061016763ffffffff61062616565b61ffff168152602001610209600a6101fd868261017163ffffffff61062616565b9063ffffffff61052d16565b61ffff16815260200161022a60146101fd868261017b63ffffffff61062616565b61ffff169052905061023a610921565b50604080516101c0810182526078610160820190815260f0610180830181905260006101a0840181905291835283516060818101865260b480835260208381018290528388018690528087019390935286518083018852603c808252818501839052818901959095528688015286518083018852601e80825261014a828601819052828a018890528489019290925288518085018a52818152808601849052808a0192909252608088019190915287518084018952609680825260d2828701819052828b0189905260a08a019290925289518086018b52908152808601849052808a019190915260c08801528751808401895290815280840194909452605a84880181905260e0870194909452865180830188529384528383015261010e83870152610100850192909252845191820185528282528101829052928301526101208101919091526101408101829052600b60ff8816106103b55760405162461bcd60e51b81526004016103ac90610d53565b60405180910390fd5b60048660ff16106103d85760405162461bcd60e51b81526004016103ac90610c1c565b60ff86166103e85787945061042b565b610428818860ff16600b81106103fa57fe5b60200201516001880360ff166003811061041057fe5b602002015161ffff8a8116911663ffffffff61066916565b94505b505050509392505050565b60606104516104486020840184610a61565b61ffff1661068e565b61046c6104646040850160208601610abf565b60ff1661068e565b61047f6104646060860160408701610abf565b60405160200161049193929190610b1d565b60405160208183030381529060405290505b919050565b60006104ea83836040518060400160405280601a81526020017f536166654d6174683a206469766973696f6e206279207a65726f00000000000081525061079d565b90505b92915050565b600082610502575060006104ed565b8282028284828161050f57fe5b04146104ea5760405162461bcd60e51b81526004016103ac90610cc1565b60006104ea83836040518060400160405280601e81526020017f536166654d6174683a207375627472616374696f6e206f766572666c6f7700008152506107d4565b604080516003808252608082019092526060916002918391602082018380368337019050509050600080856040516020016105ab929190610b0f565b60408051601f198184030181529190528051602090910120905060005b8381101561061c578040826040516020016105e4929190610b0f565b6040516020818303038152906040528051906020012083826001018151811061060957fe5b60209081029190910101526001016105c8565b5090949350505050565b6000818313156106485760405162461bcd60e51b81526004016103ac90610d1e565b8283830360010161065886610800565b8161065f57fe5b0601949350505050565b6000828201838110156104ea5760405162461bcd60e51b81526004016103ac90610c53565b6060816106cf575060408051808201909152600181527f300000000000000000000000000000000000000000000000000000000000000060208201526104a3565b8160005b81156106e757600101600a820491506106d3565b60608167ffffffffffffffff8111801561070057600080fd5b506040519080825280601f01601f19166020018201604052801561072b576020820181803683370190505b50859350905060001982015b831561079457600a840660300160f81b8282806001900393508151811061075a57fe5b60200101907effffffffffffffffffffffffffffffffffffffffffffffffffffffffffffff1916908160001a905350600a84049350610737565b50949350505050565b600081836107be5760405162461bcd60e51b81526004016103ac9190610c09565b5060008385816107ca57fe5b0495945050505050565b600081848411156107f85760405162461bcd60e51b81526004016103ac9190610c09565b505050900390565b600060018251116108235760405162461bcd60e51b81526004016103ac90610c8a565b600060018351038360008151811061083757fe5b602002602001015160001c8161084957fe5b066001019050600083828151811061085d57fe5b60200260200101516040516020016108759190610b06565b6040516020818303038152906040528051906020012090508360008151811061089a57fe5b602002602001015160001c60010160001b846000815181106108b857fe5b602002602001018181525050808483815181106108d157fe5b60209081029190910101529392505050565b604080516060810182526000808252602082018190529181019190915290565b60405180606001604052806003906020820280368337509192915050565b604051806101600160405280600b905b610939610903565b8152602001906001900390816109315790505090565b803561ffff811681146104ed57600080fd5b803560ff811681146104ed57600080fd5b600060608284031215610983578081fd5b50919050565b600080600083850361010081121561099f578283fd5b60c08112156109ac578283fd5b6109b66080610dc9565b60608212156109c3578384fd5b6109cd6060610dc9565b91506109d9878761094f565b82526109e88760208801610961565b60208301526109fa8760408801610961565b6040830152818152610a0f8760608801610961565b6020820152610a218760808801610961565b6040820152610a338760a08801610961565b60608201529350610a4990508560c08601610961565b9150610a588560e08601610961565b90509250925092565b600060208284031215610a72578081fd5b813561ffff811681146104ea578182fd5b600080600060608486031215610a97578283fd5b610aa1858561094f565b9250610ab08560208601610961565b9150610a588560408601610961565b600060208284031215610ad0578081fd5b6104ea8383610961565b60008151808452610af2816020860160208601610df0565b601f01601f19169290920160200192915050565b90815260200190565b918252602082015260400190565b60007f68736c280000000000000000000000000000000000000000000000000000000082528451610b55816004850160208901610df0565b8083017f2c00000000000000000000000000000000000000000000000000000000000000600482015285519150610b93826005830160208901610df0565b8181017f252c000000000000000000000000000000000000000000000000000000000000600582015285519250610bd1836007830160208901610df0565b7f2529000000000000000000000000000000000000000000000000000000000000920160078101929092525060090195945050505050565b6000602082526104ea6020830184610ada565b60208082526013908201527f496e76616c696420636f6c6f7220696e64657800000000000000000000000000604082015260600190565b6020808252601b908201527f536166654d6174683a206164646974696f6e206f766572666c6f770000000000604082015260600190565b60208082526019908201527f52616e646f6d2e6e6578743a20696e76616c696420706f6f6c00000000000000604082015260600190565b60208082526021908201527f536166654d6174683a206d756c7469706c69636174696f6e206f766572666c6f60408201527f7700000000000000000000000000000000000000000000000000000000000000606082015260800190565b6020808252818101527f52616e646f6d2e756e69666f726d3a20696e76616c696420696e74657276616c604082015260600190565b60208082526011908201527f496e76616c696420736368656d65206964000000000000000000000000000000604082015260600190565b600060608201905061ffff835116825260ff602084015116602083015260ff604084015116604083015292915050565b61ffff91909116815260200190565b60405181810167ffffffffffffffff81118282101715610de857600080fd5b604052919050565b60005b83811015610e0b578181015183820152602001610df3565b83811115610e1a576000848401525b5050505056fea2646970667358221220a019ee6633ef9834d57235ff14a82ee0496adc90841b4ee6fdd409f6866350e164736f6c63430006080033",
  "linkReferences": {},
  "deployedLinkReferences": {}
}