{
  "_format": "hh-sol-artifact-1",
  "contractName": "TinyBoxes",
  "sourceName": "contracts/TinyBoxes.sol",
  "abi": [
    {
      "inputs": [
        {
          "internalType": "address",
          "name": "rand",
          "type": "address"
        }
      ],
      "stateMutability": "nonpayable",
      "type": "constructor"
    },
    {
      "anonymous": false,
      "inputs": [
        {
          "indexed": true,
          "internalType": "address",
          "name": "owner",
          "type": "address"
        },
        {
          "indexed": true,
          "internalType": "address",
          "name": "approved",
          "type": "address"
        },
        {
          "indexed": true,
          "internalType": "uint256",
          "name": "tokenId",
          "type": "uint256"
        }
      ],
      "name": "Approval",
      "type": "event"
    },
    {
      "anonymous": false,
      "inputs": [
        {
          "indexed": true,
          "internalType": "address",
          "name": "owner",
          "type": "address"
        },
        {
          "indexed": true,
          "internalType": "address",
          "name": "operator",
          "type": "address"
        },
        {
          "indexed": false,
          "internalType": "bool",
          "name": "approved",
          "type": "bool"
        }
      ],
      "name": "ApprovalForAll",
      "type": "event"
    },
    {
      "anonymous": false,
      "inputs": [
        {
          "indexed": true,
          "internalType": "bytes32",
          "name": "role",
          "type": "bytes32"
        },
        {
          "indexed": true,
          "internalType": "bytes32",
          "name": "previousAdminRole",
          "type": "bytes32"
        },
        {
          "indexed": true,
          "internalType": "bytes32",
          "name": "newAdminRole",
          "type": "bytes32"
        }
      ],
      "name": "RoleAdminChanged",
      "type": "event"
    },
    {
      "anonymous": false,
      "inputs": [
        {
          "indexed": true,
          "internalType": "bytes32",
          "name": "role",
          "type": "bytes32"
        },
        {
          "indexed": true,
          "internalType": "address",
          "name": "account",
          "type": "address"
        },
        {
          "indexed": true,
          "internalType": "address",
          "name": "sender",
          "type": "address"
        }
      ],
      "name": "RoleGranted",
      "type": "event"
    },
    {
      "anonymous": false,
      "inputs": [
        {
          "indexed": true,
          "internalType": "bytes32",
          "name": "role",
          "type": "bytes32"
        },
        {
          "indexed": true,
          "internalType": "address",
          "name": "account",
          "type": "address"
        },
        {
          "indexed": true,
          "internalType": "address",
          "name": "sender",
          "type": "address"
        }
      ],
      "name": "RoleRevoked",
      "type": "event"
    },
    {
      "anonymous": false,
      "inputs": [
        {
          "indexed": true,
          "internalType": "address",
          "name": "from",
          "type": "address"
        },
        {
          "indexed": true,
          "internalType": "address",
          "name": "to",
          "type": "address"
        },
        {
          "indexed": true,
          "internalType": "uint256",
          "name": "tokenId",
          "type": "uint256"
        }
      ],
      "name": "Transfer",
      "type": "event"
    },
    {
      "inputs": [],
      "name": "ADMIN_ROLE",
      "outputs": [
        {
          "internalType": "bytes32",
          "name": "",
          "type": "bytes32"
        }
      ],
      "stateMutability": "view",
      "type": "function"
    },
    {
      "inputs": [],
      "name": "ANIMATION_COUNT",
      "outputs": [
        {
          "internalType": "uint8",
          "name": "",
          "type": "uint8"
        }
      ],
      "stateMutability": "view",
      "type": "function"
    },
    {
      "inputs": [],
      "name": "ANIMATOR_ROLE",
      "outputs": [
        {
          "internalType": "bytes32",
          "name": "",
          "type": "bytes32"
        }
      ],
      "stateMutability": "view",
      "type": "function"
    },
    {
      "inputs": [],
      "name": "ARTIST_ROLE",
      "outputs": [
        {
          "internalType": "bytes32",
          "name": "",
          "type": "bytes32"
        }
      ],
      "stateMutability": "view",
      "type": "function"
    },
    {
      "inputs": [],
      "name": "DEFAULT_ADMIN_ROLE",
      "outputs": [
        {
          "internalType": "bytes32",
          "name": "",
          "type": "bytes32"
        }
      ],
      "stateMutability": "view",
      "type": "function"
    },
    {
      "inputs": [],
      "name": "SCHEME_COUNT",
      "outputs": [
        {
          "internalType": "uint8",
          "name": "",
          "type": "uint8"
        }
      ],
      "stateMutability": "view",
      "type": "function"
    },
    {
      "inputs": [],
      "name": "TOKEN_LIMIT",
      "outputs": [
        {
          "internalType": "uint16",
          "name": "",
          "type": "uint16"
        }
      ],
      "stateMutability": "view",
      "type": "function"
    },
    {
      "inputs": [
        {
          "internalType": "address",
          "name": "to",
          "type": "address"
        },
        {
          "internalType": "uint256",
          "name": "tokenId",
          "type": "uint256"
        }
      ],
      "name": "approve",
      "outputs": [],
      "stateMutability": "nonpayable",
      "type": "function"
    },
    {
      "inputs": [
        {
          "internalType": "address",
          "name": "owner",
          "type": "address"
        }
      ],
      "name": "balanceOf",
      "outputs": [
        {
          "internalType": "uint256",
          "name": "",
          "type": "uint256"
        }
      ],
      "stateMutability": "view",
      "type": "function"
    },
    {
      "inputs": [],
      "name": "baseURI",
      "outputs": [
        {
          "internalType": "string",
          "name": "",
          "type": "string"
        }
      ],
      "stateMutability": "view",
      "type": "function"
    },
    {
      "inputs": [],
      "name": "blockStart",
      "outputs": [
        {
          "internalType": "uint256",
          "name": "",
          "type": "uint256"
        }
      ],
      "stateMutability": "view",
      "type": "function"
    },
    {
      "inputs": [
        {
          "internalType": "uint256",
          "name": "id",
          "type": "uint256"
        },
        {
          "internalType": "uint8[3]",
          "name": "settings",
          "type": "uint8[3]"
        }
      ],
      "name": "changeSettings",
      "outputs": [],
      "stateMutability": "nonpayable",
      "type": "function"
    },
    {
      "inputs": [],
      "name": "contractURI",
      "outputs": [
        {
          "internalType": "string",
          "name": "",
          "type": "string"
        }
      ],
      "stateMutability": "view",
      "type": "function"
    },
    {
      "inputs": [
        {
          "internalType": "string",
          "name": "_seed",
          "type": "string"
        },
        {
          "internalType": "uint8",
          "name": "shapes",
          "type": "uint8"
        },
        {
          "internalType": "uint8",
          "name": "hatching",
          "type": "uint8"
        },
        {
          "internalType": "uint16[3]",
          "name": "color",
          "type": "uint16[3]"
        },
        {
          "internalType": "uint8[4]",
          "name": "size",
          "type": "uint8[4]"
        },
        {
          "internalType": "uint8[2]",
          "name": "spacing",
          "type": "uint8[2]"
        },
        {
          "internalType": "uint8",
          "name": "mirroring",
          "type": "uint8"
        },
        {
          "internalType": "address",
          "name": "recipient",
          "type": "address"
        },
        {
          "internalType": "uint256",
          "name": "referalID",
          "type": "uint256"
        }
      ],
      "name": "createTo",
      "outputs": [
        {
          "internalType": "uint256",
          "name": "",
          "type": "uint256"
        }
      ],
      "stateMutability": "payable",
      "type": "function"
    },
    {
      "inputs": [
        {
          "internalType": "uint128",
          "name": "seed",
          "type": "uint128"
        },
        {
          "internalType": "uint8",
          "name": "shapes",
          "type": "uint8"
        },
        {
          "internalType": "uint8",
          "name": "hatching",
          "type": "uint8"
        },
        {
          "internalType": "uint16[3]",
          "name": "color",
          "type": "uint16[3]"
        },
        {
          "internalType": "uint8[4]",
          "name": "size",
          "type": "uint8[4]"
        },
        {
          "internalType": "uint8[2]",
          "name": "spacing",
          "type": "uint8[2]"
        },
        {
          "internalType": "uint8",
          "name": "mirroring",
          "type": "uint8"
        },
        {
          "internalType": "address",
          "name": "recipient",
          "type": "address"
        },
        {
          "internalType": "uint256",
          "name": "id",
          "type": "uint256"
        }
      ],
      "name": "createWithPromo",
      "outputs": [
        {
          "internalType": "uint256",
          "name": "",
          "type": "uint256"
        }
      ],
      "stateMutability": "nonpayable",
      "type": "function"
    },
    {
      "inputs": [],
      "name": "currentPhase",
      "outputs": [
        {
          "internalType": "uint8",
          "name": "",
          "type": "uint8"
        }
      ],
      "stateMutability": "view",
      "type": "function"
    },
    {
      "inputs": [
        {
          "internalType": "uint256",
          "name": "tokenId",
          "type": "uint256"
        }
      ],
      "name": "getApproved",
      "outputs": [
        {
          "internalType": "address",
          "name": "",
          "type": "address"
        }
      ],
      "stateMutability": "view",
      "type": "function"
    },
    {
      "inputs": [
        {
          "internalType": "bytes32",
          "name": "role",
          "type": "bytes32"
        }
      ],
      "name": "getRoleAdmin",
      "outputs": [
        {
          "internalType": "bytes32",
          "name": "",
          "type": "bytes32"
        }
      ],
      "stateMutability": "view",
      "type": "function"
    },
    {
      "inputs": [
        {
          "internalType": "bytes32",
          "name": "role",
          "type": "bytes32"
        },
        {
          "internalType": "uint256",
          "name": "index",
          "type": "uint256"
        }
      ],
      "name": "getRoleMember",
      "outputs": [
        {
          "internalType": "address",
          "name": "",
          "type": "address"
        }
      ],
      "stateMutability": "view",
      "type": "function"
    },
    {
      "inputs": [
        {
          "internalType": "bytes32",
          "name": "role",
          "type": "bytes32"
        }
      ],
      "name": "getRoleMemberCount",
      "outputs": [
        {
          "internalType": "uint256",
          "name": "",
          "type": "uint256"
        }
      ],
      "stateMutability": "view",
      "type": "function"
    },
    {
      "inputs": [
        {
          "internalType": "bytes32",
          "name": "role",
          "type": "bytes32"
        },
        {
          "internalType": "address",
          "name": "account",
          "type": "address"
        }
      ],
      "name": "grantRole",
      "outputs": [],
      "stateMutability": "nonpayable",
      "type": "function"
    },
    {
      "inputs": [
        {
          "internalType": "bytes32",
          "name": "role",
          "type": "bytes32"
        },
        {
          "internalType": "address",
          "name": "account",
          "type": "address"
        }
      ],
      "name": "hasRole",
      "outputs": [
        {
          "internalType": "bool",
          "name": "",
          "type": "bool"
        }
      ],
      "stateMutability": "view",
      "type": "function"
    },
    {
      "inputs": [
        {
          "internalType": "address",
          "name": "owner",
          "type": "address"
        },
        {
          "internalType": "address",
          "name": "operator",
          "type": "address"
        }
      ],
      "name": "isApprovedForAll",
      "outputs": [
        {
          "internalType": "bool",
          "name": "",
          "type": "bool"
        }
      ],
      "stateMutability": "view",
      "type": "function"
    },
    {
      "inputs": [
        {
          "internalType": "address",
          "name": "to",
          "type": "address"
        }
      ],
      "name": "mintPromo",
      "outputs": [],
      "stateMutability": "nonpayable",
      "type": "function"
    },
    {
      "inputs": [],
      "name": "name",
      "outputs": [
        {
          "internalType": "string",
          "name": "",
          "type": "string"
        }
      ],
      "stateMutability": "view",
      "type": "function"
    },
    {
      "inputs": [
        {
          "internalType": "uint256",
          "name": "tokenId",
          "type": "uint256"
        }
      ],
      "name": "ownerOf",
      "outputs": [
        {
          "internalType": "address",
          "name": "",
          "type": "address"
        }
      ],
      "stateMutability": "view",
      "type": "function"
    },
    {
      "inputs": [],
      "name": "paused",
      "outputs": [
        {
          "internalType": "bool",
          "name": "",
          "type": "bool"
        }
      ],
      "stateMutability": "view",
      "type": "function"
    },
    {
      "inputs": [],
      "name": "phaseCountdown",
      "outputs": [
        {
          "internalType": "uint256",
          "name": "",
          "type": "uint256"
        }
      ],
      "stateMutability": "view",
      "type": "function"
    },
    {
      "inputs": [],
      "name": "phaseCountdownTime",
      "outputs": [
        {
          "internalType": "uint256",
          "name": "",
          "type": "uint256"
        }
      ],
      "stateMutability": "view",
      "type": "function"
    },
    {
      "inputs": [],
      "name": "phaseLen",
      "outputs": [
        {
          "internalType": "uint256",
          "name": "",
          "type": "uint256"
        }
      ],
      "stateMutability": "view",
      "type": "function"
    },
    {
      "inputs": [],
      "name": "price",
      "outputs": [
        {
          "internalType": "uint256",
          "name": "",
          "type": "uint256"
        }
      ],
      "stateMutability": "view",
      "type": "function"
    },
    {
      "inputs": [
        {
          "internalType": "uint256",
          "name": "id",
          "type": "uint256"
        }
      ],
      "name": "readSettings",
      "outputs": [
        {
          "internalType": "uint8",
          "name": "bkg",
          "type": "uint8"
        },
        {
          "internalType": "uint8",
          "name": "duration",
          "type": "uint8"
        },
        {
          "internalType": "uint8",
          "name": "options",
          "type": "uint8"
        }
      ],
      "stateMutability": "view",
      "type": "function"
    },
    {
      "inputs": [],
      "name": "referalNewPercent",
      "outputs": [
        {
          "internalType": "uint256",
          "name": "",
          "type": "uint256"
        }
      ],
      "stateMutability": "view",
      "type": "function"
    },
    {
      "inputs": [],
      "name": "referalPercent",
      "outputs": [
        {
          "internalType": "uint256",
          "name": "",
          "type": "uint256"
        }
      ],
      "stateMutability": "view",
      "type": "function"
    },
    {
      "inputs": [
        {
          "internalType": "bytes32",
          "name": "role",
          "type": "bytes32"
        },
        {
          "internalType": "address",
          "name": "account",
          "type": "address"
        }
      ],
      "name": "renounceRole",
      "outputs": [],
      "stateMutability": "nonpayable",
      "type": "function"
    },
    {
      "inputs": [
        {
          "internalType": "bytes32",
          "name": "role",
          "type": "bytes32"
        },
        {
          "internalType": "address",
          "name": "account",
          "type": "address"
        }
      ],
      "name": "revokeRole",
      "outputs": [],
      "stateMutability": "nonpayable",
      "type": "function"
    },
    {
      "inputs": [
        {
          "internalType": "address",
          "name": "from",
          "type": "address"
        },
        {
          "internalType": "address",
          "name": "to",
          "type": "address"
        },
        {
          "internalType": "uint256",
          "name": "tokenId",
          "type": "uint256"
        }
      ],
      "name": "safeTransferFrom",
      "outputs": [],
      "stateMutability": "nonpayable",
      "type": "function"
    },
    {
      "inputs": [
        {
          "internalType": "address",
          "name": "from",
          "type": "address"
        },
        {
          "internalType": "address",
          "name": "to",
          "type": "address"
        },
        {
          "internalType": "uint256",
          "name": "tokenId",
          "type": "uint256"
        },
        {
          "internalType": "bytes",
          "name": "_data",
          "type": "bytes"
        }
      ],
      "name": "safeTransferFrom",
      "outputs": [],
      "stateMutability": "nonpayable",
      "type": "function"
    },
    {
      "inputs": [
        {
          "internalType": "address",
          "name": "operator",
          "type": "address"
        },
        {
          "internalType": "bool",
          "name": "approved",
          "type": "bool"
        }
      ],
      "name": "setApprovalForAll",
      "outputs": [],
      "stateMutability": "nonpayable",
      "type": "function"
    },
    {
      "inputs": [
        {
          "internalType": "string",
          "name": "_uri",
          "type": "string"
        }
      ],
      "name": "setBaseURI",
      "outputs": [],
      "stateMutability": "nonpayable",
      "type": "function"
    },
    {
      "inputs": [
        {
          "internalType": "string",
          "name": "_uri",
          "type": "string"
        }
      ],
      "name": "setContractURI",
      "outputs": [],
      "stateMutability": "nonpayable",
      "type": "function"
    },
    {
      "inputs": [
        {
          "internalType": "bool",
          "name": "state",
          "type": "bool"
        }
      ],
      "name": "setPause",
      "outputs": [],
      "stateMutability": "nonpayable",
      "type": "function"
    },
    {
      "inputs": [
        {
          "internalType": "address",
          "name": "_promoTokenAddress",
          "type": "address"
        }
      ],
      "name": "setPromo",
      "outputs": [],
      "stateMutability": "nonpayable",
      "type": "function"
    },
    {
      "inputs": [
        {
          "internalType": "address",
          "name": "rand",
          "type": "address"
        }
      ],
      "name": "setRandom",
      "outputs": [],
      "stateMutability": "nonpayable",
      "type": "function"
    },
    {
      "inputs": [
        {
          "internalType": "uint256",
          "name": "_id",
          "type": "uint256"
        },
        {
          "internalType": "string",
          "name": "_uri",
          "type": "string"
        }
      ],
      "name": "setTokenURI",
      "outputs": [],
      "stateMutability": "nonpayable",
      "type": "function"
    },
    {
      "inputs": [
        {
          "internalType": "uint256",
          "name": "startBlock",
          "type": "uint256"
        }
      ],
      "name": "startCoundown",
      "outputs": [],
      "stateMutability": "nonpayable",
      "type": "function"
    },
    {
      "inputs": [
        {
          "internalType": "bytes4",
          "name": "interfaceId",
          "type": "bytes4"
        }
      ],
      "name": "supportsInterface",
      "outputs": [
        {
          "internalType": "bool",
          "name": "",
          "type": "bool"
        }
      ],
      "stateMutability": "view",
      "type": "function"
    },
    {
      "inputs": [],
      "name": "symbol",
      "outputs": [
        {
          "internalType": "string",
          "name": "",
          "type": "string"
        }
      ],
      "stateMutability": "view",
      "type": "function"
    },
    {
      "inputs": [],
      "name": "testRandom",
      "outputs": [
        {
          "internalType": "bytes32",
          "name": "",
          "type": "bytes32"
        }
      ],
      "stateMutability": "view",
      "type": "function"
    },
    {
      "inputs": [
        {
          "internalType": "uint256",
          "name": "_id",
          "type": "uint256"
        },
        {
          "internalType": "uint8",
          "name": "bkg",
          "type": "uint8"
        },
        {
          "internalType": "uint8",
          "name": "duration",
          "type": "uint8"
        },
        {
          "internalType": "uint8",
          "name": "options",
          "type": "uint8"
        },
        {
          "internalType": "string",
          "name": "slot",
          "type": "string"
        }
      ],
      "name": "tokenArt",
      "outputs": [
        {
          "internalType": "string",
          "name": "",
          "type": "string"
        }
      ],
      "stateMutability": "view",
      "type": "function"
    },
    {
      "inputs": [
        {
          "internalType": "uint256",
          "name": "_id",
          "type": "uint256"
        }
      ],
      "name": "tokenArt",
      "outputs": [
        {
          "internalType": "string",
          "name": "",
          "type": "string"
        }
      ],
      "stateMutability": "view",
      "type": "function"
    },
    {
      "inputs": [
        {
          "internalType": "uint256",
          "name": "index",
          "type": "uint256"
        }
      ],
      "name": "tokenByIndex",
      "outputs": [
        {
          "internalType": "uint256",
          "name": "",
          "type": "uint256"
        }
      ],
      "stateMutability": "view",
      "type": "function"
    },
    {
      "inputs": [
        {
          "internalType": "uint256",
          "name": "_id",
          "type": "uint256"
        }
      ],
      "name": "tokenData",
      "outputs": [
        {
          "internalType": "uint256",
          "name": "animation",
          "type": "uint256"
        },
        {
          "internalType": "uint8",
          "name": "shapes",
          "type": "uint8"
        },
        {
          "internalType": "uint8",
          "name": "hatching",
          "type": "uint8"
        },
        {
          "internalType": "uint8[4]",
          "name": "size",
          "type": "uint8[4]"
        },
        {
          "internalType": "uint8[2]",
          "name": "spacing",
          "type": "uint8[2]"
        },
        {
          "internalType": "uint8",
          "name": "mirroring",
          "type": "uint8"
        },
        {
          "internalType": "uint16[3]",
          "name": "color",
          "type": "uint16[3]"
        },
        {
          "internalType": "uint8",
          "name": "contrast",
          "type": "uint8"
        },
        {
          "internalType": "uint8",
          "name": "shades",
          "type": "uint8"
        },
        {
          "internalType": "uint8",
          "name": "scheme",
          "type": "uint8"
        }
      ],
      "stateMutability": "view",
      "type": "function"
    },
    {
      "inputs": [
        {
          "internalType": "address",
          "name": "owner",
          "type": "address"
        },
        {
          "internalType": "uint256",
          "name": "index",
          "type": "uint256"
        }
      ],
      "name": "tokenOfOwnerByIndex",
      "outputs": [
        {
          "internalType": "uint256",
          "name": "",
          "type": "uint256"
        }
      ],
      "stateMutability": "view",
      "type": "function"
    },
    {
      "inputs": [
        {
          "internalType": "string",
          "name": "seed",
          "type": "string"
        },
        {
          "internalType": "uint16[3]",
          "name": "color",
          "type": "uint16[3]"
        },
        {
          "internalType": "uint8[2]",
          "name": "shapes",
          "type": "uint8[2]"
        },
        {
          "internalType": "uint8[4]",
          "name": "size",
          "type": "uint8[4]"
        },
        {
          "internalType": "uint8[2]",
          "name": "spacing",
          "type": "uint8[2]"
        },
        {
          "internalType": "uint8",
          "name": "mirroring",
          "type": "uint8"
        },
        {
          "internalType": "uint8[3]",
          "name": "settings",
          "type": "uint8[3]"
        },
        {
          "internalType": "uint8[4]",
          "name": "traits",
          "type": "uint8[4]"
        },
        {
          "internalType": "string",
          "name": "slot",
          "type": "string"
        }
      ],
      "name": "tokenPreview",
      "outputs": [
        {
          "internalType": "string",
          "name": "",
          "type": "string"
        }
      ],
      "stateMutability": "view",
      "type": "function"
    },
    {
      "inputs": [
        {
          "internalType": "uint256",
          "name": "id",
          "type": "uint256"
        }
      ],
      "name": "tokenRandomness",
      "outputs": [
        {
          "internalType": "uint128",
          "name": "",
          "type": "uint128"
        }
      ],
      "stateMutability": "view",
      "type": "function"
    },
    {
      "inputs": [
        {
          "internalType": "uint256",
          "name": "tokenId",
          "type": "uint256"
        }
      ],
      "name": "tokenURI",
      "outputs": [
        {
          "internalType": "string",
          "name": "",
          "type": "string"
        }
      ],
      "stateMutability": "view",
      "type": "function"
    },
    {
      "inputs": [],
      "name": "totalSupply",
      "outputs": [
        {
          "internalType": "uint256",
          "name": "",
          "type": "uint256"
        }
      ],
      "stateMutability": "view",
      "type": "function"
    },
    {
      "inputs": [
        {
          "internalType": "address",
          "name": "from",
          "type": "address"
        },
        {
          "internalType": "address",
          "name": "to",
          "type": "address"
        },
        {
          "internalType": "uint256",
          "name": "tokenId",
          "type": "uint256"
        }
      ],
      "name": "transferFrom",
      "outputs": [],
      "stateMutability": "nonpayable",
      "type": "function"
    },
    {
      "inputs": [
        {
          "internalType": "uint256",
          "name": "id",
          "type": "uint256"
        }
      ],
      "name": "trueID",
      "outputs": [
        {
          "internalType": "int8",
          "name": "",
          "type": "int8"
        }
      ],
      "stateMutability": "pure",
      "type": "function"
    },
    {
      "stateMutability": "payable",
      "type": "receive"
    }
  ],
  "bytecode": "0x6080604052600c805460ff19166001179055600b606e0461ffff16600e556078600f556200003e600f80546200024760201b62002b031790919060201c565b6010556001601455600a601555600f601655601780546001600160a01b0319908116737a832c86002323a5de3a317b3281eb88ec3b2c0017909155601880549091167363a9dbce75413036b2b778e670aabd4493aaf9f31790556040805160608101909152602b808252620063b960208301398051620000c79160199160209091019062000462565b50348015620000d557600080fd5b50604051620063e4380380620063e4833981016040819052620000f89162000504565b604080518082018252600981526854696e79426f78657360b81b602080830191909152825180840190935260068352655b235d5b235d60d01b908301528291620001526301ffc9a760e01b6001600160e01b036200029a16565b81516200016790600690602085019062000462565b5080516200017d90600790602084019062000462565b50620001996380ac58cd60e01b6001600160e01b036200029a16565b620001b4635b5e139f60e01b6001600160e01b036200029a16565b620001cf63780e9d6360e01b6001600160e01b036200029a16565b5050620001fc604051620001e39062000564565b604051908190039020336001600160e01b03620002f516565b6200020e604051620001e3906200054d565b62000220604051620001e39062000534565b601280546001600160a01b0319166001600160a01b03929092169190911790555062000607565b60006200029183836040518060400160405280601a81526020017f536166654d6174683a206469766973696f6e206279207a65726f0000000000008152506200030e60201b60201c565b90505b92915050565b6001600160e01b03198082161415620002d05760405162461bcd60e51b8152600401620002c790620005d0565b60405180910390fd5b6001600160e01b0319166000908152602081905260409020805460ff19166001179055565b6200030a82826001600160e01b036200034916565b5050565b60008183620003325760405162461bcd60e51b8152600401620002c791906200057a565b5060008385816200033f57fe5b0495945050505050565b6000828152600a602090815260409091206200037091839062002b45620003cd821b17901c565b156200030a57620003896001600160e01b03620003ed16565b6001600160a01b0316816001600160a01b0316837f2f8788117e7eff1d82e926ec794901d17c78024a50270940304540a733656f0d60405160405180910390a45050565b600062000291836001600160a01b0384166001600160e01b03620003f216565b335b90565b60006200040983836001600160e01b036200044a16565b620004415750815460018181018455600084815260208082209093018490558454848252828601909352604090209190915562000294565b50600062000294565b60009081526001919091016020526040902054151590565b828054600181600116156101000203166002900490600052602060002090601f016020900481019282601f10620004a557805160ff1916838001178555620004d5565b82800160010185558215620004d5579182015b82811115620004d5578251825591602001919060010190620004b8565b50620004e3929150620004e7565b5090565b620003ef91905b80821115620004e35760008155600101620004ee565b60006020828403121562000516578081fd5b81516001600160a01b03811681146200052d578182fd5b9392505050565b6c414e494d41544f525f524f4c4560981b8152600d0190565b6a4152544953545f524f4c4560a81b8152600b0190565b6941444d494e5f524f4c4560b01b8152600a0190565b6000602080835283518082850152825b81811015620005a8578581018301518582016040015282016200058a565b81811115620005ba5783604083870101525b50601f01601f1916929092016040019392505050565b6020808252601c908201527f4552433136353a20696e76616c696420696e7465726661636520696400000000604082015260600190565b615da280620006176000396000f3fe60806040526004361061039b5760003560e01c806375b238fc116101dc578063b88d4fde11610102578063d547741f116100a0578063f7eaec7d1161006f578063f7eaec7d14610a5b578063fbddd14b14610a70578063fc4ea93914610a85578063fd05dd6a14610a9a576103ab565b8063d547741f146109f1578063e8a3d48514610a11578063e985e9c514610a26578063f1d77baf14610a46576103ab565b8063ca15c873116100dc578063ca15c8731461097c578063ca9c0bad1461099c578063ce427c1c146109bc578063d3fd603c146109d1576103ab565b8063b88d4fde1461091c578063bedb86fb1461093c578063c87b56dd1461095c576103ab565b806395d89b411161017a578063a2a87ffb11610149578063a2a87ffb1461089c578063a966a0df146108bc578063b3174fa1146108d1578063b4b5b48f146108e6576103ab565b806395d89b411461083d578063a035b1fe14610852578063a217fddf14610867578063a22cb4651461087c576103ab565b80639010d07c116101b65780639010d07c146107ae57806391d14854146107ce578063938e3d7b146107ee578063947e93d91461080e576103ab565b806375b238fc146107645780637b2feaaa146107795780637def753d1461078e576103ab565b80632f745c59116102c15780634f6ccce71161025f5780636352211e1161022e5780636352211e146106fa5780636c0360eb1461071a57806370a082311461072f57806371a0a0161461074f576103ab565b80634f6ccce71461069057806352410197146106b057806355f804b3146106c55780635c975abb146106e5576103ab565b80633c564cab1161029b5780633c564cab14610603578063408f3a2b1461062357806342842e0e1461065057806345de630514610670576103ab565b80632f745c59146105a357806333618273146105c357806336568abe146105e3576103ab565b806314082d811161033957806323b872dd1161030857806323b872dd14610530578063248a9ca3146105505780632c50bd88146105705780632f2ff15d14610583576103ab565b806314082d81146104ae578063162094c4146104db57806318160ddd146104fb5780631dd6878214610510576103ab565b806306fdde031161037557806306fdde031461042a578063081812fc1461044c578063095ea7b3146104795780630e1b9b0e14610499576103ab565b806301ffc9a7146103b0578063031bd4c4146103e6578063055ad42e14610408576103ab565b366103ab576103a934610ac7565b005b600080fd5b3480156103bc57600080fd5b506103d06103cb366004614810565b610b7a565b6040516103dd9190615026565b60405180910390f35b3480156103f257600080fd5b506103fb610b9d565b6040516103dd9190615b97565b34801561041457600080fd5b5061041d610ba2565b6040516103dd9190615c44565b34801561043657600080fd5b5061043f610bba565b6040516103dd919061503f565b34801561045857600080fd5b5061046c61046736600461479b565b610c50565b6040516103dd9190614fd5565b34801561048557600080fd5b506103a9610494366004614750565b610c9c565b3480156104a557600080fd5b5061041d610d2f565b3480156104ba57600080fd5b506104ce6104c9366004614abd565b610d34565b6040516103dd9190614ec5565b3480156104e757600080fd5b506103a96104f6366004614bc5565b611036565b34801561050757600080fd5b506104ce6110b6565b34801561051c57600080fd5b5061043f61052b366004614c0f565b6110c2565b34801561053c57600080fd5b506103a961054b366004614634565b611279565b34801561055c57600080fd5b506104ce61056b36600461479b565b6112b1565b6104ce61057e366004614979565b6112c6565b34801561058f57600080fd5b506103a961059e3660046147cb565b611619565b3480156105af57600080fd5b506104ce6105be366004614750565b611661565b3480156105cf57600080fd5b506103a96105de36600461479b565b611692565b3480156105ef57600080fd5b506103a96105fe3660046147cb565b6116fb565b34801561060f57600080fd5b506103a961061e366004614b99565b61173d565b34801561062f57600080fd5b5061064361063e36600461479b565b6118bd565b6040516103dd9190615b83565b34801561065c57600080fd5b506103a961066b366004614634565b6119dd565b34801561067c57600080fd5b5061043f61068b366004614888565b6119f8565b34801561069c57600080fd5b506104ce6106ab36600461479b565b611d34565b3480156106bc57600080fd5b506104ce611d50565b3480156106d157600080fd5b506103a96106e0366004614848565b611d56565b3480156106f157600080fd5b506103d0611dcf565b34801561070657600080fd5b5061046c61071536600461479b565b611dd8565b34801561072657600080fd5b5061043f611e06565b34801561073b57600080fd5b506104ce61074a3660046145c4565b611e67565b34801561075b57600080fd5b5061041d611eb0565b34801561077057600080fd5b506104ce611eb5565b34801561078557600080fd5b506104ce611ecc565b34801561079a57600080fd5b506103a96107a93660046145c4565b611ed2565b3480156107ba57600080fd5b5061046c6107c93660046147ef565b611f72565b3480156107da57600080fd5b506103d06107e93660046147cb565b611f90565b3480156107fa57600080fd5b506103a9610809366004614848565b611fae565b34801561081a57600080fd5b5061082e61082936600461479b565b611ff4565b6040516103dd93929190615c52565b34801561084957600080fd5b5061043f612120565b34801561085e57600080fd5b506104ce612181565b34801561087357600080fd5b506104ce612187565b34801561088857600080fd5b506103a961089736600461471f565b61218c565b3480156108a857600080fd5b5061043f6108b736600461479b565b61225a565b3480156108c857600080fd5b506104ce61241b565b3480156108dd57600080fd5b506104ce612427565b3480156108f257600080fd5b5061090661090136600461479b565b61242d565b6040516103dd9a99989796959493929190615ba6565b34801561092857600080fd5b506103a9610937366004614674565b612684565b34801561094857600080fd5b506103a961095736600461477b565b6126bd565b34801561096857600080fd5b5061043f61097736600461479b565b61270b565b34801561098857600080fd5b506104ce61099736600461479b565b612855565b3480156109a857600080fd5b506103a96109b73660046145c4565b61286c565b3480156109c857600080fd5b506104ce6128c9565b3480156109dd57600080fd5b506103a96109ec3660046145c4565b6128d5565b3480156109fd57600080fd5b506103a9610a0c3660046147cb565b612932565b348015610a1d57600080fd5b5061043f61296c565b348015610a3257600080fd5b506103d0610a413660046145fc565b6129fa565b348015610a5257600080fd5b506104ce612a28565b348015610a6757600080fd5b506104ce612a2e565b348015610a7c57600080fd5b506104ce612a34565b348015610a9157600080fd5b506104ce612afd565b348015610aa657600080fd5b50610aba610ab536600461479b565b610bb7565b6040516103dd9190615031565b8015610b77576000610af16064610ae584603c63ffffffff612b5a16565b9063ffffffff612b0316565b6017546040519192506001600160a01b03169082156108fc029083906000818181858888f19350505050158015610b2c573d6000803e3d6000fd5b506018546001600160a01b03166108fc610b4c848463ffffffff612b9416565b6040518115909202916000818181858888f19350505050158015610b74573d6000803e3d6000fd5b50505b50565b6001600160e01b0319811660009081526020819052604090205460ff165b919050565b606e81565b6000610bb4600e54610ae5600b612bd6565b90505b90565b60068054604080516020601f6002600019610100600188161502019095169490940493840181900481028201810190925282815260609390929091830182828015610c465780601f10610c1b57610100808354040283529160200191610c46565b820191906000526020600020905b815481529060010190602001808311610c2957829003601f168201915b5050505050905090565b6000610c5b82612bda565b610c805760405162461bcd60e51b8152600401610c77906155c8565b60405180910390fd5b506000908152600460205260409020546001600160a01b031690565b6000610ca782611dd8565b9050806001600160a01b0316836001600160a01b03161415610cdb5760405162461bcd60e51b8152600401610c779061577b565b806001600160a01b0316610ced612bed565b6001600160a01b03161480610d095750610d0981610a41612bed565b610d255760405162461bcd60e51b8152600401610c7790615410565b610b748383612bf1565b601881565b600c5460009060ff1615610d5a5760405162461bcd60e51b8152600401610c77906150e3565b6013546040516331a9108f60e11b815233916001600160a01b031690636352211e90610d8a908690600401614ec5565b60206040518083038186803b158015610da257600080fd5b505afa158015610db6573d6000803e3d6000fd5b505050506040513d601f19601f82011682018060405250810190610dda91906145e0565b6001600160a01b031614610e005760405162461bcd60e51b8152600401610c779061586c565b60135460405163db006a7560e01b81526001600160a01b039091169063db006a7590610e30908590600401614ec5565b600060405180830381600087803b158015610e4a57600080fd5b505af1158015610e5e573d6000803e3d6000fd5b50505050610ee089898960038060200260405190810160405280929190826003602002808284376000920191909152505060408051608081810190925291508b9060049083908390808284376000920191909152505060408051808201825291508b90600290839083908082843760009201919091525060019150612c5f9050565b6110296040518061020001604052808c6001600160801b0316815260200189600060038110610f0b57fe5b602002016020810190610f1e9190614b77565b61ffff168152602090810190610f3a9060408c01908c01614b77565b60ff168152602001610f5260608b0160408c01614b77565b60ff90811682528c811660208301528b166040820152606001886000602002016020810190610f819190614c8f565b60ff168152602090810190610f9c9060408b01908b01614c8f565b60ff168152602001610fb460608a0160408b01614c8f565b60ff168152602001610fcc60808a0160608b01614c8f565b60ff168152602090810190610fe390890189614c8f565b60ff168152602090810190610ffe9060408a01908a01614c8f565b60ff90811682528716602082015260006040820152600a606082015260016080909101528385612def565b5098975050505050505050565b60405161104290614f8f565b60405180910390206110548133611f90565b6110705760405162461bcd60e51b8152600401610c779061590d565b6110b08484848080601f01602080910402602001604051908101604052809392919081815260200183838082843760009201919091525061303692505050565b50505050565b6000610bb4600261307a565b60606110cc614323565b5060008781526011602090815260409182902082516102008101845290546001600160801b038116825261ffff600160801b8204169282019290925260ff600160901b8304811693820193909352600160981b820483166060820152600160a01b820483166080820152600160a81b8204831660a0820152600160b01b8204831660c0820152600160b81b8204831660e0820152600160c01b82048316610100820152600160c81b82048316610120820152600160d01b82048316610140820152600160d81b82048316610160820152600160e01b90910482166101808201528782166101a08201528582166101e08201529086166101c082015273__$3521b43f6ab127c26fee7017c8c4b99125$__63bb02cf9e828a6111ec81611dd8565b6111f6868e613085565b89896040518763ffffffff1660e01b815260040161121996959493929190615aee565b60006040518083038186803b15801561123157600080fd5b505af4158015611245573d6000803e3d6000fd5b505050506040513d6000823e601f3d908101601f1916820160405261126d9190810190614a47565b98975050505050505050565b61128a611284612bed565b82613295565b6112a65760405162461bcd60e51b8152600401610c77906157bc565b610b7483838361331a565b6000908152600a602052604090206002015490565b600c5460009060ff16156112ec5760405162461bcd60e51b8152600401610c77906150e3565b600d5443101561130e5760405162461bcd60e51b8152600401610c7790615103565b606e61131a600b612bd6565b106113375760405162461bcd60e51b8152600401610c779061519a565b611341828461343a565b6113bc89898960038060200260405190810160405280929190826003602002808284376000920191909152505060408051608081810190925291508b9060049083908390808284376000920191909152505060408051808201825291508b90600290839083908082843760009201829052509150612c5f9050565b6001600160a01b0383166113e25760405162461bcd60e51b8152600401610c7790615994565b60006113ee600b612bd6565b90506113fa600b6135b2565b611416600e5461140a600b612bd6565b9063ffffffff6135bb16565b61144b5761144761143a611428610ba2565b6010549060ff1663ffffffff612b5a16565b439063ffffffff6135fd16565b600d555b600061148c8d8d8080601f01602080910402602001604051908101604052809392919081815260200183838082843760009201919091525061362292505050565b9050600061149a838361367b565b9050611607604051806102000160405280836001600160801b031681526020018c6000600381106114c757fe5b6020020160208101906114da9190614b77565b61ffff16815260200160c86001600160801b038516066001600160801b03166000146115155761151060408e0160208f01614b77565b611518565b60005b60ff16815260200161153060608e0160408f01614b77565b60ff90811682528f811660208301528e1660408201526060018b600060200201602081019061155f9190614c8f565b60ff16815260209081019061157a9060408e01908e01614c8f565b60ff16815260200161159260608d0160408e01614c8f565b60ff1681526020016115aa60808d0160608e01614c8f565b60ff1681526020908101906115c1908c018c614c8f565b60ff1681526020908101906115dc9060408d01908d01614c8f565b60ff90811682528a16602082015260006040820152600a606082015260016080909101528488612def565b50909c9b505050505050505050505050565b6000828152600a6020526040902060020154611637906107e9612bed565b6116535760405162461bcd60e51b8152600401610c7790615094565b61165d8282613741565b5050565b6001600160a01b0382166000908152600160205260408120611689908363ffffffff6137b016565b90505b92915050565b60405161169e90614fbf565b60405180910390206116b08133611f90565b6116cc5760405162461bcd60e51b8152600401610c779061590d565b4382116116eb5760405162461bcd60e51b8152600401610c779061588a565b50600d55600c805460ff19169055565b611703612bed565b6001600160a01b0316816001600160a01b0316146117335760405162461bcd60e51b8152600401610c77906159c4565b61165d82826137bc565b61174682611dd8565b6001600160a01b0316336001600160a01b0316148061177e575061176982610c50565b6001600160a01b0316336001600160a01b0316145b61179a5760405162461bcd60e51b8152600401610c77906154b7565b60656117a96020830183614c8f565b60ff1611156117ca5760405162461bcd60e51b8152600401610c779061534f565b60006117dc6040830160208401614c8f565b60ff16116117fc5760405162461bcd60e51b8152600401610c7790615725565b6118096020820182614c8f565b6000838152601160205260409020805460ff92909216600160e81b0260ff60e81b1990921691909117905580600160200201602081019061184a9190614c8f565b6000838152601160205260409020805460ff92909216600160f01b0260ff60f01b1990921691909117905580600260200201602081019061188b9190614c8f565b600092835260116020526040909220805460ff93909316600160f81b026001600160f81b039093169290921790915550565b60006118c7614323565b505060009081526011602090815260409182902082516102008101845290546001600160801b03811680835261ffff600160801b8304169383019390935260ff600160901b8204811694830194909452600160981b810484166060830152600160a01b810484166080830152600160a81b8104841660a0830152600160b01b8104841660c0830152600160b81b8104841660e0830152600160c01b81048416610100830152600160c81b81048416610120830152600160d01b81048416610140830152600160d81b81048416610160830152600160e01b81048416610180830152600160e81b810484166101a0830152600160f01b810484166101c0830152600160f81b90049092166101e09092019190915290565b610b7483838360405180602001604052806000815250612684565b60606065611a096020870187614c8f565b60ff161115611a2a5760405162461bcd60e51b8152600401610c77906158e6565b611abf611a3a60208b018b614c8f565b611a4a60408c0160208d01614c8f565b604080516060818101909252908e9060039083908390808284376000920191909152505060408051608081810190925291508d9060049083908390808284376000920191909152505060408051808201825291508d90600290839083908082843760009201919091525060019150612c5f9050565b611ac7614323565b604051806102000160405280611b128f8f8080601f01602080910402602001604051908101604052809392919081815260200183838082843760009201919091525061362292505050565b6001600160801b03168152602090810190611b2f908e018e614b77565b61ffff168152602090810190611b4b9060408f01908f01614b77565b60ff168152602001611b6360608e0160408f01614b77565b60ff168152602090810190611b7a908d018d614c8f565b60ff168152602090810190611b959060408e01908e01614c8f565b60ff168152602090810190611bac908c018c614c8f565b60ff168152602090810190611bc79060408d01908d01614c8f565b60ff168152602001611bdf60608c0160408d01614c8f565b60ff168152602001611bf760808c0160608d01614c8f565b60ff168152602090810190611c0e908b018b614c8f565b60ff168152602090810190611c299060408c01908c01614c8f565b60ff908116825289166020820152604001876000602002016020810190611c509190614c8f565b60ff168152602090810190611c6b9060408a01908a01614c8f565b60ff168152602001611c836060890160408a01614c8f565b60ff169052604051635d8167cf60e11b815290915073__$3521b43f6ab127c26fee7017c8c4b99125$__9063bb02cf9e90611ccd90849060009081908b908b908b90600401615a6b565b60006040518083038186803b158015611ce557600080fd5b505af4158015611cf9573d6000803e3d6000fd5b505050506040513d6000823e601f3d908101601f19168201604052611d219190810190614a47565b9150505b9b9a5050505050505050505050565b600080611d4860028463ffffffff61382b16565b509392505050565b600f5481565b604051611d6290614fbf565b6040518091039020611d748133611f90565b611d905760405162461bcd60e51b8152600401610c779061590d565b610b7483838080601f01602080910402602001604051908101604052809392919081815260200183838082843760009201919091525061384992505050565b600c5460ff1681565b600061168c82604051806060016040528060298152602001615d44602991396002919063ffffffff61385c16565b60098054604080516020601f6002600019610100600188161502019095169490940493840181900481028201810190925282815260609390929091830182828015610c465780601f10610c1b57610100808354040283529160200191610c46565b60006001600160a01b038216611e8f5760405162461bcd60e51b8152600401610c779061546d565b6001600160a01b038216600090815260016020526040902061168c9061307a565b600b81565b604051611ec190614fbf565b604051809103902081565b600d5481565b604051611ede90614fbf565b6040518091039020611ef08133611f90565b611f0c5760405162461bcd60e51b8152600401610c779061590d565b60135460405163623b692f60e01b81526001600160a01b039091169063623b692f90611f3c908590600401614fd5565b600060405180830381600087803b158015611f5657600080fd5b505af1158015611f6a573d6000803e3d6000fd5b505050505050565b6000828152600a60205260408120611689908363ffffffff6137b016565b6000828152600a60205260408120611689908363ffffffff61386916565b604051611fba90614fbf565b6040518091039020611fcc8133611f90565b611fe85760405162461bcd60e51b8152600401610c779061590d565b6110b0601984846143a7565b6000806000612001614323565b5050506000918252506011602090815260409182902082516102008101845290546001600160801b038116825261ffff600160801b8204169282019290925260ff600160901b8304811693820193909352600160981b820483166060820152600160a01b820483166080820152600160a81b8204831660a0820152600160b01b8204831660c0820152600160b81b8204831660e0820152600160c01b82048316610100820152600160c81b82048316610120820152600160d01b82048316610140820152600160d81b82048316610160820152600160e01b82048316610180820152600160e81b820483166101a08201819052600160f01b830484166101c08301819052600160f81b9093049093166101e09091018190529192909190565b60078054604080516020601f6002600019610100600188161502019095169490940493840181900481028201810190925282815260609390929091830182828015610c465780601f10610c1b57610100808354040283529160200191610c46565b60145481565b600081565b612194612bed565b6001600160a01b0316826001600160a01b031614156121c55760405162461bcd60e51b8152600401610c77906152d7565b80600560006121d2612bed565b6001600160a01b03908116825260208083019390935260409182016000908120918716808252919093529120805460ff191692151592909217909155612216612bed565b6001600160a01b03167f17307eab39ab6107e8899845ad3d59bd9653f200f220920489ca2b5937696c318360405161224e9190615026565b60405180910390a35050565b6060612264614323565b5060008281526011602090815260409182902082516102008101845290546001600160801b038116825261ffff600160801b8204169282019290925260ff600160901b8304811693820193909352600160981b820483166060820152600160a01b820483166080820152600160a81b8204831660a0820152600160b01b8204831660c0820152600160b81b8204831660e0820152600160c01b82048316610100820152600160c81b82048316610120820152600160d01b82048316610140820152600160d81b82048316610160820152600160e01b82048316610180820152600160e81b820483166101a0820152600160f01b820483166101c0820152600160f81b9091049091166101e082015273__$3521b43f6ab127c26fee7017c8c4b99125$__63bb02cf9e828561239781611dd8565b6123a18689613085565b6040518563ffffffff1660e01b81526004016123c09493929190615b37565b60006040518083038186803b1580156123d857600080fd5b505af41580156123ec573d6000803e3d6000fd5b505050506040513d6000823e601f3d908101601f191682016040526124149190810190614a47565b9392505050565b604051611ec190614fa8565b600e5481565b600080600061243a614421565b61244261443f565b600061244c61445d565b6000806000612459614323565b5060008b81526011602090815260409182902082516102008101845290546001600160801b038116825261ffff600160801b8204169282019290925260ff600160901b8304811693820193909352600160981b820483166060820152600160a01b820483166080820152600160a81b8204831660a0820152600160b01b8204831660c0820152600160b81b8204831660e0820152600160c01b82048316610100820152600160c81b82048316610120820152600160d01b82048316610140820152600160d81b82048316610160820152600160e01b82048316610180820152600160e81b820483166101a0820152600160f01b820483166101c0820152600160f81b9091049091166101e082015261256f614421565b612579828e613085565b9050806000602002015160ff169b50806001602002015192508060026020020151935080600360200201519450816101800151965081608001519a508160a0015199506040518060600160405280836020015161ffff1661ffff168152602001836040015160ff1661ffff168152602001836060015160ff1661ffff16815250955060405180608001604052808360c0015160ff1660ff1681526020018360e0015160ff1660ff16815260200183610100015160ff1660ff16815260200183610120015160ff1660ff168152509850604051806040016040528083610140015160ff1660ff16815260200183610160015160ff1660ff16815250975050509193959799509193959799565b61269561268f612bed565b83613295565b6126b15760405162461bcd60e51b8152600401610c77906157bc565b6110b08484848461387e565b6040516126c990614fbf565b60405180910390206126db8133611f90565b6126f75760405162461bcd60e51b8152600401610c779061590d565b50600c805460ff1916911515919091179055565b606061271682612bda565b6127325760405162461bcd60e51b8152600401610c77906156d6565b60008281526008602090815260409182902080548351601f60026000196101006001861615020190931692909204918201849004840281018401909452808452606093928301828280156127c75780601f1061279c576101008083540402835291602001916127c7565b820191906000526020600020905b8154815290600101906020018083116127aa57829003601f168201915b5050600954939450505050600260001961010060018416150201909116046127f0579050610b98565b8051156128225760098160405160200161280b929190614f0e565b604051602081830303815290604052915050610b98565b600961282d846138b1565b60405160200161283e929190614f0e565b604051602081830303815290604052915050919050565b6000818152600a6020526040812061168c9061307a565b60405161287890614fbf565b604051809103902061288a8133611f90565b6128a65760405162461bcd60e51b8152600401610c779061590d565b50601280546001600160a01b0319166001600160a01b0392909216919091179055565b604051611ec190614f8f565b6040516128e190614fbf565b60405180910390206128f38133611f90565b61290f5760405162461bcd60e51b8152600401610c779061590d565b50601380546001600160a01b0319166001600160a01b0392909216919091179055565b6000828152600a6020526040902060020154612950906107e9612bed565b6117335760405162461bcd60e51b8152600401610c77906153c0565b6019805460408051602060026001851615610100026000190190941693909304601f810184900484028201840190925281815292918301828280156129f25780601f106129c7576101008083540402835291602001916129f2565b820191906000526020600020905b8154815290600101906020018083116129d557829003601f168201915b505050505081565b6001600160a01b03918216600090815260056020908152604080832093909416825291909152205460ff1690565b60165481565b60155481565b6000604051612a4290614fbf565b6040518091039020612a548133611f90565b612a705760405162461bcd60e51b8152600401610c779061590d565b601260009054906101000a90046001600160a01b03166001600160a01b031663990c8f796040518163ffffffff1660e01b815260040160206040518083038186803b158015612abe57600080fd5b505afa158015612ad2573d6000803e3d6000fd5b505050506040513d601f19601f82011682018060405250810190612af691906147b3565b91505b5090565b60105481565b600061168983836040518060400160405280601a81526020017f536166654d6174683a206469766973696f6e206279207a65726f00000000000081525061398c565b6000611689836001600160a01b0384166139c3565b600082612b695750600061168c565b82820282848281612b7657fe5b04146116895760405162461bcd60e51b8152600401610c7790615587565b600061168983836040518060400160405280601e81526020017f536166654d6174683a207375627472616374696f6e206f766572666c6f770000815250613a0d565b5490565b600061168c60028363ffffffff613a3916565b3390565b600081815260046020526040902080546001600160a01b0319166001600160a01b0384169081179091558190612c2682611dd8565b6001600160a01b03167f8c5be1e5ebec7d5bd14f71427d1e84f3dd0314c0f7b2291e5b200ac8c7c3b92560405160405180910390a45050565b60008660ff16118015612c755750601f8660ff16105b612c915760405162461bcd60e51b8152600401610c7790615660565b8560ff168560ff161115612cb75760405162461bcd60e51b8152600401610c7790615269565b610168846002602002015161ffff161115612ce45760405162461bcd60e51b8152600401610c7790615121565b6064846001602002015161ffff161115612d105760405162461bcd60e51b8152600401610c779061574f565b80612d41576014846001602002015161ffff161015612d415760405162461bcd60e51b8152600401610c779061574f565b6064846002602002015161ffff161115612d6d5760405162461bcd60e51b8152600401610c7790615a13565b6020830151835160ff91821691161115612d995760405162461bcd60e51b8152600401610c7790615a3e565b6060830151604084015160ff91821691161115612dc85760405162461bcd60e51b8152600401610c77906158b8565b8151606460ff9091161115611f6a5760405162461bcd60e51b8152600401610c7790615844565b826011600084815260200190815260200160002060008201518160000160006101000a8154816001600160801b0302191690836001600160801b0316021790555060208201518160000160106101000a81548161ffff021916908361ffff16021790555060408201518160000160126101000a81548160ff021916908360ff16021790555060608201518160000160136101000a81548160ff021916908360ff16021790555060808201518160000160146101000a81548160ff021916908360ff16021790555060a08201518160000160156101000a81548160ff021916908360ff16021790555060c08201518160000160166101000a81548160ff021916908360ff16021790555060e08201518160000160176101000a81548160ff021916908360ff1602179055506101008201518160000160186101000a81548160ff021916908360ff1602179055506101208201518160000160196101000a81548160ff021916908360ff16021790555061014082015181600001601a6101000a81548160ff021916908360ff16021790555061016082015181600001601b6101000a81548160ff021916908360ff16021790555061018082015181600001601c6101000a81548160ff021916908360ff1602179055506101a082015181600001601d6101000a81548160ff021916908360ff1602179055506101c082015181600001601e6101000a81548160ff021916908360ff1602179055506101e082015181600001601f6101000a81548160ff021916908360ff160217905550905050610b748183613a45565b61303f82612bda565b61305b5760405162461bcd60e51b8152600401610c7790615614565b60008281526008602090815260409091208251610b749284019061447b565b600061168c82612bd6565b61308d614421565b606e82101561323e5760606130ae84600001516001600160801b0316613a5f565b90506130b86144e9565b506040805160e0810182526001808252600260208301819052600593830184905260096060840152608083019390935260a082019290925260c0810191909152613100614507565b506040805161030081018252600180825260208201819052918101829052606081018290526080810182905260a0810182905260c0810182905260e08101829052610100810182905261012081018290526101408101829052610160810182905261018081018290526101a081018290526101c081018290526101e08101829052610200810182905261022081018290526102408101829052610260810182905261028081018290526102a081018290526102c081018290526102e08101919091526131d48382601863ffffffff613b1616565b60ff168452600e546131e7908690612b03565b60ff16602085015261320f600161320085856019613b86565b60ff169063ffffffff6135fd16565b60ff9081166040860152606087015161322d91859160009116613bd7565b60ff1660608501525061168c915050565b825160ff6001607b1b6001600160801b03928316041682528351600160771b90821604600f1660208301528351600160741b90821604600716604083015292516001606d1b931692909204607f1660608301525090565b60006132a082612bda565b6132bc5760405162461bcd60e51b8152600401610c7790615374565b60006132c783611dd8565b9050806001600160a01b0316846001600160a01b031614806133025750836001600160a01b03166132f784610c50565b6001600160a01b0316145b80613312575061331281856129fa565b949350505050565b826001600160a01b031661332d82611dd8565b6001600160a01b0316146133535760405162461bcd60e51b8152600401610c779061568d565b6001600160a01b0382166133795760405162461bcd60e51b8152600401610c7790615293565b613384838383610b74565b61338f600082612bf1565b6001600160a01b03831660009081526001602052604090206133b7908263ffffffff613c1a16565b506001600160a01b03821660009081526001602052604090206133e0908263ffffffff613c2616565b506133f36002828463ffffffff613c3216565b5080826001600160a01b0316846001600160a01b03167fddf252ad1be2c89b69c2b068fc378daa952ba7f163c4a11628f55a4df523b3ef60405160405180910390a4505050565b60145434101561345c5760405162461bcd60e51b8152600401610c77906154e3565b6014543411156134aa5760145433906108fc9061348090349063ffffffff612b9416565b6040518115909202916000818181858888f193505050501580156134a8573d6000803e3d6000fd5b505b60006134b583612bda565b6134bf57326134c8565b6134c883611dd8565b905060006134d532611e67565b156134e2576015546134e6565b6016545b905060006001600160a01b038316331480159061350c57506001600160a01b0383163214155b801561352a5750836001600160a01b0316836001600160a01b031614155b61353557600061354f565b61354f6064610ae584601454612b5a90919063ffffffff16565b9050801561358f576040516001600160a01b0384169082156108fc029083906000818181858888f1935050505015801561358d573d6000803e3d6000fd5b505b6014546135ab906135a6908363ffffffff612b9416565b610ac7565b5050505050565b80546001019055565b600061168983836040518060400160405280601881526020017f536166654d6174683a206d6f64756c6f206279207a65726f0000000000000000815250613c48565b6000828201838110156116895760405162461bcd60e51b8152600401610c77906151fb565b600081815b815181101561367457600082828151811061363e57fe5b016020015160f81c90506030811080159061365a575060398111155b1561366b576030810384600a020193505b50600101613627565b5050919050565b600080601260009054906101000a90046001600160a01b03166001600160a01b031663990c8f796040518163ffffffff1660e01b815260040160206040518083038186803b1580156136cc57600080fd5b505afa1580156136e0573d6000803e3d6000fd5b505050506040513d601f19601f8201168201806040525081019061370491906147b3565b848460405160200161371893929190614edc565b60408051808303601f1901815291905280516020909101206001600160801b0316949350505050565b6000828152600a6020526040902061375f908263ffffffff612b4516565b1561165d5761376c612bed565b6001600160a01b0316816001600160a01b0316837f2f8788117e7eff1d82e926ec794901d17c78024a50270940304540a733656f0d60405160405180910390a45050565b60006116898383613c7c565b6000828152600a602052604090206137da908263ffffffff613cc116565b1561165d576137e7612bed565b6001600160a01b0316816001600160a01b0316837ff6391f5c32d9c69d2a47ea670b442974b53935d1edc7fd64eb21e047a839171b60405160405180910390a45050565b600080808061383a8686613cd6565b909450925050505b9250929050565b805161165d90600990602084019061447b565b6000613312848484613d32565b6000611689836001600160a01b038416613d91565b61388984848461331a565b61389584848484613da9565b6110b05760405162461bcd60e51b8152600401610c7790615148565b6060816138d657506040805180820190915260018152600360fc1b6020820152610b98565b8160005b81156138ee57600101600a820491506138da565b60608167ffffffffffffffff8111801561390757600080fd5b506040519080825280601f01601f191660200182016040528015613932576020820181803683370190505b50859350905060001982015b831561398357600a840660300160f81b8282806001900393508151811061396157fe5b60200101906001600160f81b031916908160001a905350600a8404935061393e565b50949350505050565b600081836139ad5760405162461bcd60e51b8152600401610c77919061503f565b5060008385816139b957fe5b0495945050505050565b60006139cf8383613d91565b613a055750815460018181018455600084815260208082209093018490558454848252828601909352604090209190915561168c565b50600061168c565b60008184841115613a315760405162461bcd60e51b8152600401610c77919061503f565b505050900390565b60006116898383613d91565b61165d828260405180602001604052806000815250613e8e565b60408051600380825260808201909252606091600291839160208201838036833701905050905060008085604051602001613a9b929190614ece565b60408051601f198184030181529190528051602090910120905060005b83811015613b0c57804082604051602001613ad4929190614ece565b60405160208183030381529060405280519060200120838260010181518110613af957fe5b6020908102919091010152600101613ab8565b5090949350505050565b600080613b288560018560ff16613bd7565b90506000805b60188160ff161015613b7c57613b61868260ff1660188110613b4c57fe5b6020020151839060ff1663ffffffff613ec116565b9150818313613b74579250612414915050565b600101613b2e565b5050509392505050565b600080613b988560018560ff16613bd7565b90506000805b60078160ff161015613b7c57613bbc868260ff1660078110613b4c57fe5b9150818313613bcf579250612414915050565b600101613b9e565b600081831315613bf95760405162461bcd60e51b8152600401610c779061595f565b82838303600101613c0986613f07565b81613c1057fe5b0601949350505050565b60006116898383613fea565b600061168983836139c3565b600061331284846001600160a01b0385166140b0565b60008183613c695760405162461bcd60e51b8152600401610c77919061503f565b50828481613c7357fe5b06949350505050565b81546000908210613c9f5760405162461bcd60e51b8152600401610c7790615052565b826000018281548110613cae57fe5b9060005260206000200154905092915050565b6000611689836001600160a01b038416613fea565b815460009081908310613cfb5760405162461bcd60e51b8152600401610c7790615510565b6000846000018481548110613d0c57fe5b906000526020600020906002020190508060000154816001015492509250509250929050565b60008281526001840160205260408120548281613d625760405162461bcd60e51b8152600401610c77919061503f565b50846000016001820381548110613d7557fe5b9060005260206000209060020201600101549150509392505050565b60009081526001919091016020526040902054151590565b6000613dbd846001600160a01b0316614147565b613dc957506001613312565b6060613e57630a85bd0160e11b613dde612bed565b888787604051602401613df49493929190614fe9565b604051602081830303815290604052906001600160e01b0319166020820180516001600160e01b038381831617835250505050604051806060016040528060328152602001615d12603291396001600160a01b038816919063ffffffff61418016565b9050600081806020019051810190613e6f919061482c565b6001600160e01b031916630a85bd0160e11b1492505050949350505050565b613e98838361418f565b613ea56000848484613da9565b610b745760405162461bcd60e51b8152600401610c7790615148565b6000828201818312801590613ed65750838112155b80613eeb5750600083128015613eeb57508381125b6116895760405162461bcd60e51b8152600401610c779061530e565b60006001825111613f2a5760405162461bcd60e51b8152600401610c7790615232565b6000600183510383600081518110613f3e57fe5b602002602001015160001c81613f5057fe5b0660010190506000838281518110613f6457fe5b6020026020010151604051602001613f7c9190614ec5565b60405160208183030381529060405280519060200120905083600081518110613fa157fe5b602002602001015160001c60010160001b84600081518110613fbf57fe5b60200260200101818152505080848381518110613fd857fe5b60209081029190910101529392505050565b600081815260018301602052604081205480156140a6578354600019808301919081019060009087908390811061401d57fe5b906000526020600020015490508087600001848154811061403a57fe5b60009182526020808320909101929092558281526001898101909252604090209084019055865487908061406a57fe5b6001900381819060005260206000200160009055905586600101600087815260200190815260200160002060009055600194505050505061168c565b600091505061168c565b600082815260018401602052604081205480614115575050604080518082018252838152602080820184815286546001818101895560008981528481209551600290930290950191825591519082015586548684528188019092529290912055612414565b8285600001600183038154811061412857fe5b9060005260206000209060020201600101819055506000915050612414565b6000813f7fc5d2460186f7233c927e7db2dcc703c0e500b653ca82273b7bfad8045d85a470818114801590613312575050151592915050565b6060613312848460008561425f565b6001600160a01b0382166141b55760405162461bcd60e51b8152600401610c7790615552565b6141be81612bda565b156141db5760405162461bcd60e51b8152600401610c77906151c4565b6141e760008383610b74565b6001600160a01b038216600090815260016020526040902061420f908263ffffffff613c2616565b506142226002828463ffffffff613c3216565b5060405181906001600160a01b038416906000907fddf252ad1be2c89b69c2b068fc378daa952ba7f163c4a11628f55a4df523b3ef908290a45050565b606061426a85614147565b6142865760405162461bcd60e51b8152600401610c779061580d565b60006060866001600160a01b031685876040516142a39190614ef2565b60006040518083038185875af1925050503d80600081146142e0576040519150601f19603f3d011682016040523d82523d6000602084013e6142e5565b606091505b509150915081156142f95791506133129050565b8051156143095780518082602001fd5b8360405162461bcd60e51b8152600401610c77919061503f565b6040805161020081018252600080825260208201819052918101829052606081018290526080810182905260a0810182905260c0810182905260e08101829052610100810182905261012081018290526101408101829052610160810182905261018081018290526101a081018290526101c081018290526101e081019190915290565b828054600181600116156101000203166002900490600052602060002090601f016020900481019282601f106143e85782800160ff19823516178555614415565b82800160010185558215614415579182015b828111156144155782358255916020019190600101906143fa565b50612af9929150614526565b60405180608001604052806004906020820280368337509192915050565b60405180604001604052806002906020820280368337509192915050565b60405180606001604052806003906020820280368337509192915050565b828054600181600116156101000203166002900490600052602060002090601f016020900481019282601f106144bc57805160ff1916838001178555614415565b82800160010185558215614415579182015b828111156144155782518255916020019190600101906144ce565b6040518060e001604052806007906020820280368337509192915050565b6040518061030001604052806018906020820280368337509192915050565b610bb791905b80821115612af9576000815560010161452c565b806060810183101561168c57600080fd5b806040810183101561168c57600080fd5b806080810183101561168c57600080fd5b60008083601f840112614584578182fd5b50813567ffffffffffffffff81111561459b578182fd5b60208301915083602082850101111561384257600080fd5b803560ff8116811461168c57600080fd5b6000602082840312156145d5578081fd5b813561168981615ce6565b6000602082840312156145f1578081fd5b815161168981615ce6565b6000806040838503121561460e578081fd5b823561461981615ce6565b9150602083013561462981615ce6565b809150509250929050565b600080600060608486031215614648578081fd5b833561465381615ce6565b9250602084013561466381615ce6565b929592945050506040919091013590565b60008060008060808587031215614689578081fd5b843561469481615ce6565b935060208501356146a481615ce6565b925060408501359150606085013567ffffffffffffffff8111156146c6578182fd5b80860187601f8201126146d7578283fd5b803591506146ec6146e783615c96565b615c6f565b828152886020848401011115614700578384fd5b8260208301602083013791820160200192909252939692955090935050565b60008060408385031215614731578182fd5b823561473c81615ce6565b915060208301358015158114614629578182fd5b60008060408385031215614762578182fd5b823561476d81615ce6565b946020939093013593505050565b60006020828403121561478c578081fd5b81358015158114611689578182fd5b6000602082840312156147ac578081fd5b5035919050565b6000602082840312156147c4578081fd5b5051919050565b600080604083850312156147dd578182fd5b82359150602083013561462981615ce6565b60008060408385031215614801578182fd5b50508035926020909101359150565b600060208284031215614821578081fd5b813561168981615cfb565b60006020828403121561483d578081fd5b815161168981615cfb565b6000806020838503121561485a578182fd5b823567ffffffffffffffff811115614870578283fd5b61487c85828601614573565b90969095509350505050565b60008060008060008060008060008060006102a08c8e0312156148a9578889fd5b67ffffffffffffffff808d3511156148bf57898afd5b6148cc8e8e358f01614573565b909c509a506148de8e60208f01614540565b99506148ed8e60808f01614551565b98506148fc8e60c08f01614562565b975061490c8e6101408f01614551565b965061491c8e6101808f016145b3565b955061492c8e6101a08f01614540565b945061493c8e6102008f01614562565b9350806102808e0135111561494f578283fd5b506149618d6102808e01358e01614573565b81935080925050509295989b509295989b9093969950565b6000806000806000806000806000806101e08b8d031215614998578384fd5b8a3567ffffffffffffffff8111156149ae578485fd5b6149ba8d828e01614573565b909b5099506149ce90508c60208d016145b3565b97506149dd8c60408d016145b3565b96506149ec8c60608d01614540565b95506149fb8c60c08d01614562565b9450614a0b8c6101408d01614551565b9350614a1b8c6101808d016145b3565b92506101a08b0135614a2c81615ce6565b809250506101c08b013590509295989b9194979a5092959850565b600060208284031215614a58578081fd5b815167ffffffffffffffff811115614a6e578182fd5b80830184601f820112614a7f578283fd5b80519150614a8f6146e783615c96565b828152856020848401011115614aa3578384fd5b614ab4836020830160208501615cba565b95945050505050565b60008060008060008060008060006101e08a8c031215614adb578283fd5b89356001600160801b0381168114614af1578384fd5b9850614b008b60208c016145b3565b9750614b0f8b60408c016145b3565b9650614b1e8b60608c01614540565b9550614b2d8b60c08c01614562565b9450614b3d8b6101408c01614551565b9350614b4d8b6101808c016145b3565b92506101a08a0135614b5e81615ce6565b809250506101c08a013590509295985092959850929598565b600060208284031215614b88578081fd5b813561ffff81168114611689578182fd5b60008060808385031215614bab578182fd5b82359150614bbc8460208501614540565b90509250929050565b600080600060408486031215614bd9578081fd5b83359250602084013567ffffffffffffffff811115614bf6578182fd5b614c0286828701614573565b9497909650939450505050565b60008060008060008060a08789031215614c27578384fd5b86359550614c3888602089016145b3565b9450614c4788604089016145b3565b9350614c5688606089016145b3565b9250608087013567ffffffffffffffff811115614c71578283fd5b614c7d89828a01614573565b979a9699509497509295939492505050565b600060208284031215614ca0578081fd5b61168983836145b3565b8060005b60038110156110b057815161ffff16845260209384019390910190600101614cae565b8060005b60028110156110b057815160ff16845260209384019390910190600101614cd5565b8060005b60048110156110b057815160ff16845260209384019390910190600101614cfb565b60008151808452614d35816020860160208601615cba565b601f01601f19169290920160200192915050565b60008284528282602086013780602084860101526020601f19601f85011685010190509392505050565b614d7e828251614ea9565b6020810151614d906020840182614eb6565b506040810151614da36040840182614ebe565b506060810151614db66060840182614ebe565b506080810151614dc96080840182614ebe565b5060a0810151614ddc60a0840182614ebe565b5060c0810151614def60c0840182614ebe565b5060e0810151614e0260e0840182614ebe565b5061010080820151614e1682850182614ebe565b505061012080820151614e2b82850182614ebe565b505061014080820151614e4082850182614ebe565b505061016080820151614e5582850182614ebe565b505061018080820151614e6a82850182614ebe565b50506101a080820151614e7f82850182614ebe565b50506101c080820151614e9482850182614ebe565b50506101e0808201516110b082850182614ebe565b6001600160801b03169052565b61ffff169052565b60ff169052565b90815260200190565b918252602082015260400190565b9283526020830191909152604082015260600190565b60008251614f04818460208701615cba565b9190910192915050565b6000808454600180821660008114614f2d5760018114614f4457614f73565b60ff198316865260028304607f1686019350614f73565b600283048886526020808720875b83811015614f6b5781548a820152908501908201614f52565b505050860193505b5050508351614f86818360208801615cba565b01949350505050565b6c414e494d41544f525f524f4c4560981b8152600d0190565b6a4152544953545f524f4c4560a81b8152600b0190565b6941444d494e5f524f4c4560b01b8152600a0190565b6001600160a01b0391909116815260200190565b6001600160a01b038581168252841660208201526040810183905260806060820181905260009061501c90830184614d1d565b9695505050505050565b901515815260200190565b60009190910b815260200190565b6000602082526116896020830184614d1d565b60208082526022908201527f456e756d657261626c655365743a20696e646578206f7574206f6620626f756e604082015261647360f01b606082015260800190565b6020808252602f908201527f416363657373436f6e74726f6c3a2073656e646572206d75737420626520616e60408201526e0818591b5a5b881d1bc819dc985b9d608a1b606082015260800190565b60208082526006908201526514185d5cd95960d21b604082015260600190565b60208082526004908201526315d0525560e21b604082015260600190565b6020808252600d908201526c34b73b30b634b21031b7b637b960991b604082015260600190565b60208082526032908201527f4552433732313a207472616e7366657220746f206e6f6e20455243373231526560408201527131b2b4bb32b91034b6b83632b6b2b73a32b960711b606082015260800190565b60208082526010908201526f20a92a1029a0a6229024a99027ab22a960811b604082015260600190565b6020808252601c908201527f4552433732313a20746f6b656e20616c7265616479206d696e74656400000000604082015260600190565b6020808252601b908201527f536166654d6174683a206164646974696f6e206f766572666c6f770000000000604082015260600190565b60208082526019908201527f52616e646f6d2e6e6578743a20696e76616c696420706f6f6c00000000000000604082015260600190565b60208082526010908201526f696e76616c6964206861746368696e6760801b604082015260600190565b60208082526024908201527f4552433732313a207472616e7366657220746f20746865207a65726f206164646040820152637265737360e01b606082015260800190565b60208082526019908201527f4552433732313a20617070726f766520746f2063616c6c657200000000000000604082015260600190565b60208082526021908201527f5369676e6564536166654d6174683a206164646974696f6e206f766572666c6f6040820152607760f81b606082015260800190565b6020808252600b908201526a496e76616c696420426b6760a81b604082015260600190565b6020808252602c908201527f4552433732313a206f70657261746f7220717565727920666f72206e6f6e657860408201526b34b9ba32b73a103a37b5b2b760a11b606082015260800190565b60208082526030908201527f416363657373436f6e74726f6c3a2073656e646572206d75737420626520616e60408201526f2061646d696e20746f207265766f6b6560801b606082015260800190565b60208082526038908201527f4552433732313a20617070726f76652063616c6c6572206973206e6f74206f7760408201527f6e6572206e6f7220617070726f76656420666f7220616c6c0000000000000000606082015260800190565b6020808252602a908201527f4552433732313a2062616c616e636520717565727920666f7220746865207a65604082015269726f206164647265737360b01b606082015260800190565b602080825260129082015271496e7375662e205065726d697373696f6e7360701b604082015260600190565b6020808252601390820152721a5b9cdd599a58da595b9d081c185e5b595b9d606a1b604082015260600190565b60208082526022908201527f456e756d657261626c654d61703a20696e646578206f7574206f6620626f756e604082015261647360f01b606082015260800190565b6020808252818101527f4552433732313a206d696e7420746f20746865207a65726f2061646472657373604082015260600190565b60208082526021908201527f536166654d6174683a206d756c7469706c69636174696f6e206f766572666c6f6040820152607760f81b606082015260800190565b6020808252602c908201527f4552433732313a20617070726f76656420717565727920666f72206e6f6e657860408201526b34b9ba32b73a103a37b5b2b760a11b606082015260800190565b6020808252602c908201527f4552433732314d657461646174613a2055524920736574206f66206e6f6e657860408201526b34b9ba32b73a103a37b5b2b760a11b606082015260800190565b6020808252601390820152721a5b9d985b1a59081cda185c194818dbdd5b9d606a1b604082015260600190565b60208082526029908201527f4552433732313a207472616e73666572206f6620746f6b656e2074686174206960408201526839903737ba1037bbb760b91b606082015260800190565b6020808252602f908201527f4552433732314d657461646174613a2055524920717565727920666f72206e6f60408201526e3732bc34b9ba32b73a103a37b5b2b760891b606082015260800190565b60208082526010908201526f24b73b30b634b210223ab930ba34b7b760811b604082015260600190565b60208082526012908201527134b73b30b634b21039b0ba3ab930ba34b7b760711b604082015260600190565b60208082526021908201527f4552433732313a20617070726f76616c20746f2063757272656e74206f776e656040820152603960f91b606082015260800190565b60208082526031908201527f4552433732313a207472616e736665722063616c6c6572206973206e6f74206f6040820152701ddb995c881b9bdc88185c1c1c9bdd9959607a1b606082015260800190565b6020808252601d908201527f416464726573733a2063616c6c20746f206e6f6e2d636f6e7472616374000000604082015260600190565b6020808252600e908201526d1a5b9d985b1a59081cdc1c99585960921b604082015260600190565b6020808252600490820152634e4f504560e01b604082015260600190565b6020808252601490820152734d7573742062652066757475726520626c6f636b60601b604082015260600190565b602080825260149082015273696e76616c6964206865696768742072616e676560601b604082015260600190565b6020808252600d908201526c1092d1c80948125b9d985b1a59609a1b604082015260600190565b60208082526032908201527f43616c6c657220646f736e27742068617665207065726d697373696f6e20746f604082015271103ab9b2903a3434b990333ab731ba34b7b760711b606082015260800190565b6020808252818101527f52616e646f6d2e756e69666f726d3a20696e76616c696420696e74657276616c604082015260600190565b6020808252601690820152750c1e0c0c08149958da5c1a595b9d08125b9d985b1a5960521b604082015260600190565b6020808252602f908201527f416363657373436f6e74726f6c3a2063616e206f6e6c792072656e6f756e636560408201526e103937b632b9903337b91039b2b63360891b606082015260800190565b602080825260119082015270696e76616c6964206c696768746e65737360781b604082015260600190565b602080825260139082015272696e76616c69642077696474682072616e676560681b604082015260600190565b60006102e0615a7a838a614d73565b61020083018890526001600160a01b038716610220840152610240830186835b6004811015615aca576020823560ff8116808214615ab6578788fd5b855250928301929190910190600101615a9a565b505050806102c0840152615ae18184018587614d49565b9998505050505050505050565b60006102e0615afd838a614d73565b61020083018890526001600160a01b038716610220840152615b23610240840187614cf7565b806102c0840152615ae18184018587614d49565b60006102e0615b468388614d73565b61020083018690526001600160a01b038516610220840152615b6c610240840185614cf7565b6102c0830181905282015261030001949350505050565b6001600160801b0391909116815260200190565b61ffff91909116815260200190565b8a815260ff8a81166020808401919091528a82166040840152610200830191606084018b60005b6004811015615bec578151841683529184019190840190600101615bcd565b5050505050615bfe60e0830189614cd1565b615c0c610120830188614ebe565b615c1a610140830187614caa565b615c286101a0830186614ebe565b615c366101c0830185614ebe565b611d256101e0830184614ebe565b60ff91909116815260200190565b60ff93841681529183166020830152909116604082015260600190565b60405181810167ffffffffffffffff81118282101715615c8e57600080fd5b604052919050565b600067ffffffffffffffff821115615cac578081fd5b50601f01601f191660200190565b60005b83811015615cd5578181015183820152602001615cbd565b838111156110b05750506000910152565b6001600160a01b0381168114610b7757600080fd5b6001600160e01b031981168114610b7757600080fdfe4552433732313a207472616e7366657220746f206e6f6e20455243373231526563656976657220696d706c656d656e7465724552433732313a206f776e657220717565727920666f72206e6f6e6578697374656e7420746f6b656ea26469706673582212202409030e2061990da466d6ec0fcd8965a1dfb09b7b3116155268f5e6030b570a64736f6c6343000608003368747470733a2f2f72696e6b6562792e74696e79626f782e73686f702f54696e79426f7865732e6a736f6e",
  "linkReferences": {
    "contracts/TinyBoxesRenderer.sol": {
      "TinyBoxesRenderer": [
        {
          "length": 20,
          "start": 6112
        },
        {
          "length": 20,
          "start": 8881
        },
        {
          "length": 20,
          "start": 10635
        }
      ]
    }
  },
  "deployedLinkReferences": {
    "contracts/TinyBoxesRenderer.sol": {
      "TinyBoxesRenderer": [
        {
          "length": 20,
          "start": 4553
        },
        {
          "length": 20,
          "start": 7322
        },
        {
          "length": 20,
          "start": 9076
        }
      ]
    }
  }
}