{
  "_format": "hh-sol-artifact-1",
  "contractName": "TinyBoxes",
  "sourceName": "contracts/TinyBoxes.sol",
  "abi": [
    {
      "inputs": [
        {
          "internalType": "address",
          "name": "rand",
          "type": "address"
        },
        {
          "internalType": "address",
          "name": "_renderer",
          "type": "address"
        }
      ],
      "stateMutability": "nonpayable",
      "type": "constructor"
    },
    {
      "anonymous": false,
      "inputs": [
        {
          "indexed": true,
          "internalType": "address",
          "name": "owner",
          "type": "address"
        },
        {
          "indexed": true,
          "internalType": "address",
          "name": "approved",
          "type": "address"
        },
        {
          "indexed": true,
          "internalType": "uint256",
          "name": "tokenId",
          "type": "uint256"
        }
      ],
      "name": "Approval",
      "type": "event"
    },
    {
      "anonymous": false,
      "inputs": [
        {
          "indexed": true,
          "internalType": "address",
          "name": "owner",
          "type": "address"
        },
        {
          "indexed": true,
          "internalType": "address",
          "name": "operator",
          "type": "address"
        },
        {
          "indexed": false,
          "internalType": "bool",
          "name": "approved",
          "type": "bool"
        }
      ],
      "name": "ApprovalForAll",
      "type": "event"
    },
    {
      "anonymous": false,
      "inputs": [
        {
          "indexed": false,
          "internalType": "uint256",
          "name": "id",
          "type": "uint256"
        }
      ],
      "name": "LECreated",
      "type": "event"
    },
    {
      "anonymous": false,
      "inputs": [
        {
          "indexed": true,
          "internalType": "bytes32",
          "name": "role",
          "type": "bytes32"
        },
        {
          "indexed": true,
          "internalType": "bytes32",
          "name": "previousAdminRole",
          "type": "bytes32"
        },
        {
          "indexed": true,
          "internalType": "bytes32",
          "name": "newAdminRole",
          "type": "bytes32"
        }
      ],
      "name": "RoleAdminChanged",
      "type": "event"
    },
    {
      "anonymous": false,
      "inputs": [
        {
          "indexed": true,
          "internalType": "bytes32",
          "name": "role",
          "type": "bytes32"
        },
        {
          "indexed": true,
          "internalType": "address",
          "name": "account",
          "type": "address"
        },
        {
          "indexed": true,
          "internalType": "address",
          "name": "sender",
          "type": "address"
        }
      ],
      "name": "RoleGranted",
      "type": "event"
    },
    {
      "anonymous": false,
      "inputs": [
        {
          "indexed": true,
          "internalType": "bytes32",
          "name": "role",
          "type": "bytes32"
        },
        {
          "indexed": true,
          "internalType": "address",
          "name": "account",
          "type": "address"
        },
        {
          "indexed": true,
          "internalType": "address",
          "name": "sender",
          "type": "address"
        }
      ],
      "name": "RoleRevoked",
      "type": "event"
    },
    {
      "anonymous": false,
      "inputs": [
        {
          "indexed": true,
          "internalType": "address",
          "name": "from",
          "type": "address"
        },
        {
          "indexed": true,
          "internalType": "address",
          "name": "to",
          "type": "address"
        },
        {
          "indexed": true,
          "internalType": "uint256",
          "name": "tokenId",
          "type": "uint256"
        }
      ],
      "name": "Transfer",
      "type": "event"
    },
    {
      "inputs": [],
      "name": "ADMIN_ROLE",
      "outputs": [
        {
          "internalType": "bytes32",
          "name": "",
          "type": "bytes32"
        }
      ],
      "stateMutability": "view",
      "type": "function"
    },
    {
      "inputs": [],
      "name": "ANIMATION_COUNT",
      "outputs": [
        {
          "internalType": "uint8",
          "name": "",
          "type": "uint8"
        }
      ],
      "stateMutability": "view",
      "type": "function"
    },
    {
      "inputs": [],
      "name": "DEFAULT_ADMIN_ROLE",
      "outputs": [
        {
          "internalType": "bytes32",
          "name": "",
          "type": "bytes32"
        }
      ],
      "stateMutability": "view",
      "type": "function"
    },
    {
      "inputs": [],
      "name": "SCHEME_COUNT",
      "outputs": [
        {
          "internalType": "uint8",
          "name": "",
          "type": "uint8"
        }
      ],
      "stateMutability": "view",
      "type": "function"
    },
    {
      "inputs": [],
      "name": "TOKEN_LIMIT",
      "outputs": [
        {
          "internalType": "uint16",
          "name": "",
          "type": "uint16"
        }
      ],
      "stateMutability": "view",
      "type": "function"
    },
    {
      "inputs": [
        {
          "internalType": "address",
          "name": "to",
          "type": "address"
        },
        {
          "internalType": "uint256",
          "name": "tokenId",
          "type": "uint256"
        }
      ],
      "name": "approve",
      "outputs": [],
      "stateMutability": "nonpayable",
      "type": "function"
    },
    {
      "inputs": [
        {
          "internalType": "address",
          "name": "owner",
          "type": "address"
        }
      ],
      "name": "balanceOf",
      "outputs": [
        {
          "internalType": "uint256",
          "name": "",
          "type": "uint256"
        }
      ],
      "stateMutability": "view",
      "type": "function"
    },
    {
      "inputs": [],
      "name": "baseURI",
      "outputs": [
        {
          "internalType": "string",
          "name": "",
          "type": "string"
        }
      ],
      "stateMutability": "view",
      "type": "function"
    },
    {
      "inputs": [],
      "name": "blockStart",
      "outputs": [
        {
          "internalType": "uint256",
          "name": "",
          "type": "uint256"
        }
      ],
      "stateMutability": "view",
      "type": "function"
    },
    {
      "inputs": [
        {
          "components": [
            {
              "internalType": "uint128",
              "name": "randomness",
              "type": "uint128"
            },
            {
              "internalType": "uint16",
              "name": "hue",
              "type": "uint16"
            },
            {
              "internalType": "uint8",
              "name": "saturation",
              "type": "uint8"
            },
            {
              "internalType": "uint8",
              "name": "lightness",
              "type": "uint8"
            },
            {
              "internalType": "uint8",
              "name": "shapes",
              "type": "uint8"
            },
            {
              "internalType": "uint8",
              "name": "hatching",
              "type": "uint8"
            },
            {
              "internalType": "uint8",
              "name": "widthMin",
              "type": "uint8"
            },
            {
              "internalType": "uint8",
              "name": "widthMax",
              "type": "uint8"
            },
            {
              "internalType": "uint8",
              "name": "heightMin",
              "type": "uint8"
            },
            {
              "internalType": "uint8",
              "name": "heightMax",
              "type": "uint8"
            },
            {
              "internalType": "uint8",
              "name": "spread",
              "type": "uint8"
            },
            {
              "internalType": "uint8",
              "name": "grid",
              "type": "uint8"
            },
            {
              "internalType": "uint8",
              "name": "mirroring",
              "type": "uint8"
            },
            {
              "internalType": "uint8",
              "name": "bkg",
              "type": "uint8"
            },
            {
              "internalType": "uint8",
              "name": "duration",
              "type": "uint8"
            },
            {
              "internalType": "uint8",
              "name": "options",
              "type": "uint8"
            }
          ],
          "internalType": "struct TinyBox",
          "name": "box",
          "type": "tuple"
        },
        {
          "internalType": "uint256",
          "name": "id",
          "type": "uint256"
        }
      ],
      "name": "calcedParts",
      "outputs": [
        {
          "internalType": "uint8[4]",
          "name": "parts",
          "type": "uint8[4]"
        }
      ],
      "stateMutability": "view",
      "type": "function"
    },
    {
      "inputs": [
        {
          "internalType": "uint256",
          "name": "id",
          "type": "uint256"
        },
        {
          "internalType": "uint8[3]",
          "name": "settings",
          "type": "uint8[3]"
        }
      ],
      "name": "changeSettings",
      "outputs": [],
      "stateMutability": "nonpayable",
      "type": "function"
    },
    {
      "inputs": [],
      "name": "contractURI",
      "outputs": [
        {
          "internalType": "string",
          "name": "",
          "type": "string"
        }
      ],
      "stateMutability": "view",
      "type": "function"
    },
    {
      "inputs": [
        {
          "internalType": "string",
          "name": "_seed",
          "type": "string"
        },
        {
          "internalType": "uint8",
          "name": "shapes",
          "type": "uint8"
        },
        {
          "internalType": "uint8",
          "name": "hatching",
          "type": "uint8"
        },
        {
          "internalType": "uint16[3]",
          "name": "color",
          "type": "uint16[3]"
        },
        {
          "internalType": "uint8[4]",
          "name": "size",
          "type": "uint8[4]"
        },
        {
          "internalType": "uint8[2]",
          "name": "spacing",
          "type": "uint8[2]"
        },
        {
          "internalType": "uint8",
          "name": "mirroring",
          "type": "uint8"
        },
        {
          "internalType": "address",
          "name": "recipient",
          "type": "address"
        },
        {
          "internalType": "uint256",
          "name": "referalID",
          "type": "uint256"
        }
      ],
      "name": "create",
      "outputs": [
        {
          "internalType": "uint256",
          "name": "",
          "type": "uint256"
        }
      ],
      "stateMutability": "payable",
      "type": "function"
    },
    {
      "inputs": [
        {
          "internalType": "uint128",
          "name": "seed",
          "type": "uint128"
        },
        {
          "internalType": "uint8",
          "name": "shapes",
          "type": "uint8"
        },
        {
          "internalType": "uint8",
          "name": "hatching",
          "type": "uint8"
        },
        {
          "internalType": "uint16[3]",
          "name": "color",
          "type": "uint16[3]"
        },
        {
          "internalType": "uint8[4]",
          "name": "size",
          "type": "uint8[4]"
        },
        {
          "internalType": "uint8[2]",
          "name": "spacing",
          "type": "uint8[2]"
        },
        {
          "internalType": "uint8",
          "name": "mirroring",
          "type": "uint8"
        },
        {
          "internalType": "uint256",
          "name": "id",
          "type": "uint256"
        }
      ],
      "name": "createLimitedEdition",
      "outputs": [],
      "stateMutability": "nonpayable",
      "type": "function"
    },
    {
      "inputs": [],
      "name": "currentPhase",
      "outputs": [
        {
          "internalType": "uint8",
          "name": "",
          "type": "uint8"
        }
      ],
      "stateMutability": "view",
      "type": "function"
    },
    {
      "inputs": [
        {
          "internalType": "uint256",
          "name": "tokenId",
          "type": "uint256"
        }
      ],
      "name": "getApproved",
      "outputs": [
        {
          "internalType": "address",
          "name": "",
          "type": "address"
        }
      ],
      "stateMutability": "view",
      "type": "function"
    },
    {
      "inputs": [
        {
          "internalType": "bytes32",
          "name": "role",
          "type": "bytes32"
        }
      ],
      "name": "getRoleAdmin",
      "outputs": [
        {
          "internalType": "bytes32",
          "name": "",
          "type": "bytes32"
        }
      ],
      "stateMutability": "view",
      "type": "function"
    },
    {
      "inputs": [
        {
          "internalType": "bytes32",
          "name": "role",
          "type": "bytes32"
        },
        {
          "internalType": "uint256",
          "name": "index",
          "type": "uint256"
        }
      ],
      "name": "getRoleMember",
      "outputs": [
        {
          "internalType": "address",
          "name": "",
          "type": "address"
        }
      ],
      "stateMutability": "view",
      "type": "function"
    },
    {
      "inputs": [
        {
          "internalType": "bytes32",
          "name": "role",
          "type": "bytes32"
        }
      ],
      "name": "getRoleMemberCount",
      "outputs": [
        {
          "internalType": "uint256",
          "name": "",
          "type": "uint256"
        }
      ],
      "stateMutability": "view",
      "type": "function"
    },
    {
      "inputs": [
        {
          "internalType": "bytes32",
          "name": "role",
          "type": "bytes32"
        },
        {
          "internalType": "address",
          "name": "account",
          "type": "address"
        }
      ],
      "name": "grantRole",
      "outputs": [],
      "stateMutability": "nonpayable",
      "type": "function"
    },
    {
      "inputs": [
        {
          "internalType": "bytes32",
          "name": "role",
          "type": "bytes32"
        },
        {
          "internalType": "address",
          "name": "account",
          "type": "address"
        }
      ],
      "name": "hasRole",
      "outputs": [
        {
          "internalType": "bool",
          "name": "",
          "type": "bool"
        }
      ],
      "stateMutability": "view",
      "type": "function"
    },
    {
      "inputs": [
        {
          "internalType": "address",
          "name": "owner",
          "type": "address"
        },
        {
          "internalType": "address",
          "name": "operator",
          "type": "address"
        }
      ],
      "name": "isApprovedForAll",
      "outputs": [
        {
          "internalType": "bool",
          "name": "",
          "type": "bool"
        }
      ],
      "stateMutability": "view",
      "type": "function"
    },
    {
      "inputs": [
        {
          "internalType": "address",
          "name": "recipient",
          "type": "address"
        }
      ],
      "name": "mintPromo",
      "outputs": [],
      "stateMutability": "nonpayable",
      "type": "function"
    },
    {
      "inputs": [],
      "name": "name",
      "outputs": [
        {
          "internalType": "string",
          "name": "",
          "type": "string"
        }
      ],
      "stateMutability": "view",
      "type": "function"
    },
    {
      "inputs": [
        {
          "internalType": "uint256",
          "name": "tokenId",
          "type": "uint256"
        }
      ],
      "name": "ownerOf",
      "outputs": [
        {
          "internalType": "address",
          "name": "",
          "type": "address"
        }
      ],
      "stateMutability": "view",
      "type": "function"
    },
    {
      "inputs": [],
      "name": "paused",
      "outputs": [
        {
          "internalType": "bool",
          "name": "",
          "type": "bool"
        }
      ],
      "stateMutability": "view",
      "type": "function"
    },
    {
      "inputs": [],
      "name": "phaseCountdown",
      "outputs": [
        {
          "internalType": "uint256",
          "name": "",
          "type": "uint256"
        }
      ],
      "stateMutability": "view",
      "type": "function"
    },
    {
      "inputs": [],
      "name": "phaseCountdownTime",
      "outputs": [
        {
          "internalType": "uint256",
          "name": "",
          "type": "uint256"
        }
      ],
      "stateMutability": "view",
      "type": "function"
    },
    {
      "inputs": [],
      "name": "phaseLen",
      "outputs": [
        {
          "internalType": "uint256",
          "name": "",
          "type": "uint256"
        }
      ],
      "stateMutability": "view",
      "type": "function"
    },
    {
      "inputs": [],
      "name": "price",
      "outputs": [
        {
          "internalType": "uint256",
          "name": "",
          "type": "uint256"
        }
      ],
      "stateMutability": "view",
      "type": "function"
    },
    {
      "inputs": [
        {
          "internalType": "uint256",
          "name": "id",
          "type": "uint256"
        }
      ],
      "name": "readSettings",
      "outputs": [
        {
          "internalType": "uint8",
          "name": "bkg",
          "type": "uint8"
        },
        {
          "internalType": "uint8",
          "name": "duration",
          "type": "uint8"
        },
        {
          "internalType": "uint8",
          "name": "options",
          "type": "uint8"
        }
      ],
      "stateMutability": "view",
      "type": "function"
    },
    {
      "inputs": [],
      "name": "referalNewPercent",
      "outputs": [
        {
          "internalType": "uint256",
          "name": "",
          "type": "uint256"
        }
      ],
      "stateMutability": "view",
      "type": "function"
    },
    {
      "inputs": [],
      "name": "referalPercent",
      "outputs": [
        {
          "internalType": "uint256",
          "name": "",
          "type": "uint256"
        }
      ],
      "stateMutability": "view",
      "type": "function"
    },
    {
      "inputs": [
        {
          "internalType": "bytes32",
          "name": "role",
          "type": "bytes32"
        },
        {
          "internalType": "address",
          "name": "account",
          "type": "address"
        }
      ],
      "name": "renounceRole",
      "outputs": [],
      "stateMutability": "nonpayable",
      "type": "function"
    },
    {
      "inputs": [
        {
          "internalType": "bytes32",
          "name": "role",
          "type": "bytes32"
        },
        {
          "internalType": "address",
          "name": "account",
          "type": "address"
        }
      ],
      "name": "revokeRole",
      "outputs": [],
      "stateMutability": "nonpayable",
      "type": "function"
    },
    {
      "inputs": [
        {
          "internalType": "address",
          "name": "from",
          "type": "address"
        },
        {
          "internalType": "address",
          "name": "to",
          "type": "address"
        },
        {
          "internalType": "uint256",
          "name": "tokenId",
          "type": "uint256"
        }
      ],
      "name": "safeTransferFrom",
      "outputs": [],
      "stateMutability": "nonpayable",
      "type": "function"
    },
    {
      "inputs": [
        {
          "internalType": "address",
          "name": "from",
          "type": "address"
        },
        {
          "internalType": "address",
          "name": "to",
          "type": "address"
        },
        {
          "internalType": "uint256",
          "name": "tokenId",
          "type": "uint256"
        },
        {
          "internalType": "bytes",
          "name": "_data",
          "type": "bytes"
        }
      ],
      "name": "safeTransferFrom",
      "outputs": [],
      "stateMutability": "nonpayable",
      "type": "function"
    },
    {
      "inputs": [
        {
          "internalType": "address",
          "name": "operator",
          "type": "address"
        },
        {
          "internalType": "bool",
          "name": "approved",
          "type": "bool"
        }
      ],
      "name": "setApprovalForAll",
      "outputs": [],
      "stateMutability": "nonpayable",
      "type": "function"
    },
    {
      "inputs": [
        {
          "internalType": "string",
          "name": "_uri",
          "type": "string"
        }
      ],
      "name": "setBaseURI",
      "outputs": [],
      "stateMutability": "nonpayable",
      "type": "function"
    },
    {
      "inputs": [
        {
          "internalType": "string",
          "name": "_uri",
          "type": "string"
        }
      ],
      "name": "setContractURI",
      "outputs": [],
      "stateMutability": "nonpayable",
      "type": "function"
    },
    {
      "inputs": [
        {
          "internalType": "bool",
          "name": "state",
          "type": "bool"
        }
      ],
      "name": "setPause",
      "outputs": [],
      "stateMutability": "nonpayable",
      "type": "function"
    },
    {
      "inputs": [
        {
          "internalType": "address",
          "name": "rand",
          "type": "address"
        }
      ],
      "name": "setRandom",
      "outputs": [],
      "stateMutability": "nonpayable",
      "type": "function"
    },
    {
      "inputs": [
        {
          "internalType": "uint256",
          "name": "_id",
          "type": "uint256"
        },
        {
          "internalType": "string",
          "name": "_uri",
          "type": "string"
        }
      ],
      "name": "setTokenURI",
      "outputs": [],
      "stateMutability": "nonpayable",
      "type": "function"
    },
    {
      "inputs": [
        {
          "internalType": "uint256",
          "name": "startBlock",
          "type": "uint256"
        }
      ],
      "name": "startCoundown",
      "outputs": [],
      "stateMutability": "nonpayable",
      "type": "function"
    },
    {
      "inputs": [
        {
          "internalType": "bytes4",
          "name": "interfaceId",
          "type": "bytes4"
        }
      ],
      "name": "supportsInterface",
      "outputs": [
        {
          "internalType": "bool",
          "name": "",
          "type": "bool"
        }
      ],
      "stateMutability": "view",
      "type": "function"
    },
    {
      "inputs": [],
      "name": "symbol",
      "outputs": [
        {
          "internalType": "string",
          "name": "",
          "type": "string"
        }
      ],
      "stateMutability": "view",
      "type": "function"
    },
    {
      "inputs": [],
      "name": "testRandom",
      "outputs": [
        {
          "internalType": "bytes32",
          "name": "",
          "type": "bytes32"
        }
      ],
      "stateMutability": "view",
      "type": "function"
    },
    {
      "inputs": [
        {
          "internalType": "uint256",
          "name": "_id",
          "type": "uint256"
        },
        {
          "internalType": "uint8",
          "name": "bkg",
          "type": "uint8"
        },
        {
          "internalType": "uint8",
          "name": "duration",
          "type": "uint8"
        },
        {
          "internalType": "uint8",
          "name": "options",
          "type": "uint8"
        },
        {
          "internalType": "string",
          "name": "slot",
          "type": "string"
        }
      ],
      "name": "tokenArt",
      "outputs": [
        {
          "internalType": "string",
          "name": "",
          "type": "string"
        }
      ],
      "stateMutability": "view",
      "type": "function"
    },
    {
      "inputs": [
        {
          "internalType": "uint256",
          "name": "index",
          "type": "uint256"
        }
      ],
      "name": "tokenByIndex",
      "outputs": [
        {
          "internalType": "uint256",
          "name": "",
          "type": "uint256"
        }
      ],
      "stateMutability": "view",
      "type": "function"
    },
    {
      "inputs": [
        {
          "internalType": "uint256",
          "name": "_id",
          "type": "uint256"
        }
      ],
      "name": "tokenData",
      "outputs": [
        {
          "internalType": "uint256",
          "name": "animation",
          "type": "uint256"
        },
        {
          "internalType": "uint8",
          "name": "shapes",
          "type": "uint8"
        },
        {
          "internalType": "uint8",
          "name": "hatching",
          "type": "uint8"
        },
        {
          "internalType": "uint8[4]",
          "name": "size",
          "type": "uint8[4]"
        },
        {
          "internalType": "uint8[2]",
          "name": "spacing",
          "type": "uint8[2]"
        },
        {
          "internalType": "uint8",
          "name": "mirroring",
          "type": "uint8"
        },
        {
          "internalType": "uint16[3]",
          "name": "color",
          "type": "uint16[3]"
        },
        {
          "internalType": "uint8",
          "name": "contrast",
          "type": "uint8"
        },
        {
          "internalType": "uint8",
          "name": "shades",
          "type": "uint8"
        },
        {
          "internalType": "uint8",
          "name": "scheme",
          "type": "uint8"
        }
      ],
      "stateMutability": "view",
      "type": "function"
    },
    {
      "inputs": [
        {
          "internalType": "address",
          "name": "owner",
          "type": "address"
        },
        {
          "internalType": "uint256",
          "name": "index",
          "type": "uint256"
        }
      ],
      "name": "tokenOfOwnerByIndex",
      "outputs": [
        {
          "internalType": "uint256",
          "name": "",
          "type": "uint256"
        }
      ],
      "stateMutability": "view",
      "type": "function"
    },
    {
      "inputs": [
        {
          "internalType": "string",
          "name": "seed",
          "type": "string"
        },
        {
          "internalType": "uint16[3]",
          "name": "color",
          "type": "uint16[3]"
        },
        {
          "internalType": "uint8[2]",
          "name": "shapes",
          "type": "uint8[2]"
        },
        {
          "internalType": "uint8[4]",
          "name": "size",
          "type": "uint8[4]"
        },
        {
          "internalType": "uint8[2]",
          "name": "spacing",
          "type": "uint8[2]"
        },
        {
          "internalType": "uint8",
          "name": "mirroring",
          "type": "uint8"
        },
        {
          "internalType": "uint8[3]",
          "name": "settings",
          "type": "uint8[3]"
        },
        {
          "internalType": "uint8[4]",
          "name": "traits",
          "type": "uint8[4]"
        },
        {
          "internalType": "string",
          "name": "slot",
          "type": "string"
        }
      ],
      "name": "tokenPreview",
      "outputs": [
        {
          "internalType": "string",
          "name": "",
          "type": "string"
        }
      ],
      "stateMutability": "view",
      "type": "function"
    },
    {
      "inputs": [
        {
          "internalType": "uint256",
          "name": "id",
          "type": "uint256"
        }
      ],
      "name": "tokenRandomness",
      "outputs": [
        {
          "internalType": "uint128",
          "name": "",
          "type": "uint128"
        }
      ],
      "stateMutability": "view",
      "type": "function"
    },
    {
      "inputs": [
        {
          "internalType": "uint256",
          "name": "tokenId",
          "type": "uint256"
        }
      ],
      "name": "tokenURI",
      "outputs": [
        {
          "internalType": "string",
          "name": "",
          "type": "string"
        }
      ],
      "stateMutability": "view",
      "type": "function"
    },
    {
      "inputs": [],
      "name": "totalSupply",
      "outputs": [
        {
          "internalType": "uint256",
          "name": "",
          "type": "uint256"
        }
      ],
      "stateMutability": "view",
      "type": "function"
    },
    {
      "inputs": [
        {
          "internalType": "address",
          "name": "from",
          "type": "address"
        },
        {
          "internalType": "address",
          "name": "to",
          "type": "address"
        },
        {
          "internalType": "uint256",
          "name": "tokenId",
          "type": "uint256"
        }
      ],
      "name": "transferFrom",
      "outputs": [],
      "stateMutability": "nonpayable",
      "type": "function"
    },
    {
      "inputs": [
        {
          "internalType": "uint256",
          "name": "id",
          "type": "uint256"
        }
      ],
      "name": "trueID",
      "outputs": [
        {
          "internalType": "int8",
          "name": "",
          "type": "int8"
        }
      ],
      "stateMutability": "pure",
      "type": "function"
    },
    {
      "inputs": [
        {
          "internalType": "uint8",
          "name": "shapes",
          "type": "uint8"
        },
        {
          "internalType": "uint8",
          "name": "hatching",
          "type": "uint8"
        },
        {
          "internalType": "uint16[3]",
          "name": "color",
          "type": "uint16[3]"
        },
        {
          "internalType": "uint8[4]",
          "name": "size",
          "type": "uint8[4]"
        },
        {
          "internalType": "uint8[2]",
          "name": "position",
          "type": "uint8[2]"
        },
        {
          "internalType": "bool",
          "name": "exclusive",
          "type": "bool"
        }
      ],
      "name": "validateParams",
      "outputs": [],
      "stateMutability": "pure",
      "type": "function"
    },
    {
      "stateMutability": "payable",
      "type": "receive"
    }
  ],
  "bytecode": "0x6080604052600e805460ff19166001179055600b606e0461ffff1660105560786011556200003f600f6011546200024260201b62002e501790919060201c565b6012556001601455600a601555600f6016556000196017556064601855601980546001600160a01b0319908116737a832c86002323a5de3a317b3281eb88ec3b2c0017909155601a80549091167363a9dbce75413036b2b778e670aabd4493aaf9f31790556040805160608101909152602b8082526200646d60208301398051620000d391601b916020909101906200045d565b50348015620000e157600080fd5b5060405162006498380380620064988339810160408190526200010491620004ff565b81806040518060400160405280600981526020016854696e79426f78657360b81b815250604051806040016040528060068152602001655b235d5b235d60d01b8152506200015f6301ffc9a760e01b6200029560201b60201c565b8151620001749060069060208501906200045d565b5080516200018a9060079060208401906200045d565b50620001a66380ac58cd60e01b6001600160e01b036200029516565b620001c1635b5e139f60e01b6001600160e01b036200029516565b620001dc63780e9d6360e01b6001600160e01b036200029516565b505062000209604051620001f0906200053d565b604051908190039020336001600160e01b03620002f016565b600b80546001600160a01b039283166001600160a01b031991821617909155601c80549490921693169290921790915550620005f99050565b60006200028c83836040518060400160405280601a81526020017f536166654d6174683a206469766973696f6e206279207a65726f0000000000008152506200030960201b60201c565b90505b92915050565b6001600160e01b03198082161415620002cb5760405162461bcd60e51b8152600401620002c290620005a9565b60405180910390fd5b6001600160e01b0319166000908152602081905260409020805460ff19166001179055565b6200030582826001600160e01b036200034416565b5050565b600081836200032d5760405162461bcd60e51b8152600401620002c2919062000553565b5060008385816200033a57fe5b0495945050505050565b6000828152600a602090815260409091206200036b91839062002e92620003c8821b17901c565b156200030557620003846001600160e01b03620003e816565b6001600160a01b0316816001600160a01b0316837f2f8788117e7eff1d82e926ec794901d17c78024a50270940304540a733656f0d60405160405180910390a45050565b60006200028c836001600160a01b0384166001600160e01b03620003ed16565b335b90565b60006200040483836001600160e01b036200044516565b6200043c575081546001818101845560008481526020808220909301849055845484825282860190935260409020919091556200028f565b5060006200028f565b60009081526001919091016020526040902054151590565b828054600181600116156101000203166002900490600052602060002090601f016020900481019282601f10620004a057805160ff1916838001178555620004d0565b82800160010185558215620004d0579182015b82811115620004d0578251825591602001919060010190620004b3565b50620004de929150620004e2565b5090565b620003ea91905b80821115620004de5760008155600101620004e9565b6000806040838503121562000512578182fd5b82516200051f81620005e0565b60208401519092506200053281620005e0565b809150509250929050565b6941444d494e5f524f4c4560b01b8152600a0190565b6000602080835283518082850152825b81811015620005815785810183015185820160400152820162000563565b81811115620005935783604083870101525b50601f01601f1916929092016040019392505050565b6020808252601c908201527f4552433136353a20696e76616c696420696e7465726661636520696400000000604082015260600190565b6001600160a01b0381168114620005f657600080fd5b50565b615e6480620006096000396000f3fe6080604052600436106103855760003560e01c80637b2feaaa116101d1578063b88d4fde11610102578063e8a3d485116100a0578063fa33eb261161006f578063fa33eb2614610a10578063fbddd14b14610a3d578063fc4ea93914610a52578063fd05dd6a14610a6757610395565b8063e8a3d485146109b1578063e985e9c5146109c6578063f1d77baf146109e6578063f7eaec7d146109fb57610395565b8063ca15c873116100dc578063ca15c87314610931578063ca9c0bad14610951578063d547741f14610971578063dbde52221461099157610395565b8063b88d4fde146108d1578063bedb86fb146108f1578063c87b56dd1461091157610395565b806395d89b411161016f578063a217fddf11610149578063a217fddf14610851578063a22cb46514610866578063b3174fa114610886578063b4b5b48f1461089b57610395565b806395d89b4114610814578063990cec8314610829578063a035b1fe1461083c57610395565b80639010d07c116101ab5780639010d07c1461078557806391d14854146107a5578063938e3d7b146107c5578063947e93d9146107e557610395565b80637b2feaaa146107305780637def753d14610745578063824cac1a1461076557610395565b806333618273116102b657806352410197116102545780636c0360eb116102235780636c0360eb146106d157806370a08231146106e657806371a0a0161461070657806375b238fc1461071b57610395565b8063524101971461066757806355f804b31461067c5780635c975abb1461069c5780636352211e146106b157610395565b8063408f3a2b11610290578063408f3a2b146105da57806342842e0e1461060757806345de6305146106275780634f6ccce71461064757610395565b8063336182731461057a57806336568abe1461059a5780633c564cab146105ba57610395565b8063162094c41161032357806323b872dd116102fd57806323b872dd146104fa578063248a9ca31461051a5780632f2ff15d1461053a5780632f745c591461055a57610395565b8063162094c41461049857806318160ddd146104b85780631dd68782146104da57610395565b806306fdde031161035f57806306fdde0314610414578063081812fc14610436578063095ea7b3146104635780630e1b9b0e1461048357610395565b806301ffc9a71461039a578063031bd4c4146103d0578063055ad42e146103f257610395565b366103955761039334610a94565b005b600080fd5b3480156103a657600080fd5b506103ba6103b5366004614712565b610b47565b6040516103c791906150da565b60405180910390f35b3480156103dc57600080fd5b506103e5610b6a565b6040516103c79190615c38565b3480156103fe57600080fd5b50610407610b6f565b6040516103c79190615ce9565b34801561042057600080fd5b50610429610b87565b6040516103c791906150f3565b34801561044257600080fd5b50610456610451366004614692565b610c1d565b6040516103c7919061507b565b34801561046f57600080fd5b5061039361047e366004614648565b610c69565b34801561048f57600080fd5b50610407610cfc565b3480156104a457600080fd5b506103936104b3366004614bf5565b610d01565b3480156104c457600080fd5b506104cd610d5d565b6040516103c79190614f9b565b3480156104e657600080fd5b506104296104f5366004614c3f565b610d69565b34801561050657600080fd5b50610393610515366004614534565b610f17565b34801561052657600080fd5b506104cd610535366004614692565b610f4f565b34801561054657600080fd5b506103936105553660046146c2565b610f64565b34801561056657600080fd5b506104cd610575366004614648565b610fac565b34801561058657600080fd5b50610393610595366004614692565b610fdd565b3480156105a657600080fd5b506103936105b53660046146c2565b61101a565b3480156105c657600080fd5b506103936105d5366004614bd2565b61105c565b3480156105e657600080fd5b506105fa6105f5366004614692565b6111dc565b6040516103c79190615c24565b34801561061357600080fd5b50610393610622366004614534565b6112fc565b34801561063357600080fd5b5061042961064236600461478a565b611317565b34801561065357600080fd5b506104cd610662366004614692565b61164a565b34801561067357600080fd5b506104cd611666565b34801561068857600080fd5b5061039361069736600461474a565b61166c565b3480156106a857600080fd5b506103ba6116ba565b3480156106bd57600080fd5b506104566106cc366004614692565b6116c3565b3480156106dd57600080fd5b506104296116f1565b3480156106f257600080fd5b506104cd6107013660046144e5565b611752565b34801561071257600080fd5b5061040761179b565b34801561072757600080fd5b506104cd6117a0565b34801561073c57600080fd5b506104cd6117b7565b34801561075157600080fd5b506103936107603660046144e5565b6117bd565b34801561077157600080fd5b50610393610780366004614b17565b61181c565b34801561079157600080fd5b506104566107a03660046146f1565b611cbc565b3480156107b157600080fd5b506103ba6107c03660046146c2565b611cda565b3480156107d157600080fd5b506103936107e036600461474a565b611cf8565b3480156107f157600080fd5b50610805610800366004614692565b611d13565b6040516103c793929190615cf7565b34801561082057600080fd5b50610429611e3f565b6104cd61083736600461487b565b611ea0565b34801561084857600080fd5b506104cd6123e0565b34801561085d57600080fd5b506104cd6123e6565b34801561087257600080fd5b5061039361088136600461461d565b6123eb565b34801561089257600080fd5b506104cd6124b9565b3480156108a757600080fd5b506108bb6108b6366004614692565b6124bf565b6040516103c79a99989796959493929190615c47565b3480156108dd57600080fd5b506103936108ec366004614574565b612716565b3480156108fd57600080fd5b5061039361090c366004614672565b612755565b34801561091d57600080fd5b5061042961092c366004614692565b612777565b34801561093d57600080fd5b506104cd61094c366004614692565b6128c1565b34801561095d57600080fd5b5061039361096c3660046144e5565b6128d8565b34801561097d57600080fd5b5061039361098c3660046146c2565b612909565b34801561099d57600080fd5b506103936109ac366004614cda565b612943565b3480156109bd57600080fd5b50610429612adb565b3480156109d257600080fd5b506103ba6109e1366004614500565b612b69565b3480156109f257600080fd5b506104cd612b97565b348015610a0757600080fd5b506104cd612b9d565b348015610a1c57600080fd5b50610a30610a2b3660046149bc565b612ba3565b6040516103c791906150cc565b348015610a4957600080fd5b506104cd612db3565b348015610a5e57600080fd5b506104cd612e4a565b348015610a7357600080fd5b50610a87610a82366004614692565b610b84565b6040516103c791906150e5565b8015610b44576000610abe6064610ab284603c63ffffffff612ea716565b9063ffffffff612e5016565b6019546040519192506001600160a01b03169082156108fc029083906000818181858888f19350505050158015610af9573d6000803e3d6000fd5b50601a546001600160a01b03166108fc610b19848463ffffffff612ee116565b6040518115909202916000818181858888f19350505050158015610b41573d6000803e3d6000fd5b50505b50565b6001600160e01b0319811660009081526020819052604090205460ff165b919050565b606e81565b6000610b81601054610ab2600c612f23565b90505b90565b60068054604080516020601f6002600019610100600188161502019095169490940493840181900481028201810190925282815260609390929091830182828015610c135780601f10610be857610100808354040283529160200191610c13565b820191906000526020600020905b815481529060010190602001808311610bf657829003601f168201915b5050505050905090565b6000610c2882612f27565b610c4d5760405162461bcd60e51b8152600401610c449061569d565b60405180910390fd5b506000908152600460205260409020546001600160a01b031690565b6000610c74826116c3565b9050806001600160a01b0316836001600160a01b03161415610ca85760405162461bcd60e51b8152600401610c4490615850565b806001600160a01b0316610cba612f3a565b6001600160a01b03161480610cd65750610cd6816109e1612f3a565b610cf25760405162461bcd60e51b8152600401610c44906154e5565b610b418383612f3e565b601881565b610d1d604051610d1090615065565b6040518091039020612fac565b610b418383838080601f016020809104026020016040519081016040528093929190818152602001838380828437600092019190915250612fd292505050565b6000610b816002613016565b6060610d73614124565b5060008781526013602090815260409182902082516102008101845290546001600160801b038116825261ffff600160801b8204169282019290925260ff600160901b8304811693820193909352600160981b820483166060820152600160a01b820483166080820152600160a81b8204831660a0820152600160b01b8204831660c0820152600160b81b8204831660e0820152600160c01b82048316610100820152600160c81b82048316610120820152600160d01b82048316610140820152600160d81b82048316610160820152600160e01b90910482166101808201528782166101a08201528582166101e08201529086166101c0820152601c546001600160a01b03166301a28c5f828a610e8a816116c3565b610e94868e612ba3565b89896040518763ffffffff1660e01b8152600401610eb796959493929190615bdb565b60006040518083038186803b158015610ecf57600080fd5b505afa158015610ee3573d6000803e3d6000fd5b505050506040513d6000823e601f3d908101601f19168201604052610f0b9190810190614946565b98975050505050505050565b610f28610f22612f3a565b82613021565b610f445760405162461bcd60e51b8152600401610c4490615891565b610b418383836130a6565b6000908152600a602052604090206002015490565b6000828152600a6020526040902060020154610f82906107c0612f3a565b610f9e5760405162461bcd60e51b8152600401610c4490615148565b610fa882826131c6565b5050565b6001600160a01b0382166000908152600160205260408120610fd4908363ffffffff61323516565b90505b92915050565b610fec604051610d1090615065565b43811161100b5760405162461bcd60e51b8152600401610c449061597d565b600f55600e805460ff19169055565b611022612f3a565b6001600160a01b0316816001600160a01b0316146110525760405162461bcd60e51b8152600401610c4490615ab7565b610fa88282613241565b611065826116c3565b6001600160a01b0316336001600160a01b0316148061109d575061108882610c1d565b6001600160a01b0316336001600160a01b0316145b6110b95760405162461bcd60e51b8152600401610c449061558c565b60656110c86020830183614cbf565b60ff1611156110e95760405162461bcd60e51b8152600401610c4490615424565b60006110fb6040830160208401614cbf565b60ff161161111b5760405162461bcd60e51b8152600401610c44906157fa565b6111286020820182614cbf565b6000838152601360205260409020805460ff92909216600160e81b0260ff60e81b199092169190911790558060016020020160208101906111699190614cbf565b6000838152601360205260409020805460ff92909216600160f01b0260ff60f01b199092169190911790558060026020020160208101906111aa9190614cbf565b600092835260136020526040909220805460ff93909316600160f81b026001600160f81b039093169290921790915550565b60006111e6614124565b505060009081526013602090815260409182902082516102008101845290546001600160801b03811680835261ffff600160801b8304169383019390935260ff600160901b8204811694830194909452600160981b810484166060830152600160a01b810484166080830152600160a81b8104841660a0830152600160b01b8104841660c0830152600160b81b8104841660e0830152600160c01b81048416610100830152600160c81b81048416610120830152600160d01b81048416610140830152600160d81b81048416610160830152600160e01b81048416610180830152600160e81b810484166101a0830152600160f01b810484166101c0830152600160f81b90049092166101e09092019190915290565b610b4183838360405180602001604052806000815250612716565b606060656113286020870187614cbf565b60ff1611156113495760405162461bcd60e51b8152600401610c44906159d9565b6113de61135960208b018b614cbf565b61136960408c0160208d01614cbf565b604080516060818101909252908e9060039083908390808284376000920191909152505060408051608081810190925291508d9060049083908390808284376000920191909152505060408051808201825291508d906002908390839080828437600092019190915250600191506129439050565b6113e6614124565b6040518061020001604052806114318f8f8080601f0160208091040260200160405190810160405280939291908181526020018383808284376000920191909152506132b092505050565b6001600160801b0316815260209081019061144e908e018e614bb0565b61ffff16815260209081019061146a9060408f01908f01614bb0565b60ff16815260200161148260608e0160408f01614bb0565b60ff168152602090810190611499908d018d614cbf565b60ff1681526020908101906114b49060408e01908e01614cbf565b60ff1681526020908101906114cb908c018c614cbf565b60ff1681526020908101906114e69060408d01908d01614cbf565b60ff1681526020016114fe60608c0160408d01614cbf565b60ff16815260200161151660808c0160608d01614cbf565b60ff16815260209081019061152d908b018b614cbf565b60ff1681526020908101906115489060408c01908c01614cbf565b60ff90811682528916602082015260400187600060200201602081019061156f9190614cbf565b60ff16815260209081019061158a9060408a01908a01614cbf565b60ff1681526020016115a26060890160408a01614cbf565b60ff169052601c546040516301a28c5f60e01b81529192506001600160a01b0316906301a28c5f906115e390849060009081908b908b908b90600401615b5e565b60006040518083038186803b1580156115fb57600080fd5b505afa15801561160f573d6000803e3d6000fd5b505050506040513d6000823e601f3d908101601f191682016040526116379190810190614946565b9150505b9b9a5050505050505050505050565b60008061165e60028463ffffffff61330916565b509392505050565b60115481565b61167b604051610d1090615065565b610fa882828080601f01602080910402602001604051908101604052809392919081815260200183838082843760009201919091525061332792505050565b600e5460ff1681565b6000610fd782604051806060016040528060298152602001615e06602991396002919063ffffffff61333a16565b60098054604080516020601f6002600019610100600188161502019095169490940493840181900481028201810190925282815260609390929091830182828015610c135780601f10610be857610100808354040283529160200191610c13565b60006001600160a01b03821661177a5760405162461bcd60e51b8152600401610c4490615542565b6001600160a01b0382166000908152600160205260409020610fd790613016565b600b81565b6040516117ac90615065565b604051809103902081565b600f5481565b6117cc604051610d1090615065565b6018546117d9600d612f23565b106117f65760405162461bcd60e51b8152600401610c44906151d5565b6000611802600d612f23565b6017540390506118128282613351565b610fa8600d61336b565b611824613374565b3361182e826116c3565b6001600160a01b0316146118545760405162461bcd60e51b8152600401610c449061595f565b600081815260136020526040902054600160a01b900460ff161561188a5760405162461bcd60e51b8152600401610c4490615941565b61190887878760038060200260405190810160405280929190826003602002808284376000920191909152505060408051608081810190925291508990600490839083908082843760009201919091525050604080518082018252915089906002908390839080828437600092019190915250600191506129439050565b6040805161020081019091526001600160801b038916815260208082019061193290880188614bb0565b61ffff16815260209081019061194e9060408901908901614bb0565b60ff1681526020016119666060880160408901614bb0565b60ff90811682528981166020830152881660408201526060018560006020020160208101906119959190614cbf565b60ff1681526020908101906119b09060408801908801614cbf565b60ff1681526020016119c86060870160408801614cbf565b60ff1681526020016119e06080870160608801614cbf565b60ff1681526020908101906119f790860186614cbf565b60ff168152602090810190611a129060408701908701614cbf565b60ff1681526020018360ff168152602001600060ff168152602001600a60ff168152602001600160ff168152506013600083815260200190815260200160002060008201518160000160006101000a8154816001600160801b0302191690836001600160801b0316021790555060208201518160000160106101000a81548161ffff021916908361ffff16021790555060408201518160000160126101000a81548160ff021916908360ff16021790555060608201518160000160136101000a81548160ff021916908360ff16021790555060808201518160000160146101000a81548160ff021916908360ff16021790555060a08201518160000160156101000a81548160ff021916908360ff16021790555060c08201518160000160166101000a81548160ff021916908360ff16021790555060e08201518160000160176101000a81548160ff021916908360ff1602179055506101008201518160000160186101000a81548160ff021916908360ff1602179055506101208201518160000160196101000a81548160ff021916908360ff16021790555061014082015181600001601a6101000a81548160ff021916908360ff16021790555061016082015181600001601b6101000a81548160ff021916908360ff16021790555061018082015181600001601c6101000a81548160ff021916908360ff1602179055506101a082015181600001601d6101000a81548160ff021916908360ff1602179055506101c082015181600001601e6101000a81548160ff021916908360ff1602179055506101e082015181600001601f6101000a81548160ff021916908360ff1602179055509050507feaa4f184b7f3d10bde81fc2d884889a91fbadf176d0ecc02895ab30b5aba08ef81604051611caa9190614f9b565b60405180910390a15050505050505050565b6000828152600a60205260408120610fd4908363ffffffff61323516565b6000828152600a60205260408120610fd4908363ffffffff61339916565b611d07604051610d1090615065565b610b41601b83836141a8565b6000806000611d20614124565b5050506000918252506013602090815260409182902082516102008101845290546001600160801b038116825261ffff600160801b8204169282019290925260ff600160901b8304811693820193909352600160981b820483166060820152600160a01b820483166080820152600160a81b8204831660a0820152600160b01b8204831660c0820152600160b81b8204831660e0820152600160c01b82048316610100820152600160c81b82048316610120820152600160d01b82048316610140820152600160d81b82048316610160820152600160e01b82048316610180820152600160e81b820483166101a08201819052600160f01b830484166101c08301819052600160f81b9093049093166101e09091018190529192909190565b60078054604080516020601f6002600019610100600188161502019095169490940493840181900481028201810190925282815260609390929091830182828015610c135780601f10610be857610100808354040283529160200191610c13565b6000611eaa6133ae565b611eb2613374565b611eba6133d7565b611ec482846133f9565b611f3f89898960038060200260405190810160405280929190826003602002808284376000920191909152505060408051608081810190925291508b9060049083908390808284376000920191909152505060408051808201825291508b906002908390839080828437600092018290525091506129439050565b6001600160a01b038316611f655760405162461bcd60e51b8152600401610c4490615a87565b6000611f71600c612f23565b9050611f7d600c61336b565b611f99601054611f8d600c612f23565b9063ffffffff61357116565b611fce57611fca611fbd611fab610b6f565b6012549060ff1663ffffffff612ea716565b439063ffffffff6135b316565b600f555b600061200f8d8d8080601f0160208091040260200160405190810160405280939291908181526020018383808284376000920191909152506132b092505050565b9050600061201d83836135d8565b9050604051806102000160405280826001600160801b031681526020018b60006003811061204757fe5b60200201602081019061205a9190614bb0565b61ffff16815260200160c86001600160801b038416066001600160801b03166000146120955761209060408d0160208e01614bb0565b612098565b60005b60ff1681526020016120b060608d0160408e01614bb0565b60ff90811682528e811660208301528d1660408201526060018a60006020020160208101906120df9190614cbf565b60ff1681526020908101906120fa9060408d01908d01614cbf565b60ff16815260200161211260608c0160408d01614cbf565b60ff16815260200161212a60808c0160608d01614cbf565b60ff168152602090810190612141908b018b614cbf565b60ff16815260209081019061215c9060408c01908c01614cbf565b60ff1681526020018860ff168152602001600060ff168152602001600a60ff168152602001600160ff168152506013600085815260200190815260200160002060008201518160000160006101000a8154816001600160801b0302191690836001600160801b0316021790555060208201518160000160106101000a81548161ffff021916908361ffff16021790555060408201518160000160126101000a81548160ff021916908360ff16021790555060608201518160000160136101000a81548160ff021916908360ff16021790555060808201518160000160146101000a81548160ff021916908360ff16021790555060a08201518160000160156101000a81548160ff021916908360ff16021790555060c08201518160000160166101000a81548160ff021916908360ff16021790555060e08201518160000160176101000a81548160ff021916908360ff1602179055506101008201518160000160186101000a81548160ff021916908360ff1602179055506101208201518160000160196101000a81548160ff021916908360ff16021790555061014082015181600001601a6101000a81548160ff021916908360ff16021790555061016082015181600001601b6101000a81548160ff021916908360ff16021790555061018082015181600001601c6101000a81548160ff021916908360ff1602179055506101a082015181600001601d6101000a81548160ff021916908360ff1602179055506101c082015181600001601e6101000a81548160ff021916908360ff1602179055506101e082015181600001601f6101000a81548160ff021916908360ff1602179055509050506123cf8684613351565b5050509a9950505050505050505050565b60145481565b600081565b6123f3612f3a565b6001600160a01b0316826001600160a01b031614156124245760405162461bcd60e51b8152600401610c44906153ac565b8060056000612431612f3a565b6001600160a01b03908116825260208083019390935260409182016000908120918716808252919093529120805460ff191692151592909217909155612475612f3a565b6001600160a01b03167f17307eab39ab6107e8899845ad3d59bd9653f200f220920489ca2b5937696c31836040516124ad91906150da565b60405180910390a35050565b60105481565b60008060006124cc614226565b6124d4614244565b60006124de614262565b60008060006124eb614124565b5060008b81526013602090815260409182902082516102008101845290546001600160801b038116825261ffff600160801b8204169282019290925260ff600160901b8304811693820193909352600160981b820483166060820152600160a01b820483166080820152600160a81b8204831660a0820152600160b01b8204831660c0820152600160b81b8204831660e0820152600160c01b82048316610100820152600160c81b82048316610120820152600160d01b82048316610140820152600160d81b82048316610160820152600160e01b82048316610180820152600160e81b820483166101a0820152600160f01b820483166101c0820152600160f81b9091049091166101e0820152612601614226565b61260b828e612ba3565b9050806000602002015160ff169b50806001602002015192508060026020020151935080600360200201519450816101800151965081608001519a508160a0015199506040518060600160405280836020015161ffff1661ffff168152602001836040015160ff1661ffff168152602001836060015160ff1661ffff16815250955060405180608001604052808360c0015160ff1660ff1681526020018360e0015160ff1660ff16815260200183610100015160ff1660ff16815260200183610120015160ff1660ff168152509850604051806040016040528083610140015160ff1660ff16815260200183610160015160ff1660ff16815250975050509193959799509193959799565b612727612721612f3a565b83613021565b6127435760405162461bcd60e51b8152600401610c4490615891565b61274f8484848461369e565b50505050565b612764604051610d1090615065565b600e805460ff1916911515919091179055565b606061278282612f27565b61279e5760405162461bcd60e51b8152600401610c44906157ab565b60008281526008602090815260409182902080548351601f60026000196101006001861615020190931692909204918201849004840281018401909452808452606093928301828280156128335780601f1061280857610100808354040283529160200191612833565b820191906000526020600020905b81548152906001019060200180831161281657829003601f168201915b50506009549394505050506002600019610100600184161502019091160461285c579050610b65565b80511561288e57600981604051602001612877929190614fe4565b604051602081830303815290604052915050610b65565b6009612899846136d1565b6040516020016128aa929190614fe4565b604051602081830303815290604052915050919050565b6000818152600a60205260408120610fd790613016565b6128e7604051610d1090615065565b600b80546001600160a01b0319166001600160a01b0392909216919091179055565b6000828152600a6020526040902060020154612927906107c0612f3a565b6110525760405162461bcd60e51b8152600401610c4490615495565b60008660ff161180156129595750601f8660ff16105b6129755760405162461bcd60e51b8152600401610c4490615735565b8560ff168560ff16111561299b5760405162461bcd60e51b8152600401610c449061533e565b610168846002602002015161ffff1611156129c85760405162461bcd60e51b8152600401610c44906151f6565b6064846001602002015161ffff1611156129f45760405162461bcd60e51b8152600401610c4490615824565b80612a25576014846001602002015161ffff161015612a255760405162461bcd60e51b8152600401610c4490615824565b6064846002602002015161ffff161115612a515760405162461bcd60e51b8152600401610c4490615b06565b6020830151835160ff91821691161115612a7d5760405162461bcd60e51b8152600401610c4490615b31565b6060830151604084015160ff91821691161115612aac5760405162461bcd60e51b8152600401610c44906159ab565b8151606460ff9091161115612ad35760405162461bcd60e51b8152600401610c4490615919565b505050505050565b601b805460408051602060026001851615610100026000190190941693909304601f81018490048402820184019092528181529291830182828015612b615780601f10612b3657610100808354040283529160200191612b61565b820191906000526020600020905b815481529060010190602001808311612b4457829003601f168201915b505050505081565b6001600160a01b03918216600090815260056020908152604080832093909416825291909152205460ff1690565b60165481565b60155481565b612bab614226565b606e821015612d5c576060612bcc84600001516001600160801b03166137ac565b9050612bd6614280565b506040805160e0810182526001808252600260208301819052600593830184905260096060840152608083019390935260a082019290925260c0810191909152612c1e61429e565b506040805161030081018252600180825260208201819052918101829052606081018290526080810182905260a0810182905260c0810182905260e08101829052610100810182905261012081018290526101408101829052610160810182905261018081018290526101a081018290526101c081018290526101e08101829052610200810182905261022081018290526102408101829052610260810182905261028081018290526102a081018290526102c081018290526102e0810191909152612cf28382601863ffffffff61386316565b60ff168452601054612d05908690612e50565b60ff166020850152612d2d6001612d1e858560196138d3565b60ff169063ffffffff6135b316565b60ff90811660408601526060870151612d4b91859160009116613924565b60ff16606085015250610fd7915050565b825160ff6001607b1b6001600160801b03928316041682528351600160771b90821604600f1660208301528351600160741b90821604600716604083015292516001606d1b931692909204607f1660608301525090565b6000612dc4604051610d1090615065565b600b60009054906101000a90046001600160a01b03166001600160a01b031663990c8f796040518163ffffffff1660e01b815260040160206040518083038186803b158015612e1257600080fd5b505afa158015612e26573d6000803e3d6000fd5b505050506040513d601f19601f82011682018060405250810190610b8191906146aa565b60125481565b6000610fd483836040518060400160405280601a81526020017f536166654d6174683a206469766973696f6e206279207a65726f000000000000815250613967565b6000610fd4836001600160a01b03841661399e565b600082612eb657506000610fd7565b82820282848281612ec357fe5b0414610fd45760405162461bcd60e51b8152600401610c449061565c565b6000610fd483836040518060400160405280601e81526020017f536166654d6174683a207375627472616374696f6e206f766572666c6f7700008152506139e8565b5490565b6000610fd760028363ffffffff613a1416565b3390565b600081815260046020526040902080546001600160a01b0319166001600160a01b0384169081179091558190612f73826116c3565b6001600160a01b03167f8c5be1e5ebec7d5bd14f71427d1e84f3dd0314c0f7b2291e5b200ac8c7c3b92560405160405180910390a45050565b612fb68133611cda565b610b445760405162461bcd60e51b8152600401610c4490615a00565b612fdb82612f27565b612ff75760405162461bcd60e51b8152600401610c44906156e9565b60008281526008602090815260409091208251610b41928401906142bd565b6000610fd782612f23565b600061302c82612f27565b6130485760405162461bcd60e51b8152600401610c4490615449565b6000613053836116c3565b9050806001600160a01b0316846001600160a01b0316148061308e5750836001600160a01b031661308384610c1d565b6001600160a01b0316145b8061309e575061309e8185612b69565b949350505050565b826001600160a01b03166130b9826116c3565b6001600160a01b0316146130df5760405162461bcd60e51b8152600401610c4490615762565b6001600160a01b0382166131055760405162461bcd60e51b8152600401610c4490615368565b613110838383610b41565b61311b600082612f3e565b6001600160a01b0383166000908152600160205260409020613143908263ffffffff613a2016565b506001600160a01b038216600090815260016020526040902061316c908263ffffffff613a2c16565b5061317f6002828463ffffffff613a3816565b5080826001600160a01b0316846001600160a01b03167fddf252ad1be2c89b69c2b068fc378daa952ba7f163c4a11628f55a4df523b3ef60405160405180910390a4505050565b6000828152600a602052604090206131e4908263ffffffff612e9216565b15610fa8576131f1612f3a565b6001600160a01b0316816001600160a01b0316837f2f8788117e7eff1d82e926ec794901d17c78024a50270940304540a733656f0d60405160405180910390a45050565b6000610fd48383613a4e565b6000828152600a6020526040902061325f908263ffffffff613a9316565b15610fa85761326c612f3a565b6001600160a01b0316816001600160a01b0316837ff6391f5c32d9c69d2a47ea670b442974b53935d1edc7fd64eb21e047a839171b60405160405180910390a45050565b600081815b81518110156133025760008282815181106132cc57fe5b016020015160f81c9050603081108015906132e8575060398111155b156132f9576030810384600a020193505b506001016132b5565b5050919050565b60008080806133188686613aa8565b909450925050505b9250929050565b8051610fa89060099060208401906142bd565b6000613347848484613b04565b90505b9392505050565b610fa8828260405180602001604052806000815250613b63565b80546001019055565b600e5460ff16156133975760405162461bcd60e51b8152600401610c4490615197565b565b6000610fd4836001600160a01b038416613b96565b606e6133ba600c612f23565b106133975760405162461bcd60e51b8152600401610c449061526f565b600f544310156133975760405162461bcd60e51b8152600401610c44906151b7565b60145434101561341b5760405162461bcd60e51b8152600401610c44906155b8565b6014543411156134695760145433906108fc9061343f90349063ffffffff612ee116565b6040518115909202916000818181858888f19350505050158015613467573d6000803e3d6000fd5b505b600061347483612f27565b61347e5732613487565b613487836116c3565b9050600061349432611752565b156134a1576015546134a5565b6016545b905060006001600160a01b03831633148015906134cb57506001600160a01b0383163214155b80156134e95750836001600160a01b0316836001600160a01b031614155b6134f457600061350e565b61350e6064610ab284601454612ea790919063ffffffff16565b9050801561354e576040516001600160a01b0384169082156108fc029083906000818181858888f1935050505015801561354c573d6000803e3d6000fd5b505b60145461356a90613565908363ffffffff612ee116565b610a94565b5050505050565b6000610fd483836040518060400160405280601881526020017f536166654d6174683a206d6f64756c6f206279207a65726f0000000000000000815250613bae565b600082820183811015610fd45760405162461bcd60e51b8152600401610c44906152d0565b600080600b60009054906101000a90046001600160a01b03166001600160a01b031663990c8f796040518163ffffffff1660e01b815260040160206040518083038186803b15801561362957600080fd5b505afa15801561363d573d6000803e3d6000fd5b505050506040513d601f19601f8201168201806040525081019061366191906146aa565b848460405160200161367593929190614fb2565b60408051808303601f1901815291905280516020909101206001600160801b0316949350505050565b6136a98484846130a6565b6136b584848484613be2565b61274f5760405162461bcd60e51b8152600401610c449061521d565b6060816136f657506040805180820190915260018152600360fc1b6020820152610b65565b8160005b811561370e57600101600a820491506136fa565b60608167ffffffffffffffff8111801561372757600080fd5b506040519080825280601f01601f191660200182016040528015613752576020820181803683370190505b50859350905060001982015b83156137a357600a840660300160f81b8282806001900393508151811061378157fe5b60200101906001600160f81b031916908160001a905350600a8404935061375e565b50949350505050565b604080516003808252608082019092526060916002918391602082018380368337019050509050600080856040516020016137e8929190614fa4565b60408051601f198184030181529190528051602090910120905060005b8381101561385957804082604051602001613821929190614fa4565b6040516020818303038152906040528051906020012083826001018151811061384657fe5b6020908102919091010152600101613805565b5090949350505050565b6000806138758560018560ff16613924565b90506000805b60188160ff1610156138c9576138ae868260ff166018811061389957fe5b6020020151839060ff1663ffffffff613cc716565b91508183136138c157925061334a915050565b60010161387b565b5050509392505050565b6000806138e58560018560ff16613924565b90506000805b60078160ff1610156138c957613909868260ff166007811061389957fe5b915081831361391c57925061334a915050565b6001016138eb565b6000818313156139465760405162461bcd60e51b8152600401610c4490615a52565b8283830360010161395686613d0d565b8161395d57fe5b0601949350505050565b600081836139885760405162461bcd60e51b8152600401610c4491906150f3565b50600083858161399457fe5b0495945050505050565b60006139aa8383613b96565b6139e057508154600181810184556000848152602080822090930184905584548482528286019093526040902091909155610fd7565b506000610fd7565b60008184841115613a0c5760405162461bcd60e51b8152600401610c4491906150f3565b505050900390565b6000610fd48383613b96565b6000610fd48383613df0565b6000610fd4838361399e565b600061334784846001600160a01b038516613eb6565b81546000908210613a715760405162461bcd60e51b8152600401610c4490615106565b826000018281548110613a8057fe5b9060005260206000200154905092915050565b6000610fd4836001600160a01b038416613df0565b815460009081908310613acd5760405162461bcd60e51b8152600401610c44906155e5565b6000846000018481548110613ade57fe5b906000526020600020906002020190508060000154816001015492509250509250929050565b60008281526001840160205260408120548281613b345760405162461bcd60e51b8152600401610c4491906150f3565b50846000016001820381548110613b4757fe5b9060005260206000209060020201600101549150509392505050565b613b6d8383613f4d565b613b7a6000848484613be2565b610b415760405162461bcd60e51b8152600401610c449061521d565b60009081526001919091016020526040902054151590565b60008183613bcf5760405162461bcd60e51b8152600401610c4491906150f3565b50828481613bd957fe5b06949350505050565b6000613bf6846001600160a01b031661401d565b613c025750600161309e565b6060613c90630a85bd0160e11b613c17612f3a565b888787604051602401613c2d949392919061508f565b604051602081830303815290604052906001600160e01b0319166020820180516001600160e01b038381831617835250505050604051806060016040528060328152602001615dd4603291396001600160a01b038816919063ffffffff61405616565b9050600081806020019051810190613ca8919061472e565b6001600160e01b031916630a85bd0160e11b1492505050949350505050565b6000828201818312801590613cdc5750838112155b80613cf15750600083128015613cf157508381125b610fd45760405162461bcd60e51b8152600401610c44906153e3565b60006001825111613d305760405162461bcd60e51b8152600401610c4490615307565b6000600183510383600081518110613d4457fe5b602002602001015160001c81613d5657fe5b0660010190506000838281518110613d6a57fe5b6020026020010151604051602001613d829190614f9b565b60405160208183030381529060405280519060200120905083600081518110613da757fe5b602002602001015160001c60010160001b84600081518110613dc557fe5b60200260200101818152505080848381518110613dde57fe5b60209081029190910101529392505050565b60008181526001830160205260408120548015613eac5783546000198083019190810190600090879083908110613e2357fe5b9060005260206000200154905080876000018481548110613e4057fe5b600091825260208083209091019290925582815260018981019092526040902090840190558654879080613e7057fe5b60019003818190600052602060002001600090559055866001016000878152602001908152602001600020600090556001945050505050610fd7565b6000915050610fd7565b600082815260018401602052604081205480613f1b57505060408051808201825283815260208082018481528654600181810189556000898152848120955160029093029095019182559151908201558654868452818801909252929091205561334a565b82856000016001830381548110613f2e57fe5b906000526020600020906002020160010181905550600091505061334a565b6001600160a01b038216613f735760405162461bcd60e51b8152600401610c4490615627565b613f7c81612f27565b15613f995760405162461bcd60e51b8152600401610c4490615299565b613fa560008383610b41565b6001600160a01b0382166000908152600160205260409020613fcd908263ffffffff613a2c16565b50613fe06002828463ffffffff613a3816565b5060405181906001600160a01b038416906000907fddf252ad1be2c89b69c2b068fc378daa952ba7f163c4a11628f55a4df523b3ef908290a45050565b6000813f7fc5d2460186f7233c927e7db2dcc703c0e500b653ca82273b7bfad8045d85a47081811480159061309e575050151592915050565b60606133478484600085606061406b8561401d565b6140875760405162461bcd60e51b8152600401610c44906158e2565b60006060866001600160a01b031685876040516140a49190614fc8565b60006040518083038185875af1925050503d80600081146140e1576040519150601f19603f3d011682016040523d82523d6000602084013e6140e6565b606091505b509150915081156140fa57915061309e9050565b80511561410a5780518082602001fd5b8360405162461bcd60e51b8152600401610c4491906150f3565b6040805161020081018252600080825260208201819052918101829052606081018290526080810182905260a0810182905260c0810182905260e08101829052610100810182905261012081018290526101408101829052610160810182905261018081018290526101a081018290526101c081018290526101e081019190915290565b828054600181600116156101000203166002900490600052602060002090601f016020900481019282601f106141e95782800160ff19823516178555614216565b82800160010185558215614216579182015b828111156142165782358255916020019190600101906141fb565b5061422292915061432b565b5090565b60405180608001604052806004906020820280368337509192915050565b60405180604001604052806002906020820280368337509192915050565b60405180606001604052806003906020820280368337509192915050565b6040518060e001604052806007906020820280368337509192915050565b6040518061030001604052806018906020820280368337509192915050565b828054600181600116156101000203166002900490600052602060002090601f016020900481019282601f106142fe57805160ff1916838001178555614216565b82800160010185558215614216579182015b82811115614216578251825591602001919060010190614310565b610b8491905b808211156142225760008155600101614331565b80356001600160a01b0381168114610fd757600080fd5b8060608101831015610fd757600080fd5b8060408101831015610fd757600080fd5b600082601f83011261438e578081fd5b6143986040615d14565b90508082846040850111156143ac57600080fd5b6000805b60028110156143de57823560ff811681146143c9578283fd5b845260209384019392909201916001016143b0565b5050505092915050565b8060808101831015610fd757600080fd5b600082601f830112614409578081fd5b6144136080615d14565b905080828460808501111561442757600080fd5b60005b60048110156144525761443d86836144d4565b8352602092830192919091019060010161442a565b50505092915050565b80358015158114610fd757600080fd5b60008083601f84011261447c578182fd5b50813567ffffffffffffffff811115614493578182fd5b60208301915083602082850101111561332057600080fd5b80356001600160801b0381168114610fd757600080fd5b803561ffff81168114610fd757600080fd5b803560ff81168114610fd757600080fd5b6000602082840312156144f6578081fd5b610fd48383614345565b60008060408385031215614512578081fd5b61451c8484614345565b915061452b8460208501614345565b90509250929050565b600080600060608486031215614548578081fd5b833561455381615da8565b9250602084013561456381615da8565b929592945050506040919091013590565b60008060008060808587031215614589578182fd5b6145938686614345565b93506145a28660208701614345565b925060408501359150606085013567ffffffffffffffff8111156145c4578182fd5b80860187601f8201126145d5578283fd5b803591506145ea6145e583615d58565b615d14565b8281528860208484010111156145fe578384fd5b8260208301602083013791820160200192909252939692955090935050565b6000806040838503121561462f578182fd5b6146398484614345565b915061452b846020850161445b565b6000806040838503121561465a578182fd5b6146648484614345565b946020939093013593505050565b600060208284031215614683578081fd5b81358015158114610fd4578182fd5b6000602082840312156146a3578081fd5b5035919050565b6000602082840312156146bb578081fd5b5051919050565b600080604083850312156146d4578182fd5b8235915060208301356146e681615da8565b809150509250929050565b60008060408385031215614703578182fd5b50508035926020909101359150565b600060208284031215614723578081fd5b8135610fd481615dbd565b60006020828403121561473f578081fd5b8151610fd481615dbd565b6000806020838503121561475c578182fd5b823567ffffffffffffffff811115614772578283fd5b61477e8582860161446b565b90969095509350505050565b60008060008060008060008060008060006102a08c8e0312156147ab578889fd5b67ffffffffffffffff808d3511156147c157898afd5b6147ce8e8e358f0161446b565b909c509a506147e08e60208f0161435c565b99506147ef8e60808f0161436d565b98506147fe8e60c08f016143e8565b975061480e8e6101408f0161436d565b965061481e8e6101808f016144d4565b955061482e8e6101a08f0161435c565b945061483e8e6102008f016143e8565b9350806102808e01351115614851578283fd5b506148638d6102808e01358e0161446b565b81935080925050509295989b509295989b9093969950565b6000806000806000806000806000806101e08b8d03121561489a578384fd5b8a3567ffffffffffffffff8111156148b0578485fd5b6148bc8d828e0161446b565b909b5099506148d090508c60208d016144d4565b97506148df8c60408d016144d4565b96506148ee8c60608d0161435c565b95506148fd8c60c08d016143e8565b945061490d8c6101408d0161436d565b935061491d8c6101808d016144d4565b925061492d8c6101a08d01614345565b91506101c08b013590509295989b9194979a5092959850565b600060208284031215614957578081fd5b815167ffffffffffffffff81111561496d578182fd5b80830184601f82011261497e578283fd5b8051915061498e6145e583615d58565b8281528560208484010111156149a2578384fd5b6149b3836020830160208501615d7c565b95945050505050565b6000808284036102208112156149d0578283fd5b610200808212156149df578384fd5b6149e881615d14565b91506149f486866144ab565b8252614a0386602087016144c2565b6020830152614a1586604087016144d4565b6040830152614a2786606087016144d4565b6060830152614a3986608087016144d4565b6080830152614a4b8660a087016144d4565b60a0830152614a5d8660c087016144d4565b60c0830152614a6f8660e087016144d4565b60e0830152610100614a83878288016144d4565b90830152610120614a96878783016144d4565b90830152610140614aa9878783016144d4565b90830152610160614abc878783016144d4565b90830152610180614acf878783016144d4565b908301526101a0614ae2878783016144d4565b908301526101c0614af5878783016144d4565b908301526101e0614b08878783016144d4565b90830152909593013593505050565b6000806000806000806000806101c0898b031215614b33578182fd5b614b3d8a8a6144ab565b9750614b4c8a60208b016144d4565b9650614b5b8a60408b016144d4565b9550614b6a8a60608b0161435c565b9450614b798a60c08b016143e8565b9350614b898a6101408b0161436d565b9250614b998a6101808b016144d4565b91506101a089013590509295985092959890939650565b600060208284031215614bc1578081fd5b813561ffff81168114610fd4578182fd5b60008060808385031215614be4578182fd5b8235915061452b846020850161435c565b600080600060408486031215614c09578081fd5b83359250602084013567ffffffffffffffff811115614c26578182fd5b614c328682870161446b565b9497909650939450505050565b60008060008060008060a08789031215614c57578384fd5b86359550614c6888602089016144d4565b9450614c7788604089016144d4565b9350614c8688606089016144d4565b9250608087013567ffffffffffffffff811115614ca1578283fd5b614cad89828a0161446b565b979a9699509497509295939492505050565b600060208284031215614cd0578081fd5b610fd483836144d4565b6000806000806000806101808789031215614cf3578384fd5b614cfd88886144d4565b95506020614d0d89828a016144d4565b955088605f890112614d1d578485fd5b6003614d2b6145e582615d3b565b8060408b0160a08c018d811115614d4057898afd5b895b85811015614d6657614d548f846144c2565b85529386019391860191600101614d42565b50829950614d748e826143f9565b9850505050505050614d8a88610120890161437e565b9150614d9a88610160890161445b565b90509295509295509295565b8060005b600381101561274f57815161ffff16845260209384019390910190600101614daa565b8060005b600481101561274f57815160ff16845260209384019390910190600101614dd1565b60008151808452614e0b816020860160208601615d7c565b601f01601f19169290920160200192915050565b60008284528282602086013780602084860101526020601f19601f85011685010190509392505050565b614e54828251614f7f565b6020810151614e666020840182614f8c565b506040810151614e796040840182614f94565b506060810151614e8c6060840182614f94565b506080810151614e9f6080840182614f94565b5060a0810151614eb260a0840182614f94565b5060c0810151614ec560c0840182614f94565b5060e0810151614ed860e0840182614f94565b5061010080820151614eec82850182614f94565b505061012080820151614f0182850182614f94565b505061014080820151614f1682850182614f94565b505061016080820151614f2b82850182614f94565b505061018080820151614f4082850182614f94565b50506101a080820151614f5582850182614f94565b50506101c080820151614f6a82850182614f94565b50506101e08082015161274f82850182614f94565b6001600160801b03169052565b61ffff169052565b60ff169052565b90815260200190565b918252602082015260400190565b9283526020830191909152604082015260600190565b60008251614fda818460208701615d7c565b9190910192915050565b6000808454600180821660008114615003576001811461501a57615049565b60ff198316865260028304607f1686019350615049565b600283048886526020808720875b838110156150415781548a820152908501908201615028565b505050860193505b505050835161505c818360208801615d7c565b01949350505050565b6941444d494e5f524f4c4560b01b8152600a0190565b6001600160a01b0391909116815260200190565b6001600160a01b03858116825284166020820152604081018390526080606082018190526000906150c290830184614df3565b9695505050505050565b60808101610fd78284614dcd565b901515815260200190565b60009190910b815260200190565b600060208252610fd46020830184614df3565b60208082526022908201527f456e756d657261626c655365743a20696e646578206f7574206f6620626f756e604082015261647360f01b606082015260800190565b6020808252602f908201527f416363657373436f6e74726f6c3a2073656e646572206d75737420626520616e60408201526e0818591b5a5b881d1bc819dc985b9d608a1b606082015260800190565b60208082526006908201526514185d5cd95960d21b604082015260600190565b60208082526004908201526315d0525560e21b604082015260600190565b6020808252600790820152664e4f204d4f524560c81b604082015260600190565b6020808252600d908201526c34b73b30b634b21031b7b637b960991b604082015260600190565b60208082526032908201527f4552433732313a207472616e7366657220746f206e6f6e20455243373231526560408201527131b2b4bb32b91034b6b83632b6b2b73a32b960711b606082015260800190565b60208082526010908201526f20a92a1029a0a6229024a99027ab22a960811b604082015260600190565b6020808252601c908201527f4552433732313a20746f6b656e20616c7265616479206d696e74656400000000604082015260600190565b6020808252601b908201527f536166654d6174683a206164646974696f6e206f766572666c6f770000000000604082015260600190565b60208082526019908201527f52616e646f6d2e6e6578743a20696e76616c696420706f6f6c00000000000000604082015260600190565b60208082526010908201526f696e76616c6964206861746368696e6760801b604082015260600190565b60208082526024908201527f4552433732313a207472616e7366657220746f20746865207a65726f206164646040820152637265737360e01b606082015260800190565b60208082526019908201527f4552433732313a20617070726f766520746f2063616c6c657200000000000000604082015260600190565b60208082526021908201527f5369676e6564536166654d6174683a206164646974696f6e206f766572666c6f6040820152607760f81b606082015260800190565b6020808252600b908201526a496e76616c696420426b6760a81b604082015260600190565b6020808252602c908201527f4552433732313a206f70657261746f7220717565727920666f72206e6f6e657860408201526b34b9ba32b73a103a37b5b2b760a11b606082015260800190565b60208082526030908201527f416363657373436f6e74726f6c3a2073656e646572206d75737420626520616e60408201526f2061646d696e20746f207265766f6b6560801b606082015260800190565b60208082526038908201527f4552433732313a20617070726f76652063616c6c6572206973206e6f74206f7760408201527f6e6572206e6f7220617070726f76656420666f7220616c6c0000000000000000606082015260800190565b6020808252602a908201527f4552433732313a2062616c616e636520717565727920666f7220746865207a65604082015269726f206164647265737360b01b606082015260800190565b602080825260129082015271496e7375662e205065726d697373696f6e7360701b604082015260600190565b6020808252601390820152721a5b9cdd599a58da595b9d081c185e5b595b9d606a1b604082015260600190565b60208082526022908201527f456e756d657261626c654d61703a20696e646578206f7574206f6620626f756e604082015261647360f01b606082015260800190565b6020808252818101527f4552433732313a206d696e7420746f20746865207a65726f2061646472657373604082015260600190565b60208082526021908201527f536166654d6174683a206d756c7469706c69636174696f6e206f766572666c6f6040820152607760f81b606082015260800190565b6020808252602c908201527f4552433732313a20617070726f76656420717565727920666f72206e6f6e657860408201526b34b9ba32b73a103a37b5b2b760a11b606082015260800190565b6020808252602c908201527f4552433732314d657461646174613a2055524920736574206f66206e6f6e657860408201526b34b9ba32b73a103a37b5b2b760a11b606082015260800190565b6020808252601390820152721a5b9d985b1a59081cda185c194818dbdd5b9d606a1b604082015260600190565b60208082526029908201527f4552433732313a207472616e73666572206f6620746f6b656e2074686174206960408201526839903737ba1037bbb760b91b606082015260800190565b6020808252602f908201527f4552433732314d657461646174613a2055524920717565727920666f72206e6f60408201526e3732bc34b9ba32b73a103a37b5b2b760891b606082015260800190565b60208082526010908201526f24b73b30b634b210223ab930ba34b7b760811b604082015260600190565b60208082526012908201527134b73b30b634b21039b0ba3ab930ba34b7b760711b604082015260600190565b60208082526021908201527f4552433732313a20617070726f76616c20746f2063757272656e74206f776e656040820152603960f91b606082015260800190565b60208082526031908201527f4552433732313a207472616e736665722063616c6c6572206973206e6f74206f6040820152701ddb995c881b9bdc88185c1c1c9bdd9959607a1b606082015260800190565b6020808252601d908201527f416464726573733a2063616c6c20746f206e6f6e2d636f6e7472616374000000604082015260600190565b6020808252600e908201526d1a5b9d985b1a59081cdc1c99585960921b604082015260600190565b6020808252600490820152631554d15160e21b604082015260600190565b6020808252600490820152634e4f504560e01b604082015260600190565b6020808252601490820152734d7573742062652066757475726520626c6f636b60601b604082015260600190565b602080825260149082015273696e76616c6964206865696768742072616e676560601b604082015260600190565b6020808252600d908201526c1092d1c80948125b9d985b1a59609a1b604082015260600190565b60208082526032908201527f43616c6c657220646f736e27742068617665207065726d697373696f6e20746f604082015271103ab9b2903a3434b990333ab731ba34b7b760711b606082015260800190565b6020808252818101527f52616e646f6d2e756e69666f726d3a20696e76616c696420696e74657276616c604082015260600190565b6020808252601690820152750c1e0c0c08149958da5c1a595b9d08125b9d985b1a5960521b604082015260600190565b6020808252602f908201527f416363657373436f6e74726f6c3a2063616e206f6e6c792072656e6f756e636560408201526e103937b632b9903337b91039b2b63360891b606082015260800190565b602080825260119082015270696e76616c6964206c696768746e65737360781b604082015260600190565b602080825260139082015272696e76616c69642077696474682072616e676560681b604082015260600190565b60006102e0615b6d838a614e49565b61020083018890526001600160a01b038716610220840152610240830186835b6004811015615bb757602080830160ff615ba782866144d4565b1685529301929150600101615b8d565b505050806102c0840152615bce8184018587614e1f565b9998505050505050505050565b60006102e0615bea838a614e49565b61020083018890526001600160a01b038716610220840152615c10610240840187614dcd565b806102c0840152615bce8184018587614e1f565b6001600160801b0391909116815260200190565b61ffff91909116815260200190565b6000610200820190508b8252602060ff8c168184015260ff8b166040840152615c73606084018b614dcd565b60e083018960005b6002811015615c9f57615c8f838351614f94565b9183019190830190600101615c7b565b50505050615cb1610120830188614f94565b615cbf610140830187614da6565b615ccd6101a0830186614f94565b615cdb6101c0830185614f94565b61163b6101e0830184614f94565b60ff91909116815260200190565b60ff93841681529183166020830152909116604082015260600190565b60405181810167ffffffffffffffff81118282101715615d3357600080fd5b604052919050565b600067ffffffffffffffff821115615d51578081fd5b5060200290565b600067ffffffffffffffff821115615d6e578081fd5b50601f01601f191660200190565b60005b83811015615d97578181015183820152602001615d7f565b8381111561274f5750506000910152565b6001600160a01b0381168114610b4457600080fd5b6001600160e01b031981168114610b4457600080fdfe4552433732313a207472616e7366657220746f206e6f6e20455243373231526563656976657220696d706c656d656e7465724552433732313a206f776e657220717565727920666f72206e6f6e6578697374656e7420746f6b656ea2646970667358221220aafbbfadb604601a4030b4bb137bfb795d45d0147bcb1c0e167318088391269564736f6c6343000608003368747470733a2f2f72696e6b6562792e74696e79626f782e73686f702f54696e79426f7865732e6a736f6e",
  "linkReferences": {},
  "deployedLinkReferences": {}
}