{
  "_format": "hh-sol-artifact-1",
  "contractName": "TinyBoxes",
  "sourceName": "contracts/TinyBoxes.sol",
  "abi": [
    {
      "inputs": [
        {
          "internalType": "address",
          "name": "rand",
          "type": "address"
        },
        {
          "internalType": "address",
          "name": "_renderer",
          "type": "address"
        }
      ],
      "stateMutability": "nonpayable",
      "type": "constructor"
    },
    {
      "anonymous": false,
      "inputs": [
        {
          "indexed": true,
          "internalType": "address",
          "name": "owner",
          "type": "address"
        },
        {
          "indexed": true,
          "internalType": "address",
          "name": "approved",
          "type": "address"
        },
        {
          "indexed": true,
          "internalType": "uint256",
          "name": "tokenId",
          "type": "uint256"
        }
      ],
      "name": "Approval",
      "type": "event"
    },
    {
      "anonymous": false,
      "inputs": [
        {
          "indexed": true,
          "internalType": "address",
          "name": "owner",
          "type": "address"
        },
        {
          "indexed": true,
          "internalType": "address",
          "name": "operator",
          "type": "address"
        },
        {
          "indexed": false,
          "internalType": "bool",
          "name": "approved",
          "type": "bool"
        }
      ],
      "name": "ApprovalForAll",
      "type": "event"
    },
    {
      "anonymous": false,
      "inputs": [
        {
          "indexed": false,
          "internalType": "uint256",
          "name": "id",
          "type": "uint256"
        }
      ],
      "name": "LECreated",
      "type": "event"
    },
    {
      "anonymous": false,
      "inputs": [
        {
          "indexed": true,
          "internalType": "bytes32",
          "name": "role",
          "type": "bytes32"
        },
        {
          "indexed": true,
          "internalType": "bytes32",
          "name": "previousAdminRole",
          "type": "bytes32"
        },
        {
          "indexed": true,
          "internalType": "bytes32",
          "name": "newAdminRole",
          "type": "bytes32"
        }
      ],
      "name": "RoleAdminChanged",
      "type": "event"
    },
    {
      "anonymous": false,
      "inputs": [
        {
          "indexed": true,
          "internalType": "bytes32",
          "name": "role",
          "type": "bytes32"
        },
        {
          "indexed": true,
          "internalType": "address",
          "name": "account",
          "type": "address"
        },
        {
          "indexed": true,
          "internalType": "address",
          "name": "sender",
          "type": "address"
        }
      ],
      "name": "RoleGranted",
      "type": "event"
    },
    {
      "anonymous": false,
      "inputs": [
        {
          "indexed": true,
          "internalType": "bytes32",
          "name": "role",
          "type": "bytes32"
        },
        {
          "indexed": true,
          "internalType": "address",
          "name": "account",
          "type": "address"
        },
        {
          "indexed": true,
          "internalType": "address",
          "name": "sender",
          "type": "address"
        }
      ],
      "name": "RoleRevoked",
      "type": "event"
    },
    {
      "anonymous": false,
      "inputs": [
        {
          "indexed": true,
          "internalType": "address",
          "name": "from",
          "type": "address"
        },
        {
          "indexed": true,
          "internalType": "address",
          "name": "to",
          "type": "address"
        },
        {
          "indexed": true,
          "internalType": "uint256",
          "name": "tokenId",
          "type": "uint256"
        }
      ],
      "name": "Transfer",
      "type": "event"
    },
    {
      "inputs": [],
      "name": "ADMIN_ROLE",
      "outputs": [
        {
          "internalType": "bytes32",
          "name": "",
          "type": "bytes32"
        }
      ],
      "stateMutability": "view",
      "type": "function"
    },
    {
      "inputs": [],
      "name": "ANIMATION_COUNT",
      "outputs": [
        {
          "internalType": "uint8",
          "name": "",
          "type": "uint8"
        }
      ],
      "stateMutability": "view",
      "type": "function"
    },
    {
      "inputs": [],
      "name": "DEFAULT_ADMIN_ROLE",
      "outputs": [
        {
          "internalType": "bytes32",
          "name": "",
          "type": "bytes32"
        }
      ],
      "stateMutability": "view",
      "type": "function"
    },
    {
      "inputs": [],
      "name": "SCHEME_COUNT",
      "outputs": [
        {
          "internalType": "uint8",
          "name": "",
          "type": "uint8"
        }
      ],
      "stateMutability": "view",
      "type": "function"
    },
    {
      "inputs": [],
      "name": "TOKEN_LIMIT",
      "outputs": [
        {
          "internalType": "uint16",
          "name": "",
          "type": "uint16"
        }
      ],
      "stateMutability": "view",
      "type": "function"
    },
    {
      "inputs": [
        {
          "internalType": "address",
          "name": "to",
          "type": "address"
        },
        {
          "internalType": "uint256",
          "name": "tokenId",
          "type": "uint256"
        }
      ],
      "name": "approve",
      "outputs": [],
      "stateMutability": "nonpayable",
      "type": "function"
    },
    {
      "inputs": [],
      "name": "avgBlockTime",
      "outputs": [
        {
          "internalType": "uint8",
          "name": "",
          "type": "uint8"
        }
      ],
      "stateMutability": "view",
      "type": "function"
    },
    {
      "inputs": [
        {
          "internalType": "address",
          "name": "owner",
          "type": "address"
        }
      ],
      "name": "balanceOf",
      "outputs": [
        {
          "internalType": "uint256",
          "name": "",
          "type": "uint256"
        }
      ],
      "stateMutability": "view",
      "type": "function"
    },
    {
      "inputs": [],
      "name": "baseURI",
      "outputs": [
        {
          "internalType": "string",
          "name": "",
          "type": "string"
        }
      ],
      "stateMutability": "view",
      "type": "function"
    },
    {
      "inputs": [],
      "name": "blockStart",
      "outputs": [
        {
          "internalType": "uint256",
          "name": "",
          "type": "uint256"
        }
      ],
      "stateMutability": "view",
      "type": "function"
    },
    {
      "inputs": [
        {
          "internalType": "uint256",
          "name": "id",
          "type": "uint256"
        },
        {
          "internalType": "uint8[3]",
          "name": "settings",
          "type": "uint8[3]"
        }
      ],
      "name": "changeSettings",
      "outputs": [],
      "stateMutability": "nonpayable",
      "type": "function"
    },
    {
      "inputs": [],
      "name": "contractURI",
      "outputs": [
        {
          "internalType": "string",
          "name": "",
          "type": "string"
        }
      ],
      "stateMutability": "view",
      "type": "function"
    },
    {
      "inputs": [
        {
          "internalType": "string",
          "name": "_seed",
          "type": "string"
        },
        {
          "internalType": "uint8",
          "name": "shapes",
          "type": "uint8"
        },
        {
          "internalType": "uint8",
          "name": "hatching",
          "type": "uint8"
        },
        {
          "internalType": "uint16[3]",
          "name": "color",
          "type": "uint16[3]"
        },
        {
          "internalType": "uint8[4]",
          "name": "size",
          "type": "uint8[4]"
        },
        {
          "internalType": "uint8[2]",
          "name": "spacing",
          "type": "uint8[2]"
        },
        {
          "internalType": "uint8",
          "name": "mirroring",
          "type": "uint8"
        },
        {
          "internalType": "address",
          "name": "recipient",
          "type": "address"
        },
        {
          "internalType": "uint256",
          "name": "referalID",
          "type": "uint256"
        }
      ],
      "name": "create",
      "outputs": [
        {
          "internalType": "uint256",
          "name": "",
          "type": "uint256"
        }
      ],
      "stateMutability": "payable",
      "type": "function"
    },
    {
      "inputs": [
        {
          "internalType": "uint128",
          "name": "seed",
          "type": "uint128"
        },
        {
          "internalType": "uint8",
          "name": "shapes",
          "type": "uint8"
        },
        {
          "internalType": "uint8",
          "name": "hatching",
          "type": "uint8"
        },
        {
          "internalType": "uint16[3]",
          "name": "color",
          "type": "uint16[3]"
        },
        {
          "internalType": "uint8[4]",
          "name": "size",
          "type": "uint8[4]"
        },
        {
          "internalType": "uint8[2]",
          "name": "spacing",
          "type": "uint8[2]"
        },
        {
          "internalType": "uint8",
          "name": "mirroring",
          "type": "uint8"
        },
        {
          "internalType": "uint256",
          "name": "id",
          "type": "uint256"
        }
      ],
      "name": "createLimitedEdition",
      "outputs": [],
      "stateMutability": "nonpayable",
      "type": "function"
    },
    {
      "inputs": [],
      "name": "currentPhase",
      "outputs": [
        {
          "internalType": "uint8",
          "name": "",
          "type": "uint8"
        }
      ],
      "stateMutability": "view",
      "type": "function"
    },
    {
      "inputs": [
        {
          "internalType": "uint256",
          "name": "tokenId",
          "type": "uint256"
        }
      ],
      "name": "getApproved",
      "outputs": [
        {
          "internalType": "address",
          "name": "",
          "type": "address"
        }
      ],
      "stateMutability": "view",
      "type": "function"
    },
    {
      "inputs": [
        {
          "internalType": "bytes32",
          "name": "role",
          "type": "bytes32"
        }
      ],
      "name": "getRoleAdmin",
      "outputs": [
        {
          "internalType": "bytes32",
          "name": "",
          "type": "bytes32"
        }
      ],
      "stateMutability": "view",
      "type": "function"
    },
    {
      "inputs": [
        {
          "internalType": "bytes32",
          "name": "role",
          "type": "bytes32"
        },
        {
          "internalType": "uint256",
          "name": "index",
          "type": "uint256"
        }
      ],
      "name": "getRoleMember",
      "outputs": [
        {
          "internalType": "address",
          "name": "",
          "type": "address"
        }
      ],
      "stateMutability": "view",
      "type": "function"
    },
    {
      "inputs": [
        {
          "internalType": "bytes32",
          "name": "role",
          "type": "bytes32"
        }
      ],
      "name": "getRoleMemberCount",
      "outputs": [
        {
          "internalType": "uint256",
          "name": "",
          "type": "uint256"
        }
      ],
      "stateMutability": "view",
      "type": "function"
    },
    {
      "inputs": [
        {
          "internalType": "bytes32",
          "name": "role",
          "type": "bytes32"
        },
        {
          "internalType": "address",
          "name": "account",
          "type": "address"
        }
      ],
      "name": "grantRole",
      "outputs": [],
      "stateMutability": "nonpayable",
      "type": "function"
    },
    {
      "inputs": [
        {
          "internalType": "bytes32",
          "name": "role",
          "type": "bytes32"
        },
        {
          "internalType": "address",
          "name": "account",
          "type": "address"
        }
      ],
      "name": "hasRole",
      "outputs": [
        {
          "internalType": "bool",
          "name": "",
          "type": "bool"
        }
      ],
      "stateMutability": "view",
      "type": "function"
    },
    {
      "inputs": [
        {
          "internalType": "address",
          "name": "owner",
          "type": "address"
        },
        {
          "internalType": "address",
          "name": "operator",
          "type": "address"
        }
      ],
      "name": "isApprovedForAll",
      "outputs": [
        {
          "internalType": "bool",
          "name": "",
          "type": "bool"
        }
      ],
      "stateMutability": "view",
      "type": "function"
    },
    {
      "inputs": [
        {
          "internalType": "address",
          "name": "recipient",
          "type": "address"
        }
      ],
      "name": "mintPromo",
      "outputs": [],
      "stateMutability": "nonpayable",
      "type": "function"
    },
    {
      "inputs": [],
      "name": "name",
      "outputs": [
        {
          "internalType": "string",
          "name": "",
          "type": "string"
        }
      ],
      "stateMutability": "view",
      "type": "function"
    },
    {
      "inputs": [
        {
          "internalType": "uint256",
          "name": "tokenId",
          "type": "uint256"
        }
      ],
      "name": "ownerOf",
      "outputs": [
        {
          "internalType": "address",
          "name": "",
          "type": "address"
        }
      ],
      "stateMutability": "view",
      "type": "function"
    },
    {
      "inputs": [],
      "name": "paused",
      "outputs": [
        {
          "internalType": "bool",
          "name": "",
          "type": "bool"
        }
      ],
      "stateMutability": "view",
      "type": "function"
    },
    {
      "inputs": [],
      "name": "phaseCountdown",
      "outputs": [
        {
          "internalType": "uint256",
          "name": "",
          "type": "uint256"
        }
      ],
      "stateMutability": "view",
      "type": "function"
    },
    {
      "inputs": [],
      "name": "phaseCountdownTime",
      "outputs": [
        {
          "internalType": "uint32",
          "name": "",
          "type": "uint32"
        }
      ],
      "stateMutability": "view",
      "type": "function"
    },
    {
      "inputs": [],
      "name": "phaseLen",
      "outputs": [
        {
          "internalType": "uint16",
          "name": "",
          "type": "uint16"
        }
      ],
      "stateMutability": "view",
      "type": "function"
    },
    {
      "inputs": [],
      "name": "price",
      "outputs": [
        {
          "internalType": "uint256",
          "name": "",
          "type": "uint256"
        }
      ],
      "stateMutability": "view",
      "type": "function"
    },
    {
      "inputs": [
        {
          "internalType": "uint256",
          "name": "id",
          "type": "uint256"
        }
      ],
      "name": "readSettings",
      "outputs": [
        {
          "internalType": "uint8",
          "name": "bkg",
          "type": "uint8"
        },
        {
          "internalType": "uint8",
          "name": "duration",
          "type": "uint8"
        },
        {
          "internalType": "uint8",
          "name": "options",
          "type": "uint8"
        }
      ],
      "stateMutability": "view",
      "type": "function"
    },
    {
      "inputs": [],
      "name": "referalNewPercent",
      "outputs": [
        {
          "internalType": "uint256",
          "name": "",
          "type": "uint256"
        }
      ],
      "stateMutability": "view",
      "type": "function"
    },
    {
      "inputs": [],
      "name": "referalPercent",
      "outputs": [
        {
          "internalType": "uint256",
          "name": "",
          "type": "uint256"
        }
      ],
      "stateMutability": "view",
      "type": "function"
    },
    {
      "inputs": [
        {
          "internalType": "bytes32",
          "name": "role",
          "type": "bytes32"
        },
        {
          "internalType": "address",
          "name": "account",
          "type": "address"
        }
      ],
      "name": "renounceRole",
      "outputs": [],
      "stateMutability": "nonpayable",
      "type": "function"
    },
    {
      "inputs": [
        {
          "internalType": "bytes32",
          "name": "role",
          "type": "bytes32"
        },
        {
          "internalType": "address",
          "name": "account",
          "type": "address"
        }
      ],
      "name": "revokeRole",
      "outputs": [],
      "stateMutability": "nonpayable",
      "type": "function"
    },
    {
      "inputs": [
        {
          "internalType": "address",
          "name": "from",
          "type": "address"
        },
        {
          "internalType": "address",
          "name": "to",
          "type": "address"
        },
        {
          "internalType": "uint256",
          "name": "tokenId",
          "type": "uint256"
        }
      ],
      "name": "safeTransferFrom",
      "outputs": [],
      "stateMutability": "nonpayable",
      "type": "function"
    },
    {
      "inputs": [
        {
          "internalType": "address",
          "name": "from",
          "type": "address"
        },
        {
          "internalType": "address",
          "name": "to",
          "type": "address"
        },
        {
          "internalType": "uint256",
          "name": "tokenId",
          "type": "uint256"
        },
        {
          "internalType": "bytes",
          "name": "_data",
          "type": "bytes"
        }
      ],
      "name": "safeTransferFrom",
      "outputs": [],
      "stateMutability": "nonpayable",
      "type": "function"
    },
    {
      "inputs": [
        {
          "internalType": "address",
          "name": "operator",
          "type": "address"
        },
        {
          "internalType": "bool",
          "name": "approved",
          "type": "bool"
        }
      ],
      "name": "setApprovalForAll",
      "outputs": [],
      "stateMutability": "nonpayable",
      "type": "function"
    },
    {
      "inputs": [
        {
          "internalType": "string",
          "name": "_uri",
          "type": "string"
        }
      ],
      "name": "setBaseURI",
      "outputs": [],
      "stateMutability": "nonpayable",
      "type": "function"
    },
    {
      "inputs": [
        {
          "internalType": "string",
          "name": "_uri",
          "type": "string"
        }
      ],
      "name": "setContractURI",
      "outputs": [],
      "stateMutability": "nonpayable",
      "type": "function"
    },
    {
      "inputs": [
        {
          "internalType": "bool",
          "name": "state",
          "type": "bool"
        }
      ],
      "name": "setPause",
      "outputs": [],
      "stateMutability": "nonpayable",
      "type": "function"
    },
    {
      "inputs": [
        {
          "internalType": "address",
          "name": "rand",
          "type": "address"
        }
      ],
      "name": "setRandom",
      "outputs": [],
      "stateMutability": "nonpayable",
      "type": "function"
    },
    {
      "inputs": [
        {
          "internalType": "uint256",
          "name": "_id",
          "type": "uint256"
        },
        {
          "internalType": "string",
          "name": "_uri",
          "type": "string"
        }
      ],
      "name": "setTokenURI",
      "outputs": [],
      "stateMutability": "nonpayable",
      "type": "function"
    },
    {
      "inputs": [
        {
          "internalType": "uint256",
          "name": "startBlock",
          "type": "uint256"
        }
      ],
      "name": "startCoundown",
      "outputs": [],
      "stateMutability": "nonpayable",
      "type": "function"
    },
    {
      "inputs": [
        {
          "internalType": "bytes4",
          "name": "interfaceId",
          "type": "bytes4"
        }
      ],
      "name": "supportsInterface",
      "outputs": [
        {
          "internalType": "bool",
          "name": "",
          "type": "bool"
        }
      ],
      "stateMutability": "view",
      "type": "function"
    },
    {
      "inputs": [],
      "name": "symbol",
      "outputs": [
        {
          "internalType": "string",
          "name": "",
          "type": "string"
        }
      ],
      "stateMutability": "view",
      "type": "function"
    },
    {
      "inputs": [],
      "name": "testRandom",
      "outputs": [
        {
          "internalType": "bytes32",
          "name": "",
          "type": "bytes32"
        }
      ],
      "stateMutability": "view",
      "type": "function"
    },
    {
      "inputs": [
        {
          "internalType": "uint256",
          "name": "_id",
          "type": "uint256"
        },
        {
          "internalType": "uint8",
          "name": "bkg",
          "type": "uint8"
        },
        {
          "internalType": "uint8",
          "name": "duration",
          "type": "uint8"
        },
        {
          "internalType": "uint8",
          "name": "options",
          "type": "uint8"
        },
        {
          "internalType": "string",
          "name": "slot",
          "type": "string"
        }
      ],
      "name": "tokenArt",
      "outputs": [
        {
          "internalType": "string",
          "name": "",
          "type": "string"
        }
      ],
      "stateMutability": "view",
      "type": "function"
    },
    {
      "inputs": [
        {
          "internalType": "uint256",
          "name": "_id",
          "type": "uint256"
        }
      ],
      "name": "tokenArt",
      "outputs": [
        {
          "internalType": "string",
          "name": "",
          "type": "string"
        }
      ],
      "stateMutability": "view",
      "type": "function"
    },
    {
      "inputs": [
        {
          "internalType": "uint256",
          "name": "index",
          "type": "uint256"
        }
      ],
      "name": "tokenByIndex",
      "outputs": [
        {
          "internalType": "uint256",
          "name": "",
          "type": "uint256"
        }
      ],
      "stateMutability": "view",
      "type": "function"
    },
    {
      "inputs": [
        {
          "internalType": "uint256",
          "name": "_id",
          "type": "uint256"
        }
      ],
      "name": "tokenData",
      "outputs": [
        {
          "internalType": "uint128",
          "name": "randomness",
          "type": "uint128"
        },
        {
          "internalType": "uint256",
          "name": "animation",
          "type": "uint256"
        },
        {
          "internalType": "uint8",
          "name": "shapes",
          "type": "uint8"
        },
        {
          "internalType": "uint8",
          "name": "hatching",
          "type": "uint8"
        },
        {
          "internalType": "uint8[4]",
          "name": "size",
          "type": "uint8[4]"
        },
        {
          "internalType": "uint8[2]",
          "name": "spacing",
          "type": "uint8[2]"
        },
        {
          "internalType": "uint8",
          "name": "mirroring",
          "type": "uint8"
        },
        {
          "internalType": "uint16[3]",
          "name": "color",
          "type": "uint16[3]"
        },
        {
          "internalType": "uint8",
          "name": "contrast",
          "type": "uint8"
        },
        {
          "internalType": "uint8",
          "name": "shades",
          "type": "uint8"
        },
        {
          "internalType": "uint8",
          "name": "scheme",
          "type": "uint8"
        }
      ],
      "stateMutability": "view",
      "type": "function"
    },
    {
      "inputs": [
        {
          "internalType": "address",
          "name": "owner",
          "type": "address"
        },
        {
          "internalType": "uint256",
          "name": "index",
          "type": "uint256"
        }
      ],
      "name": "tokenOfOwnerByIndex",
      "outputs": [
        {
          "internalType": "uint256",
          "name": "",
          "type": "uint256"
        }
      ],
      "stateMutability": "view",
      "type": "function"
    },
    {
      "inputs": [
        {
          "internalType": "string",
          "name": "seed",
          "type": "string"
        },
        {
          "internalType": "uint16[3]",
          "name": "color",
          "type": "uint16[3]"
        },
        {
          "internalType": "uint8[2]",
          "name": "shapes",
          "type": "uint8[2]"
        },
        {
          "internalType": "uint8[4]",
          "name": "size",
          "type": "uint8[4]"
        },
        {
          "internalType": "uint8[2]",
          "name": "spacing",
          "type": "uint8[2]"
        },
        {
          "internalType": "uint8",
          "name": "mirroring",
          "type": "uint8"
        },
        {
          "internalType": "uint8[3]",
          "name": "settings",
          "type": "uint8[3]"
        },
        {
          "internalType": "uint8[4]",
          "name": "traits",
          "type": "uint8[4]"
        },
        {
          "internalType": "string",
          "name": "slot",
          "type": "string"
        }
      ],
      "name": "tokenPreview",
      "outputs": [
        {
          "internalType": "string",
          "name": "",
          "type": "string"
        }
      ],
      "stateMutability": "view",
      "type": "function"
    },
    {
      "inputs": [
        {
          "internalType": "uint256",
          "name": "tokenId",
          "type": "uint256"
        }
      ],
      "name": "tokenURI",
      "outputs": [
        {
          "internalType": "string",
          "name": "",
          "type": "string"
        }
      ],
      "stateMutability": "view",
      "type": "function"
    },
    {
      "inputs": [],
      "name": "totalSupply",
      "outputs": [
        {
          "internalType": "uint256",
          "name": "",
          "type": "uint256"
        }
      ],
      "stateMutability": "view",
      "type": "function"
    },
    {
      "inputs": [
        {
          "internalType": "address",
          "name": "from",
          "type": "address"
        },
        {
          "internalType": "address",
          "name": "to",
          "type": "address"
        },
        {
          "internalType": "uint256",
          "name": "tokenId",
          "type": "uint256"
        }
      ],
      "name": "transferFrom",
      "outputs": [],
      "stateMutability": "nonpayable",
      "type": "function"
    },
    {
      "inputs": [
        {
          "internalType": "uint256",
          "name": "id",
          "type": "uint256"
        }
      ],
      "name": "trueID",
      "outputs": [
        {
          "internalType": "int8",
          "name": "",
          "type": "int8"
        }
      ],
      "stateMutability": "pure",
      "type": "function"
    },
    {
      "inputs": [
        {
          "internalType": "uint8",
          "name": "shapes",
          "type": "uint8"
        },
        {
          "internalType": "uint8",
          "name": "hatching",
          "type": "uint8"
        },
        {
          "internalType": "uint16[3]",
          "name": "color",
          "type": "uint16[3]"
        },
        {
          "internalType": "uint8[4]",
          "name": "size",
          "type": "uint8[4]"
        },
        {
          "internalType": "uint8[2]",
          "name": "position",
          "type": "uint8[2]"
        },
        {
          "internalType": "bool",
          "name": "exclusive",
          "type": "bool"
        }
      ],
      "name": "validateParams",
      "outputs": [],
      "stateMutability": "pure",
      "type": "function"
    },
    {
      "stateMutability": "payable",
      "type": "receive"
    }
  ],
  "bytecode": "0x6080604052600d8054600160a01b60ff60a01b19909116179055620000336078600f62000237602090811b62002cdf17901c565b600f556040518060600160405280602b8152602001620063ed602b91398051620000669160109160209091019062000452565b506001601255600a601355600f6014556000196015556064601655601780546001600160a01b0319908116737a832c86002323a5de3a317b3281eb88ec3b2c0017909155601880549091167363a9dbce75413036b2b778e670aabd4493aaf9f3179055348015620000d657600080fd5b506040516200641838038062006418833981016040819052620000f991620004f4565b81806040518060400160405280600981526020016854696e79426f78657360b81b815250604051806040016040528060068152602001655b235d5b235d60d01b815250620001546301ffc9a760e01b6200028a60201b60201c565b81516200016990600690602085019062000452565b5080516200017f90600790602084019062000452565b506200019b6380ac58cd60e01b6001600160e01b036200028a16565b620001b6635b5e139f60e01b6001600160e01b036200028a16565b620001d163780e9d6360e01b6001600160e01b036200028a16565b5050620001fe604051620001e59062000532565b604051908190039020336001600160e01b03620002e516565b600d80546001600160a01b039283166001600160a01b031991821617909155601980549490921693169290921790915550620005ee9050565b60006200028183836040518060400160405280601a81526020017f536166654d6174683a206469766973696f6e206279207a65726f000000000000815250620002fe60201b60201c565b90505b92915050565b6001600160e01b03198082161415620002c05760405162461bcd60e51b8152600401620002b7906200059e565b60405180910390fd5b6001600160e01b0319166000908152602081905260409020805460ff19166001179055565b620002fa82826001600160e01b036200033916565b5050565b60008183620003225760405162461bcd60e51b8152600401620002b7919062000548565b5060008385816200032f57fe5b0495945050505050565b6000828152600a602090815260409091206200036091839062002d21620003bd821b17901c565b15620002fa57620003796001600160e01b03620003dd16565b6001600160a01b0316816001600160a01b0316837f2f8788117e7eff1d82e926ec794901d17c78024a50270940304540a733656f0d60405160405180910390a45050565b600062000281836001600160a01b0384166001600160e01b03620003e216565b335b90565b6000620003f983836001600160e01b036200043a16565b620004315750815460018181018455600084815260208082209093018490558454848252828601909352604090209190915562000284565b50600062000284565b60009081526001919091016020526040902054151590565b828054600181600116156101000203166002900490600052602060002090601f016020900481019282601f106200049557805160ff1916838001178555620004c5565b82800160010185558215620004c5579182015b82811115620004c5578251825591602001919060010190620004a8565b50620004d3929150620004d7565b5090565b620003df91905b80821115620004d35760008155600101620004de565b6000806040838503121562000507578182fd5b82516200051481620005d5565b60208401519092506200052781620005d5565b809150509250929050565b6941444d494e5f524f4c4560b01b8152600a0190565b6000602080835283518082850152825b81811015620005765785810183015185820160400152820162000558565b81811115620005885783604083870101525b50601f01601f1916929092016040019392505050565b6020808252601c908201527f4552433136353a20696e76616c696420696e7465726661636520696400000000604082015260600190565b6001600160a01b0381168114620005eb57600080fd5b50565b615def80620005fe6000396000f3fe6080604052600436106103855760003560e01c80637def753d116101d1578063b88d4fde11610102578063e8a3d485116100a0578063f7eaec7d1161006f578063f7eaec7d14610a11578063fbddd14b14610a26578063fc4ea93914610a3b578063fd05dd6a14610a5057610395565b8063e8a3d485146109b2578063e985e9c5146109c7578063f19e1486146109e7578063f1d77baf146109fc57610395565b8063ca15c873116100dc578063ca15c87314610932578063ca9c0bad14610952578063d547741f14610972578063dbde52221461099257610395565b8063b88d4fde146108d2578063bedb86fb146108f2578063c87b56dd1461091257610395565b8063990cec831161016f578063a22cb46511610149578063a22cb46514610846578063a2a87ffb14610866578063b3174fa114610886578063b4b5b48f1461089b57610395565b8063990cec8314610809578063a035b1fe1461081c578063a217fddf1461083157610395565b806391d14854116101ab57806391d1485414610785578063938e3d7b146107a5578063947e93d9146107c557806395d89b41146107f457610395565b80637def753d14610725578063824cac1a146107455780639010d07c1461076557610395565b806333618273116102b657806355f804b31161025457806370a082311161022357806370a08231146106c657806371a0a016146106e657806375b238fc146106fb5780637b2feaaa1461071057610395565b806355f804b31461065c5780635c975abb1461067c5780636352211e146106915780636c0360eb146106b157610395565b806342842e0e1161029057806342842e0e146105da57806345de6305146105fa5780634f6ccce71461061a578063524101971461063a57610395565b8063336182731461057a57806336568abe1461059a5780633c564cab146105ba57610395565b8063162094c41161032357806323b872dd116102fd57806323b872dd146104fa578063248a9ca31461051a5780632f2ff15d1461053a5780632f745c591461055a57610395565b8063162094c41461049857806318160ddd146104b85780631dd68782146104da57610395565b806306fdde031161035f57806306fdde0314610414578063081812fc14610436578063095ea7b3146104635780630e1b9b0e1461048357610395565b806301ffc9a71461039a578063031bd4c4146103d0578063055ad42e146103f257610395565b366103955761039334610a7d565b005b600080fd5b3480156103a657600080fd5b506103ba6103b5366004614794565b610b30565b6040516103c79190614fff565b60405180910390f35b3480156103dc57600080fd5b506103e5610b53565b6040516103c79190615c54565b3480156103fe57600080fd5b50610407610b58565b6040516103c79190615c74565b34801561042057600080fd5b50610429610b6f565b6040516103c79190615018565b34801561044257600080fd5b50610456610451366004614714565b610c05565b6040516103c79190614fae565b34801561046f57600080fd5b5061039361047e3660046146ca565b610c51565b34801561048f57600080fd5b50610407610ce4565b3480156104a457600080fd5b506103936104b3366004614b28565b610ce9565b3480156104c457600080fd5b506104cd610d45565b6040516103c79190614ece565b3480156104e657600080fd5b506104296104f5366004614b72565b610d51565b34801561050657600080fd5b506103936105153660046145b6565b610eff565b34801561052657600080fd5b506104cd610535366004614714565b610f37565b34801561054657600080fd5b50610393610555366004614744565b610f4c565b34801561056657600080fd5b506104cd6105753660046146ca565b610f94565b34801561058657600080fd5b50610393610595366004614714565b610fc5565b3480156105a657600080fd5b506103936105b5366004614744565b611005565b3480156105c657600080fd5b506103936105d5366004614b05565b611047565b3480156105e657600080fd5b506103936105f53660046145b6565b6111c7565b34801561060657600080fd5b5061042961061536600461480c565b6111e2565b34801561062657600080fd5b506104cd610635366004614714565b611513565b34801561064657600080fd5b5061064f61152f565b6040516103c79190615c63565b34801561066857600080fd5b506103936106773660046147cc565b611534565b34801561068857600080fd5b506103ba611582565b34801561069d57600080fd5b506104566106ac366004614714565b611592565b3480156106bd57600080fd5b506104296115c0565b3480156106d257600080fd5b506104cd6106e1366004614567565b611621565b3480156106f257600080fd5b5061040761166a565b34801561070757600080fd5b506104cd61166f565b34801561071c57600080fd5b506104cd611686565b34801561073157600080fd5b50610393610740366004614567565b61168c565b34801561075157600080fd5b50610393610760366004614a3e565b6116eb565b34801561077157600080fd5b50610456610780366004614773565b611b8b565b34801561079157600080fd5b506103ba6107a0366004614744565b611ba9565b3480156107b157600080fd5b506103936107c03660046147cc565b611bc7565b3480156107d157600080fd5b506107e56107e0366004614714565b611be2565b6040516103c793929190615c82565b34801561080057600080fd5b50610429611d0e565b6104cd6108173660046148fd565b611d6f565b34801561082857600080fd5b506104cd6122ae565b34801561083d57600080fd5b506104cd6122b4565b34801561085257600080fd5b5061039361086136600461469f565b6122b9565b34801561087257600080fd5b50610429610881366004614714565b612387565b34801561089257600080fd5b506103e561253f565b3480156108a757600080fd5b506108bb6108b6366004614714565b612544565b6040516103c79b9a99989796959493929190615b95565b3480156108de57600080fd5b506103936108ed3660046145f6565b6127a5565b3480156108fe57600080fd5b5061039361090d3660046146f4565b6127e4565b34801561091e57600080fd5b5061042961092d366004614714565b612811565b34801561093e57600080fd5b506104cd61094d366004614714565b61295b565b34801561095e57600080fd5b5061039361096d366004614567565b612972565b34801561097e57600080fd5b5061039361098d366004614744565b6129a3565b34801561099e57600080fd5b506103936109ad366004614c0d565b6129dd565b3480156109be57600080fd5b50610429612b75565b3480156109d357600080fd5b506103ba6109e2366004614582565b612c03565b3480156109f357600080fd5b50610407612c31565b348015610a0857600080fd5b506104cd612c36565b348015610a1d57600080fd5b506104cd612c3c565b348015610a3257600080fd5b506104cd612c42565b348015610a4757600080fd5b506104cd612cd9565b348015610a5c57600080fd5b50610a70610a6b366004614714565b610b6c565b6040516103c7919061500a565b8015610b2d576000610aa76064610a9b84603c63ffffffff612d3616565b9063ffffffff612cdf16565b6017546040519192506001600160a01b03169082156108fc029083906000818181858888f19350505050158015610ae2573d6000803e3d6000fd5b506018546001600160a01b03166108fc610b02848463ffffffff612d7016565b6040518115909202916000818181858888f19350505050158015610b2a573d6000803e3d6000fd5b50505b50565b6001600160e01b0319811660009081526020819052604090205460ff165b919050565b606e81565b6000610b69600a610a9b600b612db2565b90505b90565b60068054604080516020601f6002600019610100600188161502019095169490940493840181900481028201810190925282815260609390929091830182828015610bfb5780601f10610bd057610100808354040283529160200191610bfb565b820191906000526020600020905b815481529060010190602001808311610bde57829003601f168201915b5050505050905090565b6000610c1082612db6565b610c355760405162461bcd60e51b8152600401610c2c906155c2565b60405180910390fd5b506000908152600460205260409020546001600160a01b031690565b6000610c5c82611592565b9050806001600160a01b0316836001600160a01b03161415610c905760405162461bcd60e51b8152600401610c2c90615775565b806001600160a01b0316610ca2612dc9565b6001600160a01b03161480610cbe5750610cbe816109e2612dc9565b610cda5760405162461bcd60e51b8152600401610c2c9061540a565b610b2a8383612dcd565b601881565b610d05604051610cf890614f98565b6040518091039020612e3b565b610b2a8383838080601f016020809104026020016040519081016040528093929190818152602001838380828437600092019190915250612e6192505050565b6000610b696002612ea5565b6060610d5b6141bd565b5060008781526011602090815260409182902082516102008101845290546001600160801b038116825261ffff600160801b8204169282019290925260ff600160901b8304811693820193909352600160981b820483166060820152600160a01b820483166080820152600160a81b8204831660a0820152600160b01b8204831660c0820152600160b81b8204831660e0820152600160c01b82048316610100820152600160c81b82048316610120820152600160d01b82048316610140820152600160d81b82048316610160820152600160e01b90910482166101808201528782166101a08201528582166101e08201529086166101c08201526019546001600160a01b03166301a28c5f828a610e7281611592565b610e7c868e612eb0565b89896040518763ffffffff1660e01b8152600401610e9f96959493929190615b00565b60006040518083038186803b158015610eb757600080fd5b505afa158015610ecb573d6000803e3d6000fd5b505050506040513d6000823e601f3d908101601f19168201604052610ef391908101906149c8565b98975050505050505050565b610f10610f0a612dc9565b826130bd565b610f2c5760405162461bcd60e51b8152600401610c2c906157b6565b610b2a838383613142565b6000908152600a602052604090206002015490565b6000828152600a6020526040902060020154610f6a906107a0612dc9565b610f865760405162461bcd60e51b8152600401610c2c9061506d565b610f908282613262565b5050565b6001600160a01b0382166000908152600160205260408120610fbc908363ffffffff6132d116565b90505b92915050565b610fd4604051610cf890614f98565b438111610ff35760405162461bcd60e51b8152600401610c2c906158a2565b600e55600d805460ff60a01b19169055565b61100d612dc9565b6001600160a01b0316816001600160a01b03161461103d5760405162461bcd60e51b8152600401610c2c906159dc565b610f9082826132dd565b61105082611592565b6001600160a01b0316336001600160a01b03161480611088575061107382610c05565b6001600160a01b0316336001600160a01b0316145b6110a45760405162461bcd60e51b8152600401610c2c906154b1565b60656110b36020830183614bf2565b60ff1611156110d45760405162461bcd60e51b8152600401610c2c90615349565b60006110e66040830160208401614bf2565b60ff16116111065760405162461bcd60e51b8152600401610c2c9061571f565b6111136020820182614bf2565b6000838152601160205260409020805460ff92909216600160e81b0260ff60e81b199092169190911790558060016020020160208101906111549190614bf2565b6000838152601160205260409020805460ff92909216600160f01b0260ff60f01b199092169190911790558060026020020160208101906111959190614bf2565b600092835260116020526040909220805460ff93909316600160f81b026001600160f81b039093169290921790915550565b610b2a838383604051806020016040528060008152506127a5565b606060656111f36020870187614bf2565b60ff1611156112145760405162461bcd60e51b8152600401610c2c906158fe565b6112a961122460208b018b614bf2565b61123460408c0160208d01614bf2565b604080516060818101909252908e9060039083908390808284376000920191909152505060408051608081810190925291508d9060049083908390808284376000920191909152505060408051808201825291508d906002908390839080828437600092019190915250600191506129dd9050565b6112b16141bd565b6040518061020001604052806112fc8f8f8080601f01602080910402602001604051908101604052809392919081815260200183838082843760009201919091525061334c92505050565b6001600160801b03168152602090810190611319908e018e614ae3565b61ffff1681526020908101906113359060408f01908f01614ae3565b60ff16815260200161134d60608e0160408f01614ae3565b60ff168152602090810190611364908d018d614bf2565b60ff16815260209081019061137f9060408e01908e01614bf2565b60ff168152602090810190611396908c018c614bf2565b60ff1681526020908101906113b19060408d01908d01614bf2565b60ff1681526020016113c960608c0160408d01614bf2565b60ff1681526020016113e160808c0160608d01614bf2565b60ff1681526020908101906113f8908b018b614bf2565b60ff1681526020908101906114139060408c01908c01614bf2565b60ff90811682528916602082015260400187600060200201602081019061143a9190614bf2565b60ff1681526020908101906114559060408a01908a01614bf2565b60ff16815260200161146d6060890160408a01614bf2565b60ff1690526019546040516301a28c5f60e01b81529192506001600160a01b0316906301a28c5f906114ae90849060009081908b908b908b90600401615a83565b60006040518083038186803b1580156114c657600080fd5b505afa1580156114da573d6000803e3d6000fd5b505050506040513d6000823e601f3d908101601f1916820160405261150291908101906149c8565b9d9c50505050505050505050505050565b60008061152760028463ffffffff6133a516565b509392505050565b607881565b611543604051610cf890614f98565b610f9082828080601f0160208091040260200160405190810160405280939291908181526020018383808284376000920191909152506133c392505050565b600d54600160a01b900460ff1681565b6000610fbf82604051806060016040528060298152602001615d91602991396002919063ffffffff6133d616565b60098054604080516020601f6002600019610100600188161502019095169490940493840181900481028201810190925282815260609390929091830182828015610bfb5780601f10610bd057610100808354040283529160200191610bfb565b60006001600160a01b0382166116495760405162461bcd60e51b8152600401610c2c90615467565b6001600160a01b0382166000908152600160205260409020610fbf90612ea5565b600b81565b60405161167b90614f98565b604051809103902081565b600e5481565b61169b604051610cf890614f98565b6016546116a8600c612db2565b106116c55760405162461bcd60e51b8152600401610c2c906150fa565b60006116d1600c612db2565b6015540390506116e182826133e3565b610f90600c6133fd565b6116f3613406565b336116fd82611592565b6001600160a01b0316146117235760405162461bcd60e51b8152600401610c2c90615884565b600081815260116020526040902054600160a01b900460ff16156117595760405162461bcd60e51b8152600401610c2c90615866565b6117d787878760038060200260405190810160405280929190826003602002808284376000920191909152505060408051608081810190925291508990600490839083908082843760009201919091525050604080518082018252915089906002908390839080828437600092019190915250600191506129dd9050565b6040805161020081019091526001600160801b038916815260208082019061180190880188614ae3565b61ffff16815260209081019061181d9060408901908901614ae3565b60ff1681526020016118356060880160408901614ae3565b60ff90811682528981166020830152881660408201526060018560006020020160208101906118649190614bf2565b60ff16815260209081019061187f9060408801908801614bf2565b60ff1681526020016118976060870160408801614bf2565b60ff1681526020016118af6080870160608801614bf2565b60ff1681526020908101906118c690860186614bf2565b60ff1681526020908101906118e19060408701908701614bf2565b60ff1681526020018360ff168152602001600060ff168152602001600a60ff168152602001600160ff168152506011600083815260200190815260200160002060008201518160000160006101000a8154816001600160801b0302191690836001600160801b0316021790555060208201518160000160106101000a81548161ffff021916908361ffff16021790555060408201518160000160126101000a81548160ff021916908360ff16021790555060608201518160000160136101000a81548160ff021916908360ff16021790555060808201518160000160146101000a81548160ff021916908360ff16021790555060a08201518160000160156101000a81548160ff021916908360ff16021790555060c08201518160000160166101000a81548160ff021916908360ff16021790555060e08201518160000160176101000a81548160ff021916908360ff1602179055506101008201518160000160186101000a81548160ff021916908360ff1602179055506101208201518160000160196101000a81548160ff021916908360ff16021790555061014082015181600001601a6101000a81548160ff021916908360ff16021790555061016082015181600001601b6101000a81548160ff021916908360ff16021790555061018082015181600001601c6101000a81548160ff021916908360ff1602179055506101a082015181600001601d6101000a81548160ff021916908360ff1602179055506101c082015181600001601e6101000a81548160ff021916908360ff1602179055506101e082015181600001601f6101000a81548160ff021916908360ff1602179055509050507feaa4f184b7f3d10bde81fc2d884889a91fbadf176d0ecc02895ab30b5aba08ef81604051611b799190614ece565b60405180910390a15050505050505050565b6000828152600a60205260408120610fbc908363ffffffff6132d116565b6000828152600a60205260408120610fbc908363ffffffff61343216565b611bd6604051610cf890614f98565b610b2a60108383614241565b6000806000611bef6141bd565b5050506000918252506011602090815260409182902082516102008101845290546001600160801b038116825261ffff600160801b8204169282019290925260ff600160901b8304811693820193909352600160981b820483166060820152600160a01b820483166080820152600160a81b8204831660a0820152600160b01b8204831660c0820152600160b81b8204831660e0820152600160c01b82048316610100820152600160c81b82048316610120820152600160d01b82048316610140820152600160d81b82048316610160820152600160e01b82048316610180820152600160e81b820483166101a08201819052600160f01b830484166101c08301819052600160f81b9093049093166101e09091018190529192909190565b60078054604080516020601f6002600019610100600188161502019095169490940493840181900481028201810190925282815260609390929091830182828015610bfb5780601f10610bd057610100808354040283529160200191610bfb565b6000611d79613447565b611d81613406565b611d89613470565b611d938284613492565b611e0e89898960038060200260405190810160405280929190826003602002808284376000920191909152505060408051608081810190925291508b9060049083908390808284376000920191909152505060408051808201825291508b906002908390839080828437600092018290525091506129dd9050565b6001600160a01b038316611e345760405162461bcd60e51b8152600401610c2c906159ac565b6000611e40600b612db2565b9050611e4c600b6133fd565b611e67600a611e5b600b612db2565b9063ffffffff61360a16565b611e9c57611e98611e8b611e79610b58565b600f549060ff1663ffffffff612d3616565b439063ffffffff61364c16565b600e555b6000611edd8d8d8080601f01602080910402602001604051908101604052809392919081815260200183838082843760009201919091525061334c92505050565b90506000611eeb8383613671565b9050604051806102000160405280826001600160801b031681526020018b600060038110611f1557fe5b602002016020810190611f289190614ae3565b61ffff16815260200160c86001600160801b038416066001600160801b0316600014611f6357611f5e60408d0160208e01614ae3565b611f66565b60005b60ff168152602001611f7e60608d0160408e01614ae3565b60ff90811682528e811660208301528d1660408201526060018a6000602002016020810190611fad9190614bf2565b60ff168152602090810190611fc89060408d01908d01614bf2565b60ff168152602001611fe060608c0160408d01614bf2565b60ff168152602001611ff860808c0160608d01614bf2565b60ff16815260209081019061200f908b018b614bf2565b60ff16815260209081019061202a9060408c01908c01614bf2565b60ff1681526020018860ff168152602001600060ff168152602001600a60ff168152602001600160ff168152506011600085815260200190815260200160002060008201518160000160006101000a8154816001600160801b0302191690836001600160801b0316021790555060208201518160000160106101000a81548161ffff021916908361ffff16021790555060408201518160000160126101000a81548160ff021916908360ff16021790555060608201518160000160136101000a81548160ff021916908360ff16021790555060808201518160000160146101000a81548160ff021916908360ff16021790555060a08201518160000160156101000a81548160ff021916908360ff16021790555060c08201518160000160166101000a81548160ff021916908360ff16021790555060e08201518160000160176101000a81548160ff021916908360ff1602179055506101008201518160000160186101000a81548160ff021916908360ff1602179055506101208201518160000160196101000a81548160ff021916908360ff16021790555061014082015181600001601a6101000a81548160ff021916908360ff16021790555061016082015181600001601b6101000a81548160ff021916908360ff16021790555061018082015181600001601c6101000a81548160ff021916908360ff1602179055506101a082015181600001601d6101000a81548160ff021916908360ff1602179055506101c082015181600001601e6101000a81548160ff021916908360ff1602179055506101e082015181600001601f6101000a81548160ff021916908360ff16021790555090505061229d86846133e3565b5050509a9950505050505050505050565b60125481565b600081565b6122c1612dc9565b6001600160a01b0316826001600160a01b031614156122f25760405162461bcd60e51b8152600401610c2c906152d1565b80600560006122ff612dc9565b6001600160a01b03908116825260208083019390935260409182016000908120918716808252919093529120805460ff191692151592909217909155612343612dc9565b6001600160a01b03167f17307eab39ab6107e8899845ad3d59bd9653f200f220920489ca2b5937696c318360405161237b9190614fff565b60405180910390a35050565b60606123916141bd565b5060008281526011602090815260409182902082516102008101845290546001600160801b038116825261ffff600160801b8204169282019290925260ff600160901b8304811693820193909352600160981b820483166060820152600160a01b820483166080820152600160a81b8204831660a0820152600160b01b8204831660c0820152600160b81b8204831660e0820152600160c01b82048316610100820152600160c81b82048316610120820152600160d01b82048316610140820152600160d81b82048316610160820152600160e01b82048316610180820152600160e81b820483166101a0820152600160f01b820483166101c0820152600160f81b9091049091166101e08201526019546001600160a01b03166301a28c5f82856124bb81611592565b6124c58689612eb0565b6040518563ffffffff1660e01b81526004016124e49493929190615b49565b60006040518083038186803b1580156124fc57600080fd5b505afa158015612510573d6000803e3d6000fd5b505050506040513d6000823e601f3d908101601f1916820160405261253891908101906149c8565b9392505050565b600a81565b6000806000806125526142bf565b61255a6142dd565b60006125646142fb565b60008060006125716141bd565b5060008c81526011602090815260409182902082516102008101845290546001600160801b038116825261ffff600160801b8204169282019290925260ff600160901b8304811693820193909352600160981b820483166060820152600160a01b820483166080820152600160a81b8204831660a0820152600160b01b8204831660c0820152600160b81b8204831660e0820152600160c01b82048316610100820152600160c81b82048316610120820152600160d01b82048316610140820152600160d81b82048316610160820152600160e01b82048316610180820152600160e81b820483166101a0820152600160f01b820483166101c0820152600160f81b9091049091166101e08201526126876142bf565b612691828f612eb0565b9050806000602002015160ff169b5080600160200201519250806002602002015193508060036020020151945081600001519c50816101800151965081608001519a508160a0015199506040518060600160405280836020015161ffff1661ffff168152602001836040015160ff1661ffff168152602001836060015160ff1661ffff16815250955060405180608001604052808360c0015160ff1660ff1681526020018360e0015160ff1660ff16815260200183610100015160ff1660ff16815260200183610120015160ff1660ff168152509850604051806040016040528083610140015160ff1660ff16815260200183610160015160ff1660ff168152509750505091939597999b90929496989a50565b6127b66127b0612dc9565b836130bd565b6127d25760405162461bcd60e51b8152600401610c2c906157b6565b6127de84848484613737565b50505050565b6127f3604051610cf890614f98565b600d8054911515600160a01b0260ff60a01b19909216919091179055565b606061281c82612db6565b6128385760405162461bcd60e51b8152600401610c2c906156d0565b60008281526008602090815260409182902080548351601f60026000196101006001861615020190931692909204918201849004840281018401909452808452606093928301828280156128cd5780601f106128a2576101008083540402835291602001916128cd565b820191906000526020600020905b8154815290600101906020018083116128b057829003601f168201915b5050600954939450505050600260001961010060018416150201909116046128f6579050610b4e565b80511561292857600981604051602001612911929190614f17565b604051602081830303815290604052915050610b4e565b60096129338461376a565b604051602001612944929190614f17565b604051602081830303815290604052915050919050565b6000818152600a60205260408120610fbf90612ea5565b612981604051610cf890614f98565b600d80546001600160a01b0319166001600160a01b0392909216919091179055565b6000828152600a60205260409020600201546129c1906107a0612dc9565b61103d5760405162461bcd60e51b8152600401610c2c906153ba565b60008660ff161180156129f35750601f8660ff16105b612a0f5760405162461bcd60e51b8152600401610c2c9061565a565b8560ff168560ff161115612a355760405162461bcd60e51b8152600401610c2c90615263565b610168846002602002015161ffff161115612a625760405162461bcd60e51b8152600401610c2c9061511b565b6064846001602002015161ffff161115612a8e5760405162461bcd60e51b8152600401610c2c90615749565b80612abf576014846001602002015161ffff161015612abf5760405162461bcd60e51b8152600401610c2c90615749565b6064846002602002015161ffff161115612aeb5760405162461bcd60e51b8152600401610c2c90615a2b565b6020830151835160ff91821691161115612b175760405162461bcd60e51b8152600401610c2c90615a56565b6060830151604084015160ff91821691161115612b465760405162461bcd60e51b8152600401610c2c906158d0565b8151606460ff9091161115612b6d5760405162461bcd60e51b8152600401610c2c9061583e565b505050505050565b6010805460408051602060026001851615610100026000190190941693909304601f81018490048402820184019092528181529291830182828015612bfb5780601f10612bd057610100808354040283529160200191612bfb565b820191906000526020600020905b815481529060010190602001808311612bde57829003601f168201915b505050505081565b6001600160a01b03918216600090815260056020908152604080832093909416825291909152205460ff1690565b600f81565b60145481565b60135481565b6000612c53604051610cf890614f98565b600d60009054906101000a90046001600160a01b03166001600160a01b031663990c8f796040518163ffffffff1660e01b815260040160206040518083038186803b158015612ca157600080fd5b505afa158015612cb5573d6000803e3d6000fd5b505050506040513d601f19601f82011682018060405250810190610b69919061472c565b600f5481565b6000610fbc83836040518060400160405280601a81526020017f536166654d6174683a206469766973696f6e206279207a65726f000000000000815250613845565b6000610fbc836001600160a01b03841661387c565b600082612d4557506000610fbf565b82820282848281612d5257fe5b0414610fbc5760405162461bcd60e51b8152600401610c2c90615581565b6000610fbc83836040518060400160405280601e81526020017f536166654d6174683a207375627472616374696f6e206f766572666c6f7700008152506138c6565b5490565b6000610fbf60028363ffffffff6138f216565b3390565b600081815260046020526040902080546001600160a01b0319166001600160a01b0384169081179091558190612e0282611592565b6001600160a01b03167f8c5be1e5ebec7d5bd14f71427d1e84f3dd0314c0f7b2291e5b200ac8c7c3b92560405160405180910390a45050565b612e458133611ba9565b610b2d5760405162461bcd60e51b8152600401610c2c90615925565b612e6a82612db6565b612e865760405162461bcd60e51b8152600401610c2c9061560e565b60008281526008602090815260409091208251610b2a92840190614319565b6000610fbf82612db2565b612eb86142bf565b606e821015613066576060612ed984600001516001600160801b03166138fe565b9050612ee3614387565b506040805160e0810182526001808252600260208301819052600593830184905260096060840152608083019390935260a082019290925260c0810191909152612f2b6143a5565b506040805161030081018252600180825260208201819052918101829052606081018290526080810182905260a0810182905260c0810182905260e08101829052610100810182905261012081018290526101408101829052610160810182905261018081018290526101a081018290526101c081018290526101e08101829052610200810182905261022081018290526102408101829052610260810182905261028081018290526102a081018290526102c081018290526102e0810191909152612fff8382601863ffffffff6139b516565b60ff16845261300f85600a612cdf565b60ff166020850152613037600161302885856019613a25565b60ff169063ffffffff61364c16565b60ff9081166040860152606087015161305591859160009116613a76565b60ff16606085015250610fbf915050565b825160ff6001607b1b6001600160801b03928316041682528351600160771b90821604600f1660208301528351600160741b90821604600716604083015292516001606d1b931692909204607f1660608301525090565b60006130c882612db6565b6130e45760405162461bcd60e51b8152600401610c2c9061536e565b60006130ef83611592565b9050806001600160a01b0316846001600160a01b0316148061312a5750836001600160a01b031661311f84610c05565b6001600160a01b0316145b8061313a575061313a8185612c03565b949350505050565b826001600160a01b031661315582611592565b6001600160a01b03161461317b5760405162461bcd60e51b8152600401610c2c90615687565b6001600160a01b0382166131a15760405162461bcd60e51b8152600401610c2c9061528d565b6131ac838383610b2a565b6131b7600082612dcd565b6001600160a01b03831660009081526001602052604090206131df908263ffffffff613ab916565b506001600160a01b0382166000908152600160205260409020613208908263ffffffff613ac516565b5061321b6002828463ffffffff613ad116565b5080826001600160a01b0316846001600160a01b03167fddf252ad1be2c89b69c2b068fc378daa952ba7f163c4a11628f55a4df523b3ef60405160405180910390a4505050565b6000828152600a60205260409020613280908263ffffffff612d2116565b15610f905761328d612dc9565b6001600160a01b0316816001600160a01b0316837f2f8788117e7eff1d82e926ec794901d17c78024a50270940304540a733656f0d60405160405180910390a45050565b6000610fbc8383613ae7565b6000828152600a602052604090206132fb908263ffffffff613b2c16565b15610f9057613308612dc9565b6001600160a01b0316816001600160a01b0316837ff6391f5c32d9c69d2a47ea670b442974b53935d1edc7fd64eb21e047a839171b60405160405180910390a45050565b600081815b815181101561339e57600082828151811061336857fe5b016020015160f81c905060308110801590613384575060398111155b15613395576030810384600a020193505b50600101613351565b5050919050565b60008080806133b48686613b41565b909450925050505b9250929050565b8051610f90906009906020840190614319565b600061313a848484613b9d565b610f90828260405180602001604052806000815250613bfc565b80546001019055565b600d54600160a01b900460ff16156134305760405162461bcd60e51b8152600401610c2c906150bc565b565b6000610fbc836001600160a01b038416613c2f565b606e613453600b612db2565b106134305760405162461bcd60e51b8152600401610c2c90615194565b600e544310156134305760405162461bcd60e51b8152600401610c2c906150dc565b6012543410156134b45760405162461bcd60e51b8152600401610c2c906154dd565b6012543411156135025760125433906108fc906134d890349063ffffffff612d7016565b6040518115909202916000818181858888f19350505050158015613500573d6000803e3d6000fd5b505b600061350d83612db6565b6135175732613520565b61352083611592565b9050600061352d32611621565b1561353a5760135461353e565b6014545b905060006001600160a01b038316331480159061356457506001600160a01b0383163214155b80156135825750836001600160a01b0316836001600160a01b031614155b61358d5760006135a7565b6135a76064610a9b84601254612d3690919063ffffffff16565b905080156135e7576040516001600160a01b0384169082156108fc029083906000818181858888f193505050501580156135e5573d6000803e3d6000fd5b505b601254613603906135fe908363ffffffff612d7016565b610a7d565b5050505050565b6000610fbc83836040518060400160405280601881526020017f536166654d6174683a206d6f64756c6f206279207a65726f0000000000000000815250613c47565b600082820183811015610fbc5760405162461bcd60e51b8152600401610c2c906151f5565b600080600d60009054906101000a90046001600160a01b03166001600160a01b031663990c8f796040518163ffffffff1660e01b815260040160206040518083038186803b1580156136c257600080fd5b505afa1580156136d6573d6000803e3d6000fd5b505050506040513d601f19601f820116820180604052508101906136fa919061472c565b848460405160200161370e93929190614ee5565b60408051808303601f1901815291905280516020909101206001600160801b0316949350505050565b613742848484613142565b61374e84848484613c7b565b6127de5760405162461bcd60e51b8152600401610c2c90615142565b60608161378f57506040805180820190915260018152600360fc1b6020820152610b4e565b8160005b81156137a757600101600a82049150613793565b60608167ffffffffffffffff811180156137c057600080fd5b506040519080825280601f01601f1916602001820160405280156137eb576020820181803683370190505b50859350905060001982015b831561383c57600a840660300160f81b8282806001900393508151811061381a57fe5b60200101906001600160f81b031916908160001a905350600a840493506137f7565b50949350505050565b600081836138665760405162461bcd60e51b8152600401610c2c9190615018565b50600083858161387257fe5b0495945050505050565b60006138888383613c2f565b6138be57508154600181810184556000848152602080822090930184905584548482528286019093526040902091909155610fbf565b506000610fbf565b600081848411156138ea5760405162461bcd60e51b8152600401610c2c9190615018565b505050900390565b6000610fbc8383613c2f565b6040805160038082526080820190925260609160029183916020820183803683370190505090506000808560405160200161393a929190614ed7565b60408051601f198184030181529190528051602090910120905060005b838110156139ab57804082604051602001613973929190614ed7565b6040516020818303038152906040528051906020012083826001018151811061399857fe5b6020908102919091010152600101613957565b5090949350505050565b6000806139c78560018560ff16613a76565b90506000805b60188160ff161015613a1b57613a00868260ff16601881106139eb57fe5b6020020151839060ff1663ffffffff613d6016565b9150818313613a13579250612538915050565b6001016139cd565b5050509392505050565b600080613a378560018560ff16613a76565b90506000805b60078160ff161015613a1b57613a5b868260ff16600781106139eb57fe5b9150818313613a6e579250612538915050565b600101613a3d565b600081831315613a985760405162461bcd60e51b8152600401610c2c90615977565b82838303600101613aa886613da6565b81613aaf57fe5b0601949350505050565b6000610fbc8383613e89565b6000610fbc838361387c565b600061313a84846001600160a01b038516613f4f565b81546000908210613b0a5760405162461bcd60e51b8152600401610c2c9061502b565b826000018281548110613b1957fe5b9060005260206000200154905092915050565b6000610fbc836001600160a01b038416613e89565b815460009081908310613b665760405162461bcd60e51b8152600401610c2c9061550a565b6000846000018481548110613b7757fe5b906000526020600020906002020190508060000154816001015492509250509250929050565b60008281526001840160205260408120548281613bcd5760405162461bcd60e51b8152600401610c2c9190615018565b50846000016001820381548110613be057fe5b9060005260206000209060020201600101549150509392505050565b613c068383613fe6565b613c136000848484613c7b565b610b2a5760405162461bcd60e51b8152600401610c2c90615142565b60009081526001919091016020526040902054151590565b60008183613c685760405162461bcd60e51b8152600401610c2c9190615018565b50828481613c7257fe5b06949350505050565b6000613c8f846001600160a01b03166140b6565b613c9b5750600161313a565b6060613d29630a85bd0160e11b613cb0612dc9565b888787604051602401613cc69493929190614fc2565b604051602081830303815290604052906001600160e01b0319166020820180516001600160e01b038381831617835250505050604051806060016040528060328152602001615d5f603291396001600160a01b038816919063ffffffff6140ef16565b9050600081806020019051810190613d4191906147b0565b6001600160e01b031916630a85bd0160e11b1492505050949350505050565b6000828201818312801590613d755750838112155b80613d8a5750600083128015613d8a57508381125b610fbc5760405162461bcd60e51b8152600401610c2c90615308565b60006001825111613dc95760405162461bcd60e51b8152600401610c2c9061522c565b6000600183510383600081518110613ddd57fe5b602002602001015160001c81613def57fe5b0660010190506000838281518110613e0357fe5b6020026020010151604051602001613e1b9190614ece565b60405160208183030381529060405280519060200120905083600081518110613e4057fe5b602002602001015160001c60010160001b84600081518110613e5e57fe5b60200260200101818152505080848381518110613e7757fe5b60209081029190910101529392505050565b60008181526001830160205260408120548015613f455783546000198083019190810190600090879083908110613ebc57fe5b9060005260206000200154905080876000018481548110613ed957fe5b600091825260208083209091019290925582815260018981019092526040902090840190558654879080613f0957fe5b60019003818190600052602060002001600090559055866001016000878152602001908152602001600020600090556001945050505050610fbf565b6000915050610fbf565b600082815260018401602052604081205480613fb4575050604080518082018252838152602080820184815286546001818101895560008981528481209551600290930290950191825591519082015586548684528188019092529290912055612538565b82856000016001830381548110613fc757fe5b9060005260206000209060020201600101819055506000915050612538565b6001600160a01b03821661400c5760405162461bcd60e51b8152600401610c2c9061554c565b61401581612db6565b156140325760405162461bcd60e51b8152600401610c2c906151be565b61403e60008383610b2a565b6001600160a01b0382166000908152600160205260409020614066908263ffffffff613ac516565b506140796002828463ffffffff613ad116565b5060405181906001600160a01b038416906000907fddf252ad1be2c89b69c2b068fc378daa952ba7f163c4a11628f55a4df523b3ef908290a45050565b6000813f7fc5d2460186f7233c927e7db2dcc703c0e500b653ca82273b7bfad8045d85a47081811480159061313a575050151592915050565b606061313a84846000856060614104856140b6565b6141205760405162461bcd60e51b8152600401610c2c90615807565b60006060866001600160a01b0316858760405161413d9190614efb565b60006040518083038185875af1925050503d806000811461417a576040519150601f19603f3d011682016040523d82523d6000602084013e61417f565b606091505b5091509150811561419357915061313a9050565b8051156141a35780518082602001fd5b8360405162461bcd60e51b8152600401610c2c9190615018565b6040805161020081018252600080825260208201819052918101829052606081018290526080810182905260a0810182905260c0810182905260e08101829052610100810182905261012081018290526101408101829052610160810182905261018081018290526101a081018290526101c081018290526101e081019190915290565b828054600181600116156101000203166002900490600052602060002090601f016020900481019282601f106142825782800160ff198235161785556142af565b828001600101855582156142af579182015b828111156142af578235825591602001919060010190614294565b506142bb9291506143c4565b5090565b60405180608001604052806004906020820280368337509192915050565b60405180604001604052806002906020820280368337509192915050565b60405180606001604052806003906020820280368337509192915050565b828054600181600116156101000203166002900490600052602060002090601f016020900481019282601f1061435a57805160ff19168380011785556142af565b828001600101855582156142af579182015b828111156142af57825182559160200191906001019061436c565b6040518060e001604052806007906020820280368337509192915050565b6040518061030001604052806018906020820280368337509192915050565b610b6c91905b808211156142bb57600081556001016143ca565b80356001600160a01b0381168114610fbf57600080fd5b8060608101831015610fbf57600080fd5b8060408101831015610fbf57600080fd5b600082601f830112614427578081fd5b6144316040615c9f565b905080828460408501111561444557600080fd5b6000805b600281101561447757823560ff81168114614462578283fd5b84526020938401939290920191600101614449565b5050505092915050565b8060808101831015610fbf57600080fd5b600082601f8301126144a2578081fd5b6144ac6080615c9f565b90508082846080850111156144c057600080fd5b60005b60048110156144eb576144d68683614556565b835260209283019291909101906001016144c3565b50505092915050565b80358015158114610fbf57600080fd5b60008083601f840112614515578182fd5b50813567ffffffffffffffff81111561452c578182fd5b6020830191508360208285010111156133bc57600080fd5b803561ffff81168114610fbf57600080fd5b803560ff81168114610fbf57600080fd5b600060208284031215614578578081fd5b610fbc83836143de565b60008060408385031215614594578081fd5b61459e84846143de565b91506145ad84602085016143de565b90509250929050565b6000806000606084860312156145ca578081fd5b83356145d581615d33565b925060208401356145e581615d33565b929592945050506040919091013590565b6000806000806080858703121561460b578081fd5b61461586866143de565b935061462486602087016143de565b925060408501359150606085013567ffffffffffffffff811115614646578182fd5b80860187601f820112614657578283fd5b8035915061466c61466783615ce3565b615c9f565b828152886020848401011115614680578384fd5b8260208301602083013791820160200192909252939692955090935050565b600080604083850312156146b1578182fd5b6146bb84846143de565b91506145ad84602085016144f4565b600080604083850312156146dc578182fd5b6146e684846143de565b946020939093013593505050565b600060208284031215614705578081fd5b81358015158114610fbc578182fd5b600060208284031215614725578081fd5b5035919050565b60006020828403121561473d578081fd5b5051919050565b60008060408385031215614756578182fd5b82359150602083013561476881615d33565b809150509250929050565b60008060408385031215614785578182fd5b50508035926020909101359150565b6000602082840312156147a5578081fd5b8135610fbc81615d48565b6000602082840312156147c1578081fd5b8151610fbc81615d48565b600080602083850312156147de578182fd5b823567ffffffffffffffff8111156147f4578283fd5b61480085828601614504565b90969095509350505050565b60008060008060008060008060008060006102a08c8e03121561482d578889fd5b67ffffffffffffffff808d35111561484357898afd5b6148508e8e358f01614504565b909c509a506148628e60208f016143f5565b99506148718e60808f01614406565b98506148808e60c08f01614481565b97506148908e6101408f01614406565b96506148a08e6101808f01614556565b95506148b08e6101a08f016143f5565b94506148c08e6102008f01614481565b9350806102808e013511156148d3578283fd5b506148e58d6102808e01358e01614504565b81935080925050509295989b509295989b9093969950565b6000806000806000806000806000806101e08b8d03121561491c578384fd5b8a3567ffffffffffffffff811115614932578485fd5b61493e8d828e01614504565b909b50995061495290508c60208d01614556565b97506149618c60408d01614556565b96506149708c60608d016143f5565b955061497f8c60c08d01614481565b945061498f8c6101408d01614406565b935061499f8c6101808d01614556565b92506149af8c6101a08d016143de565b91506101c08b013590509295989b9194979a5092959850565b6000602082840312156149d9578081fd5b815167ffffffffffffffff8111156149ef578182fd5b80830184601f820112614a00578283fd5b80519150614a1061466783615ce3565b828152856020848401011115614a24578384fd5b614a35836020830160208501615d07565b95945050505050565b6000806000806000806000806101c0898b031215614a5a578182fd5b88356001600160801b0381168114614a70578283fd5b9750614a7f8a60208b01614556565b9650614a8e8a60408b01614556565b9550614a9d8a60608b016143f5565b9450614aac8a60c08b01614481565b9350614abc8a6101408b01614406565b9250614acc8a6101808b01614556565b91506101a089013590509295985092959890939650565b600060208284031215614af4578081fd5b813561ffff81168114610fbc578182fd5b60008060808385031215614b17578182fd5b823591506145ad84602085016143f5565b600080600060408486031215614b3c578081fd5b83359250602084013567ffffffffffffffff811115614b59578182fd5b614b6586828701614504565b9497909650939450505050565b60008060008060008060a08789031215614b8a578384fd5b86359550614b9b8860208901614556565b9450614baa8860408901614556565b9350614bb98860608901614556565b9250608087013567ffffffffffffffff811115614bd4578283fd5b614be089828a01614504565b979a9699509497509295939492505050565b600060208284031215614c03578081fd5b610fbc8383614556565b6000806000806000806101808789031215614c26578384fd5b614c308888614556565b95506020614c4089828a01614556565b955088605f890112614c50578485fd5b6003614c5e61466782615cc6565b8060408b0160a08c018d811115614c7357898afd5b895b85811015614c9957614c878f84614544565b85529386019391860191600101614c75565b50829950614ca78e82614492565b9850505050505050614cbd886101208901614417565b9150614ccd8861016089016144f4565b90509295509295509295565b8060005b60038110156127de57815161ffff16845260209384019390910190600101614cdd565b8060005b60048110156127de57815160ff16845260209384019390910190600101614d04565b60008151808452614d3e816020860160208601615d07565b601f01601f19169290920160200192915050565b60008284528282602086013780602084860101526020601f19601f85011685010190509392505050565b614d87828251614eb2565b6020810151614d996020840182614ebf565b506040810151614dac6040840182614ec7565b506060810151614dbf6060840182614ec7565b506080810151614dd26080840182614ec7565b5060a0810151614de560a0840182614ec7565b5060c0810151614df860c0840182614ec7565b5060e0810151614e0b60e0840182614ec7565b5061010080820151614e1f82850182614ec7565b505061012080820151614e3482850182614ec7565b505061014080820151614e4982850182614ec7565b505061016080820151614e5e82850182614ec7565b505061018080820151614e7382850182614ec7565b50506101a080820151614e8882850182614ec7565b50506101c080820151614e9d82850182614ec7565b50506101e0808201516127de82850182614ec7565b6001600160801b03169052565b61ffff169052565b60ff169052565b90815260200190565b918252602082015260400190565b9283526020830191909152604082015260600190565b60008251614f0d818460208701615d07565b9190910192915050565b6000808454600180821660008114614f365760018114614f4d57614f7c565b60ff198316865260028304607f1686019350614f7c565b600283048886526020808720875b83811015614f745781548a820152908501908201614f5b565b505050860193505b5050508351614f8f818360208801615d07565b01949350505050565b6941444d494e5f524f4c4560b01b8152600a0190565b6001600160a01b0391909116815260200190565b6001600160a01b0385811682528416602082015260408101839052608060608201819052600090614ff590830184614d26565b9695505050505050565b901515815260200190565b60009190910b815260200190565b600060208252610fbc6020830184614d26565b60208082526022908201527f456e756d657261626c655365743a20696e646578206f7574206f6620626f756e604082015261647360f01b606082015260800190565b6020808252602f908201527f416363657373436f6e74726f6c3a2073656e646572206d75737420626520616e60408201526e0818591b5a5b881d1bc819dc985b9d608a1b606082015260800190565b60208082526006908201526514185d5cd95960d21b604082015260600190565b60208082526004908201526315d0525560e21b604082015260600190565b6020808252600790820152664e4f204d4f524560c81b604082015260600190565b6020808252600d908201526c34b73b30b634b21031b7b637b960991b604082015260600190565b60208082526032908201527f4552433732313a207472616e7366657220746f206e6f6e20455243373231526560408201527131b2b4bb32b91034b6b83632b6b2b73a32b960711b606082015260800190565b60208082526010908201526f20a92a1029a0a6229024a99027ab22a960811b604082015260600190565b6020808252601c908201527f4552433732313a20746f6b656e20616c7265616479206d696e74656400000000604082015260600190565b6020808252601b908201527f536166654d6174683a206164646974696f6e206f766572666c6f770000000000604082015260600190565b60208082526019908201527f52616e646f6d2e6e6578743a20696e76616c696420706f6f6c00000000000000604082015260600190565b60208082526010908201526f696e76616c6964206861746368696e6760801b604082015260600190565b60208082526024908201527f4552433732313a207472616e7366657220746f20746865207a65726f206164646040820152637265737360e01b606082015260800190565b60208082526019908201527f4552433732313a20617070726f766520746f2063616c6c657200000000000000604082015260600190565b60208082526021908201527f5369676e6564536166654d6174683a206164646974696f6e206f766572666c6f6040820152607760f81b606082015260800190565b6020808252600b908201526a496e76616c696420426b6760a81b604082015260600190565b6020808252602c908201527f4552433732313a206f70657261746f7220717565727920666f72206e6f6e657860408201526b34b9ba32b73a103a37b5b2b760a11b606082015260800190565b60208082526030908201527f416363657373436f6e74726f6c3a2073656e646572206d75737420626520616e60408201526f2061646d696e20746f207265766f6b6560801b606082015260800190565b60208082526038908201527f4552433732313a20617070726f76652063616c6c6572206973206e6f74206f7760408201527f6e6572206e6f7220617070726f76656420666f7220616c6c0000000000000000606082015260800190565b6020808252602a908201527f4552433732313a2062616c616e636520717565727920666f7220746865207a65604082015269726f206164647265737360b01b606082015260800190565b602080825260129082015271496e7375662e205065726d697373696f6e7360701b604082015260600190565b6020808252601390820152721a5b9cdd599a58da595b9d081c185e5b595b9d606a1b604082015260600190565b60208082526022908201527f456e756d657261626c654d61703a20696e646578206f7574206f6620626f756e604082015261647360f01b606082015260800190565b6020808252818101527f4552433732313a206d696e7420746f20746865207a65726f2061646472657373604082015260600190565b60208082526021908201527f536166654d6174683a206d756c7469706c69636174696f6e206f766572666c6f6040820152607760f81b606082015260800190565b6020808252602c908201527f4552433732313a20617070726f76656420717565727920666f72206e6f6e657860408201526b34b9ba32b73a103a37b5b2b760a11b606082015260800190565b6020808252602c908201527f4552433732314d657461646174613a2055524920736574206f66206e6f6e657860408201526b34b9ba32b73a103a37b5b2b760a11b606082015260800190565b6020808252601390820152721a5b9d985b1a59081cda185c194818dbdd5b9d606a1b604082015260600190565b60208082526029908201527f4552433732313a207472616e73666572206f6620746f6b656e2074686174206960408201526839903737ba1037bbb760b91b606082015260800190565b6020808252602f908201527f4552433732314d657461646174613a2055524920717565727920666f72206e6f60408201526e3732bc34b9ba32b73a103a37b5b2b760891b606082015260800190565b60208082526010908201526f24b73b30b634b210223ab930ba34b7b760811b604082015260600190565b60208082526012908201527134b73b30b634b21039b0ba3ab930ba34b7b760711b604082015260600190565b60208082526021908201527f4552433732313a20617070726f76616c20746f2063757272656e74206f776e656040820152603960f91b606082015260800190565b60208082526031908201527f4552433732313a207472616e736665722063616c6c6572206973206e6f74206f6040820152701ddb995c881b9bdc88185c1c1c9bdd9959607a1b606082015260800190565b6020808252601d908201527f416464726573733a2063616c6c20746f206e6f6e2d636f6e7472616374000000604082015260600190565b6020808252600e908201526d1a5b9d985b1a59081cdc1c99585960921b604082015260600190565b6020808252600490820152631554d15160e21b604082015260600190565b6020808252600490820152634e4f504560e01b604082015260600190565b6020808252601490820152734d7573742062652066757475726520626c6f636b60601b604082015260600190565b602080825260149082015273696e76616c6964206865696768742072616e676560601b604082015260600190565b6020808252600d908201526c1092d1c80948125b9d985b1a59609a1b604082015260600190565b60208082526032908201527f43616c6c657220646f736e27742068617665207065726d697373696f6e20746f604082015271103ab9b2903a3434b990333ab731ba34b7b760711b606082015260800190565b6020808252818101527f52616e646f6d2e756e69666f726d3a20696e76616c696420696e74657276616c604082015260600190565b6020808252601690820152750c1e0c0c08149958da5c1a595b9d08125b9d985b1a5960521b604082015260600190565b6020808252602f908201527f416363657373436f6e74726f6c3a2063616e206f6e6c792072656e6f756e636560408201526e103937b632b9903337b91039b2b63360891b606082015260800190565b602080825260119082015270696e76616c6964206c696768746e65737360781b604082015260600190565b602080825260139082015272696e76616c69642077696474682072616e676560681b604082015260600190565b60006102e0615a92838a614d7c565b61020083018890526001600160a01b038716610220840152610240830186835b6004811015615adc57602080830160ff615acc8286614556565b1685529301929150600101615ab2565b505050806102c0840152615af38184018587614d52565b9998505050505050505050565b60006102e0615b0f838a614d7c565b61020083018890526001600160a01b038716610220840152615b35610240840187614d00565b806102c0840152615af38184018587614d52565b60006102e0615b588388614d7c565b61020083018690526001600160a01b038516610220840152615b7e610240840185614d00565b6102c0830181905282015261030001949350505050565b6001600160801b038c16815260208082018c905260ff8b811660408401528a166060830152610220820190615bcd608084018b614d00565b61010083018960005b6002811015615bfa57615bea838351614ec7565b9183019190830190600101615bd6565b50505050615c0c610140830188614ec7565b615c1a610160830187614cd9565b615c286101c0830186614ec7565b615c366101e0830185614ec7565b615c44610200830184614ec7565b9c9b505050505050505050505050565b61ffff91909116815260200190565b63ffffffff91909116815260200190565b60ff91909116815260200190565b60ff93841681529183166020830152909116604082015260600190565b60405181810167ffffffffffffffff81118282101715615cbe57600080fd5b604052919050565b600067ffffffffffffffff821115615cdc578081fd5b5060200290565b600067ffffffffffffffff821115615cf9578081fd5b50601f01601f191660200190565b60005b83811015615d22578181015183820152602001615d0a565b838111156127de5750506000910152565b6001600160a01b0381168114610b2d57600080fd5b6001600160e01b031981168114610b2d57600080fdfe4552433732313a207472616e7366657220746f206e6f6e20455243373231526563656976657220696d706c656d656e7465724552433732313a206f776e657220717565727920666f72206e6f6e6578697374656e7420746f6b656ea2646970667358221220e1fa9199c082fee56fc665c5c4c0aacbc88b4d2cceb0e11e9eb48f8995f3208964736f6c6343000608003368747470733a2f2f72696e6b6562792e74696e79626f782e73686f702f54696e79426f7865732e6a736f6e",
  "linkReferences": {},
  "deployedLinkReferences": {}
}