{
  "_format": "hh-sol-artifact-1",
  "contractName": "TinyBoxes",
  "sourceName": "contracts/TinyBoxes.sol",
  "abi": [
    {
      "inputs": [
        {
          "internalType": "address",
          "name": "rand",
          "type": "address"
        }
      ],
      "stateMutability": "nonpayable",
      "type": "constructor"
    },
    {
      "anonymous": false,
      "inputs": [
        {
          "indexed": true,
          "internalType": "address",
          "name": "owner",
          "type": "address"
        },
        {
          "indexed": true,
          "internalType": "address",
          "name": "approved",
          "type": "address"
        },
        {
          "indexed": true,
          "internalType": "uint256",
          "name": "tokenId",
          "type": "uint256"
        }
      ],
      "name": "Approval",
      "type": "event"
    },
    {
      "anonymous": false,
      "inputs": [
        {
          "indexed": true,
          "internalType": "address",
          "name": "owner",
          "type": "address"
        },
        {
          "indexed": true,
          "internalType": "address",
          "name": "operator",
          "type": "address"
        },
        {
          "indexed": false,
          "internalType": "bool",
          "name": "approved",
          "type": "bool"
        }
      ],
      "name": "ApprovalForAll",
      "type": "event"
    },
    {
      "anonymous": false,
      "inputs": [
        {
          "indexed": false,
          "internalType": "uint256",
          "name": "id",
          "type": "uint256"
        }
      ],
      "name": "LECreated",
      "type": "event"
    },
    {
      "anonymous": false,
      "inputs": [
        {
          "indexed": true,
          "internalType": "bytes32",
          "name": "role",
          "type": "bytes32"
        },
        {
          "indexed": true,
          "internalType": "bytes32",
          "name": "previousAdminRole",
          "type": "bytes32"
        },
        {
          "indexed": true,
          "internalType": "bytes32",
          "name": "newAdminRole",
          "type": "bytes32"
        }
      ],
      "name": "RoleAdminChanged",
      "type": "event"
    },
    {
      "anonymous": false,
      "inputs": [
        {
          "indexed": true,
          "internalType": "bytes32",
          "name": "role",
          "type": "bytes32"
        },
        {
          "indexed": true,
          "internalType": "address",
          "name": "account",
          "type": "address"
        },
        {
          "indexed": true,
          "internalType": "address",
          "name": "sender",
          "type": "address"
        }
      ],
      "name": "RoleGranted",
      "type": "event"
    },
    {
      "anonymous": false,
      "inputs": [
        {
          "indexed": true,
          "internalType": "bytes32",
          "name": "role",
          "type": "bytes32"
        },
        {
          "indexed": true,
          "internalType": "address",
          "name": "account",
          "type": "address"
        },
        {
          "indexed": true,
          "internalType": "address",
          "name": "sender",
          "type": "address"
        }
      ],
      "name": "RoleRevoked",
      "type": "event"
    },
    {
      "anonymous": false,
      "inputs": [
        {
          "indexed": true,
          "internalType": "address",
          "name": "from",
          "type": "address"
        },
        {
          "indexed": true,
          "internalType": "address",
          "name": "to",
          "type": "address"
        },
        {
          "indexed": true,
          "internalType": "uint256",
          "name": "tokenId",
          "type": "uint256"
        }
      ],
      "name": "Transfer",
      "type": "event"
    },
    {
      "inputs": [],
      "name": "ADMIN_ROLE",
      "outputs": [
        {
          "internalType": "bytes32",
          "name": "",
          "type": "bytes32"
        }
      ],
      "stateMutability": "view",
      "type": "function"
    },
    {
      "inputs": [],
      "name": "ANIMATION_COUNT",
      "outputs": [
        {
          "internalType": "uint8",
          "name": "",
          "type": "uint8"
        }
      ],
      "stateMutability": "view",
      "type": "function"
    },
    {
      "inputs": [],
      "name": "ANIMATOR_ROLE",
      "outputs": [
        {
          "internalType": "bytes32",
          "name": "",
          "type": "bytes32"
        }
      ],
      "stateMutability": "view",
      "type": "function"
    },
    {
      "inputs": [],
      "name": "ARTIST_ROLE",
      "outputs": [
        {
          "internalType": "bytes32",
          "name": "",
          "type": "bytes32"
        }
      ],
      "stateMutability": "view",
      "type": "function"
    },
    {
      "inputs": [],
      "name": "DEFAULT_ADMIN_ROLE",
      "outputs": [
        {
          "internalType": "bytes32",
          "name": "",
          "type": "bytes32"
        }
      ],
      "stateMutability": "view",
      "type": "function"
    },
    {
      "inputs": [],
      "name": "SCHEME_COUNT",
      "outputs": [
        {
          "internalType": "uint8",
          "name": "",
          "type": "uint8"
        }
      ],
      "stateMutability": "view",
      "type": "function"
    },
    {
      "inputs": [],
      "name": "TOKEN_LIMIT",
      "outputs": [
        {
          "internalType": "uint16",
          "name": "",
          "type": "uint16"
        }
      ],
      "stateMutability": "view",
      "type": "function"
    },
    {
      "inputs": [
        {
          "internalType": "address",
          "name": "to",
          "type": "address"
        },
        {
          "internalType": "uint256",
          "name": "tokenId",
          "type": "uint256"
        }
      ],
      "name": "approve",
      "outputs": [],
      "stateMutability": "nonpayable",
      "type": "function"
    },
    {
      "inputs": [
        {
          "internalType": "address",
          "name": "owner",
          "type": "address"
        }
      ],
      "name": "balanceOf",
      "outputs": [
        {
          "internalType": "uint256",
          "name": "",
          "type": "uint256"
        }
      ],
      "stateMutability": "view",
      "type": "function"
    },
    {
      "inputs": [],
      "name": "baseURI",
      "outputs": [
        {
          "internalType": "string",
          "name": "",
          "type": "string"
        }
      ],
      "stateMutability": "view",
      "type": "function"
    },
    {
      "inputs": [],
      "name": "blockStart",
      "outputs": [
        {
          "internalType": "uint256",
          "name": "",
          "type": "uint256"
        }
      ],
      "stateMutability": "view",
      "type": "function"
    },
    {
      "inputs": [
        {
          "internalType": "uint256",
          "name": "id",
          "type": "uint256"
        },
        {
          "internalType": "uint8[3]",
          "name": "settings",
          "type": "uint8[3]"
        }
      ],
      "name": "changeSettings",
      "outputs": [],
      "stateMutability": "nonpayable",
      "type": "function"
    },
    {
      "inputs": [],
      "name": "contractURI",
      "outputs": [
        {
          "internalType": "string",
          "name": "",
          "type": "string"
        }
      ],
      "stateMutability": "view",
      "type": "function"
    },
    {
      "inputs": [
        {
          "internalType": "string",
          "name": "_seed",
          "type": "string"
        },
        {
          "internalType": "uint8",
          "name": "shapes",
          "type": "uint8"
        },
        {
          "internalType": "uint8",
          "name": "hatching",
          "type": "uint8"
        },
        {
          "internalType": "uint16[3]",
          "name": "color",
          "type": "uint16[3]"
        },
        {
          "internalType": "uint8[4]",
          "name": "size",
          "type": "uint8[4]"
        },
        {
          "internalType": "uint8[2]",
          "name": "spacing",
          "type": "uint8[2]"
        },
        {
          "internalType": "uint8",
          "name": "mirroring",
          "type": "uint8"
        },
        {
          "internalType": "address",
          "name": "recipient",
          "type": "address"
        },
        {
          "internalType": "uint256",
          "name": "referalID",
          "type": "uint256"
        }
      ],
      "name": "create",
      "outputs": [
        {
          "internalType": "uint256",
          "name": "",
          "type": "uint256"
        }
      ],
      "stateMutability": "payable",
      "type": "function"
    },
    {
      "inputs": [
        {
          "internalType": "uint128",
          "name": "seed",
          "type": "uint128"
        },
        {
          "internalType": "uint8",
          "name": "shapes",
          "type": "uint8"
        },
        {
          "internalType": "uint8",
          "name": "hatching",
          "type": "uint8"
        },
        {
          "internalType": "uint16[3]",
          "name": "color",
          "type": "uint16[3]"
        },
        {
          "internalType": "uint8[4]",
          "name": "size",
          "type": "uint8[4]"
        },
        {
          "internalType": "uint8[2]",
          "name": "spacing",
          "type": "uint8[2]"
        },
        {
          "internalType": "uint8",
          "name": "mirroring",
          "type": "uint8"
        },
        {
          "internalType": "uint256",
          "name": "id",
          "type": "uint256"
        }
      ],
      "name": "createLimitedEdition",
      "outputs": [],
      "stateMutability": "nonpayable",
      "type": "function"
    },
    {
      "inputs": [],
      "name": "currentPhase",
      "outputs": [
        {
          "internalType": "uint8",
          "name": "",
          "type": "uint8"
        }
      ],
      "stateMutability": "view",
      "type": "function"
    },
    {
      "inputs": [
        {
          "internalType": "uint256",
          "name": "tokenId",
          "type": "uint256"
        }
      ],
      "name": "getApproved",
      "outputs": [
        {
          "internalType": "address",
          "name": "",
          "type": "address"
        }
      ],
      "stateMutability": "view",
      "type": "function"
    },
    {
      "inputs": [
        {
          "internalType": "bytes32",
          "name": "role",
          "type": "bytes32"
        }
      ],
      "name": "getRoleAdmin",
      "outputs": [
        {
          "internalType": "bytes32",
          "name": "",
          "type": "bytes32"
        }
      ],
      "stateMutability": "view",
      "type": "function"
    },
    {
      "inputs": [
        {
          "internalType": "bytes32",
          "name": "role",
          "type": "bytes32"
        },
        {
          "internalType": "uint256",
          "name": "index",
          "type": "uint256"
        }
      ],
      "name": "getRoleMember",
      "outputs": [
        {
          "internalType": "address",
          "name": "",
          "type": "address"
        }
      ],
      "stateMutability": "view",
      "type": "function"
    },
    {
      "inputs": [
        {
          "internalType": "bytes32",
          "name": "role",
          "type": "bytes32"
        }
      ],
      "name": "getRoleMemberCount",
      "outputs": [
        {
          "internalType": "uint256",
          "name": "",
          "type": "uint256"
        }
      ],
      "stateMutability": "view",
      "type": "function"
    },
    {
      "inputs": [
        {
          "internalType": "bytes32",
          "name": "role",
          "type": "bytes32"
        },
        {
          "internalType": "address",
          "name": "account",
          "type": "address"
        }
      ],
      "name": "grantRole",
      "outputs": [],
      "stateMutability": "nonpayable",
      "type": "function"
    },
    {
      "inputs": [
        {
          "internalType": "bytes32",
          "name": "role",
          "type": "bytes32"
        },
        {
          "internalType": "address",
          "name": "account",
          "type": "address"
        }
      ],
      "name": "hasRole",
      "outputs": [
        {
          "internalType": "bool",
          "name": "",
          "type": "bool"
        }
      ],
      "stateMutability": "view",
      "type": "function"
    },
    {
      "inputs": [
        {
          "internalType": "address",
          "name": "owner",
          "type": "address"
        },
        {
          "internalType": "address",
          "name": "operator",
          "type": "address"
        }
      ],
      "name": "isApprovedForAll",
      "outputs": [
        {
          "internalType": "bool",
          "name": "",
          "type": "bool"
        }
      ],
      "stateMutability": "view",
      "type": "function"
    },
    {
      "inputs": [
        {
          "internalType": "address",
          "name": "recipient",
          "type": "address"
        }
      ],
      "name": "mintPromo",
      "outputs": [],
      "stateMutability": "nonpayable",
      "type": "function"
    },
    {
      "inputs": [],
      "name": "name",
      "outputs": [
        {
          "internalType": "string",
          "name": "",
          "type": "string"
        }
      ],
      "stateMutability": "view",
      "type": "function"
    },
    {
      "inputs": [
        {
          "internalType": "uint256",
          "name": "tokenId",
          "type": "uint256"
        }
      ],
      "name": "ownerOf",
      "outputs": [
        {
          "internalType": "address",
          "name": "",
          "type": "address"
        }
      ],
      "stateMutability": "view",
      "type": "function"
    },
    {
      "inputs": [],
      "name": "paused",
      "outputs": [
        {
          "internalType": "bool",
          "name": "",
          "type": "bool"
        }
      ],
      "stateMutability": "view",
      "type": "function"
    },
    {
      "inputs": [],
      "name": "phaseCountdown",
      "outputs": [
        {
          "internalType": "uint256",
          "name": "",
          "type": "uint256"
        }
      ],
      "stateMutability": "view",
      "type": "function"
    },
    {
      "inputs": [],
      "name": "phaseCountdownTime",
      "outputs": [
        {
          "internalType": "uint256",
          "name": "",
          "type": "uint256"
        }
      ],
      "stateMutability": "view",
      "type": "function"
    },
    {
      "inputs": [],
      "name": "phaseLen",
      "outputs": [
        {
          "internalType": "uint256",
          "name": "",
          "type": "uint256"
        }
      ],
      "stateMutability": "view",
      "type": "function"
    },
    {
      "inputs": [],
      "name": "price",
      "outputs": [
        {
          "internalType": "uint256",
          "name": "",
          "type": "uint256"
        }
      ],
      "stateMutability": "view",
      "type": "function"
    },
    {
      "inputs": [
        {
          "internalType": "uint256",
          "name": "id",
          "type": "uint256"
        }
      ],
      "name": "readSettings",
      "outputs": [
        {
          "internalType": "uint8",
          "name": "bkg",
          "type": "uint8"
        },
        {
          "internalType": "uint8",
          "name": "duration",
          "type": "uint8"
        },
        {
          "internalType": "uint8",
          "name": "options",
          "type": "uint8"
        }
      ],
      "stateMutability": "view",
      "type": "function"
    },
    {
      "inputs": [],
      "name": "referalNewPercent",
      "outputs": [
        {
          "internalType": "uint256",
          "name": "",
          "type": "uint256"
        }
      ],
      "stateMutability": "view",
      "type": "function"
    },
    {
      "inputs": [],
      "name": "referalPercent",
      "outputs": [
        {
          "internalType": "uint256",
          "name": "",
          "type": "uint256"
        }
      ],
      "stateMutability": "view",
      "type": "function"
    },
    {
      "inputs": [
        {
          "internalType": "bytes32",
          "name": "role",
          "type": "bytes32"
        },
        {
          "internalType": "address",
          "name": "account",
          "type": "address"
        }
      ],
      "name": "renounceRole",
      "outputs": [],
      "stateMutability": "nonpayable",
      "type": "function"
    },
    {
      "inputs": [
        {
          "internalType": "bytes32",
          "name": "role",
          "type": "bytes32"
        },
        {
          "internalType": "address",
          "name": "account",
          "type": "address"
        }
      ],
      "name": "revokeRole",
      "outputs": [],
      "stateMutability": "nonpayable",
      "type": "function"
    },
    {
      "inputs": [
        {
          "internalType": "address",
          "name": "from",
          "type": "address"
        },
        {
          "internalType": "address",
          "name": "to",
          "type": "address"
        },
        {
          "internalType": "uint256",
          "name": "tokenId",
          "type": "uint256"
        }
      ],
      "name": "safeTransferFrom",
      "outputs": [],
      "stateMutability": "nonpayable",
      "type": "function"
    },
    {
      "inputs": [
        {
          "internalType": "address",
          "name": "from",
          "type": "address"
        },
        {
          "internalType": "address",
          "name": "to",
          "type": "address"
        },
        {
          "internalType": "uint256",
          "name": "tokenId",
          "type": "uint256"
        },
        {
          "internalType": "bytes",
          "name": "_data",
          "type": "bytes"
        }
      ],
      "name": "safeTransferFrom",
      "outputs": [],
      "stateMutability": "nonpayable",
      "type": "function"
    },
    {
      "inputs": [
        {
          "internalType": "address",
          "name": "operator",
          "type": "address"
        },
        {
          "internalType": "bool",
          "name": "approved",
          "type": "bool"
        }
      ],
      "name": "setApprovalForAll",
      "outputs": [],
      "stateMutability": "nonpayable",
      "type": "function"
    },
    {
      "inputs": [
        {
          "internalType": "string",
          "name": "_uri",
          "type": "string"
        }
      ],
      "name": "setBaseURI",
      "outputs": [],
      "stateMutability": "nonpayable",
      "type": "function"
    },
    {
      "inputs": [
        {
          "internalType": "string",
          "name": "_uri",
          "type": "string"
        }
      ],
      "name": "setContractURI",
      "outputs": [],
      "stateMutability": "nonpayable",
      "type": "function"
    },
    {
      "inputs": [
        {
          "internalType": "bool",
          "name": "state",
          "type": "bool"
        }
      ],
      "name": "setPause",
      "outputs": [],
      "stateMutability": "nonpayable",
      "type": "function"
    },
    {
      "inputs": [
        {
          "internalType": "address",
          "name": "rand",
          "type": "address"
        }
      ],
      "name": "setRandom",
      "outputs": [],
      "stateMutability": "nonpayable",
      "type": "function"
    },
    {
      "inputs": [
        {
          "internalType": "uint256",
          "name": "_id",
          "type": "uint256"
        },
        {
          "internalType": "string",
          "name": "_uri",
          "type": "string"
        }
      ],
      "name": "setTokenURI",
      "outputs": [],
      "stateMutability": "nonpayable",
      "type": "function"
    },
    {
      "inputs": [
        {
          "internalType": "uint256",
          "name": "startBlock",
          "type": "uint256"
        }
      ],
      "name": "startCoundown",
      "outputs": [],
      "stateMutability": "nonpayable",
      "type": "function"
    },
    {
      "inputs": [
        {
          "internalType": "bytes4",
          "name": "interfaceId",
          "type": "bytes4"
        }
      ],
      "name": "supportsInterface",
      "outputs": [
        {
          "internalType": "bool",
          "name": "",
          "type": "bool"
        }
      ],
      "stateMutability": "view",
      "type": "function"
    },
    {
      "inputs": [],
      "name": "symbol",
      "outputs": [
        {
          "internalType": "string",
          "name": "",
          "type": "string"
        }
      ],
      "stateMutability": "view",
      "type": "function"
    },
    {
      "inputs": [],
      "name": "testRandom",
      "outputs": [
        {
          "internalType": "bytes32",
          "name": "",
          "type": "bytes32"
        }
      ],
      "stateMutability": "view",
      "type": "function"
    },
    {
      "inputs": [
        {
          "internalType": "uint256",
          "name": "_id",
          "type": "uint256"
        },
        {
          "internalType": "uint8",
          "name": "bkg",
          "type": "uint8"
        },
        {
          "internalType": "uint8",
          "name": "duration",
          "type": "uint8"
        },
        {
          "internalType": "uint8",
          "name": "options",
          "type": "uint8"
        },
        {
          "internalType": "string",
          "name": "slot",
          "type": "string"
        }
      ],
      "name": "tokenArt",
      "outputs": [
        {
          "internalType": "string",
          "name": "",
          "type": "string"
        }
      ],
      "stateMutability": "view",
      "type": "function"
    },
    {
      "inputs": [
        {
          "internalType": "uint256",
          "name": "_id",
          "type": "uint256"
        }
      ],
      "name": "tokenArt",
      "outputs": [
        {
          "internalType": "string",
          "name": "",
          "type": "string"
        }
      ],
      "stateMutability": "view",
      "type": "function"
    },
    {
      "inputs": [
        {
          "internalType": "uint256",
          "name": "index",
          "type": "uint256"
        }
      ],
      "name": "tokenByIndex",
      "outputs": [
        {
          "internalType": "uint256",
          "name": "",
          "type": "uint256"
        }
      ],
      "stateMutability": "view",
      "type": "function"
    },
    {
      "inputs": [
        {
          "internalType": "uint256",
          "name": "_id",
          "type": "uint256"
        }
      ],
      "name": "tokenData",
      "outputs": [
        {
          "internalType": "uint256",
          "name": "animation",
          "type": "uint256"
        },
        {
          "internalType": "uint8",
          "name": "shapes",
          "type": "uint8"
        },
        {
          "internalType": "uint8",
          "name": "hatching",
          "type": "uint8"
        },
        {
          "internalType": "uint8[4]",
          "name": "size",
          "type": "uint8[4]"
        },
        {
          "internalType": "uint8[2]",
          "name": "spacing",
          "type": "uint8[2]"
        },
        {
          "internalType": "uint8",
          "name": "mirroring",
          "type": "uint8"
        },
        {
          "internalType": "uint16[3]",
          "name": "color",
          "type": "uint16[3]"
        },
        {
          "internalType": "uint8",
          "name": "contrast",
          "type": "uint8"
        },
        {
          "internalType": "uint8",
          "name": "shades",
          "type": "uint8"
        },
        {
          "internalType": "uint8",
          "name": "scheme",
          "type": "uint8"
        }
      ],
      "stateMutability": "view",
      "type": "function"
    },
    {
      "inputs": [
        {
          "internalType": "address",
          "name": "owner",
          "type": "address"
        },
        {
          "internalType": "uint256",
          "name": "index",
          "type": "uint256"
        }
      ],
      "name": "tokenOfOwnerByIndex",
      "outputs": [
        {
          "internalType": "uint256",
          "name": "",
          "type": "uint256"
        }
      ],
      "stateMutability": "view",
      "type": "function"
    },
    {
      "inputs": [
        {
          "internalType": "string",
          "name": "seed",
          "type": "string"
        },
        {
          "internalType": "uint16[3]",
          "name": "color",
          "type": "uint16[3]"
        },
        {
          "internalType": "uint8[2]",
          "name": "shapes",
          "type": "uint8[2]"
        },
        {
          "internalType": "uint8[4]",
          "name": "size",
          "type": "uint8[4]"
        },
        {
          "internalType": "uint8[2]",
          "name": "spacing",
          "type": "uint8[2]"
        },
        {
          "internalType": "uint8",
          "name": "mirroring",
          "type": "uint8"
        },
        {
          "internalType": "uint8[3]",
          "name": "settings",
          "type": "uint8[3]"
        },
        {
          "internalType": "uint8[4]",
          "name": "traits",
          "type": "uint8[4]"
        },
        {
          "internalType": "string",
          "name": "slot",
          "type": "string"
        }
      ],
      "name": "tokenPreview",
      "outputs": [
        {
          "internalType": "string",
          "name": "",
          "type": "string"
        }
      ],
      "stateMutability": "view",
      "type": "function"
    },
    {
      "inputs": [
        {
          "internalType": "uint256",
          "name": "id",
          "type": "uint256"
        }
      ],
      "name": "tokenRandomness",
      "outputs": [
        {
          "internalType": "uint128",
          "name": "",
          "type": "uint128"
        }
      ],
      "stateMutability": "view",
      "type": "function"
    },
    {
      "inputs": [
        {
          "internalType": "uint256",
          "name": "tokenId",
          "type": "uint256"
        }
      ],
      "name": "tokenURI",
      "outputs": [
        {
          "internalType": "string",
          "name": "",
          "type": "string"
        }
      ],
      "stateMutability": "view",
      "type": "function"
    },
    {
      "inputs": [],
      "name": "totalSupply",
      "outputs": [
        {
          "internalType": "uint256",
          "name": "",
          "type": "uint256"
        }
      ],
      "stateMutability": "view",
      "type": "function"
    },
    {
      "inputs": [
        {
          "internalType": "address",
          "name": "from",
          "type": "address"
        },
        {
          "internalType": "address",
          "name": "to",
          "type": "address"
        },
        {
          "internalType": "uint256",
          "name": "tokenId",
          "type": "uint256"
        }
      ],
      "name": "transferFrom",
      "outputs": [],
      "stateMutability": "nonpayable",
      "type": "function"
    },
    {
      "inputs": [
        {
          "internalType": "uint256",
          "name": "id",
          "type": "uint256"
        }
      ],
      "name": "trueID",
      "outputs": [
        {
          "internalType": "int8",
          "name": "",
          "type": "int8"
        }
      ],
      "stateMutability": "pure",
      "type": "function"
    },
    {
      "stateMutability": "payable",
      "type": "receive"
    }
  ],
  "bytecode": "0x6080604052600d805460ff19166001179055600b606e0461ffff16600f5560786010556200003f600f6010546200025360201b62002e621790919060201c565b6011556001601455600a601555600f6016556000196017556064601855601980546001600160a01b0319908116737a832c86002323a5de3a317b3281eb88ec3b2c0017909155601a80549091167363a9dbce75413036b2b778e670aabd4493aaf9f31790556040805160608101909152602b808252620064f560208301398051620000d391601b916020909101906200046e565b50348015620000e157600080fd5b506040516200652038038062006520833981016040819052620001049162000510565b604080518082018252600981526854696e79426f78657360b81b602080830191909152825180840190935260068352655b235d5b235d60d01b9083015282916200015e6301ffc9a760e01b6001600160e01b03620002a616565b8151620001739060069060208501906200046e565b508051620001899060079060208401906200046e565b50620001a56380ac58cd60e01b6001600160e01b03620002a616565b620001c0635b5e139f60e01b6001600160e01b03620002a616565b620001db63780e9d6360e01b6001600160e01b03620002a616565b505062000208604051620001ef9062000570565b604051908190039020336001600160e01b036200030116565b6200021a604051620001ef9062000559565b6200022c604051620001ef9062000540565b601380546001600160a01b0319166001600160a01b03929092169190911790555062000613565b60006200029d83836040518060400160405280601a81526020017f536166654d6174683a206469766973696f6e206279207a65726f0000000000008152506200031a60201b60201c565b90505b92915050565b6001600160e01b03198082161415620002dc5760405162461bcd60e51b8152600401620002d390620005dc565b60405180910390fd5b6001600160e01b0319166000908152602081905260409020805460ff19166001179055565b6200031682826001600160e01b036200035516565b5050565b600081836200033e5760405162461bcd60e51b8152600401620002d3919062000586565b5060008385816200034b57fe5b0495945050505050565b6000828152600a602090815260409091206200037c91839062002ea4620003d9821b17901c565b156200031657620003956001600160e01b03620003f916565b6001600160a01b0316816001600160a01b0316837f2f8788117e7eff1d82e926ec794901d17c78024a50270940304540a733656f0d60405160405180910390a45050565b60006200029d836001600160a01b0384166001600160e01b03620003fe16565b335b90565b60006200041583836001600160e01b036200045616565b6200044d57508154600181810184556000848152602080822090930184905584548482528286019093526040902091909155620002a0565b506000620002a0565b60009081526001919091016020526040902054151590565b828054600181600116156101000203166002900490600052602060002090601f016020900481019282601f10620004b157805160ff1916838001178555620004e1565b82800160010185558215620004e1579182015b82811115620004e1578251825591602001919060010190620004c4565b50620004ef929150620004f3565b5090565b620003fb91905b80821115620004ef5760008155600101620004fa565b60006020828403121562000522578081fd5b81516001600160a01b038116811462000539578182fd5b9392505050565b6c414e494d41544f525f524f4c4560981b8152600d0190565b6a4152544953545f524f4c4560a81b8152600b0190565b6941444d494e5f524f4c4560b01b8152600a0190565b6000602080835283518082850152825b81811015620005b45785810183015185820160400152820162000596565b81811115620005c65783604083870101525b50601f01601f1916929092016040019392505050565b6020808252601c908201527f4552433136353a20696e76616c696420696e7465726661636520696400000000604082015260600190565b615ed280620006236000396000f3fe6080604052600436106103905760003560e01c80637b2feaaa116101dc578063b4b5b48f11610102578063d547741f116100a0578063f7eaec7d1161006f578063f7eaec7d14610a30578063fbddd14b14610a45578063fc4ea93914610a5a578063fd05dd6a14610a6f576103a0565b8063d547741f146109c6578063e8a3d485146109e6578063e985e9c5146109fb578063f1d77baf14610a1b576103a0565b8063c87b56dd116100dc578063c87b56dd14610951578063ca15c87314610971578063ca9c0bad14610991578063ce427c1c146109b1576103a0565b8063b4b5b48f146108db578063b88d4fde14610911578063bedb86fb14610931576103a0565b806395d89b411161017a578063a22cb46511610149578063a22cb46514610871578063a2a87ffb14610891578063a966a0df146108b1578063b3174fa1146108c6576103a0565b806395d89b411461081f578063990cec8314610834578063a035b1fe14610847578063a217fddf1461085c576103a0565b80639010d07c116101b65780639010d07c1461079057806391d14854146107b0578063938e3d7b146107d0578063947e93d9146107f0576103a0565b80637b2feaaa1461073b5780637def753d14610750578063824cac1a14610770576103a0565b806333618273116102c1578063524101971161025f5780636c0360eb1161022e5780636c0360eb146106dc57806370a08231146106f157806371a0a0161461071157806375b238fc14610726576103a0565b8063524101971461067257806355f804b3146106875780635c975abb146106a75780636352211e146106bc576103a0565b8063408f3a2b1161029b578063408f3a2b146105e557806342842e0e1461061257806345de6305146106325780634f6ccce714610652576103a0565b8063336182731461058557806336568abe146105a55780633c564cab146105c5576103a0565b8063162094c41161032e57806323b872dd1161030857806323b872dd14610505578063248a9ca3146105255780632f2ff15d146105455780632f745c5914610565576103a0565b8063162094c4146104a357806318160ddd146104c35780631dd68782146104e5576103a0565b806306fdde031161036a57806306fdde031461041f578063081812fc14610441578063095ea7b31461046e5780630e1b9b0e1461048e576103a0565b806301ffc9a7146103a5578063031bd4c4146103db578063055ad42e146103fd576103a0565b366103a05761039e34610a9c565b005b600080fd5b3480156103b157600080fd5b506103c56103c0366004614928565b610b4f565b6040516103d2919061511d565b60405180910390f35b3480156103e757600080fd5b506103f0610b72565b6040516103d29190615cc7565b34801561040957600080fd5b50610412610b77565b6040516103d29190615d74565b34801561042b57600080fd5b50610434610b8f565b6040516103d29190615136565b34801561044d57600080fd5b5061046161045c3660046148b3565b610c25565b6040516103d291906150cc565b34801561047a57600080fd5b5061039e610489366004614869565b610c71565b34801561049a57600080fd5b50610412610d04565b3480156104af57600080fd5b5061039e6104be366004614cbc565b610d09565b3480156104cf57600080fd5b506104d8610d89565b6040516103d29190614fbc565b3480156104f157600080fd5b50610434610500366004614d06565b610d95565b34801561051157600080fd5b5061039e610520366004614745565b610f4c565b34801561053157600080fd5b506104d86105403660046148b3565b610f84565b34801561055157600080fd5b5061039e6105603660046148e3565b610f99565b34801561057157600080fd5b506104d8610580366004614869565b610fe1565b34801561059157600080fd5b5061039e6105a03660046148b3565b611012565b3480156105b157600080fd5b5061039e6105c03660046148e3565b61107b565b3480156105d157600080fd5b5061039e6105e0366004614c99565b6110bd565b3480156105f157600080fd5b506106056106003660046148b3565b61123d565b6040516103d29190615cb3565b34801561061e57600080fd5b5061039e61062d366004614745565b61135d565b34801561063e57600080fd5b5061043461064d3660046149a0565b611378565b34801561065e57600080fd5b506104d861066d3660046148b3565b6116b4565b34801561067e57600080fd5b506104d86116d0565b34801561069357600080fd5b5061039e6106a2366004614960565b6116d6565b3480156106b357600080fd5b506103c561174f565b3480156106c857600080fd5b506104616106d73660046148b3565b611758565b3480156106e857600080fd5b50610434611786565b3480156106fd57600080fd5b506104d861070c3660046146f6565b6117e7565b34801561071d57600080fd5b50610412611830565b34801561073257600080fd5b506104d8611835565b34801561074757600080fd5b506104d861184c565b34801561075c57600080fd5b5061039e61076b3660046146f6565b611852565b34801561077c57600080fd5b5061039e61078b366004614bd2565b6118dc565b34801561079c57600080fd5b506104616107ab366004614907565b611d97565b3480156107bc57600080fd5b506103c56107cb3660046148e3565b611db5565b3480156107dc57600080fd5b5061039e6107eb366004614960565b611dd3565b3480156107fc57600080fd5b5061081061080b3660046148b3565b611e19565b6040516103d293929190615d82565b34801561082b57600080fd5b50610434611f45565b6104d8610842366004614a91565b611fa6565b34801561085357600080fd5b506104d861253d565b34801561086857600080fd5b506104d8612543565b34801561087d57600080fd5b5061039e61088c36600461482e565b612548565b34801561089d57600080fd5b506104346108ac3660046148b3565b612616565b3480156108bd57600080fd5b506104d86127d7565b3480156108d257600080fd5b506104d86127e3565b3480156108e757600080fd5b506108fb6108f63660046148b3565b6127e9565b6040516103d29a99989796959493929190615cd6565b34801561091d57600080fd5b5061039e61092c366004614785565b612a40565b34801561093d57600080fd5b5061039e61094c366004614893565b612a79565b34801561095d57600080fd5b5061043461096c3660046148b3565b612ac7565b34801561097d57600080fd5b506104d861098c3660046148b3565b612c11565b34801561099d57600080fd5b5061039e6109ac3660046146f6565b612c28565b3480156109bd57600080fd5b506104d8612c85565b3480156109d257600080fd5b5061039e6109e13660046148e3565b612c91565b3480156109f257600080fd5b50610434612ccb565b348015610a0757600080fd5b506103c5610a16366004614711565b612d59565b348015610a2757600080fd5b506104d8612d87565b348015610a3c57600080fd5b506104d8612d8d565b348015610a5157600080fd5b506104d8612d93565b348015610a6657600080fd5b506104d8612e5c565b348015610a7b57600080fd5b50610a8f610a8a3660046148b3565b610b8c565b6040516103d29190615128565b8015610b4c576000610ac66064610aba84603c63ffffffff612eb916565b9063ffffffff612e6216565b6019546040519192506001600160a01b03169082156108fc029083906000818181858888f19350505050158015610b01573d6000803e3d6000fd5b50601a546001600160a01b03166108fc610b21848463ffffffff612ef316565b6040518115909202916000818181858888f19350505050158015610b49573d6000803e3d6000fd5b50505b50565b6001600160e01b0319811660009081526020819052604090205460ff165b919050565b606e81565b6000610b89600f54610aba600b612f35565b90505b90565b60068054604080516020601f6002600019610100600188161502019095169490940493840181900481028201810190925282815260609390929091830182828015610c1b5780601f10610bf057610100808354040283529160200191610c1b565b820191906000526020600020905b815481529060010190602001808311610bfe57829003601f168201915b5050505050905090565b6000610c3082612f39565b610c555760405162461bcd60e51b8152600401610c4c906156e0565b60405180910390fd5b506000908152600460205260409020546001600160a01b031690565b6000610c7c82611758565b9050806001600160a01b0316836001600160a01b03161415610cb05760405162461bcd60e51b8152600401610c4c90615893565b806001600160a01b0316610cc2612f4c565b6001600160a01b03161480610cde5750610cde81610a16612f4c565b610cfa5760405162461bcd60e51b8152600401610c4c90615528565b610b498383612f50565b601881565b604051610d1590615086565b6040518091039020610d278133611db5565b610d435760405162461bcd60e51b8152600401610c4c90615a43565b610d838484848080601f016020809104026020016040519081016040528093929190818152602001838380828437600092019190915250612fbe92505050565b50505050565b6000610b896002613002565b6060610d9f61443e565b5060008781526012602090815260409182902082516102008101845290546001600160801b038116825261ffff600160801b8204169282019290925260ff600160901b8304811693820193909352600160981b820483166060820152600160a01b820483166080820152600160a81b8204831660a0820152600160b01b8204831660c0820152600160b81b8204831660e0820152600160c01b82048316610100820152600160c81b82048316610120820152600160d01b82048316610140820152600160d81b82048316610160820152600160e01b90910482166101808201528782166101a08201528582166101e08201529086166101c082015273__$3521b43f6ab127c26fee7017c8c4b99125$__63bb02cf9e828a610ebf81611758565b610ec9868e61300d565b89896040518763ffffffff1660e01b8152600401610eec96959493929190615c1e565b60006040518083038186803b158015610f0457600080fd5b505af4158015610f18573d6000803e3d6000fd5b505050506040513d6000823e601f3d908101601f19168201604052610f409190810190614b5c565b98975050505050505050565b610f5d610f57612f4c565b8261321d565b610f795760405162461bcd60e51b8152600401610c4c906158d4565b610b498383836132a2565b6000908152600a602052604090206002015490565b6000828152600a6020526040902060020154610fb7906107cb612f4c565b610fd35760405162461bcd60e51b8152600401610c4c9061518b565b610fdd82826133c2565b5050565b6001600160a01b0382166000908152600160205260408120611009908363ffffffff61343116565b90505b92915050565b60405161101e906150b6565b60405180910390206110308133611db5565b61104c5760405162461bcd60e51b8152600401610c4c90615a43565b43821161106b5760405162461bcd60e51b8152600401610c4c906159c0565b50600e55600d805460ff19169055565b611083612f4c565b6001600160a01b0316816001600160a01b0316146110b35760405162461bcd60e51b8152600401610c4c90615afa565b610fdd828261343d565b6110c682611758565b6001600160a01b0316336001600160a01b031614806110fe57506110e982610c25565b6001600160a01b0316336001600160a01b0316145b61111a5760405162461bcd60e51b8152600401610c4c906155cf565b60656111296020830183614d86565b60ff16111561114a5760405162461bcd60e51b8152600401610c4c90615467565b600061115c6040830160208401614d86565b60ff161161117c5760405162461bcd60e51b8152600401610c4c9061583d565b6111896020820182614d86565b6000838152601260205260409020805460ff92909216600160e81b0260ff60e81b199092169190911790558060016020020160208101906111ca9190614d86565b6000838152601260205260409020805460ff92909216600160f01b0260ff60f01b1990921691909117905580600260200201602081019061120b9190614d86565b600092835260126020526040909220805460ff93909316600160f81b026001600160f81b039093169290921790915550565b600061124761443e565b505060009081526012602090815260409182902082516102008101845290546001600160801b03811680835261ffff600160801b8304169383019390935260ff600160901b8204811694830194909452600160981b810484166060830152600160a01b810484166080830152600160a81b8104841660a0830152600160b01b8104841660c0830152600160b81b8104841660e0830152600160c01b81048416610100830152600160c81b81048416610120830152600160d01b81048416610140830152600160d81b81048416610160830152600160e01b81048416610180830152600160e81b810484166101a0830152600160f01b810484166101c0830152600160f81b90049092166101e09092019190915290565b610b4983838360405180602001604052806000815250612a40565b606060656113896020870187614d86565b60ff1611156113aa5760405162461bcd60e51b8152600401610c4c90615a1c565b61143f6113ba60208b018b614d86565b6113ca60408c0160208d01614d86565b604080516060818101909252908e9060039083908390808284376000920191909152505060408051608081810190925291508d9060049083908390808284376000920191909152505060408051808201825291508d906002908390839080828437600092019190915250600191506134ac9050565b61144761443e565b6040518061020001604052806114928f8f8080601f01602080910402602001604051908101604052809392919081815260200183838082843760009201919091525061364492505050565b6001600160801b031681526020908101906114af908e018e614c77565b61ffff1681526020908101906114cb9060408f01908f01614c77565b60ff1681526020016114e360608e0160408f01614c77565b60ff1681526020908101906114fa908d018d614d86565b60ff1681526020908101906115159060408e01908e01614d86565b60ff16815260209081019061152c908c018c614d86565b60ff1681526020908101906115479060408d01908d01614d86565b60ff16815260200161155f60608c0160408d01614d86565b60ff16815260200161157760808c0160608d01614d86565b60ff16815260209081019061158e908b018b614d86565b60ff1681526020908101906115a99060408c01908c01614d86565b60ff9081168252891660208201526040018760006020020160208101906115d09190614d86565b60ff1681526020908101906115eb9060408a01908a01614d86565b60ff1681526020016116036060890160408a01614d86565b60ff169052604051635d8167cf60e11b815290915073__$3521b43f6ab127c26fee7017c8c4b99125$__9063bb02cf9e9061164d90849060009081908b908b908b90600401615ba1565b60006040518083038186803b15801561166557600080fd5b505af4158015611679573d6000803e3d6000fd5b505050506040513d6000823e601f3d908101601f191682016040526116a19190810190614b5c565b9150505b9b9a5050505050505050505050565b6000806116c860028463ffffffff61369d16565b509392505050565b60105481565b6040516116e2906150b6565b60405180910390206116f48133611db5565b6117105760405162461bcd60e51b8152600401610c4c90615a43565b610b4983838080601f0160208091040260200160405190810160405280939291908181526020018383808284376000920191909152506136bb92505050565b600d5460ff1681565b600061100c82604051806060016040528060298152602001615e74602991396002919063ffffffff6136ce16565b60098054604080516020601f6002600019610100600188161502019095169490940493840181900481028201810190925282815260609390929091830182828015610c1b5780601f10610bf057610100808354040283529160200191610c1b565b60006001600160a01b03821661180f5760405162461bcd60e51b8152600401610c4c90615585565b6001600160a01b038216600090815260016020526040902061100c90613002565b600b81565b604051611841906150b6565b604051809103902081565b600e5481565b60405161185e906150b6565b60405180910390206118708133611db5565b61188c5760405162461bcd60e51b8152600401610c4c90615a43565b601854611899600c612f35565b106118b65760405162461bcd60e51b8152600401610c4c90615218565b60006118c2600c612f35565b6017540390506118d283826136db565b610b49600c6136f5565b600d5460ff16156118ff5760405162461bcd60e51b8152600401610c4c906151da565b3361190982611758565b6001600160a01b03161461192f5760405162461bcd60e51b8152600401610c4c906159a2565b600081815260126020526040902054600160a01b900460ff16156119655760405162461bcd60e51b8152600401610c4c90615984565b6119e387878760038060200260405190810160405280929190826003602002808284376000920191909152505060408051608081810190925291508990600490839083908082843760009201919091525050604080518082018252915089906002908390839080828437600092019190915250600191506134ac9050565b6040805161020081019091526001600160801b0389168152602080820190611a0d90880188614c77565b61ffff168152602090810190611a299060408901908901614c77565b60ff168152602001611a416060880160408901614c77565b60ff9081168252898116602083015288166040820152606001856000602002016020810190611a709190614d86565b60ff168152602090810190611a8b9060408801908801614d86565b60ff168152602001611aa36060870160408801614d86565b60ff168152602001611abb6080870160608801614d86565b60ff168152602090810190611ad290860186614d86565b60ff168152602090810190611aed9060408701908701614d86565b60ff1681526020018360ff168152602001600060ff168152602001600a60ff168152602001600160ff168152506012600083815260200190815260200160002060008201518160000160006101000a8154816001600160801b0302191690836001600160801b0316021790555060208201518160000160106101000a81548161ffff021916908361ffff16021790555060408201518160000160126101000a81548160ff021916908360ff16021790555060608201518160000160136101000a81548160ff021916908360ff16021790555060808201518160000160146101000a81548160ff021916908360ff16021790555060a08201518160000160156101000a81548160ff021916908360ff16021790555060c08201518160000160166101000a81548160ff021916908360ff16021790555060e08201518160000160176101000a81548160ff021916908360ff1602179055506101008201518160000160186101000a81548160ff021916908360ff1602179055506101208201518160000160196101000a81548160ff021916908360ff16021790555061014082015181600001601a6101000a81548160ff021916908360ff16021790555061016082015181600001601b6101000a81548160ff021916908360ff16021790555061018082015181600001601c6101000a81548160ff021916908360ff1602179055506101a082015181600001601d6101000a81548160ff021916908360ff1602179055506101c082015181600001601e6101000a81548160ff021916908360ff1602179055506101e082015181600001601f6101000a81548160ff021916908360ff1602179055509050507feaa4f184b7f3d10bde81fc2d884889a91fbadf176d0ecc02895ab30b5aba08ef81604051611d859190614fbc565b60405180910390a15050505050505050565b6000828152600a60205260408120611009908363ffffffff61343116565b6000828152600a60205260408120611009908363ffffffff6136fe16565b604051611ddf906150b6565b6040518091039020611df18133611db5565b611e0d5760405162461bcd60e51b8152600401610c4c90615a43565b610d83601b84846144c2565b6000806000611e2661443e565b5050506000918252506012602090815260409182902082516102008101845290546001600160801b038116825261ffff600160801b8204169282019290925260ff600160901b8304811693820193909352600160981b820483166060820152600160a01b820483166080820152600160a81b8204831660a0820152600160b01b8204831660c0820152600160b81b8204831660e0820152600160c01b82048316610100820152600160c81b82048316610120820152600160d01b82048316610140820152600160d81b82048316610160820152600160e01b82048316610180820152600160e81b820483166101a08201819052600160f01b830484166101c08301819052600160f81b9093049093166101e09091018190529192909190565b60078054604080516020601f6002600019610100600188161502019095169490940493840181900481028201810190925282815260609390929091830182828015610c1b5780601f10610bf057610100808354040283529160200191610c1b565b600d5460009060ff1615611fcc5760405162461bcd60e51b8152600401610c4c906151da565b600e54431015611fee5760405162461bcd60e51b8152600401610c4c906151fa565b606e611ffa600b612f35565b106120175760405162461bcd60e51b8152600401610c4c906152b2565b6120218284613713565b61209c89898960038060200260405190810160405280929190826003602002808284376000920191909152505060408051608081810190925291508b9060049083908390808284376000920191909152505060408051808201825291508b906002908390839080828437600092018290525091506134ac9050565b6001600160a01b0383166120c25760405162461bcd60e51b8152600401610c4c90615aca565b60006120ce600b612f35565b90506120da600b6136f5565b6120f6600f546120ea600b612f35565b9063ffffffff61388b16565b61212b5761212761211a612108610b77565b6011549060ff1663ffffffff612eb916565b439063ffffffff6138cd16565b600e555b600061216c8d8d8080601f01602080910402602001604051908101604052809392919081815260200183838082843760009201919091525061364492505050565b9050600061217a83836138f2565b9050604051806102000160405280826001600160801b031681526020018b6000600381106121a457fe5b6020020160208101906121b79190614c77565b61ffff16815260200160c86001600160801b038416066001600160801b03166000146121f2576121ed60408d0160208e01614c77565b6121f5565b60005b60ff16815260200161220d60608d0160408e01614c77565b60ff90811682528e811660208301528d1660408201526060018a600060200201602081019061223c9190614d86565b60ff1681526020908101906122579060408d01908d01614d86565b60ff16815260200161226f60608c0160408d01614d86565b60ff16815260200161228760808c0160608d01614d86565b60ff16815260209081019061229e908b018b614d86565b60ff1681526020908101906122b99060408c01908c01614d86565b60ff1681526020018860ff168152602001600060ff168152602001600a60ff168152602001600160ff168152506012600085815260200190815260200160002060008201518160000160006101000a8154816001600160801b0302191690836001600160801b0316021790555060208201518160000160106101000a81548161ffff021916908361ffff16021790555060408201518160000160126101000a81548160ff021916908360ff16021790555060608201518160000160136101000a81548160ff021916908360ff16021790555060808201518160000160146101000a81548160ff021916908360ff16021790555060a08201518160000160156101000a81548160ff021916908360ff16021790555060c08201518160000160166101000a81548160ff021916908360ff16021790555060e08201518160000160176101000a81548160ff021916908360ff1602179055506101008201518160000160186101000a81548160ff021916908360ff1602179055506101208201518160000160196101000a81548160ff021916908360ff16021790555061014082015181600001601a6101000a81548160ff021916908360ff16021790555061016082015181600001601b6101000a81548160ff021916908360ff16021790555061018082015181600001601c6101000a81548160ff021916908360ff1602179055506101a082015181600001601d6101000a81548160ff021916908360ff1602179055506101c082015181600001601e6101000a81548160ff021916908360ff1602179055506101e082015181600001601f6101000a81548160ff021916908360ff16021790555090505061252c86846136db565b5050509a9950505050505050505050565b60145481565b600081565b612550612f4c565b6001600160a01b0316826001600160a01b031614156125815760405162461bcd60e51b8152600401610c4c906153ef565b806005600061258e612f4c565b6001600160a01b03908116825260208083019390935260409182016000908120918716808252919093529120805460ff1916921515929092179091556125d2612f4c565b6001600160a01b03167f17307eab39ab6107e8899845ad3d59bd9653f200f220920489ca2b5937696c318360405161260a919061511d565b60405180910390a35050565b606061262061443e565b5060008281526012602090815260409182902082516102008101845290546001600160801b038116825261ffff600160801b8204169282019290925260ff600160901b8304811693820193909352600160981b820483166060820152600160a01b820483166080820152600160a81b8204831660a0820152600160b01b8204831660c0820152600160b81b8204831660e0820152600160c01b82048316610100820152600160c81b82048316610120820152600160d01b82048316610140820152600160d81b82048316610160820152600160e01b82048316610180820152600160e81b820483166101a0820152600160f01b820483166101c0820152600160f81b9091049091166101e082015273__$3521b43f6ab127c26fee7017c8c4b99125$__63bb02cf9e828561275381611758565b61275d868961300d565b6040518563ffffffff1660e01b815260040161277c9493929190615c67565b60006040518083038186803b15801561279457600080fd5b505af41580156127a8573d6000803e3d6000fd5b505050506040513d6000823e601f3d908101601f191682016040526127d09190810190614b5c565b9392505050565b6040516118419061509f565b600f5481565b60008060006127f661453c565b6127fe61455a565b6000612808614578565b600080600061281561443e565b5060008b81526012602090815260409182902082516102008101845290546001600160801b038116825261ffff600160801b8204169282019290925260ff600160901b8304811693820193909352600160981b820483166060820152600160a01b820483166080820152600160a81b8204831660a0820152600160b01b8204831660c0820152600160b81b8204831660e0820152600160c01b82048316610100820152600160c81b82048316610120820152600160d01b82048316610140820152600160d81b82048316610160820152600160e01b82048316610180820152600160e81b820483166101a0820152600160f01b820483166101c0820152600160f81b9091049091166101e082015261292b61453c565b612935828e61300d565b9050806000602002015160ff169b50806001602002015192508060026020020151935080600360200201519450816101800151965081608001519a508160a0015199506040518060600160405280836020015161ffff1661ffff168152602001836040015160ff1661ffff168152602001836060015160ff1661ffff16815250955060405180608001604052808360c0015160ff1660ff1681526020018360e0015160ff1660ff16815260200183610100015160ff1660ff16815260200183610120015160ff1660ff168152509850604051806040016040528083610140015160ff1660ff16815260200183610160015160ff1660ff16815250975050509193959799509193959799565b612a51612a4b612f4c565b8361321d565b612a6d5760405162461bcd60e51b8152600401610c4c906158d4565b610d83848484846139b8565b604051612a85906150b6565b6040518091039020612a978133611db5565b612ab35760405162461bcd60e51b8152600401610c4c90615a43565b50600d805460ff1916911515919091179055565b6060612ad282612f39565b612aee5760405162461bcd60e51b8152600401610c4c906157ee565b60008281526008602090815260409182902080548351601f6002600019610100600186161502019093169290920491820184900484028101840190945280845260609392830182828015612b835780601f10612b5857610100808354040283529160200191612b83565b820191906000526020600020905b815481529060010190602001808311612b6657829003601f168201915b505060095493945050505060026000196101006001841615020190911604612bac579050610b6d565b805115612bde57600981604051602001612bc7929190615005565b604051602081830303815290604052915050610b6d565b6009612be9846139eb565b604051602001612bfa929190615005565b604051602081830303815290604052915050919050565b6000818152600a6020526040812061100c90613002565b604051612c34906150b6565b6040518091039020612c468133611db5565b612c625760405162461bcd60e51b8152600401610c4c90615a43565b50601380546001600160a01b0319166001600160a01b0392909216919091179055565b60405161184190615086565b6000828152600a6020526040902060020154612caf906107cb612f4c565b6110b35760405162461bcd60e51b8152600401610c4c906154d8565b601b805460408051602060026001851615610100026000190190941693909304601f81018490048402820184019092528181529291830182828015612d515780601f10612d2657610100808354040283529160200191612d51565b820191906000526020600020905b815481529060010190602001808311612d3457829003601f168201915b505050505081565b6001600160a01b03918216600090815260056020908152604080832093909416825291909152205460ff1690565b60165481565b60155481565b6000604051612da1906150b6565b6040518091039020612db38133611db5565b612dcf5760405162461bcd60e51b8152600401610c4c90615a43565b601360009054906101000a90046001600160a01b03166001600160a01b031663990c8f796040518163ffffffff1660e01b815260040160206040518083038186803b158015612e1d57600080fd5b505afa158015612e31573d6000803e3d6000fd5b505050506040513d601f19601f82011682018060405250810190612e5591906148cb565b91505b5090565b60115481565b600061100983836040518060400160405280601a81526020017f536166654d6174683a206469766973696f6e206279207a65726f000000000000815250613ac6565b6000611009836001600160a01b038416613afd565b600082612ec85750600061100c565b82820282848281612ed557fe5b04146110095760405162461bcd60e51b8152600401610c4c9061569f565b600061100983836040518060400160405280601e81526020017f536166654d6174683a207375627472616374696f6e206f766572666c6f770000815250613b47565b5490565b600061100c60028363ffffffff613b7316565b3390565b600081815260046020526040902080546001600160a01b0319166001600160a01b0384169081179091558190612f8582611758565b6001600160a01b03167f8c5be1e5ebec7d5bd14f71427d1e84f3dd0314c0f7b2291e5b200ac8c7c3b92560405160405180910390a45050565b612fc782612f39565b612fe35760405162461bcd60e51b8152600401610c4c9061572c565b60008281526008602090815260409091208251610b4992840190614596565b600061100c82612f35565b61301561453c565b606e8210156131c657606061303684600001516001600160801b0316613b7f565b9050613040614604565b506040805160e0810182526001808252600260208301819052600593830184905260096060840152608083019390935260a082019290925260c0810191909152613088614622565b506040805161030081018252600180825260208201819052918101829052606081018290526080810182905260a0810182905260c0810182905260e08101829052610100810182905261012081018290526101408101829052610160810182905261018081018290526101a081018290526101c081018290526101e08101829052610200810182905261022081018290526102408101829052610260810182905261028081018290526102a081018290526102c081018290526102e081019190915261315c8382601863ffffffff613c3616565b60ff168452600f5461316f908690612e62565b60ff166020850152613197600161318885856019613ca6565b60ff169063ffffffff6138cd16565b60ff908116604086015260608701516131b591859160009116613cf7565b60ff1660608501525061100c915050565b825160ff6001607b1b6001600160801b03928316041682528351600160771b90821604600f1660208301528351600160741b90821604600716604083015292516001606d1b931692909204607f1660608301525090565b600061322882612f39565b6132445760405162461bcd60e51b8152600401610c4c9061548c565b600061324f83611758565b9050806001600160a01b0316846001600160a01b0316148061328a5750836001600160a01b031661327f84610c25565b6001600160a01b0316145b8061329a575061329a8185612d59565b949350505050565b826001600160a01b03166132b582611758565b6001600160a01b0316146132db5760405162461bcd60e51b8152600401610c4c906157a5565b6001600160a01b0382166133015760405162461bcd60e51b8152600401610c4c906153ab565b61330c838383610b49565b613317600082612f50565b6001600160a01b038316600090815260016020526040902061333f908263ffffffff613d3a16565b506001600160a01b0382166000908152600160205260409020613368908263ffffffff613d4616565b5061337b6002828463ffffffff613d5216565b5080826001600160a01b0316846001600160a01b03167fddf252ad1be2c89b69c2b068fc378daa952ba7f163c4a11628f55a4df523b3ef60405160405180910390a4505050565b6000828152600a602052604090206133e0908263ffffffff612ea416565b15610fdd576133ed612f4c565b6001600160a01b0316816001600160a01b0316837f2f8788117e7eff1d82e926ec794901d17c78024a50270940304540a733656f0d60405160405180910390a45050565b60006110098383613d68565b6000828152600a6020526040902061345b908263ffffffff613dad16565b15610fdd57613468612f4c565b6001600160a01b0316816001600160a01b0316837ff6391f5c32d9c69d2a47ea670b442974b53935d1edc7fd64eb21e047a839171b60405160405180910390a45050565b60008660ff161180156134c25750601f8660ff16105b6134de5760405162461bcd60e51b8152600401610c4c90615778565b8560ff168560ff1611156135045760405162461bcd60e51b8152600401610c4c90615381565b610168846002602002015161ffff1611156135315760405162461bcd60e51b8152600401610c4c90615239565b6064846001602002015161ffff16111561355d5760405162461bcd60e51b8152600401610c4c90615867565b8061358e576014846001602002015161ffff16101561358e5760405162461bcd60e51b8152600401610c4c90615867565b6064846002602002015161ffff1611156135ba5760405162461bcd60e51b8152600401610c4c90615b49565b6020830151835160ff918216911611156135e65760405162461bcd60e51b8152600401610c4c90615b74565b6060830151604084015160ff918216911611156136155760405162461bcd60e51b8152600401610c4c906159ee565b8151606460ff909116111561363c5760405162461bcd60e51b8152600401610c4c9061595c565b505050505050565b600081815b815181101561369657600082828151811061366057fe5b016020015160f81c90506030811080159061367c575060398111155b1561368d576030810384600a020193505b50600101613649565b5050919050565b60008080806136ac8686613dc2565b909450925050505b9250929050565b8051610fdd906009906020840190614596565b600061329a848484613e1e565b610fdd828260405180602001604052806000815250613e7d565b80546001019055565b6000611009836001600160a01b038416613eb0565b6014543410156137355760405162461bcd60e51b8152600401610c4c906155fb565b6014543411156137835760145433906108fc9061375990349063ffffffff612ef316565b6040518115909202916000818181858888f19350505050158015613781573d6000803e3d6000fd5b505b600061378e83612f39565b61379857326137a1565b6137a183611758565b905060006137ae326117e7565b156137bb576015546137bf565b6016545b905060006001600160a01b03831633148015906137e557506001600160a01b0383163214155b80156138035750836001600160a01b0316836001600160a01b031614155b61380e576000613828565b6138286064610aba84601454612eb990919063ffffffff16565b90508015613868576040516001600160a01b0384169082156108fc029083906000818181858888f19350505050158015613866573d6000803e3d6000fd5b505b6014546138849061387f908363ffffffff612ef316565b610a9c565b5050505050565b600061100983836040518060400160405280601881526020017f536166654d6174683a206d6f64756c6f206279207a65726f0000000000000000815250613ec8565b6000828201838110156110095760405162461bcd60e51b8152600401610c4c90615313565b600080601360009054906101000a90046001600160a01b03166001600160a01b031663990c8f796040518163ffffffff1660e01b815260040160206040518083038186803b15801561394357600080fd5b505afa158015613957573d6000803e3d6000fd5b505050506040513d601f19601f8201168201806040525081019061397b91906148cb565b848460405160200161398f93929190614fd3565b60408051808303601f1901815291905280516020909101206001600160801b0316949350505050565b6139c38484846132a2565b6139cf84848484613efc565b610d835760405162461bcd60e51b8152600401610c4c90615260565b606081613a1057506040805180820190915260018152600360fc1b6020820152610b6d565b8160005b8115613a2857600101600a82049150613a14565b60608167ffffffffffffffff81118015613a4157600080fd5b506040519080825280601f01601f191660200182016040528015613a6c576020820181803683370190505b50859350905060001982015b8315613abd57600a840660300160f81b82828060019003935081518110613a9b57fe5b60200101906001600160f81b031916908160001a905350600a84049350613a78565b50949350505050565b60008183613ae75760405162461bcd60e51b8152600401610c4c9190615136565b506000838581613af357fe5b0495945050505050565b6000613b098383613eb0565b613b3f5750815460018181018455600084815260208082209093018490558454848252828601909352604090209190915561100c565b50600061100c565b60008184841115613b6b5760405162461bcd60e51b8152600401610c4c9190615136565b505050900390565b60006110098383613eb0565b60408051600380825260808201909252606091600291839160208201838036833701905050905060008085604051602001613bbb929190614fc5565b60408051601f198184030181529190528051602090910120905060005b83811015613c2c57804082604051602001613bf4929190614fc5565b60405160208183030381529060405280519060200120838260010181518110613c1957fe5b6020908102919091010152600101613bd8565b5090949350505050565b600080613c488560018560ff16613cf7565b90506000805b60188160ff161015613c9c57613c81868260ff1660188110613c6c57fe5b6020020151839060ff1663ffffffff613fe116565b9150818313613c945792506127d0915050565b600101613c4e565b5050509392505050565b600080613cb88560018560ff16613cf7565b90506000805b60078160ff161015613c9c57613cdc868260ff1660078110613c6c57fe5b9150818313613cef5792506127d0915050565b600101613cbe565b600081831315613d195760405162461bcd60e51b8152600401610c4c90615a95565b82838303600101613d2986614027565b81613d3057fe5b0601949350505050565b6000611009838361410a565b60006110098383613afd565b600061329a84846001600160a01b0385166141d0565b81546000908210613d8b5760405162461bcd60e51b8152600401610c4c90615149565b826000018281548110613d9a57fe5b9060005260206000200154905092915050565b6000611009836001600160a01b03841661410a565b815460009081908310613de75760405162461bcd60e51b8152600401610c4c90615628565b6000846000018481548110613df857fe5b906000526020600020906002020190508060000154816001015492509250509250929050565b60008281526001840160205260408120548281613e4e5760405162461bcd60e51b8152600401610c4c9190615136565b50846000016001820381548110613e6157fe5b9060005260206000209060020201600101549150509392505050565b613e878383614267565b613e946000848484613efc565b610b495760405162461bcd60e51b8152600401610c4c90615260565b60009081526001919091016020526040902054151590565b60008183613ee95760405162461bcd60e51b8152600401610c4c9190615136565b50828481613ef357fe5b06949350505050565b6000613f10846001600160a01b0316614337565b613f1c5750600161329a565b6060613faa630a85bd0160e11b613f31612f4c565b888787604051602401613f4794939291906150e0565b604051602081830303815290604052906001600160e01b0319166020820180516001600160e01b038381831617835250505050604051806060016040528060328152602001615e42603291396001600160a01b038816919063ffffffff61437016565b9050600081806020019051810190613fc29190614944565b6001600160e01b031916630a85bd0160e11b1492505050949350505050565b6000828201818312801590613ff65750838112155b8061400b575060008312801561400b57508381125b6110095760405162461bcd60e51b8152600401610c4c90615426565b6000600182511161404a5760405162461bcd60e51b8152600401610c4c9061534a565b600060018351038360008151811061405e57fe5b602002602001015160001c8161407057fe5b066001019050600083828151811061408457fe5b602002602001015160405160200161409c9190614fbc565b604051602081830303815290604052805190602001209050836000815181106140c157fe5b602002602001015160001c60010160001b846000815181106140df57fe5b602002602001018181525050808483815181106140f857fe5b60209081029190910101529392505050565b600081815260018301602052604081205480156141c6578354600019808301919081019060009087908390811061413d57fe5b906000526020600020015490508087600001848154811061415a57fe5b60009182526020808320909101929092558281526001898101909252604090209084019055865487908061418a57fe5b6001900381819060005260206000200160009055905586600101600087815260200190815260200160002060009055600194505050505061100c565b600091505061100c565b6000828152600184016020526040812054806142355750506040805180820182528381526020808201848152865460018181018955600089815284812095516002909302909501918255915190820155865486845281880190925292909120556127d0565b8285600001600183038154811061424857fe5b90600052602060002090600202016001018190555060009150506127d0565b6001600160a01b03821661428d5760405162461bcd60e51b8152600401610c4c9061566a565b61429681612f39565b156142b35760405162461bcd60e51b8152600401610c4c906152dc565b6142bf60008383610b49565b6001600160a01b03821660009081526001602052604090206142e7908263ffffffff613d4616565b506142fa6002828463ffffffff613d5216565b5060405181906001600160a01b038416906000907fddf252ad1be2c89b69c2b068fc378daa952ba7f163c4a11628f55a4df523b3ef908290a45050565b6000813f7fc5d2460186f7233c927e7db2dcc703c0e500b653ca82273b7bfad8045d85a47081811480159061329a575050151592915050565b606061329a8484600085606061438585614337565b6143a15760405162461bcd60e51b8152600401610c4c90615925565b60006060866001600160a01b031685876040516143be9190614fe9565b60006040518083038185875af1925050503d80600081146143fb576040519150601f19603f3d011682016040523d82523d6000602084013e614400565b606091505b5091509150811561441457915061329a9050565b8051156144245780518082602001fd5b8360405162461bcd60e51b8152600401610c4c9190615136565b6040805161020081018252600080825260208201819052918101829052606081018290526080810182905260a0810182905260c0810182905260e08101829052610100810182905261012081018290526101408101829052610160810182905261018081018290526101a081018290526101c081018290526101e081019190915290565b828054600181600116156101000203166002900490600052602060002090601f016020900481019282601f106145035782800160ff19823516178555614530565b82800160010185558215614530579182015b82811115614530578235825591602001919060010190614515565b50612e58929150614641565b60405180608001604052806004906020820280368337509192915050565b60405180604001604052806002906020820280368337509192915050565b60405180606001604052806003906020820280368337509192915050565b828054600181600116156101000203166002900490600052602060002090601f016020900481019282601f106145d757805160ff1916838001178555614530565b82800160010185558215614530579182015b828111156145305782518255916020019190600101906145e9565b6040518060e001604052806007906020820280368337509192915050565b6040518061030001604052806018906020820280368337509192915050565b610b8c91905b80821115612e585760008155600101614647565b80356001600160a01b038116811461100c57600080fd5b806060810183101561100c57600080fd5b806040810183101561100c57600080fd5b806080810183101561100c57600080fd5b60008083601f8401126146b6578182fd5b50813567ffffffffffffffff8111156146cd578182fd5b6020830191508360208285010111156136b457600080fd5b803560ff8116811461100c57600080fd5b600060208284031215614707578081fd5b611009838361465b565b60008060408385031215614723578081fd5b61472d848461465b565b915061473c846020850161465b565b90509250929050565b600080600060608486031215614759578081fd5b833561476481615e16565b9250602084013561477481615e16565b929592945050506040919091013590565b6000806000806080858703121561479a578081fd5b6147a4868661465b565b93506147b3866020870161465b565b925060408501359150606085013567ffffffffffffffff8111156147d5578182fd5b80860187601f8201126147e6578283fd5b803591506147fb6147f683615dc6565b615d9f565b82815288602084840101111561480f578384fd5b8260208301602083013791820160200192909252939692955090935050565b60008060408385031215614840578182fd5b61484a848461465b565b91506020830135801515811461485e578182fd5b809150509250929050565b6000806040838503121561487b578182fd5b614885848461465b565b946020939093013593505050565b6000602082840312156148a4578081fd5b81358015158114611009578182fd5b6000602082840312156148c4578081fd5b5035919050565b6000602082840312156148dc578081fd5b5051919050565b600080604083850312156148f5578081fd5b82359150602083013561485e81615e16565b60008060408385031215614919578182fd5b50508035926020909101359150565b600060208284031215614939578081fd5b813561100981615e2b565b600060208284031215614955578081fd5b815161100981615e2b565b60008060208385031215614972578182fd5b823567ffffffffffffffff811115614988578283fd5b614994858286016146a5565b90969095509350505050565b60008060008060008060008060008060006102a08c8e0312156149c1578889fd5b67ffffffffffffffff808d3511156149d757898afd5b6149e48e8e358f016146a5565b909c509a506149f68e60208f01614672565b9950614a058e60808f01614683565b9850614a148e60c08f01614694565b9750614a248e6101408f01614683565b9650614a348e6101808f016146e5565b9550614a448e6101a08f01614672565b9450614a548e6102008f01614694565b9350806102808e01351115614a67578283fd5b50614a798d6102808e01358e016146a5565b81935080925050509295989b509295989b9093969950565b6000806000806000806000806000806101e08b8d031215614ab0578384fd5b8a3567ffffffffffffffff811115614ac6578485fd5b614ad28d828e016146a5565b909b509950614ae690508c60208d016146e5565b9750614af58c60408d016146e5565b9650614b048c60608d01614672565b9550614b138c60c08d01614694565b9450614b238c6101408d01614683565b9350614b338c6101808d016146e5565b9250614b438c6101a08d0161465b565b91506101c08b013590509295989b9194979a5092959850565b600060208284031215614b6d578081fd5b815167ffffffffffffffff811115614b83578182fd5b80830184601f820112614b94578283fd5b80519150614ba46147f683615dc6565b828152856020848401011115614bb8578384fd5b614bc9836020830160208501615dea565b95945050505050565b6000806000806000806000806101c0898b031215614bee578182fd5b88356001600160801b0381168114614c04578283fd5b9750614c138a60208b016146e5565b9650614c228a60408b016146e5565b9550614c318a60608b01614672565b9450614c408a60c08b01614694565b9350614c508a6101408b01614683565b9250614c608a6101808b016146e5565b91506101a089013590509295985092959890939650565b600060208284031215614c88578081fd5b813561ffff81168114611009578182fd5b60008060808385031215614cab578182fd5b8235915061473c8460208501614672565b600080600060408486031215614cd0578081fd5b83359250602084013567ffffffffffffffff811115614ced578182fd5b614cf9868287016146a5565b9497909650939450505050565b60008060008060008060a08789031215614d1e578384fd5b86359550614d2f88602089016146e5565b9450614d3e88604089016146e5565b9350614d4d88606089016146e5565b9250608087013567ffffffffffffffff811115614d68578283fd5b614d7489828a016146a5565b979a9699509497509295939492505050565b600060208284031215614d97578081fd5b61100983836146e5565b8060005b6003811015610d8357815161ffff16845260209384019390910190600101614da5565b8060005b6002811015610d8357815160ff16845260209384019390910190600101614dcc565b8060005b6004811015610d8357815160ff16845260209384019390910190600101614df2565b60008151808452614e2c816020860160208601615dea565b601f01601f19169290920160200192915050565b60008284528282602086013780602084860101526020601f19601f85011685010190509392505050565b614e75828251614fa0565b6020810151614e876020840182614fad565b506040810151614e9a6040840182614fb5565b506060810151614ead6060840182614fb5565b506080810151614ec06080840182614fb5565b5060a0810151614ed360a0840182614fb5565b5060c0810151614ee660c0840182614fb5565b5060e0810151614ef960e0840182614fb5565b5061010080820151614f0d82850182614fb5565b505061012080820151614f2282850182614fb5565b505061014080820151614f3782850182614fb5565b505061016080820151614f4c82850182614fb5565b505061018080820151614f6182850182614fb5565b50506101a080820151614f7682850182614fb5565b50506101c080820151614f8b82850182614fb5565b50506101e080820151610d8382850182614fb5565b6001600160801b03169052565b61ffff169052565b60ff169052565b90815260200190565b918252602082015260400190565b9283526020830191909152604082015260600190565b60008251614ffb818460208701615dea565b9190910192915050565b6000808454600180821660008114615024576001811461503b5761506a565b60ff198316865260028304607f168601935061506a565b600283048886526020808720875b838110156150625781548a820152908501908201615049565b505050860193505b505050835161507d818360208801615dea565b01949350505050565b6c414e494d41544f525f524f4c4560981b8152600d0190565b6a4152544953545f524f4c4560a81b8152600b0190565b6941444d494e5f524f4c4560b01b8152600a0190565b6001600160a01b0391909116815260200190565b6001600160a01b038581168252841660208201526040810183905260806060820181905260009061511390830184614e14565b9695505050505050565b901515815260200190565b60009190910b815260200190565b6000602082526110096020830184614e14565b60208082526022908201527f456e756d657261626c655365743a20696e646578206f7574206f6620626f756e604082015261647360f01b606082015260800190565b6020808252602f908201527f416363657373436f6e74726f6c3a2073656e646572206d75737420626520616e60408201526e0818591b5a5b881d1bc819dc985b9d608a1b606082015260800190565b60208082526006908201526514185d5cd95960d21b604082015260600190565b60208082526004908201526315d0525560e21b604082015260600190565b6020808252600790820152664e4f204d4f524560c81b604082015260600190565b6020808252600d908201526c34b73b30b634b21031b7b637b960991b604082015260600190565b60208082526032908201527f4552433732313a207472616e7366657220746f206e6f6e20455243373231526560408201527131b2b4bb32b91034b6b83632b6b2b73a32b960711b606082015260800190565b60208082526010908201526f20a92a1029a0a6229024a99027ab22a960811b604082015260600190565b6020808252601c908201527f4552433732313a20746f6b656e20616c7265616479206d696e74656400000000604082015260600190565b6020808252601b908201527f536166654d6174683a206164646974696f6e206f766572666c6f770000000000604082015260600190565b60208082526019908201527f52616e646f6d2e6e6578743a20696e76616c696420706f6f6c00000000000000604082015260600190565b60208082526010908201526f696e76616c6964206861746368696e6760801b604082015260600190565b60208082526024908201527f4552433732313a207472616e7366657220746f20746865207a65726f206164646040820152637265737360e01b606082015260800190565b60208082526019908201527f4552433732313a20617070726f766520746f2063616c6c657200000000000000604082015260600190565b60208082526021908201527f5369676e6564536166654d6174683a206164646974696f6e206f766572666c6f6040820152607760f81b606082015260800190565b6020808252600b908201526a496e76616c696420426b6760a81b604082015260600190565b6020808252602c908201527f4552433732313a206f70657261746f7220717565727920666f72206e6f6e657860408201526b34b9ba32b73a103a37b5b2b760a11b606082015260800190565b60208082526030908201527f416363657373436f6e74726f6c3a2073656e646572206d75737420626520616e60408201526f2061646d696e20746f207265766f6b6560801b606082015260800190565b60208082526038908201527f4552433732313a20617070726f76652063616c6c6572206973206e6f74206f7760408201527f6e6572206e6f7220617070726f76656420666f7220616c6c0000000000000000606082015260800190565b6020808252602a908201527f4552433732313a2062616c616e636520717565727920666f7220746865207a65604082015269726f206164647265737360b01b606082015260800190565b602080825260129082015271496e7375662e205065726d697373696f6e7360701b604082015260600190565b6020808252601390820152721a5b9cdd599a58da595b9d081c185e5b595b9d606a1b604082015260600190565b60208082526022908201527f456e756d657261626c654d61703a20696e646578206f7574206f6620626f756e604082015261647360f01b606082015260800190565b6020808252818101527f4552433732313a206d696e7420746f20746865207a65726f2061646472657373604082015260600190565b60208082526021908201527f536166654d6174683a206d756c7469706c69636174696f6e206f766572666c6f6040820152607760f81b606082015260800190565b6020808252602c908201527f4552433732313a20617070726f76656420717565727920666f72206e6f6e657860408201526b34b9ba32b73a103a37b5b2b760a11b606082015260800190565b6020808252602c908201527f4552433732314d657461646174613a2055524920736574206f66206e6f6e657860408201526b34b9ba32b73a103a37b5b2b760a11b606082015260800190565b6020808252601390820152721a5b9d985b1a59081cda185c194818dbdd5b9d606a1b604082015260600190565b60208082526029908201527f4552433732313a207472616e73666572206f6620746f6b656e2074686174206960408201526839903737ba1037bbb760b91b606082015260800190565b6020808252602f908201527f4552433732314d657461646174613a2055524920717565727920666f72206e6f60408201526e3732bc34b9ba32b73a103a37b5b2b760891b606082015260800190565b60208082526010908201526f24b73b30b634b210223ab930ba34b7b760811b604082015260600190565b60208082526012908201527134b73b30b634b21039b0ba3ab930ba34b7b760711b604082015260600190565b60208082526021908201527f4552433732313a20617070726f76616c20746f2063757272656e74206f776e656040820152603960f91b606082015260800190565b60208082526031908201527f4552433732313a207472616e736665722063616c6c6572206973206e6f74206f6040820152701ddb995c881b9bdc88185c1c1c9bdd9959607a1b606082015260800190565b6020808252601d908201527f416464726573733a2063616c6c20746f206e6f6e2d636f6e7472616374000000604082015260600190565b6020808252600e908201526d1a5b9d985b1a59081cdc1c99585960921b604082015260600190565b6020808252600490820152631554d15160e21b604082015260600190565b6020808252600490820152634e4f504560e01b604082015260600190565b6020808252601490820152734d7573742062652066757475726520626c6f636b60601b604082015260600190565b602080825260149082015273696e76616c6964206865696768742072616e676560601b604082015260600190565b6020808252600d908201526c1092d1c80948125b9d985b1a59609a1b604082015260600190565b60208082526032908201527f43616c6c657220646f736e27742068617665207065726d697373696f6e20746f604082015271103ab9b2903a3434b990333ab731ba34b7b760711b606082015260800190565b6020808252818101527f52616e646f6d2e756e69666f726d3a20696e76616c696420696e74657276616c604082015260600190565b6020808252601690820152750c1e0c0c08149958da5c1a595b9d08125b9d985b1a5960521b604082015260600190565b6020808252602f908201527f416363657373436f6e74726f6c3a2063616e206f6e6c792072656e6f756e636560408201526e103937b632b9903337b91039b2b63360891b606082015260800190565b602080825260119082015270696e76616c6964206c696768746e65737360781b604082015260600190565b602080825260139082015272696e76616c69642077696474682072616e676560681b604082015260600190565b60006102e0615bb0838a614e6a565b61020083018890526001600160a01b038716610220840152610240830186835b6004811015615bfa57602080830160ff615bea82866146e5565b1685529301929150600101615bd0565b505050806102c0840152615c118184018587614e40565b9998505050505050505050565b60006102e0615c2d838a614e6a565b61020083018890526001600160a01b038716610220840152615c53610240840187614dee565b806102c0840152615c118184018587614e40565b60006102e0615c768388614e6a565b61020083018690526001600160a01b038516610220840152615c9c610240840185614dee565b6102c0830181905282015261030001949350505050565b6001600160801b0391909116815260200190565b61ffff91909116815260200190565b8a815260ff8a81166020808401919091528a82166040840152610200830191606084018b60005b6004811015615d1c578151841683529184019190840190600101615cfd565b5050505050615d2e60e0830189614dc8565b615d3c610120830188614fb5565b615d4a610140830187614da1565b615d586101a0830186614fb5565b615d666101c0830185614fb5565b6116a56101e0830184614fb5565b60ff91909116815260200190565b60ff93841681529183166020830152909116604082015260600190565b60405181810167ffffffffffffffff81118282101715615dbe57600080fd5b604052919050565b600067ffffffffffffffff821115615ddc578081fd5b50601f01601f191660200190565b60005b83811015615e05578181015183820152602001615ded565b83811115610d835750506000910152565b6001600160a01b0381168114610b4c57600080fd5b6001600160e01b031981168114610b4c57600080fdfe4552433732313a207472616e7366657220746f206e6f6e20455243373231526563656976657220696d706c656d656e7465724552433732313a206f776e657220717565727920666f72206e6f6e6578697374656e7420746f6b656ea264697066735822122084b8ce4d03120069566fcf1e350563e4ebb4b2e56fa58659060e8150e30d5f2164736f6c6343000608003368747470733a2f2f72696e6b6562792e74696e79626f782e73686f702f54696e79426f7865732e6a736f6e",
  "linkReferences": {
    "contracts/TinyBoxesRenderer.sol": {
      "TinyBoxesRenderer": [
        {
          "length": 20,
          "start": 5311
        },
        {
          "length": 20,
          "start": 7229
        },
        {
          "length": 20,
          "start": 11603
        }
      ]
    }
  },
  "deployedLinkReferences": {
    "contracts/TinyBoxesRenderer.sol": {
      "TinyBoxesRenderer": [
        {
          "length": 20,
          "start": 3740
        },
        {
          "length": 20,
          "start": 5658
        },
        {
          "length": 20,
          "start": 10032
        }
      ]
    }
  }
}