{
  "_format": "hh-sol-artifact-1",
  "contractName": "TinyBoxes",
  "sourceName": "contracts/TinyBoxes.sol",
  "abi": [
    {
      "inputs": [
        {
          "internalType": "address",
          "name": "rand",
          "type": "address"
        },
        {
          "internalType": "address",
          "name": "_renderer",
          "type": "address"
        }
      ],
      "stateMutability": "nonpayable",
      "type": "constructor"
    },
    {
      "anonymous": false,
      "inputs": [
        {
          "indexed": true,
          "internalType": "address",
          "name": "owner",
          "type": "address"
        },
        {
          "indexed": true,
          "internalType": "address",
          "name": "approved",
          "type": "address"
        },
        {
          "indexed": true,
          "internalType": "uint256",
          "name": "tokenId",
          "type": "uint256"
        }
      ],
      "name": "Approval",
      "type": "event"
    },
    {
      "anonymous": false,
      "inputs": [
        {
          "indexed": true,
          "internalType": "address",
          "name": "owner",
          "type": "address"
        },
        {
          "indexed": true,
          "internalType": "address",
          "name": "operator",
          "type": "address"
        },
        {
          "indexed": false,
          "internalType": "bool",
          "name": "approved",
          "type": "bool"
        }
      ],
      "name": "ApprovalForAll",
      "type": "event"
    },
    {
      "anonymous": false,
      "inputs": [
        {
          "indexed": false,
          "internalType": "uint256",
          "name": "id",
          "type": "uint256"
        }
      ],
      "name": "LECreated",
      "type": "event"
    },
    {
      "anonymous": false,
      "inputs": [
        {
          "indexed": true,
          "internalType": "bytes32",
          "name": "role",
          "type": "bytes32"
        },
        {
          "indexed": true,
          "internalType": "bytes32",
          "name": "previousAdminRole",
          "type": "bytes32"
        },
        {
          "indexed": true,
          "internalType": "bytes32",
          "name": "newAdminRole",
          "type": "bytes32"
        }
      ],
      "name": "RoleAdminChanged",
      "type": "event"
    },
    {
      "anonymous": false,
      "inputs": [
        {
          "indexed": true,
          "internalType": "bytes32",
          "name": "role",
          "type": "bytes32"
        },
        {
          "indexed": true,
          "internalType": "address",
          "name": "account",
          "type": "address"
        },
        {
          "indexed": true,
          "internalType": "address",
          "name": "sender",
          "type": "address"
        }
      ],
      "name": "RoleGranted",
      "type": "event"
    },
    {
      "anonymous": false,
      "inputs": [
        {
          "indexed": true,
          "internalType": "bytes32",
          "name": "role",
          "type": "bytes32"
        },
        {
          "indexed": true,
          "internalType": "address",
          "name": "account",
          "type": "address"
        },
        {
          "indexed": true,
          "internalType": "address",
          "name": "sender",
          "type": "address"
        }
      ],
      "name": "RoleRevoked",
      "type": "event"
    },
    {
      "anonymous": false,
      "inputs": [
        {
          "indexed": true,
          "internalType": "address",
          "name": "from",
          "type": "address"
        },
        {
          "indexed": true,
          "internalType": "address",
          "name": "to",
          "type": "address"
        },
        {
          "indexed": true,
          "internalType": "uint256",
          "name": "tokenId",
          "type": "uint256"
        }
      ],
      "name": "Transfer",
      "type": "event"
    },
    {
      "inputs": [],
      "name": "ADMIN_ROLE",
      "outputs": [
        {
          "internalType": "bytes32",
          "name": "",
          "type": "bytes32"
        }
      ],
      "stateMutability": "view",
      "type": "function"
    },
    {
      "inputs": [],
      "name": "ANIMATION_COUNT",
      "outputs": [
        {
          "internalType": "uint8",
          "name": "",
          "type": "uint8"
        }
      ],
      "stateMutability": "view",
      "type": "function"
    },
    {
      "inputs": [],
      "name": "DEFAULT_ADMIN_ROLE",
      "outputs": [
        {
          "internalType": "bytes32",
          "name": "",
          "type": "bytes32"
        }
      ],
      "stateMutability": "view",
      "type": "function"
    },
    {
      "inputs": [],
      "name": "SCHEME_COUNT",
      "outputs": [
        {
          "internalType": "uint8",
          "name": "",
          "type": "uint8"
        }
      ],
      "stateMutability": "view",
      "type": "function"
    },
    {
      "inputs": [],
      "name": "TOKEN_LIMIT",
      "outputs": [
        {
          "internalType": "uint16",
          "name": "",
          "type": "uint16"
        }
      ],
      "stateMutability": "view",
      "type": "function"
    },
    {
      "inputs": [],
      "name": "_tokenIds",
      "outputs": [
        {
          "internalType": "uint256",
          "name": "_value",
          "type": "uint256"
        }
      ],
      "stateMutability": "view",
      "type": "function"
    },
    {
      "inputs": [],
      "name": "_tokenPromoIds",
      "outputs": [
        {
          "internalType": "uint256",
          "name": "_value",
          "type": "uint256"
        }
      ],
      "stateMutability": "view",
      "type": "function"
    },
    {
      "inputs": [
        {
          "internalType": "address",
          "name": "to",
          "type": "address"
        },
        {
          "internalType": "uint256",
          "name": "tokenId",
          "type": "uint256"
        }
      ],
      "name": "approve",
      "outputs": [],
      "stateMutability": "nonpayable",
      "type": "function"
    },
    {
      "inputs": [],
      "name": "avgBlockTime",
      "outputs": [
        {
          "internalType": "uint8",
          "name": "",
          "type": "uint8"
        }
      ],
      "stateMutability": "view",
      "type": "function"
    },
    {
      "inputs": [
        {
          "internalType": "address",
          "name": "owner",
          "type": "address"
        }
      ],
      "name": "balanceOf",
      "outputs": [
        {
          "internalType": "uint256",
          "name": "",
          "type": "uint256"
        }
      ],
      "stateMutability": "view",
      "type": "function"
    },
    {
      "inputs": [],
      "name": "baseURI",
      "outputs": [
        {
          "internalType": "string",
          "name": "",
          "type": "string"
        }
      ],
      "stateMutability": "view",
      "type": "function"
    },
    {
      "inputs": [],
      "name": "blockStart",
      "outputs": [
        {
          "internalType": "uint256",
          "name": "",
          "type": "uint256"
        }
      ],
      "stateMutability": "view",
      "type": "function"
    },
    {
      "inputs": [
        {
          "internalType": "uint256",
          "name": "id",
          "type": "uint256"
        },
        {
          "internalType": "uint8[3]",
          "name": "settings",
          "type": "uint8[3]"
        }
      ],
      "name": "changeSettings",
      "outputs": [],
      "stateMutability": "nonpayable",
      "type": "function"
    },
    {
      "inputs": [],
      "name": "contractURI",
      "outputs": [
        {
          "internalType": "string",
          "name": "",
          "type": "string"
        }
      ],
      "stateMutability": "view",
      "type": "function"
    },
    {
      "inputs": [
        {
          "internalType": "string",
          "name": "_seed",
          "type": "string"
        },
        {
          "internalType": "uint8",
          "name": "shapes",
          "type": "uint8"
        },
        {
          "internalType": "uint8",
          "name": "hatching",
          "type": "uint8"
        },
        {
          "internalType": "uint16[3]",
          "name": "color",
          "type": "uint16[3]"
        },
        {
          "internalType": "uint8[4]",
          "name": "size",
          "type": "uint8[4]"
        },
        {
          "internalType": "uint8[2]",
          "name": "spacing",
          "type": "uint8[2]"
        },
        {
          "internalType": "uint8",
          "name": "mirroring",
          "type": "uint8"
        },
        {
          "internalType": "address",
          "name": "recipient",
          "type": "address"
        },
        {
          "internalType": "uint256",
          "name": "referalID",
          "type": "uint256"
        }
      ],
      "name": "create",
      "outputs": [
        {
          "internalType": "uint256",
          "name": "",
          "type": "uint256"
        }
      ],
      "stateMutability": "payable",
      "type": "function"
    },
    {
      "inputs": [
        {
          "internalType": "uint128",
          "name": "seed",
          "type": "uint128"
        },
        {
          "internalType": "uint8",
          "name": "shapes",
          "type": "uint8"
        },
        {
          "internalType": "uint8",
          "name": "hatching",
          "type": "uint8"
        },
        {
          "internalType": "uint16[3]",
          "name": "color",
          "type": "uint16[3]"
        },
        {
          "internalType": "uint8[4]",
          "name": "size",
          "type": "uint8[4]"
        },
        {
          "internalType": "uint8[2]",
          "name": "spacing",
          "type": "uint8[2]"
        },
        {
          "internalType": "uint8",
          "name": "mirroring",
          "type": "uint8"
        },
        {
          "internalType": "uint256",
          "name": "id",
          "type": "uint256"
        }
      ],
      "name": "createLimitedEdition",
      "outputs": [],
      "stateMutability": "nonpayable",
      "type": "function"
    },
    {
      "inputs": [],
      "name": "currentPhase",
      "outputs": [
        {
          "internalType": "uint8",
          "name": "",
          "type": "uint8"
        }
      ],
      "stateMutability": "view",
      "type": "function"
    },
    {
      "inputs": [
        {
          "internalType": "uint256",
          "name": "tokenId",
          "type": "uint256"
        }
      ],
      "name": "getApproved",
      "outputs": [
        {
          "internalType": "address",
          "name": "",
          "type": "address"
        }
      ],
      "stateMutability": "view",
      "type": "function"
    },
    {
      "inputs": [
        {
          "internalType": "bytes32",
          "name": "role",
          "type": "bytes32"
        }
      ],
      "name": "getRoleAdmin",
      "outputs": [
        {
          "internalType": "bytes32",
          "name": "",
          "type": "bytes32"
        }
      ],
      "stateMutability": "view",
      "type": "function"
    },
    {
      "inputs": [
        {
          "internalType": "bytes32",
          "name": "role",
          "type": "bytes32"
        },
        {
          "internalType": "uint256",
          "name": "index",
          "type": "uint256"
        }
      ],
      "name": "getRoleMember",
      "outputs": [
        {
          "internalType": "address",
          "name": "",
          "type": "address"
        }
      ],
      "stateMutability": "view",
      "type": "function"
    },
    {
      "inputs": [
        {
          "internalType": "bytes32",
          "name": "role",
          "type": "bytes32"
        }
      ],
      "name": "getRoleMemberCount",
      "outputs": [
        {
          "internalType": "uint256",
          "name": "",
          "type": "uint256"
        }
      ],
      "stateMutability": "view",
      "type": "function"
    },
    {
      "inputs": [
        {
          "internalType": "bytes32",
          "name": "role",
          "type": "bytes32"
        },
        {
          "internalType": "address",
          "name": "account",
          "type": "address"
        }
      ],
      "name": "grantRole",
      "outputs": [],
      "stateMutability": "nonpayable",
      "type": "function"
    },
    {
      "inputs": [
        {
          "internalType": "bytes32",
          "name": "role",
          "type": "bytes32"
        },
        {
          "internalType": "address",
          "name": "account",
          "type": "address"
        }
      ],
      "name": "hasRole",
      "outputs": [
        {
          "internalType": "bool",
          "name": "",
          "type": "bool"
        }
      ],
      "stateMutability": "view",
      "type": "function"
    },
    {
      "inputs": [
        {
          "internalType": "address",
          "name": "owner",
          "type": "address"
        },
        {
          "internalType": "address",
          "name": "operator",
          "type": "address"
        }
      ],
      "name": "isApprovedForAll",
      "outputs": [
        {
          "internalType": "bool",
          "name": "",
          "type": "bool"
        }
      ],
      "stateMutability": "view",
      "type": "function"
    },
    {
      "inputs": [
        {
          "internalType": "address",
          "name": "recipient",
          "type": "address"
        }
      ],
      "name": "mintPromo",
      "outputs": [],
      "stateMutability": "nonpayable",
      "type": "function"
    },
    {
      "inputs": [],
      "name": "name",
      "outputs": [
        {
          "internalType": "string",
          "name": "",
          "type": "string"
        }
      ],
      "stateMutability": "view",
      "type": "function"
    },
    {
      "inputs": [
        {
          "internalType": "uint256",
          "name": "tokenId",
          "type": "uint256"
        }
      ],
      "name": "ownerOf",
      "outputs": [
        {
          "internalType": "address",
          "name": "",
          "type": "address"
        }
      ],
      "stateMutability": "view",
      "type": "function"
    },
    {
      "inputs": [],
      "name": "paused",
      "outputs": [
        {
          "internalType": "bool",
          "name": "",
          "type": "bool"
        }
      ],
      "stateMutability": "view",
      "type": "function"
    },
    {
      "inputs": [],
      "name": "phaseCountdown",
      "outputs": [
        {
          "internalType": "uint256",
          "name": "",
          "type": "uint256"
        }
      ],
      "stateMutability": "view",
      "type": "function"
    },
    {
      "inputs": [],
      "name": "phaseCountdownTime",
      "outputs": [
        {
          "internalType": "uint32",
          "name": "",
          "type": "uint32"
        }
      ],
      "stateMutability": "view",
      "type": "function"
    },
    {
      "inputs": [],
      "name": "phaseLen",
      "outputs": [
        {
          "internalType": "uint16",
          "name": "",
          "type": "uint16"
        }
      ],
      "stateMutability": "view",
      "type": "function"
    },
    {
      "inputs": [],
      "name": "price",
      "outputs": [
        {
          "internalType": "uint256",
          "name": "",
          "type": "uint256"
        }
      ],
      "stateMutability": "view",
      "type": "function"
    },
    {
      "inputs": [
        {
          "internalType": "uint256",
          "name": "id",
          "type": "uint256"
        }
      ],
      "name": "readSettings",
      "outputs": [
        {
          "internalType": "uint8",
          "name": "bkg",
          "type": "uint8"
        },
        {
          "internalType": "uint8",
          "name": "duration",
          "type": "uint8"
        },
        {
          "internalType": "uint8",
          "name": "options",
          "type": "uint8"
        }
      ],
      "stateMutability": "view",
      "type": "function"
    },
    {
      "inputs": [],
      "name": "referalNewPercent",
      "outputs": [
        {
          "internalType": "uint256",
          "name": "",
          "type": "uint256"
        }
      ],
      "stateMutability": "view",
      "type": "function"
    },
    {
      "inputs": [],
      "name": "referalPercent",
      "outputs": [
        {
          "internalType": "uint256",
          "name": "",
          "type": "uint256"
        }
      ],
      "stateMutability": "view",
      "type": "function"
    },
    {
      "inputs": [
        {
          "internalType": "bytes32",
          "name": "role",
          "type": "bytes32"
        },
        {
          "internalType": "address",
          "name": "account",
          "type": "address"
        }
      ],
      "name": "renounceRole",
      "outputs": [],
      "stateMutability": "nonpayable",
      "type": "function"
    },
    {
      "inputs": [
        {
          "internalType": "bytes32",
          "name": "role",
          "type": "bytes32"
        },
        {
          "internalType": "address",
          "name": "account",
          "type": "address"
        }
      ],
      "name": "revokeRole",
      "outputs": [],
      "stateMutability": "nonpayable",
      "type": "function"
    },
    {
      "inputs": [
        {
          "internalType": "address",
          "name": "from",
          "type": "address"
        },
        {
          "internalType": "address",
          "name": "to",
          "type": "address"
        },
        {
          "internalType": "uint256",
          "name": "tokenId",
          "type": "uint256"
        }
      ],
      "name": "safeTransferFrom",
      "outputs": [],
      "stateMutability": "nonpayable",
      "type": "function"
    },
    {
      "inputs": [
        {
          "internalType": "address",
          "name": "from",
          "type": "address"
        },
        {
          "internalType": "address",
          "name": "to",
          "type": "address"
        },
        {
          "internalType": "uint256",
          "name": "tokenId",
          "type": "uint256"
        },
        {
          "internalType": "bytes",
          "name": "_data",
          "type": "bytes"
        }
      ],
      "name": "safeTransferFrom",
      "outputs": [],
      "stateMutability": "nonpayable",
      "type": "function"
    },
    {
      "inputs": [
        {
          "internalType": "address",
          "name": "operator",
          "type": "address"
        },
        {
          "internalType": "bool",
          "name": "approved",
          "type": "bool"
        }
      ],
      "name": "setApprovalForAll",
      "outputs": [],
      "stateMutability": "nonpayable",
      "type": "function"
    },
    {
      "inputs": [
        {
          "internalType": "string",
          "name": "_uri",
          "type": "string"
        }
      ],
      "name": "setBaseURI",
      "outputs": [],
      "stateMutability": "nonpayable",
      "type": "function"
    },
    {
      "inputs": [
        {
          "internalType": "string",
          "name": "_uri",
          "type": "string"
        }
      ],
      "name": "setContractURI",
      "outputs": [],
      "stateMutability": "nonpayable",
      "type": "function"
    },
    {
      "inputs": [
        {
          "internalType": "bool",
          "name": "state",
          "type": "bool"
        }
      ],
      "name": "setPause",
      "outputs": [],
      "stateMutability": "nonpayable",
      "type": "function"
    },
    {
      "inputs": [
        {
          "internalType": "address",
          "name": "rand",
          "type": "address"
        }
      ],
      "name": "setRandom",
      "outputs": [],
      "stateMutability": "nonpayable",
      "type": "function"
    },
    {
      "inputs": [
        {
          "internalType": "uint256",
          "name": "_id",
          "type": "uint256"
        },
        {
          "internalType": "string",
          "name": "_uri",
          "type": "string"
        }
      ],
      "name": "setTokenURI",
      "outputs": [],
      "stateMutability": "nonpayable",
      "type": "function"
    },
    {
      "inputs": [
        {
          "internalType": "uint256",
          "name": "startBlock",
          "type": "uint256"
        }
      ],
      "name": "startCountdown",
      "outputs": [],
      "stateMutability": "nonpayable",
      "type": "function"
    },
    {
      "inputs": [
        {
          "internalType": "bytes4",
          "name": "interfaceId",
          "type": "bytes4"
        }
      ],
      "name": "supportsInterface",
      "outputs": [
        {
          "internalType": "bool",
          "name": "",
          "type": "bool"
        }
      ],
      "stateMutability": "view",
      "type": "function"
    },
    {
      "inputs": [],
      "name": "symbol",
      "outputs": [
        {
          "internalType": "string",
          "name": "",
          "type": "string"
        }
      ],
      "stateMutability": "view",
      "type": "function"
    },
    {
      "inputs": [],
      "name": "testRandom",
      "outputs": [
        {
          "internalType": "bytes32",
          "name": "",
          "type": "bytes32"
        }
      ],
      "stateMutability": "view",
      "type": "function"
    },
    {
      "inputs": [
        {
          "internalType": "uint256",
          "name": "_id",
          "type": "uint256"
        },
        {
          "internalType": "uint8",
          "name": "bkg",
          "type": "uint8"
        },
        {
          "internalType": "uint8",
          "name": "duration",
          "type": "uint8"
        },
        {
          "internalType": "uint8",
          "name": "options",
          "type": "uint8"
        },
        {
          "internalType": "string",
          "name": "slot",
          "type": "string"
        }
      ],
      "name": "tokenArt",
      "outputs": [
        {
          "internalType": "string",
          "name": "",
          "type": "string"
        }
      ],
      "stateMutability": "view",
      "type": "function"
    },
    {
      "inputs": [
        {
          "internalType": "uint256",
          "name": "_id",
          "type": "uint256"
        }
      ],
      "name": "tokenArt",
      "outputs": [
        {
          "internalType": "string",
          "name": "",
          "type": "string"
        }
      ],
      "stateMutability": "view",
      "type": "function"
    },
    {
      "inputs": [
        {
          "internalType": "uint256",
          "name": "index",
          "type": "uint256"
        }
      ],
      "name": "tokenByIndex",
      "outputs": [
        {
          "internalType": "uint256",
          "name": "",
          "type": "uint256"
        }
      ],
      "stateMutability": "view",
      "type": "function"
    },
    {
      "inputs": [
        {
          "internalType": "uint256",
          "name": "_id",
          "type": "uint256"
        }
      ],
      "name": "tokenData",
      "outputs": [
        {
          "internalType": "uint128",
          "name": "randomness",
          "type": "uint128"
        },
        {
          "internalType": "uint256",
          "name": "animation",
          "type": "uint256"
        },
        {
          "internalType": "uint8",
          "name": "shapes",
          "type": "uint8"
        },
        {
          "internalType": "uint8",
          "name": "hatching",
          "type": "uint8"
        },
        {
          "internalType": "uint8[4]",
          "name": "size",
          "type": "uint8[4]"
        },
        {
          "internalType": "uint8[2]",
          "name": "spacing",
          "type": "uint8[2]"
        },
        {
          "internalType": "uint8",
          "name": "mirroring",
          "type": "uint8"
        },
        {
          "internalType": "uint16[3]",
          "name": "color",
          "type": "uint16[3]"
        },
        {
          "internalType": "uint8",
          "name": "contrast",
          "type": "uint8"
        },
        {
          "internalType": "uint8",
          "name": "shades",
          "type": "uint8"
        },
        {
          "internalType": "uint8",
          "name": "scheme",
          "type": "uint8"
        }
      ],
      "stateMutability": "view",
      "type": "function"
    },
    {
      "inputs": [
        {
          "internalType": "address",
          "name": "owner",
          "type": "address"
        },
        {
          "internalType": "uint256",
          "name": "index",
          "type": "uint256"
        }
      ],
      "name": "tokenOfOwnerByIndex",
      "outputs": [
        {
          "internalType": "uint256",
          "name": "",
          "type": "uint256"
        }
      ],
      "stateMutability": "view",
      "type": "function"
    },
    {
      "inputs": [
        {
          "internalType": "string",
          "name": "seed",
          "type": "string"
        },
        {
          "internalType": "uint16[3]",
          "name": "color",
          "type": "uint16[3]"
        },
        {
          "internalType": "uint8[2]",
          "name": "shapes",
          "type": "uint8[2]"
        },
        {
          "internalType": "uint8[4]",
          "name": "size",
          "type": "uint8[4]"
        },
        {
          "internalType": "uint8[2]",
          "name": "spacing",
          "type": "uint8[2]"
        },
        {
          "internalType": "uint8",
          "name": "mirroring",
          "type": "uint8"
        },
        {
          "internalType": "uint8[3]",
          "name": "settings",
          "type": "uint8[3]"
        },
        {
          "internalType": "uint8[4]",
          "name": "traits",
          "type": "uint8[4]"
        },
        {
          "internalType": "string",
          "name": "slot",
          "type": "string"
        }
      ],
      "name": "tokenPreview",
      "outputs": [
        {
          "internalType": "string",
          "name": "",
          "type": "string"
        }
      ],
      "stateMutability": "view",
      "type": "function"
    },
    {
      "inputs": [
        {
          "internalType": "uint256",
          "name": "tokenId",
          "type": "uint256"
        }
      ],
      "name": "tokenURI",
      "outputs": [
        {
          "internalType": "string",
          "name": "",
          "type": "string"
        }
      ],
      "stateMutability": "view",
      "type": "function"
    },
    {
      "inputs": [],
      "name": "totalSupply",
      "outputs": [
        {
          "internalType": "uint256",
          "name": "",
          "type": "uint256"
        }
      ],
      "stateMutability": "view",
      "type": "function"
    },
    {
      "inputs": [
        {
          "internalType": "address",
          "name": "from",
          "type": "address"
        },
        {
          "internalType": "address",
          "name": "to",
          "type": "address"
        },
        {
          "internalType": "uint256",
          "name": "tokenId",
          "type": "uint256"
        }
      ],
      "name": "transferFrom",
      "outputs": [],
      "stateMutability": "nonpayable",
      "type": "function"
    },
    {
      "inputs": [
        {
          "internalType": "uint256",
          "name": "id",
          "type": "uint256"
        }
      ],
      "name": "trueID",
      "outputs": [
        {
          "internalType": "int8",
          "name": "",
          "type": "int8"
        }
      ],
      "stateMutability": "pure",
      "type": "function"
    },
    {
      "inputs": [
        {
          "internalType": "uint8",
          "name": "shapes",
          "type": "uint8"
        },
        {
          "internalType": "uint8",
          "name": "hatching",
          "type": "uint8"
        },
        {
          "internalType": "uint16[3]",
          "name": "color",
          "type": "uint16[3]"
        },
        {
          "internalType": "uint8[4]",
          "name": "size",
          "type": "uint8[4]"
        },
        {
          "internalType": "uint8[2]",
          "name": "position",
          "type": "uint8[2]"
        },
        {
          "internalType": "bool",
          "name": "exclusive",
          "type": "bool"
        }
      ],
      "name": "validateParams",
      "outputs": [],
      "stateMutability": "pure",
      "type": "function"
    },
    {
      "stateMutability": "payable",
      "type": "receive"
    }
  ],
  "bytecode": "0x6080604052600d8054600160a01b60ff60a01b19909116179055620000336078600f62000237602090811b62002d2b17901c565b600f556040518060600160405280602b815260200162006439602b91398051620000669160109160209091019062000452565b506001601255600a601355600f6014556000196015556064601655601780546001600160a01b0319908116737a832c86002323a5de3a317b3281eb88ec3b2c0017909155601880549091167363a9dbce75413036b2b778e670aabd4493aaf9f3179055348015620000d657600080fd5b506040516200646438038062006464833981016040819052620000f991620004f4565b81806040518060400160405280600981526020016854696e79426f78657360b81b815250604051806040016040528060068152602001655b235d5b235d60d01b815250620001546301ffc9a760e01b6200028a60201b60201c565b81516200016990600690602085019062000452565b5080516200017f90600790602084019062000452565b506200019b6380ac58cd60e01b6001600160e01b036200028a16565b620001b6635b5e139f60e01b6001600160e01b036200028a16565b620001d163780e9d6360e01b6001600160e01b036200028a16565b5050620001fe604051620001e59062000532565b604051908190039020336001600160e01b03620002e516565b600d80546001600160a01b039283166001600160a01b031991821617909155601980549490921693169290921790915550620005ee9050565b60006200028183836040518060400160405280601a81526020017f536166654d6174683a206469766973696f6e206279207a65726f000000000000815250620002fe60201b60201c565b90505b92915050565b6001600160e01b03198082161415620002c05760405162461bcd60e51b8152600401620002b7906200059e565b60405180910390fd5b6001600160e01b0319166000908152602081905260409020805460ff19166001179055565b620002fa82826001600160e01b036200033916565b5050565b60008183620003225760405162461bcd60e51b8152600401620002b7919062000548565b5060008385816200032f57fe5b0495945050505050565b6000828152600a602090815260409091206200036091839062002d6d620003bd821b17901c565b15620002fa57620003796001600160e01b03620003dd16565b6001600160a01b0316816001600160a01b0316837f2f8788117e7eff1d82e926ec794901d17c78024a50270940304540a733656f0d60405160405180910390a45050565b600062000281836001600160a01b0384166001600160e01b03620003e216565b335b90565b6000620003f983836001600160e01b036200043a16565b620004315750815460018181018455600084815260208082209093018490558454848252828601909352604090209190915562000284565b50600062000284565b60009081526001919091016020526040902054151590565b828054600181600116156101000203166002900490600052602060002090601f016020900481019282601f106200049557805160ff1916838001178555620004c5565b82800160010185558215620004c5579182015b82811115620004c5578251825591602001919060010190620004a8565b50620004d3929150620004d7565b5090565b620003df91905b80821115620004d35760008155600101620004de565b6000806040838503121562000507578182fd5b82516200051481620005d5565b60208401519092506200052781620005d5565b809150509250929050565b6941444d494e5f524f4c4560b01b8152600a0190565b6000602080835283518082850152825b81811015620005765785810183015185820160400152820162000558565b81811115620005885783604083870101525b50601f01601f1916929092016040019392505050565b6020808252601c908201527f4552433136353a20696e76616c696420696e7465726661636520696400000000604082015260600190565b6001600160a01b0381168114620005eb57600080fd5b50565b615e3b80620005fe6000396000f3fe60806040526004361061039b5760003560e01c806387bd15ef116101dc578063b88d4fde11610102578063e8a3d485116100a0578063f7eaec7d1161006f578063f7eaec7d14610a51578063fbddd14b14610a66578063fc4ea93914610a7b578063fd05dd6a14610a90576103ab565b8063e8a3d485146109f2578063e985e9c514610a07578063f19e148614610a27578063f1d77baf14610a3c576103ab565b8063ca15c873116100dc578063ca15c87314610972578063ca9c0bad14610992578063d547741f146109b2578063dbde5222146109d2576103ab565b8063b88d4fde14610912578063bedb86fb14610932578063c87b56dd14610952576103ab565b8063990cec831161017a578063a2a87ffb11610149578063a2a87ffb14610891578063aa46a400146108b1578063b3174fa1146108c6578063b4b5b48f146108db576103ab565b8063990cec8314610834578063a035b1fe14610847578063a217fddf1461085c578063a22cb46514610871576103ab565b8063938e3d7b116101b6578063938e3d7b146107bb578063947e93d9146107db57806395d89b411461080a57806397baac1e1461081f576103ab565b806387bd15ef1461075b5780639010d07c1461077b57806391d148541461079b576103ab565b80633c564cab116102c15780636352211e1161025f57806375b238fc1161022e57806375b238fc146106f15780637b2feaaa146107065780637def753d1461071b578063824cac1a1461073b576103ab565b80636352211e146106875780636c0360eb146106a757806370a08231146106bc57806371a0a016146106dc576103ab565b80634f6ccce71161029b5780634f6ccce714610610578063524101971461063057806355f804b3146106525780635c975abb14610672576103ab565b80633c564cab146105b057806342842e0e146105d057806345de6305146105f0576103ab565b8063162094c411610339578063248a9ca311610308578063248a9ca3146105305780632f2ff15d146105505780632f745c591461057057806336568abe14610590576103ab565b8063162094c4146104ae57806318160ddd146104ce5780631dd68782146104f057806323b872dd14610510576103ab565b806306fdde031161037557806306fdde031461042a578063081812fc1461044c578063095ea7b3146104795780630e1b9b0e14610499576103ab565b806301ffc9a7146103b0578063031bd4c4146103e6578063055ad42e14610408576103ab565b366103ab576103a934610abd565b005b600080fd5b3480156103bc57600080fd5b506103d06103cb3660046147e0565b610b70565b6040516103dd919061504b565b60405180910390f35b3480156103f257600080fd5b506103fb610b93565b6040516103dd9190615ca0565b34801561041457600080fd5b5061041d610b98565b6040516103dd9190615cc0565b34801561043657600080fd5b5061043f610baf565b6040516103dd9190615064565b34801561045857600080fd5b5061046c610467366004614760565b610c45565b6040516103dd9190614ffa565b34801561048557600080fd5b506103a9610494366004614716565b610c91565b3480156104a557600080fd5b5061041d610d24565b3480156104ba57600080fd5b506103a96104c9366004614b74565b610d29565b3480156104da57600080fd5b506104e3610d85565b6040516103dd9190614f1a565b3480156104fc57600080fd5b5061043f61050b366004614bbe565b610d91565b34801561051c57600080fd5b506103a961052b366004614602565b610f3f565b34801561053c57600080fd5b506104e361054b366004614760565b610f77565b34801561055c57600080fd5b506103a961056b366004614790565b610f8c565b34801561057c57600080fd5b506104e361058b366004614716565b610fd4565b34801561059c57600080fd5b506103a96105ab366004614790565b611005565b3480156105bc57600080fd5b506103a96105cb366004614b51565b611047565b3480156105dc57600080fd5b506103a96105eb366004614602565b6111c7565b3480156105fc57600080fd5b5061043f61060b366004614858565b6111e2565b34801561061c57600080fd5b506104e361062b366004614760565b611513565b34801561063c57600080fd5b5061064561152f565b6040516103dd9190615caf565b34801561065e57600080fd5b506103a961066d366004614818565b611534565b34801561067e57600080fd5b506103d0611582565b34801561069357600080fd5b5061046c6106a2366004614760565b611592565b3480156106b357600080fd5b5061043f6115c0565b3480156106c857600080fd5b506104e36106d73660046145b3565b611621565b3480156106e857600080fd5b5061041d61166a565b3480156106fd57600080fd5b506104e361166f565b34801561071257600080fd5b506104e3611686565b34801561072757600080fd5b506103a96107363660046145b3565b61168c565b34801561074757600080fd5b506103a9610756366004614a8a565b6116eb565b34801561076757600080fd5b506103a9610776366004614760565b611b8b565b34801561078757600080fd5b5061046c6107963660046147bf565b611bcb565b3480156107a757600080fd5b506103d06107b6366004614790565b611be9565b3480156107c757600080fd5b506103a96107d6366004614818565b611c07565b3480156107e757600080fd5b506107fb6107f6366004614760565b611c22565b6040516103dd93929190615cce565b34801561081657600080fd5b5061043f611d4e565b34801561082b57600080fd5b506104e3611daf565b6104e3610842366004614949565b611db5565b34801561085357600080fd5b506104e36122f4565b34801561086857600080fd5b506104e36122fa565b34801561087d57600080fd5b506103a961088c3660046146eb565b6122ff565b34801561089d57600080fd5b5061043f6108ac366004614760565b6123cd565b3480156108bd57600080fd5b506104e3612585565b3480156108d257600080fd5b506103fb61258b565b3480156108e757600080fd5b506108fb6108f6366004614760565b612590565b6040516103dd9b9a99989796959493929190615be1565b34801561091e57600080fd5b506103a961092d366004614642565b6127f1565b34801561093e57600080fd5b506103a961094d366004614740565b612830565b34801561095e57600080fd5b5061043f61096d366004614760565b61285d565b34801561097e57600080fd5b506104e361098d366004614760565b6129a7565b34801561099e57600080fd5b506103a96109ad3660046145b3565b6129be565b3480156109be57600080fd5b506103a96109cd366004614790565b6129ef565b3480156109de57600080fd5b506103a96109ed366004614c59565b612a29565b3480156109fe57600080fd5b5061043f612bc1565b348015610a1357600080fd5b506103d0610a223660046145ce565b612c4f565b348015610a3357600080fd5b5061041d612c7d565b348015610a4857600080fd5b506104e3612c82565b348015610a5d57600080fd5b506104e3612c88565b348015610a7257600080fd5b506104e3612c8e565b348015610a8757600080fd5b506104e3612d25565b348015610a9c57600080fd5b50610ab0610aab366004614760565b610bac565b6040516103dd9190615056565b8015610b6d576000610ae76064610adb84603c63ffffffff612d8216565b9063ffffffff612d2b16565b6017546040519192506001600160a01b03169082156108fc029083906000818181858888f19350505050158015610b22573d6000803e3d6000fd5b506018546001600160a01b03166108fc610b42848463ffffffff612dbc16565b6040518115909202916000818181858888f19350505050158015610b6a573d6000803e3d6000fd5b50505b50565b6001600160e01b0319811660009081526020819052604090205460ff165b919050565b606e81565b6000610ba9600a610adb600b612dfe565b90505b90565b60068054604080516020601f6002600019610100600188161502019095169490940493840181900481028201810190925282815260609390929091830182828015610c3b5780601f10610c1057610100808354040283529160200191610c3b565b820191906000526020600020905b815481529060010190602001808311610c1e57829003601f168201915b5050505050905090565b6000610c5082612e02565b610c755760405162461bcd60e51b8152600401610c6c9061560e565b60405180910390fd5b506000908152600460205260409020546001600160a01b031690565b6000610c9c82611592565b9050806001600160a01b0316836001600160a01b03161415610cd05760405162461bcd60e51b8152600401610c6c906157c1565b806001600160a01b0316610ce2612e15565b6001600160a01b03161480610cfe5750610cfe81610a22612e15565b610d1a5760405162461bcd60e51b8152600401610c6c90615456565b610b6a8383612e19565b601881565b610d45604051610d3890614fe4565b6040518091039020612e87565b610b6a8383838080601f016020809104026020016040519081016040528093929190818152602001838380828437600092019190915250612ead92505050565b6000610ba96002612ef1565b6060610d9b614209565b5060008781526011602090815260409182902082516102008101845290546001600160801b038116825261ffff600160801b8204169282019290925260ff600160901b8304811693820193909352600160981b820483166060820152600160a01b820483166080820152600160a81b8204831660a0820152600160b01b8204831660c0820152600160b81b8204831660e0820152600160c01b82048316610100820152600160c81b82048316610120820152600160d01b82048316610140820152600160d81b82048316610160820152600160e01b90910482166101808201528782166101a08201528582166101e08201529086166101c08201526019546001600160a01b03166301a28c5f828a610eb281611592565b610ebc868e612efc565b89896040518763ffffffff1660e01b8152600401610edf96959493929190615b4c565b60006040518083038186803b158015610ef757600080fd5b505afa158015610f0b573d6000803e3d6000fd5b505050506040513d6000823e601f3d908101601f19168201604052610f339190810190614a14565b98975050505050505050565b610f50610f4a612e15565b82613109565b610f6c5760405162461bcd60e51b8152600401610c6c90615802565b610b6a83838361318e565b6000908152600a602052604090206002015490565b6000828152600a6020526040902060020154610faa906107b6612e15565b610fc65760405162461bcd60e51b8152600401610c6c906150b9565b610fd082826132ae565b5050565b6001600160a01b0382166000908152600160205260408120610ffc908363ffffffff61331d16565b90505b92915050565b61100d612e15565b6001600160a01b0316816001600160a01b03161461103d5760405162461bcd60e51b8152600401610c6c90615a28565b610fd08282613329565b61105082611592565b6001600160a01b0316336001600160a01b03161480611088575061107382610c45565b6001600160a01b0316336001600160a01b0316145b6110a45760405162461bcd60e51b8152600401610c6c906154fd565b60656110b36020830183614c3e565b60ff1611156110d45760405162461bcd60e51b8152600401610c6c90615395565b60006110e66040830160208401614c3e565b60ff16116111065760405162461bcd60e51b8152600401610c6c9061576b565b6111136020820182614c3e565b6000838152601160205260409020805460ff92909216600160e81b0260ff60e81b199092169190911790558060016020020160208101906111549190614c3e565b6000838152601160205260409020805460ff92909216600160f01b0260ff60f01b199092169190911790558060026020020160208101906111959190614c3e565b600092835260116020526040909220805460ff93909316600160f81b026001600160f81b039093169290921790915550565b610b6a838383604051806020016040528060008152506127f1565b606060656111f36020870187614c3e565b60ff1611156112145760405162461bcd60e51b8152600401610c6c9061594a565b6112a961122460208b018b614c3e565b61123460408c0160208d01614c3e565b604080516060818101909252908e9060039083908390808284376000920191909152505060408051608081810190925291508d9060049083908390808284376000920191909152505060408051808201825291508d90600290839083908082843760009201919091525060019150612a299050565b6112b1614209565b6040518061020001604052806112fc8f8f8080601f01602080910402602001604051908101604052809392919081815260200183838082843760009201919091525061339892505050565b6001600160801b03168152602090810190611319908e018e614b2f565b61ffff1681526020908101906113359060408f01908f01614b2f565b60ff16815260200161134d60608e0160408f01614b2f565b60ff168152602090810190611364908d018d614c3e565b60ff16815260209081019061137f9060408e01908e01614c3e565b60ff168152602090810190611396908c018c614c3e565b60ff1681526020908101906113b19060408d01908d01614c3e565b60ff1681526020016113c960608c0160408d01614c3e565b60ff1681526020016113e160808c0160608d01614c3e565b60ff1681526020908101906113f8908b018b614c3e565b60ff1681526020908101906114139060408c01908c01614c3e565b60ff90811682528916602082015260400187600060200201602081019061143a9190614c3e565b60ff1681526020908101906114559060408a01908a01614c3e565b60ff16815260200161146d6060890160408a01614c3e565b60ff1690526019546040516301a28c5f60e01b81529192506001600160a01b0316906301a28c5f906114ae90849060009081908b908b908b90600401615acf565b60006040518083038186803b1580156114c657600080fd5b505afa1580156114da573d6000803e3d6000fd5b505050506040513d6000823e601f3d908101601f191682016040526115029190810190614a14565b9d9c50505050505050505050505050565b60008061152760028463ffffffff6133f116565b509392505050565b607881565b611543604051610d3890614fe4565b610fd082828080601f01602080910402602001604051908101604052809392919081815260200183838082843760009201919091525061340f92505050565b600d54600160a01b900460ff1681565b6000610fff82604051806060016040528060298152602001615ddd602991396002919063ffffffff61342216565b60098054604080516020601f6002600019610100600188161502019095169490940493840181900481028201810190925282815260609390929091830182828015610c3b5780601f10610c1057610100808354040283529160200191610c3b565b60006001600160a01b0382166116495760405162461bcd60e51b8152600401610c6c906154b3565b6001600160a01b0382166000908152600160205260409020610fff90612ef1565b600b81565b60405161167b90614fe4565b604051809103902081565b600e5481565b61169b604051610d3890614fe4565b6016546116a8600c612dfe565b106116c55760405162461bcd60e51b8152600401610c6c90615146565b60006116d1600c612dfe565b6015540390506116e1828261342f565b610fd0600c613449565b6116f3613452565b336116fd82611592565b6001600160a01b0316146117235760405162461bcd60e51b8152600401610c6c906158d0565b600081815260116020526040902054600160a01b900460ff16156117595760405162461bcd60e51b8152600401610c6c906158b2565b6117d78787876003806020026040519081016040528092919082600360200280828437600092019190915250506040805160808181019092529150899060049083908390808284376000920191909152505060408051808201825291508990600290839083908082843760009201919091525060019150612a299050565b6040805161020081019091526001600160801b038916815260208082019061180190880188614b2f565b61ffff16815260209081019061181d9060408901908901614b2f565b60ff1681526020016118356060880160408901614b2f565b60ff90811682528981166020830152881660408201526060018560006020020160208101906118649190614c3e565b60ff16815260209081019061187f9060408801908801614c3e565b60ff1681526020016118976060870160408801614c3e565b60ff1681526020016118af6080870160608801614c3e565b60ff1681526020908101906118c690860186614c3e565b60ff1681526020908101906118e19060408701908701614c3e565b60ff1681526020018360ff168152602001600060ff168152602001600a60ff168152602001600160ff168152506011600083815260200190815260200160002060008201518160000160006101000a8154816001600160801b0302191690836001600160801b0316021790555060208201518160000160106101000a81548161ffff021916908361ffff16021790555060408201518160000160126101000a81548160ff021916908360ff16021790555060608201518160000160136101000a81548160ff021916908360ff16021790555060808201518160000160146101000a81548160ff021916908360ff16021790555060a08201518160000160156101000a81548160ff021916908360ff16021790555060c08201518160000160166101000a81548160ff021916908360ff16021790555060e08201518160000160176101000a81548160ff021916908360ff1602179055506101008201518160000160186101000a81548160ff021916908360ff1602179055506101208201518160000160196101000a81548160ff021916908360ff16021790555061014082015181600001601a6101000a81548160ff021916908360ff16021790555061016082015181600001601b6101000a81548160ff021916908360ff16021790555061018082015181600001601c6101000a81548160ff021916908360ff1602179055506101a082015181600001601d6101000a81548160ff021916908360ff1602179055506101c082015181600001601e6101000a81548160ff021916908360ff1602179055506101e082015181600001601f6101000a81548160ff021916908360ff1602179055509050507feaa4f184b7f3d10bde81fc2d884889a91fbadf176d0ecc02895ab30b5aba08ef81604051611b799190614f1a565b60405180910390a15050505050505050565b611b9a604051610d3890614fe4565b438111611bb95760405162461bcd60e51b8152600401610c6c906158ee565b600e55600d805460ff60a01b19169055565b6000828152600a60205260408120610ffc908363ffffffff61331d16565b6000828152600a60205260408120610ffc908363ffffffff61347e16565b611c16604051610d3890614fe4565b610b6a6010838361428d565b6000806000611c2f614209565b5050506000918252506011602090815260409182902082516102008101845290546001600160801b038116825261ffff600160801b8204169282019290925260ff600160901b8304811693820193909352600160981b820483166060820152600160a01b820483166080820152600160a81b8204831660a0820152600160b01b8204831660c0820152600160b81b8204831660e0820152600160c01b82048316610100820152600160c81b82048316610120820152600160d01b82048316610140820152600160d81b82048316610160820152600160e01b82048316610180820152600160e81b820483166101a08201819052600160f01b830484166101c08301819052600160f81b9093049093166101e09091018190529192909190565b60078054604080516020601f6002600019610100600188161502019095169490940493840181900481028201810190925282815260609390929091830182828015610c3b5780601f10610c1057610100808354040283529160200191610c3b565b600c5481565b6000611dbf613493565b611dc7613452565b611dcf6134bc565b611dd982846134de565b611e5489898960038060200260405190810160405280929190826003602002808284376000920191909152505060408051608081810190925291508b9060049083908390808284376000920191909152505060408051808201825291508b90600290839083908082843760009201829052509150612a299050565b6001600160a01b038316611e7a5760405162461bcd60e51b8152600401610c6c906159f8565b6000611e86600b612dfe565b9050611e92600b613449565b611ead600a611ea1600b612dfe565b9063ffffffff61365616565b611ee257611ede611ed1611ebf610b98565b600f549060ff1663ffffffff612d8216565b439063ffffffff61369816565b600e555b6000611f238d8d8080601f01602080910402602001604051908101604052809392919081815260200183838082843760009201919091525061339892505050565b90506000611f3183836136bd565b9050604051806102000160405280826001600160801b031681526020018b600060038110611f5b57fe5b602002016020810190611f6e9190614b2f565b61ffff16815260200160c86001600160801b038416066001600160801b0316600014611fa957611fa460408d0160208e01614b2f565b611fac565b60005b60ff168152602001611fc460608d0160408e01614b2f565b60ff90811682528e811660208301528d1660408201526060018a6000602002016020810190611ff39190614c3e565b60ff16815260209081019061200e9060408d01908d01614c3e565b60ff16815260200161202660608c0160408d01614c3e565b60ff16815260200161203e60808c0160608d01614c3e565b60ff168152602090810190612055908b018b614c3e565b60ff1681526020908101906120709060408c01908c01614c3e565b60ff1681526020018860ff168152602001600060ff168152602001600a60ff168152602001600160ff168152506011600085815260200190815260200160002060008201518160000160006101000a8154816001600160801b0302191690836001600160801b0316021790555060208201518160000160106101000a81548161ffff021916908361ffff16021790555060408201518160000160126101000a81548160ff021916908360ff16021790555060608201518160000160136101000a81548160ff021916908360ff16021790555060808201518160000160146101000a81548160ff021916908360ff16021790555060a08201518160000160156101000a81548160ff021916908360ff16021790555060c08201518160000160166101000a81548160ff021916908360ff16021790555060e08201518160000160176101000a81548160ff021916908360ff1602179055506101008201518160000160186101000a81548160ff021916908360ff1602179055506101208201518160000160196101000a81548160ff021916908360ff16021790555061014082015181600001601a6101000a81548160ff021916908360ff16021790555061016082015181600001601b6101000a81548160ff021916908360ff16021790555061018082015181600001601c6101000a81548160ff021916908360ff1602179055506101a082015181600001601d6101000a81548160ff021916908360ff1602179055506101c082015181600001601e6101000a81548160ff021916908360ff1602179055506101e082015181600001601f6101000a81548160ff021916908360ff1602179055509050506122e3868461342f565b5050509a9950505050505050505050565b60125481565b600081565b612307612e15565b6001600160a01b0316826001600160a01b031614156123385760405162461bcd60e51b8152600401610c6c9061531d565b8060056000612345612e15565b6001600160a01b03908116825260208083019390935260409182016000908120918716808252919093529120805460ff191692151592909217909155612389612e15565b6001600160a01b03167f17307eab39ab6107e8899845ad3d59bd9653f200f220920489ca2b5937696c31836040516123c1919061504b565b60405180910390a35050565b60606123d7614209565b5060008281526011602090815260409182902082516102008101845290546001600160801b038116825261ffff600160801b8204169282019290925260ff600160901b8304811693820193909352600160981b820483166060820152600160a01b820483166080820152600160a81b8204831660a0820152600160b01b8204831660c0820152600160b81b8204831660e0820152600160c01b82048316610100820152600160c81b82048316610120820152600160d01b82048316610140820152600160d81b82048316610160820152600160e01b82048316610180820152600160e81b820483166101a0820152600160f01b820483166101c0820152600160f81b9091049091166101e08201526019546001600160a01b03166301a28c5f828561250181611592565b61250b8689612efc565b6040518563ffffffff1660e01b815260040161252a9493929190615b95565b60006040518083038186803b15801561254257600080fd5b505afa158015612556573d6000803e3d6000fd5b505050506040513d6000823e601f3d908101601f1916820160405261257e9190810190614a14565b9392505050565b600b5481565b600a81565b60008060008061259e61430b565b6125a6614329565b60006125b0614347565b60008060006125bd614209565b5060008c81526011602090815260409182902082516102008101845290546001600160801b038116825261ffff600160801b8204169282019290925260ff600160901b8304811693820193909352600160981b820483166060820152600160a01b820483166080820152600160a81b8204831660a0820152600160b01b8204831660c0820152600160b81b8204831660e0820152600160c01b82048316610100820152600160c81b82048316610120820152600160d01b82048316610140820152600160d81b82048316610160820152600160e01b82048316610180820152600160e81b820483166101a0820152600160f01b820483166101c0820152600160f81b9091049091166101e08201526126d361430b565b6126dd828f612efc565b9050806000602002015160ff169b5080600160200201519250806002602002015193508060036020020151945081600001519c50816101800151965081608001519a508160a0015199506040518060600160405280836020015161ffff1661ffff168152602001836040015160ff1661ffff168152602001836060015160ff1661ffff16815250955060405180608001604052808360c0015160ff1660ff1681526020018360e0015160ff1660ff16815260200183610100015160ff1660ff16815260200183610120015160ff1660ff168152509850604051806040016040528083610140015160ff1660ff16815260200183610160015160ff1660ff168152509750505091939597999b90929496989a50565b6128026127fc612e15565b83613109565b61281e5760405162461bcd60e51b8152600401610c6c90615802565b61282a84848484613783565b50505050565b61283f604051610d3890614fe4565b600d8054911515600160a01b0260ff60a01b19909216919091179055565b606061286882612e02565b6128845760405162461bcd60e51b8152600401610c6c9061571c565b60008281526008602090815260409182902080548351601f60026000196101006001861615020190931692909204918201849004840281018401909452808452606093928301828280156129195780601f106128ee57610100808354040283529160200191612919565b820191906000526020600020905b8154815290600101906020018083116128fc57829003601f168201915b505060095493945050505060026000196101006001841615020190911604612942579050610b8e565b8051156129745760098160405160200161295d929190614f63565b604051602081830303815290604052915050610b8e565b600961297f846137b6565b604051602001612990929190614f63565b604051602081830303815290604052915050919050565b6000818152600a60205260408120610fff90612ef1565b6129cd604051610d3890614fe4565b600d80546001600160a01b0319166001600160a01b0392909216919091179055565b6000828152600a6020526040902060020154612a0d906107b6612e15565b61103d5760405162461bcd60e51b8152600401610c6c90615406565b60008660ff16118015612a3f5750601f8660ff16105b612a5b5760405162461bcd60e51b8152600401610c6c906156a6565b8560ff168560ff161115612a815760405162461bcd60e51b8152600401610c6c906152af565b610168846002602002015161ffff161115612aae5760405162461bcd60e51b8152600401610c6c90615167565b6064846001602002015161ffff161115612ada5760405162461bcd60e51b8152600401610c6c90615795565b80612b0b576014846001602002015161ffff161015612b0b5760405162461bcd60e51b8152600401610c6c90615795565b6064846002602002015161ffff161115612b375760405162461bcd60e51b8152600401610c6c90615a77565b6020830151835160ff91821691161115612b635760405162461bcd60e51b8152600401610c6c90615aa2565b6060830151604084015160ff91821691161115612b925760405162461bcd60e51b8152600401610c6c9061591c565b8151606460ff9091161115612bb95760405162461bcd60e51b8152600401610c6c9061588a565b505050505050565b6010805460408051602060026001851615610100026000190190941693909304601f81018490048402820184019092528181529291830182828015612c475780601f10612c1c57610100808354040283529160200191612c47565b820191906000526020600020905b815481529060010190602001808311612c2a57829003601f168201915b505050505081565b6001600160a01b03918216600090815260056020908152604080832093909416825291909152205460ff1690565b600f81565b60145481565b60135481565b6000612c9f604051610d3890614fe4565b600d60009054906101000a90046001600160a01b03166001600160a01b031663990c8f796040518163ffffffff1660e01b815260040160206040518083038186803b158015612ced57600080fd5b505afa158015612d01573d6000803e3d6000fd5b505050506040513d601f19601f82011682018060405250810190610ba99190614778565b600f5481565b6000610ffc83836040518060400160405280601a81526020017f536166654d6174683a206469766973696f6e206279207a65726f000000000000815250613891565b6000610ffc836001600160a01b0384166138c8565b600082612d9157506000610fff565b82820282848281612d9e57fe5b0414610ffc5760405162461bcd60e51b8152600401610c6c906155cd565b6000610ffc83836040518060400160405280601e81526020017f536166654d6174683a207375627472616374696f6e206f766572666c6f770000815250613912565b5490565b6000610fff60028363ffffffff61393e16565b3390565b600081815260046020526040902080546001600160a01b0319166001600160a01b0384169081179091558190612e4e82611592565b6001600160a01b03167f8c5be1e5ebec7d5bd14f71427d1e84f3dd0314c0f7b2291e5b200ac8c7c3b92560405160405180910390a45050565b612e918133611be9565b610b6d5760405162461bcd60e51b8152600401610c6c90615971565b612eb682612e02565b612ed25760405162461bcd60e51b8152600401610c6c9061565a565b60008281526008602090815260409091208251610b6a92840190614365565b6000610fff82612dfe565b612f0461430b565b606e8210156130b2576060612f2584600001516001600160801b031661394a565b9050612f2f6143d3565b506040805160e0810182526001808252600260208301819052600593830184905260096060840152608083019390935260a082019290925260c0810191909152612f776143f1565b506040805161030081018252600180825260208201819052918101829052606081018290526080810182905260a0810182905260c0810182905260e08101829052610100810182905261012081018290526101408101829052610160810182905261018081018290526101a081018290526101c081018290526101e08101829052610200810182905261022081018290526102408101829052610260810182905261028081018290526102a081018290526102c081018290526102e081019190915261304b8382601863ffffffff613a0116565b60ff16845261305b85600a612d2b565b60ff166020850152613083600161307485856019613a71565b60ff169063ffffffff61369816565b60ff908116604086015260608701516130a191859160009116613ac2565b60ff16606085015250610fff915050565b825160ff6001607b1b6001600160801b03928316041682528351600160771b90821604600f1660208301528351600160741b90821604600716604083015292516001606d1b931692909204607f1660608301525090565b600061311482612e02565b6131305760405162461bcd60e51b8152600401610c6c906153ba565b600061313b83611592565b9050806001600160a01b0316846001600160a01b031614806131765750836001600160a01b031661316b84610c45565b6001600160a01b0316145b8061318657506131868185612c4f565b949350505050565b826001600160a01b03166131a182611592565b6001600160a01b0316146131c75760405162461bcd60e51b8152600401610c6c906156d3565b6001600160a01b0382166131ed5760405162461bcd60e51b8152600401610c6c906152d9565b6131f8838383610b6a565b613203600082612e19565b6001600160a01b038316600090815260016020526040902061322b908263ffffffff613b0516565b506001600160a01b0382166000908152600160205260409020613254908263ffffffff613b1116565b506132676002828463ffffffff613b1d16565b5080826001600160a01b0316846001600160a01b03167fddf252ad1be2c89b69c2b068fc378daa952ba7f163c4a11628f55a4df523b3ef60405160405180910390a4505050565b6000828152600a602052604090206132cc908263ffffffff612d6d16565b15610fd0576132d9612e15565b6001600160a01b0316816001600160a01b0316837f2f8788117e7eff1d82e926ec794901d17c78024a50270940304540a733656f0d60405160405180910390a45050565b6000610ffc8383613b33565b6000828152600a60205260409020613347908263ffffffff613b7816565b15610fd057613354612e15565b6001600160a01b0316816001600160a01b0316837ff6391f5c32d9c69d2a47ea670b442974b53935d1edc7fd64eb21e047a839171b60405160405180910390a45050565b600081815b81518110156133ea5760008282815181106133b457fe5b016020015160f81c9050603081108015906133d0575060398111155b156133e1576030810384600a020193505b5060010161339d565b5050919050565b60008080806134008686613b8d565b909450925050505b9250929050565b8051610fd0906009906020840190614365565b6000613186848484613be9565b610fd0828260405180602001604052806000815250613c48565b80546001019055565b600d54600160a01b900460ff161561347c5760405162461bcd60e51b8152600401610c6c90615108565b565b6000610ffc836001600160a01b038416613c7b565b606e61349f600b612dfe565b1061347c5760405162461bcd60e51b8152600401610c6c906151e0565b600e5443101561347c5760405162461bcd60e51b8152600401610c6c90615128565b6012543410156135005760405162461bcd60e51b8152600401610c6c90615529565b60125434111561354e5760125433906108fc9061352490349063ffffffff612dbc16565b6040518115909202916000818181858888f1935050505015801561354c573d6000803e3d6000fd5b505b600061355983612e02565b613563573261356c565b61356c83611592565b9050600061357932611621565b156135865760135461358a565b6014545b905060006001600160a01b03831633148015906135b057506001600160a01b0383163214155b80156135ce5750836001600160a01b0316836001600160a01b031614155b6135d95760006135f3565b6135f36064610adb84601254612d8290919063ffffffff16565b90508015613633576040516001600160a01b0384169082156108fc029083906000818181858888f19350505050158015613631573d6000803e3d6000fd5b505b60125461364f9061364a908363ffffffff612dbc16565b610abd565b5050505050565b6000610ffc83836040518060400160405280601881526020017f536166654d6174683a206d6f64756c6f206279207a65726f0000000000000000815250613c93565b600082820183811015610ffc5760405162461bcd60e51b8152600401610c6c90615241565b600080600d60009054906101000a90046001600160a01b03166001600160a01b031663990c8f796040518163ffffffff1660e01b815260040160206040518083038186803b15801561370e57600080fd5b505afa158015613722573d6000803e3d6000fd5b505050506040513d601f19601f820116820180604052508101906137469190614778565b848460405160200161375a93929190614f31565b60408051808303601f1901815291905280516020909101206001600160801b0316949350505050565b61378e84848461318e565b61379a84848484613cc7565b61282a5760405162461bcd60e51b8152600401610c6c9061518e565b6060816137db57506040805180820190915260018152600360fc1b6020820152610b8e565b8160005b81156137f357600101600a820491506137df565b60608167ffffffffffffffff8111801561380c57600080fd5b506040519080825280601f01601f191660200182016040528015613837576020820181803683370190505b50859350905060001982015b831561388857600a840660300160f81b8282806001900393508151811061386657fe5b60200101906001600160f81b031916908160001a905350600a84049350613843565b50949350505050565b600081836138b25760405162461bcd60e51b8152600401610c6c9190615064565b5060008385816138be57fe5b0495945050505050565b60006138d48383613c7b565b61390a57508154600181810184556000848152602080822090930184905584548482528286019093526040902091909155610fff565b506000610fff565b600081848411156139365760405162461bcd60e51b8152600401610c6c9190615064565b505050900390565b6000610ffc8383613c7b565b60408051600380825260808201909252606091600291839160208201838036833701905050905060008085604051602001613986929190614f23565b60408051601f198184030181529190528051602090910120905060005b838110156139f7578040826040516020016139bf929190614f23565b604051602081830303815290604052805190602001208382600101815181106139e457fe5b60209081029190910101526001016139a3565b5090949350505050565b600080613a138560018560ff16613ac2565b90506000805b60188160ff161015613a6757613a4c868260ff1660188110613a3757fe5b6020020151839060ff1663ffffffff613dac16565b9150818313613a5f57925061257e915050565b600101613a19565b5050509392505050565b600080613a838560018560ff16613ac2565b90506000805b60078160ff161015613a6757613aa7868260ff1660078110613a3757fe5b9150818313613aba57925061257e915050565b600101613a89565b600081831315613ae45760405162461bcd60e51b8152600401610c6c906159c3565b82838303600101613af486613df2565b81613afb57fe5b0601949350505050565b6000610ffc8383613ed5565b6000610ffc83836138c8565b600061318684846001600160a01b038516613f9b565b81546000908210613b565760405162461bcd60e51b8152600401610c6c90615077565b826000018281548110613b6557fe5b9060005260206000200154905092915050565b6000610ffc836001600160a01b038416613ed5565b815460009081908310613bb25760405162461bcd60e51b8152600401610c6c90615556565b6000846000018481548110613bc357fe5b906000526020600020906002020190508060000154816001015492509250509250929050565b60008281526001840160205260408120548281613c195760405162461bcd60e51b8152600401610c6c9190615064565b50846000016001820381548110613c2c57fe5b9060005260206000209060020201600101549150509392505050565b613c528383614032565b613c5f6000848484613cc7565b610b6a5760405162461bcd60e51b8152600401610c6c9061518e565b60009081526001919091016020526040902054151590565b60008183613cb45760405162461bcd60e51b8152600401610c6c9190615064565b50828481613cbe57fe5b06949350505050565b6000613cdb846001600160a01b0316614102565b613ce757506001613186565b6060613d75630a85bd0160e11b613cfc612e15565b888787604051602401613d12949392919061500e565b604051602081830303815290604052906001600160e01b0319166020820180516001600160e01b038381831617835250505050604051806060016040528060328152602001615dab603291396001600160a01b038816919063ffffffff61413b16565b9050600081806020019051810190613d8d91906147fc565b6001600160e01b031916630a85bd0160e11b1492505050949350505050565b6000828201818312801590613dc15750838112155b80613dd65750600083128015613dd657508381125b610ffc5760405162461bcd60e51b8152600401610c6c90615354565b60006001825111613e155760405162461bcd60e51b8152600401610c6c90615278565b6000600183510383600081518110613e2957fe5b602002602001015160001c81613e3b57fe5b0660010190506000838281518110613e4f57fe5b6020026020010151604051602001613e679190614f1a565b60405160208183030381529060405280519060200120905083600081518110613e8c57fe5b602002602001015160001c60010160001b84600081518110613eaa57fe5b60200260200101818152505080848381518110613ec357fe5b60209081029190910101529392505050565b60008181526001830160205260408120548015613f915783546000198083019190810190600090879083908110613f0857fe5b9060005260206000200154905080876000018481548110613f2557fe5b600091825260208083209091019290925582815260018981019092526040902090840190558654879080613f5557fe5b60019003818190600052602060002001600090559055866001016000878152602001908152602001600020600090556001945050505050610fff565b6000915050610fff565b60008281526001840160205260408120548061400057505060408051808201825283815260208082018481528654600181810189556000898152848120955160029093029095019182559151908201558654868452818801909252929091205561257e565b8285600001600183038154811061401357fe5b906000526020600020906002020160010181905550600091505061257e565b6001600160a01b0382166140585760405162461bcd60e51b8152600401610c6c90615598565b61406181612e02565b1561407e5760405162461bcd60e51b8152600401610c6c9061520a565b61408a60008383610b6a565b6001600160a01b03821660009081526001602052604090206140b2908263ffffffff613b1116565b506140c56002828463ffffffff613b1d16565b5060405181906001600160a01b038416906000907fddf252ad1be2c89b69c2b068fc378daa952ba7f163c4a11628f55a4df523b3ef908290a45050565b6000813f7fc5d2460186f7233c927e7db2dcc703c0e500b653ca82273b7bfad8045d85a470818114801590613186575050151592915050565b60606131868484600085606061415085614102565b61416c5760405162461bcd60e51b8152600401610c6c90615853565b60006060866001600160a01b031685876040516141899190614f47565b60006040518083038185875af1925050503d80600081146141c6576040519150601f19603f3d011682016040523d82523d6000602084013e6141cb565b606091505b509150915081156141df5791506131869050565b8051156141ef5780518082602001fd5b8360405162461bcd60e51b8152600401610c6c9190615064565b6040805161020081018252600080825260208201819052918101829052606081018290526080810182905260a0810182905260c0810182905260e08101829052610100810182905261012081018290526101408101829052610160810182905261018081018290526101a081018290526101c081018290526101e081019190915290565b828054600181600116156101000203166002900490600052602060002090601f016020900481019282601f106142ce5782800160ff198235161785556142fb565b828001600101855582156142fb579182015b828111156142fb5782358255916020019190600101906142e0565b50614307929150614410565b5090565b60405180608001604052806004906020820280368337509192915050565b60405180604001604052806002906020820280368337509192915050565b60405180606001604052806003906020820280368337509192915050565b828054600181600116156101000203166002900490600052602060002090601f016020900481019282601f106143a657805160ff19168380011785556142fb565b828001600101855582156142fb579182015b828111156142fb5782518255916020019190600101906143b8565b6040518060e001604052806007906020820280368337509192915050565b6040518061030001604052806018906020820280368337509192915050565b610bac91905b808211156143075760008155600101614416565b80356001600160a01b0381168114610fff57600080fd5b8060608101831015610fff57600080fd5b8060408101831015610fff57600080fd5b600082601f830112614473578081fd5b61447d6040615ceb565b905080828460408501111561449157600080fd5b6000805b60028110156144c357823560ff811681146144ae578283fd5b84526020938401939290920191600101614495565b5050505092915050565b8060808101831015610fff57600080fd5b600082601f8301126144ee578081fd5b6144f86080615ceb565b905080828460808501111561450c57600080fd5b60005b60048110156145375761452286836145a2565b8352602092830192919091019060010161450f565b50505092915050565b80358015158114610fff57600080fd5b60008083601f840112614561578182fd5b50813567ffffffffffffffff811115614578578182fd5b60208301915083602082850101111561340857600080fd5b803561ffff81168114610fff57600080fd5b803560ff81168114610fff57600080fd5b6000602082840312156145c4578081fd5b610ffc838361442a565b600080604083850312156145e0578081fd5b6145ea848461442a565b91506145f9846020850161442a565b90509250929050565b600080600060608486031215614616578081fd5b833561462181615d7f565b9250602084013561463181615d7f565b929592945050506040919091013590565b60008060008060808587031215614657578081fd5b614661868661442a565b9350614670866020870161442a565b925060408501359150606085013567ffffffffffffffff811115614692578182fd5b80860187601f8201126146a3578283fd5b803591506146b86146b383615d2f565b615ceb565b8281528860208484010111156146cc578384fd5b8260208301602083013791820160200192909252939692955090935050565b600080604083850312156146fd578182fd5b614707848461442a565b91506145f98460208501614540565b60008060408385031215614728578182fd5b614732848461442a565b946020939093013593505050565b600060208284031215614751578081fd5b81358015158114610ffc578182fd5b600060208284031215614771578081fd5b5035919050565b600060208284031215614789578081fd5b5051919050565b600080604083850312156147a2578182fd5b8235915060208301356147b481615d7f565b809150509250929050565b600080604083850312156147d1578182fd5b50508035926020909101359150565b6000602082840312156147f1578081fd5b8135610ffc81615d94565b60006020828403121561480d578081fd5b8151610ffc81615d94565b6000806020838503121561482a578182fd5b823567ffffffffffffffff811115614840578283fd5b61484c85828601614550565b90969095509350505050565b60008060008060008060008060008060006102a08c8e031215614879578889fd5b67ffffffffffffffff808d35111561488f57898afd5b61489c8e8e358f01614550565b909c509a506148ae8e60208f01614441565b99506148bd8e60808f01614452565b98506148cc8e60c08f016144cd565b97506148dc8e6101408f01614452565b96506148ec8e6101808f016145a2565b95506148fc8e6101a08f01614441565b945061490c8e6102008f016144cd565b9350806102808e0135111561491f578283fd5b506149318d6102808e01358e01614550565b81935080925050509295989b509295989b9093969950565b6000806000806000806000806000806101e08b8d031215614968578384fd5b8a3567ffffffffffffffff81111561497e578485fd5b61498a8d828e01614550565b909b50995061499e90508c60208d016145a2565b97506149ad8c60408d016145a2565b96506149bc8c60608d01614441565b95506149cb8c60c08d016144cd565b94506149db8c6101408d01614452565b93506149eb8c6101808d016145a2565b92506149fb8c6101a08d0161442a565b91506101c08b013590509295989b9194979a5092959850565b600060208284031215614a25578081fd5b815167ffffffffffffffff811115614a3b578182fd5b80830184601f820112614a4c578283fd5b80519150614a5c6146b383615d2f565b828152856020848401011115614a70578384fd5b614a81836020830160208501615d53565b95945050505050565b6000806000806000806000806101c0898b031215614aa6578182fd5b88356001600160801b0381168114614abc578283fd5b9750614acb8a60208b016145a2565b9650614ada8a60408b016145a2565b9550614ae98a60608b01614441565b9450614af88a60c08b016144cd565b9350614b088a6101408b01614452565b9250614b188a6101808b016145a2565b91506101a089013590509295985092959890939650565b600060208284031215614b40578081fd5b813561ffff81168114610ffc578182fd5b60008060808385031215614b63578182fd5b823591506145f98460208501614441565b600080600060408486031215614b88578081fd5b83359250602084013567ffffffffffffffff811115614ba5578182fd5b614bb186828701614550565b9497909650939450505050565b60008060008060008060a08789031215614bd6578384fd5b86359550614be788602089016145a2565b9450614bf688604089016145a2565b9350614c0588606089016145a2565b9250608087013567ffffffffffffffff811115614c20578283fd5b614c2c89828a01614550565b979a9699509497509295939492505050565b600060208284031215614c4f578081fd5b610ffc83836145a2565b6000806000806000806101808789031215614c72578384fd5b614c7c88886145a2565b95506020614c8c89828a016145a2565b955088605f890112614c9c578485fd5b6003614caa6146b382615d12565b8060408b0160a08c018d811115614cbf57898afd5b895b85811015614ce557614cd38f84614590565b85529386019391860191600101614cc1565b50829950614cf38e826144de565b9850505050505050614d09886101208901614463565b9150614d19886101608901614540565b90509295509295509295565b8060005b600381101561282a57815161ffff16845260209384019390910190600101614d29565b8060005b600481101561282a57815160ff16845260209384019390910190600101614d50565b60008151808452614d8a816020860160208601615d53565b601f01601f19169290920160200192915050565b60008284528282602086013780602084860101526020601f19601f85011685010190509392505050565b614dd3828251614efe565b6020810151614de56020840182614f0b565b506040810151614df86040840182614f13565b506060810151614e0b6060840182614f13565b506080810151614e1e6080840182614f13565b5060a0810151614e3160a0840182614f13565b5060c0810151614e4460c0840182614f13565b5060e0810151614e5760e0840182614f13565b5061010080820151614e6b82850182614f13565b505061012080820151614e8082850182614f13565b505061014080820151614e9582850182614f13565b505061016080820151614eaa82850182614f13565b505061018080820151614ebf82850182614f13565b50506101a080820151614ed482850182614f13565b50506101c080820151614ee982850182614f13565b50506101e08082015161282a82850182614f13565b6001600160801b03169052565b61ffff169052565b60ff169052565b90815260200190565b918252602082015260400190565b9283526020830191909152604082015260600190565b60008251614f59818460208701615d53565b9190910192915050565b6000808454600180821660008114614f825760018114614f9957614fc8565b60ff198316865260028304607f1686019350614fc8565b600283048886526020808720875b83811015614fc05781548a820152908501908201614fa7565b505050860193505b5050508351614fdb818360208801615d53565b01949350505050565b6941444d494e5f524f4c4560b01b8152600a0190565b6001600160a01b0391909116815260200190565b6001600160a01b038581168252841660208201526040810183905260806060820181905260009061504190830184614d72565b9695505050505050565b901515815260200190565b60009190910b815260200190565b600060208252610ffc6020830184614d72565b60208082526022908201527f456e756d657261626c655365743a20696e646578206f7574206f6620626f756e604082015261647360f01b606082015260800190565b6020808252602f908201527f416363657373436f6e74726f6c3a2073656e646572206d75737420626520616e60408201526e0818591b5a5b881d1bc819dc985b9d608a1b606082015260800190565b60208082526006908201526514185d5cd95960d21b604082015260600190565b60208082526004908201526315d0525560e21b604082015260600190565b6020808252600790820152664e4f204d4f524560c81b604082015260600190565b6020808252600d908201526c34b73b30b634b21031b7b637b960991b604082015260600190565b60208082526032908201527f4552433732313a207472616e7366657220746f206e6f6e20455243373231526560408201527131b2b4bb32b91034b6b83632b6b2b73a32b960711b606082015260800190565b60208082526010908201526f20a92a1029a0a6229024a99027ab22a960811b604082015260600190565b6020808252601c908201527f4552433732313a20746f6b656e20616c7265616479206d696e74656400000000604082015260600190565b6020808252601b908201527f536166654d6174683a206164646974696f6e206f766572666c6f770000000000604082015260600190565b60208082526019908201527f52616e646f6d2e6e6578743a20696e76616c696420706f6f6c00000000000000604082015260600190565b60208082526010908201526f696e76616c6964206861746368696e6760801b604082015260600190565b60208082526024908201527f4552433732313a207472616e7366657220746f20746865207a65726f206164646040820152637265737360e01b606082015260800190565b60208082526019908201527f4552433732313a20617070726f766520746f2063616c6c657200000000000000604082015260600190565b60208082526021908201527f5369676e6564536166654d6174683a206164646974696f6e206f766572666c6f6040820152607760f81b606082015260800190565b6020808252600b908201526a496e76616c696420426b6760a81b604082015260600190565b6020808252602c908201527f4552433732313a206f70657261746f7220717565727920666f72206e6f6e657860408201526b34b9ba32b73a103a37b5b2b760a11b606082015260800190565b60208082526030908201527f416363657373436f6e74726f6c3a2073656e646572206d75737420626520616e60408201526f2061646d696e20746f207265766f6b6560801b606082015260800190565b60208082526038908201527f4552433732313a20617070726f76652063616c6c6572206973206e6f74206f7760408201527f6e6572206e6f7220617070726f76656420666f7220616c6c0000000000000000606082015260800190565b6020808252602a908201527f4552433732313a2062616c616e636520717565727920666f7220746865207a65604082015269726f206164647265737360b01b606082015260800190565b602080825260129082015271496e7375662e205065726d697373696f6e7360701b604082015260600190565b6020808252601390820152721a5b9cdd599a58da595b9d081c185e5b595b9d606a1b604082015260600190565b60208082526022908201527f456e756d657261626c654d61703a20696e646578206f7574206f6620626f756e604082015261647360f01b606082015260800190565b6020808252818101527f4552433732313a206d696e7420746f20746865207a65726f2061646472657373604082015260600190565b60208082526021908201527f536166654d6174683a206d756c7469706c69636174696f6e206f766572666c6f6040820152607760f81b606082015260800190565b6020808252602c908201527f4552433732313a20617070726f76656420717565727920666f72206e6f6e657860408201526b34b9ba32b73a103a37b5b2b760a11b606082015260800190565b6020808252602c908201527f4552433732314d657461646174613a2055524920736574206f66206e6f6e657860408201526b34b9ba32b73a103a37b5b2b760a11b606082015260800190565b6020808252601390820152721a5b9d985b1a59081cda185c194818dbdd5b9d606a1b604082015260600190565b60208082526029908201527f4552433732313a207472616e73666572206f6620746f6b656e2074686174206960408201526839903737ba1037bbb760b91b606082015260800190565b6020808252602f908201527f4552433732314d657461646174613a2055524920717565727920666f72206e6f60408201526e3732bc34b9ba32b73a103a37b5b2b760891b606082015260800190565b60208082526010908201526f24b73b30b634b210223ab930ba34b7b760811b604082015260600190565b60208082526012908201527134b73b30b634b21039b0ba3ab930ba34b7b760711b604082015260600190565b60208082526021908201527f4552433732313a20617070726f76616c20746f2063757272656e74206f776e656040820152603960f91b606082015260800190565b60208082526031908201527f4552433732313a207472616e736665722063616c6c6572206973206e6f74206f6040820152701ddb995c881b9bdc88185c1c1c9bdd9959607a1b606082015260800190565b6020808252601d908201527f416464726573733a2063616c6c20746f206e6f6e2d636f6e7472616374000000604082015260600190565b6020808252600e908201526d1a5b9d985b1a59081cdc1c99585960921b604082015260600190565b6020808252600490820152631554d15160e21b604082015260600190565b6020808252600490820152634e4f504560e01b604082015260600190565b6020808252601490820152734d7573742062652066757475726520626c6f636b60601b604082015260600190565b602080825260149082015273696e76616c6964206865696768742072616e676560601b604082015260600190565b6020808252600d908201526c1092d1c80948125b9d985b1a59609a1b604082015260600190565b60208082526032908201527f43616c6c657220646f736e27742068617665207065726d697373696f6e20746f604082015271103ab9b2903a3434b990333ab731ba34b7b760711b606082015260800190565b6020808252818101527f52616e646f6d2e756e69666f726d3a20696e76616c696420696e74657276616c604082015260600190565b6020808252601690820152750c1e0c0c08149958da5c1a595b9d08125b9d985b1a5960521b604082015260600190565b6020808252602f908201527f416363657373436f6e74726f6c3a2063616e206f6e6c792072656e6f756e636560408201526e103937b632b9903337b91039b2b63360891b606082015260800190565b602080825260119082015270696e76616c6964206c696768746e65737360781b604082015260600190565b602080825260139082015272696e76616c69642077696474682072616e676560681b604082015260600190565b60006102e0615ade838a614dc8565b61020083018890526001600160a01b038716610220840152610240830186835b6004811015615b2857602080830160ff615b1882866145a2565b1685529301929150600101615afe565b505050806102c0840152615b3f8184018587614d9e565b9998505050505050505050565b60006102e0615b5b838a614dc8565b61020083018890526001600160a01b038716610220840152615b81610240840187614d4c565b806102c0840152615b3f8184018587614d9e565b60006102e0615ba48388614dc8565b61020083018690526001600160a01b038516610220840152615bca610240840185614d4c565b6102c0830181905282015261030001949350505050565b6001600160801b038c16815260208082018c905260ff8b811660408401528a166060830152610220820190615c19608084018b614d4c565b61010083018960005b6002811015615c4657615c36838351614f13565b9183019190830190600101615c22565b50505050615c58610140830188614f13565b615c66610160830187614d25565b615c746101c0830186614f13565b615c826101e0830185614f13565b615c90610200830184614f13565b9c9b505050505050505050505050565b61ffff91909116815260200190565b63ffffffff91909116815260200190565b60ff91909116815260200190565b60ff93841681529183166020830152909116604082015260600190565b60405181810167ffffffffffffffff81118282101715615d0a57600080fd5b604052919050565b600067ffffffffffffffff821115615d28578081fd5b5060200290565b600067ffffffffffffffff821115615d45578081fd5b50601f01601f191660200190565b60005b83811015615d6e578181015183820152602001615d56565b8381111561282a5750506000910152565b6001600160a01b0381168114610b6d57600080fd5b6001600160e01b031981168114610b6d57600080fdfe4552433732313a207472616e7366657220746f206e6f6e20455243373231526563656976657220696d706c656d656e7465724552433732313a206f776e657220717565727920666f72206e6f6e6578697374656e7420746f6b656ea264697066735822122047d393f125e812e94e9a7d4762fe66b1c59bcb16d0c17a5746d46861903abede64736f6c6343000608003368747470733a2f2f72696e6b6562792e74696e79626f782e73686f702f54696e79426f7865732e6a736f6e",
  "linkReferences": {},
  "deployedLinkReferences": {}
}