{
  "_format": "hh-sol-artifact-1",
  "contractName": "Animation",
  "sourceName": "contracts/Animation.sol",
  "abi": [
    {
      "inputs": [
        {
          "components": [
            {
              "internalType": "uint128",
              "name": "randomness",
              "type": "uint128"
            },
            {
              "internalType": "uint16",
              "name": "hue",
              "type": "uint16"
            },
            {
              "internalType": "uint8",
              "name": "saturation",
              "type": "uint8"
            },
            {
              "internalType": "uint8",
              "name": "lightness",
              "type": "uint8"
            },
            {
              "internalType": "uint8",
              "name": "shapes",
              "type": "uint8"
            },
            {
              "internalType": "uint8",
              "name": "hatching",
              "type": "uint8"
            },
            {
              "internalType": "uint8",
              "name": "widthMin",
              "type": "uint8"
            },
            {
              "internalType": "uint8",
              "name": "widthMax",
              "type": "uint8"
            },
            {
              "internalType": "uint8",
              "name": "heightMin",
              "type": "uint8"
            },
            {
              "internalType": "uint8",
              "name": "heightMax",
              "type": "uint8"
            },
            {
              "internalType": "uint8",
              "name": "spread",
              "type": "uint8"
            },
            {
              "internalType": "uint8",
              "name": "grid",
              "type": "uint8"
            },
            {
              "internalType": "uint8",
              "name": "mirroring",
              "type": "uint8"
            },
            {
              "internalType": "uint8",
              "name": "bkg",
              "type": "uint8"
            },
            {
              "internalType": "uint8",
              "name": "duration",
              "type": "uint8"
            },
            {
              "internalType": "uint8",
              "name": "options",
              "type": "uint8"
            }
          ],
          "internalType": "struct TinyBox",
          "name": "box",
          "type": "tuple"
        },
        {
          "internalType": "uint8",
          "name": "animation",
          "type": "uint8"
        },
        {
          "components": [
            {
              "internalType": "int256[2]",
              "name": "position",
              "type": "int256[2]"
            },
            {
              "internalType": "int256[2]",
              "name": "size",
              "type": "int256[2]"
            },
            {
              "components": [
                {
                  "internalType": "uint16",
                  "name": "hue",
                  "type": "uint16"
                },
                {
                  "internalType": "uint8",
                  "name": "saturation",
                  "type": "uint8"
                },
                {
                  "internalType": "uint8",
                  "name": "lightness",
                  "type": "uint8"
                }
              ],
              "internalType": "struct HSL",
              "name": "color",
              "type": "tuple"
            }
          ],
          "internalType": "struct Shape",
          "name": "shape",
          "type": "tuple"
        },
        {
          "internalType": "uint256",
          "name": "shapeIndex",
          "type": "uint256"
        }
      ],
      "name": "_generateAnimation",
      "outputs": [
        {
          "internalType": "string",
          "name": "",
          "type": "string"
        }
      ],
      "stateMutability": "pure",
      "type": "function"
    }
  ],
  "bytecode": "0x6135b5610026600b82828239805160001a60731461001957fe5b30600052607381538281f3fe73000000000000000000000000000000000000000030146080604052600436106100355760003560e01c806374d4ca021461003a575b600080fd5b61004d610048366004612886565b610063565b60405161005a919061330c565b60405180910390f35b6060806100a6600061007d6101e089016101c08a016128e6565b60ff161161008c57600a61009e565b61009e6101e088016101c089016128e6565b60ff1661198e565b6040516020016100b69190612a14565b60408051601f1981840301815291905290506060610101600860026100e36102008b016101e08c016128e6565b60ff16816100ed57fe5b0460ff16816100f857fe5b0660ff16611a6b565b905060ff86166101995761019060405180604001604052806006815260200165726f7461746560d01b815250836040518060400160405280600f81526020016e0303b39303b39303b3336303b33363608c1b8152506040518060400160405280600f81526020016e303b302e323b302e333b302e393b3160881b81525061018a60046000611c46565b86611d37565b92505050611986565b8560ff16600114156102265761019060405180604001604052806006815260200165726f7461746560d01b81525083604051806040016040528060118152602001700303b3138303b3138303b3336303b33363607c1b8152506040518060400160405280600f81526020016e303b302e343b302e353b302e393b3160881b81525061018a60046000611c46565b8560ff16600214156102b35761019060405180604001604052806006815260200165726f7461746560d01b81525083604051806040016040528060118152602001700303b3237303b3237303b3336303b33363607c1b8152506040518060400160405280600f81526020016e303b302e363b302e373b302e393b3160881b81525061018a60046000611c46565b8560ff166003141561035a5761019060405180604001604052806006815260200165726f7461746560d01b815250836040518060400160405280601981526020017f303b3132303b3132303b3234303b3234303b3336303b333630000000000000008152506040518060400160405280601f81526020017f303b302e3136363b302e3333333b302e353b302e3636363b302e3833333b310081525061018a60066000611c46565b8560ff16600414156103e45761019060405180604001604052806006815260200165726f7461746560d01b815250836040518060400160405280601f81526020017f303b39303b39303b3138303b3138303b3237303b3237303b3336303b333630008152506040518060600160405280602881526020016135586028913961018a60086000611c46565b8560ff16600514156104515761019060405180604001604052806006815260200165726f7461746560d01b815250836040518060600160405280602781526020016135316027913960405180606001604052806027815260200161350a6027913961018a600a6000611c46565b8560ff16600614156104c05761019060405180604001604052806006815260200165726f7461746560d01b81525083604051806040016040528060058152602001640303b3336360dc1b81525060405180604001604052806003815260200162303b3160e81b81525085611d54565b8560ff166007141561053e5761019060405180604001604052806006815260200165726f7461746560d01b815250836040518060400160405280600c81526020016b0303b39303b3237303b3336360a41b8152506040518060400160405280600b81526020016a303b302e313b302e393b3160a81b81525085611d54565b8560ff166008141561062e57604080518082019091526006815265726f7461746560d01b6020820152610190906105d76001870161058260a08c0160808d016128e6565b60ff1660006105996101e08e016101c08f016128e6565b60ff16116105a857600a6105ba565b6105ba6101e08d016101c08e016128e6565b60ff166103e80261ffff16816105cc57fe5b0461ffff160261198e565b6040516020016105e79190612ba4565b60408051601f19818403018152828201825260058352640303b3336360dc1b60208481019190915282518084019093526003835262303b3160e81b90830152919085611d54565b8560ff166009141561072057600061066161064f60a08a0160808b016128e6565b61012c9060ff1663ffffffff611d7f16565b9050606061068e6106898361067d89600163ffffffff611dca16565b9063ffffffff611df816565b61198e565b9050606081826040516020016106a5929190612dfd565b604051602081830303815290604052905061071460405180604001604052806006815260200165726f7461746560d01b81525086836040518060400160405280600f81526020016e303b302e353b302e363b302e393b3160881b81525061070e60046000611c46565b89611d37565b95505050505050611986565b8560ff16600a141561083c57606061075861068961074761064f60a08c0160808d016128e6565b61067d88600163ffffffff611dca16565b905060006107bc6107ad61078761077560a08d0160808e016128e6565b6103209060ff1663ffffffff611d7f16565b61067d898d608001602081019061079e91906128e6565b60ff169063ffffffff611e3216565b6103849063ffffffff611e3216565b905060606107c98261198e565b6040516020016107d99190613138565b604051602081830303815290604052905061071460405180604001604052806006815260200165726f7461746560d01b815250868586604051602001610820929190612d9e565b6040516020818303038152906040528461070e60036000611c46565b8560ff16600b1415610bc657610850612752565b5060408051808201909152600a808252602082015261086d612770565b60005b6002811015610a4457600088826002811061088757fe5b6020020135905060606108b185846002811061089f57fe5b6020020151839063ffffffff611e7416565b604051635191620760e11b815273__$b4ae538d42a0e0bb8330684d08e51a40b4$__9163a322c40e916108e791906004016132f2565b60006040518083038186803b1580156108ff57600080fd5b505af4158015610913573d6000803e3d6000fd5b505050506040513d6000823e601f3d908101601f1916820160405261093b91908101906127f5565b9050606061096086856002811061094e57fe5b6020020151849063ffffffff611eba16565b604051635191620760e11b815273__$b4ae538d42a0e0bb8330684d08e51a40b4$__9163a322c40e9161099691906004016132f2565b60006040518083038186803b1580156109ae57600080fd5b505af41580156109c2573d6000803e3d6000fd5b505050506040513d6000823e601f3d908101601f191682016040526109ea91908101906127f5565b905083156109f857806109fa565b815b8415610a065782610a08565b815b604051602001610a19929190612a39565b604051602081830303815290604052858560028110610a3457fe5b6020020152505050600101610870565b50610af6604051806040016040528060018152602001600f60fb1b815250610ab2610689600a60008e6101c0016020810190610a8091906128e6565b60ff1611610a8f57600a610aa3565b8d6101c0016020810190610aa391906128e6565b60ff169063ffffffff611d7f16565b604051602001610ac29190612a14565b60408051808303601f1901815282825285518383019092526008835267646973637265746560c01b60208401529187611f00565b610b9b604051806040016040528060018152602001607960f81b815250610b54610689600560008f6101c0016020810190610b3191906128e6565b60ff1611610b4057600a610aa3565b8e6101c0016020810190610aa391906128e6565b604051602001610b649190612a14565b60408051808303601f190181528282526020808801518484019093526008845267646973637265746560c01b908401529188611f00565b604051602001610bac9291906129a1565b604051602081830303815290604052945050505050611986565b8560ff16600c1415610eca576005610bdc612770565b60005b6002811015610da0576000888260028110610bf657fe5b602002013590506060610c0f828663ffffffff611e7416565b604051635191620760e11b815273__$b4ae538d42a0e0bb8330684d08e51a40b4$__9163a322c40e91610c4591906004016132f2565b60006040518083038186803b158015610c5d57600080fd5b505af4158015610c71573d6000803e3d6000fd5b505050506040513d6000823e601f3d908101601f19168201604052610c9991908101906127f5565b90506060610cad838763ffffffff611eba16565b604051635191620760e11b815273__$b4ae538d42a0e0bb8330684d08e51a40b4$__9163a322c40e91610ce391906004016132f2565b60006040518083038186803b158015610cfb57600080fd5b505af4158015610d0f573d6000803e3d6000fd5b505050506040513d6000823e601f3d908101601f19168201604052610d3791908101906127f5565b90508315610d455780610d47565b815b8415610d535782610d55565b815b8515610d615782610d63565b835b604051602001610d7593929190612a76565b604051602081830303815290604052858560028110610d9057fe5b6020020152505050600101610bdf565b50610e3d604051806040016040528060018152602001600f60fb1b815250610e0e610689601460008e6101c0016020810190610ddc91906128e6565b60ff1611610deb57600a610dff565b8d6101c0016020810190610dff91906128e6565b60ff169063ffffffff611df816565b604051602001610e1e9190612ba4565b60408051601f198184030181529190528360005b602002015186611f73565b610b9b604051806040016040528060018152602001607960f81b815250610e9b610689601460008f6101c0016020810190610e7891906128e6565b60ff1611610e8757600a610dff565b8e6101c0016020810190610dff91906128e6565b604051602001610eab9190612ba4565b60408051601f198184030181529190528460015b602002015187611f73565b8560ff16600d141561110c576005610ee0612770565b60005b6002811015611095576000888260028110610efa57fe5b602002013590506060610f13828663ffffffff611e7416565b604051635191620760e11b815273__$b4ae538d42a0e0bb8330684d08e51a40b4$__9163a322c40e91610f4991906004016132f2565b60006040518083038186803b158015610f6157600080fd5b505af4158015610f75573d6000803e3d6000fd5b505050506040513d6000823e601f3d908101601f19168201604052610f9d91908101906127f5565b90506060610fb1838763ffffffff611eba16565b604051635191620760e11b815273__$b4ae538d42a0e0bb8330684d08e51a40b4$__9163a322c40e91610fe791906004016132f2565b60006040518083038186803b158015610fff57600080fd5b505af4158015611013573d6000803e3d6000fd5b505050506040513d6000823e601f3d908101601f1916820160405261103b91908101906127f5565b90508315611049578061104b565b815b84156110575782611059565b815b60405160200161106a929190612a39565b60405160208183030381529060405285856002811061108557fe5b6020020152505050600101610ee3565b506110d1604051806040016040528060018152602001600f60fb1b815250610e0e610689601960008e6101c0016020810190610ddc91906128e6565b610b9b604051806040016040528060018152602001607960f81b815250610e9b610689601960008f6101c0016020810190610e7891906128e6565b8560ff16600e141561119f57610190604051806040016040528060058152602001647363616c6560d81b815250836040518060400160405280601b81526020017f3120313b312e3520312e353b3120313b302e3520302e353b312031000000000081525060405180604001604052806011815260200170303b302e32353b302e353b302e37353b3160781b815250611f9a565b8560ff16600f14156112eb5760076111b5612770565b60005b60028110156112975760008860400182600281106111d257fe5b6020020135905060606111e48261198e565b9050606061120b6106896111fe858963ffffffff611d7f16565b859063ffffffff611e3216565b90506060611232610689611225868a63ffffffff611d7f16565b869063ffffffff611dca16565b90508285156112415781611243565b825b8487156112505784611252565b835b86604051602001611267959493929190612ad5565b60405160208183030381529060405286866002811061128257fe5b60200201525050600190920191506111b89050565b506040805180820190915260058152640eed2c8e8d60db1b60208201526112c19085836000610e32565b6040805180820190915260068152651a195a59da1d60d21b6020820152610b9b9086846001610ebf565b8560ff166010141561133c57610190604051806040016040528060028152602001610e4f60f31b81525083604051806040016040528060078152602001660303b3130303b360cc1b81525084611f73565b8560ff16601114156114e5576014606061135d60008363ffffffff611eba16565b604051635191620760e11b815273__$b4ae538d42a0e0bb8330684d08e51a40b4$__9163a322c40e9161139391906004016132f2565b60006040518083038186803b1580156113ab57600080fd5b505af41580156113bf573d6000803e3d6000fd5b505050506040513d6000823e601f3d908101601f191682016040526113e791908101906127f5565b905060606113fc60008463ffffffff611e7416565b604051635191620760e11b815273__$b4ae538d42a0e0bb8330684d08e51a40b4$__9163a322c40e9161143291906004016132f2565b60006040518083038186803b15801561144a57600080fd5b505af415801561145e573d6000803e3d6000fd5b505050506040513d6000823e601f3d908101601f1916820160405261148691908101906127f5565b90506060818284856040516020016114a19493929190612c79565b60408051601f1981840301815282820190915260098252687472616e736c61746560b81b602083015291506114d890878388611f9a565b9650505050505050611986565b8560ff166012141561164157606060405160200161150290612bf3565b60408051601f198184030181529190529050600061154061152960a08b0160808c016128e6565b60010160ff16612710611fca90919063ffffffff16565b9050600061157761156861155b89600163ffffffff611eba16565b849063ffffffff61202e16565b6127109063ffffffff611e7416565b9050606061159461158f83600463ffffffff61209916565b612144565b905060606115bc61158f60046115b0868863ffffffff611e7416565b9063ffffffff61209916565b905060606115d861158f60046115b0878963ffffffff611eba16565b905060608284836040516020016115f193929190612d22565b60408051601f1981840301815282820190915260058252647363616c6560d81b60208301529150611631908a898461162b60046000611c46565b8d611d37565b9950505050505050505050611986565b8560ff166013141561173757600061168b61167761166560a08b0160808c016128e6565b6101909060ff1663ffffffff611d7f16565b61067d8761079e60a08d0160808e016128e6565b905060006116a86107ad61078761166560a08d0160808e016128e6565b905060606116b58361198e565b6116be8361198e565b6040516020016116cf929190613174565b6040516020818303038152906040529050610714604051806040016040528060078152602001666f70616369747960c81b8152508660405180604001604052806007815260200166313b303b303b3160c81b8152508461173160036000611c46565b89612517565b8560ff166014141561178e57610190604051806040016040528060058152602001640e6d6caeeb60db1b815250836040518060400160405280600a8152602001690303b35303b2d35303b360b41b81525084611f9a565b8560ff16601514156117e55761019060405180604001604052806005815260200164736b65775960d81b815250836040518060400160405280600a8152602001690303b35303b2d35303b360b41b81525084611f9a565b8560ff16601614156118dd576040805180820190915260058152640e6d6caeeb60db1b60208201526101909061184e6106896002600061182d6101e08e016101c08f016128e6565b60ff161161183c57600a610aa3565b610aa36101e08d016101c08e016128e6565b60405160200161185e9190612a14565b60408051601f198184030181528282018252601d83527f303b2d36343b33323b2d31363b383b2d343b323b2d313b2e353b303b300000006020848101919091528251808401909352601e83527f303b2e313b2e323b2e333b2e343b2e353b2e363b2e373b2e383b2e393b31000090830152919061018a600a6000611c46565b8560ff166017141561198357610190604051806040016040528060058152602001640e6d6caeeb60db1b815250836040518060400160405280601e81526020017f303b31363b2d31323b383b2d343b323b2d313b2e353b2d2e32353b303b3000008152506040518060400160405280601e81526020017f303b2e313b2e323b2e333b2e343b2e353b2e363b2e373b2e383b2e393b31000081525061018a600a6001611c46565b50505b949350505050565b6060816119b357506040805180820190915260018152600360fc1b6020820152611a66565b8160005b81156119cb57600101600a820491506119b7565b60608167ffffffffffffffff811180156119e457600080fd5b506040519080825280601f01601f191660200182016040528015611a0f576020820181803683370190505b50859350905060001982015b8315611a6057600a840660300160f81b82828060019003935081518110611a3e57fe5b60200101906001600160f81b031916908160001a905350600a84049350611a1b565b50925050505b919050565b6060611a75612797565b5060408051606080820183526001825260026020830152601992820192909252906004841115611ac357611abe826005860360038110611ab157fe5b602002015160ff1661198e565b611ae7565b6040518060400160405280600a815260200169696e646566696e69746560b01b8152505b604051602001611af79190612ee8565b604051602081830303815290604052905060606001851115611bb65784600214611b6d5784600314611b465760405180604001604052806005815260200164636c69636b60d81b815250611b68565b6040518060400160405280600881526020016764626c636c69636b60c01b8152505b611b92565b6040518060400160405280600b81526020016a036b7bab9b2b2b73a32b9160ad1b8152505b604051602001611ba29190612ea5565b604051602081830303815290604052611bc7565b604051806020016040528060008152505b9050606085600314611be85760405180602001604052806000815250611c15565b60405180604001604052806013815260200172032b7321e913a30b933b2ba1731b634b1b5911606d1b8152505b9050828282604051602001611c2c939291906129cf565b604051602081830303815290604052945050505050919050565b6060611c50612770565b5060408051608081018252600c8183019081526b302e35203020302e3735203160a01b60608301528152815180830190925260098252682e342030202e36203160b81b60208381019190915281019190915260005b8460ff168160ff161015611d2f578260008260ff1611611cd45760405180602001604052806000815250611cef565b604051806040016040528060018152602001603b60f81b8152505b838660ff1660028110611cfe57fe5b6020020151604051602001611d15939291906129cf565b60408051601f198184030181529190529250600101611ca5565b505092915050565b6060611d49878787878787600061254f565b979650505050505050565b6060611d75868686866040518060200160405280600081525087600061254f565b9695505050505050565b6000611dc183836040518060400160405280601a81526020017f536166654d6174683a206469766973696f6e206279207a65726f000000000000815250612646565b90505b92915050565b600082820183811015611dc15760405162461bcd60e51b8152600401611def9061331f565b60405180910390fd5b600082611e0757506000611dc4565b82820282848281611e1457fe5b0414611dc15760405162461bcd60e51b8152600401611def906133d8565b6000611dc183836040518060400160405280601e81526020017f536166654d6174683a207375627472616374696f6e206f766572666c6f77000081525061267d565b6000818303818312801590611e895750838113155b80611e9e5750600083128015611e9e57508381135b611dc15760405162461bcd60e51b8152600401611def90613460565b6000828201818312801590611ecf5750838112155b80611ee45750600083128015611ee457508381125b611dc15760405162461bcd60e51b8152600401611def90613356565b60608584868551600014611f335785604051602001611f1f9190612c51565b604051602081830303815290604052611f44565b604051806020016040528060008152505b85604051602001611f59959493929190612f2a565b604051602081830303815290604052905095945050505050565b6060611f918585856040518060200160405280600081525086611f00565b95945050505050565b6060611f91858585604051806020016040528060008152506040518060200160405280600081525087600061254f565b600081611fe95760405162461bcd60e51b8152600401611def906134a4565b81600019148015611ffd5750600160ff1b83145b1561201a5760405162461bcd60e51b8152600401611def90613397565b600082848161202557fe5b05949350505050565b60008261203d57506000611dc4565b826000191480156120515750600160ff1b82145b1561206e5760405162461bcd60e51b8152600401611def90613419565b8282028284828161207b57fe5b0514611dc15760405162461bcd60e51b8152600401611def90613419565b6120a16127b5565b604080518082019182905263d6c1528b60e01b9091528073__$58bf06b23003f263f89da1a87991e621d6$__63d6c1528b6120e08787604486016132fb565b60206040518083038186803b1580156120f857600080fd5b505af415801561210c573d6000803e3d6000fd5b505050506040513d601f19601f8201168201806040525081019061213091906127dd565b81526020018360ff16815250905092915050565b8051604051630e99899360e01b815260609160009173__$58bf06b23003f263f89da1a87991e621d6$__91630e9989939161218291906004016132f2565b60206040518083038186803b15801561219a57600080fd5b505af41580156121ae573d6000803e3d6000fd5b505050506040513d601f19601f820116820180604052508101906121d291906127dd565b9050600073__$58bf06b23003f263f89da1a87991e621d6$__63393ca44673__$58bf06b23003f263f89da1a87991e621d6$__63cf94513a73__$58bf06b23003f263f89da1a87991e621d6$__631b5ac4b589600001516040518263ffffffff1660e01b815260040161224591906132f2565b60206040518083038186803b15801561225d57600080fd5b505af4158015612271573d6000803e3d6000fd5b505050506040513d601f19601f8201168201806040525081019061229591906127dd565b6040518263ffffffff1660e01b81526004016122b191906132f2565b60206040518083038186803b1580156122c957600080fd5b505af41580156122dd573d6000803e3d6000fd5b505050506040513d601f19601f8201168201806040525081019061230191906127dd565b86602001516040518363ffffffff1660e01b81526004016123239291906132fb565b60206040518083038186803b15801561233b57600080fd5b505af415801561234f573d6000803e3d6000fd5b505050506040513d601f19601f8201168201806040525081019061237391906127dd565b9050600082131561242b57604051635191620760e11b815273__$b4ae538d42a0e0bb8330684d08e51a40b4$__9063a322c40e906123b59085906004016132f2565b60006040518083038186803b1580156123cd57600080fd5b505af41580156123e1573d6000803e3d6000fd5b505050506040513d6000823e601f3d908101601f1916820160405261240991908101906127f5565b6040516020016124199190612985565b60405160208183030381529060405292505b600081131561251057826000856020015160ff16116124d457604051635191620760e11b815273__$b4ae538d42a0e0bb8330684d08e51a40b4$__9063a322c40e9061247b9085906004016132f2565b60006040518083038186803b15801561249357600080fd5b505af41580156124a7573d6000803e3d6000fd5b505050506040513d6000823e601f3d908101601f191682016040526124cf91908101906127f5565b6124ed565b60208501516124ed90839060ff1663ffffffff6126a916565b6040516020016124fe929190612b73565b60405160208183030381529060405292505b5050919050565b606086858786868660405160200161253496959493929190613009565b60405160208183030381529060405290509695505050505050565b60608787878751600014612582578760405160200161256e9190612c1c565b604051602081830303815290604052612593565b604051806020016040528060008152505b8751156125bf57876040516020016125ab9190612e60565b6040516020818303038152906040526125d0565b604051806020016040528060008152505b866125ea5760405180602001604052806000815250612613565b6040518060400160405280600f81526020016e222061646469746976653d2273756d60881b8152505b8860405160200161262a97969594939291906131d5565b6040516020818303038152906040529050979650505050505050565b600081836126675760405162461bcd60e51b8152600401611def919061330c565b50600083858161267357fe5b0495945050505050565b600081848411156126a15760405162461bcd60e51b8152600401611def919061330c565b505050900390565b60606126b483612700565b905060001982015b80156126f95780600a0a8412156126f057816040516020016126de9190612bca565b60405160208183030381529060405291505b600019016126bc565b5092915050565b606060008212612718576127138261198e565b611dc4565b61272d6106898360001963ffffffff61202e16565b60405160200161273d919061311c565b60405160208183030381529060405292915050565b60405180604001604052806002906020820280368337509192915050565b60405180604001604052806002905b606081526020019060019003908161277f5790505090565b60405180606001604052806003906020820280368337509192915050565b604080518082019091526000808252602082015290565b803560ff81168114611dc457600080fd5b6000602082840312156127ee578081fd5b5051919050565b600060208284031215612806578081fd5b815167ffffffffffffffff8082111561281d578283fd5b81840185601f82011261282e578384fd5b805192508183111561283e578384fd5b604051601f8401601f19168101602001838111828210171561285e578586fd5b604052838152818401602001871015612875578485fd5b611d758460208301602085016134d9565b60008060008084860361032081121561289d578384fd5b610200808212156128ac578485fd5b8695506128bb888289016127cc565b94505060e061021f19820112156128d0578283fd5b5092959194505061022083019261030001359150565b6000602082840312156128f7578081fd5b611dc183836127cc565b600081518084526129198160208601602086016134d9565b601f01601f19169290920160200192915050565b6000815161293f8185602086016134d9565b9290920192915050565b61011160f51b815260020190565b730111031b0b631a6b7b2329e9139b83634b73291160651b815260140190565b61179f60f11b815260020190565b600082516129978184602087016134d9565b9190910192915050565b600083516129b38184602088016134d9565b83519083016129c68282602088016134d9565b01949350505050565b600084516129e18184602089016134d9565b84519083016129f48282602089016134d9565b8451918101612a078382602089016134d9565b9091019695505050505050565b60008251612a268184602087016134d9565b607360f81b920191825250600101919050565b60008351612a4b8184602088016134d9565b808301603b60f81b815284519150612a6a8260018301602088016134d9565b01600101949350505050565b60008451612a888184602089016134d9565b603b60f81b9083018181528551612aa6816001840160208a016134d9565b80820183600182015286519350612ac4846002830160208a016134d9565b909201600201979650505050505050565b60008651612ae7818460208b016134d9565b603b60f81b9083018181528751612b05816001840160208c016134d9565b80820183600182015288519250612b23836002830160208c016134d9565b6002920191820183905250855190612b42826003830160208a016134d9565b81810183600382015286519350612b60846004830160208a016134d9565b9092016004019998505050505050505050565b60008351612b858184602088016134d9565b808301601760f91b815284519150612a6a8260018301602088016134d9565b60008251612bb68184602087016134d9565b616d7360f01b920191825250600201919050565b6000600360fc1b82528251612be68160018501602087016134d9565b9190910160010192915050565b7f3120313b3120313b312e3520312e353b3120313b312031000000000000000000815260170190565b6b111035b2bcaa34b6b2b99e9160a11b81528151600090612c4481600c8501602087016134d9565b91909101600c0192915050565b6b111031b0b631a6b7b2329e9160a11b81528151600090612c4481600c8501602087016134d9565b6000633020303b60e01b82528551612c98816004850160208a016134d9565b808301600160fd1b91508160048201528651612cbb816005840160208b016134d9565b808201643b3020303b60d81b600582015287519250612ce183600a830160208b016134d9565b82810191505082600a82015285519250612d0283600b8301602089016134d9565b6303b3020360e41b9201600b81019290925250600f019695505050505050565b600061303b60f01b82528451612d3f8160028501602089016134d9565b808301603b60f81b91508160028201528551612d62816003840160208a016134d9565b80820183600382015286519350612d80846004830160208a016134d9565b613b3160f01b93016004810193909352505060060195945050505050565b600061303b60f01b82528351612dbb8160028501602088016134d9565b808301603b60f81b600282015284519150612ddd8260038301602088016134d9565b8181016303b3336360e41b60038201526007810193505050509392505050565b600061303b60f01b82528351612e1a8160028501602088016134d9565b808301603b60f81b600282015284519150612e3c8260038301602088016134d9565b8181016703b3336303b3336360c41b6003820152600b810193505050509392505050565b60007f222063616c634d6f64653d2273706c696e6522206b657953706c696e65733d2282528251612e988160208501602087016134d9565b9190910160200192915050565b6d3132b3b4b71e913a30b933b2ba1760911b81528151600090612ecf81600e8501602087016134d9565b61011160f51b600e939091019283015250601001919050565b6c3932b832b0ba21b7bab73a1e9160991b81528151600090612f1181600d8501602087016134d9565b61011160f51b600d939091019283015250600f01919050565b6000771e30b734b6b0ba329030ba3a3934b13aba32a730b6b29e9160411b82528651612f5d816018850160208b016134d9565b6911103b30b63ab2b99e9160b11b601891840191820152865190612f88826022830160208b016134d9565b661110323ab91e9160c91b602292820192830152865191612fb0836029830160208b016134d9565b865192019050612fc78260298301602089016134d9565b61011160f51b602992820192830152845191612fea83602b8301602089016134d9565b61179f60f11b9201602b81019290925250602d01979650505050505050565b6000771e30b734b6b0ba329030ba3a3934b13aba32a730b6b29e9160411b8252875161303c816018850160208c016134d9565b6911103b30b63ab2b99e9160b11b601891840191820152875190613067826022830160208c016134d9565b661110323ab91e9160c91b60229282019283015287519161308f836029830160208c016134d9565b8281019150506b111035b2bcaa34b6b2b99e9160a11b6029820152865191506130bf826035830160208a016134d9565b6d111035b2bca9b83634b732b99e9160911b6035928201928301528551916130ee836043830160208a016134d9565b61310d613108613102604386850101612957565b8861292d565b612977565b9b9a5050505050505050505050565b6000602d60f81b82528251612be68160018501602087016134d9565b600063181d981760e11b825282516131578160048501602087016134d9565b653b302e393b3160d01b6004939091019283015250600a01919050565b600063181d981760e11b825283516131938160048501602088016134d9565b808301621d981760e91b6004820152845191506131b78260078301602088016134d9565b818101613b3160f01b60078201526009810193505050509392505050565b60007f3c616e696d6174655472616e73666f726d206174747269627574654e616d653d825260207f227472616e73666f726d2220617474726962757465547970653d22584d4c222081840152653a3cb8329e9160d11b604084015289516132428160468601848e016134d9565b661110323ab91e9160c91b60469185019182015289519061326982604d8301858e016134d9565b6911103b30b63ab2b99e9160b11b604d928201928301528951916132938360578301868e016134d9565b8951920190506132a98260578301858c016134d9565b87519181016132be8360578301868c016134d9565b6132e16131086132db6132d66057878601018c61292d565b612949565b8961292d565b9d9c50505050505050505050505050565b90815260200190565b91825260ff16602082015260400190565b600060208252611dc16020830184612901565b6020808252601b908201527f536166654d6174683a206164646974696f6e206f766572666c6f770000000000604082015260600190565b60208082526021908201527f5369676e6564536166654d6174683a206164646974696f6e206f766572666c6f6040820152607760f81b606082015260800190565b60208082526021908201527f5369676e6564536166654d6174683a206469766973696f6e206f766572666c6f6040820152607760f81b606082015260800190565b60208082526021908201527f536166654d6174683a206d756c7469706c69636174696f6e206f766572666c6f6040820152607760f81b606082015260800190565b60208082526027908201527f5369676e6564536166654d6174683a206d756c7469706c69636174696f6e206f604082015266766572666c6f7760c81b606082015260800190565b60208082526024908201527f5369676e6564536166654d6174683a207375627472616374696f6e206f766572604082015263666c6f7760e01b606082015260800190565b6020808252818101527f5369676e6564536166654d6174683a206469766973696f6e206279207a65726f604082015260600190565b60005b838110156134f45781810151838201526020016134dc565b83811115613503576000848401525b5050505056fe303b302e313b302e323b302e333b302e343b302e353b302e363b302e373b302e383b302e393b31303b37323b37323b3134343b3134343b3231363b3231363b3237383b3237383b3336303b333630303b302e3132353b302e32353b302e3337353b302e353b302e3632353b302e383b302e3932353b31a2646970667358221220086fe1fa02cc2bfa3f62f907615837804afd56931138bbdb0ab10b08f08078ab64736f6c63430006080033",
  "linkReferences": {
    "contracts/libraries/FixidityLib.sol": {
      "FixidityLib": [
        {
          "length": 20,
          "start": 8416
        },
        {
          "length": 20,
          "start": 8577
        },
        {
          "length": 20,
          "start": 8702
        },
        {
          "length": 20,
          "start": 8728
        },
        {
          "length": 20,
          "start": 8754
        }
      ]
    },
    "contracts/libraries/Utils.sol": {
      "Utils": [
        {
          "length": 20,
          "start": 2278
        },
        {
          "length": 20,
          "start": 2453
        },
        {
          "length": 20,
          "start": 3140
        },
        {
          "length": 20,
          "start": 3298
        },
        {
          "length": 20,
          "start": 3912
        },
        {
          "length": 20,
          "start": 4070
        },
        {
          "length": 20,
          "start": 5010
        },
        {
          "length": 20,
          "start": 5169
        },
        {
          "length": 20,
          "start": 9139
        },
        {
          "length": 20,
          "start": 9337
        }
      ]
    }
  },
  "deployedLinkReferences": {
    "contracts/libraries/FixidityLib.sol": {
      "FixidityLib": [
        {
          "length": 20,
          "start": 8378
        },
        {
          "length": 20,
          "start": 8539
        },
        {
          "length": 20,
          "start": 8664
        },
        {
          "length": 20,
          "start": 8690
        },
        {
          "length": 20,
          "start": 8716
        }
      ]
    },
    "contracts/libraries/Utils.sol": {
      "Utils": [
        {
          "length": 20,
          "start": 2240
        },
        {
          "length": 20,
          "start": 2415
        },
        {
          "length": 20,
          "start": 3102
        },
        {
          "length": 20,
          "start": 3260
        },
        {
          "length": 20,
          "start": 3874
        },
        {
          "length": 20,
          "start": 4032
        },
        {
          "length": 20,
          "start": 4972
        },
        {
          "length": 20,
          "start": 5131
        },
        {
          "length": 20,
          "start": 9101
        },
        {
          "length": 20,
          "start": 9299
        }
      ]
    }
  }
}